:100000000C942D1C0C945E1C0C945E1C0C945E1CB9
:100010000C945E1C0C945E1C0C945E1C0C945E1C78
:100020000C945E1C0C945E1C0C945E1C0C945E1C68
:100030000C945E1C0C945E1C0C945E1C0C945E1C58
:100040000C945E1C0C94A1E20C945E1C0C945E1C3F
:100050000C945E1C0C945E1C0C94D9C20D94761703
:100060000C945E1C0C94A13A0C948D3A0C945E1C7A
:100070000C945E1C0C945E1C0C945E1C0C945E1C18
:100080000C945E1C0C945E1C0C945E1C0C945E1C08
:100090000C94AD390C94973A0C945E1C0C945E1C35
:1000A0000C945E1C0C945E1C0C945E1C0C945E1CE8
:1000B0000C945E1C0C945E1C0C945E1C0C945E1CD8
:1000C0000C945E1C0C945E1C0C945E1C0C945E1CC8
:1000D0000C945E1C0C945E1C0C945E1C0C945E1CB8
:1000E0000C945E1CDC39EE39003A113A193A483A60
:1000F0001D3A483A213A253A483A293A2D3A313AB6
:10010000393A483A433AD03AE23AF43A053B0D3BA1
:100110003C3B113B3C3B153B193B3C3B1D3B213BD6
:10012000253B2D3B3C3B373BCE0198014C01620106
:10013000D20160017601B2015001AA0186013801A5
:100140007001CA018401C201840184018401840117
:100150008401840184018401840184018401840177
:100160008401840184018401840184018401840167
:10017000840184018401840184018401B601840125
:1001800084018401840184018401840184019C012F
:100190008401840184018401840184018401840137
:1001A00084018401660190012C018A01C6015E016F
:1001B0005A0174012A016401AE013A014A01200189
:1001C000C401CC017401C001A40180015601BA012F
:1001D000A2014401A801320152019401C8012E017B
:1001E000240158016A01A60132017C019E015C01D3
:1001F000084AD73B3BCE016E84BCBFFDC12F3D6C8E
:1002000074319ABD56833DDA3D00C77F11BED9E4F3
:10021000BB4C3E916BAAAABE000000803F05A84CD3
:10022000CDB2D44EB93836A9020C50B9918688089F
:100230003CA6AAAA2ABE000000803F000D943011FF
:100240000D943B160D9448110D94DE160D94430445
:100250000D9479120D9423160D941C160D94D4163A
:100260000D9433040D9429170D943E050D94381107
:100270000D945E120D9431160D9479050D94671D41
:100280000D9440110D944B050D94A6160D945E0629
:100290000D942C110D9435160D944C120D94491D8E
:1002A0000D9458120D94BA160D943E040D949216A6
:1002B0000D94E8160D9416160D941F170D94121632
:1002C0000D9452120D9473120D9427160D94BB14B5
:1002D0000D9450110D94F7160D94ED050D94490EE3
:1002E0000D9468140D9450050D9456160D945512E6
:1002F0000D945A050D941F060D940B170D94380696
:100300000D9451160D9444110D9425130D945B1208
:100310000D9455050D941F160D94E20E0D94541175
:100320000D9422130D9434110D94C2160D943C11AA
:100330000D9449120D9406060D9477140D9415171B
:100340000D9498070D949C160D944D160D9401175D
:100350000D94B0160D946E120D9446050D942D1645
:100360000D9476120D9461120D9451060D949E1405
:100370000D947C120D9497160D946D1E0D94BB0F69
:100380000D9449160D94A4140D943F160D940E1659
:100390000D94CA160D94EC120D9443160D94701220
:1003A0000D94B70D0D944F120D944C114E414E49C2
:1003B0004E495459494E46CDCCCC3D0AD7233C1723
:1003C000B7D13877CC2B329595E6241FB14F0A0070
:1003D0000020410000C84200401C4620BCBE4CCA60
:1003E0001B0E5AAEC59D7400407A10F35A00A072DD
:1003F0004E18090010A5D4E80000E8764817000060
:10040000E40B54020000CA9A3B000000E1F505002D
:100410000080969800000040420F000000A0860176
:10042000000000102700000000E803000000006446
:1004300000000000000A00000000000100000000B1
:10044000002C76D888DC674F0823DFC1DFAE59E186
:10045000B1B796E5E3E453C63AE651997696E8E6F5
:10046000C28426EB898C9B62ED407C6FFCEFBC9CC8
:100470009F40F2BAA56FA5F490055A2AF75C936BDA
:100480006CF9676DC11BFCE0E40D47FEF520E6B595
:1004900000D0ED902E0300943577050080841E086F
:1004A0000000204E0A000000C80C333333330F988D
:1004B0006E12831141EF8D2114893BE65516CFFE54
:1004C000E6DB18D1844B381BF77C1D901DA4BBE4E0
:1004D00024203284725E228100C9F124ECA1E53D22
:1004E00027434F4D4D554E49434154494F4E0044CB
:1004F000525952554E004552524F525300494E46A2
:100500004F004543484F0047322F47332062616414
:1005100020706172616D65746572730A0047322FD5
:1005200047332062616420706172616D6574657229
:10053000730A00536C6565702E2E2E00486F6D6532
:1005400020257325732573204669727374004D301E
:100550002053746F70004D312053746F7000436CE2
:1005600069636B20746F20526573756D652E2E2E36
:10057000004E6F204D6F76652E00456E64206669D3
:100580006C65206C6973740A00426567696E206649
:10059000696C65206C6973740A004E6F206D656428
:1005A00069610A00526573756D696E672053440076
:1005B000286E6F2066696C65290043757272656EDE
:1005C000742066696C653A20005072696E742074FC
:1005D000696D653A20000A53746174733A20466964
:1005E0006C616D656E7420757365643A20002C2013
:1005F0004C6F6E67657374206A6F623A2000546FA7
:1006000074616C2074696D653A2000537461747371
:100610003A20002C204661696C65643A20002C2049
:1006200046696E69736865643A20005072696E7439
:10063000733A200053746174733A2000436F6F6CF7
:10064000696E672E2E2E0048656174696E672E2EC6
:100650002E0045202553006F6B006F666600020573
:10066000FD04F604EF04E10444454255473A004DC9
:1006700031313320530043522D3130205633204F37
:1006800046462E002F2F004D31343520533C696EE5
:100690006465783E206F7574206F662072616E67A6
:1006A000652028302D31290A0020520041636365FE
:1006B0006C65726174696F6E3A20500020204D6144
:1006C000783A2000200020204D696E3A2000536FB8
:1006D000667420656E6473746F70733A20004652BE
:1006E0003A0020466C6F773A200020643A00206977
:1006F0003A0020703A00496E76616C696420657832
:100700007472756465720A0020643A0020693A00C8
:1007100020703A0064697300656E0043290A006125
:10072000626C656420286D696E2074656D702000B0
:10073000436F6C64206578747275646573206172B0
:1007400065200046696C616D656E742072756E6F10
:1007500075742064697374616E636520286D6D29FA
:100760003A200046696C616D656E742072756E6F1B
:1007700075742000454550524F4D204F4B0A004F95
:100780004646004F4E00506F7765722D6C6F737345
:10079000207265636F7665727920004D38340044AD
:1007A0006F6E65207072696E74696E672066696C21
:1007B000650A004D3737004D333100496E76616C64
:1007C00069642065787472756465720A0045727296
:1007D0006F722077726974696E6720746F20454567
:1007E00050524F4D210A0053544F505045442E2033
:1007F000005072696E7465722073746F70706564F6
:100800002064756520746F206572726F72732E207C
:1008100046697820746865206572726F7220616E17
:100820006420757365204D39393920746F207265E5
:1008300073746172742E202854656D7065726174D2
:100840007572652069732072657365742E20536517
:1008500074206974206166746572207265737461B6
:100860007274696E67290A004E6F20436865636B76
:1008700073756D2077697468206C696E65206E757C
:100880006D6265722C204C617374204C696E653A00
:1008900020004E6F20436865636B73756D20776928
:1008A0007468206C696E65206E756D6265722C20AF
:1008B0004C617374204C696E653A2000636865630F
:1008C0006B73756D206D69736D617463682C204C5A
:1008D000617374204C696E653A20004C696E652026
:1008E0004E756D626572206973206E6F74204C6165
:1008F0007374204C696E65204E756D6265722B3184
:100900002C204C617374204C696E653A20004D3187
:1009100031300053657269616C2073746174757352
:10092000206D69736D617463680A005344207265B9
:100930006164206572726F720A002121204B494C5C
:100940004C20636175736564206279204B494C4C7F
:1009500020627574746F6E2F70696E0A00212120F9
:100960004B494C4C20636175736564206279207437
:100970006F6F206D75636820696E61637469766559
:100980002074696D65202D2063757272656E742008
:10099000636F6D6D616E643A200070617573650000
:1009A0004D363030002066696C616D656E745F7223
:1009B000756E6F7574200066696C616D656E745F2D
:1009C00072756E6F757420540046696C616D656E4A
:1009D0007452756E6F75742054004D6564696120A2
:1009E00052656D6F766564004D6564696120496E7E
:1009F000736572746564004D313030305300627538
:100A000073793A2070617573656420666F7220692E
:100A10006E7075740A00627573793A20706175732F
:100A2000656420666F7220757365720A0062757363
:100A3000793A2070726F63657373696E670A004458
:100A40006966663A2020200046726F6D5374703AD2
:100A500000537465707065723A005261773A2020D5
:100A60002020000A4C6F676963616C3A00436F7520
:100A70006E7420453A004361703A004D4541545030
:100A800041434B00434F4F4C45525F54454D5045F9
:100A9000524154555245004348414D4245525F54DE
:100AA000454D5045524154555245004241425953DB
:100AB00054455050494E470041524353004D4F5406
:100AC000494F4E5F4D4F44455300544845524D41A8
:100AD0004C5F50524F54454354494F4E004C4F4E7B
:100AE000475F46494C454E414D45004155544F5294
:100AF00045504F52545F53445F5354415455530033
:100B000053445F57524954450052455045415400A3
:100B10005344434152440050524F4D50545F53553B
:100B200050504F525400454D455247454E43595F32
:100B300050415253455200434153455F4C49474849
:100B4000545F4252494748544E45535300544F470F
:100B5000474C455F4C494748545300534F46545700
:100B60004152455F504F574552004255494C445FF2
:100B700050455243454E54004C4556454C494E470E
:100B80005F44415441005A5F50524F424500525514
:100B90004E4F5554004155544F4C4556454C00500E
:100BA00052494E545F4A4F420050524F47524553AC
:100BB00053004155544F5245504F52545F54454D88
:100BC00050004155544F5245504F52545F504F536F
:100BD00000564F4C554D45545249430045455052DF
:100BE0004F4D0042494E4152595F46494C455F5472
:100BF00052414E534645520053455249414C5F586D
:100C00004F4E5F584F4646004649524D5741524558
:100C10005F4E414D453A4D61726C696E20322E3007
:100C20002E382E312D46695A692D424C2D313135E1
:100C300032303020284D6179203135203230323148
:100C40002031343A35333A30352920534F55524309
:100C5000455F434F44455F55524C3A676974687528
:100C6000622E636F6D2F4D61726C696E4669726D95
:100C7000776172652F4D61726C696E2050524F54CE
:100C80004F434F4C5F56455253494F4E3A312E30E9
:100C9000204D414348494E455F545950453A4352CF
:100CA0002D31302056332045585452554445525F1B
:100CB000434F554E543A3120555549443A63656483
:100CC00065326132662D343161322D343734382D3E
:100CD000396231322D6335356336326633363766E5
:100CE000660A006F6B0A00526573656E643A2000F5
:100CF00043616E6E6F74206F70656E2073756264F1
:100D0000697220002569730025696D2025697300CB
:100D10002569682025696D2025697300256964208F
:100D20002569682025696D2025697300256979206A
:100D3000256964202569682025696D20256973006F
:100D400020573A0042656420436F6F6C696E672ECE
:100D50002E2E004265642048656174696E672E2EF0
:100D60002E0023646566696E652044454641554CF6
:100D7000545F00626564004B6420004B6920004BA7
:100D8000702000504944204175746F74756E652061
:100D900066696E6973686564212050757420746893
:100DA00065206C617374204B702C204B6920616E40
:100DB00064204B6420636F6E7374616E747320667D
:100DC000726F6D2062656C6F7720696E746F20435F
:100DD0006F6E66696775726174696F6E2E680A005E
:100DE000504944204175746F74756E652066616961
:100DF0006C6564212074696D656F75740A005049D3
:100E000044204175746F74756E65206661696C6508
:100E100064212054656D706572617475726520740B
:100E20006F6F20686967680A00204B643A200020D1
:100E30004B693A2000204B703A200020436C6173CC
:100E400073696320504944200A00204E6F206F765A
:100E5000657273686F6F740A002054753A20002021
:100E60004B753A2000206D61783A2000206D696E44
:100E70003A200020643A200020626961733A200021
:100E8000504944204175746F74756E6520737461A8
:100E900072740A00504944204175746F74756E6510
:100EA000206661696C6564212054656D70657261AE
:100EB0007475726520746F6F20686967680A0050E6
:100EC0004944204175746F74756E65005049442023
:100ED0004175746F74756E65206661696C65642117
:100EE00020426164206865617465722069640A004B
:100EF0004572723A207574663820666F6E74206E83
:100F00006F7420696E697469616C697A65642E001A
:100F10004572723A207574663820666F6E74206E62
:100F20006F7420696E697469616C697A65642E00FA
:100F30004572723A207574663820666F6E74206E42
:100F40006F7420696E697469616C697A65642E00DA
:100F5000000C0F00FE07022503BB017FFE08FE0800
:100F6000FE05080806000040F0C88888987810053B
:100F70000808060000C0F88888888888F8050505F4
:100F80000600012030F83020050808060000207017
:100F9000F820202020E00509090600FF2070A8A8FD
:100FA000B888887020070505070001D86C366CD812
:100FB0000509090600FFF8A88888888888A8F80528
:100FC0000A0A0600FE205050505088A8A8887003D6
:100FD000030306000340A040FFFFFFFFFFFFFFFFEA
:100FE000FFFFFFFFFFFFFFFFFFFFFFFFFFFF00000F
:100FF000000605FF01070706020080808080800050
:1010000080030303060105A0A0A005060606000054
:1010100050F85050F8500509090600FF2070A8A0AC
:101020007028A87020050707060000C8C8102040D7
:10103000989805070706000040A0A040A890680106
:1010400003030602058080800309090601FF204092
:10105000408080804040200309090601FF80404015
:1010600020202040408005070706000020A87020AF
:1010700070A8200505050600012020F820200203A5
:10108000030601FFC04080050101060003F80202CB
:1010900002060100C0C00507070600000810102066
:1010A000404080050707060000708898A8C888702F
:1010B00003070706010040C040404040E005070725
:1010C000060000708808102040F805070706000099
:1010D000F808103008887005070706000010305027
:1010E00090F81010050707060000F880F00808883F
:1010F00070050707060000304080F08888700507FB
:1011000007060000F8081010202020050707060039
:10111000007088887088887005070706000070884E
:101120008878081060020505060100C0C000C0C034
:101130000206060601FFC0C000C040800305050688
:1011400001012040804020050303060002F800F85A
:1011500003050506010180402040800507070600C1
:101160000070881020200020050707060000708806
:10117000B8A8B88070050707060000708888F8884E
:101180008888050707060000F04848704848F005C1
:1011900007070600007088808080887005070706B2
:1011A0000000F04848484848F0050707060000F8E6
:1011B0008080F08080F8050707060000F88080F046
:1011C00080808005070706000070888080988870FE
:1011D000050707060000888888F8888888030707BD
:1011E000060100E04040404040E0050707060000DF
:1011F000381010101090600507070600008890A0B6
:10120000C0A090880507070600008080808080804D
:10121000F805070706000088D8A888888888050789
:10122000070600008888C8A8988888050707060070
:101230000070888888888870050707060000F08895
:1012400088F080808005070706000070888888A8DD
:101250009068050707060000F08888F0A0908805D0
:101260000707060000708880700888700507070669
:101270000000F82020202020200507070600008815
:10128000888888888870050707060000888888880D
:1012900050502005070706000088888888A8A850B5
:1012A0000507070600008888502050888805070732
:1012B000060000888850202020200507070600002F
:1012C000F80810204080F80309090601FFE080803B
:1012D0008080808080E00507070600008040402075
:1012E0001010080309090601FFE02020202020201B
:1012F00020E00503030600052050880501010600D3
:10130000FEF80303030601058040200505050600DD
:101310000070087888780507070600008080F0884C
:101320008888F00505050600007080808870050734
:1013300007060000080878888888780505050600F3
:10134000007088F08070050707060000304840E014
:101350004040400507070600FE70888888780870BE
:101360000507070600008080F08888888803070743
:101370000601004000C0404040E00409090601FEAB
:101380001000301010101090600507070600008054
:10139000808890E09088030707060100C040404025
:1013A0004040E0050505060000D0A8A8A8A805054E
:1013B00005060000B0C8888888050505060000708D
:1013C000888888700507070600FEF0888888F08006
:1013D000800507070600FE788888887808080505D4
:1013E00005060000B0C8808080050505060000786D
:1013F000807008F00507070600002020F820202054
:101400001805050506000088888898680505050602
:10141000000088888850200505050600008888A8F7
:10142000A8500505050600008850205088050707CC
:101430000600FE88888850204080050505060000CB
:10144000F8102040F80309090601FF2040404080C1
:10145000404040200109090602FF80808080808092
:101460008080800309090601FF8040404020404001
:10147000408005030306000248A890FF52756E6F76
:1014800075742044697374206D6D004C6F61642025
:101490006D6D00556E6C6F6164206D6D0046696CFA
:1014A0002E204469612E004520696E206D6D5E33EB
:1014B000004D3330332055312045256920532569AF
:1014C00000504944204175746F74756E65202A0080
:1014D0005049442D44202A005049442D49202A00D7
:1014E0005049442D50202A00200820466163740092
:1014F0002008204D6178002008204D696E004F665D
:1015000066004F6E004175746F74656D700024F451
:10151000D43050C38E20C2A24017828B7011127A31
:10152000910D816CD90AA861E108C758660761511D
:1015300043061E4B5D05C145A7041A411104093D30
:101540009803713931034036DB0265339102D430A0
:101550005402802E1D02632CEE01752AC501B028AD
:10156000A001102781018F2564012B244B01E0226B
:101570003401AC211F018D200D01801FFC00841E51
:10158000ED00971DDF00B81CD200E61BC600201B33
:10159000BC00641AB200B219A8000A19A0006A18A7
:1015A0009900D117910040178B00B51684003116B1
:1015B0007E00B31579003A157300C7146F005814F4
:1015C0006A00EE1366008813630025135E00C712DD
:1015D0005B006C12570015125400C11151007011BC
:1015E0004F0021114B00D61049008D1047004610C6
:1015F000440002104200C00F4000800F3E00420F26
:101600003C00060F3B00CB0E3800930E37005C0EFB
:101610003500270E3400F30D3200C10D3100900D5E
:101620003000600D2E00320D2D00050D2C00D90C60
:101630002B00AE0C2900850C29005C0C2700350C12
:1016400027000E0C2600E80B2400C40B2400A00B7E
:1016500023007D0B23005A0B2100390B2100180BAE
:101660002000F80A1F00D90A1E00BB0A1E009D0AAE
:101670001D00800A1D00630A1C00470A1B002C0A7B
:101680001B00110A1A00F7091A00DD091900C40924
:101690001900AB091900920917007B0918006309AA
:1016A00017004C09160036091600200916000A0911
:1016B0001500F5081500E0081400CC081400B8085F
:1016C0001400A4081400900813007D0812006B0891
:1016D00013005808120046081200340811002308AD
:1016E00011001208110001081100F0071000E007B6
:1016F0001000D0071000C0071000B0070F00A107AE
:10170000100091070E0083070F0074070F00650794
:101710000E0057070E0049070E003B070D002E076D
:101720000E0020070D0013070D0006070D00F90637
:101730000C00ED060D00E0060C00D4060C00C806F7
:101740000C00BC060C00B0060C00A4060B009906A9
:101750000C008D060B0082060B0077060B006C0652
:101760000B0061060A0057060B004C060A004206F1
:101770000A0038060A002E060A0024060A001A0685
:101780000A001006090007060A00FD050900F40515
:101790000900EB050900E2050900D9050900D0059B
:1017A0000900C7050900BE050900B5050800AD051B
:1017B0000800A50509009C050800940508008C0593
:1017C0000800840508007C050800740508006C0505
:1017D0000700650508005D050700560508004E0571
:1017E00007004705070040050800380507003105D8
:1017F00007002A050700230507001C05060016053B
:1018000007000F0507000805060002050700FB0496
:101810000600F5040700EE040600E8040600E204F2
:101820000700DB040600D5040600CF040600C90447
:101830000600C3040600BD040600B7040600B10498
:101840000500AC040600A6040600A00405009B04E5
:10185000060095040500900406008A04050085042E
:101860000500800406007A04050075040500700474
:1018700005006B04050066040500610405005C04B6
:10188000050057040500520405004D0405004804F6
:101890000500430405003E0404003A040500350435
:1018A0000500300404002C04050027040400230470
:1018B00005001E0404001A040400160405001104A7
:1018C00004000D04040009040500040404000004DD
:1018D0000400FC030400F8030400F4030400F00314
:1018E0000400EC030400E8030400E4030400E00344
:1018F0000400DC030400D8030400D4030400D00374
:101900000400CC030400C8030300C503030024F44F
:1019100004D9201BC40C5C0E9804C4095F0265073F
:101920007101F405F900FB04B30048048700C1030A
:1019300069005803550003034500BE023A008402C3
:10194000310053022A002902250004022000E4018C
:101950001C00C8011900AF01170098011400840190
:101960001300710110006101100051010E004301CC
:101970000D0036010B002B010B0020010B0015019F
:1019800009000C01090003010800FB000800F30036
:101990000800EB000700E4000600DE000600D800A7
:1019A0000600D2000600CC000500C7000500C200FA
:1019B0000500BD000400B9000400B5000400B1003A
:1019C0000400AD000400A9000400A5000300A2006B
:1019D00003009F0004009B00030098000300950093
:1019E000020093000300900003008D0002008B00B2
:1019F00003008800020086000200840003008100CA
:101A000002007F0002007D0002007B0002007900DE
:101A100002007700010076000200740002007200EC
:101A20000100710002006F0002006D0001006C00F7
:101A300002006A0001006900020067000100660000
:101A40000100650001006400020062000100610005
:101A50000100600001005F0002005D0001005C0009
:101A600001005B0001005A0001005900010058000C
:101A7000010057000100560001005500010054000C
:101A8000010053000000530001005200010051000A
:101A90000100500001004F0001004E0000004E0008
:101AA00001004D0001004C0001004B0000004B0004
:101AB00001004A0001004900010048000000480000
:101AC00001004700010046000000460001004500FB
:101AD00000004500010044000100430000004300F5
:101AE00001004200000042000100410000004100EE
:101AF0000100400001003F0000003F0001003E00E7
:101B000000003E0001003D0000003D0001003C00DF
:101B100000003C0000003C0001003B0000003B00D6
:101B200001003A0000003A000100390000003900CD
:101B300001003800000038000000380001003700C4
:101B400000003700010036000000360000003600BB
:101B500001003500000035000000350001003400B0
:101B600000003400000034000100330000003300A6
:101B7000000033000100320000003200000032009B
:101B80000100310000003100000031000100300090
:101B9000000030000000300001002F0000002F0086
:101BA00000002F0000002F0001002E0000002E007A
:101BB00000002E0001002D0000002D0000002D006F
:101BC00000002D0001002C0000002C0000002C0063
:101BD00000002C0001002B0000002B0000002B0057
:101BE00000002B0001002A0000002A0000002A004B
:101BF00000002A000100290000002900000029003F
:101C00000000290000002900010028000000280031
:101C10000000280000002800000028000100270024
:101C20000000270000002700000027000000270018
:101C3000010026000000260000002600000026000B
:101C400000002600010025000000250000002500FE
:101C500000002500000025000000250001002400F0
:101C600000002400000024000000240000002400E4
:101C700001002300000023000000230000002300D7
:101C800000002300000023000000230001002200C8
:101C900000002200000022000000220000002200BC
:101CA00000002200010021000000210000002100AE
:101CB00000002100000021000000210000002100A0
:101CC0000100200000002000000020000000200093
:101CD0000000200000002000000020000000200084
:101CE00001001F0000001F0000001F0000001F0077
:101CF00000001F0000001F0000001F0001001E0068
:101D000000001E0000001E0000001E000000393010
:101D100000003325000087190000B00F0000DB0829
:101D20000000BD040000740200003F010000426595
:101D30006400456E636C6F73757265002568753A53
:101D400025303268750025303268753A25303268A2
:101D50007500202020202020200020202020001F8F
:101D6000E020102010201010201020201020103013
:101D7000300840048003001FE03FF03FF03FF01FB9
:101D8000E01FE03FF03FF03FF00FC0078003003F4F
:101D9000FFF038007030FC3020FC1020781020302C
:101DA000102C00D02E31D02F7BD02F7BD02E31D0D5
:101DB0002C00D020301020781020FC1030FC30385F
:101DC00000703FFFF03FFFF038007031863023870E
:101DD000102787902F87D02F03D020301020781025
:101DE0002078102030102F03D02F87D02787902302
:101DF00087103186303800703FFFF01FFFF81FFF5B
:101E0000F804104002082002082004104008208036
:101E10001041001041000820800410400000001F05
:101E2000FFF81FFFF8000000001E00000000210066
:101E3000000000271DC08C00272121920041212095
:101E400092008E21CE9200902120920110212092AA
:101E500001201D21CC022000000004100113000805
:101E6000100114801008011080200400A30047F224
:101E700000A08043E2004480200400430018D80002
:101E80000000198400000021FC0000003F00554EB6
:101E90004C4F41442046494C414D454E54004C4F17
:101EA00041442046494C414D454E540046494C4121
:101EB0004D454E54204348414E474500426564001D
:101EC0004E6F7A7A6C650046616E2053706565646A
:101ED00000436F6E66696775726174696F6E005258
:101EE0006573746F72652044656661756C74730008
:101EF0004C6F61642053657474696E67730053742A
:101F00006F72652053657474696E677300507265F3
:101F100068656174202420436F6E6600506F77659A
:101F200072204F7574616765004F6666004F6E00E2
:101F300052756E6F75742053656E736F72004164D5
:101F400076616E6365642053657474696E677300AF
:101F50004D61696E004D37303220542564004D3696
:101F6000303020423020542564004D373032203B41
:101F70002564004D37303120542564004D37303210
:101F8000004D373031004D363030204230004D6149
:101F9000696E00436F6E74696E7565004F6666000A
:101FA0004F6E0052756E6F75742053656E736F724D
:101FB000005075726765206D6F726500524553550C
:101FC0004D45204F5054494F4E533A005052494EC0
:101FD00054205041555345440020204E6F7A7A6C6E
:101FE000653A200066696C616D656E74007A5F6D9C
:101FF000696E00795F6D696E00785F6D696E005281
:1020000065706F7274696E6720656E6473746F704B
:10201000207374617475730A0020746F6F206C6F85
:102020006E6720657874727573696F6E2070726563
:1020300076656E7465640A0020636F6C6420657851
:1020400074727573696F6E2070726576656E7465F3
:10205000640A0000000000000000000000000057BB
:1020600061726E696E673A20486F6D696E672042D3
:10207000756D702044697669736F72203C20310A57
:102080000002020400009B4300009B430000C84381
:102090000000A0400000A04000000040FFFFFF0043
:1020A00000000100000001000080005555550000AF
:1020B00000400033333300AAAA2A004992240000CA
:1020C000002000C7711C0099991900D145170055CF
:1020D0005515003BB11300244912001111110000E5
:1020E0000010000F0F0F00E3380E0043790D00CCF5
:1020F000CC0C00C3300C00E8A20B0064210B00AA3A
:10210000AA0A00703D0A009DD80900427B0900928E
:10211000240900DCD3080088880800104208000069
:10212000000800F0C107008787070075500700719D
:102130001C07003EEB0600A1BC0600699006006685
:10214000660600703E06006118060017F40500746C
:10215000D105005BB00500B2900500627205005524
:1021600055050078390500B81E0500050505004E27
:10217000EC040087D40400A1BD040090A70400492A
:10218000920400C17D0400EE690400C756040044B7
:102190004404005C320400082104004110040000E3
:1021A0000004003FF00300F8E0030026D20300C360
:1021B000C30300CCB503003AA803000A9B03003810
:1021C0008E0300C08103009F750300D06903005097
:1021D0005E03001D53030034480300913D030033A8
:1021E00033030016290300381F030097150300303E
:1021F0000C0300030303000BFA020049F10200BACA
:10220000E802005CE002002DD802002DD002005947
:10221000C80200B0C0020031B90200DAB10200AA5F
:10222000AA0200A0A30200BC9C0200FA9502005C76
:102230008F0200DF88020082820200457C020027B4
:1022400076020027700200436A02007C640200D01C
:102250005E02003F590200C8530200000000000067
:102260000000600000000000FC00000FF000000013
:102270000007E00000000001861FC0187000000089
:102280000000603C0C000001830C60103000000076
:102290000000603C0C000001830C30303000000076
:1022A000000060000C000000030C1830000000006B
:1022B000000060003F0F3C00030C0C6001DF0FE0EA
:1022C000FE00601C1C061800060C0C6000F31831A0
:1022D0008300600C0C0318001E0C0C6000E0303909
:1022E0008300600C0C033000030C0C6000C030381D
:1022F0000F00600C0C033000018C0C6000C03FF834
:10230000FB00600C0C033000018C0C6030C030010D
:102310008300600C0C01F001818C0C6030C0300136
:102320008300600C0C00E001818C183030C0183143
:102330008300600C0C40E001838C301860C00C619D
:1023400087C0E01C0CC06000C30C600FC3F007C066
:10235000FFC7FC7F0781C0007E1FC0000000000097
:102360000000000000070000000000000000000066
:1023700000000000000700000000006D61726C6941
:102380006E66772E6F726700322E302E382E312D0A
:1023900046695A692D424C2D313135323030001F9B
:1023A000FFFFFFFFFFFF600000000001FF40000093
:1023B000000000FF8000000000007F83CF00000CC1
:1023C000303F87FF80000C301F867980000C000FA3
:1023D0008C30C7838C30E78C30CFC7CC31F38C3056
:1023E000DCECEC33B98C30D86C6C33198C30D06C9D
:1023F0000C33198C30D86C0C33198C30DC6C0E3BE0
:10240000198C30CF7C079F198C30C77C038F194003
:10241000000000000002600000000000061FFFFF37
:10242000FFFFFFF870012C0190012701B00122018C
:10243000C0011D01F00118011002130130020E014C
:102440006002090190020401C002FF000003FA00CB
:102450004003F5008003F000D003EB002004E60009
:102460007004E100E004DC004005D700C005D200A4
:102470004006CD00D006C8008007C3003008BE006B
:10248000F008B900C009B400B00AAF00B00BAA0050
:10249000D00CA500000EA000500F9B00C0109600AD
:1024A0005012910000148C00C0158700B0178200F4
:1024B000B0197D00D01B7800001E730040206E0014
:1024C00090226900F024640040275F0090295A00A0
:1024D000E02B5500102E500020304B0010324600EB
:1024E000E033410090353C0010373700703832003F
:1024F000A0392D00B03A2800A03B2300603C1E000C
:10250000103D1900903D1400103E0F00703E0A006F
:10251000C03E0500003F0000403FFBFF803FF6FF4C
:10252000C03FF1FF2020506C616E6E65724275668F
:1025300066657242797465733A200020467265655B
:10254000204D656D6F72793A2000436F6D70696C34
:1025500065643A204D617920313520323032310ABC
:1025600000204C61737420557064617465643A2076
:10257000323032312D30352D3135207C204175748B
:10258000686F723A2046695A6920626173656420F7
:102590006F6E204161726F6E204A7573742C2043F8
:1025A0005231302D5633290A00322E302E382E313A
:1025B0002D46695A692D424C2D3131353230300A61
:1025C000004D61726C696E0020536F6674776172A2
:1025D000652052657365740A0020576174636864EE
:1025E0006F672052657365740A002042726F776EC0
:1025F000206F75742052657365740A0020457874E5
:1026000065726E616C2052657365740A00506F7755
:10261000657255700A0073746172740A004732382B
:102620005859004D31303031006572726F72207729
:10263000726974696E6720746F2066696C650A0040
:10264000446F6E6520736176696E672066696C659C
:102650002E0A004D323900456E6473746F7073003A
:102660002553202563202563202563202563002032
:102670005A3A0020593A0020583A00656E64737443
:102680006F7073206869743A20000A4D3234004D2F
:102690003233202573002E0A006F70656E2066614C
:1026A000696C65642C2046696C653A200046696C4B
:1026B000652073656C65637465640A002053697AEC
:1026C000653A200046696C65206F70656E65643AF6
:1026D0002000454E4420535542524F5554494E45D3
:1026E0000A002220706F73002220706172656E7480
:1026F0003A2200535542524F5554494E45204341CA
:102700004C4C207461726765743A220053756263A1
:10271000616C6C204F766572666C6F7700457863EC
:102720006565646564206D617820535542524F554C
:1027300054494E452064657074683A002E0A00447E
:10274000656C6574696F6E206661696C65642C20C8
:1027500046696C653A200046696C652064656C6565
:102760007465643A005344207072696E74696E67D0
:10277000206279746520004E6F742053442070727B
:10278000696E74696E670A002F6175746F25632E18
:10279000670057726974696E6720746F2066696C90
:1027A000653A2000667265736800646F696E670041
:1027B0002066696C653A20004E6F77200000002289
:1027C00000250028002B002E0031003400020100FB
:1027D00000050108010B0100002100240027002A48
:1027E000002D003000330001010000040107010A40
:1027F0000105050505070508080808020202020A86
:102800000A08080404040401010101010101010393
:1028100003030303030303040707070C0C0C0C0C4E
:102820000C0C0C0202020206060606060606060B41
:102830000B0B0B0B0B0B0B010210202008081020B8
:10284000401020408002010201080402010102043C
:1028500008102040808040201008040201800402FB
:102860000180402010080402010804020101020452
:1028700008102040800102040810204080436F6F40
:102880006C646F776E005072656865617420240017
:1028900046616E205370656564207E004265640069
:1028A0004E6F7A7A6C65004D61696E00466C6F7789
:1028B0000046616E205370656564207E0042656449
:1028C000004E6F7A7A6C65005370656564004D61E7
:1028D000696E00486F6D696E67204661696C65645A
:1028E000006F70656E005452494747455245440099
:1028F0003A20004D313030300053746F70205072E8
:10290000696E7400526573756D65205072696E74DE
:1029100000506F776572204F7574616765003F00E6
:102920004261636B0053746F70005072696E742063
:1029300066726F6D204D65646961004368616E6702
:1029400065204D65646961004D32310041626F75EB
:1029500074205072696E746572004368616E6765B9
:102960002046696C616D656E7400436F6E666967C1
:1029700075726174696F6E0054656D706572617413
:10298000757265004D6F74696F6E00526573756D79
:1029900065205072696E740043616E63656C204FF0
:1029A000626A6563740054756E650053746F7020BD
:1029B0005072696E74005061757365205072696E53
:1029C00074004E6F204D6564696100496E666F202A
:1029D00053637265656E003F0053746172742050DA
:1029E00072696E740043616E63656C005072696E4B
:1029F000740043616E6E6F7420656E74657220732F
:102A000075626469723A2000022E2E004D61696E73
:102A10000020573A007C3C3E5E2B3D3F2F5B5D3BE8
:102A20002C2A225C0020746F6F206C6F6E6720650B
:102A30007874727573696F6E2070726576656E74E6
:102A400065640A0020636F6C642065787472757326
:102A5000696F6E2070726576656E7465640A00FF3A
:102A6000FDFCFAF8F6F4F2F0EEECEAE9E7E5E3E172
:102A7000E0DEDCDAD9D7D5D4D2D0CFCDCBCAC8C727
:102A8000C5C3C2C0BFBDBCBAB9B7B6B4B3B2B0AFAC
:102A9000ADACAAA9A8A6A5A4A2A1A09E9D9C9A9906
:102AA000989795949392908F8E8D8B8A898887863C
:102AB00084838281807F7E7D7B7A79787776757456
:102AC000737271706F6E6D6C6B6A6968676665644E
:102AD000636261605F5E5D5C5B5A5958585756553A
:102AE0005453525150504F4E4D4C4B4A4A4948470F
:102AF0004646454443424241403F3E3E3D3C3B3BCF
:102B00003A39383837363535343332323130302F80
:102B10002E2E2D2C2B2B2A29292827272625252424
:102B2000232322212120201F1E1E1D1C1C1B1B1ABB
:102B30001919181817161615151413131212111146
:102B4000100F0F0E0E0D0D0C0C0B0A0A09090808C8
:102B5000070706060505040403030202010000003E
:102B6000009B4300009B430000C84300000000009E
:102B70000000000000000053657474696E677320E4
:102B800053746F726564003B200020436F756E7450
:102B900020583A0042656400453100626564002CAB
:102BA0002073797374656D2073746F707065642120
:102BB000204865617465725F49443A200048656148
:102BC00074696E67204661696C656400486561746C
:102BD000696E67206661696C6564004D3131322031
:102BE00053687574646F776E00202D20496E76618E
:102BF0006C6964206578747275646572206E756D99
:102C000062657220210A004572723A204D41585483
:102C1000454D50004D415854454D502074726967E0
:102C20006765726564004572723A204D494E54459D
:102C30004D50004D494E54454D50207472696767A0
:102C40006572656400544845524D414C2052554EC2
:102C50004157415900546865726D616C2052756E20
:102C60006177617900202F002042403A0020403AED
:102C700000506C6561736520526573657400505235
:102C8000494E5445522048414C5445440025533A3E
:102C900020255300706F7765726F6666004B494C54
:102CA0004C45442E20005072696E74657220686134
:102CB0006C7465642E206B696C6C28292063616CD0
:102CC0006C6564210A006563686F3A004572726F33
:102CD000723A002F2F616374696F6E3A0070726FE1
:102CE0006D70745F00656E6400486F74656E64207B
:102CF000746F6F20636F6C640A0053656E64204DBF
:102D000031303820746F20726573756D650A004923
:102D10006E736572742066696C616D656E74206196
:102D20006E642073656E64204D3130380A00526540
:102D30006865617420446F6E6500526568656174F2
:102D4000696E672E2E2E00526568656174004865B5
:102D5000617465722054696D656F75740053656E9A
:102D600064204D31303820746F2068656174206EA6
:102D70006F7A7A6C650A004E6F7A7A6C65205061C2
:102D8000726B656400706175736564005061757382
:102D90006500726573756D656400526573756D6964
:102DA0006E6700204D39322058004D323453256C67
:102DB0006454256C64004739322E39452573004729
:102DC000314625640047315A257346363030004776
:102DD000315825735925734633303030004D31302A
:102DE00036502569532569004D3130395325690026
:102DF0004D32303044257300473238523058590034
:102E000047315A257346363030004739322E395A09
:102E10002573004739322E394530004D3130395352
:102E20002569004D3139305325690020496E76619E
:102E30006C69642065787472756465722000452041
:102E400073746570732F6D6D005A205374657073C1
:102E50002F6D6D00592053746570732F6D6D005880
:102E60002053746570732F6D6D00416476616E63DD
:102E700065642053657474696E6773003F00436135
:102E80006E63656C00496E697400496E69746961AE
:102E90006C697A6520454550524F4D0046696C611A
:102EA0006D656E740054656D7065726174757265E0
:102EB0000053746570732F6D6D004A65726B00412D
:102EC0006363656C65726174696F6E0056656C6FE3
:102ED0006369747900436F6E6669677572617469BE
:102EE0006F6E003F0043616E63656C204F626A65E0
:102EF0006374004E4F005945530043616E63656C27
:102F0000204F626A656374203D004D61696E002048
:102F1000204D363033200020440020204D34313203
:102F200020530046696C616D656E742072756E6F1A
:102F300075742073656E736F723A002055004C00F3
:102F400046696C616D656E74206C6F61642F756E7F
:102F50006C6F6164206C656E677468733A00202042
:102F60004D343133205300506F7765722D4C6F73A1
:102F700073205265636F766572793A0020440020B1
:102F8000490020204D333034205000204400204997
:102F90000020204D333031205000504944207365CB
:102FA0007474696E67733A00204600204800202040
:102FB0004D3134352053004D6174657269616C2068
:102FC00068656174757020706172616D6574657299
:102FD000733A0020580020530020204D3230352015
:102FE0004200416476616E6365643A20423C6D69DB
:102FF0006E5F7365676D656E745F74696D655F752F
:10300000733E20533C6D696E5F66656564726174E2
:10301000653E20543C6D696E5F74726176656C5FCD
:1030200066656564726174653E20583C6D61785FC9
:10303000785F6A65726B3E20593C6D61785F795F9D
:103040006A65726B3E205A3C6D61785F7A5F6A6593
:10305000726B3E20453C6D61785F655F6A65726B9F
:103060003E0020540020520020204D3230342050A9
:1030700000416363656C65726174696F6E202875C9
:103080006E6974732F7332293A20503C7072696EE6
:10309000745F616363656C3E20523C72657472615B
:1030A00063745F616363656C3E20543C7472617647
:1030B000656C5F616363656C3E0020204D3230318A
:1030C0002058004D6178696D756D20416363656CB2
:1030D00065726174696F6E2028756E6974732F73E1
:1030E00032293A00204500205A0020590020204D66
:1030F0003230332058004D6178696D756D206665FA
:10310000656472617465732028756E6974732F73BA
:10311000293A0053746570732070657220756E696A
:10312000743A0020440020204D32303020530020DB
:1031300044697361626C65640A0046696C616D651F
:103140006E742073657474696E67733A0020204D45
:103150003134392043203B20556E69747320696EE9
:103160002043656C736975730A0020286D6D290012
:103170002020473231202020203B20556E69747377
:1031800020696E206D6D0000803B4400803B440050
:10319000007041000096420000A0420000A04200E2
:1031A00000C843EC11BF43D0070000D00700006403
:1031B000000000881300005654726176204D696E3D
:1031C00000566D696E00566D6178204500566D6140
:1031D00078205A00566D6178205900566D6178202C
:1031E0005800416D6178204500416D6178205A009A
:1031F000416D6178205900416D6178205800412D62
:1032000054726176656C00412D526574726163740D
:1032100000416363656C0056652D4A65726B00560C
:103220005A2D4A65726B0056592D4A65726B0056CD
:10323000582D4A65726B005045544700504C410070
:10324000004D6F76652025736D6D004D6F7665209E
:10325000302E316D6D004D6F766520316D6D004DF6
:103260006F76652031306D6D004D6F766520417849
:103270006973004578747275646572004D6F766588
:10328000205A004D6F76652059004D6F76652058A5
:10329000003C3237324368616E67652046696C6175
:1032A0006D656E7400556E6C6F61642046696C616B
:1032B0006D656E74004C6F61642046696C616D656C
:1032C0006E74005072656865617420437573746F25
:1032D0006D00507265686561742024004261636B03
:1032E000006E6F74696669636174696F6E20006E49
:1032F0006F74696669636174696F6E200063616EE3
:1033000063656C005072696E742041626F727465FF
:1033100064004469736D6973730055492041626F9D
:1033200072746564004D323520500A4D32340052BB
:103330006573756D65005549205061757365005062
:10334000617573696E672E2E2E00726573756D65DB
:10335000004D323400454550524F4D205665727332
:10336000696F6E204572726F7200454550524F4D25
:1033700020496E646578204572726F720045455031
:10338000524F4D20435243204572726F72003F00EE
:1033900049676E6F726500526573657400496E69A6
:1033A0007469616C697A6520454550524F4D004300
:1033B000616E6E6F74206F70656E207375626469E4
:1033C000722000534420496E6974204661696C0084
:1033D00053442063617264206F6B0A006F70656EE6
:1033E000526F6F74206661696C65640A00766F6C59
:1033F000756D652E696E6974206661696C65640A15
:10340000004E6F20534420636172640A002100481B
:103410006F74656E6420746F6F20636F6C6400421C
:1034200061636B0050726F63656564004F66660090
:103430004F6E00536F667420456E6473746F7073C3
:10344000004D6F74696F6E0044697361626C652032
:103450005374657070657273004D383400486F6D39
:1034600065205A004732385A00486F6D6520590070
:103470004732385900486F6D652058004732385838
:10348000004175746F20486F6D6500473238004DFC
:1034900061696E0050726568656174202420456E14
:1034A0006400507265686561742024204265640080
:1034B00054656D7065726174757265005072696EE5
:1034C000742066726F6D204D656469610073686F6A
:1034D0007700627574746F6E00626567696E004490
:1034E000697361626C6552756E6F757400507572A8
:1034F00067654D6F72650050617573656400436F59
:103500006E74696E7565004C6F61642046696C610C
:103510006D656E74205400496E736572742066691F
:103520006C616D656E7420616E642073656E6420DD
:103530004D3130380A00220A00556E6B6E6F776E7F
:1035400020636F6D6D616E643A202200204200207E
:1035500050006F6B0043522D31302056332052659E
:103560006164792E005072696E74696E672E2E2E1A
:10357000005072696E742050617573656400204557
:103580003A00205A3A0020593A00583A00506172E5
:103590006B696E672E2E2E000000576169742066DD
:1035A0006F720066696C616D656E74206368616E30
:1035B000676500746F207374617274005761697479
:1035C00020666F720066696C616D656E7420756E41
:1035D0006C6F616400004E6F7A7A6C65206865617B
:1035E00074696E6700506C656173652077616974FA
:1035F0002E2E2E0000507265737320627574746FE6
:103600006E00746F2068656174206E6F7A7A6C65E5
:103610000000496E736572742066696C616D656E39
:103620007400616E642070726573732062757474C7
:103630006F6E00746F20636F6E74696E75650057EE
:1036400061697420666F720066696C616D656E7485
:10365000206C6F6164000050726573732042757452
:10366000746F6E00746F20726573756D6520707273
:10367000696E7400005761697420666F7220707201
:10368000696E7400746F20726573756D652E2E2ED1
:1036900000005761697420666F720066696C616D25
:1036A000656E7420707572676500003E2000256CA1
:1036B000642E25696D0045787472756465642054C4
:1036C0006F74616C003E20004C6F6E6765737420F0
:1036D0004A6F622054696D65003E2000546F74612A
:1036E0006C205072696E742054696D6500436F6D73
:1036F000706C65746564003A20005072696E7420C5
:10370000436F756E74003A2000313230003500424C
:1037100045443A204550434F53203130304B0052FE
:10372000756E617761792057617463683A204F4EF6
:10373000004D61782054656D7000323735004D6959
:103740006E2054656D7000350045313A2045504378
:103750004F53203130304B005053550047656E6554
:103760007269630050726F746F636F6C00312E303A
:10377000004261756400323530303030004372658C
:10378000616C69747933442052414D50530045783F
:10379000747275646572730031006D61726C696E6C
:1037A00066772E6F72670043522D313020563300FA
:1037B000323032312D30352D313500322E302E3829
:1037C0002E312D46695A692D424C2D31313532301A
:1037D00030004D61726C696E005072696E74657272
:1037E00020537461747300546865726D6973746FEB
:1037F000727300426F61726420496E666F0050728E
:10380000696E74657220496E666F004D61696E0065
:1038100000000A0B02090C0D0E080703040100004A
:103820000000000000000000000000000000000098
:103830000000000000000000000000001211100055
:103840000000000000000000000000000000000078
:103850000000000000003E014E0111241FBECFEF0A
:10386000D1E2DEBFCDBF00E00CBF14E0A0E0B2E0CB
:10387000E8E7FEE502E00BBF02C007900D92A63A12
:10388000B107D9F727E1A6EAB4E001C01D92A43C34
:10389000B207E1F71CE1CCE2DCE100E006C02197D1
:1038A0000109802FFE010F94CD2BCB32D10780E090
:1038B0000807A9F70F94F7170D942B2F0C9400000D
:1038C0002F923F924F925F926F927F928F929F9230
:1038D000AF92BF92CF92DF92EF92FF920F931F931E
:1038E000CF93DF93CDB7DEB7E8970FB6F894DEBF7E
:1038F0000FBECDBF88AF3090A11721E02093A11754
:10390000809101058D3409F4F0C1843511F40C94D3
:10391000FF2C873411F00C941B2D8091FF049091A3
:1039200000058531910511F40C941D2D68F4843047
:10393000910530F42091760882309105D8F024C0AA
:10394000049709F4BAC0CDC18A35910509F43EC186
:1039500040F48B31910509F4EFC04C9709F428C16C
:10396000C0C18B35910509F435C18C35910509F439
:1039700036C1B7C1233010F40C941D2D0E94BBD664
:103980000E94857D0C941D2D233010F40C941D2D68
:1039900011E0029709F010E00E94BBD619821A824A
:1039A0001B821C821D821E821F82188682E50E9455
:1039B000EDD3882309F44BC00E946CD36B017C01CA
:1039C00020E030E0A9010F94FA24882309F455C0BF
:1039D0008091941490919514A0919614B09197149D
:1039E0008CA79DA7AEA7BFA780919814909199141A
:1039F000A0919A14B0919B1488AB99ABAAABBBABC6
:103A00008090F4079090F507A090F607B090F70724
:103A10004090F8075090F9076090FA077090FB0704
:103A2000A50194016CA57DA58EA59FA50F94FA24F0
:103A300081110C943D2DA301920168A979A98AA94D
:103A40009BA90F94FA248823C1F00C943D2D89E49E
:103A50000E94EDD3882331F00E946CD369837A836E
:103A60008B839C838AE40E94EDD3882331F00E94EB
:103A70006CD36D837E838F83988720E030E0A9012B
:103A800069817A818B819C810F94FA2481110C9435
:103A9000F12D20E030E0A9016D817E818F81988534
:103AA0000F94FA2481110C94F12D0E9422CD87E00D
:103AB00095E00E94E8CC0C941D2D80E50E94EDD38A
:103AC000882329F00E9429D36B017C0103C0C12CFB
:103AD000D12C760183E50E94EDD3882361F00E940A
:103AE0006CD320E030E04AE754E40F945F250F9454
:103AF000252D6B017C010E9401778091E6168111D2
:103B000005C060E083E395E00E94DDF80F946A173A
:103B1000C60ED71EE81EF91E0F946A17DC01CB01F2
:103B20008C199D09AE09BF09B7FD02C00C941D2D6B
:103B300080E00E94E631F0CF0F946A0B8E010F5F98
:103B40001F4F882311F40C94112E82FF03C041E90A
:103B500054E002C044EA54E081FF03C023E934E0AA
:103B600002C024EA34E080FF03C085E994E002C08B
:103B700084EA94E05F934F933F932F939F938F93A7
:103B80008CE395E09F938F931F930F930F9494244E
:103B90000E9425CDC8010E94904960E0C8010E94A2
:103BA0008CF90FB6F894DEBF0FBECDBF0C941D2D5F
:103BB0000F946A0B81110C94222E60E08FE40E9416
:103BC00032D581110C941D2D0C94222E1092AB0431
:103BD0000C941D2D8FE08093AB040C941D2D8091CF
:103BE000FE04882359F1893011F00C941D2D9DE8B5
:103BF000A92E94E0B92E24E9C22E24E1D22E00E0B1
:103C000010E0F12CD5018D915D010E94EDD3882348
:103C100069F0B3E0FB1202C011E001C001E00E94B4
:103C20006CD3F6016083718382839383F394F4E011
:103C3000CF0ED11C24E0F212E5CF44C00DE8C02E17
:103C400004E0D02E84E9E82E84E1F82E00E010E0B4
:103C5000212CD6018D916D010E94EDD3882359F15D
:103C60000E946CD34B015C01F701208131814281BC
:103C700053810F94DB2B2B013C012DEB37E346E8FE
:103C800055EB0F94032E87FD0AC02DEB37E346E872
:103C900055E3C301B2010F94FA24181664F4F3E05B
:103CA0002F1202C011E001C001E0D7018D929D9258
:103CB000AD92BC9213972394B4E0EB0EF11CE4E0B8
:103CC0002E12C7CF002319F00E94CF7F06C0112308
:103CD00021F080EA94E10E9429C10E94EC800C94BA
:103CE0001D2D0F94430A0C941D2D8091FF0490917B
:103CF00000058537910509F43DC708F0C7C08C342D
:103D0000910509F4F4C308F05DC08931910509F407
:103D1000FCC218F58431910509F435C278F481317B
:103D2000910509F41CC228F4029708F4CEC10C9442
:103D3000FC2C429709F41DC60C94FC2C863191058D
:103D400009F456C208F450C28731910509F45CC2E7
:103D5000489709F470C20C94FC2C8E31910509F43B
:103D600054C3A8F48B31910509F4E1C208F4D1C21F
:103D70008C31910509F441C34D9711F00C94FC2C42
:103D800080912C0C8E7F80932C0C0C941D2D8132F5
:103D9000910509F475C348F48F31910509F474C392
:103DA000809709F442C30C94FC2C8934910509F4E2
:103DB0008BC38B34910511F00C94FC2C0E94C731FD
:103DC0000C941D2D8936910509F47DC460F5833569
:103DD000910509F4C6C5B8F48E34910509F490C371
:103DE00008F489C38135910509F4A3C5823591058D
:103DF00011F00C94FC2C8091AB048F7D806180933A
:103E0000AB040C941D2D8535910509F4EBC508F420
:103E1000B0C58C35910509F40AC68836910509F4B8
:103E200001C40C94FC2C8E36910509F4AFC488F4BF
:103E30008B36910509F49CC408F458C48C3691055E
:103E400011F40C941D2D8D36910509F412C40C94B7
:103E5000FC2C8137910509F4FBC458F48F36910589
:103E600009F4B2C48037910511F40C941D2D0C9403
:103E7000FC2C8237910509F47AC68337910511F03D
:103E80000C94FC2C0E947A460C941D2D8F32F1E08C
:103E90009F0711F40C94F02908F073C0883C910539
:103EA00009F45AC7A0F58D37910509F43EC5B8F459
:103EB0008737910509F4D1C608F46DC68837910596
:103EC00009F4CEC68937910511F00C94FC2C1092A0
:103ED0002F0810922E080E944B910C941D2D8139B1
:103EE000910509F4C5C630F48C38910509F4D5C4A0
:103EF0000C94FC2C8B39910509F4F0C48E3B910590
:103F000011F00C94FC2C0E94F43B0C941D2D833D6D
:103F1000910509F4F4C7A8F48B3C910509F489C70D
:103F200030F4893C910509F45EC70C94FC2C8C3C60
:103F3000910509F49DC78D3C910509F4CDC70C94FA
:103F4000FC2C8C32A1E09A0711F40C94A62860F4A2
:103F50008C3D910511F40C940F288D3D910511F4C1
:103F60000C9450280C94FC2C8D32E1E09E0711F447
:103F70000C94BB288E32914011F40C94AD290C9412
:103F8000FC2C883F31E0930711F40C94752A08F05B
:103F90004DC08D39B1E09B0711F40C94A02CD8F4DE
:103FA0008039F1E09F0711F40C94F32938F4803341
:103FB000914011F40C943A290C94FC2C8A39A1E01C
:103FC0009A0711F40C941D2D8C39914011F40C9426
:103FD000F6290C94FC2C853FE1E09E0711F40C942B
:103FE0006F2A78F4863E21E0920711F40C94012A9E
:103FF000843F914011F00C94FC2C0E9446B90C9423
:104000001D2D863FA1E09A0711F40C94722A873F78
:10401000914011F00C94FC2C61E083E50E9432D5B4
:1040200091E089270E94A7E30C941D2D8E3BE2E0CE
:104030009E0711F40C94CD2BD8F4883522E092071A
:1040400011F40C94942A38F48C30924011F40C94AE
:10405000852A0C94FC2C8B35B2E09B0711F40C9450
:10406000972A8D3B924011F40C940F2B0C94FC2C4E
:10407000873EF3E09F0711F40C94892CC8F48C362A
:1040800033E0930711F40C941D2D803A934011F006
:104090000C94FC2C2091D0053091D10590912C0CE2
:1040A000926090932C0CC9010E9453860C941D2D94
:1040B000883EB3E09B0711F40C94C02C893E9340DA
:1040C00011F40C94C32C0C94FC2C80E50E94EDD3CD
:1040D000882329F00E9429D36B017C0103C0C12CE5
:1040E000D12C760183E50E94EDD3882361F00E94F4
:1040F0006CD320E030E04AE754E40F945F250F943E
:10410000252D6B017C010E9401778091D005909153
:10411000D105009721F061E00E948CF905C060E0B4
:104120008EE595E00E94DDF88091FF0490910005F6
:10413000892B19F066E575E002C06EE475E020E0B9
:1041400030E04EEF54E382E00E945BD140E0C701D3
:10415000B6010E94C1380F943B090C941D2D80912B
:10416000FA0484FF02C00C94922F8091FC0487FF14
:1041700002C00C94922F8091FD04837011F00C9476
:10418000922F0C94AE2F80912C0C84FF25C089E8CF
:1041900095E00E94E8CC80912C0C84FF17C081E54B
:1041A0009CE00E943CA68BE1E1E5FCE0DE0111967B
:1041B00001900D928A95E1F760E070E0CE010196E2
:1041C0000F945703CE0101960E945CDA8AE795E0CE
:1041D0000E94E8CC0C941D2D0E9425CD8AE995E023
:1041E0000E94E8CC0C941D2D0E9449FD0C941D2DBD
:1041F00080912C0C82FF04C087FD02C00C941D2D01
:104200000E9436FD0C941D2DE091D005F091D10552
:104210008081882329F0803209F410823196F8CF0A
:1042200060E08091D0059091D1050E949F86109208
:104230003C170C941D2D83E50E94EDD3882321F0BB
:104240000E9439D30E94C83E84E50E94EDD38823A2
:10425000A9F00E9439D36B017C010E949891C09211
:10426000D215D092D315E092D415F092D515CD2861
:10427000CE28CF2819F081E08093B2178091790879
:104280008823F9F080E090E0A0EAB1E489839A8382
:10429000AB83BC831C8E1D8E1E8E1F8E18A219A28E
:1042A0001AA21BA200E010E020E0AE014F5F5F4FBA
:1042B000BE01645E7F4FCE0180960E946ECE0C944C
:1042C0001D2D0E94A431882381F00E944D850E94FB
:1042D000C73187E097E00E94F5841092B4151092E0
:1042E000B5151092B6151092B71561E08AE493E304
:1042F0000E9444CE42E153E364EA75E085E00F9406
:10430000610B0F943B090C941D2D0E9444D50C9415
:104310001D2D80912C0C84FD02C00C941D2D83E575
:104320000E94EDD381110C94BC2F0C941D2D809113
:10433000FA049091FB04A091FC04B091FD0412E0FA
:10434000B695A795979587951A95D1F780FF2CC0BC
:104350008AEB95E00E94E8CC8091980D8823D9F0F3
:10436000BE016F5F7F4F85E99DE00E9404A5CE01ED
:1043700001960E943347CE0101960E9425868091C6
:104380001A0B882361F080E20E94E1318AE19BE010
:104390000E94334704C080EB95E00E94E8CC8AE09D
:1043A0000E94E1310C941D2D83E50E94EDD38823FA
:1043B00001F10E944CD3182F8D3308F08CE38093C9
:1043C000640B0F946A176B017C01212F30E0A8EE7B
:1043D000B3E00F94622BC60ED71EE81EF91EC092E2
:1043E000600BD092610BE092620BF092630B0C9425
:1043F0001D2D0E9491840C941D2D8091D0059091CB
:10440000D1050E9453860C941D2D80912C0C84FDA7
:1044100002C00C941D2D0F94B2098091D00590918B
:10442000D1050E9491890C941D2D80912C0C82FF46
:1044300003C087FF0E94017780912C0C84FD02C08D
:104440000C941D2D60E080E50E9432D5182F682F56
:104450008091D0059091D1050E949F8683E50E94AE
:10446000EDD3882321F00E9439D30E94C83E0E94D8
:104470004D8511110C941D2D0E94C7310C941D2DDA
:104480000E9441470C941D2D0E9464916C8F7D8F7A
:104490008E8F9F8FBE016F5F7F4FCE014C960E9423
:1044A000E93D60E0CE0101960E948CF90E9425CD85
:1044B000BE016F5F7F4F89EC95E00E9419CD8AE0C5
:1044C0000E94E1310C941D2D80E50E949FD388232A
:1044D00011F40C941D2D0E944CD390E0853691056B
:1044E00010F084E690E080933C170C941D2D0E9400
:1044F000B3910C941D2D81E00E94A9BC0C941D2D3C
:1045000060E070E083E50E942BD48E34910531F495
:104510000E941FBD0F943B090C941D2D84E396E06F
:104520000E94E8CC60911E0870911F088BE296E013
:104530000E94F7CC60912008709121088EE196E0EE
:104540000E94F7CC60911E0870911F08809120088E
:1045500090912108681B790B8091B217815021E05E
:1045600030E0823010F020E030E0621B730B83E11A
:1045700096E00E94F7CC8AE00E94E1318BE096E061
:104580000E94E8CC8091220890912308A0912408F1
:10459000B09125088C8F9D8FAE8FBF8FBE016F5F4E
:1045A0007F4FCE014C960E94E93DBE016F5F7F4F69
:1045B0008EEF95E00E9419CD8091260890912708F2
:1045C000A0912808B09129088C8F9D8FAE8FBF8F46
:1045D000BE016F5F7F4FCE014C960E94E93DBE0148
:1045E0006F5F7F4F8EEE95E00E9419CD20E030E0A6
:1045F0004AE754E460912A0870912B0880912C08B6
:1046000090912D080F94B82CAB01BC0186ED95E07C
:104610000E9400CD8DE60E94E1318AE00E94E131E6
:104620000C941D2D80914B1483FF02C00C941D2D02
:104630000E94F9D387FF02C00C941D2D89E40E94CB
:10464000EDD3882311F40C94C12F0E944CD390E039
:104650001816190614F481E090E026E0289FF00176
:10466000299FF00D1124E856F94E808191810C9418
:10467000C82F80914B1483FF02C00C941D2D0E9403
:10468000F9D3F82E87FF02C00C941D2D89E40E94F7
:10469000EDD3082F882311F40C94D12F0E944CD312
:1046A00090E01816190614F481E090E026E0289FA7
:1046B000F001299FF00D1124E856F94E8081918177
:1046C00010E00C94DE2F0E94F9D3182F87FF02C050
:1046D0000C94222D87E596E00E94E8CC812F0E9461
:1046E00097C18AE00E94E1310C94222D80E50F945D
:1046F0008E0BF82EF1E0F81710F40C941D2D80911C
:10470000FA0480FF05C06091360E062F10E002C04B
:104710000FEF10E089E40E94EDD3882399F00E9406
:104720004CD390E01816190614F481E090E026E0CE
:10473000289FF001299FF00D1124E856F94E0481BD
:10474000158108C083E50E94EDD3882319F00E94EB
:1047500039D38B01EF2DF0E0EA5CF14FB8010F3F48
:10476000110519F010F06FEF70E060830C941D2DAF
:1047700080E50F948E0B823010F00C941D2DE82FE5
:10478000F0E0EA5CF14F10820C941D2D8EE40E9443
:10479000EDD3882311F40C941D2D0E9439D3E091A0
:1047A000410222E6E29FF0011124EC55FD4FE08129
:1047B00037E6E302F0011124EE5FFA4F6083718364
:1047C000828393830C941D2D83E50E949FD38823BD
:1047D00029F083E50F948E0B80934B140E9425CD16
:1047E00088E696E00E94E8CC80914B14882369F11A
:1047F000FEE5EF2EF6E0FF2E00E010E020E08091D5
:104800004B1490E0A0E0B0E0002E04C0B695A79550
:10481000979587950A94D2F780FF0EC0DD24D39434
:10482000D20E222319F08CE20E94E131F70185912A
:1048300094910E94E8CC2D2D0F5F1F4F82E0E80E6F
:10484000F11C05301105D9F6AACD8AE596E0A5CD73
:1048500083E50E94EDD3882381F00E944CD3282F5A
:1048600030E02D33310524F4809300020C941D2D8B
:104870008CE3809300020C941D2D0E9425CD109195
:1048800000028FE696E00E94E8CC812F0E94B98C4E
:104890008AE00E94E1310C941D2D80914B1483FF1E
:1048A00002C00C941D2D89E40E94EDD3882311F4DD
:1048B0000C940D300E944CD390E01816190614F495
:1048C00081E090E026E0289FF001299FF00D11245F
:1048D000E856F94E828193810C94153083E50E944D
:1048E000EDD3882311F40C941D2D0E944CD3182F66
:1048F0008D3308F08CE38093880B0F946A176B015B
:104900007C01212F30E0A8EEB3E00F94622BC60E9D
:10491000D71EE81EF91EC092840BD092850BE09240
:10492000860BF092870B0C941D2D0E9444D50C949D
:104930001D2D0E9429C30E94127781E00E94A9BC0C
:104940000E94D93168EE73E080E090E00E94C6CC0E
:104950000E94DE3160E086E796E00E94DDF80C946C
:104960001D2D8091AB048F7E80628093AB040C94EC
:104970001D2D83E50E94EDD38823F1F00F946A1773
:104980006093020E7093030E8093040E9093050EB5
:104990000E946CD320E030E04AE754E40F945F2596
:1049A0000F94252D609301027093020280930302FD
:1049B000909304020C941D2D8091FA0484FF02C090
:1049C0000C9428308091FC0487FF02C00C9428309E
:1049D0008091FD04837011F00C9428300E941277AE
:1049E0000C941D2D83E50E949FD3882311F40C9411
:1049F0001D2D0F946A176093020E7093030E80931F
:104A0000040E9093050E0E946CD320E030E04AE73C
:104A100054E40F945F250F94252D6093A6047093A2
:104A2000A7048093A8049093A9040C941D2D0E94C0
:104A3000F9D387FF02C00C941D2D9091FA0494FDC8
:104A400004C09091FC0497FF0AC07DE8C72E74E073
:104A5000D72EECE4EE2EE4E1FE2E10E009C090919A
:104A6000FD04937091F7682F81E00E94F3D2E5C7AF
:104A7000D6018D916D010E94EDD3882309F46DC09C
:104A8000133009F063C00E946CD34B015C0120E03D
:104A900030E040EA51E40F94FA2487FF4EC0A501AC
:104AA000940160916C1470916D1480916E149091CA
:104AB0006F140F94B82C2B013C019B01AC01609149
:104AC0001A0E70911B0E80911C0E90911D0E0F946A
:104AD0005F2560931A0E70931B0E80931C0E9093AB
:104AE0001D0EA301920160917C1470917D14809140
:104AF0007E1490917F140F945F2560937C147093C3
:104B00007D1480937E1490937F1460912A0E70918F
:104B10002B0E80912C0E90912D0E0F94FE24A3014C
:104B200092010F945F250F94252D60932A0E7093A8
:104B30002B0E80932C0E90932D0E80926C149092DD
:104B40006D14A0926E14B0926F1407C00E946CD3C3
:104B5000F701648B758B868B978B1F5FF4E0EF0EEC
:104B6000F11C143009F084CF0E94C6BE66C70E94B3
:104B7000054863C78091D0059091D105009741F019
:104B8000DC012C91222321F060E00E948CF955C7B2
:104B90000F943B0952C70091D0051091D10524E034
:104BA0008FEFF12C30E0215029F1F8019081492F4D
:104BB0004B7F413421F441814133E1F408C0903509
:104BC000C9F4918190539A30A8F4892F08C0913488
:104BD00021F0953421F431E002C0FF24F394A801C0
:104BE0004E5F5F4F8A014F5F5F4FF80190819032B7
:104BF000C9F3D9CF40911C0C833090F4882391F0F5
:104C00002FEF280F283080F481E090E0A0E0B0E0A2
:104C100004C0880F991FAA1FBB1F2A95D2F705C091
:104C2000842F03C08FEF01C080E06CE17CE07A83C9
:104C300069834B8380931C0C31110E9425CDFF208A
:104C400021F084E896E00E94E8CCC8010E949049D7
:104C5000CE0101960E943CCEF0C60E947181EDC645
:104C600081E080932F0880932E080E944B91E5C627
:104C700060E070E083E50E942BD4823038F00E941F
:104C800022CD87E896E00E94E8CCD7C68C01112798
:104C900088E40E94EDD38823E1F00E9449D38A3A48
:104CA000910544F00E9449D38530914034F40E942C
:104CB00049D305C08AEA90E002C084E091E026E092
:104CC000209FF001219FF00D1124E856F94E9183A9
:104CD000808382E40E94EDD38823D9F00E9449D3D7
:104CE000059744F00E9449D38F36910534F40E9411
:104CF00049D305C085E090E002C08EE690E026E052
:104D0000209FF001219FF00D1124E856F94E938366
:104D1000828386E40E94EDD3882309F48EC60E9424
:104D200049D397FD09C00E9449D38F3F910509F0EF
:104D300034F40E9449D305C080E090E002C08FEFB8
:104D400090E026E0209FF001219FF00D1124E8560D
:104D5000F94E9583848371C60E94F9D3182F87FD7D
:104D60006CC60091771684E40E94EDD3882311F479
:104D70000C9458300E946CD36B017C0120E030E031
:104D8000A9010F94FA24882341F124E01202F001D2
:104D90001124ED58F94EC082D182E282F38220E0E4
:104DA00030E0A901609173167091741680917516A8
:104DB000909176160F94FA2481110CC080E090E057
:104DC000A0EEBFE38093731690937416A0937516AC
:104DD000B093761601E00C94583080E080937716FB
:104DE0000E948C762AC60E94F9D387FD26C65DE80C
:104DF000E52E54E0F52E0CE414E16CE5C62E64E1DA
:104E0000D62ED7018D917D010E949FD3882359F022
:104E10000E946CD30F94252DF801608371838283E7
:104E200093830E947FBE0C5F1F4FC016D10649F7C7
:104E300004C60E94F9D387FD00C64DE8E42E44E085
:104E4000F42E0CE414E1D7018D917D010E949FD3D3
:104E5000882339F00E946CD3F80164A375A386A35C
:104E600097A30C5F1F4FF4E10C351F0761F7E5C5F1
:104E70008091FB0487FF02C00C945E308091FC049B
:104E80008E7011F00C945E3040918014509181141A
:104E900060918214709183148CEA96E00E9400CD98
:104EA00040918414509185146091861470918714F8
:104EB00089EA96E00E9400CD4091881450918914AF
:104EC00060918A1470918B1482E690E30E9400CD69
:104ED0008AE00E94E131B1C58091FA04827111F03B
:104EE0000C94A4308091FC048C7811F00C94A430C4
:104EF0008091FD04837011F00C94A4309EC58091C4
:104F0000CF039091D003A091D103B091D2038CA78D
:104F10009DA7AEA7BFA74090D3035090D403609045
:104F2000D5037090D6038090D7039090D803A090BB
:104F3000D903B090DA03C090DB03D090DC03E0909B
:104F4000DD03F090DE038091DF039091E003A091F8
:104F5000E103B091E2038CAB9DABAEABBFAB8091F4
:104F6000E3039091E403A091E503B091E60388ABDD
:104F700099ABAAABBBAB0E9425CD8EEC96E00E940C
:104F8000E8CC83E50E949FD3882321F00E945DD363
:104F90008093CD038091CD03882319F083E897E0B7
:104FA00002C08FE797E00E94E8CC86EC96E00E9472
:104FB000E8CC4CA55DA56EA57FA583ED9FE20E9480
:104FC00000CDB301A2018AEE90E30E9400CDB501AD
:104FD000A40187EE90E30E9400CD84EC96E00E944D
:104FE000E8CC8CEB96E00E94E8CCB701A60183EDFB
:104FF0009FE20E9400CD4CA95DA96EA97FA98AEE0F
:1050000090E30E9400CD48A959A96AA97BA987EE1F
:1050100090E30E9400CD8AE00E94E1310EC582E457
:105020000E949FD3882341F0809121029091220217
:10503000909306028093050282E50E949FD3882305
:1050400041F0809105029091060290932202809394
:10505000210283E50E94EDD3882331F00E9449D3D9
:1050600090932202809321028091FA049091FB0494
:10507000A091FC04B091FD04892B8A2B8B2B09F0A5
:10508000DCC460912102709122028EED96E00E94B4
:1050900010CD85E20E94E1318AE00E94E131CDC469
:1050A0000E94F9D3082F87FDC8C483E50E94EDD381
:1050B000002E000C110B882361F10E9449D3F801E6
:1050C000EE0FFF1FE15DFD4F91838083000F111FE5
:1050D000000F111FD801A45CBD4F7D01BC01990FC9
:1050E000880B990B0F9400252AE037ED43E25CE32F
:1050F0000F945F25F801EC5FF74F208131814281E9
:1051000053810F945F25F7016083718382839383BA
:1051100094C40E9425CD65E48AE19CE00E941AD2E5
:1051200080E3800F0E94E131000F111FF801E15D63
:10513000FD4F6081718182EE96E00E9410CD85E284
:105140000E94E1318AE00E94E13177C464E071E0BD
:1051500083E50E941AD48C0168EE73E080E50E941A
:105160001AD48938F3E19F0710F088E893E1B80179
:105170000E94709862C485E40F948E0B811173C0F5
:1051800080E50E949FD3882351F00E946CD36093E6
:10519000B7167093B8168093B9169093BA1689E42F
:1051A0000E949FD3882381F00E946CD32CEA35ECB7
:1051B00047E25EE30F945F256093BB167093BC16C5
:1051C0008093BD169093BE1684E40E949FD38823DB
:1051D00081F00E946CD32CEA35EC47E25EE30F9439
:1051E000B82C6093BF167093C0168093C11690932D
:1051F000C2160E9425CD4091B7165091B816609105
:10520000B9167091BA1682EF96E00E9400CD2CEA92
:1052100035EC47E25EE36091BB167091BC1680915D
:10522000BD169091BE160F94B82CAB01BC018EEE4A
:1052300096E00E9400CD2CEA35EC47E25EE36091F7
:10524000BF167091C0168091C1169091C2160F942E
:105250005F25AB01BC018AEE96E00E9400CD8AE09A
:105260000E94E131EAC30E9422CD86EF96E00E94BF
:10527000E8CCE3C380E50E949FD3882351F00E94CD
:105280006CD360938C1670938D1680938E169093CA
:105290008F1689E40E949FD3882381F00E946CD3EB
:1052A0002CEA35EC47E25EE30F945F25609390169D
:1052B00070939116809392169093931684E40E94B3
:1052C0009FD3882381F00E946CD32CEA35EC47E20F
:1052D0005EE30F94B82C60939416709395168093A8
:1052E0009616909397160E9425CD40918C1650915A
:1052F0008D1660918E1670918F1680E197E00E9456
:1053000000CD2CEA35EC47E25EE360919016709197
:10531000911680919216909193160F94B82CAB0130
:10532000BC018CE097E00E9400CD2CEA35EC47E20E
:105330005EE3609194167091951680919616909107
:1053400097160F945F25AB01BC0188E097E00E949F
:1053500000CD8AE00E94E13170C383E50E949FD3B3
:10536000182F882369F00E9449D39C019093CC03A5
:105370008093CB0391E0232B09F090E09093CD151F
:1053800080E50E949FD3882359F02091CB03309170
:10539000CC03232B11F00E945DD38093CD154DC318
:1053A00011114BC30E9425CD80E397E00E94E8CC09
:1053B0008091CD15882319F088E197E002C084E13F
:1053C00097E00E94E8CC6091CB037091CC038FE111
:1053D00097E00E9410CD8BE197E00E94E8CC2DC3AE
:1053E0000E94C64F2AC30E94017727C38091FA0406
:1053F000887809F014C78091FC04867009F00FC703
:105400004EC784E50E949FD38823A1F010926416B2
:105410001092651610926616109267161092681612
:105420008FEF0E94A3CC61E070E084E50E942BD452
:105430008093681683E50E949FD3882321F00E9401
:1054400049D30E94A3CC83E40E949FD3882331F0E8
:105450008091EE03803210F40E9477CC80E50E94A8
:105460009FD3882331F00E9449D3803210F40E94E8
:1054700077CC85E50E949FD3882309F4DEC20E9481
:1054800049D3803208F0D9C241E050E060E070E0DA
:10549000082E04C0440F551F661F771F0A94D2F7C9
:1054A0004095509560957095009164161091651621
:1054B000209166163091671640235123622373238F
:1054C0004093641650936516609366167093671642
:1054D0009091EE038913B1C210924A14AEC20E9499
:1054E0001EC1ABC20E94CDBFA8C2209379160E94F4
:1054F0003AB910927916882309F49FC20E9425CDEB
:1055000084E797E00E94E8CC98C280912C0C82FF3F
:1055100006C087FD04C0806880932C0C8EC284FF77
:105520008CC20F94B20989C20E9438D486C20E94EC
:10553000F9D3082F87FD81C285E50E949FD3882378
:10554000A9F1E02E002E000CFF080E946CD34B0145
:105550005C0120E030E0A9010F94032E87FF04C016
:10556000B7FAB094B7F8B094C701F3E0880F991F69
:10557000FA95E1F7DC01A559B94E7D01FD01808264
:105580009182A282B38220E030E849ED53E4C50164
:10559000B4010F94032E18164CF480E090E8A9EDA6
:1055A000B3E4F70180839183A283B3838CE40E94E8
:1055B0009FD3882309F441C2002E000C110B0E94D6
:1055C0006CD36B017C0120E030E0A9010F94032E25
:1055D00087FF04C0F7FAF094F7F8F09420E030E881
:1055E00049ED53E4C701B6010F94032E9801E3E09F
:1055F000220F331FEA95E1F7F901E559F94E181624
:105600002CF0C482D582E682F78217C280E090E84F
:10561000A9EDB3E484839583A683B7830EC20E9469
:10562000F9D3182F87FD09C28AE50E94EDD388239C
:1056300031F08AE50F94510A5B016C0106C0A12C80
:10564000B12C60E2C62E71E4D72E412F63E085E0D5
:105650000F94351220919C1430919D1440919E140A
:1056600050919F1460E070E088EC93E40F94DB2B82
:105670007B018C019501A6010F94032E181614F4DA
:1056800075018601C701D80188A799A7AAA7BBA75A
:1056900020E030E0A901B701C8010F94FA24882363
:1056A00021F0CE0188960F946F1E80E090E0A0EA72
:1056B000B1E48CA39DA3AEA3BFA318A219A21AA202
:1056C0001BA28CE40E949FD3882329F00E946CD3F4
:1056D0006B017C0108C0C0906F16D0907016E090EE
:1056E0007116F090721620E030E0A901C701B601F2
:1056F0000F94032E87FF04C0F7FAF094F7F8F094A4
:10570000CC8EDD8EEE8EFF8E0091B4161091B51604
:105710000430110564F00E94DD4B801B910B97FF54
:1057200003C091958195910901E004970CF400E084
:1057300063E080E00E943DCD811106C040E063E05F
:1057400089E00F9435120DC053E0E52E22E0AE0142
:105750004C5D5F4FBE01645E7F4FCE0180960F941B
:105760005A0A88A599A5AAA5BBA5BC01CD01905848
:1057700069837A838B839C8320E030E0A9010F94B6
:10578000FA24882321F0CE0101960F946F1E40E089
:1057900060E089E00F94351250C10E94F9D3182FB0
:1057A00087FD4BC18AE50E94EDD3882331F08AE55D
:1057B0000F94510A4B015C0106C0812C912C40E2F0
:1057C000A42E41E4B42E412F64E083E00F943512FF
:1057D00020E030E0A901C501B4010F94032E181692
:1057E0007CF580E090E0A0EAB0E489839A83AB8303
:1057F000BC8320919C1430919D1440919E14509133
:105800009F14C501B4010F94DC2B6B017C0120E0D7
:1058100030E048EC53E40F94FA2487FD06C0C12C15
:10582000D12C38ECE32E33E4F32ECC8EDD8EEE8ECD
:10583000FF8EBE016F5F7F4FCE014C960E94027FAC
:1058400085E50E949FD3882329F00E946CD36B01C9
:105850007C010AC028E01202F0011124E559F94E3A
:10586000C080D180E280F38020E030E0A901C70150
:10587000B6010F94032E87FF04C0F7FAF094F7F8EF
:10588000F094F7FAF094F7F8F094C982DA82EB8298
:10589000FC8244E061E0CE0101960E948ECD20E0C2
:1058A00030E0A901C501B4010F94032E18165CF570
:1058B00080E090E0A0EAB0E489839A83AB83BC8364
:1058C000A501940160919C1470919D1480919E1487
:1058D00090919F140F94DB2B6B017C0120E030E052
:1058E000A9010F94032E18161CF0C12CD12C76019F
:1058F000CC8EDD8EEE8EFF8EBE016F5F7F4FCE01B0
:105900004C960E94027F40E060E089E00F943512DF
:1059100094C083E08093760810923B1760E083E5A3
:105920000E9432D5811189C0E091410232E6E39FA5
:10593000F0011124EC55FD4F80810E94393F7DC05C
:1059400083E50E949FD3882339F00E945DD3809322
:1059500078160E94C3D771C00E9425CD86E897E0D3
:105960000E94E8CC80917816882319F083E897E0AC
:1059700002C08FE797E00E94E8CC8AE022D55DC0A4
:105980000E94EAD75AC00E94017780912C0C877F31
:105990008B7F80932C0C0E943A8981114EC00E940B
:1059A000BBD70E94F9890E9464916D33710581050E
:1059B000910520F087EB97E00E94D54983EB97E0B3
:1059C0000E94D54984EE80933C178CE19CE09A8339
:1059D000898380911C0C8B838FEF80931C0C8FE943
:1059E00097E00E94E8CCCE0101960E943CCE8BE964
:1059F00097E00E94D54921C00F94430A1EC0109120
:105A0000FF040F946A176093020E7093030E809345
:105A1000040E9093050E112381F00E9425CD84E59C
:105A2000D0D4812F0E94B98C80E2CBD48BEB97E04D
:105A30000E94E8CC02C00F94430A88AD811102C0D5
:105A40000F94CC093092A117E8960FB6F894DEBFF8
:105A50000FBECDBFDF91CF911F910F91FF90EF90BF
:105A6000DF90CF90BF90AF909F908F907F906F907E
:105A70005F904F903F902F90089520E030E0A90173
:105A8000C701B6010F94FA24881F8827881F1817AA
:105A900009F4A2C080E090E0A0E8BFEB8CAB9DAB26
:105AA000AEABBFAB2CA53DA54EA55FA5C501B4010E
:105AB0000F94DB2B20E030E040E05FE30F945F25A4
:105AC0006CA77DA78EA79FA728A939A94AA95BA97A
:105AD000C301B2010F94DB2B20E030E040E05FE334
