:100000000C94A0210C94D1210C94D1210C94D121D9
:100010000C94D1210C94D1210C94D1210C94D12198
:100020000C94D1210C94D1210C94D1210C94D12188
:100030000C94D1210C94D1210C94D1210C94D12178
:100040000C94D1210C94127B0C94D1210C94D121CD
:100050000C94D1210C94D1210C9486A80C94D19E9F
:100060000C94D1210C94D0420C94BC420C94D1211C
:100070000C94D1210C94D1210C94D1210C94D12138
:100080000C94AE410C94D1210C94D1210C94D1212B
:100090000C94DC410C94C6420C94D1210C94D121D7
:1000A0000C94D1210C94D1210C9480410C94D12139
:1000B0000C94D1210C94D1210C94D1210C94D121F8
:1000C0000C94D1210C94D1210C94D1210C94D121E8
:1000D0000C94D1210C94D1210C94D1210C94D121D8
:1000E0000C94D1210B421D422F424042484277429C
:1000F0004C42774250425442774258425C426042FE
:10010000684277427242FF421143234334433C43E7
:100110006B4340436B43444348436B434C4350431E
:1001200054435C436B4366431FB3FAB2FDB222B340
:1001300000B303B306B312B309B31EB30CB30FB3CA
:100140008A01980180018E013C01CA0174012201DB
:100150008801C801A6018601AE015801CA01420109
:10016000C2017C01C40184015A01D20138016E012F
:10017000600178015201A2012C017A0154011E0193
:100180006E014401D4012A0192016C01A4013E01D7
:10019000A401A401A401A401A401A401A401A40137
:1001A000A401A401A401A401A401A401A401A40127
:1001B000A401A401A401A401A401A401A401A40117
:1001C000A401A4013201A401A401A401A401A40179
:1001D000A401A401A4019A01A401A401A401A40101
:1001E000A401A401A401A401A401A4016401CE01FD
:1001F000084AD73B3BCE016E84BCBFFDC12F3D6C8E
:1002000074319ABD56833DDA3D00C77F11BED9E4F3
:10021000BB4C3E916BAAAABE000000803F05A84CD3
:10022000CDB2D44EB93836A9020C50B9918688089F
:100230003CA6AAAA2ABE000000803F000D945044AC
:100240000D94B32F0D9436430D941C090D94F82989
:100250000D9468240D946E440D942D440D9496478E
:100260000D94072A0D94BE490D9402620D943D2011
:100270000D94FF430D94172D0D9425430D94C449FF
:100280000D949C470D9458430D945A440D94BD20F1
:100290000D9435230D9499470D942B080D94D92076
:1002A0000D9466290D9419440D9446440D94722CB6
:1002B0000D9452430D94EB430D94DA0C0D94CE2023
:1002C0000D9409440D94242D0D94DB490D94C329FC
:1002D0000D94F3290D94C7200D940C480D94784487
:1002E0000D9437600D9439080D9432430D94DB2939
:1002F0000D9411440D9437440D9460430D941F09DF
:100300000D941D430D9412080D94E6430D944A4339
:100310000D943C430D942B430D94022A0D942143DC
:100320000D9425090D9488490D947A2C0D94762C02
:100330000D942E430D9497490D9438090D94C40AD9
:100340000D94B02E0D9423440D9445480D944443D0
:100350000D946D0E0D940F2D0D94A0210D944E4310
:100360000D94AB290D945E200D94720E0D94DE2039
:100370000D946E2C0D9471290D9479200D943E09E5
:100380000D94FD290D945C430D94E1430D942209D5
:100390000D9440430D9465430D94BB2C0D9442483D
:1003A0000D94D4200D94F5430D9464440D94262AA5
:1003B0000D9420620D9493290D944A204E414E498C
:1003C0004E495459494E46CDCCCC3D0AD7233C1713
:1003D000B7D13877CC2B329595E6241FB14F0A0060
:1003E0000020410000C84200401C4620BCBE4CCA50
:1003F0001B0E5AAEC59D7400407A10F35A00A072CD
:100400004E18090010A5D4E80000E876481700004F
:10041000E40B54020000CA9A3B000000E1F505001D
:100420000080969800000040420F000000A0860166
:10043000000000102700000000E803000000006436
:1004400000000000000A00000000000100000000A1
:10045000002C76D888DC674F0823DFC1DFAE59E176
:10046000B1B796E5E3E453C63AE651997696E8E6E5
:10047000C28426EB898C9B62ED407C6FFCEFBC9CB8
:100480009F40F2BAA56FA5F490055A2AF75C936BCA
:100490006CF9676DC11BFCE0E40D47FEF520E6B585
:1004A00000D0ED902E0300943577050080841E085F
:1004B0000000204E0A000000C80C333333330F987D
:1004C0006E12831141EF8D2114893BE65516CFFE44
:1004D000E6DB18D1844B381BF77C1D901DA4BBE4D0
:1004E00024203284725E228100C9F124ECA1E53D12
:1004F00027434F4D4D554E49434154494F4E0044BB
:10050000525952554E004552524F525300494E4691
:100510004F004543484F0047322F47332062616404
:1005200020706172616D65746572730A0047322FC5
:1005300047332062616420706172616D6574657219
:10054000730A00536C6565702E2E2E005A2050726F
:100550006F62652050617374204265640A005A20FE
:1005600050726F6265205061737420426564004D63
:100570003131372050726F6265206661696C656445
:100580002E205265776970696E672E0A4732380AE5
:1005900047313220503020533132205430007072B5
:1005A0006F62655F72657769706500473239205206
:1005B00065747279696E670050726F62696E672048
:1005C0004661696C6564004D3131372042656420B5
:1005D0006C6576656C696E67206661696C65642E12
:1005E0000A4730205A31300A4D33303020503235EE
:1005F00020533838300A4D333030205035302053B6
:10060000300A4D3330302050323520533838300ADC
:100610004D333030205035302053300A4D33303098
:100620002050323520533838300A4D333030205086
:1006300035302053300A47342053310070726F62D6
:10064000655F6661696C6564004D313137204265D4
:1006500064206C6576656C696E6720646F6E652ECC
:1006600000205A3A200020593A2000426564205860
:100670003A20004D65736820706F696E74206F7545
:1006800074206F662072616E67650A004D302053DA
:10069000746F70004D312053746F7000436C696348
:1006A0006B20746F20526573756D652E2E2E004E73
:1006B0006F204D6F76652E00456E642066696C650F
:1006C000206C6973740A00426567696E2066696C04
:1006D00065206C6973740A004E6F206D65646961F2
:1006E0000A00526573756D696E6720534400286E69
:1006F0006F2066696C65290043757272656E74209F
:1007000066696C653A20005072696E742074696D78
:10071000653A20000A53746174733A2046696C612B
:100720006D656E7420757365643A20002C204C6FE3
:100730006E67657374206A6F623A2000546F74614B
:100740006C2074696D653A200053746174733A20AB
:10075000002C204661696C65643A20002C204669B3
:100760006E69736865643A20005072696E74733AFA
:10077000200053746174733A2000436F6F6C696E8C
:10078000672E2E2E0048656174696E672E2E2E002E
:1007900045202553006F6B006F66660012050D053E
:1007A0000605FF04F10444454255473A004D3131F6
:1007B0003320530042656420436F6F6C696E672E6F
:1007C0002E2E004265642048656174696E672E2E86
:1007D0002E0043522D3130205633204F46462E00F6
:1007E0002F2F004D31343520533C696E6465783EBF
:1007F000206F7574206F662072616E6765202830E7
:100800002D31290A0046523A0020466C6F773A2073
:1008100000206F7574206F662072616E67650A0034
:10082000536572766F20003A200020536572766F10
:10083000200020643A0020693A0020703A00496E96
:1008400076616C69642065787472756465720A00FB
:1008500020643A0020693A0020703A00646973000D
:10086000656E0043290A0061626C656420286D6929
:100870006E2074656D702000436F6C642065787421
:10088000727564657320617265200046696C616DE4
:10089000656E742072756E6F75742064697374610F
:1008A0006E636520286D6D293A200046696C616D84
:1008B000656E742072756E6F757420004D34323120
:1008C00020696E636F727265637420706172616D0E
:1008D000657465722075736167650A004D6573689C
:1008E00020706F696E74206F7574206F662072615E
:1008F0006E67650A00454550524F4D204F4B0A0028
:10090000506F7765722D6C6F7373207265636F76AD
:1009100065727920004572726F722077726974690E
:100920006E6720746F20454550524F4D210A005389
:10093000544F505045442E20005072696E746572B9
:100940002073746F707065642064756520746F2007
:100950006572726F72732E20466978207468652004
:100960006572726F7220616E6420757365204D39F7
:10097000393920746F20726573746172742E202867
:1009800054656D706572617475726520697320724B
:10099000657365742E2053657420697420616674D4
:1009A00065722072657374617274696E67290A00DA
:1009B0004E6F20436865636B73756D20776974684B
:1009C000206C696E65206E756D6265722C204C61BD
:1009D0007374204C696E653A20004E6F2043686541
:1009E000636B73756D2077697468206C696E652020
:1009F0006E756D6265722C204C617374204C696E4B
:100A0000653A2000636865636B73756D206D69736B
:100A10006D617463682C204C617374204C696E6541
:100A20003A20004C696E65204E756D6265722069D2
:100A300073206E6F74204C617374204C696E652056
:100A40004E756D6265722B312C204C617374204C95
:100A5000696E653A20004D3131300053657269612D
:100A60006C20737461747573206D69736D61746348
:100A7000680A0053442072656164206572726F7267
:100A80000A002121204B494C4C2063617573656439
:100A9000206279204B494C4C20627574746F6E2F24
:100AA00070696E0A002121204B494C4C206361750E
:100AB00073656420627920746F6F206D75636820A0
:100AC000696E6163746976652074696D65202D2097
:100AD00063757272656E7420636F6D6D616E643ADA
:100AE00020007061757365004D36303000206669F6
:100AF0006C616D656E745F72756E6F7574200066E3
:100B0000696C616D656E745F72756E6F757420547B
:100B10000046696C616D656E7452756E6F757420F8
:100B200054004D656469612052656D6F766564009F
:100B30004D6564696120496E736572746564004D2A
:100B4000313030305300627573793A2070617573BB
:100B5000656420666F7220696E7075740A00627534
:100B600073793A2070617573656420666F722075C1
:100B70007365720A00627573793A2070726F6365EB
:100B80007373696E670A004D383400446F6E6520D8
:100B90007072696E74696E672066696C650A004DD3
:100BA0003737004D33310043616E6E6F74206F70C4
:100BB000656E207375626469722000256973002573
:100BC000696D20256973002569682025696D2025D8
:100BD000697300256964202569682025696D2025D1
:100BE00069730025697920256964202569682025B5
:100BF000696D202569730023646566696E6520440C
:100C0000454641554C545F00626564004B642000CA
:100C10004B6920004B702000504944204175746F8F
:100C200074756E652066696E69736865642120500D
:100C3000757420746865206C617374204B702C206F
:100C40004B6920616E64204B6420636F6E73746126
:100C50006E74732066726F6D2062656C6F772069A9
:100C60006E746F20436F6E66696775726174696F29
:100C70006E2E680A00504944204175746F74756E79
:100C800065206661696C6564212074696D656F75A6
:100C9000740A00504944204175746F74756E652064
:100CA0006661696C6564212054656D70657261745C
:100CB00075726520746F6F20686967680A00204B41
:100CC000643A2000204B693A2000204B703A200003
:100CD00020436C617373696320504944200A0020EB
:100CE0004E6F206F76657273686F6F740A002054C0
:100CF000753A2000204B753A2000206D61783A202B
:100D000000206D696E3A200020643A20002062695C
:100D100061733A2000504944204175746F74756EB8
:100D2000652073746172740A0050494420417574DF
:100D30006F74756E65206661696C65642120546509
:100D40006D706572617475726520746F6F2068696B
:100D500067680A00504944204175746F74756E6568
:100D600000504944204175746F74756E652066614A
:100D7000696C6564212042616420686561746572F4
:100D80002069640A004572723A20757466382066DC
:100D90006F6E74206E6F7420696E697469616C691E
:100DA0007A65642E004572723A2075746638206642
:100DB0006F6E74206E6F7420696E697469616C69FE
:100DC0007A65642E004572723A2075746638206622
:100DD0006F6E74206E6F7420696E697469616C69DE
:100DE0007A65642E00000C0F00FE07022503BB018C
:100DF0007FFE08FE08FE05080806000040F0C888CF
:100E000088987810050808060000C0F88888888847
:100E100088F80505050600012030F830200508088F
:100E20000600002070F820202020E00509090600B7
:100E3000FF2070A8A8B88888702007050507000162
:100E4000D86C366CD80509090600FFF8A888888890
:100E50008888A8F8050A0A0600FE205050505088DD
:100E6000A8A8887003030306000340A040FFFFFF0B
:100E7000FFFFFFFFFFFFFFFFFFFFFFFFFFFFFFFF82
:100E8000FFFFFF0000000605FF01070706020080C4
:100E9000808080800080030303060105A0A0A005D8
:100EA000060606000050F85050F8500509090600E3
:100EB000FF2070A8A07028A8702005070706000072
:100EC000C8C8102040989805070706000040A0A059
:100ED00040A8906801030306020580808003090989
:100EE0000601FF2040408080804040200309090621
:100EF00001FF804040202020404080050707060079
:100F00000020A8702070A8200505050600012020FB
:100F1000F820200203030601FFC0408005010106FE
:100F20000003F8020202060100C0C0050707060020
:100F30000008101020404080050707060000708858
:100F400098A8C8887003070706010040C0404040C9
:100F500040E0050707060000708808102040F805EB
:100F60000707060000F80810300888700507070614
:100F7000000010305090F81010050707060000F828
:100F800080F008088870050707060000304080F0F0
:100F9000888870050707060000F808101020202038
:100FA00005070706000070888870888870050707A5
:100FB00006000070888878081060020505060100A8
:100FC000C0C000C0C00206060601FFC0C000C0408D
:100FD000800305050601012040804020050303062B
:100FE0000002F800F803050506010180402040805A
:100FF000050707060000708810202000200507075D
:101000000600007088B8A8B88070050707060000C1
:10101000708888F8888888050707060000F0484827
:10102000704848F0050707060000708880808088B7
:1010300070050707060000F04848484848F00507D3
:1010400007060000F88080F08080F805070706009A
:1010500000F88080F0808080050707060000708817
:101060008080988870050707060000888888F888BF
:101070008888030707060100E04040404040E00543
:1010800007070600003810101010906005070706CB
:1010900000008890A0C0A090880507070600008087
:1010A0008080808080F805070706000088D8A8881F
:1010B0008888880507070600008888C8A898888857
:1010C000050707060000708888888888700507076C
:1010D000060000F08888F080808005070706000081
:1010E00070888888A89068050707060000F088883F
:1010F000F0A09088050707060000708880700888B7
:1011000070050707060000F8202020202020050792
:101110000706000088888888888870050707060009
:1011200000888888885050200507070600008888B6
:101130008888A8A850050707060000888850205016
:101140008888050707060000888850202020200591
:101150000707060000F80810204080F80309090678
:1011600001FFE080808080808080E0050707060026
:1011700000804040201010080309090601FFE0200C
:10118000202020202020E0050303060005205088B1
:101190000501010600FEF803030306010580402057
:1011A0000505050600007008788878050707060021
:1011B000008080F0888888F00505050600007080B2
:1011C00080887005070706000008087888888878F6
:1011D0000505050600007088F08070050707060009
:1011E00000304840E04040400507070600FE708898
:1011F00088887808700507070600008080F08888D6
:1012000088880307070601004000C0404040E00412
:1012100009090601FE10003010101010906005073B
:101220000706000080808890E09088030707060189
:1012300000C04040404040E0050505060000D0A841
:10124000A8A8A8050505060000B0C8888888050577
:101250000506000070888888700507070600FEF004
:10126000888888F080800507070600FE78888888CF
:10127000780808050505060000B0C88080800505CF
:101280000506000078807008F005070706000020BA
:1012900020F8202020180505050600008888889879
:1012A00068050505060000888888502005050506A4
:1012B00000008888A8A85005050506000088502071
:1012C00050880507070600FE888888502040800562
:1012D0000505060000F8102040F80309090601FF83
:1012E0002040404080404040200109090602FF8024
:1012F00080808080808080800309090601FF804013
:101300004040204040408005030306000248A8906A
:10131000FF42656400456E636C6F737572650025EE
:1013200068753A25303268750025303268753A257F
:10133000303268750020202020202020002020202E
:1013400020001FE02010201020101020102020105E
:10135000201030300840048003001FE03FF03FF0D1
:101360003FF01FE01FE03FF03FF03FF00FC007806D
:1013700003003FFFF038007030FC3020FC10207874
:10138000102030102C00D02E31D02F7BD02F7BD0CE
:101390002E31D02C00D020301020781020FC1030BE
:1013A000FC303800703FFFF03FFFF03800703186AE
:1013B000302387102787902F87D02F03D02030101D
:1013C0002078102078102030102F03D02F87D027BE
:1013D00087902387103186303800703FFFF01FFF61
:1013E000F81FFFF8041040020820020820041040F3
:1013F00008208010410010410008208004104000A7
:1014000000001FFFF81FFFF8000000001E00000092
:10141000002100000000271DC08C00272121920020
:1014200041212092008E21CE920090212092011025
:1014300021209201201D21CC022000000004100177
:10144000130008100114801008011080200400A36C
:101450000047F200A08043E20044802004004300E3
:1014600018D8000000198400000021FC0000003F93
:1014700000504944204175746F74756E65202A00D0
:101480005049442D44202A005049442D49202A0027
:101490005049442D50202A002008204661637400E2
:1014A0002008204D6178002008204D696E004F66AD
:1014B00066004F6E004175746F74656D7000565410
:1014C000726176204D696E00566D696E00566D61D1
:1014D00078204500566D6178205A00566D6178205D
:1014E0005900566D6178205800416D6178204500A3
:1014F000416D6178205A00416D6178205900416D3D
:101500006178205800412D54726176656C00412D40
:101510005265747261637400416363656C0066694F
:101520006C616D656E74007A5F70726F6265007ACF
:101530005F6D696E00795F6D696E00785F6D696ED1
:10154000005265706F7274696E6720656E647374A3
:101550006F70207374617475730A0020746F6F204C
:101560006C6F6E6720657874727573696F6E20702A
:10157000726576656E7465640A0020636F6C642022
:10158000657874727573696F6E2070726576656EBA
:101590007465640A00486F6D652025732573257393
:1015A0002046697273740000000000000000000013
:1015B0000000005761726E696E673A20486F6D696E
:1015C0006E672042756D702044697669736F722072
:1015D0003C20310A0002020400009B4300009B43B0
:1015E0000000C8430000A0400000A04000000040F0
:1015F000FFFFFF0000000100000001000080005517
:101600005555000000400033333300AAAA2A004990
:1016100092240000002000C7711C0099991900D184
:10162000451700555515003BB11300244912001110
:10163000111100000010000F0F0F00E3380E0043DF
:10164000790D00CCCC0C00C3300C00E8A20B006478
:10165000210B00AAAA0A00703D0A009DD809004289
:101660007B090092240900DCD30800888808001058
:1016700042080000000800F0C107008787070075D6
:10168000500700711C07003EEB0600A1BC06006974
:1016900090060066660600703E0600611806001798
:1016A000F4050074D105005BB00500B2900500623E
:1016B0007205005555050078390500B81E0500056E
:1016C0000505004EEC040087D40400A1BD04009081
:1016D000A7040049920400C17D0400EE690400C71C
:1016E000560400444404005C320400082104004114
:1016F000100400000004003FF00300F8E00300269F
:10170000D20300C3C30300CCB503003AA803000A08
:101710009B0300388E0300C08103009F750300D037
:10172000690300505E03001D530300344803009119
:101730003D03003333030016290300381F030097CD
:10174000150300300C0300030303000BFA020049E9
:10175000F10200BAE802005CE002002DD802002D80
:10176000D0020059C80200B0C0020031B90200DA4C
:10177000B10200AAAA0200A0A30200BC9C0200FAC7
:101780009502005C8F0200DF880200828202004521
:101790007C02002776020027700200436A02007C68
:1017A000640200D05E02003F590200C8530200FFED
:1017B000FDFCFAF8F6F4F2F0EEECEAE9E7E5E3E135
:1017C000E0DEDCDAD9D7D5D4D2D0CFCDCBCAC8C7EA
:1017D000C5C3C2C0BFBDBCBAB9B7B6B4B3B2B0AF6F
:1017E000ADACAAA9A8A6A5A4A2A1A09E9D9C9A99C9
:1017F000989795949392908F8E8D8B8A89888786FF
:1018000084838281807F7E7D7B7A79787776757418
:10181000737271706F6E6D6C6B6A69686766656410
:10182000636261605F5E5D5C5B5A595858575655FC
:101830005453525150504F4E4D4C4B4A4A494847D1
:101840004646454443424241403F3E3E3D3C3B3B91
:101850003A39383837363535343332323130302F43
:101860002E2E2D2C2B2B2A292928272726252524E7
:10187000232322212120201F1E1E1D1C1C1B1B1A7E
:101880001919181817161615151413131212111109
:10189000100F0F0E0E0D0D0C0C0B0A0A090908088B
:1018A0000707060605050404030302020100000001
:1018B000009B4300009B430000C843000000000061
:1018C0000000000000000053657474696E677320A7
:1018D00053746F726564003B200024F4D43050C30D
:1018E0008E20C2A24017828B7011127A910D816CEA
:1018F000D90AA861E108C7586607615143061E4B23
:101900005D05C145A7041A411104093D98037139C9
:1019100031034036DB0265339102D4305402802E0D
:101920001D02632CEE01752AC501B028A001102705
:1019300081018F2564012B244B01E0223401AC216D
:101940001F018D200D01801FFC00841EED00971DDE
:10195000DF00B81CD200E61BC600201BBC00641AC6
:10196000B200B219A8000A19A0006A189900D1178C
:10197000910040178B00B516840031167E00B31518
:1019800079003A157300C7146F0058146A00EE13FB
:1019900066008813630025135E00C7125B006C129B
:1019A000570015125400C111510070114F00211140
:1019B0004B00D61049008D1047004610440002101D
:1019C0004200C00F4000800F3E00420F3C00060F57
:1019D0003B00CB0E3800930E37005C0E3500270E0F
:1019E0003400F30D3200C10D3100900D3000600D58
:1019F0002E00320D2D00050D2C00D90C2B00AE0C45
:101A00002900850C29005C0C2700350C27000E0CE2
:101A10002600E80B2400C40B2400A00B23007D0B40
:101A200023005A0B2100390B2100180B2000F80A63
:101A30001F00D90A1E00BB0A1E009D0A1D00800A55
:101A40001D00630A1C00470A1B002C0A1B00110A18
:101A50001A00F7091A00DD091900C4091900AB09B9
:101A60001900920917007B091800630917004C0937
:101A7000160036091600200916000A091500F50897
:101A80001500E0081400CC081400B8081400A408DD
:101A90001400900813007D0812006B08130058080A
:101AA0001200460812003408110023081100120821
:101AB000110001081100F0071000E0071000D00726
:101AC0001000C0071000B0070F00A1071000910719
:101AD0000E0083070F0074070F0065070E005707FD
:101AE0000E0049070E003B070D002E070E002007D1
:101AF0000D0013070D0006070D00F9060C00ED069A
:101B00000D00E0060C00D4060C00C8060C00BC0654
:101B10000C00B0060C00A4060B0099060C008D0604
:101B20000B0082060B0077060B006C060B006106AB
:101B30000A0057060B004C060A0042060A00380647
:101B40000A002E060A0024060A001A060A001006D9
:101B5000090007060A00FD050900F4050900EB0568
:101B60000900E2050900D9050900D0050900C705EB
:101B70000900BE050900B5050800AD050800A5056A
:101B800009009C050800940508008C0508008405E0
:101B900008007C050800740508006C050700650551
:101BA00008005D050700560508004E0507004705BB
:101BB00007004005080038050700310507002A0521
:101BC0000700230507001C050600160507000F0582
:101BD00007000805060002050700FB040600F504DF
:101BE0000700EE040600E8040600E2040700DB0438
:101BF0000600D5040600CF040600C9040600C3048D
:101C00000600BD040600B7040600B1040500AC04DC
:101C10000600A6040600A00405009B040600950427
:101C20000500900406008A04050085040500800470
:101C300006007A04050075040500700405006B04B5
:101C4000050066040500610405005C0405005704F6
:101C50000500520405004D04050048040500430436
:101C600005003E0404003A04050035040500300474
:101C700004002C04050027040400230405001E04AE
:101C800004001A04040016040500110404000D04E5
:101C90000400090405000404040000040400FC031B
:101CA0000400F8030400F4030400F0030400EC0350
:101CB0000400E8030400E4030400E0030400DC0380
:101CC0000400D8030400D4030400D0030400CC03B0
:101CD0000400C8030300C503030024F404D9201B37
:101CE000C40C5C0E9804C4095F0265077101F40519
:101CF000F900FB04B30048048700C10369005803DE
:101D0000550003034500BE023A008402310053022D
:101D10002A002902250004022000E4011C00C80159
:101D20001900AF011700980114008401130071011C
:101D300010006101100051010E0043010D00360139
:101D40000B002B010B0020010B00150109000C01F9
:101D5000090003010800FB000800F3000800EB0085
:101D60000700E4000600DE000600D8000600D200EE
:101D70000600CC000500C7000500C2000500BD003C
:101D80000400B9000400B5000400B1000400AD0077
:101D90000400A9000400A5000300A20003009F00A6
:101DA00004009B00030098000300950002009300CC
:101DB0000300900003008D0002008B0003008800E8
:101DC00002008600020084000300810002007F0000
:101DD00002007D0002007B00020079000200770013
:101DE0000100760002007400020072000100710020
:101DF00002006F0002006D0001006C0002006A002A
:101E00000100690002006700010066000100650032
:101E10000100640002006200010061000100600036
:101E200001005F0002005D0001005C0001005B003A
:101E300001005A000100590001005800010057003C
:101E4000010056000100550001005400010053003C
:101E50000000530001005200010051000100500039
:101E600001004F0001004E0000004E0001004D0037
:101E700001004C0001004B0000004B0001004A0033
:101E8000010049000100480000004800010047002F
:101E9000010046000000460001004500000045002A
:101EA0000100440001004300000043000100420023
:101EB000000042000100410000004100010040001C
:101EC00001003F0000003F0001003E0000003E0016
:101ED00001003D0000003D0001003C0000003C000E
:101EE00000003C0001003B0000003B0001003A0004
:101EF00000003A00010039000000390001003800FC
:101F000000003800000038000100370000003700F2
:101F100001003600000036000000360001003500E8
:101F200000003500000035000100340000003400DE
:101F300000003400010033000000330000003300D3
:101F400001003200000032000000320001003100C8
:101F500000003100000031000100300000003000BE
:101F60000000300001002F0000002F0000002F00B3
:101F700000002F0001002E0000002E0000002E00A7
:101F800001002D0000002D0000002D0000002D009C
:101F900001002C0000002C0000002C0000002C0090
:101FA00001002B0000002B0000002B0000002B0084
:101FB00001002A0000002A0000002A0000002A0078
:101FC000010029000000290000002900000029006C
:101FD000000029000100280000002800000028005F
:101FE0000000280000002800010027000000270052
:101FF0000000270000002700000027000100260045
:102000000000260000002600000026000000260038
:10201000010025000000250000002500000025002B
:10202000000025000000250001002400000024001D
:102030000000240000002400000024000100230010
:102040000000230000002300000023000000230004
:1020500000002300000023000100220000002200F5
:1020600000002200000022000000220000002200E8
:1020700001002100000021000000210000002100DB
:1020800000002100000021000000210001002000CC
:1020900000002000000020000000200000002000C0
:1020A00000002000000020000000200001001F00B0
:1020B00000001F0000001F0000001F0000001F00A4
:1020C00000001F0000001F0001001E0000001E0095
:1020D00000001E0000001E00000039300000332503
:1020E000000087190000B00F0000DB080000BD04ED
:1020F0000000740200003F010000507265686561D5
:1021000074202420456E64005072656865617420F7
:1021100024204265640054656D7065726174757247
:102120006500436F6F6C646F776E00507265686511
:10213000617420240046616E205370656564207EC2
:1021400000426564004E6F7A7A6C65004D61696E7D
:102150000050726F6265205A204F66667365740086
:10216000466C6F770046616E205370656564207E13
:1021700000426564004E6F7A7A6C65005370656545
:1021800064004D61696E00486F6D696E672046613D
:10219000696C6564006F70656E005452494747452D
:1021A000524544003A20004732362043616E636551
:1021B0006C6564004732362048656174696E67203B
:1021C0004E6F7A7A6C6500473236204865617469D3
:1021D0006E67204265640057616974696E672066A6
:1021E0006F72206865617475702E0A0046697865A3
:1021F00064204C656E677468205072696D65004498
:102200006F6E65205072696D696E67004D616E7505
:10221000616C207072696D696E672E2E2E004C65A0
:102220006176696E6720473236003F537065636997
:102230006669656420582C5920636F6F7264696EFB
:10224000617465206F7574206F6620626F756E64AF
:10225000732E0A003F2852296570656174207661EB
:102260006C7565206E6F7420706C61757369626C3B
:10227000653B206D757374206265206174206C6508
:1022800061737420312E0A003F537065636966697B
:102290006564206E6F7A7A6C652074656D70657206
:1022A0006174757265206E6F7420706C61757369EE
:1022B000626C652E0A003F537065636966696564E8
:1022C0002066696C616D656E742073697A65206E35
:1022D0006F7420706C61757369626C652E0A003FC3
:1022E000537065636966696564207072696D652005
:1022F0006C656E677468206E6F7420706C617573A6
:1023000069626C652E0A003F537065636966696592
:1023100064206E6F7A7A6C652073697A65206E6FBF
:102320007420706C61757369626C652E0A003F528F
:10233000657472616374696F6E204D756C74697039
:102340006C696572206D75737420626520737065A9
:102350006369666965642E0A003F53706563696648
:102360006965642052657472616374696F6E204D93
:10237000756C7469706C696572206E6F7420706C16
:1023800061757369626C652E0A003F5370656369FD
:1023900066696564206C6179657220686569676843
:1023A00074206E6F7420706C61757369626C652E39
:1023B0000A0043292E0A003F537065636966696508
:1023C00064206265642074656D70657261747572F5
:1023D00065206E6F7420706C61757369626C652026
:1023E0002834302D00473236207374617274696E60
:1023F000672E2E2E0A004F46460A0046616465206D
:102400004865696768742000426564204C6576659C
:102410006C696E6720004661696C656420746F208A
:10242000656E61626C6520426564204C6576656C02
:10243000696E670A00496E76616C6964206D657328
:10244000682E0A000000000000000060000000008C
:1024500000FC00000FF00000000007E0000000009A
:1024600001861FC018700000000000603C0C0000D6
:1024700001830C6010300000000000603C0C000084
:1024800001830C303030000000000060000C0000C0
:1024900000030C183000000000000060003F0F3CFB
:1024A00000030C0C6001DF0FE0FE00601C1C06182E
:1024B00000060C0C6000F318318300600C0C03184C
:1024C000001E0C0C6000E030398300600C0C0330FF
:1024D00000030C0C6000C030380F00600C0C03309F
:1024E00000018C0C6000C03FF8FB00600C0C033056
:1024F00000018C0C6030C030018300600C0C01F0D6
:1025000001818C0C6030C030018300600C0C00E055
:1025100001818C183030C018318300600C0C40E011
:1025200001838C301860C00C6187C0E01C0CC06057
:1025300000C30C600FC3F007C0FFC7FC7F0781C05A
:10254000007E1FC000000000000000000000070027
:102550000000000000000000000000000000070074
:10256000000000006D61726C696E66772E6F726795
:1025700000322E302E382E312D46695A692D424CAC
:102580002D323530303030001FFFFFFFFFFFFF607E
:102590000000000001FF400000000000FF8000007C
:1025A0000000007F83CF00000C303F87FF80000CCD
:1025B000301F867980000C000F8C30C7838C30E789
:1025C0008C30CFC7CC31F38C30DCECEC33B98C30B1
:1025D000D86C6C33198C30D06C0C33198C30D86CAF
:1025E0000C33198C30DC6C0E3B198C30CF7C079F80
:1025F000198C30C77C038F19400000000000026076
:102600000000000000061FFFFFFFFFFFF870012C15
:102610000190012701B0012201C0011D01F0011844
:10262000011002130130020E016002090190020440
:1026300001C002FF000003FA004003F5008003F030
:1026400000D003EB002004E6007004E100E004DCAD
:10265000004005D700C005D2004006CD00D006C816
:10266000008007C3003008BE00F008B900C009B4FC
:1026700000B00AAF00B00BAA00D00CA500000EA05D
:1026800000500F9B00C01096005012910000148C57
:1026900000C0158700B0178200B0197D00D01B78EC
:1026A00000001E730040206E0090226900F0246438
:1026B0000040275F0090295A00E02B5500102E5053
:1026C0000020304B0010324600E033410090353C92
:1026D000001037370070383200A0392D00B03A288A
:1026E00000A03B2300603C1E00103D1900903D14EB
:1026F00000103E0F00703E0A00C03E0500003F0083
:1027000000403FFBFF803FF6FFC03FF1FF2020501D
:102710006C616E6E6572427566666572427974654B
:10272000733A20002046726565204D656D6F7279A1
:102730003A2000436F6D70696C65643A204D617991
:1027400020313520323032310A00204C6173742040
:10275000557064617465643A20323032312D303501
:102760002D3135207C20417574686F723A2046699E
:102770005A69206261736564206F6E204161726FD7
:102780006E204A7573742C20435231302D563329F4
:102790000A00322E302E382E312D46695A692D42CC
:1027A0004C2D3235303030300A004D61726C696E1C
:1027B0000020536F6674776172652052657365748B
:1027C0000A00205761746368646F672052657365FF
:1027D000740A002042726F776E206F757420526504
:1027E0007365740A002045787465726E616C2052BE
:1027F000657365740A00506F77657255700A0073CF
:10280000746172740A004732385859004D313030C3
:1028100031006572726F722077726974696E672019
:10282000746F2066696C650A00446F6E6520736181
:1028300076696E672066696C652E0A004D32390034
:10284000456E6473746F70730025532025632025D3
:10285000632025632025630020503A00205A3A0067
:1028600020593A0020583A00656E6473746F707393
:10287000206869743A20004572723A204D415854DC
:10288000454D50004D415854454D50207472696774
:102890006765726564004572723A204D494E544531
:1028A0004D50004D494E54454D5020747269676734
:1028B0006572656400544845524D414C2052554E56
:1028C0004157415900546865726D616C2052756EB4
:1028D0006177617900202F002042403A0020403A81
:1028E0000020573A0020573A00496E76616C6964BF
:1028F0002065787472756465720A005061726B6944
:102900006E672E2E2E0000005761697420666F726C
:102910000066696C616D656E74206368616E6765E1
:1029200000746F207374617274005761697420665B
:102930006F720066696C616D656E7420756E6C6F88
:10294000616400004E6F7A7A6C6520686561746915
:102950006E6700506C6561736520776169742E2E17
:102960002E0000507265737320627574746F6E0070
:10297000746F2068656174206E6F7A7A6C650000F0
:10298000496E736572742066696C616D656E740062
:10299000616E6420707265737320627574746F6EFB
:1029A00000746F20636F6E74696E7565005761699E
:1029B0007420666F720066696C616D656E74206C60
:1029C0006F61640000507265737320427574746F98
:1029D0006E00746F20726573756D65207072696E1C
:1029E0007400005761697420666F72207072696E9E
:1029F0007400746F20726573756D652E2E2E000045
:102A00005761697420666F720066696C616D656EEE
:102A10007420707572676500003E2000256C642E7E
:102A200025696D00457874727564656420546F740F
:102A3000616C003E20004C6F6E67657374204A6FB6
:102A4000622054696D65003E2000546F74616C20F3
:102A50005072696E742054696D6500436F6D706CBF
:102A600065746564003A20005072696E7420436F8B
:102A7000756E74003A200031323000350042454412
:102A80003A204550434F53203130304B0052756E41
:102A9000617761792057617463683A204F4E004D29
:102AA00061782054656D7000323735004D696E20B5
:102AB00054656D7000350045313A204550434F5301
:102AC000203130304B005053550047656E657269B8
:102AD000630050726F746F636F6C00312E30004270
:102AE0006175640032353030303000437265616C9E
:102AF00069747933442052414D50530042696C69E6
:102B00006E656172204C6576656C696E670045780C
:102B1000747275646572730031006D61726C696EF8
:102B200066772E6F72670043522D31302056330086
:102B3000323032312D30352D313500322E302E38B5
:102B40002E312D46695A692D424C2D3235303030A8
:102B500030004D61726C696E005072696E746572FE
:102B600020537461747300546865726D6973746F77
:102B7000727300426F61726420496E666F0050721A
:102B8000696E74657220496E666F004D61696E00F2
:102B90004D313030300053746F70205072696E7454
:102BA00000526573756D65205072696E7400506FC8
:102BB000776572204F7574616765003F00426163FD
:102BC0006B0053746F70005072696E742066726F80
:102BD0006D204D65646961004368616E6765204DD5
:102BE00065646961004D32310041626F7574205037
:102BF00072696E746572004368616E67652046692C
:102C00006C616D656E7400436F6E666967757261A5
:102C100074696F6E0054656D70657261747572656C
:102C2000004D6F74696F6E00526573756D6520504D
:102C300072696E74004E6F204D6564696100436176
:102C40006E63656C204F626A6563740054756E65CF
:102C50000053746F70205072696E74005061757308
:102C600065205072696E7400496E666F20536372FE
:102C700065656E006E6F74696669636174696F6E15
:102C800020006E6F74696669636174696F6E2000FD
:102C900063616E63656C005072696E742041626F8F
:102CA00072746564004469736D69737300554920DB
:102CB00041626F72746564004D323520500A4D32A6
:102CC0003400526573756D65005549205061757308
:102CD000650050617573696E672E2E2E00726573E4
:102CE000756D65004D323400454550524F4D2056AC
:102CF000657273696F6E204572726F720045455040
:102D0000524F4D20496E646578204572726F720093
:102D1000454550524F4D20435243204572726F72C9
:102D2000003F0049676E6F726500526573657400FD
:102D3000496E697469616C697A6520454550524FE6
:102D40004D0000FE0003FF8007C7C00701E0000040
:102D5000E00000F00000700400700E00701F0070B2
:102D60003F80F00E00E00F01E007C7C003FF8000C6
:102D7000FE0000FE0003FF8007C7C00F01E00E0049
:102D8000E03F80F01F00700E0070040070000070C3
:102D90000000F00000E00701E007C7C003FF80006B
:102DA000FE000E000E000E000E000E000E000E00C3
:102DB0000E007FC03F801F000E00040004000E00C4
:102DC0001F003F807FC00E000E000E000E000E00A0
:102DD0000E000E000E00FFFFFF7F80FFC0FFC0FF50
:102DE000C07F807F80FFC0FFC0FFC03F001E000C7F
:102DF0000050726F6265205A204F666673657400DA
:102E000052756E6F75742044697374206D6D004C3B
:102E10006F6164206D6D00556E6C6F6164206D6D27
:102E20000046696C2E204469612E004520696E20A1
:102E30006D6D5E33004D33303320553120452569AB
:102E40002053256900446966663A202020004672B6
:102E50006F6D5374703A00537465707065723A0008
:102E6000556E4C6576656C3A004C6576656C6564AC
:102E70003A005261773A20202020000A4C6F67699F
:102E800063616C3A00436F756E7420453A0043618C
:102E9000703A004D4541545041434B00434F4F4C15
:102EA00045525F54454D504552415455524500439B
:102EB00048414D4245525F54454D5045524154554D
:102EC000524500424142595354455050494E4700E3
:102ED00041524353004D4F54494F4E5F4D4F44456F
:102EE0005300544845524D414C5F50524F54454356
:102EF00054494F4E004C4F4E475F46494C454E415A
:102F00004D45004155544F5245504F52545F534424
:102F10005F5354415455530053445F5752495445ED
:102F200000524550454154005344434152440050DF
:102F3000524F4D50545F535550504F525400454DD1
:102F4000455247454E43595F504152534552004305
:102F50004153455F4C494748545F425249474854A2
:102F60004E45535300544F47474C455F4C494748E3
:102F7000545300534F4654574152455F504F5745A5
:102F800052004255494C445F50455243454E54000F
:102F90004C4556454C494E475F44415441005A5FA9
:102FA00050524F42450052554E4F555400415554D2
:102FB0004F4C4556454C005052494E545F4A4F4283
:102FC0000050524F4752455353004155544F5245BC
:102FD000504F52545F54454D50004155544F524547
:102FE000504F52545F504F5300564F4C554D45541F
:102FF00052494300454550524F4D0042494E4152BF
:10300000595F46494C455F5452414E534645520024
:1030100053455249414C5F584F4E5F584F4646000A
:103020004649524D574152455F4E414D453A4D61DB
:10303000726C696E20322E302E382E312D46695A30
:10304000692D424C2D32353030303020284D617999
:1030500020313520323032312031343A33383A346D
:10306000322920534F555243455F434F44455F55E6
:10307000524C3A6769746875622E636F6D2F4D61AB
:10308000726C696E4669726D776172652F4D6172FF
:103090006C696E2050524F544F434F4C5F5645520F
:1030A00053494F4E3A312E30204D414348494E4509
:1030B0005F545950453A43522D3130205633204504
:1030C000585452554445525F434F554E543A31205F
:1030D000555549443A63656465326132662D343131
:1030E00061322D343734382D396231322D63353524
:1030F0006336326633363766660A0050726F626531
:10310000204F6666736574205A0050726F626520A6
:103110004F6666736574205A00290A0020746F2078
:10312000003F5A206F7574206F662072616E67656C
:10313000202800290A0020746F20003F59206F7555
:1031400074206F662072616E676520282D00290A41
:103150000020746F20003F58206F7574206F662028
:1031600072616E676520282D0050726F6265204F76
:1031700066667365742058006F6B0A00526573654C
:103180006E643A200056652D4A65726B00565A2DC2
:103190004A65726B0056592D4A65726B0056582D60
:1031A0004A65726B0050726F6265205A204F6666E6
:1031B0007365740050726F62652059204F666673A4
:1031C00065740050726F62652058204F66667365A3
:1031D0007400452073746570732F6D6D005A205311
:1031E000746570732F6D6D00592053746570732F63
:1031F0006D6D00582053746570732F6D6D004164C0
:1032000076616E6365642053657474696E677300DC
:103210003F0043616E63656C00496E697400496EDE
:10322000697469616C697A6520454550524F4D005B
:1032300046696C616D656E740054656D7065726190
:10324000747572650053746570732F6D6D005072E4
:103250006F6265204F666673657473004A65726BB2
:1032600000416363656C65726174696F6E005665D9
:103270006C6F6369747900436F6E6669677572611C
:1032800074696F6E00220A00556E6B6E6F776E2048
:10329000636F6D6D616E643A202200204200205001
:1032A000006F6B0043522D31302056332052656140
:1032B00064792E005072696E74696E672E2E2E002E
:1032C0005072696E74205061757365640020453AD0
:1032D00000205A3A0020593A00583A0020746F6F83
:1032E000206C6F6E6720657874727573696F6E20DD
:1032F00070726576656E7465640A0020636F6C6435
:1033000020657874727573696F6E2070726576656A
:103310006E7465640A0021212053544F502063616C
:103320006C6C65642062656361757365206F6620EF
:10333000424C546F756368206572726F72202D2045
:10334000726573746172742077697468204D3939BD
:10335000390A0021212053544F502063616C6C6561
:10336000642062656361757365206F6620424C540A
:103370006F756368206572726F72202D207265739D
:10338000746172742077697468204D3939390A0084
:103390002F2F616374696F6E3A0070726F6D707475
:1033A0005F00656E6400486F74656E6420746F6FB3
:1033B00020636F6C640A0053656E64204D313038B1
:1033C00020746F20726573756D650A00496E7365B0
:1033D00072742066696C616D656E7420616E642024
:1033E00073656E64204D3130380A0052656865613E
:1033F0007420446F6E6500526568656174696E671C
:103400002E2E2E00526568656174004865617465F2
:10341000722054696D656F75740053656E64204D3C
:1034200031303820746F2068656174206E6F7A7A4D
:103430006C650A004E6F7A7A6C65205061726B651C
:103440006400706175736564005061757365007226
:103450006573756D656400526573756D696E67009F
:10346000205200416363656C65726174696F6E3AE6
:103470002050005741524E494E4721204C6F772033
:103480005A204A65726B206D6179206C65616420F9
:10349000746F20756E77616E7465642070617573EA
:1034A00065732E0A00204D39322058004F464600E1
:1034B0004F4E0020204D61783A2000200020204D02
:1034C000696E3A2000536F667420656E6473746F82
:1034D00070733A20004D323453256C6454256C646B
:1034E000004739322E39452573004731462564009F
:1034F00047315A25734636303000473158257359C5
:1035000025734633303030004D3130365025695305
:103510002569004D313039532569004D3230304432
:103520002573004739322E395A2573004D34323015
:103530005325635A25730047323852305859004793
:10354000315A257346363030004739322E395A25E4
:1035500073004739322E394530004D31303953250B
:1035600069004D313930532569004D3432302053D4
:1035700030205A300020496E76616C69642065788D
:10358000747275646572200043616E6E6F74206F93
:1035900070656E207375626469722000534420491F
:1035A0006E6974204661696C0053442063617264E3
:1035B000206F6B0A006F70656E526F6F74206661CA
:1035C000696C65640A00766F6C756D652E696E694D
:1035D00074206661696C65640A004E6F2053442054
:1035E000636172640A000A4D3234004D3233202583
:1035F00073002E0A006F70656E206661696C6564E9
:103600002C2046696C653A200046696C652073651C
:103610006C65637465640A002053697A653A20001A
:1036200046696C65206F70656E65643A2000454E92
:103630004420535542524F5554494E450A002220CA
:10364000706F73002220706172656E743A220053AD
:103650005542524F5554494E452043414C4C2074DD
:1036600061726765743A220053756263616C6C2005
:103670004F766572666C6F77004578636565646543
:1036800064206D617820535542524F5554494E4540
:103690002064657074683A002E0A0044656C657495
:1036A000696F6E206661696C65642C2046696C6583
:1036B0003A200046696C652064656C657465643AFF
:1036C000005344207072696E74696E672062797469
:1036D0006520004E6F74205344207072696E7469C7
:1036E0006E670A002F6175746F25632E670057722D
:1036F0006974696E6720746F2066696C653A200092
:10370000667265736800646F696E67002066696C35
:10371000653A20004E6F7720005072696E74206603
:10372000726F6D204D656469610050726F62696EE1
:1037300067204661696C656400205A3A2000205970
:103740003A200042656420583A200073686F770081
:10375000627574746F6E00626567696E00446973A8
:1037600061626C6552756E6F757400507572676535
:103770004D6F72650050617573656400436F6E74C0
:10378000696E7565004C6F61642046696C616D659A
:103790006E74205400496E736572742066696C61A2
:1037A0006D656E7420616E642073656E64204D31AA
:1037B00030380A00554E4C4F41442046494C414D4B
:1037C000454E54004C4F41442046494C414D454ED6
:1037D000540046494C414D454E54204348414E47C4
:1037E0004500426564004E6F7A7A6C650046616EF2
:1037F00020537065656400436F6E6669677572611A
:1038000074696F6E00526573746F726520446566EB
:1038100061756C7473004C6F6164205365747469D6
:103820006E67730053746F72652053657474696EAC
:1038300067730050726568656174202420436F6E61
:103840006600506F776572204F7574616765004F31
:103850006666004F6E0052756E6F75742053656E0C
:10386000736F7200424C546F7563680050726F62E0
:1038700065205A204F666673657400416476616EF8
:103880006365642053657474696E6773004D616984
:103890006E004D37303220542564004D36303020D4
:1038A000423020542564004D373032203B256400DF
:1038B0004D37303120542564004D373032004D37BC
:1038C0003031004D363030204230004D61696E009D
:1038D000436F6E74696E7565004F6666004F6E00CB
:1038E00052756E6F75742053656E736F72005075EC
:1038F000726765206D6F726500524553554D4520C6
:103900004F5054494F4E533A005052494E54205054
:1039100041555345440020204E6F7A7A6C653A2019
:103920000050726F62696E6720506F696E74002577
:10393000532025692F2569002E0A002F0050726F31
:1039400062696E67206D65736820706F696E7420A0
:1039500000202844525952554E29004732392041FF
:1039600075746F20426564204C6576656C696E677E
:10397000003F20284C2C522C462C4229206F757475
:10398000206F6620626F756E64732E0A003F2856A2
:10399000296572626F7365206C6576656C20696D50
:1039A000706C61757369626C652028302D34292E26
:1039B0000A00426164205A2076616C75650A004EE7
:1039C0006F2062696C696E65617220677269640A52
:1039D00000446576696174696F6E0025533A20254D
:1039E000730046696E6973686564210A003A207A3B
:1039F0003A2000206F662000476F696E6720746F61
:103A00003A20580043570A00206469723A00206146
:103A10006E676C653A0053746172742072616469F8
:103A200075733A004D343820506F696E7400255319
:103A30003A2025642F256400506F736974696F6E96
:103A4000696E67207468652070726F62652E2E2E15
:103A50000A003F4C656773206F66206D6F76656D59
:103A6000656E7420696D706C61757369626C652038
:103A700028302D3135292E0A003F2028582C59296D
:103A8000206F7574206F6620626F756E64732E0AE6
:103A90000050726F6265206F7574206F6620626FD0
:103AA000756E6473003F53616D706C652073697A45
:103AB00065206E6F7420706C61757369626C65202F
:103AC00028342D3530292E0A004D3438205A2D50F7
:103AD000726F6265205265706561746162696C69BC
:103AE000747920546573740A003F28562965726200
:103AF0006F7365206C6576656C20696D706C61759F
:103B00007369626C652028302D34292E0A005374A5
:103B1000616E6461726420446576696174696F6E78
:103B20003A20002052616E67653A2000204D61788E
:103B30003A2000204D696E3A2000205369676D617C
:103B40003A20004D65616E3A2000000022002500F9
:103B500028002B002E003100340002010000050176
:103B600008010B0100002100240027002A002D007D
:103B70003000330001010000040107010A010505BE
:103B80000505070508080808020202020A0A0808D3
:103B90000404040401010101010101010303030301
:103BA00003030303040707070C0C0C0C0C0C0C0C90
:103BB0000202020206060606060606060B0B0B0BA1
:103BC0000B0B0B0B010210202008081020401020C6
:103BD00040800201020108040201010204081020D1
:103BE00040808040201008040201800402018040CF
:103BF0002010080402010804020101020408102038
:103C0000408001020408102040805A2056616C75E3
:103C10006500496E646578205900496E64657820B6
:103C2000580053746F72652053657474696E6773BE
:103C3000004C6F61642053657474696E6773005043
:103C4000726F6265205A204F666673657400466124
:103C5000646520486569676874004F6666004F6E4A
:103C600000426564204C6576656C696E670045644A
:103C70006974204D657368004C6576656C204265FB
:103C800064004732394E00473239004175746F2065
:103C9000486F6D65004D6F74696F6E003F00436142
:103CA0006E63656C204F626A656374004E4F005905
:103CB00045530043616E63656C204F626A656374AF
:103CC000203D004D61696E0053746F77004465704C
:103CD0006C6F790053572D4D6F64650053656C66AA
:103CE0002D54657374005265736574003F005374FE
:103CF000617274205072696E740043616E63656C0A
:103D0000005072696E740043616E6E6F7420656E50
:103D1000746572207375626469723A2000022E2EF7
:103D2000004D61696E002100486F74656E642074F7
:103D30006F6F20636F6C64004261636B0050726F41
:103D400063656564004F6666004F6E00536F66746E
:103D500020456E6473746F7073004D6F74696F6E7D
:103D60000044697361626C6520537465707065729C
:103D700073004D3834004D34382050726F62652026
:103D800054657374004732384F0A4D34382050312F
:103D90003000426564204C6576656C696E6700484A
:103DA0006F6D65205A004732385A00486F6D6520A4
:103DB00059004732385900486F6D65205800473226
:103DC0003858004175746F20486F6D650047323870
:103DD000004D61696E007C3C3E5E2B3D3F2F5B5D7C
:103DE0003B2C2A225C003A0A0020204D363033203A
:103DF0000020440020204D34313220530046696CAD
:103E0000616D656E742072756E6F75742073656E6A
:103E1000736F723A002055004C0046696C616D6505
:103E20006E74206C6F61642F756E6C6F6164206CB2
:103E3000656E677468733A0020204D38353120581C
:103E4000005A2D50726F6265204F6666736574006C
:103E500020204D343133205300506F7765722D4C44
:103E60006F7373205265636F766572793A002044F0
:103E70000020490020204D333034205000204400E1
:103E800020490020204D333031205000504944203B
:103E900073657474696E67733A00204600204800A9
:103EA00020204D3134352053004D617465726961B5
:103EB0006C2068656174757020706172616D6574E5
:103EC0006572733A00204A0020204732392057207B
:103ED000490020204D3432302053004175746F204A
:103EE000426564204C6576656C696E673A002058BF
:103EF0000020530020204D323035204200416476AE
:103F0000616E6365643A20423C6D696E5F736567FC
:103F10006D656E745F74696D655F75733E20533CAB
:103F20006D696E5F66656564726174653E20543CC0
:103F30006D696E5F74726176656C5F6665656472EB
:103F40006174653E20583C6D61785F785F6A657288
:103F50006B3E20593C6D61785F795F6A65726B3E9C
:103F6000205A3C6D61785F7A5F6A65726B3E2045CE
:103F70003C6D61785F655F6A65726B3E002054003E
:103F800020520020204D32303420500041636365C0
:103F90006C65726174696F6E2028756E6974732F19
:103FA0007332293A20503C7072696E745F616363AA
:103FB000656C3E20523C726574726163745F61632C
:103FC00063656C3E20543C74726176656C5F61631E
:103FD00063656C3E0020204D3230312058004D6129
:103FE00078696D756D20416363656C657261746994
:103FF0006F6E2028756E6974732F7332293A002012
:104000004500205A0020590020204D3230332058DE
:10401000004D6178696D756D2066656564726174C7
:1040200065732028756E6974732F73293A00537471
:104030006570732070657220756E69743A00204453
:104040000020204D323030205300204469736162DB
:104050006C65640A0046696C616D656E74207365F9
:104060007474696E67733A0020204D3134392043EF
:10407000203B20556E69747320696E2043656C7314
:104080006975730A0020286D6D29002020473231A0
:10409000202020203B20556E69747320696E206DAE
:1040A0006D0000803B4400803B44000070410000F4
:1040B00096420000A0420000A0420000C843EC115C
:1040C000BF43D0070000D007000064000000881341
:1040D00000005045544700504C410000000A0B02BC
:1040E000090C0D0E08070304010000000000000089
:1040F00000000000000000000000000000000000C0
:10410000000000000000001211100000000000007C
:10411000000000000000000000000000000000009F
:1041200000004D6F76652025736D6D004D6F7665CF
:1041300020302E316D6D004D6F766520316D6D0034
:104140004D6F76652031306D6D004D6F7665204185
:10415000786973004578747275646572004D6F7686
:1041600065205A004D6F76652059004D6F766520A9
:104170005800D740D2404368616E67652046696C3D
:10418000616D656E7400556E6C6F61642046696C7C
:10419000616D656E74004C6F61642046696C616D81
:1041A000656E740050726568656174204375737440
:1041B0006F6D005072656865617420240042616310
:1041C0006B00506C656173652052657365740050B7
:1041D00052494E5445522048414C544544002553C1
:1041E0003A20255300706F7765726F6666004B4901
:1041F0004C4C45442E20005072696E7465722068E4
:10420000616C7465642E206B696C6C282920636175
:104210006C6C6564210A0053544F505045442E2065
:10422000005072696E7465722073746F707065648B
:104230002064756520746F206572726F72732E2012
:1042400046697820746865206572726F7220616EAD
:104250006420757365204D39393920746F2072657B
:1042600073746172742E202854656D706572617468
:104270007572652069732072657365742E205365AD
:10428000742069742061667465722072657374614C
:104290007274696E67290A006563686F3A00457237
:1042A000726F723A0042696C696E656172204C658A
:1042B00076656C696E6720477269643A0A0020432C
:1042C0006F756E7420583A00426564004531006293
:1042D0006564002C2073797374656D2073746F703E
:1042E00070656421204865617465725F49443A20B5
:1042F0000048656174696E67204661696C65640099
:1043000048656174696E67206661696C6564004D1B
:104310003131322053687574646F776E00202D2020
:10432000496E76616C696420657874727564657233
:10433000206E756D62657220210A0000D80134017B
:1043400011241FBECFEFD1E2DEBFCDBF00E00CBF16
:1043500014E0A0E0B2E0E4E6F5EE02E00BBF02C03C
:1043600007900D92A43EB107D9F729E1A4EEB4E07D
:1043700001C01D92AE32B207E1F711E2CFE9D1E2FE
:1043800000E006C021970109802FFE010F94496FBC
:10439000CE39D10780E00807A9F70F942D5A0D9464
:1043A000A1720C9400002F923F924F925F926F92F5
:1043B0007F928F929F92AF92BF92CF92DF92EF92B5
:1043C000FF920F931F93CF93DF93CDB7DEB7E497A0
:1043D0000FB6F894DEBF0FBECDBF8CAB3090761118
:1043E00021E020937611809105098D3409F489C369
:1043F000843511F40C948533873411F00C94973381
:1044000080910309909104098B31910509F41DC134
:10441000B0F48430910530F4209102088230910587
:1044200070F137C08531910511F40C9499338A31BC
:10443000910509F406C1049709F05FC3C3C08A322D
:10444000910509F4F3C148F48D319105B1F008F4F8
:1044500017C14E9709F46DC150C38B35910509F40E
:10446000C5C28C35910509F4C6C28A35910509F09B
:1044700044C31092E9040C94993314E043C12330EF
:1044800010F40C9499330E9453EB0E944C690C94E5
:104490009933233010F40C94993311E0029709F00A
:1044A00010E00E9453EB19821A821B821C821D822B
:1044B0001E821F82188682E50E948CE1882309F4FF
:1044C0004BC00E9407E16B017C0120E030E0A901B4
:1044D0000F947068882309F455C08091E909909180
:1044E000EA09A091EB09B091EC0988A799A7AAA7BE
:1044F000BBA78091ED099091EE09A091EF09B091D1
:10450000F0098CA79DA7AEA7BFA7809060119090DF
:104510006111A0906211B0906311409064115090AD
:1045200065116090661170906711A501940168A5EE
:1045300079A58AA59BA50F94706881110C94B93355
:10454000A30192016CA57DA58EA59FA50F9470680F
:104550008823C1F00C94B93389E40E948CE188234C
:1045600031F00E9407E169837A838B839C838AE41C
:104570000E948CE1882331F00E9407E16D837E83E5
:104580008F83988720E030E0A90169817A818B814F
:104590009C810F94706881110C946D3420E030E0A0
:1045A000A9016D817E818F8198850F94706881113A
:1045B0000C946D340F940E5087E195E00F94584F92
:1045C0000C94993380E50E948CE1882329F00F94A4
:1045D00021106B017C0103C0C12CD12C760183E535
:1045E0000E948CE1882361F00E9407E120E030E026
:1045F0004AE754E40F94D5680F949B706B017C01DB
:104600000E94C17880913C08811105C060E083E47C
:1046100095E00E94CABA0F94B944C60ED71EE81E90
:10462000F91E0F94B944DC01CB018C199D09AE0928
:10463000BF09B7FD02C00C94993380E00E94A738EF
:10464000F0CF0E946E950C94993387E00E94946F8E
:1046500081110C9499338CE0E5E1F4E0DE011196D0
:1046600001900D928A95E1F760E070E080E50E948C
:10467000F5F1BE016F5F7F4F0E94358B0C9499332B
:1046800087E00E94786881110C948E3460E08FE49A
:104690000E945A9581110C9499330C948E3460E0E9
:1046A0008FE40E945A9581113CC080910609909137
:1046B0000709A0910809B091090995FF04C08DEC84
:1046C0009DE30E9457C887E00E94946F811129C022
:1046D0000F943B14882329F1115011F40C942A36BD
:1046E00020E030E045EA5CE26BEA75E085E00E949C
:1046F00075E761E08EE995E00E9453E48FE695E06E
:104700000E9457C80F94B944609314087093150819
:1047100080931608909317088091ED17882329F24B
:10472000BECF0E9440E789E496E00E9457C80C94EF
:1047300099330091791510917A15D8012D913D91F9
:104740004D915C916091E9097091EA098091EB09C2
:104750009091EC090F94526FAB01BC0188E50E9467
:104760004D9369837A838B839C83F80124813581FF
:10477000468157816091ED097091EE098091EF09B2
:104780009091F0090F94526FAB01BC0189E50E9432
:104790004D936D837E838F839887BE016B5F7F4FC0
:1047A000CE0101960E941890882311F40C9499333D
:1047B00080E00E9490E90E940E6C61E085E40E9416
:1047C0005A95182F21E0482FBE016B5F7F4FCE0115
:1047D00001960E94C4FF6B017C019B01AC010F9408
:1047E0000172811119C049815A816B817C818BE6EC
:1047F00096E00F94EC4F4D815E816F81788586E65F
:1048000096E00F94EC4FB701A60181E696E00F9475
:10481000EC4F8AE00E94A2380E94F56B113011F42F
:104820000F9421140E94966E0C9499338091020883
:10483000833010F40C94993389E40E948CE1E82EC3
:10484000882321F00E9404E1082F01C000E08AE4DF
:104850000E948CE1F82E882321F00E9404E1182F99
:1048600001C010E0EE2011F0053020F4FF2041F0EF
:10487000153030F083E796E00F94584F0C9499333D
:1048800080E1E9EEF9E0A0E6B1E101900D928A95B0
:10489000E1F7EE2019F1602F000F770B880B990BD1
:1048A0000F94766820914B1130914C1140914D112D
:1048B00050914E110F94D56820915311309154119D
:1048C00040915511509156110F94526F60936011A1
:1048D000709361118093621190936311FF2019F11D
:1048E000612F110F770B880B990B0F94766820912D
:1048F0004F113091501140915111509152110F941C
:10490000D56820915711309158114091591150910B
:104910005A110F94526F60936411709365118093D4
:1049200066119093671160E080E50E945A95882394
:10493000C1F1EE20D1F0E0917915F0917A15208146
:104940003181428153816091601170916111809138
:104950006211909163110F94516F60936011709385
:1049600061118093621190936311FF20D1F0E09167
:104970007915F0917A1524813581468157816091AE
:1049800064117091651180916611909167110F9477
:10499000516F6093641170936511809366119093C9
:1049A000671140E050E0BA0186E40E944D936B012C
:1049B0007C0120E030E0A9010F94797118164CF4C5
:1049C00020E030E040E752E4C701B6010F942E70BA
:1049D00003C060E070E0CB0169837A838B839C83A2
:1049E000CE0101960E94736D0C9499338FE08093F1
:1049F000E9040C94993380910209882359F1893094
:104A000011F00C94993363E9A62E64E0B62E79EE8A
:104A1000C72E79E0D72E00E010E0F12CD5018D9162
:104A20005D010E948CE1882369F0B3E0FB1202C0B3
:104A300011E001C001E00E9407E1F601608371838B
:104A400082839383F394F4E0CF0ED11C24E0F2121E
:104A5000E5CF44C043E9C42E44E0D42E59EEE52E00
:104A600059E0F52E00E010E0212CD6018D916D016A
:104A70000E948CE1882359F10E9407E14B015C01FF
:104A8000F70120813181428153810F94516F2B01B5
:104A90003C012DEB37E346E855EB0F94797187FD28
:104AA0000AC02DEB37E346E855E3C301B2010F948A
:104AB0007068181664F4F3E02F1202C011E001C010
:104AC00001E0D7018D929D92AD92BC9213972394F1
:104AD000B4E0EB0EF11CE4E02E12C7CF002319F076
:104AE0000E94946E06C0112321F085EF99E00E9488
:104AF000D2780E94966E0C9499330E94BEE00C947A
:104B0000993380910309909104098837910509F43C
:104B1000E2C708F017C18D34910509F44CC408F0C0
:104B200093C08A31910509F475C370F584319105FC
:104B300009F4AEC278F48131910509F495C228F4E4
:104B4000029708F447C20C948233429709F489C64D
:104B50000C9482338731910509F4DBC248F4853126
:104B6000910509F4C6C2469709F4C7C20C94823372
:104B70008831910509F4E4C2499711F00C9482330D
:104B80000E9439F10C9499338032910509F4CDC318
:104B9000E8F58D31910509F4B1C380F48B319105AD
:104BA00009F446C34C9711F00C94823380911A0596
:104BB00090911B050E94D3F80C9499338E31910586
:104BC00009F4A3C34F9711F00C9482330E94A58679
:104BD0006C8F7D8F8E8F9F8FBE016F5F7F4FCE0159
:104BE0004C960E94554E60E0CE0101960E9479BB22
:104BF0000F941150BE016F5F7F4F87E097E00F94D5
:104C000005508AE00E94A2380C94993389349105AA
:104C100009F4BAC360F48132910509F4B1C3C097B5
:104C200011F00C9482330F9440100C9499338B3410
:104C3000910509F4BCC38C34910511F00C948233B6
:104C40000E94F4860C9499338B36910509F4F0C4D4
:104C5000D0F58435910509F404C6E0F48135910559
:104C600009F4E2C530F48E34910509F4A8C30C941C
:104C700082338235910509F4EDC58335910511F034
:104C80000C9482338091E9048F7E80628093E904E2
:104C90000C9499338836910509F423C450F4853572
:104CA000910509F4E1C58C35910509F400C60C9411
:104CB00082338936910509F465C48A36910509F471
:104CC00074C40C9482338137910509F423C5D8F458
:104CD0008E36910509F4BBC458F48C36910511F455
:104CE0000C9499338D36910509F422C40C948233C7
:104CF0008F36910509F4C9C48037910511F40C94DD
:104D000099330C9482338537910509F471C668F4A0
:104D10008237910509F469C68337910511F00C9427
:104D200082330E94C4C50C9499338637910509F4E7
:104D300070C68737910511F00C9482330E94416F41
:104D40000C9499338139F1E09F0711F40C94F13000
:104D500008F08AC08D3C910509F4C1C7E8F58B398C
:104D6000910509F439C5E0F48D37910509F459C569
:104D700068F48937910511F00C9482331092BB07C7
:104D80001092BA070E9496860C9499338C3891053C
:104D900009F4E3C48139910509F4A4C60C94823363
:104DA000893C910509F459C750F48E3B910509F4EB
:104DB000F3C4883C910509F409C70C9482338B3CF9
:104DC000910509F46DC78C3C910511F00C94823368
:104DD0000E94E0F30C9499338C32A1E09A0711F40D
:104DE0000C94A42FF0F48D3D910509F4BFC750F445
:104DF000833D910509F476C78C3D910509F475C78B
:104E00000C9482338831E1E09E0711F40C940D2F4D
:104E10008232914011F00C9482330E9445C00C9470
:104E200099338F3221E0920711F40C94EE3068F43C
:104E30008D32A1E09A0711F40C94B92F8E32914073
:104E400011F40C94AB300C9482338033E1E09E0774
:104E500011F40C9439308039914011F00C94823364
:104E60000E94C1780C949933883F31E0930711F484
:104E70000C94F63108F055C0853AB1E09B0711F467
:104E80000C940D3118F58C39F1E09F0711F40C9456
:104E9000023168F4823931E0930711F40C94FB304D
:104EA0008A39914011F40C9499330C9482338D39E2
:104EB000B1E09B0711F40C946833843A914011F0EF
:104EC0000C9482330E9483930C949933853FF1E0D4
:104ED0009F0711F40C94F03178F4863E31E093078B
:104EE00011F40C948231843F914011F00C94823380
:104EF0000E9449700C949933863FB1E09B0711F4EE
:104F00000C94F331873F914011F00C94823361E0AF
:104F100083E50E945A9591E089270F94AC3A0C944E
:104F200099338335F3E09F0711F40C944E3318F551
:104F30008B3532E0930711F40C94153278F48C30F1
:104F4000B2E09B0711F40C9406328835924011F0C0
:104F50000C9482330E9427F00C9499338D3BF2E03D
:104F60009F0711F40C948C328E3B924011F40C94F8
:104F70008F320C948233873E33E0930711F40C9404
:104F80005133C8F48C36B3E09B0711F40C94993379
:104F9000803A934011F00C94823320911A0530919D
:104FA0001B0590910B16926090930B16C9010E94FD
:104FB000D3F80C949933883EF3E09F0711F40C94D6
:104FC0007F33893E934011F00C9482330E94075046
:104FD0000C94993380E50E948CE1882329F00F948A
:104FE00021106B017C0103C0C12CD12C760183E51B
:104FF0000E948CE1882361F00E9407E120E030E00C
:105000004AE754E40F94D5680F949B706B017C01C0
:105010000E94C17880911A0590911B05009721F09C
:1050200061E00E9479BB05C060E08CE996E00E94D7
:10503000CABA8091030990910409892B19F064E997
:1050400076E002C06CE876E020E030E04CE757E321
:1050500082E00E9475E740E0C701B6010E94793FF7
:105060000E94B6DF0C9499338091060984FF02C038
:105070000C9440368091080987FF02C00C9440369A
:1050800080910909837011F00C9440360C945C36C1
:1050900080910B1684FF25C087EC96E00F94584F43
:1050A00080910B1684FF17C080E396E10E946EA3E7
:1050B0008BE1E0E3F6E1DE01119601900D928A9515
:1050C000E1F760E070E0CE0101960E94ECFCCE01B9
:1050D00001960E94ACE288EB96E00F94584F0C9436
:1050E00099330F94115088ED96E00F94584F0C941B
:1050F00099330E94BEFB0C94993380910B1682FF6A
:1051000004C087FD02C00C9499330E94E8F70C9408
:105110009933E0911A05F0911B058081882329F0CD
:10512000803209F410823196F8CF60E080911A0540
:1051300090911B050E941FF9109292080C949933CC
:1051400083E50E948CE1882321F00E94E3E00E9425
:10515000F94F84E50E948CE18823A9F00E94E3E0E6
:105160006B017C010E94D986C0928D06D0928E067A
:10517000E0928F06F0929006CD28CE28CF2819F025
:1051800081E08093E8098091A2108823F9F080E003
:1051900090E0A0EAB1E489839A83AB83BC831C8E40
:1051A0001D8E1E8E1F8E18A219A21AA21BA200E02D
:1051B00010E020E0AE014F5F5F4FBE01645E7F4FA5
:1051C000CE0180960E9480E40C9499330E9462384C
:1051D000882381F00E9482F70E94853882ED96E054
:1051E0000E942AF71092901210929112109292122D
:1051F0001092931261E08DED9CE20E9453E445EA27
:105200005CE262EE76E085E00E94BBFF0E94B6DFC2
:105210000C94993380910B1684FD02C00C94993341
:1052200083E50E948CE181110C946A360C949933C9
:105230008091060990910709A0910809B091090988
:1052400032E0B695A795979587953A95D1F780FF67
:105250002CC088EF96E00F94584F809177178823E1
:10526000D9F0BE016F5F7F4F84E797E10F94CD388F
:10527000CE0101960E947DC6CE0101960E94A6F83D
:1052800080919F14882361F080E20E94A2388FE908
:1052900094E10E947DC604C08EEE96E00F94584FB4
:1052A0008AE00E94A2380C94993383E50E948CE135
:1052B000882301F10E94F3E0182F8D3308F08CE36E
:1052C0008093E9140F94B9446B017C01212F30E0E5
:1052D000A8EEB3E00F94FA6EC60ED71EE81EF91EB4
:1052E000C092E514D092E614E092E714F092E8142C
:1052F0000C9499330E94C5F60C94993380910B1647
:105300008E7F80930B160C94993380910B1684FD3D
:1053100002C00C9499330E942DE080911A0590915F
:105320001B050E9479FC0C94993380910B1682FF27
:1053300003C087FF0E94C17880910B1684FD02C0D4
:105340000C94993360E080E50E945A95182F682FDD
:1053500080911A0590911B050E941FF983E50E9418
:105360008CE1882321F00E94E3E00E94F94F0E9423
:1053700082F711110C9499330E9485380C9499335B
:105380000E94344F0C94993380E50E943EE18823BB
:1053900011F40C9499330E94F3E090E08536910566
:1053A00010F084E690E0809392080C9499330E9468
:1053B00085380C9499330E9497380C94993360E0A7
:1053C00070E083E50E9464938E34910531F40E946D
:1053D000A0740E94B6DF0C94993382E797E00F9493
:1053E000584F6091AA077091AB0789E697E00F9438
:1053F000E34F6091AC077091AD078CE597E00F9497
:10540000E34F6091AA077091AB078091AC07909130
:10541000AD07681B790B8091E809815021E030E0ED
:10542000823010F020E030E0621B730B81E597E0E2
:105430000F94E34F8AE00E94A23889E497E00F942A
:10544000584F8091AE079091AF07A091B007B091EF
:10545000B1078C8F9D8FAE8FBF8FBE016F5F7F4F67
:10546000CE014C960E94554EBE016F5F7F4F8CE37C
:1054700097E00F9405508091B2079091B307A091E7
:10548000B407B091B5078C8F9D8FAE8FBF8FBE01D3
:105490006F5F7F4FCE014C960E94554EBE016F5FED
:1054A0007F4F8CE297E00F94055020E030E04AE710
:1054B00054E46091B6077091B7078091B807909156
:1054C000B9070F942E70AB01BC0184E197E00F94F3
:1054D000EC4F8DE60E94A2388AE00E94A2380C941C
:1054E000993380913C1083FF02C00C9499330E9441
:1054F0005CEC87FF02C00C94993389E40E948CE134
:10550000882311F40C946F360E94F3E090E0181693
:10551000190614F481E090E026E0289FF001299F0D
:10552000F00D1124EE58F74E808191810C9476365F
:1055300080913C1083FF02C00C9499330E945CEC74
:10554000F82E87FF02C00C94993389E40E948CE105
:10555000082F882311F40C947F360E94F3E090E02A
:105560001816190614F481E090E026E0289FF00157
:10557000299FF00D1124EE58F74E8081918110E0A3
:105580000C948C360E945CEC182F87FF02C00C94A0
:105590009E3385E997E00F94584F812F0E94D9A33D
:1055A0008AE00E94A2380C949E3360E080E50E945D
:1055B000C691F82E31E0381710F40C94993380918D
:1055C000060980FF05C06091270A062F10E002C07F
:1055D0000FEF10E089E40E948CE1882399F00E948B
:1055E000F3E090E01816190614F481E090E026E04C
:1055F000289FF001299FF00D1124EE58F74E0481E9
:10560000158108C083E50E948CE1882319F00E946F
:10561000E3E08B01EF2DF0E0E95DF54FB8010F3FBE
:10562000110519F010F06FEF70E060830C9499335E
:1056300060E080E50E94C691823010F00C949933AE
:10564000E82FF0E0E95DF54F10820C9499338EE479
:105650000E948CE1882311F40C9499330E94E3E0BA
:10566000E0917302A2E6EA9FF0011124EA52FD4F95
:10567000E081B7E6EB02F0011124E65FF64F6083AC
:105680007183828393830C94993383E50E943EE176
:10569000882331F060E083E50E94C69180933C103E
:1056A0000F94115086EA97E00F94584F80913C1068
:1056B000882369F12CE9E22E27E0F22E00E010E0C9
:1056C00020E080913C1090E0A0E0B0E0002E04C00B
:1056D000B695A795979587950A94D2F780FF0EC047
:1056E000DD24D394D20E222319F08CE20E94A2383A
:1056F000F701859194910F94584F2D2D0F5F1F4FF7
:10570000E2E0EE0EF11C05301105D9F6C9CD88E9AD
:1057100097E0C4CD83E50E948CE1882379F00E9454
:10572000F3E0282F30E02D33310524F4809300027C
:105730000C9499338CE380930002FBC70F941150B3
:10574000109100028DEA97E00F94584F812F0F942B
:10575000564F8AE00E94A238ECC780913C1083FD2E
:10576000E8C789E40E948CE1882311F40C94BC36CC
:105770000E94F3E090E01816190614F481E090E01E
:1057800026E0289FF001299FF00D1124EE58F74ED6
:10579000828193810C94C43680913C1083FDC9C7EB
:1057A00089E40E948CE1882311F40C94CB360E948A
:1057B000F3E090E01816190614F481E090E026E07A
:1057C000289FF001299FF00D1124EE58F74E828199
:1057D000938110E00C94D93683E50E948CE18823F4
:1057E00009F4A7C70E94F3E0182F8D3308F08CE36B
:1057F00080930D150F94B9446B017C01212F30E08B
:10580000A8EEB3E00F94FA6EC60ED71EE81EF91E7E
:10581000C0920915D0920A15E0920B15F0920C1562
:1058200088C70E9439F185C70E94BDA80E942F7ABF
:105830000E9497380E949A3868EE73E080E090E00A
:105840000F94344F0E949F3860E082ED97E00E94F1
:10585000CABA6FC78091E9048F7D80618093E904A3
:1058600068C70E94C1F265C783E50E943EE18823B4
:1058700009F45FC70F94B944609314087093150836
:1058800080931608909317080E9407E120E030E00B
:105890004AE754E40F94D5680F949B706093E40436
:1058A0007093E5048093E6049093E70442C70E9456
:1058B0005CEC87FD3EC79091060994FD04C0909171
:1058C000080997FF0AC083E9C82E84E0D82E9DE31B
:1058D000E92E90E1F92E10E009C09091090993702A
:1058E00091F7682F81E00E9421F323C7D6018D91A3
:1058F0006D010E948CE1882309F46DC0133009F01A
:1059000063C00E9407E14B015C0120E030E040EA07
:1059100051E40F94706887FF4EC0A5019401609117
:105920005D1070915E1080915F10909160100F94E7
:105930002E702B013C019B01AC0160910B0A709110
:105940000C0A80910D0A90910E0A0F94D56860930D
:105950000B0A70930C0A80930D0A90930E0AA30110
:10596000920160916D1070916E1080916F10909106
:1059700070100F94D56860936D1070936E108093C3
:105980006F109093701060911B0A70911C0A8091A7
:105990001D0A90911E0A0F947468A30192010F943E
:1059A000D5680F949B7060931B0A70931C0A8093B8
:1059B0001D0A90931E0A80925D1090925E10A09234
:1059C0005F10B092601007C00E9407E1F701648B7E
:1059D000758B868B978B1F5FF4E0EF0EF11C1430F4
:1059E00009F084CF0E944776A4C60E948BC6A1C648
:1059F00080911A0590911B05009741F0DC012C91D4
:105A0000222321F060E00E9479BB93C60E94B6DF9A
:105A100090C600911A0510911B0524E08FEFF12C20
:105A200030E0215029F1F8019081492F4B7F41341A
:105A300021F441814133E1F408C09035C9F49181EA
:105A400090539A30A8F4892F08C0913421F09534EE
:105A500021F431E002C0FF24F394A8014E5F5F4FB0
:105A60008A014F5F5F4FF80190819032C9F3D9CF1F
:105A70004091FB15833090F4882391F02FEF280F8D
:105A8000283080F481E090E0A0E0B0E004C0880F0E
:105A9000991FAA1FBB1F2A95D2F705C0842F03C0E8
:105AA0008FEF01C080E06BEF75E17A8369834B83F0
:105AB0008093FB1531110F941150FF2021F080EEDF
:105AC00097E00F94584FC8010E9412C8CE0101966A
:105AD0000F9414502EC62093BB072093BA070E9440
