:100000000C94E51B0C94161C0C94161C0C94161CDA
:100010000C94161C0C94161C0C94161C0C94161C98
:100020000C94161C0C94161C0C94161C0C94161C88
:100030000C94161C0C94161C0C94161C0C94161C78
:100040000C94161C0C94E9E70C94161C0C94161CCA
:100050000C94161C0C94161C0C94EAA10C94628E41
:100060000C94161C0C94D4390C94C0390C94161CA6
:100070000C94161C0C94161C0C94161C0C94161C38
:100080000C94161C0C94161C0C94161C0C94161C28
:100090000C94E0380C94CA390C94161C0C94161C61
:1000A0000C94161C0C94161C0C94161C0C94161C08
:1000B0000C94161C0C94161C0C94161C0C94161CF8
:1000C0000C94161C0C94161C0C94161C0C94161CE8
:1000D0000C94161C0C94161C0C94161C0C94161CD8
:1000E0000C94161C0F392139333944394C397B397A
:1000F00050397B39543958397B395C396039643926
:100100006C397B397639033A153A273A383A403A0E
:100110006F3A443A6F3A483A4C3A6F3A503A543A46
:10012000583A603A6F3A6A3A5678597848784C7833
:10013000507890785D78617867786B786F787578AB
:1001400079787D789078837887788B78AA79AF7979
:10015000B479BE79C879417AD279DA79E279EC79E1
:10016000F679007A0F7A197A417A237A2D7A377ADA
:100170006C018A0134015C0156012A01500182019F
:100180006401240130019201800138016A013A01C1
:100190006A016A016A016A016A016A016A016A0107
:1001A0006A016A016A016A016A016A016A016A01F7
:1001B0006A016A016A016A016A016A016A016A01E7
:1001C0006A016A014A016A016A016A016A016A01F7
:1001D0006A016A016A0172016A016A016A016A01BF
:1001E0006A016A016A016A016A016A012C012E0131
:1001F000084AD73B3BCE016E84BCBFFDC12F3D6C8E
:1002000074319ABD56833DDA3D00C77F11BED9E4F3
:10021000BB4C3E916BAAAABE000000803F05A84CD3
:10022000CDB2D44EB93836A9020C50B9918688089F
:100230003CA6AAAA2ABE000000803F000D940F032E
:100240000D942D100D9415100D9453110D9435101F
:100250000D9404050D9437110D94A0130D940712FD
:100260000D9440110D94D2040D9431110D94191078
:100270000D94D1110D9489130D9421100D94A00E9D
:100280000D9417040D940A030D94C70D0D942A05BF
:100290000D9461110D9483130D94F9020D942604AD
:1002A0000D943A110D941D100D9439100D943411C4
:1002B0000D940A040D945B110D9458110D941A1DA0
:1002C0000D9445040D94EB040D943D110D942104FF
:1002D0000D94B9040D940A120D9455110D941C043B
:1002E0000D9411100D945C130D9431100D945E114A
:1002F0000D9412040D943A1D0D9464060D9429106A
:100300000D944D130D9446110D9425100D94040376
:100310000D942E0D0D942E110D949C0C0D941D0515
:100320000D941C1D0D9443114E414E494E49545994
:10033000494E46CDCCCC3D0AD7233C17B7D13877B0
:10034000CC2B329595E6241FB14F0A0000204100C6
:1003500000C84200401C4620BCBE4CCA1B0E5AAE10
:10036000C59D7400407A10F35A00A0724E1809001F
:1003700010A5D4E80000E87648170000E40B54020A
:100380000000CA9A3B000000E1F505000080969845
:1003900000000040420F000000A086010000001095
:1003A0002700000000E803000000006400000000D7
:1003B000000A00000000000100000000002C76D8B8
:1003C00088DC674F0823DFC1DFAE59E1B1B796E59E
:1003D000E3E453C63AE651997696E8E6C28426EB02
:1003E000898C9B62ED407C6FFCEFBC9C9F40F2BA15
:1003F000A56FA5F490055A2AF75C936B6CF9676DAD
:10040000C11BFCE0E40D47FEF520E6B500D0ED9001
:100410002E0300943577050080841E080000204ECE
:100420000A000000C80C333333330F986E12831167
:1004300041EF8D2114893BE65516CFFEE6DB18D13E
:10044000844B381BF77C1D901DA4BBE42420328410
:10045000725E228100C9F124ECA1E53D27434F4D96
:100460004D554E49434154494F4E004452595255FF
:100470004E004552524F525300494E464F0045439D
:10048000484F0047322F4733206261642070617209
:10049000616D65746572730A0047322F47332062BD
:1004A000616420706172616D65746572730A0053D6
:1004B0006C6565702E2E2E00486F6D6520257325A6
:1004C000732573204669727374004D302053746F26
:1004D00070004D312053746F7000436C69636B2062
:1004E000746F20526573756D652E2E2E004E6F2031
:1004F0004D6F76652E00456E642066696C65206CD4
:100500006973740A00426567696E2066696C6520CC
:100510006C6973740A004E6F206D656469610A002E
:10052000526573756D696E6720534400286E6F20A5
:1005300066696C65290043757272656E7420666920
:100540006C653A20005344207072696E74696E675E
:10055000206279746520004E6F74205344207072BD
:10056000696E74696E670A0043616E6E6F74206F06
:1005700070656E2073756264697220005072696ED6
:10058000742074696D653A20000A53746174733A7B
:100590002046696C616D656E7420757365643A20E0
:1005A000002C204C6F6E67657374206A6F623A206E
:1005B00000546F74616C2074696D653A2000537447
:1005C0006174733A20002C204661696C65643A209E
:1005D000002C2046696E69736865643A2000507289
:1005E000696E74733A200053746174733A20004347
:1005F0006F6F6C696E672E2E2E0048656174696E90
:10060000672E2E2E0045202553006F6B006F666607
:10061000007E04790472046B045D0444454255472E
:100620003A004D31313320530043522D31302056A2
:1006300033204F46462E002F2F004D3134352053A6
:100640003C696E6465783E206F7574206F66207219
:10065000616E67652028302D31290A002052004143
:100660006363656C65726174696F6E3A2050002037
:10067000204D61783A2000200020204D696E3A20FC
:1006800000536F667420656E6473746F70733A20E4
:100690000046523A0020466C6F773A200020643AB8
:1006A0000020693A0020703A00496E76616C6964F6
:1006B0002065787472756465720A0020643A0020BF
:1006C000693A0020703A0064697300656E0043293E
:1006D0000A0061626C656420286D696E2074656D26
:1006E000702000436F6C6420657874727564657364
:1006F00020617265200046696C616D656E742072C0
:10070000756E6F75742064697374616E63652028FB
:100710006D6D293A200046696C616D656E742072BA
:10072000756E6F75742000454550524F4D204F4BEC
:100730000A004F4646004F4E00506F7765722D6C91
:100740006F7373207265636F7665727920004D3820
:100750003400446F6E65207072696E74696E672034
:1007600066696C650A004D3737004D333100496EBC
:1007700076616C69642065787472756465720A00CC
:100780004572726F722077726974696E6720746F38
:1007900020454550524F4D210A0053544F5050456B
:1007A000442E20005072696E7465722073746F70ED
:1007B0007065642064756520746F206572726F7255
:1007C000732E2046697820746865206572726F7296
:1007D00020616E6420757365204D39393920746F3E
:1007E00020726573746172742E202854656D706573
:1007F0007261747572652069732072657365742EF9
:100800002053657420697420616674657220726576
:100810007374617274696E67290A004E6F204368B1
:1008200065636B73756D2077697468206C696E659C
:10083000206E756D6265722C204C617374204C695A
:100840006E653A20004E6F20436865636B73756D6B
:100850002077697468206C696E65206E756D6265BD
:10086000722C204C617374204C696E653A200063D1
:100870006865636B73756D206D69736D6174636812
:100880002C204C617374204C696E653A20004C69D1
:100890006E65204E756D626572206973206E6F748F
:1008A000204C617374204C696E65204E756D6265D5
:1008B000722B312C204C617374204C696E653A2088
:1008C000004D3131300053657269616C2073746181
:1008D000747573206D69736D617463680A005344A5
:1008E0002072656164206572726F720A0021212096
:1008F0004B494C4C20636175736564206279204BD1
:10090000494C4C20627574746F6E2F70696E0A00CA
:100910002121204B494C4C20636175736564206232
:100920007920746F6F206D75636820696E616374E0
:100930006976652074696D65202D20637572726516
:100940006E7420636F6D6D616E643A200062757322
:10095000793A2070617573656420666F7220696EE4
:100960007075740A00627573793A207061757365E9
:100970006420666F7220757365720A006275737900
:100980003A2070726F63657373696E670A004D6514
:100990006469612052656D6F766564004D656469B8
:1009A0006120496E736572746564004D313030307A
:1009B00053007061757365004D36303000206669F4
:1009C0006C616D656E745F72756E6F757420006614
:1009D000696C616D656E745F72756E6F75742054AD
:1009E0000046696C616D656E7452756E6F7574202A
:1009F000540023646566696E652044454641554C44
:100A0000545F00626564004B6420004B6920004B1A
:100A1000702000504944204175746F74756E6520D4
:100A200066696E6973686564212050757420746806
:100A300065206C617374204B702C204B6920616EB3
:100A400064204B6420636F6E7374616E74732066F0
:100A5000726F6D2062656C6F7720696E746F2043D2
:100A60006F6E66696775726174696F6E2E680A00D1
:100A7000504944204175746F74756E6520666169D4
:100A80006C6564212074696D656F75740A00504946
:100A900044204175746F74756E65206661696C657C
:100AA00064212054656D706572617475726520747F
:100AB0006F6F20686967680A00204B643A20002045
:100AC0004B693A2000204B703A200020436C617340
:100AD00073696320504944200A00204E6F206F76CE
:100AE000657273686F6F740A002054753A20002095
:100AF0004B753A2000206D61783A2000206D696EB8
:100B00003A200020643A200020626961733A200094
:100B1000504944204175746F74756E65207374611B
:100B200072740A00504944204175746F74756E6583
:100B3000206661696C6564212054656D7065726121
:100B40007475726520746F6F20686967680A005059
:100B50004944204175746F74756E65005049442096
:100B60004175746F74756E65206661696C6564218A
:100B700020426164206865617465722069640A00BE
:100B80004572723A207574663820666F6E74206EF6
:100B90006F7420696E697469616C697A65642E008E
:100BA0004572723A207574663820666F6E74206ED6
:100BB0006F7420696E697469616C697A65642E006E
:100BC0004572723A207574663820666F6E74206EB6
:100BD0006F7420696E697469616C697A65642E004E
:100BE000000C0F00FE07022503BB017FFE08FE0874
:100BF000FE05080806000040F0C8888898781005AF
:100C00000808060000C0F88888888888F805050567
:100C10000600012030F8302005080806000020708A
:100C2000F820202020E00509090600FF2070A8A870
:100C3000B888887020070505070001D86C366CD885
:100C40000509090600FFF8A88888888888A8F8059B
:100C50000A0A0600FE205050505088A8A888700349
:100C6000030306000340A040FFFFFFFFFFFFFFFF5D
:100C7000FFFFFFFFFFFFFFFFFFFFFFFFFFFF000082
:100C8000000605FF010707060200808080808000C3
:100C900080030303060105A0A0A0050606060000C8
:100CA00050F85050F8500509090600FF2070A8A020
:100CB0007028A87020050707060000C8C81020404B
:100CC000989805070706000040A0A040A89068017A
:100CD00003030602058080800309090601FF204006
:100CE000408080804040200309090601FF80404089
:100CF00020202040408005070706000020A8702023
:100D000070A8200505050600012020F82020020318
:100D1000030601FFC04080050101060003F802023E
:100D200002060100C0C005070706000008101020D9
:100D3000404080050707060000708898A8C88870A2
:100D400003070706010040C040404040E005070798
:100D5000060000708808102040F80507070600000C
:100D6000F80810300888700507070600001030509A
:100D700090F81010050707060000F880F0080888B2
:100D800070050707060000304080F088887005076E
:100D900007060000F80810102020200507070600AD
:100DA00000708888708888700507070600007088C2
:100DB0008878081060020505060100C0C000C0C0A8
:100DC0000206060601FFC0C000C0408003050506FC
:100DD00001012040804020050303060002F800F8CE
:100DE0000305050601018040204080050707060035
:100DF000007088102020002005070706000070887A
:100E0000B8A8B88070050707060000708888F888C1
:100E10008888050707060000F04848704848F00534
:100E20000707060000708880808088700507070625
:100E30000000F04848484848F0050707060000F859
:100E40008080F08080F8050707060000F88080F0B9
:100E50008080800507070600007088808098887071
:100E6000050707060000888888F888888803070730
:100E7000060100E04040404040E005070706000052
:100E8000381010101090600507070600008890A029
:100E9000C0A09088050707060000808080808080C1
:100EA000F805070706000088D8A8888888880507FD
:100EB000070600008888C8A89888880507070600E4
:100EC0000070888888888870050707060000F08809
:100ED00088F080808005070706000070888888A851
:100EE0009068050707060000F08888F0A090880544
:100EF00007070600007088807008887005070706DD
:100F00000000F82020202020200507070600008888
:100F10008888888888700507070600008888888880
:100F200050502005070706000088888888A8A85028
:100F300005070706000088885020508888050707A5
:100F400006000088885020202020050707060000A2
:100F5000F80810204080F80309090601FFE08080AE
:100F60008080808080E005070706000080404020E8
:100F70001010080309090601FFE02020202020208E
:100F800020E0050303060005205088050101060046
:100F9000FEF8030303060105804020050505060051
:100FA0000070087888780507070600008080F088C0
:100FB0008888F005050506000070808088700507A8
:100FC0000706000008087888888878050505060067
:100FD000007088F08070050707060000304840E088
:100FE0004040400507070600FE7088888878087032
:100FF0000507070600008080F088888888030707B7
:101000000601004000C0404040E00409090601FE1E
:1010100010003010101010906005070706000080C7
:10102000808890E09088030707060100C040404098
:101030004040E0050505060000D0A8A8A8A80505C1
:1010400005060000B0C88888880505050600007000
:10105000888888700507070600FEF0888888F08079
:10106000800507070600FE78888888780808050547
:1010700005060000B0C880808005050506000078E0
:10108000807008F00507070600002020F8202020C7
:101090001805050506000088888898680505050676
:1010A000000088888850200505050600008888A86B
:1010B000A850050505060000885020508805070740
:1010C0000600FE888888502040800505050600003F
:1010D000F8102040F80309090601FF204040408035
:1010E000404040200109090602FF80808080808006
:1010F0008080800309090601FF8040404020404075
:10110000408005030306000248A890FF4469666614
:101110003A2020200046726F6D5374703A00537469
:1011200065707065723A005261773A202020200085
:101130000A4C6F676963616C3A00436F756E742087
:10114000453A004361703A004D4541545041434B8C
:1011500000434F4F4C45525F54454D50455241540A
:10116000555245004348414D4245525F54454D500C
:1011700045524154555245004241425953544550FD
:1011800050494E470041524353004D4F54494F4E32
:101190005F4D4F44455300544845524D414C5F50BC
:1011A000524F54454354494F4E004C4F4E475F46B3
:1011B000494C454E414D45004155544F5245504FC5
:1011C00052545F53445F5354415455530053445F4A
:1011D00057524954450052455045415400534443E9
:1011E0004152440050524F4D50545F535550504F50
:1011F000525400454D455247454E43595F50415268
:1012000053455200434153455F4C494748545F4260
:1012100052494748544E45535300544F47474C4555
:101220005F4C494748545300534F46545741524529
:101230005F504F574552004255494C445F5045520C
:1012400043454E54004C4556454C494E475F44413A
:101250005441005A5F50524F42450052554E4F552F
:1012600054004155544F4C4556454C005052494E40
:10127000545F4A4F420050524F475245535300412A
:1012800055544F5245504F52545F54454D5000569F
:101290004F4C554D455452494300454550524F4DD2
:1012A0000042494E4152595F46494C455F545241B4
:1012B0004E534645520053455249414C5F584F4E9C
:1012C0005F584F4646004649524D574152455F4E82
:1012D000414D453A4D61726C696E20322E302E3888
:1012E0002E302D46695A692D313135323030202863
:1012F0004D617920203120323032312031343A347E
:10130000333A35312920534F555243455F434F44BB
:10131000455F55524C3A6769746875622E636F6D0C
:101320002F4D61726C696E4669726D776172652FBF
:101330004D61726C696E2050524F544F434F4C5F59
:1013400056455253494F4E3A312E30204D41434875
:10135000494E455F545950453A43522D313020563D
:10136000332045585452554445525F434F554E54CF
:101370003A3120555549443A6365646532613266B5
:101380002D343161322D343734382D396231322DDC
:101390006335356336326633363766660A00526522
:1013A00073656E643A20002569730025696D2025F8
:1013B0006973002569682025696D202569730025FA
:1013C0006964202569682025696D202569730025D9
:1013D000697920256964202569682025696D2025A3
:1013E00069730020573A0042656420436F6F6C694F
:1013F0006E672E2E2E004265642048656174696E0A
:10140000672E2E2E0052756E6F75742044697374AA
:10141000206D6D004C6F6164206D6D00556E6C6FBA
:101420006164206D6D0046696C2E204469612E0058
:101430004520696E206D6D5E33004D33303320558D
:1014400031204525692053256900504944204175C4
:10145000746F74756E65202A005049442D44202A0B
:10146000005049442D49202A005049442D50202A3B
:101470000020082046616374002008204D61780038
:101480002008204D696E004F6666004F6E00417562
:10149000746F74656D700024F4D43050C38E20C214
:1014A000A24017828B7011127A910D816CD90AA813
:1014B00061E108C7586607615143061E4B5D05C1CF
:1014C00045A7041A411104093D98037139310340BD
:1014D00036DB0265339102D4305402802E1D026344
:1014E0002CEE01752AC501B028A001102781018FBB
:1014F0002564012B244B01E0223401AC211F018D16
:10150000200D01801FFC00841EED00971DDF00B838
:101510001CD200E61BC600201BBC00641AB200B23D
:1015200019A8000A19A0006A189900D11791004063
:10153000178B00B516840031167E00B31579003A7A
:10154000157300C7146F0058146A00EE1366008804
:1015500013630025135E00C7125B006C1257001561
:10156000125400C111510070114F0021114B00D6CF
:101570001049008D1047004610440002104200C080
:101580000F4000800F3E00420F3C00060F3B00CB97
:101590000E3800930E37005C0E3500270E3400F332
:1015A0000D3200C10D3100900D3000600D2E003263
:1015B0000D2D00050D2C00D90C2B00AE0C2900853B
:1015C0000C29005C0C2700350C27000E0C2600E8C7
:1015D0000B2400C40B2400A00B23007D0B23005A16
:1015E0000B2100390B2100180B2000F80A1F00D92D
:1015F0000A1E00BB0A1E009D0A1D00800A1D006312
:101600000A1C00470A1B002C0A1B00110A1A00F7CB
:10161000091A00DD091900C4091900AB0919009263
:101620000917007B091800630917004C09160036DA
:10163000091600200916000A091500F5081500E032
:10164000081400CC081400B8081400A40814009072
:101650000813007D0812006B08130058081200469A
:1016600008120034081100230811001208110001AB
:10167000081100F0071000E0071000D0071000C0AC
:10168000071000B0070F00A107100091070E00839C
:10169000070F0074070F0065070E0057070E00497B
:1016A000070E003B070D002E070E0020070D00134C
:1016B000070D0006070D00F9060C00ED060D00E011
:1016C000060C00D4060C00C8060C00BC060C00B0CA
:1016D000060C00A4060B0099060C008D060B008278
:1016E000060B0077060B006C060B0061060A00571C
:1016F000060B004C060A0042060A0038060A002EB5
:10170000060A0024060A001A060A00100609000745
:10171000060A00FD050900F4050900EB050900E2D1
:10172000050900D9050900D0050900C7050900BE53
:10173000050900B5050800AD050800A50509009CD0
:10174000050800940508008C050800840508007C45
:10175000050800740508006C050700650508005DB4
:10176000050700560508004E05070047050700401D
:1017700005080038050700310507002A0507002382
:101780000507001C050600160507000F05070008E1
:1017900005060002050700FB040600F5040700EE3D
:1017A000040600E8040600E2040700DB040600D596
:1017B000040600CF040600C9040600C3040600BDE9
:1017C000040600B7040600B1040500AC040600A638
:1017D000040600A00405009B040600950405009083
:1017E0000406008A04050085040500800406007ACA
:1017F00004050075040500700405006B040500660F
:10180000040500610405005C04050057040500524E
:101810000405004D04050048040500430405003E8E
:101820000404003A04050035040500300404002CCB
:1018300004050027040400230405001E0404001A04
:1018400004040016040500110404000D040400093A
:101850000405000404040000040400FC030400F870
:10186000030400F4030400F0030400EC030400E8A4
:10187000030400E4030400E0030400DC030400D8D4
:10188000030400D4030400D0030400CC030400C804
:10189000030300C503030024F404D9201BC40C5C1B
:1018A0000E9804C4095F0265077101F405F900FB95
:1018B00004B30048048700C10369005803550003BE
:1018C000034500BE023A008402310053022A002977
:1018D00002250004022000E4011C00C8011900AF29
:1018E00001170098011400840113007101100061B8
:1018F00001100051010E0043010D0036010B002BB9
:10190000010B0020010B00150109000C0109000367
:10191000010800FB000800F3000800EB000700E4EA
:10192000000600DE000600D8000600D2000600CC4B
:10193000000500C7000500C2000500BD000400B995
:10194000000400B5000400B1000400AD000400A9CB
:10195000000400A5000300A20003009F0004009BF8
:10196000000300980003009500020093000300901C
:101970000003008D0002008B000300880002008637
:1019800000020084000300810002007F0002007D4D
:101990000002007B0002007900020077000100765F
:1019A0000002007400020072000100710002006F6A
:1019B0000002006D0001006C0002006A0001006975
:1019C000000200670001006600010065000100647C
:1019D0000002006200010061000100600001005F80
:1019E0000002005D0001005C0001005B0001005A84
:1019F0000001005900010058000100570001005685
:101A00000001005500010054000100530000005384
:101A10000001005200010051000100500001004F80
:101A20000001004E0000004E0001004D0001004C7E
:101A30000001004B0000004B0001004A000100497A
:101A40000001004800000048000100470001004676
:101A50000000004600010045000000450001004470
:101A6000000100430000004300010042000000426A
:101A70000001004100000041000100400001003F62
:101A80000000003F0001003E0000003E0001003D5C
:101A90000000003D0001003C0000003C0000003C54
:101AA0000001003B0000003B0001003A0000003A4A
:101AB0000001003900000039000100380000003842
:101AC0000000003800010037000000370001003638
:101AD000000000360000003600010035000000352F
:101AE0000000003500010034000000340000003424
:101AF0000001003300000033000000330001003219
:101B0000000000320000003200010031000000310E
:101B10000000003100010030000000300000003003
:101B20000001002F0000002F0000002F0000002FF8
:101B30000001002E0000002E0000002E0001002DEC
:101B40000000002D0000002D0000002D0001002CE1
:101B50000000002C0000002C0000002C0001002BD5
:101B60000000002B0000002B0000002B0001002AC9
:101B70000000002A0000002A0000002A00010029BD
:101B800000000029000000290000002900000029B1
:101B900000010028000000280000002800000028A4
:101BA0000000002800010027000000270000002797
:101BB000000000270000002700010026000000268A
:101BC000000000260000002600000026000100257D
:101BD0000000002500000025000000250000002571
:101BE0000000002500010024000000240000002463
:101BF0000000002400000024000100230000002356
:101C00000000002300000023000000230000002348
:101C1000000000230001002200000022000000223A
:101C2000000000220000002200000022000100212C
:101C30000000002100000021000000210000002120
:101C40000000002100000021000100200000002011
:101C50000000002000000020000000200000002004
:101C600000000020000000200001001F0000001FF5
:101C70000000001F0000001F0000001F0000001FE8
:101C80000000001F0001001E0000001E0000001EDA
:101C90000000001E000000393000003325000087DE
:101CA000190000B00F0000DB080000BD0400007444
:101CB0000200003F01000042656400456E636C6FE6
:101CC00073757265002568753A2530326875002590
:101CD000303268753A253032687500202020202087
:101CE00020200020202020001FE0201020102010A5
:101CF00010201020201020103030084004800300F5
:101D00001FE03FF03FF03FF01FE01FE03FF03FF0EB
:101D10003FF00FC0078003003FFFF038007030FC39
:101D20003020FC102078102030102C00D02E31D024
:101D30002F7BD02F7BD02E31D02C00D02030102004
:101D4000781020FC1030FC303800703FFFF03FFF6F
:101D5000F03800703186302387102787902F87D086
:101D60002F03D02030102078102078102030102F32
:101D700003D02F87D02787902387103186303800F3
:101D8000703FFFF01FFFF81FFFF80410400208200B
:101D90000208200410400820801041001041000873
:101DA00020800410400000001FFFF81FFFF8000013
:101DB00000001E000000002100000000271DC08C54
:101DC00000272121920041212092008E21CE9200F5
:101DD00090212092011021209201201D21CC02206F
:101DE0000000000410011300081001148010080105
:101DF0001080200400A30047F200A08043E20044CA
:101E000080200400430018D800000019840000005E
:101E100021FC0000003F00554E4C4F4144204649F4
:101E20004C414D454E54004C4F41442046494C4195
:101E30004D454E540046494C414D454E5420434873
:101E4000414E474500426564004E6F7A7A6C6500EA
:101E500046616E20537065656400436F6E66696706
:101E600075726174696F6E00526573746F7265206C
:101E700044656661756C7473004C6F6164205365D2
:101E80007474696E67730053746F72652053657460
:101E900074696E67730050726568656174202420F0
:101EA000436F6E6600506F776572204F757461677F
:101EB00065004F6666004F6E0052756E6F75742038
:101EC00053656E736F7200416476616E6365642062
:101ED00053657474696E6773004D61696E004D37A8
:101EE000303220542564004D3630302042302054AA
:101EF0002564004D373032203B2564004D373031AA
:101F000020542564004D373032004D373031004DBC
:101F1000363030204230004D61696E00436F6E7480
:101F2000696E7565004F6666004F6E0052756E6F84
:101F300075742053656E736F7200507572676520FB
:101F40006D6F726500524553554D45204F505449B1
:101F50004F4E533A005052494E542050415553452C
:101F6000440020204E6F7A7A6C653A200050455428
:101F70004700504C410000000A0B02090C0D0E08EE
:101F80000703040100000000000000000000000042
:101F90000000000000000000000000000000000041
:101FA00000001211100000000000000000000000FE
:101FB000000000000000000000000000004D6F76EF
:101FC000652025736D6D004D6F766520302E316D67
:101FD0006D004D6F766520316D6D004D6F7665201B
:101FE00031306D6D004D6F76652041786973004525
:101FF00078747275646572004D6F7665205A004D75
:102000006F76652059004D6F7665205800721F6D00
:102010001F4368616E67652046696C616D656E740B
:1020200000556E6C6F61642046696C616D656E74FD
:10203000004C6F61642046696C616D656E74005080
:1020400072656865617420437573746F6D005072BA
:1020500065686561742024004261636B00436F6FA3
:102060006C646F776E00507265686561742024003F
:1020700046616E205370656564207E004265640091
:102080004E6F7A7A6C65004D61696E00466C6F77B1
:102090000046616E205370656564207E0042656471
:1020A000004E6F7A7A6C65005370656564004D610F
:1020B000696E00486F6D696E67204661696C656482
:1020C000006F70656E0054524947474552454400C1
:1020D0003A200066696C616D656E74007A5F6D69A7
:1020E0006E00795F6D696E00785F6D696E00526594
:1020F000706F7274696E6720656E6473746F7020A0
:102100007374617475730A000A4D3234004D3233B2
:10211000202573002E0A006F70656E206661696C61
:1021200065642C2046696C653A200046696C652020
:1021300073656C65637465640A002053697A653A57
:10214000200046696C65206F70656E65643A2000FA
:10215000454E4420535542524F5554494E450A006E
:102160002220706F73002220706172656E743A22B3
:1021700000535542524F5554494E452043414C4C13
:10218000207461726765743A220053756263616CF2
:102190006C204F766572666C6F7700457863656575
:1021A000646564206D617820535542524F555449FF
:1021B0004E452064657074683A002E0A0044656CD0
:1021C0006574696F6E206661696C65642C20466970
:1021D0006C653A200046696C652064656C657465C1
:1021E000643A002F6175746F25632E67005772691A
:1021F00074696E6720746F2066696C653A200066AA
:102200007265736800646F696E67002066696C654B
:102210003A20004E6F7720000000000000000060B0
:102220000000000000FC00000FF00000000007E0CC
:102230000000000001861FC0187000000000006050
:102240003C0C000001830C601030000000000060B6
:102250003C0C000001830C303030000000000060B6
:10226000000C000000030C183000000000000060AB
:10227000003F0F3C00030C0C6001DF0FE0FE00602C
:102280001C1C061800060C0C6000F318318300605B
:102290000C0C0318001E0C0C6000E0303983006049
:1022A0000C0C033000030C0C6000C030380F0060D1
:1022B0000C0C033000018C0C6000C03FF8FB006088
:1022C0000C0C033000018C0C6030C03001830060C6
:1022D0000C0C01F001818C0C6030C0300183006077
:1022E0000C0C00E001818C183030C0183183006084
:1022F0000C0C40E001838C301860C00C6187C0E09A
:102300001C0CC06000C30C600FC3F007C0FFC7FC0B
:102310007F0781C0007E1FC0000000000000000099
:1023200000000700000000000000000000000000A6
:1023300000000700000000006D61726C696E667736
:102340002E6F726700322E302E382E302D46695A8D
:10235000692D313135323030001FFFFFFFFFFFFFA5
:10236000600000000001FF400000000000FF80004E
:10237000000000007F83CF00000C303F87FF80000B
:102380000C301F867980000C000F8C30C7838C3096
:10239000E78C30CFC7CC31F38C30DCECEC33B98C2C
:1023A00030D86C6C33198C30D06C0C33198C30D81D
:1023B0006C0C33198C30DC6C0E3B198C30CF7C07E5
:1023C0009F198C30C77C038F194000000000000269
:1023D000600000000000061FFFFFFFFFFFF8700114
:1023E0002C0190012701B0012201C0011D01F00163
:1023F00018011002130130020E016002090190025F
:102400000401C002FF000003FA004003F50080034E
:10241000F000D003EB002004E6007004E100E004CB
:10242000DC004005D700C005D2004006CD00D00634
:10243000C8008007C3003008BE00F008B900C0091A
:10244000B400B00AAF00B00BAA00D00CA500000E7B
:10245000A000500F9B00C010960050129100001475
:102460008C00C0158700B0178200B0197D00D01B0A
:102470007800001E730040206E0090226900F02456
:10248000640040275F0090295A00E02B5500102E71
:10249000500020304B0010324600E03341009035B0
:1024A0003C001037370070383200A0392D00B03AA8
:1024B0002800A03B2300603C1E00103D1900903D09
:1024C0001400103E0F00703E0A00C03E0500003FA1
:1024D0000000403FFBFF803FF6FFC03FF1FF2020A0
:1024E000506C616E6E657242756666657242797493
:1024F00065733A20002046726565204D656D6F72E8
:10250000793A2000436F6D70696C65643A204D61C3
:102510007920203120323032310A00204C6173742E
:1025200020557064617465643A20323032312D3048
:10253000352D30312031343A3330207C20417574D0
:10254000686F723A2046695A692062617365642037
:102550006F6E204161726F6E204A7573742C204338
:102560005231302D5633290A00322E302E382E307B
:102570002D46695A692D3131353230300A004D61AE
:10258000726C696E0020536F6674776172652052B9
:10259000657365740A00205761746368646F67200F
:1025A00052657365740A002042726F776E206F75F2
:1025B000742052657365740A002045787465726EE4
:1025C000616C2052657365740A00506F77657255AF
:1025D000700A0073746172740A00473238585900E7
:1025E0004D31303031006572726F722077726974CC
:1025F000696E6720746F2066696C650A00446F6EAF
:102600006520736176696E672066696C652E0A00C5
:102610004D323900456E6473746F7073002553201A
:10262000256320256320256320256300205A3A0076
:1026300020593A0020583A00656E6473746F7073C5
:10264000206869743A200020746F6F206C6F6E6789
:1026500020657874727573696F6E20707265766527
:102660006E7465640A0020636F6C64206578747210
:102670007573696F6E2070726576656E7465640A35
:102680000000000000000000000000000057617220
:102690006E696E673A20486F6D696E672042756D8E
:1026A000702044697669736F72203C20310A000201
:1026B000020400009B4300009B430000C84300004D
:1026C000A0400000A04000000040FFFFFF0000000D
:1026D0000100000001000080005555550000004039
:1026E0000033333300AAAA2A0049922400000020B4
:1026F00000C7711C0099991900D14517005555154F
:10270000003BB11300244912001111110000001008
:10271000000F0F0F00E3380E0043790D00CCCC0CF6
:1027200000C3300C00E8A20B0064210B00AAAA0A27
:1027300000703D0A009DD80900427B0900922409DF
:1027400000DCD30800888808001042080000000858
:1027500000F0C107008787070075500700711C074C
:10276000003EEB0600A1BC06006990060066660606
:1027700000703E06006118060017F4050074D105CC
:10278000005BB00500B2900500627205005555056A
:102790000078390500B81E0500050505004EEC045B
:1027A0000087D40400A1BD040090A704004992044E
:1027B00000C17D0400EE690400C7560400444404CF
:1027C000005C3204000821040041100400000004F1
:1027D000003FF00300F8E0030026D20300C3C30368
:1027E00000CCB503003AA803000A9B0300388E030F
:1027F00000C08103009F750300D0690300505E0391
:10280000001D53030034480300913D03003333039C
:102810000016290300381F030097150300300C032E
:1028200000030303000BFA020049F10200BAE802B8
:10283000005CE002002DD802002DD0020059C80231
:1028400000B0C0020031B90200DAB10200AAAA0247
:1028500000A0A30200BC9C0200FA9502005C8F025B
:1028600000DF88020082820200457C020027760297
:102870000027700200436A02007C640200D05E02FE
:10288000003F590200C85302004D31303030005330
:10289000746F70205072696E7400526573756D6547
:1028A000205072696E7400506F776572204F757496
:1028B000616765003F004261636B0053746F700095
:1028C0005072696E742066726F6D204D6564696127
:1028D000004368616E6765204D65646961004D3233
:1028E000310041626F7574205072696E74657200B8
:1028F0004368616E67652046696C616D656E740042
:10290000436F6E66696775726174696F6E005465B6
:102910006D7065726174757265004D6F74696F6E6C
:1029200000526573756D65205072696E74004E6F4C
:10293000204D656469610043616E63656C204F6280
:102940006A6563740054756E650053746F7020502F
:1029500072696E74005061757365205072696E748F
:1029600000496E666F2053637265656E003F0053C9
:1029700074617274205072696E740043616E636595
:102980006C005072696E740043616E6E6F742065E6
:102990006E746572207375626469723A2000022E4B
:1029A0002E004D61696E0020436F756E7420583A99
:1029B0000042656400453100626564002C20737933
:1029C0007374656D2073746F707065642120486541
:1029D000617465725F49443A200048656174696EAC
:1029E00067204661696C65640048656174696E675B
:1029F000206661696C6564004D3131322053687521
:102A000074646F776E00202D20496E76616C696466
:102A1000206578747275646572206E756D6265727A
:102A200020210A00544845524D414C2052554E41F8
:102A300057415900546865726D616C2052756E6122
:102A4000776179004572723A204D415854454D5096
:102A5000004D415854454D50207472696767657246
:102A60006564004572723A204D494E54454D500000
:102A70004D494E54454D50207472696767657265C3
:102A80006400202F002042403A0020403A002057A6
:102A90003A007C3C3E5E2B3D3F2F5B5D3B2C2A2267
:102AA0005C00FFFDFCFAF8F6F4F2F0EEECEAE9E780
:102AB000E5E3E1E0DEDCDAD9D7D5D4D2D0CFCDCB97
:102AC000CAC8C7C5C3C2C0BFBDBCBAB9B7B6B4B324
:102AD000B2B0AFADACAAA9A8A6A5A4A2A1A09E9D84
:102AE0009C9A99989795949392908F8E8D8B8A89C2
:102AF00088878684838281807F7E7D7B7A797877E0
:102B0000767574737271706F6E6D6C6B6A696867DD
:102B1000666564636261605F5E5D5C5B5A595858CC
:102B20005756555453525150504F4E4D4C4B4A4AA4
:102B30004948474646454443424241403F3E3E3D68
:102B40003C3B3B3A3938383736353534333232311D
:102B500030302F2E2E2D2C2B2B2A292928272726C3
:102B6000252524232322212120201F1E1E1D1C1C5D
:102B70001B1B1A19191818171616151514131312EA
:102B8000121111100F0F0E0E0D0D0C0C0B0A0A096D
:102B900009080807070606050504040303020201E5
:102BA000000000009B4300009B430000C84300005E
:102BB0000000000000000000000053657474696E9E
:102BC00067732053746F726564003B200020453AA0
:102BD00000205A3A0020593A00583A0020746F6F8A
:102BE000206C6F6E6720657874727573696F6E20E4
:102BF00070726576656E7465640A0020636F6C643C
:102C000020657874727573696F6E20707265766571
:102C10006E7465640A00506C65617365205265735B
:102C20006574005052494E5445522048414C544519
:102C3000440025533A20255300706F7765726F6604
:102C400066004B494C4C45442E20005072696E740E
:102C500065722068616C7465642E206B696C6C28E9
:102C6000292063616C6C6564210A006563686F3AB2
:102C7000004572726F723A002F2F616374696F6E34
:102C80003A0070726F6D70745F00656E6400486F1B
:102C900074656E6420746F6F20636F6C640A0053F8
:102CA000656E64204D31303820746F207265737505
:102CB0006D650A00496E736572742066696C616D9A
:102CC000656E7420616E642073656E64204D3130D2
:102CD000380A0052656865617420446F6E65005261
:102CE0006568656174696E672E2E2E005265686591
:102CF0006174004865617465722054696D656F7513
:102D0000740053656E64204D31303820746F206834
:102D1000656174206E6F7A7A6C650A004E6F7A7AFC
:102D20006C65205061726B656400706175736564D9
:102D300000506175736500726573756D656400524E
:102D40006573756D696E6700452073746570732FC8
:102D50006D6D005A2053746570732F6D6D0059208E
:102D600053746570732F6D6D0058205374657073C4
:102D70002F6D6D00416476616E63656420536574E8
:102D800074696E6773003F0043616E63656C004950
:102D90006E697400496E697469616C697A65204571
:102DA0004550524F4D0046696C616D656E7400541C
:102DB000656D7065726174757265005374657073CA
:102DC0002F6D6D004A65726B00416363656C6572BF
:102DD0006174696F6E0056656C6F63697479004346
:102DE0006F6E66696775726174696F6E003F00434C
:102DF000616E63656C204F626A656374004E4F00BC
:102E00005945530043616E63656C204F626A656388
:102E100074203D004D61696E00204D39322058000C
:102E20004D32342053256C642054256C640047399E
:102E3000322E39204525730047312046256400474E
:102E400039322E39205A2573004731205A30204616
:102E500032303000473120582573205925732046E1
:102E600033303030004D3130362050256920532525
:102E700069004D32303020442573004732385230DB
:102E80005859004739322E39204530205A300A47E8
:102E9000315A2573004D31303920532569004D31A9
:102EA0003930205325690020496E76616C696420B1
:102EB0006578747275646572200020204D36303359
:102EC000200020440020204D343132205300466938
:102ED0006C616D656E742072756E6F7574207365AC
:102EE0006E736F723A002055004C0046696C616D3C
:102EF000656E74206C6F61642F756E6C6F616420F9
:102F00006C656E677468733A0020204D343133204D
:102F10005300506F7765722D4C6F73732052656349
:102F20006F766572793A0020440020490020204DD8
:102F300033303420500020440020490020204D33FD
:102F400030312050005049442073657474696E67B5
:102F5000733A0020460020480020204D31343520AF
:102F600053004D6174657269616C206865617475A8
:102F70007020706172616D65746572733A002058DB
:102F80000020530020204D3230352042004164762D
:102F9000616E6365643A20423C6D696E5F7365677C
:102FA0006D656E745F74696D655F75733E20533C2B
:102FB0006D696E5F66656564726174653E20543C40
:102FC0006D696E5F74726176656C5F66656564726B
:102FD0006174653E20583C6D61785F785F6A657208
:102FE0006B3E20593C6D61785F795F6A65726B3E1C
:102FF000205A3C6D61785F7A5F6A65726B3E20454E
:103000003C6D61785F655F6A65726B3E00205400BD
:1030100020520020204D323034205000416363653F
:103020006C65726174696F6E2028756E6974732F98
:103030007332293A20503C7072696E745F61636329
:10304000656C3E20523C726574726163745F6163AB
:1030500063656C3E20543C74726176656C5F61639D
:1030600063656C3E0020204D3230312058004D61A8
:1030700078696D756D20416363656C657261746913
:103080006F6E2028756E6974732F7332293A002091
:103090004500205A0020590020204D32303320585E
:1030A000004D6178696D756D206665656472617447
:1030B00065732028756E6974732F73293A005374F1
:1030C0006570732070657220756E69743A002044D3
:1030D0000020204D3230302053002044697361625B
:1030E0006C65640A0046696C616D656E7420736579
:1030F0007474696E67733A0020204D31343920436F
:10310000203B20556E69747320696E2043656C7393
:103110006975730A0020286D6D290020204732311F
:10312000202020203B20556E69747320696E206D2D
:103130006D0000803B4400803B4400007041000073
:1031400096420000A0420000A0420000C843EC11DB
:10315000BF43D0070000D0070000640000008813C0
:1031600000005654726176204D696E00566D696E8E
:1031700000566D6178204500566D6178205A0056E2
:103180006D6178205900566D6178205800416D615D
:1031900078204500416D6178205A00416D617820AA
:1031A0005900416D6178205800412D547261766557
:1031B0006C00412D526574726163740041636365F4
:1031C0006C0056652D4A65726B00565A2D4A657221
:1031D0006B0056592D4A65726B0056582D4A657220
:1031E0006B006E6F74696669636174696F6E20004D
:1031F0006E6F74696669636174696F6E20006361E4
:103200006E63656C005072696E742041626F7274F7
:103210006564004469736D697373005549204162A8
:103220006F72746564004D323520500A4D3234009F
:10323000526573756D650055492050617573650061
:1032400050617573696E672E2E2E00726573756DF1
:1032500065004D323400454550524F4D2056657241
:1032600073696F6E204572726F7200454550524F00
:103270004D20496E646578204572726F7200454535
:1032800050524F4D20435243204572726F72003F9F
:103290000049676E6F726500526573657400496E10
:1032A000697469616C697A6520454550524F4D00DB
:1032B00043616E6E6F74206F70656E20737562640B
:1032C00069722000534420496E6974204661696C1C
:1032D0000053442063617264206F6B0A006F706555
:1032E0006E526F6F74206661696C65640A00766F58
:1032F0006C756D652E696E6974206661696C6564B4
:103300000A004E6F20534420636172640A0021005A
:10331000486F74656E6420746F6F20636F6C640017
:103320004261636B0050726F63656564004F66664F
:10333000004F6E00536F667420456E6473746F7037
:1033400073004D6F74696F6E0044697361626C65E0
:10335000205374657070657273004D383400486F87
:103360006D65205A004732385A00486F6D65205904
:10337000004732385900486F6D6520580047323891
:1033800058004175746F20486F6D650047323800F2
:103390004D61696E00507265686561742024204536
:1033A0006E64005072656865617420242042656413
:1033B0000054656D70657261747572650050726954
:1033C0006E742066726F6D204D656469610073686C
:1033D0006F7700627574746F6E00626567696E0066
:1033E00044697361626C6552756E6F7574005075D7
:1033F0007267654D6F726500506175736564004357
:103400006F6E74696E7565004C6F61642046696CFF
:10341000616D656E74205400496E73657274206628
:10342000696C616D656E7420616E642073656E6495
:10343000204D3130380A00220A00556E6B6E6F77CE
:103440006E20636F6D6D616E643A20220020420031
:103450002050006F6B0043522D31302056332052E4
:10346000656164792E005072696E74696E672E2EE4
:103470002E005072696E742050617573656400503F
:1034800061726B696E672E2E2E00000057616974A1
:1034900020666F720066696C616D656E742063688A
:1034A000616E676500746F20737461727400576198
:1034B000697420666F720066696C616D656E742058
:1034C000756E6C6F616400004E6F7A7A6C6520686F
:1034D000656174696E6700506C6561736520776122
:1034E00069742E2E2E0000507265737320627574FD
:1034F000746F6E00746F2068656174206E6F7A7AE5
:103500006C650000496E736572742066696C616D4C
:10351000656E7400616E64207072657373206275ED
:1035200074746F6E00746F20636F6E74696E75656E
:10353000005761697420666F720066696C616D6521
:103540006E74206C6F61640000507265737320426A
:103550007574746F6E00746F20726573756D65207D
:103560007072696E7400005761697420666F722012
:103570007072696E7400746F20726573756D652E5C
:103580002E2E00005761697420666F720066696CA8
:10359000616D656E7420707572676500003E200075
:1035A000256C642E25696D004578747275646564B8
:1035B00020546F74616C003E20004C6F6E67657321
:1035C00074204A6F622054696D65003E2000546F7C
:1035D00074616C205072696E742054696D6500438B
:1035E0006F6D706C65746564003A20005072696E8E
:1035F0007420436F756E74003A200031323000350C
:10360000004245443A204550434F53203130304B1F
:103610000052756E617761792057617463683A2052
:103620004F4E004D61782054656D70003237350083
:103630004D696E2054656D7000350045313A204566
:1036400050434F53203130304B00505355004765A5
:103650006E657269630050726F746F636F6C0031D6
:103660002E30004261756400313135323030004314
:103670007265616C69747933442052414D50530036
:103680004578747275646572730031006D61726C97
:10369000696E66772E6F72670043522D3130205667
:1036A0003300323032312D30352D30312031343A43
:1036B000333000322E302E382E302D46695A692D87
:1036C000313135323030004D61726C696E005072AC
:1036D000696E746572205374617473005468657206
:1036E0006D6973746F727300426F61726420496E0A
:1036F000666F005072696E74657220496E666F0065
:103700004D61696E0000002200250028002B002E6C
:10371000003100340002010000050108010B010026
:10372000002100240027002A002D00300033000172
:10373000010000040107010A010505050507050848
:10374000080808020202020A0A0808040404040124
:103750000101010101010103030303030303030446
:103760000707070C0C0C0C0C0C0C0C0202020206D6
:10377000060606060606060B0B0B0B0B0B0B0B01C6
:103780000210202008081020401020408002010272
:10379000010804020101020408102040808040203A
:1037A0001008040201800402018040201008040275
:1037B00001080402010102040810204080010204F3
:1037C0000810204080007A01900111241FBECFEF25
:1037D000D1E2DEBFCDBF00E00CBF14E0A0E0B2E05C
:1037E000E0E1FAE502E00BBF02C007900D92A63AB5
:1037F000B107D9F727E1A6EAB4E001C01D92AF3BBB
:10380000B207E1F71BE1C4EEDBE100E006C021975F
:103810000109802FFE010F949929C33ED10780E052
:103820000807A9F70F948F170D94F72C0C9400003C
:103830002F923F924F925F926F927F928F929F92C0
:10384000AF92BF92CF92DF92EF92FF920F931F93AE
:10385000CF93DF93CDB7DEB7C754D1090FB6F89435
:10386000DEBF0FBECDBF28968FAF28973090BD1515
:1038700021E02093BD15809105068D3409F4F5C132
:10388000843511F40C945C2C873411F00C94782C52
:1038900080910306909104068531910511F40C94F2
:1038A0007A2C68F48430910530F420918A088230B3
:1038B0009105D8F024C0049709F4BEC0D2C18A355E
:1038C000910509F442C140F48B31910509F4F3C02C
:1038D0004C9709F42CC1C5C18B35910509F439C148
:1038E0008C35910509F43AC1BCC1213011F00C941A
:1038F0007A2C0E9482E10E94A5950C947A2C2130AA
:1039000011F00C947A2C11E0029709F010E00E945B
:1039100082E119821A821B821C821D821E821F82F2
:10392000188682E50E9476E1882309F44FC00E9440
:10393000F5E06B017C0120E030E0A9010F94C62284
:10394000882309F459C08091851690918616A0911C
:103950008716B09188168BAF9CAFADAFBEAF80918C
:10396000891690918A16A0918B16B0918C16239689
:103970008CAF9DAFAEAFBFAF23978090960890906D
:103980009708A0909808B090990840909A08509095
:103990009B0860909C0870909D08A50194016BADF8
:1039A0007CAD8DAD9EAD0F94C62281110C949D2CE3
:1039B000A301920123966CAD7DAD8EAD9FAD239793
:1039C0000F94C6228823C1F00C949D2C89E40E9498
:1039D00076E1882331F00E94F5E069837A838B8356
:1039E0009C838AE40E9476E1882331F00E94F5E00E
:1039F0006D837E838F83988720E030E0A901698101
:103A00007A818B819C810F94C62281110C945D2D4B
:103A100020E030E0A9016D817E818F8198850F942F
:103A2000C62281110C945D2D0E944DD383E894E051
:103A30000E9405D30C947A2C80E50E9476E18823BD
:103A400029F00E94B2E06B017C0103C0C12CD12C93
:103A5000760183E50E9476E1882361F00E94F5E01B
:103A600020E030E04AE754E40F942B230F94F12A2E
:103A70006B017C010E94218F80910215811105C08C
:103A800060E08FEA94E00E94A5F70E94568EC60E71
:103A9000D71EE81EF91E0E94568EDC01CB018C1940
:103AA0009D09AE09BF09B7FD02C00C947A2C80E0D5
:103AB0000E945931F0CF0F944F0A8E010F5F1F4FB4
:103AC000882311F40C947D2D82FF03C041E954E05A
:103AD00002C044EA54E081FF03C023E934E002C09D
:103AE00024EA34E080FF03C085E994E002C084EA60
:103AF00094E05F934F933F932F939F938F9388EB23
:103B000094E09F938F931F930F930F9460220E94D2
:103B100050D3C8010E94225260E0C8010E9454F8AC
:103B20000FB6F894DEBF0FBECDBF0C947A2C0F9465
:103B30004F0A81110C948E2D60E08FE40E94ACE45A
:103B400081110C947A2C0C948E2D1092D0150C941B
:103B50007A2C8FE08093D0150C947A2C80910206F9
:103B6000882361F1893011F00C947A2C2DE8A22E73
:103B700024E0B22E35E8C32E36E1D32E00E010E06B
:103B8000F12CF50181915F010E9476E1882371F0AB
:103B9000F3E0FF1202C011E001C001E00E94F5E075
:103BA000D6016D937D938D939C931397F394B4E01A
:103BB000CB0ED11CE4E0FE12E4CF44C08DE8C82E49
:103BC00084E0D82E95E8E92E96E1F92E00E010E089
:103BD000212CD6018D916D010E9476E1882359F147
:103BE0000E94F5E04B015C01F701208131814281A7
:103BF00053810F94A7292B013C012DEB37E346E8B5
:103C000055EB0F94CF2B87FD0AC02DEB37E346E829
:103C100055E3C301B2010F94C622181664F4F3E011
:103C20002F1202C011E001C001E0D7018D929D92D8
:103C3000AD92BC9213972394B4E0EB0EF11CE4E038
:103C40002E12C7CF002319F00E94EF9706C0112350
:103C500021F081E996E10E94BABC0E940C990C9473
:103C60007A2C0F9428090C947A2C80910306909159
:103C700004068537910509F4C4C708F0C7C08C3421
:103C8000910509F48BC408F05DC08931910509F4F0
:103C900000C318F58431910509F43BC278F48131F1
:103CA000910509F422C228F4029708F4D4C10C94B7
:103CB000592C429709F4ABC60C94592C86319105C6
:103CC00009F45CC208F456C28731910509F460C258
:103CD000489709F474C20C94592C8E31910509F45B
:103CE0004DC3A8F48B31910509F4E5C208F4D5C29F
:103CF0008C31910509F43AC34D9711F00C94592C6D
:103D00008091F8128E7F8093F8120C947A2C813275
:103D1000910509F46CC348F48F31910509F40BC483
:103D2000809709F43BC30C94592C8934910509F40C
:103D300022C48B34910511F00C94592C0E943A3115
:103D40000C947A2C8936910509F414C560F58335F5
:103D5000910509F455C6B8F48E34910509F427C4C9
:103D600008F420C48135910509F433C682359105E4
:103D700011F00C94592C8091D0158F7D8061809327
:103D8000D0150C947A2C8535910509F476C608F483
:103D90003EC68C35910509F493C68836910509F421
:103DA00098C40C94592C8E36910509F447C588F4B3
:103DB0008B36910509F434C508F4EFC48C369105AF
:103DC00011F40C947A2C8D36910509F4A9C40C9445
:103DD000592C8137910509F493C558F48F36910514
:103DE00009F44AC58037910511F40C947A2C0C948F
:103DF000592C8237910509F401C78337910511F0D9
:103E00000C94592C0E94E74F0C947A2C8F32F1E0DD
:103E10009F0711F40C94142A08F077C0883C910590
:103E200009F4E1C7A0F58D37910509F4CFC5B8F4C1
:103E30008737910509F458C708F4F4C68837910507
:103E400009F455C78937910511F00C94592C10923B
:103E50004308109242080E94B97C0C947A2C813954
:103E6000910509F44CC730F48C38910509F46AC502
:103E70000C94592C8B39910509F483C58E3B91051F
:103E800011F00C94592C0E9468450C947A2C833DB7
:103E9000910511F40C949D27C0F48B3C910511F40D
:103EA0000C945D2730F4893C910509F4E3C70C9428
:103EB000592C8C3C910511F40C947C278D3C910578
:103EC00011F40C948A270C94592C8C32A1E09A0797
:103ED00011F40C94CC2860F48C3D910511F40C94F1
:103EE00035288D3D910511F40C9476280C94592CAD
:103EF0008D32E1E09E0711F40C94E1288E3291405E
:103F000011F40C94D1290C94592C883F31E093077B
:103F100011F40C94992A08F04DC08D39B1E09B073B
:103F200011F40C94052CD8F48039F1E09F0711F4BA
:103F30000C94172A38F48033914011F40C945F29C3
:103F40000C94592C8A39A1E09A0711F40C947A2C1C
:103F50008C39914011F40C941A2A0C94592C853FF9
:103F6000E1E09E0711F40C94932A78F4863E21E058
:103F7000920711F40C94252A843F914011F00C947F
:103F8000592C0E94D7B40C947A2C863FA1E09A0752
:103F900011F40C94962A873F914011F00C94592CFF
:103FA00061E083E50E94ACE491E089270E94EFE89C
:103FB0000C947A2C8E3BE2E09E0711F40C94322B89
:103FC000E8F4883522E0920711F40C94B62A38F40C
:103FD0008C30924011F40C94A92A0C94592C8B35F6
:103FE000B2E09B0711F40C94B92A8D3B924011F07A
:103FF0000C94592C0E949FE20C947A2C873EF3E09B
:104000009F0711F40C94EE2BC8F48C3633E0930721
:1040100011F40C947A2C803A934011F00C94592CA2
:1040200020910006309101069091F81292609093D1
:10403000F812C9010E944E8A0C947A2C883EB3E093
:104040009B0711F40C94252C893E934011F40C9499
:10405000282C0C94592C80E50E9476E1882329F0C5
:104060000E94B2E06B017C0103C0C12CD12C76010F
:1040700083E50E9476E1882361F00E94F5E020E06C
:1040800030E04AE754E40F942B230F94F12A6B019C
:104090007C010E94218F809100069091010600977B
:1040A00021F061E00E9454F805C060E08AED94E0E0
:1040B0000E94A5F78091030690910406892B19F0C0
:1040C00062ED74E002C06AEC74E020E030E04FEF93
:1040D00053E382E00E940DD740E0C701B6010E9481
:1040E000F4370F9422080C947A2C8091FC0584FFFD
:1040F00002C00C94F42E8091FE0587FF02C00C9440
:10410000F42E8091FF05837011F00C94F42E0C9422
:10411000102F8091F81283FF25C085E095E00E9462
:1041200005D38091F81283FF17C08DE193E10E94BF
:1041300020B08BE1EDE1F3E1DE01119601900D92EB
:104140008A95E1F760E070E0CE0101960F941D02C0
:10415000CE0101960E9466E786EF94E00E9405D3A7
:104160000C947A2C0E9450D386E195E00E9405D3EE
:104170000C947A2C0E940FFC0C947A2C8091F812EB
:1041800082FF02C00C947A2C0E94FEFB0C947A2CC5
:10419000E0910006F09101068081882329F08032A9
:1041A00009F410823196F8CF60E08091000690917A
:1041B00001060E94948A109258150C947A2C83E57B
:1041C0000E9476E1882321F00E94C2E00E943E48CE
:1041D00084E50E9476E18823A9F00E94C2E06B0189
:1041E0007C010E94067DC0922009D0922109E092B4
:1041F0002209F0922309CD28CE28CF2819F081E09A
:104200008093CE1580918F078823F9F080E090E0AD
:10421000A0EAB1E489839A83AB83BC831C8E1D8E94
:104220001E8E1F8E1FAA18AE19AE1AAE00E010E047
:1042300020E0AE014F5F5F4FBE01645E7F4FCE0155
:10424000C7960E9499D40C947A2C0E941731882327
:1042500081F00E9448890E943A318FE096E10E94E5
:10426000EF881092B5171092B6171092B7171092E8
:10427000B81761E08BE492E30E946FD443E152E30C
:1042800060E275E085E00F94460A0F9422080C94D2
:104290007A2C0E94BEE40C947A2C8091F81283FD53
:1042A00002C00C947A2C83E50E9476E181110C9473
:1042B0001E2F0C947A2C83E40E9428E1882361F15C
:1042C00086E395E00E9405D3809164148823D9F099
:1042D000BE016F5F7F4F81E694E10E94E8AECE01A0
:1042E00001960E949B50CE0101960E94208A8091E7
:1042F000CF11882361F080E20E9454318FEC91E16C
:104300000E949B5004C08CE295E00E9405D38AE095
:104310000E9454310C947A2C8091F81282FF20C0B4
:10432000C090F412D090F512E090F612F090F712CF
:1043300085E495E00E9405D34AE0C701B6010E94DA
:104340008ACD8FE20E9454316091F0127091F11287
:104350008091F2129091F3120E949A880C947A2C18
:1043600087E595E00E9405D30C947A2C8091000695
:10437000909101060E944E8A0C947A2C8091F8123A
:1043800083FD02C00C947A2C0F949708809100064C
:10439000909101060E94848D0C947A2C8091F812E1
:1043A00082FD0E94218F8091F81283FD02C00C943F
:1043B0007A2C60E080E50E94ACE4182F682F809191
:1043C0000006909101060E94948A83E50E9476E19E
:1043D000882321F00E94C2E00E943E480E94488942
:1043E00011110C947A2C0E943A310C947A2C009181
:1043F000000610910106F80101900020E9F73197BD
:104400006F01C01AD10AF801CF01801B910B8C15E6
:104410009D0534F480818F3209F410823196F4CFF7
:104420008BE1EDE1F3E1DE015C9601900D928A955E
:10443000E1F7E12CF12CEC14FD040CF073C0F80151
:10444000EE0DFF1D8081811103C0FFEFEF1AFF0AFF
:104450005801AE0CBF1CD5018C91882309F462C0B1
:10446000BFEFEB1AFB0AF801EE0DFF1D7F01E01A0A
:10447000F10A81918111FACFCE014C960E9420B0B1
:104480008BE1FE017C96DE01119601900D928A95DA
:10449000E1F7B501CE0101960E94A5FCCE0101967F
:1044A0000E9466E78FE20E9454318091CF118823E9
:1044B00019F08FEC91E102C087E994E00E949B50D3
:1044C0008091F81284FF2EC019821C8221E0A50180
:1044D000BE01645E7F4FCE0101960E94BFB3811181
:1044E0000FC08AE00E9454310E9450D3B50188E683
:1044F00095E00E9444D3CE0101960E9466E712C067
:10450000CE014C960E94C3AE8BE1FE013196DE01D6
:104510005C9601900D928A95E1F7CE0101960E947A
:1045200066E789CF8AE00E945431CE014C960E9402
:1045300066E70C947A2C0E94D27C6C8F7D8F8E8FD4
:104540009F8FBE016F5F7F4FCE014C960E945F47E9
:1045500060E0CE0101960E9454F80E9450D3BE0143
:104560006F5F7F4F8CE795E00E9444D38AE00E9402
:1045700054310C947A2C80E50E9428E1882311F4B0
:104580000C947A2C0E94D5E090E08536910510F0CD
:1045900084E690E0809358150C947A2C0E94217D3B
:1045A0000C947A2C81E00E943AB80C947A2C60E04A
:1045B00070E083E50E94A0E38E34910531F40E94FF
:1045C000B0B80F9422080C947A2C87EE95E00E94E4
:1045D00005D360913208709133088EED95E00E940A
:1045E00014D3609134087091350881ED95E00E94F4
:1045F00014D36091320870913308809134089091FF
:104600003508681B790B8091CE15815021E030E090
:10461000823010F020E030E0621B730B86EC95E0F6
:104620000E9414D38AE00E9454318EEB95E00E94E0
:1046300005D38091360890913708A0913808B09141
:1046400039088C8F9D8FAE8FBF8FBE016F5F7F4FFC
:10465000CE014C960E945F47BE016F5F7F4F81EB9A
:1046600095E00E9444D380913A0890913B08A09134
:104670003C08B0913D088C8F9D8FAE8FBF8FBE01DF
:104680006F5F7F4FCE014C960E945F47BE016F5F08
:104690007F4F81EA95E00E9444D320E030E04AE772
:1046A00054E460913E0870913F08809140089091D9
:1046B00041080F94842AAB01BC0189E895E00E946F
:1046C0001DD38DE60E9454318AE00E9454310C942F
:1046D0007A2C8091760F83FF02C00C947A2C0E9472
:1046E0007CE287FF02C00C947A2C89E40E9476E178
:1046F000882311F40C94232F0E94D5E090E0181623
:10470000190614F481E090E026E0289FF001299F2B
:10471000F00D1124E25AF84F808191810C942A2FD8
:104720008091760F83FF02C00C947A2C0E947CE269
:10473000F82E87FF02C00C947A2C89E40E9476E15F
:10474000082F882311F40C94332F0E94D5E090E0B9
:104750001816190614F481E090E026E0289FF00175
:10476000299FF00D1124E25AF84F8081918110E0C9
:104770000C94402F0E947CE2182F87FF02C00C94FB
:10478000812C8AE096E00E9405D3812F0E947AA1B5
:104790008AE00E9454310C94812C80E50F94730AB6
:1047A000F82EE1E0E81710F40C947A2C81E40E94D2
:1047B00028E1882329F060916109062F10E002C0EA
:1047C0000FEF10E089E40E9476E1882399F00E94BF
:1047D000D5E090E01816190614F481E090E026E088
:1047E000289FF001299FF00D1124E25AF84F04810F
:1047F000158108C083E50E9476E1882319F00E94A4
:10480000C2E08B01EF2DF0E0EF59F64FB8010F3FFA
:10481000110519F010F06FEF70E060830C947A2CA2
:1048200080E50F94730A823010F00C947A2CE82FF4
:10483000F0E0EF59F64F10820C947A2C8EE40E942F
:1048400076E1882311F40C947A2C0E94C2E0E09166
:10485000710222E6E29FF0011124EC52FD4FE0814B
:1048600037E6E302F0011124EA5FF94F60837183B8
:10487000828393830C947A2C83E50E9428E1882319
:1048800029F083E50F94730A8093760F0E9450D32A
:104890008BE196E00E9405D38091760F882369F121
:1048A00001E1E02E06E0F02E00E010E020E0809133
:1048B000760F90E0A0E0B0E0002E04C0B695A7957A
:1048C000979587950A94D2F780FF0EC0DD24D39484
:1048D000D20E222319F08CE20E945431F701859107
:1048E00094910E9405D32D2D0F5F1F4F82E0E80E9B
:1048F000F11C05301105D9F60ACD8DE096E005CD05
:1049000083E50E9476E1882371F00E94D5E0282F8C
:1049100030E02D3331051CF480930002EBC78CE3AB
:1049200080930002E7C70E9450D31091000282E2F8
:1049300096E00E9405D3812F0E94FECD8AE00E945E
:104940005431D8C78091760F83FDD4C789E40E9483
:1049500076E1882311F40C946F2F0E94D5E090E04B
:104960001816190614F481E090E026E0289FF00163
:10497000299FF00D1124E25AF84F828193810C9403
:10498000772F83E50E9476E1882309F4B3C70E945C
:10499000D5E0182F8D3308F08CE3809354120E94D9
:1049A000568E6B017C01212F30E0A8EEB3E00F940E
:1049B0002E29C60ED71EE81EF91EC0925012D092A4
:1049C0005112E0925212F092531294C70E94BEE428
:1049D00091C70E943BA20E94328F81E00E943AB8A8
:1049E0000E944C3168EE73E080E090E00E94E1D2DA
:1049F0000E94513160E089E296E00E94A5F77AC7F3
:104A00008091D0158F7E80628093D01573C783E527
:104A10000E9476E18823E9F00E94568E6093170980
:104A2000709318098093190990931A090E94F5E070
:104A300020E030E04AE754E40F942B230F94F12A4E
:104A40006093010270930202809303029093040228
:104A500051C78091FC0584FF02C00C948A2F80917D
:104A6000FE0587FF02C00C948A2F8091FF0583709A
:104A700011F00C948A2F0C94BA2F83E50E9428E140
:104A8000882309F437C70E94568E609317097093E4
:104A900018098093190990931A090E94F5E020E003
:104AA00030E04AE754E40F942B230F94F12A6093EB
:104AB000A6047093A7048093A8049093A9041AC72E
:104AC0000E947CE287FD16C79091FC0594FD04C00E
:104AD0009091FE0597FF0AC0BDE8CB2EB4E0DB2E17
:104AE00017E7E12E1FE0F12E10E009C09091FF05BD
:104AF000937091F7682F81E00E9477E0FBC6D601A2
:104B00008D916D010E9476E1882309F46DC0133008
:104B100009F063C00E94F5E04B015C0120E030E049
:104B200040EA51E40F94C62287FF4EC0A5019401CC
:104B30006091970F7091980F8091990F90919A0FB3
:104B40000F94842A2B013C019B01AC016091450923
:104B50007091460980914709909148090F942B2341
:104B600060934509709346098093470990934809DB
:104B7000A30192016091A70F7091A80F8091A90FD6
:104B80009091AA0F0F942B236093A70F7093A80FF7
:104B90008093A90F9093AA0F6091550970915609BF
:104BA00080915709909158090F94CA22A30192014C
:104BB0000F942B230F94F12A609355097093560993
:104BC00080935709909358098092970F9092980F6D
:104BD000A092990FB0929A0F07C00E94F5E0F701DA
:104BE000648B758B868B978B1F5FF4E0EF0EF11C47
:104BF000143009F084CF0E9457BA7CC60E94A95095
:104C000079C68091000690910106009741F0DC0181
:104C10002C91222321F060E00E9454F86BC60F947F
:104C2000220868C6009100061091010624E08FEF6B
:104C3000F12C30E0215029F1F8019081492F4B7F70
:104C4000413421F441814133E1F408C09035C9F485
:104C5000918190539A30A8F4892F08C0913421F0A3
:104C6000953421F431E002C0FF24F394A8014E5F93
:104C70005F4F8A014F5F5F4FF80190819032C9F317
:104C8000D9CF4091E812833090F4882391F02FEF30
:104C9000280F283080F481E090E0A0E0B0E004C06C
:104CA000880F991FAA1FBB1F2A95D2F705C0842F12
:104CB00003C08FEF01C080E068EE72E17A83698300
:104CC0004B838093E81231110E9450D3FF2021F0D2
:104CD00087E396E00E9405D3C8010E942252CE01CC
:104CE00001960E9467D406C60E949A7C03C681E0A2
:104CF00080934308809342080E94B97CFBC560E022
:104D000070E083E50E94A0E3823038F00E944DD32A
:104D10008AE396E00E9405D3EDC58C01112788E453
:104D20000E9476E18823E1F00E94D2E08A3A910560
:104D300044F00E94D2E08530914034F40E94D2E0E9
:104D400005C08AEA90E002C084E091E026E0209F5E
:104D5000F001219FF00D1124E25AF84F91838083D6
:104D600082E40E9476E18823D9F00E94D2E0059780
:104D700044F00E94D2E08F36910534F40E94D2E0D4
:104D800005C085E090E002C08EE690E026E0209F1E
:104D9000F001219FF00D1124E25AF84F9383828392
:104DA00086E40E9476E1882309F4A4C50E94D2E03B
:104DB00097FD09C00E94D2E08F3F910509F034F4BD
:104DC0000E94D2E005C080E090E002C08FEF90E04A
:104DD00026E0209FF001219FF00D1124E25AF84FA8
:104DE0009583848387C50E947CE2182F87FD82C546
:104DF0000091EC1584E40E9476E1882311F40C9470
:104E0000BD2F0E94F5E06B017C0120E030E0A9019C
:104E10000F94C622882341F124E01202F0011124EC
:104E2000E851FA4EC082D182E282F38220E030E083
:104E3000A9016091E8157091E9158091EA159091AA
:104E4000EB150F94C62281110CC080E090E0A0EE1B
:104E5000BFE38093E8159093E915A093EA15B0930A
:104E6000EB1501E00C94BD2F80E08093EC150E94BF
:104E7000AC8E40C50E947CE287FD3CC5ADE8EA2EC1
:104E8000A4E0FA2E07E71FE0D7018D917D010E9473
:104E900028E1882359F00E94F5E00F94F12AF801E7
:104EA00060837183828393830E9410BA0C5F1F4FCB
:104EB000FFE007381F0741F71DC50E947CE287FD10
:104EC00019C5FDE8EF2EF4E0FF2E07E71FE0D7013C
:104ED0008D917D010E9428E1882339F00E94F5E040
:104EE000F80164A375A386A397A30C5F1F4FFFE08F
:104EF00007381F0761F7FEC48091FD0587FF02C0D8
:104F00000C94C32F8091FE058E7011F00C94C32F6A
:104F10000C9409308091FC05827111F00C943030B2
:104F20008091FE058C7811F00C9430308091FF0553
:104F3000837011F00C943030DDC480914402909164
:104F40004502A0914602B09147028BAF9CAFADAF36
:104F5000BEAF409048025090490260904A02709063
:104F60004B0280904C0290904D02A0904E02B09067
:104F70004F02C0905002D0905102E0905202F09047
:104F800053028091540290915502A0915602B09123
:104F9000570227968CAF9DAFAEAFBFAF27978091DA
:104FA000580290915902A0915A02B0915B02239647
:104FB0008CAF9DAFAEAFBFAF23970E9450D381E8B7
:104FC00096E00E9405D383E50E9428E1882321F022
:104FD0000E94E6E08093420280914202882319F009
:104FE00086E397E002C082E397E00E9405D389E759
:104FF00096E00E9405D34BAD5CAD6DAD7EAD8EE706
:105000009FE20E941DD3B301A20185E990E30E94B3
:105010001DD3B501A40182E990E30E941DD387E767
:1050200096E00E9405D38FE696E00E9405D3B70173
:10503000A6018EE79FE20E941DD327964CAD5DAD81
:105040006EAD7FAD279785E990E30E941DD323962F
:105050004CAD5DAD6EAD7FAD239782E990E30E94CC
:105060001DD38AE00E94543145C482E40E9428E1A5
:10507000882341F080912D0290912E029093060298
:105080008093050282E50E9428E1882341F0809107
:1050900005029091060290932E0280932D0283E5E3
:1050A0000E9476E1882331F00E94D2E090932E0294
:1050B00080932D028091FC059091FD05A091FE0545
:1050C000B091FF05892B8A2B8B2B09F013C46091BB
:1050D0002D0270912E0281E996E00E943CD385E278
:1050E0000E9454318AE00E94543104C40E947CE240
:1050F000082F87FDFFC383E50E9476E1002E000C98
:10510000110B882361F10E94D2E0F801EE0FFF1F1E
:10511000E95CFD4F91838083000F111F000F111F69
:10512000D801A45ABD4F7D01BC01990F880B990B82
:105130000F94CC222AE037ED43E25CE30F942B235B
:10514000F801EA55F74F20813181428153810F9454
:105150002B23F7016083718382839383CBC30E94E7
:1051600050D365E486EE92E10E94CCD780E3800FB5
:105170000E945431000F111FF801E95CFD4F60815E
:10518000718185E996E00E943CD385E20E9454310A
:105190008AE00E945431AEC364E071E083E50E946E
:1051A0008FE38C0168EE73E080E50E948FE389381D
:1051B000F3E19F0710F088E893E1B8010E94DE83D5
:1051C00099C385E40F94730A811172C080E50E942F
:1051D00028E1882351F00E94F5E060932612709335
:1051E0002712809328129093291289E40E9428E1C3
:1051F000882381F00E94F5E02CEA35EC47E25EE37B
:105200000F942B2360932A1270932B1280932C12ED
:1052100090932D1284E40E9428E1882381F00E945B
:10522000F5E02CEA35EC47E25EE30F94842A6093C4
:105230002E1270932F1280933012909331120E948D
:1052400050D34091261250912712609128127091EC
:10525000291285EA96E00E941DD32CEA35EC47E23C
:105260005EE360912A1270912B1280912C12909122
:105270002D120F94842AAB01BC0181EA96E00E94B2
:105280001DD32CEA35EC47E25EE360912E1270915B
:105290002F1280913012909131120F942B23AB0179
:1052A000BC018DE996E00E941DD38AE0FDD722C3A0
:1052B0000E944DD389EA96E00E9405D31BC380E586
:1052C0000E9428E1882351F00E94F5E06093DC15EC
:1052D0007093DD158093DE159093DF1589E40E94AD
:1052E00028E1882381F00E94F5E02CEA35EC47E2C2
:1052F0005EE30F942B236093E0157093E115809388
:10530000E2159093E31584E40E9428E1882381F05C
:105310000E94F5E02CEA35EC47E25EE30F94842A24
:105320006093E4157093E5158093E6159093E71567
:105330000E9450D34091DC155091DD156091DE152F
:105340007091DF1583EC96E00E941DD32CEA35ECBA
:1053500047E25EE36091E0157091E1158091E215FE
:105360009091E3150F94842AAB01BC018FEB96E07A
:105370000E941DD32CEA35EC47E25EE36091E41510
:105380007091E5158091E6159091E7150F942B2308
:10539000AB01BC018BEB96E00E941DD38AE084D761
:1053A000A9C283E50E9428E1182F882369F00E9492
:1053B000D2E09C01909341028093400291E0232B24
:1053C00009F090E09093CF1580E50E9428E18823B2
:1053D00059F02091400230914102232B11F00E949C
:1053E000E6E08093CF1586C2111184C20E9450D38B
:1053F00083EE96E00E9405D38091CF15882319F0A3
:105400008BEC96E002C087EC96E00E9405D3609199
:1054100040027091410282ED96E00E943CD38EECF6
:1054200096E00E9405D366C20E94FB3F63C20E94C1
:10543000218F60C28091FC05887809F07CC680913C
:10544000FE05867009F077C6A4C684E50E9428E1AF
:105450008823A1F01092E2141092E3141092E41445
:105460001092E5141092E6148FEF0E94BED261E014
:1054700070E084E50E94A0E38093E61483E50E9437
:1054800028E1882321F00E94D2E00E94BED283E46A
:105490000E9428E1882331F080916002803210F46C
:1054A0000E9492D280E50E9428E1882331F00E9478
:1054B000D2E0803210F40E9492D285E50E9428E169
:1054C000882309F417C20E94D2E0803208F012C289
:1054D00041E050E060E070E0082E04C0440F551F2A
:1054E000661F771F0A94D2F7409550956095709586
:1054F0000091E2141091E3142091E4143091E5142A
:1055000040235123622373234093E2145093E31406
:105510006093E4147093E514909160028913EAC1DA
:105520001092750FE7C10E94AFBCE4C10E945EBB40
:10553000E1C12093F4140E94CBB41092F414882398
:1055400009F4D8C10E9450D387E297E00E9405D3A6
:10555000D1C18091F81282FF04C080648093F81258
:10556000C9C183FFC7C10F949708C4C10E94ADE3AE
:10557000C1C10E947CE2082F87FDBCC185E50E9465
:1055800028E18823B1F1E02E002E000CFF080E94D4
:10559000F5E04B015C0120E030E0A9010F94CF2B36
:1055A00087FF04C0B7FAB094B7F8B094C70153E0CE
:1055B000880F991F5A95E1F79C0125513B4E7901BF
:1055C000D9018D929D92AD92BC92139720E030E864
:1055D00049ED53E4C501B4010F94CF2B18164CF4D8
:1055E00080E090E8A9EDB3E4F70180839183A28382
:1055F000B3838CE40E9428E1882309F47BC1002E48
:10560000000C110B0E94F5E06B017C0120E030E002
:10561000A9010F94CF2B87FF04C0F7FAF094F7F895
:10562000F09420E030E849ED53E4C701B6010F944F
:10563000CF2B980143E0220F331F4A95E1F7F90180
:10564000E551FB4E18162CF0C482D582E682F78213
:1056500051C180E090E8A9EDB3E484839583A683EB
:10566000B78348C10E947CE2182F87FD43C18AE5B9
:105670000E9476E1882331F08AE50F9436094B01C8
:105680005C0106C0812C912C90E2A92E91E4B92EE8
:10569000412F64E083E00F941A1120E030E0A9016B
:1056A000C501B4010F94CF2B18167CF580E090E073
:1056B000A0EAB0E489839A83AB83BC8320918D16E2
:1056C00030918E1640918F1650919016C501B401FD
:1056D0000F94A8296B017C0120E030E048EC53E4F2
:1056E0000F94C62287FD06C0C12CD12C88ECE82E71
:1056F00083E4F82ECC8EDD8EEE8EFF8EBE016F5FC2
:105700007F4FCE014C960E94229785E50E9428E1AA
:10571000882329F00E94F5E06B017C010AC028E093
:105720001202F0011124E551FB4EC080D180E280CD
:10573000F38020E030E0A901C701B6010F94CF2B20
:1057400087FF04C0F7FAF094F7F8F094F7FAF094B2
:10575000F7F8F094C982DA82EB82FC8244E061E0DF
:10576000CE0101960E94B9D320E030E0A901C50125
:10577000B4010F94CF2B18165CF580E090E0A0EAFE
:10578000B0E489839A83AB83BC83A50194016091C3
:105790008D1670918E1680918F16909190160F94A1
:1057A000A7296B017C0120E030E0A9010F94CF2BE9
:1057B00018161CF0C12CD12C7601CC8EDD8EEE8E0D
:1057C000FF8EBE016F5F7F4FCE014C960E942297E5
:1057D00040E060E089E00F941A118CC081E0809372
:1057E0008A081092571560E083E50E94ACE48111AD
:1057F00081C0E091710232E6E39FF0011124EC5286
:10580000FD4F80810E94AF4875C083E50E9428E16A
:10581000882339F00E94E6E08093F3140E9484E527
:1058200069C00E9450D389E397E00E9405D380911C
:10583000F314882319F086E397E002C082E397E02F
:105840000E9405D38AE030D555C00E94A5E552C01C
:105850000E942D8D81114EC00E947CE50E94EE8D2C
:105860000E94D27C6D3371058105910520F08AE696
:1058700097E00E94675286E697E00E94675284EEA6
:105880008093581588EE92E19A8389838091E8127B
:105890008B838FEF8093E81282E597E00E9405D317
:1058A000CE0101960E9467D48EE497E00E94675271
:1058B00021C00F9428091EC0109103060E94568E25
:1058C00060931709709318098093190990931A0926
:1058D000112381F00E9450D384E5E6D4812F0E94E9
:1058E000FECD80E2E1D48EE697E00E9405D302C0AF
:1058F0000F94280928968FAD2897811102C00F9424
:10590000B1083092BD15C95BDF4F0FB6F894DEBF0A
:105910000FBECDBFDF91CF911F910F91FF90EF9000
:10592000DF90CF90BF90AF909F908F907F906F90BF
:105930005F904F903F902F90089520E030E0A901B4
:10594000C701B6010F94C622881F8827881F181721
:1059500009F4AEC080E090E0A0E8BFEB27968CAFE2
:105960009DAFAEAFBFAF27972BAD3CAD4DAD5EAD9C
:10597000C501B4010F94A72920E030E040E05FE3C7
:105980000F942B236BAF7CAF8DAF9EAF23962CADC6
:105990003DAD4EAD5FAD2397C301B2010F94A72972
:1059A00020E030E040E05FE30F942B232B013C012B
:1059B0002BAD3CAD4DAD5EADCA01B9010F942B23AB
:1059C0004B015C01A3019201C301B2010F942B238F
:1059D0009B01AC01C501B4010F94A8290F94152CAB
:1059E0004B015C019B01AC01C701B6010F94A729D3
:1059F00023966CAF7DAF8EAF9FAF2397A501940127
:105A0000C701B6010F94A8299B01AC0123966CAD88
:105A10007DAD8EAD9FAD23970F942B236B017C0141
:105A200020E030E0A9010F94CF2B87FD07C0C7010C
:105A3000B6010F94152C6B017C0103C0C12CD12C35
:105A40007601C301B2019058A50194010F94842AF4
:105A500027962CAD3DAD4EAD5FAD27970F942B2310
:105A6000A70196010F942B232BAD3CAD4DAD5EAD40
:105A70000F94A82969837A838B839C83A501940161
:105A80006BAD7CAD8DAD9EAD0F94842A27962CAD69
:105A90003DAD4EAD5FAD27970F942B23A701960127
:105AA0000F942B23A30192010F94A8290C94F81CA6
:105AB00080E090E0A0E8BFE351CF80E50F94730A47
:105AC000082F853630F00E944DD389E994E00E947A
:105AD00005D3202F412FBE016F5F7F4F86E998E0ED
