:100000000C946D1C0C949E1C0C949E1C0C949E1CB9
:100010000C949E1C0C949E1C0C949E1C0C949E1C78
:100020000C949E1C0C949E1C0C949E1C0C949E1C68
:100030000C949E1C0C949E1C0C949E1C0C949E1C58
:100040000C949E1C0C94F7DB0C949E1C0C949E1C30
:100050000C949E1C0C949E1C0C9479C40C949D9240
:100060000C949E1C0C94F63A0C94E23A0C949E1C50
:100070000C949E1C0C949E1C0C949E1C0C949E1C18
:100080000C949E1C0C949E1C0C949E1C0C949E1C08
:100090000C94023A0C94EC3A0C949E1C0C949E1C0A
:1000A0000C949E1C0C949E1C0C949E1C0C949E1CE8
:1000B0000C949E1C0C949E1C0C949E1C0C949E1CD8
:1000C0000C949E1C0C949E1C0C949E1C0C949E1CC8
:1000D0000C949E1C0C949E1C0C949E1C0C949E1CB8
:1000E0000C949E1C313A433A553A663A6E3A9D3A20
:1000F000723A9D3A763A7A3A9D3A7E3A823A863A0E
:100100008E3A9D3A983A253B373B493B5A3B623BF6
:10011000913B663B913B6A3B6E3B913B723B763B2E
:100120007A3B823B913B8C3BC682C982B882BC82BF
:10013000C0820083CD82D182D782DB82DF82E582DA
:10014000E982ED820083F382F782FB821A841F84A6
:1001500024842E843884B18442844A8452845C840A
:10016000668470847F848984B18493849D84A78409
:100170008801280176013A014E01800184012E0197
:100180008601780166016C01320156013001680177
:1001900030013001300130013001300130013001D7
:1001A00030013001300130013001300130013001C7
:1001B00030013001300130013001300130013001B7
:1001C0003001300154013001300130013001300183
:1001D0003001300130017401300130013001300153
:1001E0003001300130013001300130014401600143
:1001F000084AD73B3BCE016E84BCBFFDC12F3D6C8E
:1002000074319ABD56833DDA3D00C77F11BED9E4F3
:10021000BB4C3E916BAAAABE000000803F05A84CD3
:10022000CDB2D44EB93836A9020C50B9918688089F
:100230003CA6AAAA2ABE000000803F000D94F40B41
:100240000D9479000D94A80E0D940D0C0D94EE01F3
:100250000D9407030D94EA010D94F6010D941F030C
:100260000D94340F0D94A8100D94520B0D94580C4E
:100270000D944A0A0D9431030D940A020D94A20EB6
:100280000D94B11F0D94260C0D94F1100D941202D3
:100290000D940E020D943A0A0D949F0D0D940D03CA
:1002A0000D9402020D94650C0D94E2100D94180F3C
:1002B0000D94FE010D94450A0D94610B0D94931F4E
:1002C0000D94B8100D94570B0D94911F0D941903B4
:1002D0000D94E7100D94FA010D941C030D94800BFE
:1002E0000D9406020D945C0B0D94BC100D940A0342
:1002F0000D942C030D94F2010D94450B0D943F0CBD
:100300000D9410030D94A50E0D9413030D94160374
:100310000D942E030D944D0B4E414E494E495459A8
:10032000494E46CDCCCC3D0AD7233C17B7D13877C0
:10033000CC2B329595E6241FB14F0A0000204100D6
:1003400000C84200401C4620BCBE4CCA1B0E5AAE20
:10035000C59D7400407A10F35A00A0724E1809002F
:1003600010A5D4E80000E87648170000E40B54021A
:100370000000CA9A3B000000E1F505000080969855
:1003800000000040420F000000A0860100000010A5
:100390002700000000E803000000006400000000E7
:1003A000000A00000000000100000000002C76D8C8
:1003B00088DC674F0823DFC1DFAE59E1B1B796E5AE
:1003C000E3E453C63AE651997696E8E6C28426EB12
:1003D000898C9B62ED407C6FFCEFBC9C9F40F2BA25
:1003E000A56FA5F490055A2AF75C936B6CF9676DBD
:1003F000C11BFCE0E40D47FEF520E6B500D0ED9012
:100400002E0300943577050080841E080000204EDE
:100410000A000000C80C333333330F986E12831177
:1004200041EF8D2114893BE65516CFFEE6DB18D14E
:10043000844B381BF77C1D901DA4BBE42420328420
:10044000725E228100C9F124ECA1E53D27434F4DA6
:100450004D554E49434154494F4E0044525952550F
:100460004E004552524F525300494E464F004543AD
:10047000484F0047322F4733206261642070617219
:10048000616D65746572730A0047322F47332062CD
:10049000616420706172616D65746572730A0053E6
:1004A0006C6565702E2E2E00486F6D6520257325B6
:1004B000732573204669727374004D302053746F36
:1004C00070004D312053746F7000436C69636B2072
:1004D000746F20526573756D652E2E2E004E6F2041
:1004E0004D6F76652E00456E642066696C65206CE4
:1004F0006973740A00426567696E2066696C6520DD
:100500006C6973740A004E6F206D656469610A003E
:10051000526573756D696E6720534400286E6F20B5
:1005200066696C65290043757272656E7420666930
:100530006C653A20005344207072696E74696E676E
:10054000206279746520004E6F74205344207072CD
:10055000696E74696E670A0043616E6E6F74206F16
:1005600070656E2073756264697220005072696EE6
:10057000742074696D653A20000A53746174733A8B
:100580002046696C616D656E7420757365643A20F0
:10059000002C204C6F6E67657374206A6F623A207E
:1005A00000546F74616C2074696D653A2000537457
:1005B0006174733A20002C204661696C65643A20AE
:1005C000002C2046696E69736865643A2000507299
:1005D000696E74733A200053746174733A20006F2B
:1005E0006B006F6666006E04690462045B044D0470
:1005F00044454255473A004D313133205300435270
:100600002D3130205633204F46462E002F2F004DDF
:1006100031343520533C696E6465783E206F7574C3
:10062000206F662072616E67652028302D31290A9F
:1006300000205200416363656C65726174696F6E7E
:100640003A20500020204D61783A200020002020E0
:100650004D696E3A2000536F667420656E64737442
:100660006F70733A200046523A0020466C6F773A1A
:10067000200020643A0020693A0020703A00496E58
:1006800076616C69642065787472756465720A00BD
:1006900020643A0020693A0020703A0064697300CF
:1006A000656E0043290A0061626C656420286D69EB
:1006B0006E2074656D702000436F6C6420657874E3
:1006C000727564657320617265200046696C616DA6
:1006D000656E742072756E6F7574206469737461D1
:1006E0006E636520286D6D293A200046696C616D46
:1006F000656E742072756E6F75742000454550529A
:100700004F4D204F4B0A004F4646004F4E00506F52
:100710007765722D6C6F7373207265636F76657287
:100720007920004D383400446F6E65207072696E18
:1007300074696E672066696C650A004D3737004D35
:10074000333100496E76616C696420657874727526
:100750006465720A004572726F72207772697469FB
:100760006E6720746F20454550524F4D210A00534B
:10077000544F505045442E20005072696E7465727B
:100780002073746F707065642064756520746F20C9
:100790006572726F72732E204669782074686520C6
:1007A0006572726F7220616E6420757365204D39B9
:1007B000393920746F20726573746172742E202829
:1007C00054656D706572617475726520697320720D
:1007D000657365742E205365742069742061667496
:1007E00065722072657374617274696E67290A009C
:1007F0004E6F20436865636B73756D20776974680D
:10080000206C696E65206E756D6265722C204C617E
:100810007374204C696E653A20004E6F2043686502
:10082000636B73756D2077697468206C696E6520E1
:100830006E756D6265722C204C617374204C696E0C
:10084000653A2000636865636B73756D206D69732D
:100850006D617463682C204C617374204C696E6503
:100860003A20004C696E65204E756D626572206994
:1008700073206E6F74204C617374204C696E652018
:100880004E756D6265722B312C204C617374204C57
:10089000696E653A20004D313130005365726961EF
:1008A0006C20737461747573206D69736D6174630A
:1008B000680A0053442072656164206572726F7229
:1008C0000A002121204B494C4C20636175736564FB
:1008D000206279204B494C4C20627574746F6E2FE6
:1008E00070696E0A002121204B494C4C20636175D0
:1008F00073656420627920746F6F206D7563682062
:10090000696E6163746976652074696D65202D2058
:1009100063757272656E7420636F6D6D616E643A9B
:100920002000627573793A20706175736564206682
:100930006F7220696E7075740A00627573793A205F
:1009400070617573656420666F7220757365720AD5
:1009500000627573793A2070726F63657373696EA4
:10096000670A004D656469612052656D6F76656444
:10097000004D6564696120496E7365727465640039
:100980004D3130303053007061757365004D363035
:1009900030002066696C616D656E745F72756E6F94
:1009A0007574200066696C616D656E745F72756E3A
:1009B0006F757420540046696C616D656E74527574
:1009C0006E6F757420540023646566696E652044FB
:1009D000454641554C545F00626564004B642000FD
:1009E0004B6920004B702000504944204175746FC2
:1009F00074756E652066696E697368656421205040
:100A0000757420746865206C617374204B702C20A1
:100A10004B6920616E64204B6420636F6E73746158
:100A20006E74732066726F6D2062656C6F772069DB
:100A30006E746F20436F6E66696775726174696F5B
:100A40006E2E680A00504944204175746F74756EAB
:100A500065206661696C6564212074696D656F75D8
:100A6000740A00504944204175746F74756E652096
:100A70006661696C6564212054656D70657261748E
:100A800075726520746F6F20686967680A00204B73
:100A9000643A2000204B693A2000204B703A200035
:100AA00020436C617373696320504944200A00201D
:100AB0004E6F206F76657273686F6F740A002054F2
:100AC000753A2000204B753A2000206D61783A205D
:100AD00000206D696E3A200020643A20002062698F
:100AE00061733A2000504944204175746F74756EEB
:100AF000652073746172740A005049442041757412
:100B00006F74756E65206661696C6564212054653B
:100B10006D706572617475726520746F6F2068699D
:100B200067680A00504944204175746F74756E659A
:100B300000504944204175746F74756E652066617C
:100B4000696C656421204261642068656174657226
:100B50002069640A004572723A207574663820660E
:100B60006F6E74206E6F7420696E697469616C6950
:100B70007A65642E004572723A2075746638206674
:100B80006F6E74206E6F7420696E697469616C6930
:100B90007A65642E004572723A2075746638206654
:100BA0006F6E74206E6F7420696E697469616C6910
:100BB0007A65642E00000C0F00FE07022503BB01BE
:100BC0007FFE08FE08FE05080806000040F0C88801
:100BD00088987810050808060000C0F8888888887A
:100BE00088F80505050600012030F83020050808C2
:100BF0000600002070F820202020E00509090600EA
:100C0000FF2070A8A8B88888702007050507000194
:100C1000D86C366CD80509090600FFF8A8888888C2
:100C20008888A8F8050A0A0600FE2050505050880F
:100C3000A8A8887003030306000340A040FFFFFF3D
:100C4000FFFFFFFFFFFFFFFFFFFFFFFFFFFFFFFFB4
:100C5000FFFFFF0000000605FF01070706020080F6
:100C6000808080800080030303060105A0A0A0050A
:100C7000060606000050F85050F850050909060015
:100C8000FF2070A8A07028A87020050707060000A4
:100C9000C8C8102040989805070706000040A0A08B
:100CA00040A89068010303060205808080030909BB
:100CB0000601FF2040408080804040200309090653
:100CC00001FF8040402020204040800507070600AB
:100CD0000020A8702070A82005050506000120202E
:100CE000F820200203030601FFC040800501010631
:100CF0000003F8020202060100C0C0050707060053
:100D0000000810102040408005070706000070888A
:100D100098A8C8887003070706010040C0404040FB
:100D200040E0050707060000708808102040F8051D
:100D30000707060000F80810300888700507070646
:100D4000000010305090F81010050707060000F85A
:100D500080F008088870050707060000304080F022
:100D6000888870050707060000F80810102020206A
:100D700005070706000070888870888870050707D7
:100D800006000070888878081060020505060100DA
:100D9000C0C000C0C00206060601FFC0C000C040BF
:100DA000800305050601012040804020050303065D
:100DB0000002F800F803050506010180402040808C
:100DC000050707060000708810202000200507078F
:100DD0000600007088B8A8B88070050707060000F4
:100DE000708888F8888888050707060000F048485A
:100DF000704848F0050707060000708880808088EA
:100E000070050707060000F04848484848F0050705
:100E100007060000F88080F08080F80507070600CC
:100E200000F88080F0808080050707060000708849
:100E30008080988870050707060000888888F888F1
:100E40008888030707060100E04040404040E00575
:100E500007070600003810101010906005070706FD
:100E600000008890A0C0A0908805070706000080B9
:100E70008080808080F805070706000088D8A88851
:100E80008888880507070600008888C8A898888889
:100E9000050707060000708888888888700507079E
:100EA000060000F08888F0808080050707060000B3
:100EB00070888888A89068050707060000F0888871
:100EC000F0A09088050707060000708880700888E9
:100ED00070050707060000F82020202020200507C5
:100EE000070600008888888888887005070706003C
:100EF00000888888885050200507070600008888E9
:100F00008888A8A850050707060000888850205048
:100F100088880507070600008888502020202005C3
:100F20000707060000F80810204080F803090906AA
:100F300001FFE080808080808080E0050707060058
:100F400000804040201010080309090601FFE0203E
:100F5000202020202020E0050303060005205088E3
:100F60000501010600FEF803030306010580402089
:100F70000505050600007008788878050707060053
:100F8000008080F0888888F00505050600007080E4
:100F90008088700507070600000808788888887828
:100FA0000505050600007088F0807005070706003B
:100FB00000304840E04040400507070600FE7088CA
:100FC00088887808700507070600008080F0888808
:100FD00088880307070601004000C0404040E00445
:100FE00009090601FE10003010101010906005076E
:100FF0000706000080808890E090880307070601BC
:1010000000C04040404040E0050505060000D0A873
:10101000A8A8A8050505060000B0C88888880505A9
:101020000506000070888888700507070600FEF036
:10103000888888F080800507070600FE7888888801
:10104000780808050505060000B0C8808080050501
:101050000506000078807008F005070706000020EC
:1010600020F82020201805050506000088888898AB
:1010700068050505060000888888502005050506D6
:1010800000008888A8A850050505060000885020A3
:1010900050880507070600FE888888502040800594
:1010A0000505060000F8102040F80309090601FFB5
:1010B0002040404080404040200109090602FF8056
:1010C00080808080808080800309090601FF804045
:1010D0004040204040408005030306000248A8909D
:1010E000FF446966663A2020200046726F6D537493
:1010F000703A00537465707065723A005261773AC5
:1011000020202020000A4C6F676963616C3A00431D
:101110006F756E7420453A004361703A004D454149
:10112000545041434B00434F4F4C45525F54454D43
:101130005045524154555245004348414D42455255
:101140005F54454D5045524154555245004241422D
:10115000595354455050494E470041524353004D56
:101160004F54494F4E5F4D4F4445530054484552EC
:101170004D414C5F50524F54454354494F4E004CE3
:101180004F4E475F46494C454E414D4500415554F1
:101190004F5245504F52545F53445F53544154553E
:1011A000530053445F5752495445005245504541FE
:1011B00054005344434152440050524F4D50545FE9
:1011C000535550504F525400484F53545F4143546D
:1011D000494F4E5F434F4D4D414E445300454D45A1
:1011E0005247454E43595F50415253455200434187
:1011F00053455F4C494748545F4252494748544E13
:1012000045535300544F47474C455F4C494748545A
:101210005300534F4654574152455F504F57455224
:10122000004255494C445F50455243454E54004C92
:101230004556454C494E475F44415441005A5F5022
:10124000524F42450052554E4F5554004155544F50
:101250004C4556454C005052494E545F4A4F42004F
:1012600050524F4752455353004155544F524550E9
:101270004F52545F54454D50004155544F524550C4
:101280004F52545F504F5300564F4C554D4554529A
:10129000494300454550524F4D0042494E41525935
:1012A0005F46494C455F5452414E534645520053A8
:1012B000455249414C5F584F4E5F584F4646004695
:1012C00049524D574152455F4E414D453A4D61722D
:1012D0006C696E20322E302E382E322D46695A69B6
:1012E0002D31313532303020284A756E202035209E
:1012F000323032312031343A33383A3237292053C0
:101300004F555243455F434F44455F55524C3A67F2
:1013100069746875622E636F6D2F4D61726C696EB2
:101320004669726D776172652F4D61726C696E20CE
:1013300050524F544F434F4C5F56455253494F4EB6
:101340003A312E30204D414348494E455F54595063
:10135000453A43522D31302056332045585452558A
:101360004445525F434F554E543A312055554944F8
:101370003A63656465326132662D343161322D34F1
:101380003734382D396231322D6335356336326664
:1013900033363766660A006F6B0A00526573656EF6
:1013A000643A20002569730025696D202569730062
:1013B0002569682025696D202569730025696420E9
:1013C0002569682025696D202569730025697920C4
:1013D000256964202569682025696D2025697300C9
:1013E000436F6F6C696E672E2E2E004865617469BD
:1013F0006E672E2E2E00452025530020573A0042BE
:10140000656420436F6F6C696E672E2E2E004265F7
:10141000642048656174696E672E2E2E00726573B4
:10142000756D656400526573756D696E6700204D5A
:1014300039322058004D323453256C6454256C6485
:10144000004739322E39452573004731462564005F
:1014500047315A2573463630300047315825735985
:1014600025734633303030004D31303650256953C6
:101470002569004D313039532569004D32303044F3
:10148000257300473238523058590047315A257376
:1014900046363030004739322E395A2573004739E5
:1014A000322E394530004D313039532569004D31E8
:1014B00039305325690020496E76616C6964206576
:1014C00078747275646572200052756E6F75742041
:1014D00044697374206D6D004C6F6164206D6D0004
:1014E000556E6C6F6164206D6D0046696C2E2044F2
:1014F00069612E004520696E206D6D5E33004D33AD
:101500003033205531204525692053256900504945
:1015100044204175746F74756E65202A00504944EB
:101520002D44202A005049442D49202A0050494486
:101530002D50202A002008204661637400200820D6
:101540004D6178002008204D696E004F6666004F9F
:101550006E004175746F74656D700024F4D4305062
:10156000C38E20C2A24017828B7011127A910D8116
:101570006CD90AA861E108C7586607615143061E85
:101580004B5D05C145A7041A411104093D9803713B
:101590003931034036DB0265339102D43054028086
:1015A0002E1D02632CEE01752AC501B028A0011082
:1015B0002781018F2564012B244B01E0223401ACEB
:1015C000211F018D200D01801FFC00841EED00975E
:1015D0001DDF00B81CD200E61BC600201BBC006447
:1015E0001AB200B219A8000A19A0006A189900D10D
:1015F00017910040178B00B516840031167E00B39A
:101600001579003A157300C7146F0058146A00EE7C
:101610001366008813630025135E00C7125B006C1D
:1016200012570015125400C111510070114F0021C2
:10163000114B00D61049008D10470046104400029F
:10164000104200C00F4000800F3E00420F3C0006D9
:101650000F3B00CB0E3800930E37005C0E35002791
:101660000E3400F30D3200C10D3100900D300060DA
:101670000D2E00320D2D00050D2C00D90C2B00AEC7
:101680000C2900850C29005C0C2700350C27000E66
:101690000C2600E80B2400C40B2400A00B23007DC3
:1016A0000B23005A0B2100390B2100180B2000F8E6
:1016B0000A1F00D90A1E00BB0A1E009D0A1D0080D9
:1016C0000A1D00630A1C00470A1B002C0A1B00119C
:1016D0000A1A00F7091A00DD091900C4091900AB3C
:1016E000091900920917007B091800630917004CBB
:1016F00009160036091600200916000A091500F51A
:10170000081500E0081400CC081400B8081400A460
:10171000081400900813007D0812006B081300588D
:1017200008120046081200340811002308110012A4
:1017300008110001081100F0071000E0071000D0A8
:10174000071000C0071000B0070F00A1071000919C
:10175000070E0083070F0074070F0065070E005780
:10176000070E0049070E003B070D002E070E002054
:10177000070D0013070D0006070D00F9060C00ED1C
:10178000060D00E0060C00D4060C00C8060C00BCD8
:10179000060C00B0060C00A4060B0099060C008D88
:1017A000060B0082060B0077060B006C060B00612F
:1017B000060A0057060B004C060A0042060A0038CB
:1017C000060A002E060A0024060A001A060A00105D
:1017D00006090007060A00FD050900F4050900EBEB
:1017E000050900E2050900D9050900D0050900C76F
:1017F000050900BE050900B5050800AD050800A5EE
:101800000509009C050800940508008C0508008463
:101810000508007C050800740508006C05070065D4
:101820000508005D050700560508004E050700473E
:101830000507004005080038050700310507002AA4
:10184000050700230507001C050600160507000F05
:101850000507000805060002050700FB040600F561
:10186000040700EE040600E8040600E2040700DBBB
:10187000040600D5040600CF040600C9040600C310
:10188000040600BD040600B7040600B1040500AC60
:10189000040600A6040600A00405009B04060095AB
:1018A000040500900406008A0405008504050080F4
:1018B0000406007A04050075040500700405006B39
:1018C00004050066040500610405005C040500577A
:1018D000040500520405004D0405004804050043BA
:1018E0000405003E0404003A0405003504050030F8
:1018F0000404002C04050027040400230405001E32
:101900000404001A04040016040500110404000D68
:10191000040400090405000404040000040400FC9D
:10192000030400F8030400F4030400F0030400ECD3
:10193000030400E8030400E4030400E0030400DC03
:10194000030400D8030400D4030400D0030400CC33
:10195000030400C8030300C503030024F404D920D2
:101960001BC40C5C0E9804C4095F0265077101F486
:1019700005F900FB04B30048048700C1036900585F
:1019800003550003034500BE023A008402310053B0
:10199000022A002902250004022000E4011C00C8DC
:1019A000011900AF011700980114008401130071A0
:1019B0000110006101100051010E0043010D0036BD
:1019C000010B002B010B0020010B00150109000C7D
:1019D00001090003010800FB000800F3000800EB08
:1019E000000700E4000600DE000600D8000600D272
:1019F000000600CC000500C7000500C2000500BDC0
:101A0000000400B9000400B5000400B1000400ADFA
:101A1000000400A9000400A5000300A20003009F29
:101A20000004009B0003009800030095000200934F
:101A3000000300900003008D0002008B000300886B
:101A40000002008600020084000300810002007F83
:101A50000002007D0002007B000200790002007796
:101A600000010076000200740002007200010071A3
:101A70000002006F0002006D0001006C0002006AAD
:101A800000010069000200670001006600010065B6
:101A900000010064000200620001006100010060BA
:101AA0000001005F0002005D0001005C0001005BBE
:101AB0000001005A000100590001005800010057C0
:101AC00000010056000100550001005400010053C0
:101AD00000000053000100520001005100010050BD
:101AE0000001004F0001004E0000004E0001004DBB
:101AF0000001004C0001004B0000004B0001004AB7
:101B000000010049000100480000004800010047B2
:101B100000010046000000460001004500000045AD
:101B200000010044000100430000004300010042A6
:101B3000000000420001004100000041000100409F
:101B40000001003F0000003F0001003E0000003E99
:101B50000001003D0000003D0001003C0000003C91
:101B60000000003C0001003B0000003B0001003A87
:101B70000000003A0001003900000039000100387F
:101B80000000003800000038000100370000003776
:101B9000000100360000003600000036000100356C
:101BA0000000003500000035000100340000003462
:101BB0000000003400010033000000330000003357
:101BC000000100320000003200000032000100314C
:101BD0000000003100000031000100300000003042
:101BE000000000300001002F0000002F0000002F37
:101BF0000000002F0001002E0000002E0000002E2B
:101C00000001002D0000002D0000002D0000002D1F
:101C10000001002C0000002C0000002C0000002C13
:101C20000001002B0000002B0000002B0000002B07
:101C30000001002A0000002A0000002A0000002AFB
:101C400000010029000000290000002900000029EF
:101C500000000029000100280000002800000028E2
:101C600000000028000000280001002700000027D5
:101C700000000027000000270000002700010026C8
:101C800000000026000000260000002600000026BC
:101C900000010025000000250000002500000025AF
:101CA00000000025000000250001002400000024A1
:101CB0000000002400000024000000240001002394
:101CC0000000002300000023000000230000002388
:101CD0000000002300000023000100220000002279
:101CE000000000220000002200000022000000226C
:101CF000000100210000002100000021000000215F
:101D0000000000210000002100000021000100204F
:101D10000000002000000020000000200000002043
:101D20000000002000000020000000200001001F33
:101D30000000001F0000001F0000001F0000001F27
:101D40000000001F0000001F0001001E0000001E18
:101D50000000001E0000001E0000003930000033AB
:101D600025000087190000B00F0000DB080000BD4F
:101D7000040000740200003F010000426564004559
:101D80006E636C6F73757265002568753A25303225
:101D900068750025303268753A2530326875002044
:101DA0002020202020200020202020001FE02010C4
:101DB000201020101020102020102010303008405B
:101DC000048003001FE03FF03FF03FF01FE01FE002
:101DD0003FF03FF03FF00FC0078003003FFFF038B7
:101DE000007030FC3020FC102078102030102C00C7
:101DF000D02E31D02F7BD02F7BD02E31D02C00D0C5
:101E000020301020781020FC1030FC303800703F5B
:101E1000FFF03FFFF03800703186302387102787AE
:101E2000902F87D02F03D0203010207810207810EA
:101E30002030102F03D02F87D02787902387103191
:101E400086303800703FFFF01FFFF81FFFF80410C6
:101E500040020820020820041040082080104100A1
:101E60001041000820800410400000001FFFF81FF0
:101E7000FFF8000000001E0000000021000000002C
:101E8000271DC08C00272121920041212092008E25
:101E900021CE920090212092011021209201201D3C
:101EA00021CC0220000000041001130008100114CE
:101EB000801008011080200400A30047F200A080D9
:101EC00043E2004480200400430018D800000019B9
:101ED0008400000021FC0000003F00554E4C4F41A3
:101EE000442046494C414D454E54004C4F414420FE
:101EF00046494C414D454E540046494C414D454E96
:101F000054204348414E474500426564004E6F7A75
:101F10007A6C650046616E20537065656400436F9E
:101F20006E66696775726174696F6E00526573746D
:101F30006F72652044656661756C7473004C6F61E7
:101F4000642053657474696E67730053746F7265AF
:101F50002053657474696E677300507265686561BB
:101F600074202420436F6E6600506F776572204F97
:101F70007574616765004F6666004F6E0052756E3E
:101F80006F75742053656E736F7200416476616E75
:101F90006365642053657474696E6773004D61698D
:101FA0006E004D37303220542564004D36303020DD
:101FB000423020542564004D373032203B256400E8
:101FC0004D37303120542564004D373032004D37C5
:101FD0003031004D363030204230004D61696E00A6
:101FE000436F6E74696E7565004F6666004F6E00D4
:101FF00052756E6F75742053656E736F72005075F5
:10200000726765206D6F726500524553554D4520CE
:102010004F5054494F4E533A005052494E5420505D
:1020200041555345440020204E6F7A7A6C653A2022
:10203000005045544700504C410000000A0B020973
:102040000C0D0E0807030401000000000000000052
:102050000000000000000000000000000000000080
:10206000000000000000121110000000000000003D
:102070000000000000000000000000000000000060
:10208000004D6F76652025736D6D004D6F76652070
:10209000302E316D6D004D6F766520316D6D004DC8
:1020A0006F76652031306D6D004D6F76652041781B
:1020B0006973004578747275646572004D6F76655A
:1020C000205A004D6F76652059004D6F7665205877
:1020D00000362031204368616E67652046696C6177
:1020E0006D656E7400556E6C6F61642046696C613D
:1020F0006D656E74004C6F61642046696C616D653E
:102100006E74005072656865617420437573746FF6
:102110006D00507265686561742024004261636BD4
:102120000066696C616D656E74007A5F6D696E0042
:10213000795F6D696E00785F6D696E005265706FD2
:102140007274696E6720656E6473746F7020737447
:10215000617475730A0020746F6F206C6F6E672056
:10216000657874727573696F6E2070726576656ECE
:102170007465640A0020636F6C64206578747275FE
:1021800073696F6E2070726576656E7465640A009F
:102190000000000000000000000000005761726EA7
:1021A000696E673A20486F6D696E672042756D7081
:1021B0002044697669736F72203C20310A00020264
:1021C0000400009B4300009B430000C8430000A0A4
:1021D000400000A04000000040FFFFFF00000001A1
:1021E000000000010000800055555500000040002F
:1021F00033333300AAAA2A004992240000002000A9
:10220000C7711C0099991900D14517005555150043
:102210003BB11300244912001111110000001000FD
:102220000F0F0F00E3380E0043790D00CCCC0C00EB
:10223000C3300C00E8A20B0064210B00AAAA0A001C
:10224000703D0A009DD80900427B090092240900D4
:10225000DCD308008888080010420800000008004D
:10226000F0C107008787070075500700711C070041
:102270003EEB0600A1BC06006990060066660600FB
:10228000703E06006118060017F4050074D10500C1
:102290005BB00500B290050062720500555505005F
:1022A00078390500B81E0500050505004EEC040050
:1022B00087D40400A1BD040090A704004992040043
:1022C000C17D0400EE690400C756040044440400C4
:1022D0005C320400082104004110040000000400E6
:1022E0003FF00300F8E0030026D20300C3C303005D
:1022F000CCB503003AA803000A9B0300388E030004
:10230000C08103009F750300D0690300505E030085
:102310001D53030034480300913D03003333030091
:1023200016290300381F030097150300300C030023
:10233000030303000BFA020049F10200BAE80200AD
:102340005CE002002DD802002DD0020059C8020026
:10235000B0C0020031B90200DAB10200AAAA02003C
:10236000A0A30200BC9C0200FA9502005C8F020050
:10237000DF88020082820200457C0200277602008C
:1023800027700200436A02007C640200D05E0200F3
:102390003F590200C8530200000000000000006026
:1023A0000000000000FC00000FF00000000007E04B
:1023B0000000000001861FC01870000000000060CF
:1023C0003C0C000001830C60103000000000006035
:1023D0003C0C000001830C30303000000000006035
:1023E000000C000000030C1830000000000000602A
:1023F000003F0F3C00030C0C6001DF0FE0FE0060AB
:102400001C1C061800060C0C6000F31831830060D9
:102410000C0C0318001E0C0C6000E03039830060C7
:102420000C0C033000030C0C6000C030380F00604F
:102430000C0C033000018C0C6000C03FF8FB006006
:102440000C0C033000018C0C6030C0300183006044
:102450000C0C01F001818C0C6030C03001830060F5
:102460000C0C00E001818C183030C0183183006002
:102470000C0C40E001838C301860C00C6187C0E018
:102480001C0CC06000C30C600FC3F007C0FFC7FC8A
:102490007F0781C0007E1FC0000000000000000018
:1024A0000000070000000000000000000000000025
:1024B00000000700000000006D61726C696E6677B5
:1024C0002E6F726700322E302E382E322D46695A0A
:1024D000692D313135323030001FFFFFFFFFFFFF24
:1024E000600000000001FF400000000000FF8000CD
:1024F000000000007F83CF00000C303F87FF80008A
:102500000C301F867980000C000F8C30C7838C3014
:10251000E78C30CFC7CC31F38C30DCECEC33B98CAA
:1025200030D86C6C33198C30D06C0C33198C30D89B
:102530006C0C33198C30DC6C0E3B198C30CF7C0763
:102540009F198C30C77C038F1940000000000002E7
:10255000600000000000061FFFFFFFFFFFF8700192
:102560002C0190012701B0012201C0011D01F001E1
:1025700018011002130130020E01600209019002DD
:102580000401C002FF000003FA004003F5008003CD
:10259000F000D003EB002004E6007004E100E0044A
:1025A000DC004005D700C005D2004006CD00D006B3
:1025B000C8008007C3003008BE00F008B900C00999
:1025C000B400B00AAF00B00BAA00D00CA500000EFA
:1025D000A000500F9B00C0109600501291000014F4
:1025E0008C00C0158700B0178200B0197D00D01B89
:1025F0007800001E730040206E0090226900F024D5
:10260000640040275F0090295A00E02B5500102EEF
:10261000500020304B0010324600E033410090352E
:102620003C001037370070383200A0392D00B03A26
:102630002800A03B2300603C1E00103D1900903D87
:102640001400103E0F00703E0A00C03E0500003F1F
:102650000000403FFBFF803FF6FFC03FF1FF20201E
:10266000506C616E6E657242756666657242797411
:1026700065733A20002046726565204D656D6F7266
:10268000793A2000436F6D70696C65643A204A7531
:102690006E20203520323032310A00204C617374B4
:1026A00020557064617465643A20323032312D30C7
:1026B000362D30352031343A3238207C2041757443
:1026C000686F723A2046695A6920626173656420B6
:1026D0006F6E204161726F6E204A7573742C2043B7
:1026E0005231302D5633290A00322E302E382E32F8
:1026F0002D46695A692D3131353230300A004D612D
:10270000726C696E0020536F667477617265205237
:10271000657365740A00205761746368646F67208D
:1027200052657365740A002042726F776E206F7570
:10273000742052657365740A002045787465726E62
:10274000616C2052657365740A00506F776572552D
:10275000700A0073746172740A0047323858590065
:102760004D31303031006572726F7220777269744A
:10277000696E6720746F2066696C650A00446F6E2D
:102780006520736176696E672066696C652E0A0044
:102790004D323900456E6473746F70730025532099
:1027A000256320256320256320256300205A3A00F5
:1027B00020593A0020583A00656E6473746F707344
:1027C000206869743A20003F004261636B005374D3
:1027D0006F70004E6F204D65646961005072696EC4
:1027E000742066726F6D204D656469610043686195
:1027F0006E6765204D65646961004D323100436844
:10280000616E67652046696C616D656E7400436F2B
:102810006E66696775726174696F6E0054656D707C
:1028200065726174757265004D6F74696F6E0052E8
:102830006573756D65205072696E740041626F75C5
:1028400074205072696E7465720043616E63656CCA
:10285000204F626A6563740054756E650053746F2F
:1028600070205072696E74005061757365205072EB
:10287000696E7400496E666F2053637265656E0001
:102880003F005374617274205072696E740043612A
:102890006E63656C005072696E740043616E6E6F9A
:1028A0007420656E746572207375626469723A2073
:1028B00000022E2E004D61696E00436F6F6C646FD5
:1028C000776E005072656865617420240046616E01
:1028D000205370656564207E00426564004E6F7A07
:1028E0007A6C65004D61696E00466C6F77004661D9
:1028F0006E205370656564207E00426564004E6FF3
:102900007A7A6C65005370656564004D61696E008C
:10291000486F6D696E67204661696C6564006F7011
:10292000656E00545249474745524544003A2000DD
:10293000FFFDFCFAF8F6F4F2F0EEECEAE9E7E5E385
:10294000E1E0DEDCDAD9D7D5D4D2D0CFCDCBCAC83E
:10295000C7C5C3C2C0BFBDBCBAB9B7B6B4B3B2B0C5
:10296000AFADACAAA9A8A6A5A4A2A1A09E9D9C9A21
:1029700099989795949392908F8E8D8B8A8988875A
:102980008684838281807F7E7D7B7A797877767575
:1029900074737271706F6E6D6C6B6A69686766656F
:1029A00064636261605F5E5D5C5B5A59585857565C
:1029B000555453525150504F4E4D4C4B4A4A494832
:1029C000474646454443424241403F3E3E3D3C3BF4
:1029D0003B3A3938383736353534333232313030A6
:1029E0002F2E2E2D2C2B2B2A29292827272625254B
:1029F00024232322212120201F1E1E1D1C1C1B1BE3
:102A00001A1919181817161615151413131212116E
:102A100011100F0F0E0E0D0D0C0C0B0A0A090908F0
:102A20000807070606050504040303020201000067
:102A300000009B4300009B430000C84300000000CF
:102A4000000000000000000053657474696E677335
:102A50002053746F72656400290A002062797465DE
:102A6000733B20637263200053657474696E6773EF
:102A70002053746F72656420280048617264636F2C
:102A80006465642044656661756C74205365747474
:102A9000696E6773204C6F616465640A003B2000B7
:102AA00043522D31302056332052656164792E0017
:102AB0005072696E74696E672E2E2E005072696EA8
:102AC00074205061757365640020453A00205A3ABD
:102AD0000020593A00583A0020746F6F206C6F6ED6
:102AE0006720657874727573696F6E207072657691
:102AF000656E7465640A0020636F6C642065787489
:102B0000727573696F6E2070726576656E74656438
:102B10000A0020573A007C3C3E5E2B3D3F2F5B5D18
:102B20003B2C2A225C0020436F756E7420583A00BB
:102B300042656400453100626564002C207379733E
:102B400074656D2073746F707065642120486561D1
:102B50007465725F49443A200048656174696E6724
:102B6000204661696C65640048656174696E672020
:102B70006661696C6564004D31313220536875744B
:102B8000646F776E00202D20496E76616C69642039
:102B90006578747275646572206E756D62657220F9
:102BA000210A004572723A204D415854454D50005B
:102BB0004D415854454D5020747269676765726580
:102BC00064004572723A204D494E54454D50004DB7
:102BD000494E54454D50207472696767657265644B
:102BE00000544845524D414C2052554E4157415991
:102BF00000546865726D616C2052756E6177617901
:102C000000202F002042403A0020403A000A4D3276
:102C100034004D3233202573002E0A006F70656E2C
:102C2000206661696C65642C2046696C653A2000F9
:102C300046696C652073656C65637465640A002081
:102C400053697A653A200046696C65206F70656E3D
:102C500065643A2000454E4420535542524F555426
:102C6000494E450A002220706F7300222070617265
:102C7000656E743A2200535542524F5554494E45A1
:102C80002043414C4C207461726765743A220053B2
:102C9000756263616C6C204F766572666C6F77004D
:102CA0004578636565646564206D6178205355429D
:102CB000524F5554494E452064657074683A002E51
:102CC0000A0044656C6574696F6E206661696C65A5
:102CD000642C2046696C653A200046696C65206466
:102CE000656C657465643A002F6175746F25632E99
:102CF000670057726974696E6720746F2066696C2B
:102D0000653A2000667265736800646F696E6700DB
:102D10002066696C653A20004E6F77200020204DB8
:102D2000363033200020440020204D3431322053EF
:102D30000046696C616D656E742072756E6F757496
:102D40002073656E736F723A002055004C0046691F
:102D50006C616D656E74206C6F61642F756E6C6F45
:102D60006164206C656E677468733A0020204D348E
:102D70003133205300506F7765722D4C6F73732081
:102D80005265636F766572793A00204400204900ED
:102D900020204D33303420500020440020490020B2
:102DA000204D3330312050005049442073657474F5
:102DB000696E67733A0020460020480020204D319C
:102DC00034352053004D6174657269616C2068650B
:102DD0006174757020706172616D65746572733AAB
:102DE0000020580020530020204D32303520420072
:102DF000416476616E6365643A20423C6D696E5F42
:102E00007365676D656E745F74696D655F75733E3C
:102E100020533C6D696E5F66656564726174653EE2
:102E200020543C6D696E5F74726176656C5F666597
:102E30006564726174653E20583C6D61785F785FAF
:102E40006A65726B3E20593C6D61785F795F6A6597
:102E5000726B3E205A3C6D61785F7A5F6A65726B77
:102E60003E20453C6D61785F655F6A65726B3E0030
:102E700020540020520020204D3230342050004198
:102E80006363656C65726174696F6E2028756E6925
:102E900074732F7332293A20503C7072696E745FDC
:102EA000616363656C3E20523C7265747261637449
:102EB0005F616363656C3E20543C74726176656C3F
:102EC0005F616363656C3E0020204D3230312058D5
:102ED000004D6178696D756D20416363656C657245
:102EE0006174696F6E2028756E6974732F7332294F
:102EF0003A00204500205A0020590020204D323051
:102F0000332058004D6178696D756D206665656484
:102F100072617465732028756E6974732F73293A12
:102F20000053746570732070657220756E69743A11
:102F30000020440020204D323030205300204469CE
:102F40007361626C65640A0046696C616D656E74DC
:102F50002073657474696E67733A0020204D3134B4
:102F6000392043203B20556E69747320696E2043DD
:102F7000656C736975730A0020286D6D2900202027
:102F8000473231202020203B20556E697473206920
:102F90006E206D6D00454550524F4D206461746147
:102FA00073697A65206572726F722E0A00290A00B1
:102FB0002062797465733B20637263200020737410
:102FC0006F7265642073657474696E6773207265CF
:102FD00074726965766564202800202863616C63DB
:102FE000756C6174656429210A0020213D2000452B
:102FF0004550524F4D20435243206D69736D6174AB
:103000006368202D202873746F7265642920002066
:1030100053697A653A2000496E6465783A20000069
:10302000803B4400803B4400007041000096420019
:1030300000A0420000A0420000C843EC11BF43D0F2
:10304000070000D007000064000000881300002083
:103050004D61726C696E3D563833290A0045455002
:10306000524F4D2076657273696F6E206D69736D76
:10307000617463682028454550524F4D3D004520FE
:1030800073746570732F6D6D005A2053746570737F
:103090002F6D6D00592053746570732F6D6D00583E
:1030A0002053746570732F6D6D00416476616E639B
:1030B00065642053657474696E6773003F004361F3
:1030C0006E63656C00496E697400496E697469616C
:1030D0006C697A6520454550524F4D0046696C61D8
:1030E0006D656E740054656D70657261747572659E
:1030F0000053746570732F6D6D004A65726B0041EB
:103100006363656C65726174696F6E0056656C6FA0
:103110006369747900436F6E66696775726174697B
:103120006F6E003F0043616E63656C204F626A659D
:103130006374004E4F005945530043616E63656CE4
:10314000204F626A656374203D004D61696E0056D0
:1031500054726176204D696E00566D696E00566D31
:103160006178204500566D6178205A00566D61786F
:10317000205900566D6178205800416D61782045D6
:1031800000416D6178205A00416D617820590041FD
:103190006D6178205800412D54726176656C004154
:1031A0002D5265747261637400416363656C0056EF
:1031B000652D4A65726B00565A2D4A65726B005632
:1031C000592D4A65726B0056582D4A65726B005036
:1031D0006C65617365205265736574005052494E89
:1031E0005445522048414C5445440025533A20252B
:1031F0005300706F7765726F6666004B494C4C45A3
:10320000442E20005072696E7465722068616C747F
:1032100065642E206B696C6C28292063616C6C6579
:1032200064210A006563686F3A004572726F723AF2
:10323000002F2F616374696F6E3A0070726F6D704A
:10324000745F00656E6400486F74656E6420746F0F
:103250006F20636F6C640A0053656E64204D3130DB
:103260003820746F20726573756D650A00496E733E
:103270006572742066696C616D656E7420616E6440
:103280002073656E64204D3130380A0052656865E0
:10329000617420446F6E6500526568656174696E83
:1032A000672E2E2E00526568656174004865617452
:1032B00065722054696D656F75740053656E642086
:1032C0004D31303820746F2068656174206E6F7ADC
:1032D0007A6C650A004E6F7A7A6C65205061726B69
:1032E0006564007061757365640050617573650095
:1032F0006E6F74696669636174696F6E20006E6FCA
:1033000074696669636174696F6E200063616E63DE
:10331000656C005072696E742041626F72746564EE
:10332000004469736D6973730055492041626F727F
:10333000746564004D323520500A4D3234005265B8
:1033400073756D6500554920506175736500506156
:103350007573696E672E2E2E00726573756D65002C
:103360004D323400454550524F4D205665727369B9
:103370006F6E204572726F7200454550524F4D205E
:10338000496E646578204572726F720045455052EF
:103390004F4D20435243204572726F72003F0049E7
:1033A000676E6F726500526573657400496E69746B
:1033B00069616C697A6520454550524F4D005061F6
:1033C000726B696E672E2E2E0000005761697420A3
:1033D000666F720066696C616D656E74206368610A
:1033E0006E676500746F2073746172740057616951
:1033F0007420666F720066696C616D656E7420750D
:103400006E6C6F616400004E6F7A7A6C652068653F
:103410006174696E6700506C6561736520776169DE
:10342000742E2E2E000050726573732062757474B2
:103430006F6E00746F2068656174206E6F7A7A6CAD
:10344000650000496E736572742066696C616D6514
:103450006E7400616E64207072657373206275749F
:10346000746F6E00746F20636F6E74696E756500A3
:103470005761697420666F720066696C616D656E74
:1034800074206C6F61640000507265737320427524
:1034900074746F6E00746F20726573756D65207043
:1034A00072696E7400005761697420666F722070D3
:1034B00072696E7400746F20726573756D652E2E5F
:1034C0002E00005761697420666F720066696C6136
:1034D0006D656E7420707572676500003E20002572
:1034E0006C642E25696D004578747275646564207E
:1034F000546F74616C003E20004C6F6E676573748E
:10350000204A6F622054696D65003E2000546F743C
:10351000616C205072696E742054696D6500436F50
:103520006D706C65746564003A20005072696E7449
:1035300020436F756E74003A200031323000350040
:103540004245443A204550434F53203130304B00E0
:1035500052756E617761792057617463683A204FC4
:103560004E004D61782054656D7000323735004D46
:10357000696E2054656D7000350045313A20455024
:10358000434F53203130304B005053550047656E48
:10359000657269630050726F746F636F6C00312ED7
:1035A0003000426175640031313532303000437291
:1035B00065616C69747933442052414D5053004524
:1035C00078747275646572730031006D61726C6934
:1035D0006E66772E6F72670043522D31302056335E
:1035E00000323032312D30362D30352031343A3200
:1035F0003800322E302E382E322D46695A692D3140
:103600003135323030004D61726C696E0050726934
:103610006E74657220537461747300546865726DC2
:103620006973746F727300426F61726420496E66D1
:103630006F005072696E74657220496E666F004D3E
:1036400061696E004D313030300053746F7020501E
:1036500072696E7400526573756D65205072696E83
:103660007400506F776572204F7574616765004311
:10367000616E6E6F74206F70656E20737562646921
:10368000722000534420496E6974204661696C00C1
:1036900053442063617264206F6B0A006F70656E23
:1036A000526F6F74206661696C65640A00766F6C96
:1036B000756D652E696E6974206661696C65640A52
:1036C000004E6F20534420636172640A0021004859
:1036D0006F74656E6420746F6F20636F6C6400425A
:1036E00061636B0050726F63656564004F666600CE
:1036F0004F6E00536F667420456E6473746F707301
:10370000004D6F74696F6E0044697361626C65206F
:103710005374657070657273004D383400486F6D76
:1037200065205A004732385A00486F6D65205900AD
:103730004732385900486F6D652058004732385875
:10374000004175746F20486F6D6500473238004D39
:1037500061696E0050726568656174202420456E51
:1037600064005072656865617420242042656400BD
:1037700054656D7065726174757265005072696E22
:10378000742066726F6D204D656469610073686FA7
:103790007700627574746F6E00626567696E0044CD
:1037A000697361626C6552756E6F757400507572E5
:1037B00067654D6F72650050617573656400436F96
:1037C0006E74696E7565004C6F61642046696C614A
:1037D0006D656E74205400496E736572742066695D
:1037E0006C616D656E7420616E642073656E64201B
:1037F0004D3130380A00220A00556E6B6E6F776EBD
:1038000020636F6D6D616E643A20220020420020BB
:1038100050006F6B0000002200250028002B002EB6
:10382000003100340002010000050108010B010015
:10383000002100240027002A002D00300033000161
:10384000010000040107010A010505050507050837
:10385000080808020202020A0A0808040404040113
:103860000101010101010103030303030303030435
:103870000707070C0C0C0C0C0C0C0C0202020206C5
:10388000060606060606060B0B0B0B0B0B0B0B01B5
:103890000210202008081020401020408002010261
:1038A0000108040201010204081020408080402029
:1038B0001008040201800402018040201008040264
:1038C00001080402010102040810204080010204E2
:1038D00008102040800040015E0111241FBECFEF80
:1038E000D1E2DEBFCDBF00E00CBF14E0A0E0B2E04B
:1038F000EEEFFEE502E00BBF02C007900D92A63A84
:10390000B107D9F727E1A6EAB4E001C01D92AE3BAA
:10391000B207E1F71CE1CCE6DCE100E006C021974C
:103920000109802FFE010F94102CCB36D10780E0C7
:103930000807A9F70F944B1A0D946E2F0C940000F2
:103940002F923F924F925F926F927F928F929F92AF
:10395000AF92BF92CF92DF92EF92FF920F931F939D
:10396000CF93DF93CDB7DEB7CF54D1090FB6F8941C
:10397000DEBF0FBECDBF60968FAF609730907F16D1
:1039800021E020937F16809106068D3409F4F8C15A
:10399000843511F40C94632D873411F00C947F2D31
:1039A00080910406909105068531910511F40C94DF
:1039B000812D68F48430910530F42091EB08823039
:1039C0009105D8F024C0049709F4C2C0D5C18A3546
:1039D000910509F446C140F48B31910509F4F7C013
:1039E0004C9709F430C1C8C18B35910509F43DC12C
:1039F0008C35910509F43EC1BFC1233010F40C94FD
:103A0000812D0E94BB560E94F98D0C94812D23308C
:103A100010F40C94812D11E0029709F010E00E943F
:103A2000BB5619821A821B821C821D821E821F8233
:103A3000188682E50E948F55882309F453C00E949E
:103A40000E556B017C0120E030E0A9010F943D256B
:103A5000882309F45DC08091841690918516A09109
:103A60008616B091871627968CAF9DAFAEAFBFAFCD
:103A700027978091881690918916A0918A16B09107
:103A80008B162B968CAF9DAFAEAFBFAF2B978090B0
:103A9000690890906A08A0906B08B0906C084090FC
:103AA0006D0850906E0860906F0870907008A501C6
:103AB000940127966CAD7DAD8EAD9FAD27970F9489
:103AC0003D2581110C94A42DA30192012B966CAD80
:103AD0007DAD8EAD9FAD2B970F943D258823C1F012
:103AE0000C94A42D89E40E948F55882331F00E9404
:103AF0000E5569837A838B839C838AE40E948F5559
:103B0000882331F00E940E556D837E838F839887C2
:103B100020E030E0A90169817A818B819C810F943A
:103B20003D2581110C946E2E20E030E0A9016D81BD
:103B30007E818F8198850F943D2581110C946E2E86
:103B40000E9481F283E794E00E9437F20C94812D69
:103B500080E50E948F55882329F00E94CB546B0189
:103B60007C0103C0C12CD12C760183E50E948F55C6
:103B7000882361F00E940E5520E030E04AE754E4CB
:103B80000F94A2250F94682D6B017C010E9442873F
:103B90008091C415811105C060E08FE994E00E9416
:103BA00064F90E949192C60ED71EE81EF91E0E946B
:103BB0009192DC01CB018C199D09AE09BF09B7FDBB
:103BC00002C00C94812D80E00E947432F0CF0F94DB
:103BD0000A148E010F5F1F4F882311F40C948E2E50
:103BE00082FF03C041E954E002C044EA54E081FF8F
:103BF00003C023E934E002C024EA34E080FF03C0BC
:103C000085E994E002C084EA94E05F934F933F9388
:103C10002F939F938F9388EA94E09F938F931F93A2
:103C20000F930F94D7240E9484F2C8010E9460541D
:103C300060E0C8010E940FFA0FB6F894DEBF0FBE15
:103C4000CDBF0C94812D0F940A1481110C949F2EDA
:103C500060E08FE40E94DC5581110C94812D0C945E
:103C60009F2E1092AB040C94812D8FE08093AB04B7
:103C70000C94812D80910306882359F1893011F02D
:103C80000C94812D7DE8A72E74E0B72EE4E8CE2EAB
:103C9000E6E1DE2E00E010E0F12CD5018D915D0112
:103CA0000E948F55882369F0B3E0FB1202C011E037
:103CB00001C001E00E940E55F6016083718382838A
:103CC0009383F394F4E0CF0ED11C24E0F212E5CFFD
:103CD00044C05DE8C52E54E0D52E64E8E62E66E1CA
:103CE000F62E00E010E0212CD6018D916D010E948E
:103CF0008F55882359F10E940E554B015C01F70145
:103D000020813181428153810F941E2C2B013C0173
:103D10002DEB37E346E855EB0F94462E87FD0AC09E
:103D20002DEB37E346E855E3C301B2010F943D257F
:103D3000181664F4F3E02F1202C011E001C001E094
:103D4000D7018D929D92AD92BC9213972394B4E0CB
:103D5000EB0EF11CE4E02E12C7CF002319F00E94F5
:103D6000469006C0112321F080E996E10E9428AB1D
:103D70000E9463910C94812D0F94DF120C94812D7D
:103D800080910406909105068537910509F46FC767
:103D900008F0CFC08C34910509F49DC408F05DC0D3
:103DA0008931910509F409C318F58431910509F4A5
:103DB00042C278F48131910509F429C228F40297AE
:103DC00008F4DBC10C94602D429709F454C60C949E
:103DD000602D8631910509F463C208F45DC2873114
:103DE000910509F469C2489709F47DC20C94602DCD
:103DF0008E31910509F45DC3A8F48B31910509F466
:103E0000EEC208F4DEC28C31910509F44AC34D9725
:103E100011F00C94602D8091CA138E7F8093CA1389
:103E20000C94812D8132910509F47EC348F48F31C1
:103E3000910509F41DC4809709F44BC30C94602DBF
:103E40008934910509F434C48B34910511F00C9434
:103E5000602D0E9455320C94812D8936910509F40C
:103E6000D5C480F58335910509F4FDC5B8F48E34C9
:103E7000910509F439C408F432C48135910509F477
:103E8000DAC58235910511F00C94602D8091AB0458
:103E90008F7D80618093AB040C94812D85359105D5
:103EA00009F420C608F4E7C58C35910509F43EC62F
:103EB0008836910511F00C94602D80E00E94D24864
:103EC0000C94812D8E36910509F403C5A8F48B3628
:103ED000910509F4F0C408F4ACC48C36910511F4D2
:103EE0000C94812D8D36910511F00C94602D81E09C
:103EF0000E94D2480C94812D8137910509F44BC55D
:103F000058F48F36910509F402C58037910511F4F4
:103F10000C94812D0C94602D8237910509F4A4C670
:103F20008337910511F00C94602D0E9409520C9476
:103F3000812D8F32F1E09F0711F40C94502A08F084
:103F400078C0883C910509F484C7C8F58D37910580
:103F500009F46DC5B8F48737910509F4FBC608F478
:103F600097C68837910509F4F8C68937910511F08D
:103F70000C94602D1092A4081092A3080E94F3994B
:103F80000C94812D8139910509F4EFC650F48C38D9
:103F9000910511F00C94602D80E00E94D2460C94A3
:103FA000812D8B39910509F41BC58E3B910511F0CC
:103FB0000C94602D81E00E94D2460C94812D833DAB
:103FC000910509F4F0C7A8F48B3C910509F4ABC73F
:103FD00030F4893C910509F483C70C94602D8C3C26
:103FE000910509F4BFC78D3C910509F4C9C70C942C
:103FF000602D8C32A1E09A0711F40C94062960F42C
:104000008C3D910511F40C946F288D3D910511F4B0
:104010000C94B0280C94602D8D32E1E09E0711F4D1
:104020000C941B298E32914011F40C940D2A0C949F
:10403000602D883F31E0930711F40C94D52A08F0E5
:104040004DC08D39B1E09B0711F40C94042DD8F4C8
:104050008039F1E09F0711F40C94532A38F480332F
:10406000914011F40C949A290C94602D8A39A1E0A6
:104070009A0711F40C94812D8C39914011F40C9411
:10408000562A0C94602D853FE1E09E0711F40C94B4
:10409000CF2A78F4863E21E0920711F40C94612A2D
:1040A000843F914011F00C94602D0E941FA30C944A
:1040B000812D863FA1E09A0711F40C94D22A873F04
:1040C000914011F00C94602D61E083E50E94DC5575
:1040D00091E089270E94FDDC0C94812D8E3BE2E06B
:1040E0009E0711F40C94312CD8F4883522E0920705
:1040F00011F40C94F42A38F48C30924011F40C949E
:10410000E52A0C94602D8B35B2E09B0711F40C94DA
:10411000F72A8D3B924011F40C946F2B0C94602D78
:10412000873EF3E09F0711F40C94ED2CC8F48C3615
:1041300033E0930711F40C94812D803A934011F0F1
:104140000C94602D20910106309102069091CA13C3
:1041500092609093CA13C9010E9469D10C94812D79
:10416000883EB3E09B0711F40C94242D893E9340C4
:1041700011F40C94272D0C94602D80E50E948F552E
:10418000882329F00E94CB546B017C0103C0C12C11
:10419000D12C760183E50E948F55882361F00E941F
:1041A0000E5520E030E04AE754E40F94A2250F9426
:1041B000682D6B017C010E944287809101069091DD
:1041C0000206009721F061E00E940FFA05C060E04E
:1041D0008AEC94E00E9464F98091040690910506AF
:1041E000892B19F062EC74E002C06AEB74E020E005
:1041F00030E04EEB57E382E00E943BF540E0C70120
:10420000B6010E9416390E94A0B90C94812D8091AC
:10421000FD0584FF02C00C9419308091FF0587FFD3
:1042200002C00C94193080910006837011F00C9438
:1042300019300C9457308091CA1384FF25C085EF44
:1042400094E00E9437F28091CA1384FF17C08FEE6A
:1042500093E10E943BBE8BE1EFEEF3E1DE011196AC
:1042600001900D928A95E1F760E070E0CE01019631
:104270000F945609CE0101960E945C5A86EE94E096
:104280000E9437F20C94812D0E9484F286E095E022
:104290000E9437F20C94812D0F9447030C94812DCA
:1042A0008091CA1382FF04C087FD02C00C94812D47
:1042B0000F9434030C94812DE0910106F0910206D5
:1042C0008081882329F0803209F410823196F8CF5A
:1042D00060E080910106909102060E94B4D1109294
:1042E0001A160C94812D83E50E948F55882321F0A6
:1042F0000E94DB540E94574A84E50E948F55882310
:10430000A9F00E94DB546B017C010E943F9AC0928D
:104310000009D0920109E0920209F0920309CD2828
:10432000CE28CF2819F081E08093250980911D10B7
:104330008823F9F080E090E0A0EAB1E489839A83D1
:10434000AB83BC831C8E1D8E1E8E1F8E1FAA18AEC3
:1043500019AE1AAE00E010E020E0AE014F5F5F4FF3
:10436000BE01645E7F4FCE01C7960E94625A0C94D4
:10437000812D0E943232882381F00E9463D00E94F6
:1043800055328CE197E00E940BD01092B417109236
:10439000B5171092B6171092B71761E089E593E34D
:1043A0000E94A3F341E253E360E175E085E00F94DE
:1043B00001140E94A0B90C94812D0E94E25C0C941F
:1043C000812D8091CA1384FD02C00C94812D83E558
:1043D0000E948F5581110C9465300C94812D809131
:1043E000FD059091FE05A091FF05B091000622E029
:1043F000B695A795979587952A95D1F780FF2CC0FC
:1044000086E295E00E9437F2809136158823D9F034
:10441000BE016F5F7F4F83E395E10E9403BDCE0134
:1044200001960E94C752CE0101960E943BD1809115
:10443000BE12882361F080E20E946F328EEB92E11F
:104440000E94C75204C08CE195E00E9437F28AE0D6
:104450000E946F320C94812D8091CA1382FF1BC081
:104460004091C6135091C7136091C8137091C9133E
:1044700085E395E00E9446F28FE20E946F326091E0
:10448000C2137091C3138091C4139091C5130E94FD
:10449000B7CF0C94812D87E495E00E9437F20C94FD
:1044A000812D80910106909102060E9469D10C94A1
:1044B000812D8091CA1384FD02C00C94812D0F942C
:1044C0004E1280910106909102060E9496D40C949F
:1044D000812D8091CA1382FF03C087FF0E9442870B
:1044E0008091CA1384FD02C00C94812D60E080E5A8
:1044F0000E94DC55182F682F8091010690910206CA
:104500000E94B4D183E50E948F55882321F00E9438
:10451000DB540E94574A0E9463D011110C94812DE4
:104520000E9455320C94812D0091010610910206D3
:10453000F80101900020E9F731976F01C01AD10A04
:10454000F801CF01801B910B8C159D0534F48081FF
:104550008F3209F410823196F4CF8BE1EFEEF3E164
:10456000DE015C9601900D928A95E1F7E12CF12C29
:10457000EC14FD040CF073C0F801EE0DFF1D8081FA
:10458000811103C0FFEFEF1AFF0A5801AE0CBF1CE8
:10459000D5018C91882309F462C0BFEFEB1AFB0AA6
:1045A000F801EE0DFF1D7F01E01AF10A81918111E2
:1045B000FACFCE014C960E943BBE8BE1FE017C9669
:1045C000DE01119601900D928A95E1F7B501CE01B9
:1045D00001960F94DE03CE0101960E945C5A8FE291
:1045E0000E946F328091BE12882319F08EEB92E107
:1045F00002C087E994E00E94C7528091CA1385FFE8
:104600002EC019821C8221E0A501BE01645E7F4F8D
:10461000CE0101960E940FC281110FC08AE00E9454
:104620006F320E9484F2B50188E595E00E9478F22D
:10463000CE0101960E945C5A12C0CE014C960E9497
:10464000DEBC8BE1FE013196DE015C9601900D929D
:104650008A95E1F7CE0101960E945C5A89CF8AE0E3
:104660000E946F32CE014C960E945C5A0C94812DB0
:104670000E940C9A6C8F7D8F8E8F9F8FBE016F5F13
:104680007F4FCE014C960E94784960E0CE010196A2
:104690000E940FFA0E9484F2BE016F5F7F4F8CE68A
:1046A00095E00E9478F28AE00E946F320C94812D8E
:1046B00080E50E944155882311F40C94812D0E94BD
:1046C000EE5490E08536910510F084E690E08093FA
:1046D0001A160C94812D0E945A9A0C94812D81E017
:1046E0000E94A0A60C94812D60E070E083E50E94FA
:1046F000CF558E34910531F40E9416A70E94A0B9BF
:104700000C94812D87ED95E00E9437F2609193081B
:10471000709194088EEC95E00E9456F26091950895
:104720007091960881EC95E00E9456F26091930892
:10473000709194088091950890919608681B790B68
:1047400080912509815021E030E0823010F020E096
:1047500030E0621B730B86EB95E00E9456F28AE014
:104760000E946F328EEA95E00E9437F2809197089E
:1047700090919808A0919908B0919A088C8F9D8F7C
:10478000AE8FBF8FBE016F5F7F4FCE014C960E94F0
:104790007849BE016F5F7F4F81EA95E00E9478F211
:1047A00080919B0890919C08A0919D08B0919E08D3
:1047B0008C8F9D8FAE8FBF8FBE016F5F7F4FCE01FD
:1047C0004C960E947849BE016F5F7F4F81E995E06A
:1047D0000E9478F220E030E04AE754E460919F08BC
:1047E0007091A0088091A1089091A2080F94FB2CD1
:1047F000AB01BC0189E795E00E945FF28DE60E9463
:104800006F328AE00E946F320C94812D0E949B557A
:10481000182F87FF02C00C94882D8FED95E00E9421
:1048200037F2812F0E9435C38AE00E946F320C94C8
:10483000882D80E50F942514F82EE1E0E81710F498
:104840000C94812D8091FD0580FF05C060914F097A
:10485000062F10E002C00FEF10E089E40E948F5590
:10486000882399F00E94EE5490E01816190614F46B
:1048700081E090E026E0289FF001299FF00D1124AF
:10488000E05EF74F0481158108C083E50E948F55D3
:10489000882319F00E94DB548B01EF2DF0E0E15BDF
:1048A000F64FB8010F3F110519F010F06FEF70E0EF
:1048B00060830C94812D80E50F942514823010F0D4
:1048C0000C94812DE82FF0E0E15BF64F10820C9400
:1048D000812D8EE40E948F55882311F40C94812D34
:1048E0000E94DB54E091710222E6E29FF001112464
:1048F000EC52FD4FE08137E6E302F0011124E95F5D
:10490000F94F60837183828393830C94812D83E5B7
:104910000E944155882329F083E50F942514809344
:10492000640F0E9484F280EF95E00E9437F280913C
:10493000640F882369F186EEE82E85E0F82E00E00A
:1049400010E020E08091640F90E0A0E0B0E0002E45
:1049500004C0B695A795979587950A94D2F780FFDE
:104960000EC0DD24D394D20E222319F08CE20E94D3
:104970006F32F701859194910E9437F22D2D0F5FD0
:104980001F4F82E0E80EF11C05301105D9F65FCD0E
:1049900082EE95E05ACD83E50E948F55882381F001
:1049A0000E94EE54282F30E02D33310524F48093FB
:1049B00000020C94812D8CE3809300020C94812DD5
:1049C0000E9484F21091000287EF95E00E9437F276
:1049D000812F0E94BED78AE00E946F320C94812DF5
:1049E00083E50E948F55882311F40C94812D0E9439
:1049F000EE54182F8D3308F08CE3809326130E9419
:104A000091926B017C01212F30E0A8EEB3E00F946E
:104A1000A52BC60ED71EE81EF91EC0922213D092F7
:104A20002313E0922413F09225130C94812D0E94FD
:104A3000E25C0C94812D0E94CAC40E94538781E0DD
:104A40000E94A0A60E94673268EE73E080E090E0CA
:104A50000E9413F20E946C3260E08EEF95E00E949B
:104A600064F90C94812D8091AB048F7E80628093D9
:104A7000AB040C94812D83E50E948F558823F1F0BF
:104A80000E9491926093B20F7093B30F8093B40F12
:104A90009093B50F0E940E5520E030E04AE754E4B1
:104AA0000F94A2250F94682D609301027093020267
:104AB00080930302909304020C94812D8091FD0554
:104AC00084FF02C00C946A308091FF0587FF02C00A
:104AD0000C946A3080910006837011F00C946A3057
:104AE0000C94BC3083E50E944155882311F40C944A
:104AF000812D0E9491926093B20F7093B30F8093B7
:104B0000B40F9093B50F0E940E5520E030E04AE7B5
:104B100054E40F94A2250F94682D6093A60470931B
:104B2000A7048093A8049093A904EBC70E949B5507
:104B300087FDE7C79091FD0594FD04C09091FF05A6
:104B400097FF0AC0FDE8CF2EF4E0DF2EA5E6EA2E9F
:104B5000AFE0FA2E10E009C090910006937091F733
:104B6000682F81E00E949054CCC7D6018D916D01D1
:104B70000E948F55882309F46DC0133009F063C07B
:104B80000E940E554B015C0120E030E040EA51E408
:104B90000F943D2587FF4EC0A50194016091850FBC
:104BA0007091860F8091870F9091880F0F94FB2C46
:104BB0002B013C019B01AC016091330970913409D8
:104BC00080913509909136090F94A225609333099D
:104BD000709334098093350990933609A3019201AB
:104BE0006091950F7091960F8091970F9091980F0B
:104BF0000F94A2256093950F7093960F8093970F53
:104C00009093980F609143097091440980914509F0
:104C1000909146090F944125A30192010F94A2257A
:104C20000F94682D6093430970934409809345095C
:104C3000909346098092850F9092860FA092870FDD
:104C4000B092880F07C00E940E55F701648B758BD8
:104C5000868B978B1F5FF4E0EF0EF11C143009F088
:104C600084CF0E94BDA84DC70E94D5524AC78091EB
:104C7000010690910206009741F0DC012C9122235D
:104C800021F060E00E940FFA3CC70E94A0B939C72A
:104C9000009101061091020624E08FEFF12C30E024
:104CA000215029F1F8019081492F4B7F413421F4A3
:104CB00041814133E1F408C09035C9F491819053AA
:104CC0009A30A8F4892F08C0913421F0953421F44A
:104CD00031E002C0FF24F394A8014E5F5F4F8A01C8
:104CE0004F5F5F4FF80190819032C9F3D9CF409167
:104CF000BA13833090F4882391F02FEF280F2830D7
:104D000080F481E090E0A0E0B0E004C0880F991F3B
:104D1000AA1FBB1F2A95D2F705C0842F03C08FEFAF
:104D200001C080E06AEB73E17A8369834B838093EF
:104D3000BA1331110E9484F2FF2021F08CE096E03A
:104D40000E9437F2C8010E946054CE0101960E9471
:104D50009BF3D7C60E94E891D4C681E08093A40853
:104D60008093A3080E94F399CCC660E070E083E5CD
:104D70000E94CF55823038F00E9481F28FE096E099
:104D80000E9437F2BEC68C01112788E40E948F551D
:104D90008823E1F00E94EB548A3A910544F00E9486
:104DA000EB548530914034F40E94EB5405C08AEAFC
:104DB00090E002C084E091E026E0209FF001219F76
:104DC000F00D1124E05EF74F9183808382E40E940E
:104DD0008F558823D9F00E94EB54059744F00E9428
:104DE000EB548F36910534F40E94EB5405C085E0F6
:104DF00090E002C08EE690E026E0209FF001219F27
:104E0000F00D1124E05EF74F9383828386E40E94C5
:104E10008F55882309F475C60E94EB5497FD09C08D
:104E20000E94EB548F3F910509F034F40E94EB543B
:104E300005C080E090E002C08FEF90E026E0209F68
:104E4000F001219FF00D1124E05EF74F95838483DC
:104E500058C60E949B55182F87FD53C60091AA156E
:104E600084E40E948F55882311F40C94BF300E9473
:104E70000E556B017C0120E030E0A9010F943D2527
:104E8000882341F124E01202F0011124EA55FA4E80
:104E9000C082D182E282F38220E030E0A9016091F9
:104EA000A6157091A7158091A8159091A9150F943A
:104EB0003D2581110CC080E090E0A0EEBFE380931F
:104EC000A6159093A715A093A815B093A91501E076
:104ED0000C94BF3080E08093AA150E94CD8611C645
:104EE0000E949B5587FD0DC6EDE8EE2EE4E0FE2EF8
:104EF00005E61FE0D7018D917D010E948F55882323
:104F000059F00E940E550F94682DF801608371834B
:104F1000828393830E9476A80C5F1F4FFFE00537C2
:104F20001F0741F7EEC50E949B5587FDEAC57DE846
:104F3000E72E74E0F72E05E61FE0D7018D917D0185
:104F40000E948F55882339F00E940E55F80164A302
:104F500075A386A397A30C5F1F4FFFE005371F07BC
:104F600061F7CFC58091FE0587FF02C00C94C53064
:104F70008091FF058E7011F00C94C5300C940B31AC
:104F80008091FD05827111F00C9432318091FF0502
:104F90008C7811F00C94323180910006837011F0FE
:104FA0000C943231AEC58091410290914202A091A1
:104FB0004302B091440227968CAF9DAFAEAFBFAF16
:104FC00027974090450250904602609047027090AB
:104FD00048028090490290904A02A0904B02B09003
:104FE0004C02C0904D02D0904E02E0904F02F090E3
:104FF00050028091510290915202A0915302B091BF
:1050000054022F968CAF9DAFAEAFBFAF2F9780915C
:10501000550290915602A0915702B09158022B96DA
:105020008CAF9DAFAEAFBFAF2B970E9484F286E5E9
:1050300096E00E9437F283E50E944155882321F0D3
:105040000E94FF5480933F0280913F02882319F011
:105050008BE097E002C087E097E00E9437F28EE491
:1050600096E00E9437F227964CAD5DAD6EAD7FADF8
:10507000279781EE9DE20E945FF2B301A20188EFC3
:105080009EE20E945FF2B501A40185EF9EE20E94BC
:105090005FF28CE496E00E9437F284E496E00E948E
:1050A00037F2B701A60181EE9DE20E945FF22F96D2
:1050B0004CAD5DAD6EAD7FAD2F9788EF9EE20E9447
:1050C0005FF22B964CAD5DAD6EAD7FAD2B9785EF4E
:1050D0009EE20E945FF28AE00E946F3212C582E473
:1050E0000E944155882341F080912A0290912B0221
:1050F000909306028093050282E50E944155882321
:1051000041F0809105029091060290932B028093CA
:105110002A0283E50E948F55882331F00E94EB54C8
:1051200090932B0280932A028091FD059091FE05B9
:10513000A091FF05B0910006892B8A2B8B2B09F0DB
:10514000E0C460912A0270912B0286E696E00E94EC
:105150006FF285E20E946F328AE00E946F32D1C402
:105160000E949B55082F87FDCCC483E50E948F5574
:10517000002E000C110B882361F10E94EB54F80102
:10518000EE0FFF1FE05DFD4F91838083000F111F25
:10519000000F111FD801A75ABD4F7D01BC01990F07
:1051A000880B990B0F9443252AE037ED43E25CE32B
:1051B0000F94A225F801E758F74F208131814281F1
:1051C00053810F94A225F7016083718382839383B7
:1051D00098C40E9484F265E488EB93E10E94FAF59A
:1051E00080E3800F0E946F32000F111FF801E05D15
:1051F000FD4F608171818AE696E00E946FF285E240
:105200000E946F328AE00E946F327BC464E071E0DA
:1052100083E50E94BE558C0168EE73E080E50E9434
:10522000BE558938F3E19F0710F088E893E1B80193
:105230000E9416A166C485E40F942514811173C0E1
:1052400080E50E944155882351F00E940E556093DD
:105250003F0870934008809341089093420889E486
:105260000E944155882381F00E940E552CEA35ECAE
:1052700047E25EE30F94A2256093430870934408CD
:10528000809345089093460884E40E944155882302
:1052900081F00E940E552CEA35EC47E25EE30F9454
:1052A000FB2C6093470870934808809349089093BB
:1052B0004A080E9484F240913F0850914008609152
:1052C0004108709142088AE796E00E945FF22CEA5A
:1052D00035EC47E25EE360914308709144088091A9
:1052E0004508909146080F94FB2CAB01BC0186E762
:1052F00096E00E945FF22CEA35EC47E25EE36091B3
:105300004708709148088091490890914A080F9485
:10531000A225AB01BC0182E796E00E945FF28AE021
:105320000E946F32EEC30E9481F28EE796E00E94E7
:1053300037F2E7C380E50E944155882351F00E946F
:105340000E55609314087093150880931608909377
:10535000170889E40E944155882381F00E940E5568
:105360002CEA35EC47E25EE30F94A225609318081F
:105370007093190880931A0890931B0884E40E9484
:105380004155882381F00E940E552CEA35EC47E206
:105390005EE30F94FB2C60931C0870931D088093B0
:1053A0001E0890931F080E9484F2409114085091A7
:1053B0001508609116087091170888E996E00E9418
:1053C0005FF22CEA35EC47E25EE3609118087091D9
:1053D000190880911A0890911B080F94FB2CAB01BF
:1053E000BC0184E996E00E945FF22CEA35EC47E2CA
:1053F0005EE360911C0870911D0880911E089091D9
:105400001F080F94A225AB01BC0180E996E00E9421
:105410005FF28AE00E946F3274C383E50E944155B7
:10542000182F882369F00E94EB549C0190933E0250
:1054300080933D0291E0232B09F090E09093FB08CC
:1054400080E50E944155882359F020913D0230911A
:105450003E02232B11F00E94FF548093FB0851C39E
:1054600011114FC30E9484F288EB96E00E9437F23C
:105470008091FB08882319F080EA96E002C08CE94D
:1054800096E00E9437F260913D0270913E0287EAF9
:1054900096E00E946FF283EA96E00E9437F231C3F1
:1054A0000E941D412EC30E9442872BC38091FD059F
:1054B000887809F042C78091FF05867009F03DC7E2
:1054C0007CC784E50E9441558823A1F01092B41551
:1054D0001092B5151092B6151092B7151092B81516
:1054E0008FEF0E94F0F161E070E084E50E94CF55FB
:1054F0008093B81583E50E944155882321F00E94CE
:10550000EB540E94F0F183E40E944155882331F06E
:1055100080916802803210F40E94C4F180E50E94FC
:105520004155882331F00E94EB54803210F40E94E0
:10553000C4F185E50E944155882309F4E2C20E9426
:10554000EB54803208F0DDC241E050E060E070E0F2
:10555000082E04C0440F551F661F771F0A94D2F708
:1055600040955095609570950091B4151091B515C2
:105570002091B6153091B715402351236223732330
:105580004093B4155093B5156093B6157093B71545
:10559000909168028913B5C21092630FB2C20E9443
:1055A0001BABAFC20E94C4A9ACC22093AC150E9431
:1055B00013A31092AC15882309F4A3C20E9484F2AD
:1055C0008CEF96E00E9437F29CC28091CA1382FF52
:1055D00006C087FD04C080688093CA1392C284FF0E
:1055E00090C20F944E128DC20E94E65B8AC20E9446
:1055F0009B55082F87FD85C285E50E94415588236C
:10560000A9F1E02E002E000CFF080E940E554B0160
:105610005C0120E030E0A9010F94462E87FF04C012
:10562000B7FAB094B7F8B094C70123E0880F991F78
:105630002A95E1F7DC01A256BA4E7D01FD01808278
:105640009182A282B38220E030E849ED53E4C501A3
:10565000B4010F94462E18164CF480E090E8A9EDA2
:10566000B3E4F70180839183A283B3838CE40E9427
:105670004155882309F445C2002E000C110B0E94ED
:105680000E556B017C0120E030E0A9010F94462EFD
:1056900087FF04C0F7FAF094F7F8F09420E030E8C0
:1056A00049ED53E4C701B6010F94462E980193E0EB
:1056B000220F331F9A95E1F7F901E256FA4E1816B8
:1056C0002CF0C482D582E682F7821BC280E090E88B
:1056D000A9EDB3E484839583A683B78312C20E94A5
:1056E0009B55182F87FD0DC28AE50E948F55882390
:1056F00031F08AE50F94ED125B016C0106C0A12C1C
:10570000B12C00E2C02E81E4D82E412F63E085E069
:105710000F94F30220918C1630918D1640918E16C5
:1057200050918F1660E070E088EC93E40F941E2C8B
:105730007B018C019501A6010F94462E181614F4D6
:1057400075018601C701D80123968CAF9DAFAEAF1E
:10575000BFAF239720E030E0A901B701C8010F9443
:105760003D25882321F0CE01CF960F943D1880E08F
:1057700090E0A0EAB1E48BAF9CAFADAFBEAF1FAA83
:1057800018AE19AE1AAE8CE40E944155882329F058
:105790000E940E556B017C0108C0C090A215D090EC
:1057A000A315E090A415F090A51520E030E0A90124
:1057B000C701B6010F94462E87FF04C0F7FAF09494
:1057C000F7F8F094CC8EDD8EEE8EFF8E00913C08C3
:1057D00010913D080430110564F00E94343D801B97
:1057E000910B97FF03C091958195910901E0049772
:1057F0000CF400E063E080E00E949CF2811106C09E
:1058000040E063E089E00F94F3020DC013E0E12E65
:1058100022E0AE01455C5F4FBE01645E7F4FCE016A
:10582000C7960F94F61223968CAD9DADAEADBFAD6D
:105830002397BC01CD01905869837A838B839C8325
:1058400020E030E0A9010F943D25882321F0CE010E
:1058500001960F943D1840E060E089E00F94F30258
:1058600050C10E949B55182F87FD4BC18AE50E94AD
:105870008F55882331F08AE50F94ED124B015C01BE
:1058800006C0812C912CB0E2AB2EB1E4BB2E412F8F
:1058900064E083E00F94F30220E030E0A901C50149
:1058A000B4010F94462E18167CF580E090E0A0EA33
:1058B000B0E489839A83AB83BC8320918C163091AA
:1058C0008D1640918E1650918F16C501B4010F941C
:1058D0001F2C6B017C0120E030E048EC53E40F9476
:1058E0003D2587FD06C0C12CD12CA8ECEA2EA3E4EF
:1058F000FA2ECC8EDD8EEE8EFF8EBE016F5F7F4F57
:10590000CE014C960E94798F85E50E9441558823EF
:1059100029F00E940E556B017C010AC028E012029A
:10592000F0011124E256FA4EC080D180E280F3806B
:1059300020E030E0A901C701B6010F94462E87FF91
:1059400004C0F7FAF094F7F8F094F7FAF094F7F847
:10595000F094C982DA82EB82FC8244E061E0CE01FD
:1059600001960E94EDF220E030E0A901C501B401EA
:105970000F94462E18165CF580E090E0A0EAB0E4A3
:1059800089839A83AB83BC83A501940160918C16B3
:1059900070918D1680918E1690918F160F941E2CFB
:1059A0006B017C0120E030E0A9010F94462E18160F
:1059B0001CF0C12CD12C7601CC8EDD8EEE8EFF8EAC
:1059C000BE016F5F7F4FCE014C960E94798F40E001
:1059D00060E089E00F94F30294C083E08093EB08C9
:1059E0001092191660E083E50E94DC55811189C090
:1059F000E091710232E6E39FF0011124EC52FD4F79
:105A000080810E94C84A7DC083E50E944155882359
:105A100039F00E94FF548093AB150E94C35771C0A8
:105A20000E9484F28EE097E00E9437F28091AB15DD
:105A3000882319F08BE097E002C087E097E00E948E
:105A400037F28AE04CD55DC00E94EA575AC00E94E6
:105A500042878091CA13877F8B7F8093CA130E94ED
:105A60003FD481114EC00E94BB570E94FED40E94B9
:105A70000C9A6D3371058105910520F08FE397E055
:105A80000F9475178BE397E00F94751784EE80934E
:105A90001A168AEB93E19A8389838091BA138B83D8
:105AA0008FEF8093BA1387E297E00E9437F2CE011E
:105AB00001960E949BF383E297E00F94751721C033
:105AC0000F94DF121EC0109104060E949192609301
:105AD000B20F7093B30F8093B40F9093B50F11234F
