:100000000C9462210C9493210C9493210C949321D1
:100010000C9493210C9493210C9493210C94932190
:100020000C9493210C9493210C9493210C94932180
:100030000C9493210C9493210C9493210C94932170
:100040000C9493210C949F830C9493210C949321F2
:100050000C9493210C9493210C946EA40C949DAF5A
:100060000C9493210C940B420C94F7410C94932123
:100070000C9493210C9493210C9493210C94932130
:100080000C94E9400C9493210C9493210C949321AB
:100090000C9417410C9401420C9493210C949321DD
:1000A0000C9493210C9493210C94BB400C949321B9
:1000B0000C9493210C9493210C9493210C949321F0
:1000C0000C9493210C9493210C9493210C949321E0
:1000D0000C9493210C9493210C9493210C949321D0
:1000E0000C949321464158416A417B418341B2417E
:1000F0008741B2418B418F41B241934197419B412E
:10010000A341B241AD413A424C425E426F42774216
:10011000A6427B42A6427F428342A64287428B424E
:100120008F429742A642A14202AB05ABF4AAF8AABD
:10013000FCAA3CAB09AB0DAB13AB17AB1BAB21ABB4
:1001400025AB29AB3CAB2FAB33AB37AB54AC59AC85
:100150005EAC68AC72ACEBAC7CAC84AC8CAC96ACFA
:10016000A0ACAAACB9ACC3ACEBACCDACD7ACE1ACF9
:1001700039B814B817B83CB81AB81DB820B82CB89C
:1001800023B838B826B829B86A0136017E0156016D
:100190007E017E017E017E017E017E017E017E0167
:1001A0007E017E017E017E017E017E017E017E0157
:1001B0007E017E017E017E017E017E017E017E0147
:1001C0007E017E0196017E017E017E017E017E011F
:1001D0007E017E017E0150017E017E017E017E0155
:1001E0007E017E017E017E017E017E0144015C0173
:1001F000084AD73B3BCE016E84BCBFFDC12F3D6C8E
:1002000074319ABD56833DDA3D00C77F11BED9E4F3
:10021000BB4C3E916BAAAABE000000803F05A84CD3
:10022000CDB2D44EB93836A9020C50B9918688089F
:100230003CA6AAAA2ABE000000803F000D94BF027F
:100240000D948D1D0D94E7230D945B240D94A6024F
:100250000D94BC1E0D94FD5E0D942D1B0D946B270B
:100260000D94201B0D949F430D94271B0D940F4458
:100270000D9463270D9493010D94A3020D94072A06
:100280000D94B9020D94311B0D94DE450D94562446
:100290000D94FF230D94361B0D94BA230D94711801
:1002A0000D949A450D94F0070D94AC010D94C7453B
:1002B0000D948B180D9478270D9445440D941724B4
:1002C0000D94CE260D94CA260D94FB5E0D94C62681
:1002D0000D94F81B0D948B450D94D31A0D9447047F
:1002E0000D9499430D942F240D94981A0D94C523C1
:1002F0000D940F270D941B5F0D94BA4D0D94484437
:100300000D94BA010D943D180D947A240D9457184C
:100310000D944C240D9447240D94A51A0D94A0021D
:100320000D94C2260D94171B0D949D020D94C1458A
:100330000D94F5070D949C430D945D060D94512486
:100340000D9404290D94B91A4E414E494E49545901
:10035000494E46CDCCCC3D0AD7233C17B7D1387790
:10036000CC2B329595E6241FB14F0A0000204100A6
:1003700000C84200401C4620BCBE4CCA1B0E5AAEF0
:10038000C59D7400407A10F35A00A0724E180900FF
:1003900010A5D4E80000E87648170000E40B5402EA
:1003A0000000CA9A3B000000E1F505000080969825
:1003B00000000040420F000000A086010000001075
:1003C0002700000000E803000000006400000000B7
:1003D000000A00000000000100000000002C76D898
:1003E00088DC674F0823DFC1DFAE59E1B1B796E57E
:1003F000E3E453C63AE651997696E8E6C28426EBE2
:10040000898C9B62ED407C6FFCEFBC9C9F40F2BAF4
:10041000A56FA5F490055A2AF75C936B6CF9676D8C
:10042000C11BFCE0E40D47FEF520E6B500D0ED90E1
:100430002E0300943577050080841E080000204EAE
:100440000A000000C80C333333330F986E12831147
:1004500041EF8D2114893BE65516CFFEE6DB18D11E
:10046000844B381BF77C1D901DA4BBE424203284F0
:10047000725E228100C9F124ECA1E53D27434F4D76
:100480004D554E49434154494F4E004452595255DF
:100490004E004552524F525300494E464F0045437D
:1004A000484F0047322F47332062616420706172E9
:1004B000616D65746572730A0047322F473320629D
:1004C000616420706172616D65746572730A0053B6
:1004D0006C6565702E2E2E005A2050726F6265205A
:1004E00050617374204265640A005A2050726F6232
:1004F00065205061737420426564004D31313720AE
:1005000050726F6265206661696C65642E20526569
:10051000776970696E672E0A4732380A4731322090
:100520005030205331322054300070726F62655F5A
:100530007265776970650047323920526574727947
:10054000696E670050726F62696E67204661696C00
:100550006564004D31313720426564206C657665F5
:100560006C696E67206661696C65642E0A4730208D
:100570005A31300A4D33303020503235205338381C
:10058000300A4D333030205035302053300A4D334F
:1005900030302050323520533838300A4D33303027
:1005A000205035302053300A4D3330302050323512
:1005B00020533838300A4D333030205035302053F6
:1005C000300A47342053310070726F62655F666194
:1005D000696C6564004D31313720426564206C657B
:1005E00076656C696E6720646F6E652E00205A3ADE
:1005F000200020593A200042656420583A20004DDE
:1006000065736820706F696E74206F7574206F66F3
:100610002072616E67650A004D302053746F700060
:100620004D312053746F7000436C69636B20746F9D
:1006300020526573756D652E2E2E004E6F204D6F06
:1006400076652E00456E642066696C65206C697362
:10065000740A00426567696E2066696C65206C6982
:1006600073740A004E6F206D656469610A005265FB
:1006700073756D696E6720534400286E6F2066693C
:100680006C65290043757272656E742066696C65CD
:100690003A20005344207072696E74696E6720625C
:1006A00079746520004E6F74205344207072696E17
:1006B00074696E670A005072696E742074696D65A2
:1006C0003A20000A53746174733A2046696C616D74
:1006D000656E7420757365643A20002C204C6F6E33
:1006E00067657374206A6F623A2000546F74616C9E
:1006F0002074696D653A200053746174733A200068
:100700002C204661696C65643A20002C2046696E95
:1007100069736865643A20005072696E74733A2098
:100720000053746174733A2000436F6F6C696E6795
:100730002E2E2E0048656174696E672E2E2E0045A0
:10074000202553006F6B006F6666009E049904922B
:10075000048B047D0444454255473A004D31313302
:1007600020530042656420436F6F6C696E672E2EC4
:100770002E004265642048656174696E672E2E2ED6
:100780000043522D3130205633204F46462E002F45
:100790002F004D31343520533C696E6465783E201E
:1007A0006F7574206F662072616E67652028302D2A
:1007B00031290A0046523A0020466C6F773A2000F1
:1007C000206F7574206F662072616E67650A005332
:1007D0006572766F20003A200020536572766F2094
:1007E0000020643A0020693A0020703A00496E7691
:1007F000616C69642065787472756465720A0020A2
:10080000643A0020693A0020703A00646973006518
:100810006E0043290A0061626C656420286D696E70
:100820002074656D702000436F6C6420657874726D
:100830007564657320617265200046696C616D6541
:100840006E742072756E6F75742064697374616E56
:10085000636520286D6D293A200046696C616D65DD
:100860006E742072756E6F757420004D34323120B5
:10087000696E636F727265637420706172616D6519
:100880007465722075736167650A004D6573682031
:10089000706F696E74206F7574206F662072616E60
:1008A00067650A00454550524F4D204F4B0A005096
:1008B0006F7765722D6C6F7373207265636F7665E9
:1008C000727920004572726F722077726974696E56
:1008D0006720746F20454550524F4D210A005354F4
:1008E0004F505045442E20005072696E746572203E
:1008F00073746F707065642064756520746F206513
:1009000072726F72732E2046697820746865206554
:1009100072726F7220616E6420757365204D393973
:100920003920746F20726573746172742E2028549C
:10093000656D70657261747572652069732072658A
:100940007365742E20536574206974206166746524
:10095000722072657374617274696E67290A004E41
:100960006F20436865636B73756D207769746820C9
:100970006C696E65206E756D6265722C204C6173BA
:1009800074204C696E653A20004E6F2043686563A1
:100990006B73756D2077697468206C696E65206E65
:1009A000756D6265722C204C617374204C696E65A4
:1009B0003A2000636865636B73756D206D69736DB4
:1009C000617463682C204C617374204C696E653AC5
:1009D00020004C696E65204E756D626572206973EA
:1009E000206E6F74204C617374204C696E65204ECC
:1009F000756D6265722B312C204C617374204C69CB
:100A00006E653A20004D3131300053657269616C7A
:100A100020737461747573206D69736D617463689C
:100A20000A0053442072656164206572726F720A15
:100A3000002121204B494C4C206361757365642073
:100A40006279204B494C4C20627574746F6E2F7024
:100A5000696E0A002121204B494C4C20636175735B
:100A6000656420627920746F6F206D7563682069FA
:100A70006E6163746976652074696D65202D2063ED
:100A8000757272656E7420636F6D6D616E643A206D
:100A900000627573793A2070617573656420666FC2
:100AA0007220696E7075740A00627573793A2070ED
:100AB000617573656420666F7220757365720A00D4
:100AC000627573793A2070726F63657373696E67CC
:100AD0000A004D656469612052656D6F766564003A
:100AE0004D6564696120496E736572746564004D7B
:100AF0003130303053007061757365004D363030E1
:100B0000002066696C616D656E745F72756E6F75DD
:100B100074200066696C616D656E745F72756E6FCE
:100B2000757420540046696C616D656E7452756E03
:100B30006F757420540043616E6E6F74206F706522
:100B40006E207375626469722000256973002569DF
:100B50006D20256973002569682025696D20256948
:100B60007300256964202569682025696D20256941
:100B70007300256979202569642025696820256925
:100B80006D202569730023646566696E65204445A0
:100B90004641554C545F00626564004B6420004B35
:100BA0006920004B702000504944204175746F74D7
:100BB000756E652066696E6973686564212050757D
:100BC0007420746865206C617374204B702C204B0A
:100BD0006920616E64204B6420636F6E7374616E74
:100BE00074732066726F6D2062656C6F7720696E1A
:100BF000746F20436F6E66696775726174696F6E9A
:100C00002E680A00504944204175746F74756E65F2
:100C1000206661696C6564212074696D656F757407
:100C20000A00504944204175746F74756E652066E2
:100C300061696C6564212054656D706572617475BD
:100C4000726520746F6F20686967680A00204B64C2
:100C50003A2000204B693A2000204B703A200020B7
:100C6000436C617373696320504944200A00204E2D
:100C70006F206F76657273686F6F740A0020547509
:100C80003A2000204B753A2000206D61783A200010
:100C9000206D696E3A200020643A2000206269616C
:100CA000733A2000504944204175746F74756E6525
:100CB0002073746172740A00504944204175746F46
:100CC00074756E65206661696C6564212054656D7C
:100CD000706572617475726520746F6F20686967E2
:100CE000680A00504944204175746F74756E650040
:100CF000504944204175746F74756E652066616952
:100D00006C656421204261642068656174657220AD
:100D100069640A004572723A207574663820666FFD
:100D20006E74206E6F7420696E697469616C697A83
:100D300065642E004572723A207574663820666FBD
:100D40006E74206E6F7420696E697469616C697A63
:100D500065642E004572723A207574663820666F9D
:100D60006E74206E6F7420696E697469616C697A43
:100D700065642E00000C0F00FE07022503BB017FF7
:100D8000FE08FE08FE05080806000040F0C8888836
:100D9000987810050808060000C0F88888888888B8
:100DA000F80505050600012030F830200508080682
:100DB00000002070F820202020E00509090600FF2F
:100DC0002070A8A8B888887020070505070001D8FA
:100DD0006C366CD80509090600FFF8A88888888851
:100DE00088A8F8050A0A0600FE205050505088A82E
:100DF000A8887003030306000340A040FFFFFFFF25
:100E0000FFFFFFFFFFFFFFFFFFFFFFFFFFFFFFFFF2
:100E1000FFFF0000000605FF0107070602008080B3
:100E20008080800080030303060105A0A0A00506C2
:100E30000606000050F85050F8500509090600FF5A
:100E40002070A8A07028A87020050707060000C819
:100E5000C8102040989805070706000040A0A04051
:100E6000A890680103030602058080800309090633
:100E700001FF204040808080404020030909060196
:100E8000FF804040202020404080050707060000EA
:100E900020A8702070A8200505050600012020F874
:100EA00020200203030601FFC04080050101060067
:100EB00003F8020202060100C0C005070706000091
:100EC0000810102040408005070706000070889831
:100ED000A8C8887003070706010040C04040404092
:100EE000E0050707060000708808102040F8050795
:100EF00007060000F808103008887005070706008C
:100F00000010305090F81010050707060000F88018
:100F1000F008088870050707060000304080F08858
:100F20008870050707060000F8081010202020052B
:100F30000707060000708888708888700507070614
:100F4000000070888878081060020505060100C05E
:100F5000C000C0C00206060601FFC0C000C040803D
:100F6000030505060101204080402005030306001B
:100F700002F800F8030505060101804020408005C5
:100F800007070600007088102020002005070706CC
:100F900000007088B8A8B8807005070706000070C8
:100FA0008888F8888888050707060000F048487098
:100FB0004848F00507070600007088808080887028
:100FC000050707060000F04848484848F0050707AD
:100FD000060000F88080F08080F805070706000012
:100FE000F88080F080808005070706000070888008
:100FF00080988870050707060000888888F8888828
:1010000088030707060100E04040404040E0050734
:101010000706000038101010109060050707060042
:10102000008890A0C0A09088050707060000808077
:1010300080808080F805070706000088D8A8888887
:1010400088880507070600008888C8A8988888054A
:1010500007070600007088888888887005070706DB
:101060000000F08888F08080800507070600007087
:10107000888888A89068050707060000F08888F02F
:10108000A0908805070706000070888070088870A7
:10109000050707060000F82020202020200507076C
:1010A0000600008888888888887005070706000081
:1010B000888888885050200507070600008888889F
:1010C00088A8A85005070706000088885020508887
:1010D0008805070706000088885020202020050783
:1010E00007060000F80810204080F80309090601EF
:1010F000FFE080808080808080E005070706000098
:10110000804040201010080309090601FFE020205C
:101110002020202020E0050303060005205088053C
:1011200001010600FEF803030306010580402005C7
:101130000505060000700878887805070706000096
:101140008080F0888888F0050505060000708080A2
:1011500088700507070600000808788888887805E1
:1011600005050600007088F080700507070600007E
:10117000304840E04040400507070600FE70888880
:10118000887808700507070600008080F088888846
:10119000880307070601004000C0404040E0040902
:1011A000090601FE100030101010109060050707AE
:1011B00006000080808890E0908803070706010001
:1011C000C04040404040E0050505060000D0A8A80A
:1011D000A8A8050505060000B0C88888880505058B
:1011E00006000070888888700507070600FEF088F2
:1011F0008888F080800507070600FE788888887850
:101200000808050505060000B0C8808080050505B2
:1012100006000078807008F005070706000020200F
:10122000F8202020180505050600008888889868A1
:10123000050505060000888888502005050506007C
:10124000008888A8A8500505050600008850205091
:10125000880507070600FE8888885020408005051D
:1012600005060000F8102040F80309090601FF20D8
:1012700040404080404040200109090602FF808034
:10128000808080808080800309090601FF804040C3
:1012900040204040408005030306000248A890FF1C
:1012A000504944204175746F74756E65202A005052
:1012B00049442D44202A005049442D49202A0050F9
:1012C00049442D50202A00200820466163740020E4
:1012D00008204D6178002008204D696E004F666639
:1012E000004F6E004175746F74656D7000565472D6
:1012F0006176204D696E00566D696E00566D61789D
:10130000204500566D6178205A00566D617820594D
:1013100000566D6178205800416D6178204500418C
:101320006D6178205A00416D6178205900416D61EE
:1013300078205800412D54726176656C00412D5221
:1013400065747261637400416363656C0066696C07
:10135000616D656E74007A5F70726F6265007A5FAE
:101360006D696E00795F6D696E00785F6D696E0002
:101370005265706F7274696E6720656E6473746F06
:1013800070207374617475730A0020746F6F206C21
:101390006F6E6720657874727573696F6E207072F6
:1013A0006576656E7465640A0020636F6C64206501
:1013B0007874727573696F6E2070726576656E747D
:1013C00065640A00486F6D652025732573257320B9
:1013D0004669727374000000000000000000000005
:1013E00000005761726E696E673A20486F6D696ED2
:1013F000672042756D702044697669736F72203C76
:1014000020310A0002020400009B4300009B4300BD
:1014100000C8430000A0400000A04000000040FFC2
:10142000FFFF000000010000000100008000555592
:1014300055000000400033333300AAAA2A00499225
:10144000240000002000C7711C0099991900D145A3
:101450001700555515003BB1130024491200111116
:101460001100000010000F0F0F00E3380E00437949
:101470000D00CCCC0C00C3300C00E8A20B006421A2
:101480000B00AAAA0A00703D0A009DD80900427B01
:10149000090092240900DCD3080088880800104263
:1014A000080000000800F0C107008787070075509A
:1014B0000700711C07003EEB0600A1BC0600699006
:1014C000060066660600703E06006118060017F406
:1014D000050074D105005BB00500B2900500627292
:1014E00005005555050078390500B81E05000505AD
:1014F00005004EEC040087D40400A1BD040090A7B1
:10150000040049920400C17D0400EE690400C7563E
:101510000400444404005C3204000821040041102B
:101520000400000004003FF00300F8E0030026D2AE
:101530000300C3C30300CCB503003AA803000A9B11
:101540000300388E0300C08103009F750300D0693B
:101550000300505E03001D53030034480300913D17
:1015600003003333030016290300381F03009715C7
:101570000300300C0300030303000BFA020049F1DF
:101580000200BAE802005CE002002DD802002DD073
:10159000020059C80200B0C0020031B90200DAB13D
:1015A0000200AAAA0200A0A30200BC9C0200FA95B5
:1015B00002005C8F0200DF88020082820200457C0C
:1015C00002002776020027700200436A02007C6452
:1015D0000200D05E02003F590200C8530200FFFD26
:1015E000FCFAF8F6F4F2F0EEECEAE9E7E5E3E1E024
:1015F000DEDCDAD9D7D5D4D2D0CFCDCBCAC8C7C5D7
:10160000C3C2C0BFBDBCBAB9B7B6B4B3B2B0AFAD58
:10161000ACAAA9A8A6A5A4A2A1A09E9D9C9A9998AF
:101620009795949392908F8E8D8B8A8988878684E4
:10163000838281807F7E7D7B7A79787776757473FB
:101640007271706F6E6D6C6B6A69686766656463F2
:101650006261605F5E5D5C5B5A59585857565554DD
:1016600053525150504F4E4D4C4B4A4A49484746B1
:1016700046454443424241403F3E3E3D3C3B3B3A6F
:1016800039383837363535343332323130302F2E21
:101690002E2D2C2B2B2A29292827272625252423C4
:1016A0002322212120201F1E1E1D1C1C1B1B1A195A
:1016B00019181817161615151413131212111110E4
:1016C0000F0F0E0E0D0D0C0C0B0A0A090908080766
:1016D00007060605050404030302020100000000DA
:1016E0009B4300009B430000C84300000000000033
:1016F00000000000000053657474696E6773205326
:10170000746F726564003B20002568753A2530329D
:1017100068750025303268753A25303268750020CA
:101720002020202020200020202020001FE020104A
:1017300020102010102010202010201030300840E1
:10174000048003001FE03FF03FF03FF01FE01FE088
:101750003FF03FF03FF00FC0078003003FFFF0383D
:10176000007030FC3020FC102078102030102C004D
:10177000D02E31D02F7BD02F7BD02E31D02C00D04B
:1017800020301020781020FC1030FC303800703FE2
:10179000FFF03FFFF0380070318630238710278735
:1017A000902F87D02F03D020301020781020781071
:1017B0002030102F03D02F87D02787902387103118
:1017C00086303800703FFFF01FFFF81FFFF804104D
:1017D0004002082002082004104008208010410028
:1017E0001041000820800410400000001FFFF81F77
:1017F000FFF8000000001E000000002100000000B3
:10180000271DC08C00272121920041212092008EAB
:1018100021CE920090212092011021209201201DC2
:1018200021CC022000000004100113000810011454
:10183000801008011080200400A30047F200A0805F
:1018400043E2004480200400430018D8000000193F
:101850008400000021FC0000003F005072656865B4
:101860006174202420456E6400507265686561745F
:101870002024204265640054656D70657261747542
:10188000726500436F6F6C646F776E0050726568AD
:1018900065617420240046616E2053706565642084
:1018A0007E00426564004E6F7A7A6C65004D616916
:1018B0006E0050726F6265205A204F6666736574C1
:1018C00000466C6F770046616E205370656564203A
:1018D0007E00426564004E6F7A7A6C6500537065D5
:1018E0006564004D61696E00486F6D696E672046E2
:1018F00061696C6564006F70656E005452494747BA
:1019000045524544003A200024F4D43050C38E2080
:10191000C2A24017828B7011127A910D816CD90A84
:10192000A861E108C7586607615143061E4B5D0573
:10193000C145A7041A411104093D980371393103C7
:101940004036DB0265339102D4305402802E1D02F2
:10195000632CEE01752AC501B028A0011027810172
:101960008F2564012B244B01E0223401AC211F019F
:101970008D200D01801FFC00841EED00971DDF00EF
:10198000B81CD200E61BC600201BBC00641AB200C3
:10199000B219A8000A19A0006A189900D11791007D
:1019A00040178B00B516840031167E00B315790000
:1019B0003A157300C7146F0058146A00EE136600DE
:1019C0008813630025135E00C7125B006C1257007A
:1019D00015125400C111510070114F0021114B001C
:1019E000D61049008D1047004610440002104200F6
:1019F000C00F4000800F3E00420F3C00060F3B002E
:101A0000CB0E3800930E37005C0E3500270E3400E5
:101A1000F30D3200C10D3100900D3000600D2E002D
:101A2000320D2D00050D2C00D90C2B00AE0C290019
:101A3000850C29005C0C2700350C27000E0C2600B5
:101A4000E80B2400C40B2400A00B23007D0B230013
:101A50005A0B2100390B2100180B2000F80A1F0037
:101A6000D90A1E00BB0A1E009D0A1D00800A1D0027
:101A7000630A1C00470A1B002C0A1B00110A1A00EB
:101A8000F7091A00DD091900C4091900AB0919008A
:101A9000920917007B091800630917004C0916000A
:101AA00036091600200916000A091500F508150068
:101AB000E0081400CC081400B8081400A4081400AE
:101AC000900813007D0812006B08130058081200DC
:101AD00046081200340811002308110012081100F2
:101AE00001081100F0071000E0071000D0071000F7
:101AF000C0071000B0070F00A107100091070E00EB
:101B000083070F0074070F0065070E0057070E00CC
:101B100049070E003B070D002E070E0020070D00A1
:101B200013070D0006070D00F9060C00ED060D0069
:101B3000E0060C00D4060C00C8060C00BC060C0025
:101B4000B0060C00A4060B0099060C008D060B00D5
:101B500082060B0077060B006C060B0061060A007C
:101B600057060B004C060A0042060A0038060A0017
:101B70002E060A0024060A001A060A0010060900AA
:101B800007060A00FD050900F4050900EB05090038
:101B9000E2050900D9050900D0050900C7050900BB
:101BA000BE050900B5050800AD050800A50509003A
:101BB0009C050800940508008C05080084050800B1
:101BC0007C050800740508006C0507006505080021
:101BD0005D050700560508004E050700470507008C
:101BE0004005080038050700310507002A050700F1
:101BF000230507001C050600160507000F05070052
:101C00000805060002050700FB040600F5040700AE
:101C1000EE040600E8040600E2040700DB04060008
:101C2000D5040600CF040600C9040600C30406005C
:101C3000BD040600B7040600B1040500AC040600AC
:101C4000A6040600A00405009B04060095040500F8
:101C5000900406008A04050085040500800406003F
:101C60007A04050075040500700405006B04050086
:101C700066040500610405005C04050057040500C6
:101C8000520405004D040500480405004304050006
:101C90003E0404003A040500350405003004040045
:101CA0002C04050027040400230405001E0404007E
:101CB0001A04040016040500110404000D040400B5
:101CC000090405000404040000040400FC030400EB
:101CD000F8030400F4030400F0030400EC03040020
:101CE000E8030400E4030400E0030400DC03040050
:101CF000D8030400D4030400D0030400CC03040080
:101D0000C8030300C503030024F404D9201BC40C3A
:101D10005C0E9804C4095F0265077101F405F900BF
:101D2000FB04B30048048700C10369005803550051
:101D300003034500BE023A008402310053022A0028
:101D40002902250004022000E4011C00C80119003A
:101D5000AF011700980114008401130071011000F5
:101D60006101100051010E0043010D0036010B000E
:101D70002B010B0020010B00150109000C010900CB
:101D800003010800FB000800F3000800EB00070057
:101D9000E4000600DE000600D8000600D2000600BF
:101DA000CC000500C7000500C2000500BD0004000E
:101DB000B9000400B5000400B1000400AD00040047
:101DC000A9000400A5000300A20003009F00040076
:101DD0009B0003009800030095000200930003009D
:101DE000900003008D0002008B00030088000200B9
:101DF0008600020084000300810002007F000200D0
:101E00007D0002007B0002007900020077000100E3
:101E100076000200740002007200010071000200EE
:101E20006F0002006D0001006C0002006A000100FA
:101E30006900020067000100660001006500010002
:101E40006400020062000100610001006000010006
:101E50005F0002005D0001005C0001005B0001000A
:101E60005A0001005900010058000100570001000C
:101E7000560001005500010054000100530000000D
:101E80005300010052000100510001005000010008
:101E90004F0001004E0000004E0001004D00010007
:101EA0004C0001004B0000004B0001004A00010003
:101EB00049000100480000004800010047000100FF
:101EC00046000000460001004500000045000100FA
:101ED00044000100430000004300010042000000F4
:101EE00042000100410000004100010040000100EB
:101EF0003F0000003F0001003E0000003E000100E6
:101F00003D0000003D0001003C0000003C000000DE
:101F10003C0001003B0000003B0001003A000000D3
:101F20003A000100390000003900010038000000CB
:101F300038000000380001003700000037000100C1
:101F400036000000360000003600010035000000B9
:101F500035000000350001003400000034000000AE
:101F600034000100330000003300000033000100A2
:101F70003200000032000000320001003100000099
:101F8000310000003100010030000000300000008E
:101F9000300001002F0000002F0000002F00000083
:101FA0002F0001002E0000002E0000002E00010076
:101FB0002D0000002D0000002D0000002D0001006C
:101FC0002C0000002C0000002C0000002C00010060
:101FD0002B0000002B0000002B0000002B00010054
:101FE0002A0000002A0000002A0000002A00010048
:101FF000290000002900000029000000290000003D
:10200000290001002800000028000000280000002E
:102010002800000028000100270000002700000021
:102020002700000027000000270001002600000014
:102030002600000026000000260000002600010007
:1020400025000000250000002500000025000000FC
:1020500025000000250001002400000024000000ED
:1020600024000000240000002400010023000000E0
:1020700023000000230000002300000023000000D4
:1020800023000000230001002200000022000000C5
:1020900022000000220000002200000022000100B7
:1020A00021000000210000002100000021000000AC
:1020B000210000002100000021000100200000009C
:1020C0002000000020000000200000002000000090
:1020D0002000000020000000200001001F00000080
:1020E0001F0000001F0000001F0000001F00000074
:1020F0001F0000001F0001001E0000001E00000065
:102100001E0000001E0000003930000033250000D2
:1021100087190000B00F0000DB080000BD040000BC
:10212000740200003F010000446966663A202020E6
:102130000046726F6D5374703A0053746570706529
:10214000723A00556E4C6576656C3A004C65766562
:102150006C65643A005261773A20202020000A4CD6
:102160006F676963616C3A00436F756E7420453A1E
:10217000004361703A004D4541545041434B004388
:102180004F4F4C45525F54454D5045524154555266
:1021900045004348414D4245525F54454D504552DC
:1021A00041545552450042414259535445505049BB
:1021B0004E470041524353004D4F54494F4E5F4DDF
:1021C0004F44455300544845524D414C5F50524F87
:1021D00054454354494F4E004C4F4E475F46494C7F
:1021E000454E414D45004155544F5245504F525474
:1021F0005F53445F5354415455530053445F575207
:1022000049544500524550454154005344434152BE
:10221000440050524F4D50545F535550504F5254FC
:1022200000454D455247454E43595F504152534535
:102230005200434153455F4C494748545F4252491D
:102240004748544E45535300544F47474C455F4C05
:10225000494748545300534F4654574152455F50E5
:102260004F574552004255494C445F5045524345F3
:102270004E54004C4556454C494E475F44415441ED
:10228000005A5F50524F42450052554E4F55540030
:102290004155544F4C4556454C005052494E545FA1
:1022A0004A4F420050524F475245535300415554F4
:1022B0004F5245504F52545F54454D5000564F4C6D
:1022C000554D455452494300454550524F4D0042EB
:1022D000494E4152595F46494C455F5452414E5315
:1022E0004645520053455249414C5F584F4E5F5846
:1022F0004F4646004649524D574152455F4E414D6B
:10230000453A4D61726C696E20322E302E382E3077
:102310002D46695A692D424C2D31313532303020ED
:10232000284D617920203120323032312031343A49
:1023300034353A31392920534F555243455F434F85
:1023400044455F55524C3A6769746875622E636FF5
:102350006D2F4D61726C696E4669726D7761726541
:102360002F4D61726C696E2050524F544F434F4C49
:102370005F56455253494F4E3A312E30204D41431E
:1023800048494E455F545950453A43522D3130200B
:1023900056332045585452554445525F434F554E8D
:1023A000543A3120555549443A6365646532613287
:1023B000662D343161322D343734382D3962313263
:1023C0002D6335356336326633363766660A00501C
:1023D000726F6265204F6666736574205A00507292
:1023E0006F6265204F6666736574205A00290A0083
:1023F00020746F20003F5A206F7574206F66207222
:10240000616E6765202800290A0020746F20003F54
:1024100059206F7574206F662072616E6765202881
:102420002D00290A0020746F20003F58206F75741A
:10243000206F662072616E676520282D0050726FD4
:102440006265204F66667365742058005265736537
:102450006E643A20004D383400446F6E652070720F
:10246000696E74696E672066696C650A004D37375E
:10247000004D333100544845524D414C2052554E89
:102480004157415900546865726D616C2052756EF8
:1024900061776179004572723A204D415854454D3B
:1024A00050004D415854454D50207472696767651E
:1024B000726564004572723A204D494E54454D5044
:1024C000004D494E54454D502074726967676572DE
:1024D000656400202F002042403A0020403A00204E
:1024E000573A0020573A00496E76616C696420655E
:1024F000787472756465720A005045544700504CF8
:10250000410000000A0B02090C0D0E08070304012C
:1025100000000000000000000000000000000000BB
:102520000000000000000000000000000000121188
:10253000100000000000000000000000000000008B
:102540000000000000000000004D6F76652025733C
:102550006D6D004D6F766520302E316D6D004D6FC5
:10256000766520316D6D004D6F76652031306D6D73
:10257000004D6F76652041786973004578747275F7
:10258000646572004D6F7665205A004D6F76652048
:1025900059004D6F7665205800FE24F92443686188
:1025A0006E67652046696C616D656E7400556E6C72
:1025B0006F61642046696C616D656E74004C6F617B
:1025C000642046696C616D656E7400507265686563
:1025D000617420437573746F6D0050726568656136
:1025E000742024004261636B005072696E7420662F
:1025F000726F6D204D65646961000000000000008D
:1026000000600000000000FC00000FF0000000006F
:1026100007E00000000001861FC0187000000000E5
:1026200000603C0C000001830C60103000000000D2
:1026300000603C0C000001830C30303000000000D2
:102640000060000C000000030C18300000000000C7
:102650000060003F0F3C00030C0C6001DF0FE0FE48
:1026600000601C1C061800060C0C6000F318318377
:1026700000600C0C0318001E0C0C6000E030398365
:1026800000600C0C033000030C0C6000C030380FED
:1026900000600C0C033000018C0C6000C03FF8FBA4
:1026A00000600C0C033000018C0C6030C0300183E2
:1026B00000600C0C01F001818C0C6030C030018393
:1026C00000600C0C00E001818C183030C0183183A0
:1026D00000600C0C40E001838C301860C00C6187F6
:1026E000C0E01C0CC06000C30C600FC3F007C0FF4B
:1026F000C7FC7F0781C0007E1FC0000000000000F3
:1027000000000000070000000000000000000000C2
:10271000000000000700000000006D61726C696E2F
:1027200066772E6F726700322E302E382E302D468F
:10273000695A692D424C2D313135323030001FFF3E
:10274000FFFFFFFFFF600000000001FF40000000EE
:102750000000FF8000000000007F83CF00000C30ED
:102760003F87FF80000C301F867980000C000F8CA3
:1027700030C7838C30E78C30CFC7CC31F38C30DC62
:10278000ECEC33B98C30D86C6C33198C30D06C0CC9
:1027900033198C30D86C0C33198C30DC6C0E3B192F
:1027A0008C30CF7C079F198C30C77C038F19400079
:1027B0000000000002600000000000061FFFFFFF95
:1027C000FFFFF870012C0190012701B0012201C028
:1027D000011D01F00118011002130130020E016009
:1027E00002090190020401C002FF000003FA004048
:1027F00003F5008003F000D003EB002004E6007036
:1028000004E100E004DC004005D700C005D2004030
:1028100006CD00D006C8008007C3003008BE00F017
:1028200008B900C009B400B00AAF00B00BAA00D0CC
:102830000CA500000EA000500F9B00C01096005089
:1028400012910000148C00C0158700B0178200B0F0
:10285000197D00D01B7800001E730040206E009090
:10286000226900F024640040275F0090295A00E0AC
:102870002B5500102E500020304B0010324600E047
:1028800033410090353C001037370070383200A0DB
:10289000392D00B03A2800A03B2300603C1E0010F8
:1028A0003D1900903D1400103E0F00703E0A00C01C
:1028B0003E0500003F0000403FFBFF803FF6FFC0A9
:1028C0003FF1FF2020506C616E6E65724275666646
:1028D000657242797465733A2000204672656520FE
:1028E0004D656D6F72793A2000436F6D70696C654C
:1028F000643A204D617920203120323032310A0093
:10290000204C61737420557064617465643A2032A0
:102910003032312D30352D30312031343A333020C2
:102920007C20417574686F723A2046695A6920624A
:1029300061736564206F6E204161726F6E204A750D
:1029400073742C20435231302D5633290A00322E15
:10295000302E382E302D46695A692D424C2D31319A
:10296000353230300A004D61726C696E0020536F51
:102970006674776172652052657365740A0020572A
:1029800061746368646F672052657365740A002020
:1029900042726F776E206F75742052657365740A8A
:1029A000002045787465726E616C205265736574A1
:1029B0000A00506F77657255700A00737461727403
:1029C0000A004732385859004D31303031006572B5
:1029D000726F722077726974696E6720746F2066F7
:1029E000696C650A00446F6E6520736176696E6775
:1029F0002066696C652E0A004D323900456E64739D
:102A0000746F707300255320256320256320256390
:102A10002025630020503A00205A3A0020593A00FD
:102A200020583A00656E6473746F7073206869741F
:102A30003A20005061726B696E672E2E2E000000E6
:102A40005761697420666F720066696C616D656EAE
:102A500074206368616E676500746F2073746172BF
:102A600074005761697420666F720066696C616DED
:102A7000656E7420756E6C6F616400004E6F7A7ABB
:102A80006C652068656174696E6700506C65617380
:102A90006520776169742E2E2E0000507265737365
:102AA00020627574746F6E00746F206865617420A5
:102AB0006E6F7A7A6C650000496E73657274206679
:102AC000696C616D656E7400616E6420707265730F
:102AD0007320627574746F6E00746F20636F6E7410
:102AE000696E7565005761697420666F720066696A
:102AF0006C616D656E74206C6F616400005072656E
:102B0000737320427574746F6E00746F20726573F6
:102B1000756D65207072696E74000057616974206C
:102B2000666F72207072696E7400746F20726573C4
:102B3000756D652E2E2E00005761697420666F72C8
:102B40000066696C616D656E7420707572676500F2
:102B5000003E2000256C642E25696D004578747256
:102B60007564656420546F74616C003E20004C6F86
:102B70006E67657374204A6F622054696D65003E0C
:102B80002000546F74616C205072696E7420546917
:102B90006D6500436F6D706C65746564003A20006C
:102BA0005072696E7420436F756E74003A20003164
:102BB00032300035004245443A204550434F5320BF
:102BC0003130304B0052756E6177617920576174F6
:102BD00063683A204F4E004D61782054656D700057
:102BE000323735004D696E2054656D7000350045F3
:102BF000313A204550434F53203130304B00505331
:102C0000550047656E657269630050726F746F633B
:102C10006F6C00312E300042617564003131353205
:102C2000303000437265616C6974793344205241DD
:102C30004D50530042696C696E656172204C657637
:102C4000656C696E670045787472756465727300AF
:102C500031006D61726C696E66772E6F726700432A
:102C6000522D313020563300323032312D30352D57
:102C700030312031343A333000322E302E382E307D
:102C80002D46695A692D424C2D3131353230300094
:102C90004D61726C696E005072696E74657220537A
:102CA0007461747300546865726D6973746F7273C4
:102CB00000426F61726420496E666F005072696EE7
:102CC00074657220496E666F004D61696E004D310A
:102CD0003030300053746F70205072696E7400523F
:102CE0006573756D65205072696E7400506F7765FD
:102CF00072204F7574616765003F004261636B002D
:102D000053746F70005072696E742066726F6D201C
:102D10004D65646961004368616E6765204D656457
:102D20006961004D32310041626F757420507269E3
:102D30006E746572004368616E67652046696C61F8
:102D40006D656E7400436F6E666967757261746954
:102D50006F6E0054656D7065726174757265004DBB
:102D60006F74696F6E00526573756D65205072697E
:102D70006E74004E6F204D656469610043616E633F
:102D8000656C204F626A6563740054756E6500530C
:102D9000746F70205072696E740050617573652095
:102DA0005072696E7400496E666F20536372656578
:102DB0006E006E6F74696669636174696F6E20007E
:102DC0006E6F74696669636174696F6E2000636118
:102DD0006E63656C005072696E742041626F72742C
:102DE0006564004469736D697373005549204162DD
:102DF0006F72746564004D323520500A4D323400D4
:102E0000526573756D650055492050617573650095
:102E100050617573696E672E2E2E00726573756D25
:102E200065004D323400454550524F4D2056657275
:102E300073696F6E204572726F7200454550524F34
:102E40004D20496E646578204572726F7200454569
:102E500050524F4D20435243204572726F72003FD3
:102E60000049676E6F726500526573657400496E44
:102E7000697469616C697A6520454550524F4D000F
:102E800000FE0003FF8007C7C00701E00000E0006C
:102E900000F00000700400700E00701F00703F8092
:102EA000F00E00E00F01E007C7C003FF8000FE0046
:102EB00000FE0003FF8007C7C00F01E00E00E03FE7
:102EC00080F01F00700E00700400700000700000A1
:102ED000F00000E00701E007C7C003FF8000FE002C
:102EE0000E000E000E000E000E000E000E000E0072
:102EF0007FC03F801F000E00040004000E001F0072
:102F00003F807FC00E000E000E000E000E000E006F
:102F10000E000E00FFFFFF7F80FFC0FFC0FFC07FDD
:102F2000807F80FFC0FFC0FFC03F001E000C00502C
:102F3000726F6265205A204F666673657400527521
:102F40006E6F75742044697374206D6D004C6F61F1
:102F500064206D6D00556E6C6F6164206D6D004670
:102F6000696C2E204469612E004520696E206D6DCC
:102F70005E33004D333033205531204525692053D1
:102F800025690043522D313020563320526561644B
:102F9000792E005072696E74696E672E2E2E005065
:102FA00072696E74205061757365640020453A0043
:102FB000205A3A0020593A00583A0020746F6F2086
:102FC0006C6F6E6720657874727573696F6E2070B0
:102FD000726576656E7465640A0020636F6C6420A8
:102FE000657874727573696F6E2070726576656E40
:102FF0007465640A0056652D4A65726B00565A2D39
:103000004A65726B0056592D4A65726B0056582DF1
:103010004A65726B0050726F6265205A204F666677
:103020007365740050726F62652059204F66667335
:1030300065740050726F62652058204F6666736534
:103040007400452073746570732F6D6D005A2053A2
:10305000746570732F6D6D00592053746570732FF4
:103060006D6D00582053746570732F6D6D00416451
:1030700076616E6365642053657474696E6773006E
:103080003F0043616E63656C00496E697400496E70
:10309000697469616C697A6520454550524F4D00ED
:1030A00046696C616D656E740054656D7065726122
:1030B000747572650053746570732F6D6D00507276
:1030C0006F6265204F666673657473004A65726B44
:1030D00000416363656C65726174696F6E0056656B
:1030E0006C6F6369747900436F6E666967757261AE
:1030F00074696F6E004732362043616E63656C659C
:1031000064004732362048656174696E67204E6FEF
:103110007A7A6C65004732362048656174696E675B
:10312000204265640057616974696E6720666F723A
:10313000206865617475702E0A00466978656420A0
:103140004C656E677468205072696D6500446F6EDF
:1031500065205072696D696E67004D616E75616CB6
:10316000207072696D696E672E2E2E004C65617637
:10317000696E6720473236003F5370656369666940
:10318000656420582C5920636F6F7264696E617496
:1031900065206F7574206F6620626F756E64732E84
:1031A0000A003F28522965706561742076616C754C
:1031B00065206E6F7420706C61757369626C653B1D
:1031C000206D757374206265206174206C65617375
:1031D0007420312E0A003F53706563696669656427
:1031E000206E6F7A7A6C652074656D70657261749B
:1031F000757265206E6F7420706C61757369626C96
:10320000652E0A003F5370656369666965642066D0
:10321000696C616D656E742073697A65206E6F7478
:1032200020706C61757369626C652E0A003F537083
:1032300065636966696564207072696D65206C6597
:103240006E677468206E6F7420706C61757369624C
:103250006C652E0A003F537065636966696564207A
:103260006E6F7A7A6C652073697A65206E6F742050
:10327000706C61757369626C652E0A003F526574EB
:1032800072616374696F6E204D756C7469706C69DE
:103290006572206D75737420626520737065636953
:1032A000666965642E0A003F5370656369666965E7
:1032B000642052657472616374696F6E204D756C21
:1032C0007469706C696572206E6F7420706C6175C2
:1032D0007369626C652E0A003F53706563696669A5
:1032E0006564206C6179657220686569676874201F
:1032F0006E6F7420706C61757369626C652E0A0064
:1033000043292E0A003F537065636966696564202E
:103310006265642074656D70657261747572652094
:103320006E6F7420706C61757369626C65202834EF
:10333000302D00473236207374617274696E672EC7
:103340002E2E0A004F46460A0046616465204865F5
:10335000696768742000426564204C6576656C6915
:103360006E6720004661696C656420746F20656E2D
:1033700061626C6520426564204C6576656C696E9F
:10338000670A00496E76616C6964206D6573682E0A
:103390000A0043616E6E6F74206F70656E207375E6
:1033A000626469722000534420496E69742046614A
:1033B000696C0053442063617264206F6B0A006F74
:1033C00070656E526F6F74206661696C65640A0087
:1033D000766F6C756D652E696E6974206661696CB7
:1033E00065640A004E6F20534420636172640A00D2
:1033F0000A4D3234004D3233202573002E0A006FFF
:1034000070656E206661696C65642C2046696C6528
:103410003A200046696C652073656C656374656469
:103420000A002053697A653A200046696C65206F6E
:1034300070656E65643A2000454E442053554252F3
:103440004F5554494E450A002220706F73002220C8
:10345000706172656E743A2200535542524F555452
:10346000494E452043414C4C207461726765743A63
:10347000220053756263616C6C204F766572666CD6
:103480006F77004578636565646564206D617820B9
:10349000535542524F5554494E45206465707468E7
:1034A0003A002E0A0044656C6574696F6E2066618F
:1034B000696C65642C2046696C653A200046696C2D
:1034C000652064656C657465643A002F6175746F7E
:1034D00025632E670057726974696E6720746F20C8
:1034E00066696C653A2000667265736800646F698E
:1034F0006E67002066696C653A20004E6F77200089
:1035000000002200250028002B002E00310034008E
:1035100002010000050108010B0100002100240048
:1035200027002A002D0030003300010100000401B3
:1035300007010A0105050505070508080808020234
:1035400002020A0A0808040404040101010101013D
:1035500001010303030303030303040707070C0C20
:103560000C0C0C0C0C0C02020202060606060606E7
:1035700006060B0B0B0B0B0B0B0B0102102020088C
:1035800008102040102040800201020108040201BE
:10359000010204081020408080402010080402012D
:1035A0008004020180402010080402010804020186
:1035B000010204081020408001020408102040800D
:1035C00050726F62696E6720506F696E7400255388
:1035D0002025692F2569002E0A002F0050726F6286
:1035E000696E67206D65736820706F696E74200066
:1035F000202844525952554E2900473239204175EE
:10360000746F20426564204C6576656C696E670056
:103610003F20284C2C522C462C4229206F757420B8
:103620006F6620626F756E64732E0A003F285629FC
:103630006572626F7365206C6576656C20696D706C
:103640006C61757369626C652028302D34292E0AEF
:1036500000426164205A2076616C75650A004E6FE5
:103660002062696C696E65617220677269640A0024
:10367000446576696174696F6E0025533A2025733D
:103680000046696E6973686564210A003A207A3AD7
:103690002000206F662000476F696E6720746F3AC4
:1036A00020580043570A00206469723A0020616E76
:1036B000676C653A00537461727420726164697555
:1036C000733A004D343820506F696E740025533AB8
:1036D0002025642F256400506F736974696F6E69CB
:1036E0006E67207468652070726F62652E2E2E0AD8
:1036F000003F4C656773206F66206D6F76656D6562
:103700006E7420696D706C61757369626C652028D8
:10371000302D3135292E0A003F2028582C592920D8
:103720006F7574206F6620626F756E64732E0A0069
:1037300050726F6265206F7574206F6620626F75BE
:103740006E6473003F53616D706C652073697A65B8
:10375000206E6F7420706C61757369626C652028CF
:10376000342D3530292E0A004D3438205A2D507210
:103770006F6265205265706561746162696C69741D
:103780007920546573740A003F2856296572626F68
:103790007365206C6576656C20696D706C617573FE
:1037A00069626C652028302D34292E0A005374611B
:1037B0006E6461726420446576696174696F6E3A03
:1037C00020002052616E67653A2000204D61783AF2
:1037D0002000204D696E3A2000205369676D613AE0
:1037E00020004D65616E3A2000554E4C4F414420FB
:1037F00046494C414D454E54004C4F4144204649AA
:103800004C414D454E540046494C414D454E542087
:103810004348414E474500426564004E6F7A7A6CDA
:10382000650046616E20537065656400436F6E6687
:10383000696775726174696F6E00526573746F7237
:10384000652044656661756C7473004C6F6164201B
:1038500053657474696E67730053746F7265205397
:10386000657474696E677300507265686561742071
:103870002420436F6E6600506F776572204F757419
:10388000616765004F6666004F6E0052756E6F751A
:10389000742053656E736F7200424C546F75636889
:1038A0000050726F6265205A204F6666736574001F
:1038B000416476616E6365642053657474696E67F4
:1038C00073004D61696E004D37303220542564001D
:1038D0004D36303020423020542564004D37303290
:1038E000203B2564004D37303120542564004D378E
:1038F0003032004D373031004D363030204230000C
:103900004D61696E00436F6E74696E7565004F6638
:1039100066004F6E0052756E6F75742053656E733E
:103920006F72005075726765206D6F726500524549
:1039300053554D45204F5054494F4E533A00505225
:10394000494E54205041555345440020204E6F7A33
:103950007A6C653A2000205200416363656C6572A1
:103960006174696F6E3A2050005741524E494E477C
:1039700021204C6F77205A204A65726B206D617947
:10398000206C65616420746F20756E77616E74655C
:1039900064207061757365732E0A00204D393220E2
:1039A00058004F4646004F4E0020204D61783A2087
:1039B00000200020204D696E3A2000536F6674206D
:1039C000656E6473746F70733A20004D3234205307
:1039D000256C642054256C64004739322E3920450B
:1039E000257300473120462564004739322E39209F
:1039F0005A2573004731205A302046323030004774
:103A0000312058257320592573204633303030003B
:103A10004D34323020532569205A2573004D313002
:103A2000362050256920532569004D32303020441E
:103A300025730047323852305859004739322E39F1
:103A4000204530205A300A47315A2573004D313015
:103A50003920532569004D31393020532569004DF7
:103A6000343230205330205A300020496E76616C59
:103A70006964206578747275646572200021212064
:103A800053544F502063616C6C65642062656361C0
:103A9000757365206F6620424C546F7563682065AE
:103AA00072726F72202D2072657374617274207748
:103AB000697468204D3939390A0021212053544F47
:103AC000502063616C6C6564206265636175736529
:103AD000206F6620424C546F756368206572726F68
:103AE00072202D2072657374617274207769746816
:103AF000204D3939390A002F2F616374696F6E3A8E
:103B00000070726F6D70745F00656E6400486F7452
:103B1000656E6420746F6F20636F6C640A00536578
:103B20006E64204D31303820746F20726573756D6E
:103B3000650A00496E736572742066696C616D6513
:103B40006E7420616E642073656E64204D31303870
:103B50000A0052656865617420446F6E65005265A5
:103B600068656174696E672E2E2E00526568656106
:103B700074004865617465722054696D656F757471
:103B80000053656E64204D31303820746F206865B5
:103B90006174206E6F7A7A6C650A004E6F7A7A6C67
:103BA00065205061726B65640070617573656400B7
:103BB000506175736500726573756D65640052655B
:103BC00073756D696E67005A2056616C75650049A2
:103BD0006E646578205900496E64657820580053FA
:103BE000746F72652053657474696E6773004C6FEF
:103BF00061642053657474696E67730050726F62FC
:103C000065205A204F6666736574004661646520BE
:103C1000486569676874004F6666004F6E004265CC
:103C200064204C6576656C696E6700456469742034
:103C30004D657368004C6576656C2042656400478D
:103C400032394E00473239004175746F20486F6D2C
:103C500065004D6F74696F6E003F0043616E636570
:103C60006C204F626A656374004E4F0059455300E3
:103C700043616E63656C204F626A656374203D002A
:103C80004D61696E0053746F77004465706C6F7995
:103C90000053572D4D6F64650053656C662D546558
:103CA0007374005265736574003F005374617274DD
:103CB000205072696E740043616E63656C005072CF
:103CC000696E740043616E6E6F7420656E74657208
:103CD000207375626469723A2000022E2E004D61D5
:103CE000696E002100486F74656E6420746F6F20E8
:103CF000636F6C64004261636B0050726F63656553
:103D000064004F6666004F6E00536F667420456E08
:103D10006473746F7073004D6F74696F6E004469E3
:103D20007361626C65205374657070657273004DC9
:103D30003834004D34382050726F626520546573FA
:103D400074004732384F0A4D343820503130004229
:103D50006564204C6576656C696E6700486F6D65BB
:103D6000205A004732385A00486F6D652059004785
:103D700032385900486F6D65205800473238580076
:103D80004175746F20486F6D6500473238004D6192
:103D9000696E007C3C3E5E2B3D3F2F5B5D3B2C2AD9
:103DA000225C003A0A0020204D36303320002044A7
:103DB0000020204D34313220530046696C616D651E
:103DC0006E742072756E6F75742073656E736F728A
:103DD0003A002055004C0046696C616D656E742098
:103DE0006C6F61642F756E6C6F6164206C656E67BB
:103DF0007468733A0020204D3835312058005A2D10
:103E000050726F6265204F66667365740020204DA6
:103E1000343133205300506F7765722D4C6F7373BC
:103E2000205265636F766572793A0020440020491C
:103E30000020204D33303420500020440020490021
:103E400020204D3330312050005049442073657498
:103E500074696E67733A0020460020480020204DA8
:103E60003134352053004D6174657269616C20688E
:103E7000656174757020706172616D6574657273CF
:103E80003A00204A0020204732392057204900209C
:103E9000204D3432302053004175746F20426564E8
:103EA000204C6576656C696E673A00205800205397
:103EB0000020204D323035204200416476616E632F
:103EC00065643A20423C6D696E5F7365676D656E2F
:103ED000745F74696D655F75733E20533C6D696EE8
:103EE0005F66656564726174653E20543C6D696E01
:103EF0005F74726176656C5F666565647261746536
:103F00003E20583C6D61785F785F6A65726B3E2039
:103F1000593C6D61785F795F6A65726B3E205A3CEF
:103F20006D61785F7A5F6A65726B3E20453C6D61BA
:103F3000785F655F6A65726B3E0020540020520016
:103F400020204D323034205000416363656C65722F
:103F50006174696F6E2028756E6974732F733229CE
:103F60003A20503C7072696E745F616363656C3EA9
:103F700020523C726574726163745F616363656C47
:103F80003E20543C74726176656C5F616363656C5E
:103F90003E0020204D3230312058004D6178696D4F
:103FA000756D20416363656C65726174696F6E2025
:103FB00028756E6974732F7332293A0020450020EA
:103FC0005A0020590020204D3230332058004D61D6
:103FD00078696D756D2066656564726174657320BE
:103FE00028756E6974732F73293A00537465707362
:103FF0002070657220756E69743A0020440020209C
:104000004D3230302053002044697361626C656426
:104010000A0046696C616D656E742073657474691D
:104020006E67733A0020204D3134392043203B2005
:10403000556E69747320696E2043656C736975737E
:104040000A0020286D6D29002020473231202020D1
:10405000203B20556E69747320696E206D6D0000E1
:10406000803B4400803B44000070410000964200C9
:1040700000A0420000A0420000C843EC11BF43D0A2
:10408000070000D007000064000000881300005003
:10409000726F62696E67204661696C656400205AC0
:1040A0003A200020593A200042656420583A200006
:1040B00073686F7700627574746F6E00626567690C
:1040C0006E0044697361626C6552756E6F75740041
:1040D00050757267654D6F726500506175736564E8
:1040E00000436F6E74696E7565004C6F61642046A5
:1040F000696C616D656E74205400496E73657274ED
:104100002066696C616D656E7420616E64207365F4
:104110006E64204D3130380A00220A00556E6B6EF5
:104120006F776E20636F6D6D616E643A20220020A0
:1041300042002050006F6B0042656400456E636C66
:104140006F7375726500506C65617365205265739D
:104150006574005052494E5445522048414C5445D4
:10416000440025533A20255300706F7765726F66BF
:1041700066004B494C4C45442E20005072696E74C9
:1041800065722068616C7465642E206B696C6C28A4
:10419000292063616C6C6564210A0053544F5050B0
:1041A00045442E20005072696E7465722073746FDE
:1041B000707065642064756520746F206572726F1D
:1041C00072732E2046697820746865206572726F5C
:1041D0007220616E6420757365204D393939207401
:1041E0006F20726573746172742E202854656D702F
:1041F0006572617475726520697320726573657488
:104200002E20536574206974206166746572207273
:10421000657374617274696E67290A006563686FFB
:104220003A004572726F723A0042696C696E65615C
:1042300072204C6576656C696E6720477269643AD6
:104240000A0020436F756E7420583A00426564007E
:10425000453100626564002C2073797374656D20AC
:1042600073746F7070656421204865617465725F56
:1042700049443A200048656174696E672046616967
:104280006C65640048656174696E67206661696C7D
:104290006564004D3131322053687574646F776EF8
:1042A00000202D20496E76616C69642065787472F7
:1042B00075646572206E756D62657220210A00005A
:1042C0007A012A0111241FBECFEFD1E2DEBFCDBF9C
:1042D00000E00CBF14E0A0E0B2E0E6E5FFED02E094
:1042E0000BBF02C007900D92A43EB107D9F729E198
:1042F000A4EEB4E001C01D92A932B207E1F711E2C9
:10430000C1E6D1E200E006C021970109802FFE013D
:104310000F94426CC036D10780E00807A9F70F94CC
:104320000B590D949A6F0C9400002F923F924F926C
:104330005F926F927F928F929F92AF92BF92CF9235
:10434000DF92EF92FF920F931F93CF93DF93CDB73E
:10435000DEB7E4970FB6F894DEBF0FBECDBF8CABCF
:104360003090A01821E02093A018809113078D347D
:1043700009F484C3843511F40C944C33873411F060
:104380000C945E3380911107909112078B31910547
:1043900009F41DC1B0F48430910530F420919508E2
:1043A0008230910570F137C08531910511F40C947C
:1043B00060338A31910509F406C1049709F05AC3A4
:1043C000C3C08A32910509F4EEC148F48D319105DC
:1043D000B1F008F417C14E9709F468C14BC38B358F
:1043E000910509F4C0C28C35910509F4C1C28A3522
:1043F000910509F03FC310925F090C94603314E0FB
:104400003EC1213011F00C9460330F9478090E9462
:104410000D5D0C946033213011F00C94603311E089
:10442000029709F010E00F94780919821A821B8212
:104430001C821D821E821F82188682E50F946812DC
:10444000882309F44BC00F94E3116B017C0120E039
:1044500030E0A9010F946965882309F455C0809163
:104460001B0A90911C0AA0911D0AB0911E0A88A7F0
:1044700099A7AAA7BBA780911F0A9091200AA09193
:10448000210AB091220A8CA79DA7AEA7BFA7809052
:104490008A1890908B18A0908C18B0908D1840902E
:1044A0008E1850908F186090901870909118A501F8
:1044B000940168A579A58AA59BA50F9469658111CA
:1044C0000C948033A30192016CA57DA58EA59FA5B8
:1044D0000F9469658823C1F00C94803389E40F94AC
:1044E0006812882331F00F94E31169837A838B83F8
:1044F0009C838AE40F946812882331F00F94E311AF
:104500006D837E838F83988720E030E0A9016981E5
:104510007A818B819C810F94696581110C9434346C
:1045200020E030E0A9016D817E818F8198850F9414
:10453000696581110C9434340F94EC4C83EA94E057
:104540000F94264C0C94603380E50F9468128823F6
:1045500029F00E94ADF86B017C0103C0C12CD12C65
:10456000760183E50F946812882361F00F94E311BC
:1045700020E030E04AE754E40F94CE650F94946D48
:104580006B017C010E94826C8091A408811105C09E
:1045900060E08FEC94E00E94E4BF0E9491AFC60EF1
:1045A000D71EE81EF91E0E9491AFDC01CB018C19C9
:1045B0009D09AE09BF09B7FD02C00C94603380E0CD
:1045C0000E942538F0CF0E9447DE0C94603387E0CC
:1045D0000E94556381110C9460338CE0E5E1F4E0B6
:1045E000DE01119601900D928A95E1F760E070E08E
:1045F00080E50F94570FBE016F5F7F4F0E94B37E1F
:104600000C94603387E00E94395C81110C9455341E
:1046100060E08FE40F94811281110C9460330C944C
:10462000553460E08FE40F948112811137C08EE41D
:104630000F941A12882321F08AE89DE30E94FC99C6
:1046400087E00E945563811129C00E94C6FC88231F
:1046500029F1115011F40C94DA3520E030E043EEEA
:104660005DE267E375E085E00F940D1761E08AE293
:1046700095E00F9463148BEF94E00E94FC990E94E4
:1046800091AF6093F4077093F5078093F6079093CA
:10469000F70780916409882351F2C3CF0F94D8168D
:1046A00085ED95E00E94FC990C94603300917215A1
:1046B00010917315D8012D913D914D915C916091B0
:1046C0001B0A70911C0A80911D0A90911E0A0F947A
:1046D0004B6CAB01BC0188E50E9430DE69837A83B4
:1046E0008B839C83F80124813581468157816091B9
:1046F0001F0A7091200A8091210A9091220A0F943A
:104700004B6CAB01BC0189E50E9430DE6D837E837A
:104710008F839887BE016B5F7F4FCE0101960E9409
:104720003CD9882311F40C94603380E00F9428194D
:104730000E94CF5F61E085E40F948112182F21E081
:10474000482FBE016B5F7F4FCE0101960F94713DE4
:104750006B017C019B01AC010F94FA6E811119C0B1
:1047600049815A816B817C8187EF95E00F94BA4C27
:104770004D815E816F81788582EF95E00F94BA4C10
:10478000B701A6018DEE95E00F94BA4C8AE00E9425
:1047900020380E94B65F113011F40E94ACFC0E94D8
:1047A00057620C94603380919508813011F00C941D
:1047B000603389E40F946812E82E882321F00F9467
:1047C000E011082F01C000E08AE40F946812F82E6F
:1047D000882321F00F94E011182F01C010E0EE2083
:1047E00011F0053020F4FF2041F0153030F08FEF4C
:1047F00095E00F94264C0C94603380E1EBE1FAE0F5
:10480000AAE8B8E101900D928A95E1F7EE2019F13E
:10481000602F000F770B880B990B0F946F65209119
:1048200075183091761840917718509178180F9438
:10483000CE6520917D1830917E1840917F1850915F
:1048400080180F944B6C60938A1870938B18809328
:104850008C1890938D18FF2019F1612F110F770B91
:10486000880B990B0F946F652091791830917A1805
:1048700040917B1850917C180F94CE65209181183F
:104880003091821840918318509184180F944B6C8A
:1048900060938E1870938F1880939018909391184E
:1048A00060E080E50F9481128823C1F1EE20D1F001
:1048B000E0917215F091731520813181428153810D
:1048C00060918A1870918B1880918C1890918D1836
:1048D0000F944A6C60938A1870938B1880938C188D
:1048E00090938D18FF20D1F0E0917215F09173151F
:1048F000248135814681578160918E1870918F187F
:1049000080919018909191180F944A6C60938E1832
:1049100070938F18809390189093911840E050E016
:10492000BA0186E40E9430DE6B017C0120E030E0B9
:10493000A9010F94726E18164CF420E030E040E7A5
:1049400052E4C701B6010F94276D03C060E070E028
:10495000CB0169837A838B839C83CE0101960E946D
:1049600034610C9460338FE080935F090C94603362
:1049700080911007882359F1893011F00C9460332D
:1049800017ECA12E14E0B12E0BE1C02E0AE0D02EC0
:1049900000E010E0F12CD5018D915D010F946812BB
:1049A000882369F0B3E0FB1202C011E001C001E00E
:1049B0000F94E311F6016083718382839383F394F0
:1049C000F4E0CF0ED11C24E0F212E5CF44C0A7ECF6
:1049D000CA2EA4E0DA2EBBE1EB2EBAE0FB2E00E0FB
:1049E00010E0212CD6018D916D010F94681288235F
:1049F00059F10F94E3114B015C01F70120813181E2
:104A0000428153810F944A6C2B013C012DEB37E31B
:104A100046E855EB0F94726E87FD0AC02DEB37E325
:104A200046E855E3C301B2010F946965181664F4B2
:104A3000F3E02F1202C011E001C001E0D7018D9216
:104A40009D92AD92BC9213972394B4E0EB0EF11CAF
:104A5000E4E02E12C7CF002319F00E94556206C071
:104A6000112321F087E29AE00E94936C0E94576222
:104A70000C9460330F944F3C0C9460338091110779
:104A8000909112078837910509F4D6C708F017C12D
:104A90008D34910509F43CC408F093C08A31910526
:104AA00009F472C370F58431910509F4ADC278F44C
:104AB0008131910509F494C228F4029708F446C2A2
:104AC0000C944933429709F47DC60C9449338731DD
:104AD000910509F4D8C248F48531910509F4C5C29D
:104AE000469709F4C6C20C9449338831910509F4FC
:104AF000E1C2499711F00C9449330F94920E0C9433
:104B000060338032910509F4BFC3E8F58D3191051A
:104B100009F4A3C380F48B31910509F443C34C9786
:104B200011F00C9449338091190590911A050E9457
:104B3000CBEB0C9460338E31910509F495C34F97FC
:104B400011F00C9449330E94237A6C8F7D8F8E8FE5
:104B50009F8FBE016F5F7F4FCE014C960E94814DAB
:104B600060E0CE0101960E9493C00F94EF4CBE010D
:104B70006F5F7F4F86EB96E00F94E34C8AE00E94D4
:104B800020380C9460338934910509F4AAC360F489
:104B90008132910509F4A1C3C09711F00C944933F7
:104BA0000E94CCF80C9460338B34910509F4ACC3AB
:104BB0008C34910511F00C9449330E94727A0C9454
:104BC00060338B36910509F4E1C4D0F58435910545
:104BD00009F4F8C5E0F48135910509F4D6C530F43F
:104BE0008E34910509F498C30C94493382359105AC
:104BF00009F4E1C58335910511F00C944933809196
:104C00005F098F7E806280935F090C9460338836E1
:104C1000910509F413C450F48535910509F4D5C5FF
:104C20008C35910509F4F4C50C9449338936910506
:104C300009F455C48A36910509F464C40C944933C7
:104C40008137910509F414C5D8F48E36910509F41D
:104C5000ACC458F48C36910511F40C9460338D3645
:104C6000910509F412C40C9449338F36910509F467
:104C7000BAC48037910511F40C9460330C94493315
:104C80008537910509F465C668F48237910509F402
:104C90005DC68337910511F00C9449330E948097CB
:104CA0000C9460338637910509F464C68737910503
:104CB00011F00C9449330E9402630C9460338139E3
:104CC000F1E09F0711F40C94A23008F089C08D3CEC
:104CD000910509F4B5C7E8F58B39910509F42DC59F
:104CE000E0F48D37910509F44DC568F489379105D5
:104CF00011F00C94493310924E0810924D080E9406
:104D0000147A0C9460338C38910509F4D6C4813937
:104D1000910509F498C60C944933893C910509F42E
:104D20004DC750F48E3B910509F4E7C4883C9105CA
:104D300009F4FDC60C9449338B3C910509F461C715
:104D40008C3C910511F00C9449330F942B110C9469
:104D500060338C32A1E09A0711F40C94552FE8F4DB
:104D60008D3D910509F4B3C750F4833D910509F4D5
:104D70006AC78C3D910509F469C70C9449338831A1
:104D8000E1E09E0709F4FAC78232914011F00C94D9
:104D900049330E94FD910C9460338F3221E09207D9
:104DA00011F40C949F3068F48D32A1E09A0711F44D
:104DB0000C946A2F8E32914011F40C945C300C9458
:104DC00049338033E1E09E0711F40C94EA2F8039D7
:104DD000914011F00C9449330E94826C0C94603322
:104DE000883F31E0930711F40C94BF3108F055C0AF
:104DF000853AB1E09B0711F40C94D63018F58C3944
:104E0000F1E09F0711F40C94B33068F4823931E07B
:104E1000930711F40C94AC308A39914011F40C943E
:104E200060330C9449338D39B1E09B0711F40C9435
:104E30002F33843A914011F00C9449330E94F6DAF2
:104E40000C946033853FF1E09F0711F40C94B93165
:104E500078F4863E31E0930711F40C944B31843F93
:104E6000914011F00C9449330E940A640C94603311
:104E7000863FB1E09B0711F40C94BC31873F914011
:104E800011F00C94493361E083E50F94811291E0B5
:104E900089270F9400350C9460338335F3E09F0726
:104EA00011F40C94153318F58B3532E0930711F497
:104EB0000C94DC3178F48C30B2E09B0711F40C9444
:104EC000CF318835924011F00C9449330F948C0DFA
:104ED0000C9460338D3BF2E09F0711F40C94533235
:104EE0008E3B924011F40C9456320C944933873E19
:104EF00033E0930711F40C941833C8F48C36B3E004
:104F00009B0711F40C946033803A934011F00C9499
:104F100049332091190530911A0590910416926039
:104F200090930416C9010E94CBEB0C946033883E29
:104F3000F3E09F0711F40C944633893E934011F03F
:104F40000C9449330E946F9A0C94603380E50F945F
:104F50006812882329F00E94ADF86B017C0103C020
:104F6000C12CD12C760183E50F946812882361F05F
:104F70000F94E31120E030E04AE754E40F94CE654B
:104F80000F94946D6B017C010E94826C80911905D5
:104F900090911A05009721F061E00E9493C005C02E
:104FA00060E088E296E00E94E4BF80911107909152
:104FB0001207892B19F060E276E002C068E176E022
:104FC00020E030E041EE50E482E00F940D1740E025
:104FD000C701B6010E94B43E0E94BDD00C9460335C
:104FE0008091140784FF02C00C94F035809116075D
:104FF00087FF02C00C94F03580911707837011F081
:105000000C94F0350C940C368091041683FF25C067
:1050100083E596E00F94264C8091041683FF17C019
:1050200089E296E10E94189F8BE1E9E2F6E1DE0158
:10503000119601900D928A95E1F760E070E0CE0143
:1050400001960E94D1EFCE0101960F94BC1284E428
:1050500096E00F94264C0C9460330F94EF4C84E64A
:1050600096E00F94264C0C9460330E94A7EE0C94AB
:1050700060338091041682FF02C00C9460330E945A
:10508000E2EA0C946033E0911905F0911A058081F1
:10509000882329F0803209F410823196F8CF60E03D
:1050A0008091190590911A050E9411EC1092FA084E
:1050B0000C94603383E50F946812882321F00F94D9
:1050C000B0110E94254F84E50F9468128823A9F03F
:1050D0000F94B0116B017C010E94577AC0924A066E
:1050E000D0924B06E0924C06F0924D06CD28CE2889
:1050F000CF2819F081E080935D098091C810882342
:10510000F9F080E090E0A0EAB1E489839A83AB8370
:10511000BC831C8E1D8E1E8E1F8E18A219A21AA271
:105120001BA200E010E020E0AE014F5F5F4FBE0128
:10513000645E7F4FCE0180960F9490140C94603380
:105140000E94E037882381F00E947DEA0E940338A4
:1051500087EA99E00E9424EA109272121092731268
:10516000109274121092751261E08BE19EE20F941E
:10517000631443EE5DE26EE676E085E00F94683DF1
:105180000E94BDD00C9460338091041683FD02C050
:105190000C94603383E50F94681281110C941A36D5
:1051A0000C94603383E40F941A12882361F184E82D
:1051B00096E00F94264C809170178823D9F0BE0199
:1051C0006F5F7F4F8DE697E10F942133CE010196FB
:1051D0000E943498CE0101960E949EEB809181142A
:1051E000882361F080E20E94203881E894E10E94E7
:1051F000349804C08AE796E00F94264C8AE00E9417
:1052000020380C9460338091041682FF20C0C09037
:105210000016D0900116E0900216F090031683E974
:1052200096E00F94264C4AE0C701B6010E940DF3A8
:105230008FE20E9420386091FC157091FD158091DD
:10524000FE159091FF150E94CFE90C94603385EA1A
:1052500096E00F94264C0C946033809104168E7F58
:10526000809304160C9460338091041683FD02C071
:105270000C9460330E9432D18091190590911A05E7
:105280000E9460EF0C9460338091041682FD0E94AE
:10529000826C8091041683FD02C00C94603360E040
:1052A00080E50F948112182F682F80911905909135
:1052B0001A050E9411EC83E50F946812882321F0EF
:1052C0000F94B0110E94254F0E947DEA11110C9499
:1052D00060330E9403380C9460330E94604E0C943B
:1052E000603380E50F941A12882311F40C94603314
:1052F0000F94C01190E08536910510F084E690E09F
:105300008093FA080C9460330E9403380C94603345
:105310000E9415380C94603360E070E083E50F94D0
:1053200074128E34910531F40E9461680E94BDD0E0
:105330000C94603381E297E00F94264C60913D0815
:1053400070913E0888E197E00F94B14C60913F085E
:10535000709140088BE097E00F94B14C60913D084C
:1053600070913E0880913F0890914008681B790B2E
:1053700080915D09815021E030E0823010F020E022
:1053800030E0621B730B80E097E00F94B14C8AE031
:105390000E94203888EF96E00F94264C80914108B7
:1053A00090914208A0914308B09144088C8F9D8F42
:1053B000AE8FBF8FBE016F5F7F4FCE014C960E94B4
:1053C000814DBE016F5F7F4F8BEE96E00F94E34CF3
:1053D0008091450890914608A0914708B0914808EF
:1053E0008C8F9D8FAE8FBF8FBE016F5F7F4FCE01C1
:1053F0004C960E94814DBE016F5F7F4F8BED96E012
:105400000F94E34C20E030E04AE754E4609149080F
:1054100070914A0880914B0890914C080F94276D29
:10542000AB01BC0183EC96E00F94BA4C8DE60E9470
:1054300020388AE00E9420380C94603380916E10EE
:1054400083FF02C00C9460330F94790A87FF02C077
:105450000C94603389E40F946812882311F40C943F
:105460001F360F94C01190E01816190614F481E04D
:1054700090E026E0289FF001299FF00D1124E450D0
:10548000F84F808191810C94263680916E1083FFB5
:1054900002C00C9460330F94790AF82E87FF02C083
:1054A0000C94603389E40F946812082F882311F458
:1054B0000C942F360F94C01190E01816190614F4AE
:1054C00081E090E026E0289FF001299FF00D112453
:1054D000E450F84F8081918110E00C943C360F9499
:1054E000790A182F87FF02C00C94653384E497E093
:1054F0000F94264C812F0E944B9F8AE00E942038F7
:105500000C94653360E080E50E94EADAF82E31E021
:10551000381710F40C94603381E40F941A12882326
:1055200029F06091590A062F10E002C00FEF10E039
:1055300089E40F946812882399F00F94C01190E0C9
:105540001816190614F481E090E026E0289FF00177
:10555000299FF00D1124E450F84F0481158108C0F3
:1055600083E50F946812882319F00F94B0118B0112
:10557000EF2DF0E0E75AF54FB8010F3F110519F094
:1055800010F06FEF70E060830C94603360E080E5B2
:105590000E94EADA823010F00C946033E82FF0E0D9
:1055A000E75AF54F10820C9460338EE40F94681222
:1055B000882311F40C9460330F94B011E0916B02C6
:1055C000A2E6EA9FF0011124E253FD4FE081B7E625
:1055D000EB02F0011124E85EF84F6083718382834F
:1055E00093830C94603383E50F941A12882331F06F
:1055F00060E083E50E94EADA80936E100F94EF4C2E
:1056000085E597E00F94264C80916E10882369F110
:10561000FBE4EF2EF7E0FF2E00E010E020E08091A9
:105620006E1090E0A0E0B0E0002E04C0B695A79503
:10563000979587950A94D2F780FF0EC0DD24D39406
:10564000D20E222319F08CE20E942038F7018591B6
:1056500094910F94264C2D2D0F5F1F4FE2E0EE0E1C
:10566000F11C05301105D9F6C9CD87E497E0C4CD0A
:1056700083E50F946812882381F00F94C011282FBE
:1056800030E02D33310524F4809300020C94603314
:105690008CE3809300020C9460330F94EF4C1091D4
:1056A00000028CE597E00F94264C812F0F94244C38
:1056B0008AE00E9420380C94603380916E1083FF42
:1056C00001C0FEC789E40F946812882311F40C947A
:1056D0006C360F94C01190E01816190614F481E08E
:1056E00090E026E0289FF001299FF00D1124E4505E
:1056F000F84F828193810C94743680916E1083FDF3
:10570000DFC789E40F946812882311F40C947B3668
:105710000F94C01190E01816190614F481E090E07F
:1057200026E0289FF001299FF00D1124E450F84F46
:105730008281938110E00C94893683E50F9468127E
:10574000882309F4BDC70F94C011182F8D3308F0BA
:105750008CE3809306150E9491AF6B017C01212F91
:1057600030E0A8EEB3E00F94F36BC60ED71EE81E30
:10577000F91EC0920215D0920315E0920415F09222
:1057800005159EC70F94920E9BC70E94A5A40E9468
:10579000F06D0E9415380E94183868EE73E080E0C2
:1057A00090E00F94024C0E941D3860E081E897E081
:1057B0000E94E4BF85C780915F098F7D80618093DF
:1057C0005F097EC70F941F107BC783E50F941A12E1
:1057D000882309F475C70E9491AF6093F407709312
:1057E000F5078093F6079093F7070F94E31120E0F5
:1057F00030E04AE754E40F94CE650F94946D6093C3
:10580000E4047093E5048093E6049093E70458C79A
:105810000F94790A87FD54C79091140794FD04C032
:105820009091160797FF0AC077ECC72E74E0D72E29
:10583000EFE6EE2EE0E1FE2E10E009C09091170792
:10584000937091F7682F81E00F94791039C7D601D2
:105850008D916D010F946812882309F46DC0133087
:1058600009F063C00F94E3114B015C0120E030E0CC
:1058700040EA51E40F94696587FF4EC0A501940189
:1058800060918F1070919010809191109091921072
:105890000F94276D2B013C019B01AC0160913D0AE7
:1058A00070913E0A80913F0A9091400A0F94CE6514
:1058B00060933D0A70933E0A80933F0A9093400A9A
:1058C000A301920160919F107091A0108091A1108E
:1058D0009091A2100F94CE6560939F107093A010CA
:1058E0008093A1109093A21060914D0A70914E0A7E
:1058F00080914F0A9091500A0F946D65A301920117
:105900000F94CE650F94946D60934D0A70934E0A78
:1059100080934F0A9093500A80928F10909290102B
:10592000A0929110B092921007C00F94E311F7016A
:10593000648B758B868B978B1F5FF4E0EF0EF11CE9
:10594000143009F084CF0E94086ABAC60E944298B7
:10595000B7C68091190590911A05009741F0DC01B6
:105960002C91222321F060E00E9493C0A9C60E94DE
:10597000BDD0A6C60091190510911A0524E08FEF3D
:10598000F12C30E0215029F1F8019081492F4B7F13
:10599000413421F441814133E1F408C09035C9F428
:1059A000918190539A30A8F4892F08C0913421F046
:1059B000953421F431E002C0FF24F394A8014E5F36
:1059C0005F4F8A014F5F5F4FF80190819032C9F3BA
:1059D000D9CF4091F415833090F4882391F02FEFC4
:1059E000280F283080F481E090E0A0E0B0E004C00F
:1059F000880F991FAA1FBB1F2A95D2F705C0842FB5
:105A000003C08FEF01C080E064EF75E17A836983A2
:105A10004B838093F41531110F94EF4CFF2021F04C
:105A20008FE897E00F94264CC8010E94B799CE01E9
:105A300001960F94F24C44C620934E0820934D08D3
:105A40000E94147A3DC660E070E083E50F94741202
:105A5000823038F00F94EC4C82E997E00F94264C9A
:105A60002FC68C01112788E40F9468128823E1F077
:105A70000F94E0118A3A910544F00F94E0118530BB
:105A8000914034F40F94E01105C08AEA90E002C01E
:105A900084E091E026E0209FF001219FF00D112489
:105AA000E450F84F9183808382E40F946812882336
:105AB000D9F00F94E011059744F00F94E0118F3660
:105AC000910534F40F94E01105C085E090E002C028
:105AD0008EE690E026E0209FF001219FF00D11243A
