:100000000C94271C0C94581C0C94581C0C94581CD1
:100010000C94581C0C94581C0C94581C0C94581C90
:100020000C94581C0C94581C0C94581C0C94581C80
:100030000C94581C0C94581C0C94581C0C94581C70
:100040000C94581C0C949BE20C94581C0C94581C57
:100050000C94581C0C94581C0C94D3C20D9470171B
:100060000C94581C0C949B3A0C94873A0C94581C92
:100070000C94581C0C94581C0C94581C0C94581C30
:100080000C94581C0C94581C0C94581C0C94581C20
:100090000C94A7390C94913A0C94581C0C94581C4D
:1000A0000C94581C0C94581C0C94581C0C94581C00
:1000B0000C94581C0C94581C0C94581C0C94581CF0
:1000C0000C94581C0C94581C0C94581C0C94581CE0
:1000D0000C94581C0C94581C0C94581C0C94581CD0
:1000E0000C94581CD639E839FA390B3A133A423A8B
:1000F000173A423A1B3A1F3A423A233A273A2B3AE6
:10010000333A423A3D3ACA3ADC3AEE3AFF3A073BD2
:10011000363B0B3B363B0F3B133B363B173B1B3B06
:100120001F3B273B363B313BCE0198014C0162011E
:10013000D20160017601B2015001AA0186013801A5
:100140007001CA018401C201840184018401840117
:100150008401840184018401840184018401840177
:100160008401840184018401840184018401840167
:10017000840184018401840184018401B601840125
:1001800084018401840184018401840184019C012F
:100190008401840184018401840184018401840137
:1001A00084018401660190012C018A01C6015E016F
:1001B0005A0174012A016401AE013A014A01200189
:1001C000C401CC017401C001A40180015601BA012F
:1001D000A2014401A801320152019401C8012E017B
:1001E000240158016A01A60132017C019E015C01D3
:1001F000084AD73B3BCE016E84BCBFFDC12F3D6C8E
:1002000074319ABD56833DDA3D00C77F11BED9E4F3
:10021000BB4C3E916BAAAABE000000803F05A84CD3
:10022000CDB2D44EB93836A9020C50B9918688089F
:100230003CA6AAAA2ABE000000803F000D942A1105
:100240000D9435160D9442110D94D8160D943D045D
:100250000D9473120D941D160D9416160D94CE1652
:100260000D942D040D9423170D9438050D9432111F
:100270000D9458120D942B160D9473050D94601D5A
:100280000D943A110D9445050D94A0160D94580641
:100290000D9426110D942F160D9446120D94421DA7
:1002A0000D9452120D94B4160D9438040D948C16BE
:1002B0000D94E2160D9410160D9419170D940C164A
:1002C0000D944C120D946D120D9421160D94B514CD
:1002D0000D944A110D94F1160D94E7050D94430EFB
:1002E0000D9462140D944A050D9450160D944F12FE
:1002F0000D9454050D9419060D9405170D943206AE
:100300000D944B160D943E110D941F130D94551220
:100310000D944F050D9419160D94DC0E0D944E118D
:100320000D941C130D942E110D94BC160D943611C2
:100330000D9443120D9400060D9471140D940F1733
:100340000D9492070D9496160D9447160D94FB1676
:100350000D94AA160D9468120D9440050D9427165D
:100360000D9470120D945B120D944B060D9498141D
:100370000D9476120D9491160D94661E0D94B50F82
:100380000D9443160D949E140D9439160D94081671
:100390000D94C4160D94E6120D943D160D946A1238
:1003A0000D94B10D0D9449120D9446114E414E49D4
:1003B0004E495459494E46CDCCCC3D0AD7233C1723
:1003C000B7D13877CC2B329595E6241FB14F0A0070
:1003D0000020410000C84200401C4620BCBE4CCA60
:1003E0001B0E5AAEC59D7400407A10F35A00A072DD
:1003F0004E18090010A5D4E80000E8764817000060
:10040000E40B54020000CA9A3B000000E1F505002D
:100410000080969800000040420F000000A0860176
:10042000000000102700000000E803000000006446
:1004300000000000000A00000000000100000000B1
:10044000002C76D888DC674F0823DFC1DFAE59E186
:10045000B1B796E5E3E453C63AE651997696E8E6F5
:10046000C28426EB898C9B62ED407C6FFCEFBC9CC8
:100470009F40F2BAA56FA5F490055A2AF75C936BDA
:100480006CF9676DC11BFCE0E40D47FEF520E6B595
:1004900000D0ED902E0300943577050080841E086F
:1004A0000000204E0A000000C80C333333330F988D
:1004B0006E12831141EF8D2114893BE65516CFFE54
:1004C000E6DB18D1844B381BF77C1D901DA4BBE4E0
:1004D00024203284725E228100C9F124ECA1E53D22
:1004E00027434F4D4D554E49434154494F4E0044CB
:1004F000525952554E004552524F525300494E46A2
:100500004F004543484F0047322F47332062616414
:1005100020706172616D65746572730A0047322FD5
:1005200047332062616420706172616D6574657229
:10053000730A00536C6565702E2E2E00486F6D6532
:1005400020257325732573204669727374004D301E
:100550002053746F70004D312053746F7000436CE2
:1005600069636B20746F20526573756D652E2E2E36
:10057000004E6F204D6F76652E00456E64206669D3
:100580006C65206C6973740A00426567696E206649
:10059000696C65206C6973740A004E6F206D656428
:1005A00069610A00526573756D696E672053440076
:1005B000286E6F2066696C65290043757272656EDE
:1005C000742066696C653A20005072696E742074FC
:1005D000696D653A20000A53746174733A20466964
:1005E0006C616D656E7420757365643A20002C2013
:1005F0004C6F6E67657374206A6F623A2000546FA7
:1006000074616C2074696D653A2000537461747371
:100610003A20002C204661696C65643A20002C2049
:1006200046696E69736865643A20005072696E7439
:10063000733A200053746174733A2000436F6F6CF7
:10064000696E672E2E2E0048656174696E672E2EC6
:100650002E0045202553006F6B006F666600020573
:10066000FD04F604EF04E10444454255473A004DC9
:1006700031313320530043522D3130205633204F37
:1006800046462E002F2F004D31343520533C696EE5
:100690006465783E206F7574206F662072616E67A6
:1006A000652028302D31290A0020520041636365FE
:1006B0006C65726174696F6E3A20500020204D6144
:1006C000783A2000200020204D696E3A2000536FB8
:1006D000667420656E6473746F70733A20004652BE
:1006E0003A0020466C6F773A200020643A00206977
:1006F0003A0020703A00496E76616C696420657832
:100700007472756465720A0020643A0020693A00C8
:1007100020703A0064697300656E0043290A006125
:10072000626C656420286D696E2074656D702000B0
:10073000436F6C64206578747275646573206172B0
:1007400065200046696C616D656E742072756E6F10
:1007500075742064697374616E636520286D6D29FA
:100760003A200046696C616D656E742072756E6F1B
:1007700075742000454550524F4D204F4B0A004F95
:100780004646004F4E00506F7765722D6C6F737345
:10079000207265636F7665727920004D38340044AD
:1007A0006F6E65207072696E74696E672066696C21
:1007B000650A004D3737004D333100496E76616C64
:1007C00069642065787472756465720A0045727296
:1007D0006F722077726974696E6720746F20454567
:1007E00050524F4D210A0053544F505045442E2033
:1007F000005072696E7465722073746F70706564F6
:100800002064756520746F206572726F72732E207C
:1008100046697820746865206572726F7220616E17
:100820006420757365204D39393920746F207265E5
:1008300073746172742E202854656D7065726174D2
:100840007572652069732072657365742E20536517
:1008500074206974206166746572207265737461B6
:100860007274696E67290A004E6F20436865636B76
:1008700073756D2077697468206C696E65206E757C
:100880006D6265722C204C617374204C696E653A00
:1008900020004E6F20436865636B73756D20776928
:1008A0007468206C696E65206E756D6265722C20AF
:1008B0004C617374204C696E653A2000636865630F
:1008C0006B73756D206D69736D617463682C204C5A
:1008D000617374204C696E653A20004C696E652026
:1008E0004E756D626572206973206E6F74204C6165
:1008F0007374204C696E65204E756D6265722B3184
:100900002C204C617374204C696E653A20004D3187
:1009100031300053657269616C2073746174757352
:10092000206D69736D617463680A005344207265B9
:100930006164206572726F720A002121204B494C5C
:100940004C20636175736564206279204B494C4C7F
:1009500020627574746F6E2F70696E0A00212120F9
:100960004B494C4C20636175736564206279207437
:100970006F6F206D75636820696E61637469766559
:100980002074696D65202D2063757272656E742008
:10099000636F6D6D616E643A200070617573650000
:1009A0004D363030002066696C616D656E745F7223
:1009B000756E6F7574200066696C616D656E745F2D
:1009C00072756E6F757420540046696C616D656E4A
:1009D0007452756E6F75742054004D6564696120A2
:1009E00052656D6F766564004D6564696120496E7E
:1009F000736572746564004D313030305300627538
:100A000073793A2070617573656420666F7220692E
:100A10006E7075740A00627573793A20706175732F
:100A2000656420666F7220757365720A0062757363
:100A3000793A2070726F63657373696E670A004458
:100A40006966663A2020200046726F6D5374703AD2
:100A500000537465707065723A005261773A2020D5
:100A60002020000A4C6F676963616C3A00436F7520
:100A70006E7420453A004361703A004D4541545030
:100A800041434B00434F4F4C45525F54454D5045F9
:100A9000524154555245004348414D4245525F54DE
:100AA000454D5045524154555245004241425953DB
:100AB00054455050494E470041524353004D4F5406
:100AC000494F4E5F4D4F44455300544845524D41A8
:100AD0004C5F50524F54454354494F4E004C4F4E7B
:100AE000475F46494C454E414D45004155544F5294
:100AF00045504F52545F53445F5354415455530033
:100B000053445F57524954450052455045415400A3
:100B10005344434152440050524F4D50545F53553B
:100B200050504F525400454D455247454E43595F32
:100B300050415253455200434153455F4C49474849
:100B4000545F4252494748544E45535300544F470F
:100B5000474C455F4C494748545300534F46545700
:100B60004152455F504F574552004255494C445FF2
:100B700050455243454E54004C4556454C494E470E
:100B80005F44415441005A5F50524F424500525514
:100B90004E4F5554004155544F4C4556454C00500E
:100BA00052494E545F4A4F420050524F47524553AC
:100BB00053004155544F5245504F52545F54454D88
:100BC00050004155544F5245504F52545F504F536F
:100BD00000564F4C554D45545249430045455052DF
:100BE0004F4D0042494E4152595F46494C455F5472
:100BF00052414E534645520053455249414C5F586D
:100C00004F4E5F584F4646004649524D5741524558
:100C10005F4E414D453A4D61726C696E20322E3007
:100C20002E382E312D46695A692D3131353230300A
:100C300020284D6179203135203230323120313455
:100C40003A34393A33312920534F555243455F43A3
:100C50004F44455F55524C3A6769746875622E631C
:100C60006F6D2F4D61726C696E4669726D7761723E
:100C7000652F4D61726C696E2050524F544F434F37
:100C80004C5F56455253494F4E3A312E30204D411C
:100C90004348494E455F545950453A43522D3130EF
:100CA0002056332045585452554445525F434F55C2
:100CB0004E543A3120555549443A63656465326172
:100CC00032662D343161322D343734382D3962316A
:100CD000322D6335356336326633363766660A0041
:100CE0006F6B0A00526573656E643A200043616E53
:100CF0006E6F74206F70656E207375626469722008
:100D0000002569730025696D2025697300256968D0
:100D10002025696D2025697300256964202569688F
:100D20002025696D2025697300256979202569646E
:100D3000202569682025696D202569730020573AB0
:100D40000042656420436F6F6C696E672E2E2E0023
:100D50004265642048656174696E672E2E2E0023FB
:100D6000646566696E652044454641554C545F0094
:100D7000626564004B6420004B6920004B702000CA
:100D8000504944204175746F74756E652066696EB4
:100D90006973686564212050757420746865206CDF
:100DA000617374204B702C204B6920616E64204B62
:100DB0006420636F6E7374616E74732066726F6DFE
:100DC0002062656C6F7720696E746F20436F6E666A
:100DD000696775726174696F6E2E680A00504944C4
:100DE000204175746F74756E65206661696C656409
:100DF000212074696D656F75740A00504944204163
:100E000075746F74756E65206661696C6564212008
:100E100054656D706572617475726520746F6F20B2
:100E2000686967680A00204B643A2000204B693AE1
:100E30002000204B703A200020436C61737369637B
:100E400020504944200A00204E6F206F766572734F
:100E5000686F6F740A002054753A2000204B753A71
:100E60002000206D61783A2000206D696E3A2000E4
:100E700020643A200020626961733A20005049449E
:100E8000204175746F74756E652073746172740A95
:100E900000504944204175746F74756E6520666119
:100EA000696C6564212054656D706572617475723A
:100EB0006520746F6F20686967680A005049442094
:100EC0004175746F74756E650050494420417574A6
:100ED0006F74756E65206661696C6564212042617E
:100EE00064206865617465722069640A00457272E5
:100EF0003A207574663820666F6E74206E6F7420A9
:100F0000696E697469616C697A65642E00457272F4
:100F10003A207574663820666F6E74206E6F742088
:100F2000696E697469616C697A65642E00457272D4
:100F30003A207574663820666F6E74206E6F742068
:100F4000696E697469616C697A65642E00000C0FC2
:100F500000FE07022503BB017FFE08FE08FE050810
:100F60000806000040F0C888889878100508080630
:100F70000000C0F88888888888F805050506000103
:100F80002030F830200508080600002070F82020E6
:100F90002020E00509090600FF2070A8A8B888886D
:100FA0007020070505070001D86C366CD8050909C3
:100FB0000600FFF8A88888888888A8F8050A0A0625
:100FC00000FE205050505088A8A8887003030306E4
:100FD000000340A040FFFFFFFFFFFFFFFFFFFFFFF9
:100FE000FFFFFFFFFFFFFFFFFFFFFF000000060501
:100FF000FF010707060200808080808000800303D5
:1010000003060105A0A0A005060606000050F85042
:1010100050F8500509090600FF2070A8A07028A804
:101020007020050707060000C8C8102040989805E2
:10103000070706000040A0A040A89068010303062F
:1010400002058080800309090601FF20404080805E
:10105000804040200309090601FF804040202020F5
:1010600040408005070706000020A8702070A820D7
:101070000505050600012020F820200203030601D3
:10108000FFC04080050101060003F80202020601CC
:1010900000C0C0050707060000081010204040806F
:1010A000050707060000708898A8C888700307071E
:1010B00006010040C040404040E005070706000030
:1010C000708808102040F8050707060000F808108F
:1010D0003008887005070706000010305090F8109F
:1010E00010050707060000F880F00808887005075B
:1010F00007060000304080F088887005070706006A
:1011000000F808101020202005070706000070884E
:10111000887088887005070706000070888878083E
:101120001060020505060100C0C000C0C00206062E
:101130000601FFC0C000C040800305050601012074
:1011400040804020050303060002F800F80305056F
:1011500006010180402040800507070600007088D6
:1011600010202000200507070600007088B8A8B8E6
:101170008070050707060000708888F88888880551
:101180000707060000F04848704848F005070706C2
:10119000000070888080808870050707060000F0D6
:1011A0004848484848F0050707060000F88080F0E6
:1011B0008080F8050707060000F88080F0808080B6
:1011C000050707060000708880809888700507076B
:1011D000060000888888F8888888030707060100C9
:1011E000E04040404040E00507070600003810108E
:1011F000101090600507070600008890A0C0A0901E
:1012000088050707060000808080808080F8050739
:101210000706000088D8A888888888050707060080
:10122000008888C8A8988888050707060000708885
:101230008888888870050707060000F08888F08095
:10124000808005070706000070888888A8906805D8
:101250000707060000F08888F0A0908805070706B9
:10126000000070888070088870050707060000F885
:101270002020202020200507070600008888888875
:1012800088887005070706000088888888505020E5
:1012900005070706000088888888A8A85005070762
:1012A000060000888850205088880507070600003F
:1012B00088885020202020050707060000F8081025
:1012C000204080F80309090601FFE08080808080CB
:1012D0008080E005070706000080404020101008CD
:1012E0000309090601FFE020202020202020E0053E
:1012F00003030600052050880501010600FEF803DF
:10130000030306010580402005050506000070085E
:101310007888780507070600008080F0888888F0C4
:101320000505050600007080808870050707060027
:101330000008087888888878050505060000708808
:10134000F08070050707060000304840E04040404C
:101350000507070600FE708888887808700507076B
:101360000600008080F0888888880307070601004F
:101370004000C0404040E00409090601FE10003072
:1013800010101010906005070706000080808890FC
:10139000E09088030707060100C04040404040E05D
:1013A000050505060000D0A8A8A8A80505050600A3
:1013B00000B0C88888880505050600007088888800
:1013C000700507070600FEF0888888F08080050712
:1013D000070600FE78888888780808050505060055
:1013E00000B0C88080800505050600007880700880
:1013F000F00507070600002020F82020201805052A
:10140000050600008888889868050505060000889C
:10141000888850200505050600008888A8A8500582
:10142000050506000088502050880507070600FEC5
:1014300088888850204080050505060000F81020A7
:1014400040F80309090601FF204040408040404029
:10145000200109090602FF808080808080808080D2
:101460000309090601FF80404040204040408005BC
:10147000030306000248A890FF52756E6F75742032
:1014800044697374206D6D004C6F6164206D6D0054
:10149000556E6C6F6164206D6D0046696C2E204442
:1014A00069612E004520696E206D6D5E33004D33FD
:1014B0003033205531204525692053256900504996
:1014C00044204175746F74756E65202A005049443C
:1014D0002D44202A005049442D49202A00504944D7
:1014E0002D50202A00200820466163740020082027
:1014F0004D6178002008204D696E004F6666004FF0
:101500006E004175746F74656D700024F4D43050B2
:10151000C38E20C2A24017828B7011127A910D8166
:101520006CD90AA861E108C7586607615143061ED5
:101530004B5D05C145A7041A411104093D9803718B
:101540003931034036DB0265339102D430540280D6
:101550002E1D02632CEE01752AC501B028A00110D2
:101560002781018F2564012B244B01E0223401AC3B
:10157000211F018D200D01801FFC00841EED0097AE
:101580001DDF00B81CD200E61BC600201BBC006497
:101590001AB200B219A8000A19A0006A189900D15D
:1015A00017910040178B00B516840031167E00B3EA
:1015B0001579003A157300C7146F0058146A00EECD
:1015C0001366008813630025135E00C7125B006C6E
:1015D00012570015125400C111510070114F002113
:1015E000114B00D61049008D1047004610440002F0
:1015F000104200C00F4000800F3E00420F3C00062A
:101600000F3B00CB0E3800930E37005C0E350027E1
:101610000E3400F30D3200C10D3100900D3000602A
:101620000D2E00320D2D00050D2C00D90C2B00AE17
:101630000C2900850C29005C0C2700350C27000EB6
:101640000C2600E80B2400C40B2400A00B23007D13
:101650000B23005A0B2100390B2100180B2000F836
:101660000A1F00D90A1E00BB0A1E009D0A1D008029
:101670000A1D00630A1C00470A1B002C0A1B0011EC
:101680000A1A00F7091A00DD091900C4091900AB8C
:10169000091900920917007B091800630917004C0B
:1016A00009160036091600200916000A091500F56A
:1016B000081500E0081400CC081400B8081400A4B1
:1016C000081400900813007D0812006B08130058DE
:1016D00008120046081200340811002308110012F5
:1016E00008110001081100F0071000E0071000D0F9
:1016F000071000C0071000B0070F00A107100091ED
:10170000070E0083070F0074070F0065070E0057D0
:10171000070E0049070E003B070D002E070E0020A4
:10172000070D0013070D0006070D00F9060C00ED6C
:10173000060D00E0060C00D4060C00C8060C00BC28
:10174000060C00B0060C00A4060B0099060C008DD8
:10175000060B0082060B0077060B006C060B00617F
:10176000060A0057060B004C060A0042060A00381B
:10177000060A002E060A0024060A001A060A0010AD
:1017800006090007060A00FD050900F4050900EB3B
:10179000050900E2050900D9050900D0050900C7BF
:1017A000050900BE050900B5050800AD050800A53E
:1017B0000509009C050800940508008C05080084B4
:1017C0000508007C050800740508006C0507006525
:1017D0000508005D050700560508004E050700478F
:1017E0000507004005080038050700310507002AF5
:1017F000050700230507001C050600160507000F56
:101800000507000805060002050700FB040600F5B1
:10181000040700EE040600E8040600E2040700DB0B
:10182000040600D5040600CF040600C9040600C360
:10183000040600BD040600B7040600B1040500ACB0
:10184000040600A6040600A00405009B04060095FB
:10185000040500900406008A040500850405008044
:101860000406007A04050075040500700405006B89
:1018700004050066040500610405005C04050057CA
:10188000040500520405004D04050048040500430A
:101890000405003E0404003A040500350405003048
:1018A0000404002C04050027040400230405001E82
:1018B0000404001A04040016040500110404000DB9
:1018C000040400090405000404040000040400FCEE
:1018D000030400F8030400F4030400F0030400EC24
:1018E000030400E8030400E4030400E0030400DC54
:1018F000030400D8030400D4030400D0030400CC84
:10190000030400C8030300C503030024F404D92022
:101910001BC40C5C0E9804C4095F0265077101F4D6
:1019200005F900FB04B30048048700C103690058AF
:1019300003550003034500BE023A00840231005300
:10194000022A002902250004022000E4011C00C82C
:10195000011900AF011700980114008401130071F0
:101960000110006101100051010E0043010D00360D
:10197000010B002B010B0020010B00150109000CCD
:1019800001090003010800FB000800F3000800EB58
:10199000000700E4000600DE000600D8000600D2C2
:1019A000000600CC000500C7000500C2000500BD10
:1019B000000400B9000400B5000400B1000400AD4B
:1019C000000400A9000400A5000300A20003009F7A
:1019D0000004009B000300980003009500020093A0
:1019E000000300900003008D0002008B00030088BC
:1019F0000002008600020084000300810002007FD4
:101A00000002007D0002007B0002007900020077E6
:101A100000010076000200740002007200010071F3
:101A20000002006F0002006D0001006C0002006AFD
:101A30000001006900020067000100660001006506
:101A4000000100640002006200010061000100600A
:101A50000001005F0002005D0001005C0001005B0E
:101A60000001005A00010059000100580001005710
:101A70000001005600010055000100540001005310
:101A8000000000530001005200010051000100500D
:101A90000001004F0001004E0000004E0001004D0B
:101AA0000001004C0001004B0000004B0001004A07
:101AB0000001004900010048000000480001004703
:101AC00000010046000000460001004500000045FE
:101AD00000010044000100430000004300010042F7
:101AE00000000042000100410000004100010040F0
:101AF0000001003F0000003F0001003E0000003EEA
:101B00000001003D0000003D0001003C0000003CE1
:101B10000000003C0001003B0000003B0001003AD7
:101B20000000003A000100390000003900010038CF
:101B300000000038000000380001003700000037C6
:101B400000010036000000360000003600010035BC
:101B500000000035000000350001003400000034B2
:101B600000000034000100330000003300000033A7
:101B7000000100320000003200000032000100319C
:101B80000000003100000031000100300000003092
:101B9000000000300001002F0000002F0000002F87
:101BA0000000002F0001002E0000002E0000002E7B
:101BB0000001002D0000002D0000002D0000002D70
:101BC0000001002C0000002C0000002C0000002C64
:101BD0000001002B0000002B0000002B0000002B58
:101BE0000001002A0000002A0000002A0000002A4C
:101BF0000001002900000029000000290000002940
:101C00000000002900010028000000280000002832
:101C10000000002800000028000100270000002725
:101C20000000002700000027000000270001002618
:101C3000000000260000002600000026000000260C
:101C400000010025000000250000002500000025FF
:101C500000000025000000250001002400000024F1
:101C600000000024000000240000002400010023E4
:101C700000000023000000230000002300000023D8
:101C800000000023000000230001002200000022C9
:101C900000000022000000220000002200000022BC
:101CA00000010021000000210000002100000021AF
:101CB00000000021000000210000002100010020A0
:101CC0000000002000000020000000200000002094
:101CD0000000002000000020000000200001001F84
:101CE0000000001F0000001F0000001F0000001F78
:101CF0000000001F0000001F0001001E0000001E69
:101D00000000001E0000001E0000003930000033FB
:101D100025000087190000B00F0000DB080000BD9F
:101D2000040000740200003F0100004265640045A9
:101D30006E636C6F73757265002568753A25303275
:101D400068750025303268753A2530326875002094
:101D50002020202020200020202020001FE0201014
:101D600020102010102010202010201030300840AB
:101D7000048003001FE03FF03FF03FF01FE01FE052
:101D80003FF03FF03FF00FC0078003003FFFF03807
:101D9000007030FC3020FC102078102030102C0017
:101DA000D02E31D02F7BD02F7BD02E31D02C00D015
:101DB00020301020781020FC1030FC303800703FAC
:101DC000FFF03FFFF03800703186302387102787FF
:101DD000902F87D02F03D02030102078102078103B
:101DE0002030102F03D02F87D027879023871031E2
:101DF00086303800703FFFF01FFFF81FFFF8041017
:101E000040020820020820041040082080104100F1
:101E10001041000820800410400000001FFFF81F40
:101E2000FFF8000000001E0000000021000000007C
:101E3000271DC08C00272121920041212092008E75
:101E400021CE920090212092011021209201201D8C
:101E500021CC02200000000410011300081001141E
:101E6000801008011080200400A30047F200A08029
:101E700043E2004480200400430018D80000001909
:101E80008400000021FC0000003F00554E4C4F41F3
:101E9000442046494C414D454E54004C4F4144204E
:101EA00046494C414D454E540046494C414D454EE6
:101EB00054204348414E474500426564004E6F7AC6
:101EC0007A6C650046616E20537065656400436FEF
:101ED0006E66696775726174696F6E0052657374BE
:101EE0006F72652044656661756C7473004C6F6138
:101EF000642053657474696E67730053746F726500
:101F00002053657474696E6773005072656865610B
:101F100074202420436F6E6600506F776572204FE7
:101F20007574616765004F6666004F6E0052756E8E
:101F30006F75742053656E736F7200416476616EC5
:101F40006365642053657474696E6773004D6169DD
:101F50006E004D37303220542564004D363030202D
:101F6000423020542564004D373032203B25640038
:101F70004D37303120542564004D373032004D3715
:101F80003031004D363030204230004D61696E00F6
:101F9000436F6E74696E7565004F6666004F6E0024
:101FA00052756E6F75742053656E736F7200507545
:101FB000726765206D6F726500524553554D45201F
:101FC0004F5054494F4E533A005052494E542050AE
:101FD00041555345440020204E6F7A7A6C653A2073
:101FE0000066696C616D656E74007A5F6D696E0084
:101FF000795F6D696E00785F6D696E005265706F14
:102000007274696E6720656E6473746F7020737488
:10201000617475730A0020746F6F206C6F6E672097
:10202000657874727573696F6E2070726576656E0F
:102030007465640A0020636F6C642065787472753F
:1020400073696F6E2070726576656E7465640A00E0
:102050000000000000000000000000005761726EE8
:10206000696E673A20486F6D696E672042756D70C2
:102070002044697669736F72203C20310A000202A5
:102080000400009B4300009B430000C8430000A0E5
:10209000400000A04000000040FFFFFF00000001E2
:1020A0000000000100008000555555000000400070
:1020B00033333300AAAA2A004992240000002000EA
:1020C000C7711C0099991900D14517005555150085
:1020D0003BB113002449120011111100000010003F
:1020E0000F0F0F00E3380E0043790D00CCCC0C002D
:1020F000C3300C00E8A20B0064210B00AAAA0A005E
:10210000703D0A009DD80900427B09009224090015
:10211000DCD308008888080010420800000008008E
:10212000F0C107008787070075500700711C070082
:102130003EEB0600A1BC060069900600666606003C
:10214000703E06006118060017F4050074D1050002
:102150005BB00500B29005006272050055550500A0
:1021600078390500B81E0500050505004EEC040091
:1021700087D40400A1BD040090A704004992040084
:10218000C17D0400EE690400C75604004444040005
:102190005C32040008210400411004000000040027
:1021A0003FF00300F8E0030026D20300C3C303009E
:1021B000CCB503003AA803000A9B0300388E030045
:1021C000C08103009F750300D0690300505E0300C7
:1021D0001D53030034480300913D030033330300D3
:1021E00016290300381F030097150300300C030065
:1021F000030303000BFA020049F10200BAE80200EF
:102200005CE002002DD802002DD0020059C8020067
:10221000B0C0020031B90200DAB10200AAAA02007D
:10222000A0A30200BC9C0200FA9502005C8F020091
:10223000DF88020082820200457C020027760200CD
:1022400027700200436A02007C640200D05E020034
:102250003F590200C8530200000000000000006067
:102260000000000000FC00000FF00000000007E08C
:102270000000000001861FC0187000000000006010
:102280003C0C000001830C60103000000000006076
:102290003C0C000001830C30303000000000006076
:1022A000000C000000030C1830000000000000606B
:1022B000003F0F3C00030C0C6001DF0FE0FE0060EC
:1022C0001C1C061800060C0C6000F318318300601B
:1022D0000C0C0318001E0C0C6000E0303983006009
:1022E0000C0C033000030C0C6000C030380F006091
:1022F0000C0C033000018C0C6000C03FF8FB006048
:102300000C0C033000018C0C6030C0300183006085
:102310000C0C01F001818C0C6030C0300183006036
:102320000C0C00E001818C183030C0183183006043
:102330000C0C40E001838C301860C00C6187C0E059
:102340001C0CC06000C30C600FC3F007C0FFC7FCCB
:102350007F0781C0007E1FC0000000000000000059
:102360000000070000000000000000000000000066
:1023700000000700000000006D61726C696E6677F6
:102380002E6F726700322E302E382E312D46695A4C
:10239000692D313135323030001FFFFFFFFFFFFF65
:1023A000600000000001FF400000000000FF80000E
:1023B000000000007F83CF00000C303F87FF8000CB
:1023C0000C301F867980000C000F8C30C7838C3056
:1023D000E78C30CFC7CC31F38C30DCECEC33B98CEC
:1023E00030D86C6C33198C30D06C0C33198C30D8DD
:1023F0006C0C33198C30DC6C0E3B198C30CF7C07A5
:102400009F198C30C77C038F194000000000000228
:10241000600000000000061FFFFFFFFFFFF87001D3
:102420002C0190012701B0012201C0011D01F00122
:1024300018011002130130020E016002090190021E
:102440000401C002FF000003FA004003F50080030E
:10245000F000D003EB002004E6007004E100E0048B
:10246000DC004005D700C005D2004006CD00D006F4
:10247000C8008007C3003008BE00F008B900C009DA
:10248000B400B00AAF00B00BAA00D00CA500000E3B
:10249000A000500F9B00C010960050129100001435
:1024A0008C00C0158700B0178200B0197D00D01BCA
:1024B0007800001E730040206E0090226900F02416
:1024C000640040275F0090295A00E02B5500102E31
:1024D000500020304B0010324600E0334100903570
:1024E0003C001037370070383200A0392D00B03A68
:1024F0002800A03B2300603C1E00103D1900903DC9
:102500001400103E0F00703E0A00C03E0500003F60
:102510000000403FFBFF803FF6FFC03FF1FF20205F
:10252000506C616E6E657242756666657242797452
:1025300065733A20002046726565204D656D6F72A7
:10254000793A2000436F6D70696C65643A204D6183
:102550007920313520323032310A00204C617374D9
:1025600020557064617465643A20323032312D3008
:10257000352D3135207C20417574686F723A2046C4
:10258000695A69206261736564206F6E20416172CF
:102590006F6E204A7573742C20435231302D5633A0
:1025A000290A00322E302E382E312D46695A692DD7
:1025B0003131353230300A004D61726C696E002065
:1025C000536F6674776172652052657365740A0093
:1025D000205761746368646F672052657365740A7D
:1025E000002042726F776E206F757420526573659C
:1025F000740A002045787465726E616C20526573B0
:1026000065740A00506F77657255700A00737461C3
:1026100072740A004732385859004D313030310059
:102620006572726F722077726974696E6720746F59
:102630002066696C650A00446F6E65207361766977
:102640006E672066696C652E0A004D323900456E52
:102650006473746F707300255320256320256320F5
:10266000256320256300205A3A0020593A0020585B
:102670003A00656E6473746F7073206869743A20F1
:10268000000A4D3234004D3233202573002E0A00EB
:102690006F70656E206661696C65642C2046696C9C
:1026A000653A200046696C652073656C65637465E6
:1026B000640A002053697A653A200046696C6520F7
:1026C0006F70656E65643A2000454E442053554254
:1026D000524F5554494E450A002220706F73002214
:1026E00020706172656E743A2200535542524F5504
:1026F00054494E452043414C4C20746172676574C7
:102700003A220053756263616C6C204F7665726685
:102710006C6F77004578636565646564206D6178EA
:1027200020535542524F5554494E452064657074AC
:10273000683A002E0A0044656C6574696F6E206605
:1027400061696C65642C2046696C653A20004669B5
:102750006C652064656C657465643A005344207050
:1027600072696E74696E67206279746520004E6FBD
:1027700074205344207072696E74696E670A002F6A
:102780006175746F25632E670057726974696E678F
:1027900020746F2066696C653A2000667265736804
:1027A00000646F696E67002066696C653A20004EB0
:1027B0006F77200000002200250028002B002E004B
:1027C0003100340002010000050108010B01000086
:1027D0002100240027002A002D00300033000101D1
:1027E0000000040107010A010505050507050808A1
:1027F0000808020202020A0A08080404040401018B
:10280000010101010101030303030303030304079F
:1028100007070C0C0C0C0C0C0C0C02020202060636
:102820000606060606060B0B0B0B0B0B0B0B010229
:1028300010202008081020401020408002010201D2
:10284000080402010102040810204080804020108A
:1028500008040201800402018040201008040201E3
:10286000080402010102040810204080010204084B
:1028700010204080436F6F6C646F776E00507265FC
:102880006865617420240046616E2053706565643C
:10289000207E00426564004E6F7A7A6C65004D615F
:1028A000696E00466C6F770046616E2053706565F7
:1028B00064207E00426564004E6F7A7A6C65005336
:1028C00070656564004D61696E00486F6D696E6783
:1028D000204661696C6564006F70656E00545249F2
:1028E000474745524544003A20004D3130303000D2
:1028F00053746F70205072696E7400526573756DF9
:1029000065205072696E7400506F776572204F7544
:1029100074616765003F004261636B0053746F70C0
:10292000005072696E742066726F6D204D65646927
:1029300061004368616E6765204D65646961004DA3
:1029400032310041626F7574205072696E74657225
:10295000004368616E67652046696C616D656E74E1
:1029600000436F6E66696775726174696F6E0054BB
:10297000656D7065726174757265004D6F74696F15
:102980006E00526573756D65205072696E740043F8
:10299000616E63656C204F626A6563740054756E86
:1029A000650053746F70205072696E7400506175C9
:1029B0007365205072696E74004E6F204D656469B6
:1029C0006100496E666F2053637265656E003F005B
:1029D0005374617274205072696E740043616E6347
:1029E000656C005072696E740043616E6E6F742086
:1029F000656E746572207375626469723A200002B4
:102A00002E2E004D61696E0020573A007C3C3E5EE0
:102A10002B3D3F2F5B5D3B2C2A225C0020746F6FA7
:102A2000206C6F6E6720657874727573696F6E20A5
:102A300070726576656E7465640A0020636F6C64FD
:102A400020657874727573696F6E20707265766533
:102A50006E7465640A00FFFDFCFAF8F6F4F2F0EE1D
:102A6000ECEAE9E7E5E3E1E0DEDCDAD9D7D5D4D278
:102A7000D0CFCDCBCAC8C7C5C3C2C0BFBDBCBAB911
:102A8000B7B6B4B3B2B0AFADACAAA9A8A6A5A4A27C
:102A9000A1A09E9D9C9A99989795949392908F8EC1
:102AA0008D8B8A8988878684838281807F7E7D7BE7
:102AB0007A797877767574737271706F6E6D6C6BEE
:102AC0006A696867666564636261605F5E5D5C5BDE
:102AD0005A5958585756555453525150504F4E4DBD
:102AE0004C4B4A4A49484746464544434242414086
:102AF0003F3E3E3D3C3B3B3A39383837363535343E
:102B00003332323130302F2E2E2D2C2B2B2A2929E7
:102B100028272726252524232322212120201F1E84
:102B20001E1D1C1C1B1B1A19191818171616151513
:102B300014131312121111100F0F0E0E0D0D0C0C99
:102B40000B0A0A0909080807070606050504040315
:102B500003020201000000009B4300009B430000B1
:102B6000C8430000000000000000000000005365A2
:102B70007474696E67732053746F726564003B20D0
:102B80000020436F756E7420583A0042656400451A
:102B90003100626564002C2073797374656D207355
:102BA000746F7070656421204865617465725F4957
:102BB000443A200048656174696E67204661696C1B
:102BC00065640048656174696E67206661696C655B
:102BD00064004D3131322053687574646F776E0034
:102BE000202D20496E76616C696420657874727559
:102BF000646572206E756D62657220210A004572EF
:102C0000723A204D415854454D50004D415854455D
:102C10004D50207472696767657265640045727211
:102C20003A204D494E54454D50004D494E54454D66
:102C30005020747269676765726564005448455234
:102C40004D414C2052554E415741590054686572D0
:102C50006D616C2052756E6177617900202F0020C4
:102C600042403A0020403A00506C65617365205242
:102C700065736574005052494E5445522048414C8A
:102C80005445440025533A20255300706F776572F0
:102C90006F6666004B494C4C45442E2000507269CB
:102CA0006E7465722068616C7465642E206B696C4B
:102CB0006C28292063616C6C6564210A0065636877
:102CC0006F3A004572726F723A002F2F6163746918
:102CD0006F6E3A0070726F6D70745F00656E6400A5
:102CE000486F74656E6420746F6F20636F6C640A44
:102CF0000053656E64204D31303820746F2072654A
:102D000073756D650A00496E736572742066696C2F
:102D1000616D656E7420616E642073656E64204D14
:102D20003130380A0052656865617420446F6E6501
:102D300000526568656174696E672E2E2E005265BB
:102D400068656174004865617465722054696D65D9
:102D50006F75740053656E64204D31303820746F88
:102D60002068656174206E6F7A7A6C650A004E6F18
:102D70007A7A6C65205061726B656400706175735E
:102D8000656400506175736500726573756D656487
:102D900000526573756D696E6700204D3932205899
:102DA000004D323453256C6454256C64004739322D
:102DB0002E394525730047314625640047315A2591
:102DC00073463630300047315825735925734633E2
:102DD000303030004D313036502569532569004D73
:102DE000313039532569004D323030442573004766
:102DF0003238523058590047315A257346363030F0
:102E0000004739322E395A2573004739322E394559
:102E100030004D313039532569004D31393053255B
:102E2000690020496E76616C6964206578747275FA
:102E30006465722000452073746570732F6D6D009A
:102E40005A2053746570732F6D6D0059205374654B
:102E500070732F6D6D00582053746570732F6D6DF6
:102E600000416476616E6365642053657474696EB5
:102E70006773003F0043616E63656C00496E69745F
:102E800000496E697469616C697A652045455052E4
:102E90004F4D0046696C616D656E740054656D70D0
:102EA000657261747572650053746570732F6D6D12
:102EB000004A65726B00416363656C657261746999
:102EC0006F6E0056656C6F6369747900436F6E6650
:102ED000696775726174696F6E003F0043616E636C
:102EE000656C204F626A656374004E4F005945530C
:102EF0000043616E63656C204F626A656374203DB8
:102F0000004D61696E0020204D3630332000204492
:102F10000020204D34313220530046696C616D65CC
:102F20006E742072756E6F75742073656E736F7238
:102F30003A002055004C0046696C616D656E742046
:102F40006C6F61642F756E6C6F6164206C656E6769
:102F50007468733A0020204D343133205300506F91
:102F60007765722D4C6F7373205265636F7665724F
:102F7000793A0020440020490020204D333034208D
:102F8000500020440020490020204D333031205093
:102F9000005049442073657474696E67733A002069
:102FA000460020480020204D3134352053004D612B
:102FB00074657269616C20686561747570207061F8
:102FC00072616D65746572733A0020580020530079
:102FD00020204D323035204200416476616E6365B9
:102FE000643A20423C6D696E5F7365676D656E740F
:102FF0005F74696D655F75733E20533C6D696E5FEC
:1030000066656564726174653E20543C6D696E5FEF
:1030100074726176656C5F66656564726174653E45
:1030200020583C6D61785F785F6A65726B3E20590D
:103030003C6D61785F795F6A65726B3E205A3C6DCA
:1030400061785F7A5F6A65726B3E20453C6D61789E
:103050005F655F6A65726B3E00205400205200205D
:10306000204D323034205000416363656C657261DD
:1030700074696F6E2028756E6974732F7332293AE4
:1030800020503C7072696E745F616363656C3E20B2
:10309000523C726574726163745F616363656C3E18
:1030A00020543C74726176656C5F616363656C3E4D
:1030B0000020204D3230312058004D6178696D7507
:1030C0006D20416363656C65726174696F6E202861
:1030D000756E6974732F7332293A00204500205AA7
:1030E0000020590020204D3230332058004D6178A7
:1030F000696D756D206665656472617465732028FD
:10310000756E6974732F73293A0053746570732058
:1031100070657220756E69743A0020440020204D5D
:103120003230302053002044697361626C65640A58
:103130000046696C616D656E742073657474696EA8
:1031400067733A0020204D3134392043203B20550D
:103150006E69747320696E2043656C736975730AB8
:103160000020286D6D2900202047323120202020AA
:103170003B20556E69747320696E206D6D00008070
:103180003B4400803B440000704100009642000038
:10319000A0420000A0420000C843EC11BF43D0078A
:1031A0000000D0070000640000008813000056549F
:1031B000726176204D696E00566D696E00566D61C4
:1031C00078204500566D6178205A00566D61782050
:1031D0005900566D6178205800416D617820450096
:1031E000416D6178205A00416D6178205900416D30
:1031F0006178205800412D54726176656C00412D34
:103200005265747261637400416363656C00566556
:103210002D4A65726B00565A2D4A65726B005659DD
:103220002D4A65726B0056582D4A65726B005045E9
:10323000544700504C4100004D6F76652025736D5A
:103240006D004D6F766520302E316D6D004D6F76BF
:103250006520316D6D004D6F76652031306D6D00EC
:103260004D6F766520417869730045787472756496
:103270006572004D6F7665205A004D6F7665205956
:10328000004D6F766520580033322E324368616EF0
:1032900067652046696C616D656E7400556E6C6F74
:1032A00061642046696C616D656E74004C6F616489
:1032B0002046696C616D656E740050726568656169
:1032C0007420437573746F6D005072656865617426
:1032D0002024004261636B006E6F746966696361EC
:1032E00074696F6E20006E6F7469666963617469DA
:1032F0006F6E200063616E63656C005072696E745E
:103300002041626F72746564004469736D69737300
:103310000055492041626F72746564004D3235205A
:10332000500A4D323400526573756D650055492061
:1033300050617573650050617573696E672E2E2E2E
:1033400000726573756D65004D323400454550520D
:103350004F4D2056657273696F6E204572726F72A1
:1033600000454550524F4D20496E646578204572A6
:10337000726F7200454550524F4D204352432045D5
:1033800072726F72003F0049676E6F72650052651E
:1033900073657400496E697469616C697A6520456A
:1033A0004550524F4D0043616E6E6F74206F7065D3
:1033B0006E207375626469722000534420496E69FF
:1033C00074204661696C0053442063617264206F0D
:1033D0006B0A006F70656E526F6F74206661696C66
:1033E00065640A00766F6C756D652E696E69742070
:1033F0006661696C65640A004E6F20534420636106
:1034000072640A002100486F74656E6420746F6FE7
:1034100020636F6C64004261636B0050726F636580
:103420006564004F6666004F6E00536F66742045FA
:103430006E6473746F7073004D6F74696F6E0044C7
:10344000697361626C652053746570706572730096
:103450004D383400486F6D65205A004732385A00A5
:10346000486F6D652059004732385900486F6D65C7
:1034700020580047323858004175746F20486F6DEE
:103480006500473238004D61696E005072656865AD
:103490006174202420456E64005072656865617413
:1034A0002024204265640054656D706572617475F6
:1034B0007265005072696E742066726F6D204D6582
:1034C0006469610073686F7700627574746F6E0071
:1034D000626567696E0044697361626C6552756EFE
:1034E0006F75740050757267654D6F72650050613D
:1034F0007573656400436F6E74696E7565004C6F1B
:1035000061642046696C616D656E74205400496E7B
:10351000736572742066696C616D656E7420616E8E
:10352000642073656E64204D3130380A00220A0031
:10353000556E6B6E6F776E20636F6D6D616E643A62
:103540002022002042002050006F6B0043522D319A
:10355000302056332052656164792E005072696EB6
:1035600074696E672E2E2E005072696E7420506141
:10357000757365640020453A00205A3A0020593A94
:1035800000583A005061726B696E672E2E2E000053
:10359000005761697420666F720066696C616D65C1
:1035A0006E74206368616E676500746F2073746168
:1035B0007274005761697420666F720066696C618D
:1035C0006D656E7420756E6C6F616400004E6F7A6D
:1035D0007A6C652068656174696E6700506C65611E
:1035E000736520776169742E2E2E0000507265730A
:1035F0007320627574746F6E00746F2068656174F7
:10360000206E6F7A7A6C650000496E736572742063
:1036100066696C616D656E7400616E6420707265C0
:10362000737320627574746F6E00746F20636F6EB5
:1036300074696E7565005761697420666F72006603
:10364000696C616D656E74206C6F6164000050720E
:1036500065737320427574746F6E00746F207265A9
:1036600073756D65207072696E74000057616974BE
:1036700020666F72207072696E7400746F207265BC
:1036800073756D652E2E2E00005761697420666F6C
:10369000720066696C616D656E7420707572676525
:1036A00000003E2000256C642E25696D004578746D
:1036B000727564656420546F74616C003E20004C28
:1036C0006F6E67657374204A6F622054696D650080
:1036D0003E2000546F74616C205072696E742054E7
:1036E000696D6500436F6D706C65746564003A20A8
:1036F000005072696E7420436F756E74003A20003A
:103700003132300035004245443A204550434F5352
:10371000203130304B0052756E61776179205761EE
:103720007463683A204F4E004D61782054656D7087
:1037300000323735004D696E2054656D70003500DC
:1037400045313A204550434F53203130304B0050E3
:1037500053550047656E657269630050726F746FF0
:10376000636F6C00312E3000426175640031313579
:1037700032303000437265616C6974793344205291
:10378000414D505300457874727564657273003111
:10379000006D61726C696E66772E6F7267004352BE
:1037A0002D313020563300323032312D30352D312D
:1037B0003500322E302E382E312D46695A692D3182
:1037C0003135323030004D61726C696E0050726973
:1037D0006E74657220537461747300546865726D01
:1037E0006973746F727300426F61726420496E6610
:1037F0006F005072696E74657220496E666F004D7D
:1038000061696E0000000A0B02090C0D0E08070327
:1038100004010000000000000000000000000000A3
:103820000000000000000000000000000000000098
:103830001211100000000000000000000000000055
:10384000000000000000000000003E014E011124B5
:103850001FBECFEFD1E2DEBFCDBF00E00CBF14E052
:10386000A0E0B2E0EAE6FEE502E00BBF02C007908E
:103870000D92A63AB107D9F727E1A6EAB4E001C054
:103880001D92A43CB207E1F71CE1C6E2DCE100E0D6
:1038900006C021970109802FFE010F94C62BC53267
:1038A000D10780E00807A9F70F94F1170D94242F92
:1038B0000C9400002F923F924F925F926F927F92F2
:1038C0008F929F92AF92BF92CF92DF92EF92FF9230
:1038D0000F931F93CF93DF93CDB7DEB7E8970FB663
:1038E000F894DEBF0FBECDBF88AF3090A11721E0A6
:1038F0002093A117809101058D3409F4F0C184351E
:1039000011F40C94F92C873411F00C94152D80913E
:10391000FF04909100058531910511F40C94172D49
:1039200068F48430910530F4209176088230910556
:10393000D8F024C0049709F4BAC0CDC18A359105E6
:1039400009F43EC140F48B31910509F4EFC04C9766
:1039500009F428C1C0C18B35910509F435C18C35F6
:10396000910509F436C1B7C1233010F40C94172D1A
:103970000E94B5D60E947F7D0C94172D233010F441
:103980000C94172D11E0029709F010E00E94B5D6B3
:1039900019821A821B821C821D821E821F82188637
:1039A00082E50E94E7D3882309F44BC00E9466D3C6
:1039B0006B017C0120E030E0A9010F94F3248823FF
:1039C00009F455C08091941490919514A091961487
:1039D000B09197148CA79DA7AEA7BFA7809198140C
:1039E00090919914A0919A14B0919B1488AB99ABC3
:1039F000AAABBBAB8090F4079090F507A090F607B8
:103A0000B090F7074090F8075090F9076090FA07D8
:103A10007090FB07A50194016CA57DA58EA59FA5BF
:103A20000F94F32481110C94372DA301920168A9FE
:103A300079A98AA99BA90F94F3248823C1F00C9437
:103A4000372D89E40E94E7D3882331F00E9466D3A2
:103A500069837A838B839C838AE40E94E7D38823DB
:103A600031F00E9466D36D837E838F83988720E038
:103A700030E0A90169817A818B819C810F94F324C4
:103A800081110C94EB2D20E030E0A9016D817E8145
:103A90008F8198850F94F32481110C94EB2D0E9453
:103AA0001CCD87E095E00E94E2CC0C94172D80E5B8
:103AB0000E94E7D3882329F00E9423D36B017C0165
:103AC00003C0C12CD12C760183E50E94E7D3882363
:103AD00061F00E9466D320E030E04AE754E40F949E
:103AE00058250F941E2D6B017C010E94FB7680915E
:103AF000E616811105C060E083E395E00E94D7F8E7
:103B00000F946417C60ED71EE81EF91E0F94641793
:103B1000DC01CB018C199D09AE09BF09B7FD02C0BC
:103B20000C94172D80E00E94E031F0CF0F94640BCD
:103B30008E010F5F1F4F882311F40C940B2E82FF10
:103B400003C041E954E002C044EA54E081FF03C0ED
:103B500023E934E002C024EA34E080FF03C085E9B1
:103B600094E002C084EA94E05F934F933F932F93D5
:103B70009F938F938CE395E09F938F931F930F9365
:103B80000F948D240E941FCDC8010E948A4960E0D5
:103B9000C8010E9486F90FB6F894DEBF0FBECDBFF4
:103BA0000C94172D0F94640B81110C941C2E60E063
:103BB0008FE40E942CD581110C94172D0C941C2E8F
:103BC0001092AB040C94172D8FE08093AB040C94EF
:103BD000172D8091FE04882359F1893011F00C943F
:103BE000172D9DE8A92E94E0B92E24E9C22E24E1D8
:103BF000D22E00E010E0F12CD5018D915D010E94E4
:103C0000E7D3882369F0B3E0FB1202C011E001C0E2
:103C100001E00E9466D3F6016083718382839383FF
:103C2000F394F4E0CF0ED11C24E0F212E5CF44C0AF
:103C30000DE8C02E04E0D02E84E9E82E84E1F82EB1
:103C400000E010E0212CD6018D916D010E94E7D398
:103C5000882359F10E9466D34B015C01F701208152
:103C60003181428153810F94D42B2B013C012DEBE8
:103C700037E346E855EB0F94FC2D87FD0AC02DEB8A
:103C800037E346E855E3C301B2010F94F324181655
:103C900064F4F3E02F1202C011E001C001E0D7018B
:103CA0008D929D92AD92BC9213972394B4E0EB0E4B
:103CB000F11CE4E02E12C7CF002319F00E94C97F47
:103CC00006C0112321F080EA94E10E9423C10E94E2
:103CD000E6800C94172D0F943D0A0C94172D8091BB
:103CE000FF04909100058537910509F43DC708F060
:103CF000C7C08C34910509F4F4C308F05DC0893164
:103D0000910509F4FCC218F58431910509F435C216
:103D100078F48131910509F41CC228F4029708F463
:103D2000CEC10C94F62C429709F41DC60C94F62CC7
:103D30008631910509F456C208F450C287319105C5
:103D400009F45CC2489709F470C20C94F62C8E31C9
:103D5000910509F454C3A8F48B31910509F4E1C22B
:103D600008F4D1C28C31910509F441C34D9711F08B
:103D70000C94F62C80912C0C8E7F80932C0C0C9440
:103D8000172D8132910509F475C348F48F319105DF
:103D900009F474C3809709F442C30C94F62C893457
:103DA000910509F48BC38B34910511F00C94F62C1A
:103DB0000E94C1310C94172D8936910509F47DC4F8
:103DC00060F58335910509F4C6C5B8F48E349105C4
:103DD00009F490C308F489C38135910509F4A3C59A
:103DE0008235910511F00C94F62C8091AB048F7DF7
:103DF00080618093AB040C94172D8535910509F4EF
:103E0000EBC508F4B0C58C35910509F40AC68836AF
:103E1000910509F401C40C94F62C8E36910509F431
:103E2000AFC488F48B36910509F49CC408F458C4D7
:103E30008C36910511F40C94172D8D36910509F4EB
:103E400012C40C94F62C8137910509F4FBC458F484
:103E50008F36910509F4B2C48037910511F40C94A2
:103E6000172D0C94F62C8237910509F47AC6833706
:103E7000910511F00C94F62C0E9474460C94172DA9
:103E80008F32F1E09F0711F40C94EA2908F073C017
:103E9000883C910509F45AC7A0F58D37910509F4BE
:103EA0003EC5B8F48737910509F4D1C608F46DC64C
:103EB0008837910509F4CEC68937910511F00C9425
:103EC000F62C10922F0810922E080E9445910C9407
:103ED000172D8139910509F4C5C630F48C38910548
:103EE00009F4D5C40C94F62C8B39910509F4F0C46F
:103EF0008E3B910511F00C94F62C0E94EE3B0C9435
:103F0000172D833D910509F4F4C7A8F48B3C910566
:103F100009F489C730F4893C910509F45EC70C9413
:103F2000F62C8C3C910509F49DC78D3C910509F454
:103F3000CDC70C94F62C8C32A1E09A0711F40C94A6
:103F4000A02860F48C3D910511F40C9409288D3D56
:103F5000910511F40C944A280C94F62C8D32E1E072
:103F60009E0711F40C94B5288E32914011F40C94F4
:103F7000A7290C94F62C883F31E0930711F40C9498
:103F80006F2A08F04DC08D39B1E09B0711F40C94F5
:103F90009A2CD8F48039F1E09F0711F40C94ED29A4
:103FA00038F48033914011F40C9434290C94F62C9D
:103FB0008A39A1E09A0711F40C94172D8C3991409D
:103FC00011F40C94F0290C94F62C853FE1E09E0747
:103FD00011F40C94692A78F4863E21E0920711F4DA
:103FE0000C94FB29843F914011F00C94F62C0E9414
:103FF00040B90C94172D863FA1E09A0711F40C9458
:104000006C2A873F914011F00C94F62C61E083E517
:104010000E942CD591E089270E94A1E30C94172DD2
:104020008E3BE2E09E0711F40C94C72BD8F4883540
:1040300022E0920711F40C948E2A38F48C309240CE
:1040400011F40C947F2A0C94F62C8B35B2E09B076C
:1040500011F40C94912A8D3B924011F40C94092B8D
:104060000C94F62C873EF3E09F0711F40C94832CFC
:10407000C8F48C3633E0930711F40C94172D803A72
:10408000934011F00C94F62C2091D0053091D1057D
:1040900090912C0C926090932C0CC9010E944D863B
:1040A0000C94172D883EB3E09B0711F40C94BA2CA6
:1040B000893E934011F40C94BD2C0C94F62C80E5B1
:1040C0000E94E7D3882329F00E9423D36B017C014F
:1040D00003C0C12CD12C760183E50E94E7D388234D
:1040E00061F00E9466D320E030E04AE754E40F9488
:1040F00058250F941E2D6B017C010E94FB76809148
:10410000D0059091D105009721F061E00E9486F9D9
:1041100005C060E08EE595E00E94D7F88091FF042D
:1041200090910005892B19F066E575E002C06EE4F8
:1041300075E020E030E045EF54E382E00E9455D185
:1041400040E0C701B6010E94BB380F9435090C94BA
:10415000172D8091FA0484FF02C00C948C2F80915B
:10416000FC0487FF02C00C948C2F8091FD048370A7
:1041700011F00C948C2F0C94A82F80912C0C84FFA0
:1041800025C089E895E00E94E2CC80912C0C84FF48
:1041900017C081E59CE00E9436A68BE1E1E5FCE0DA
:1041A000DE01119601900D928A95E1F760E070E0D2
:1041B000CE0101960F945103CE0101960E9456DA6A
:1041C0008AE795E00E94E2CC0C94172D0E941FCD47
:1041D0008AE995E00E94E2CC0C94172D0E9443FDE1
:1041E0000C94172D80912C0C82FF04C087FD02C017
:1041F0000C94172D0E9430FD0C94172DE091D005E2
:10420000F091D1058081882329F0803209F4108251
:104210003196F8CF60E08091D0059091D1050E9451
:10422000998610923C170C94172D83E50E94E7D3D2
:10423000882321F00E9433D30E94C23E84E50E946D
:10424000E7D38823A9F00E9433D36B017C010E943D
:104250009291C092D215D092D315E092D415F092DB
:10426000D515CD28CE28CF2819F081E08093B2173C
:10427000809179088823F9F080E090E0A0EAB1E429
:1042800089839A83AB83BC831C8E1D8E1E8E1F8EEA
:1042900018A219A21AA21BA200E010E020E0AE01B1
:1042A0004F5F5F4FBE01645E7F4FCE0180960E94DC
:1042B00068CE0C94172D0E949E31882381F00E94B5
:1042C00047850E94C13187E097E00E94EF841092F9
:1042D000B4151092B5151092B6151092B71561E08D
:1042E00081E493E30E943ECE49E053E364EA75E043
:1042F00085E00F945B0B0F9435090C94172D0E94E9
:104300003ED50C94172D80912C0C84FD02C00C948A
:10431000172D83E50E94E7D381110C94B62F0C94DE
:10432000172D8091FA049091FB04A091FC04B091A8
:10433000FD0412E0B695A795979587951A95D1F744
:1043400080FF2CC08AEB95E00E94E2CC8091980D12
:104350008823D9F0BE016F5F7F4F85E99DE00E9401
:10436000FEA4CE0101960E942D47CE0101960E9427
:104370001F8680911A0B882361F080E20E94DB3156
:104380008AE19BE00E942D4704C080EB95E00E94EB
:10439000E2CC8AE00E94DB310C94172D83E50E9469
:1043A000E7D3882301F10E9446D3182F8D3308F0FC
:1043B0008CE38093640B0F9464176B017C01212FB5
:1043C00030E0A8EEB3E00F945B2BC60ED71EE81EBC
:1043D000F91EC092600BD092610BE092620BF092DA
:1043E000630B0C94172D0E948B840C94172D8091D5
:1043F000D0059091D1050E944D860C94172D809187
:104400002C0C84FD02C00C94172D0F94AC098091E4
:10441000D0059091D1050E948B890C94172D809125
:104420002C0C82FF03C087FF0E94FB7680912C0C2E
:1044300084FD02C00C94172D60E080E50E942CD50D
:10444000182F682F8091D0059091D1050E949986F0
:1044500083E50E94E7D3882321F00E9433D30E9492
:10446000C23E0E94478511110C94172D0E94C13144
:104470000C94172D0E943B470C94172D0E945E91BF
:104480006C8F7D8F8E8F9F8FBE016F5F7F4FCE01B0
:104490004C960E94E33D60E0CE0101960E9486F9B1
:1044A0000E941FCDBE016F5F7F4F89EC95E00E9497
:1044B00013CD8AE00E94DB310C94172D80E50E9419
:1044C00099D3882311F40C94172D0E9446D390E0C1
:1044D0008536910510F084E690E080933C170C94AB
:1044E000172D0E94AD910C94172D81E00E94A3BC62
:1044F0000C94172D60E070E083E50E9425D48E3483
:10450000910531F40E9419BD0F9435090C94172DB3
:1045100084E396E00E94E2CC60911E0870911F082F
:104520008BE296E00E94F1CC609120087091210806
:104530008EE196E00E94F1CC60911E0870911F08F8
:104540008091200890912108681B790B8091B21707
:10455000815021E030E0823010F020E030E0621B3A
:10456000730B83E196E00E94F1CC8AE00E94DB317C
:104570008BE096E00E94E2CC809122089091230883
:10458000A0912408B09125088C8F9D8FAE8FBF8F8E
:10459000BE016F5F7F4FCE014C960E94E33DBE018E
:1045A0006F5F7F4F8EEF95E00E9413CD80912608BC
:1045B00090912708A0912808B09129088C8F9D8F91
:1045C000AE8FBF8FBE016F5F7F4FCE014C960E94B2
:1045D000E33DBE016F5F7F4F8EEE95E00E9413CDED
:1045E00020E030E04AE754E460912A0870912B08FB
:1045F00080912C0890912D080F94B12CAB01BC0137
:1046000086ED95E00E94FACC8DE60E94DB318AE0CF
:104610000E94DB310C94172D80914B1483FF02C054
:104620000C94172D0E94F3D387FF02C00C94172D12
:1046300089E40E94E7D3882311F40C94BB2F0E94D5
:1046400046D390E01816190614F481E090E026E0B5
:10465000289FF001299FF00D1124E856F94E808122
:1046600091810C94C22F80914B1483FF02C00C9453
:10467000172D0E94F3D3F82E87FF02C00C94172D3C
:1046800089E40E94E7D3082F882311F40C94CB2FE0
:104690000E9446D390E01816190614F481E090E0C9
:1046A00026E0289FF001299FF00D1124E856F94ECD
:1046B0008081918110E00C94D82F0E94F3D3182FA1
:1046C00087FF02C00C941C2D87E596E00E94E2CC87
:1046D000812F0E9491C18AE00E94DB310C941C2D35
:1046E00080E50F94880BF82EF1E0F81710F40C9485
:1046F000172D8091FA0480FF05C06091360E062FB9
:1047000010E002C00FEF10E089E40E94E7D3882395
:1047100099F00E9446D390E01816190614F481E02F
:1047200090E026E0289FF001299FF00D1124E85623
:10473000F94E0481158108C083E50E94E7D38823E0
:1047400019F00E9433D38B01EF2DF0E0EA5CF14FBA
:10475000B8010F3F110519F010F06FEF70E06083A2
:104760000C94172D80E50F94880B823010F00C9478
:10477000172DE82FF0E0EA5CF14F10820C94172D12
:104780008EE40E94E7D3882311F40C94172D0E9425
:1047900033D3E091410222E6E29FF0011124EC556F
:1047A000FD4FE08137E6E302F0011124EE5FFA4F9E
:1047B00060837183828393830C94172D83E50E9419
:1047C00099D3882329F083E50F94880B80934B14A9
:1047D0000E941FCD88E696E00E94E2CC80914B14A7
:1047E000882369F1FEE5EF2EF6E0FF2E00E010E0F1
:1047F00020E080914B1490E0A0E0B0E0002E04C0D7
:10480000B695A795979587950A94D2F780FF0EC025
:10481000DD24D394D20E222319F08CE20E94DB31E6
:10482000F701859194910E94E2CC2D2D0F5F1F4FCF
:1048300082E0E80EF11C05301105D9F6AACD8AE513
:1048400096E0A5CD83E50E94E7D3882381F00E94FE
:1048500046D3282F30E02D33310524F48093000215
:104860000C94172D8CE3809300020C94172D0E945A
:104870001FCD109100028FE696E00E94E2CC812FBE
:104880000E94B38C8AE00E94DB310C94172D80913A
:104890004B1483FF02C00C94172D89E40E94E7D3C8
:1048A000882311F40C9407300E9446D390E0181628
:1048B000190614F481E090E026E0289FF001299F7A
:1048C000F00D1124E856F94E828193810C940F303B
:1048D00083E50E94E7D3882311F40C94172D0E94DE
:1048E00046D3182F8D3308F08CE38093880B0F94F8
:1048F00064176B017C01212F30E0A8EEB3E00F9428
:104900005B2BC60ED71EE81EF91EC092840BD092F8
:10491000850BE092860BF092870B0C94172D0E946A
:104920003ED50C94172D0E9423C30E940C7781E082
:104930000E94A3BC0E94D33168EE73E080E090E057
:104940000E94C0CC0E94D83160E086E796E00E94C9
:10495000D7F80C94172D8091AB048F7E80628093E2
:10496000AB040C94172D83E50E94E7D38823F1F064
:104970000F9464176093020E7093030E8093040EDD
:104980009093050E0E9466D320E030E04AE754E49D
:104990000F9458250F941E2D60930102709302020C
:1049A00080930302909304020C94172D8091FA04D3
:1049B00084FF02C00C9422308091FC0487FF02C067
:1049C0000C9422308091FD04837011F00C942230FD
:1049D0000E940C770C94172D83E50E9499D38823AD
:1049E00011F40C94172D0F9464176093020E7093BA
:1049F000030E8093040E9093050E0E9466D320E070
:104A000030E04AE754E40F9458250F941E2D60932C
:104A1000A6047093A7048093A8049093A9040C940F
:104A2000172D0E94F3D387FF02C00C94172D90918D
:104A3000FA0494FD04C09091FC0497FF0AC07DE83D
:104A4000C72E74E0D72EECE4EE2EE4E1FE2E10E04B
:104A500009C09091FD04937091F7682F81E00E9446
:104A6000EDD2E5C7D6018D916D010E94E7D3882371
:104A700009F46DC0133009F063C00E9466D34B0186
:104A80005C0120E030E040EA51E40F94F32487FF1A
:104A90004EC0A501940160916C1470916D148091C9
:104AA0006E1490916F140F94B12C2B013C019B015B
:104AB000AC0160911A0E70911B0E80911C0E9091AA
:104AC0001D0E0F94582560931A0E70931B0E809341
:104AD0001C0E90931D0EA301920160917C147091A5
:104AE0007D1480917E1490917F140F9458256093CB
:104AF0007C1470937D1480937E1490937F14609146
:104B00002A0E70912B0E80912C0E90912D0E0F94E9
:104B1000F724A30192010F9458250F941E2D609342
:104B20002A0E70932B0E80932C0E90932D0E809254
:104B30006C1490926D14A0926E14B0926F1407C012
:104B40000E9466D3F701648B758B868B978B1F5FF2
:104B5000F4E0EF0EF11C143009F084CF0E94C0BEC7
:104B600066C70E94FF4763C78091D0059091D10529
:104B7000009741F0DC012C91222321F060E00E949B
:104B800086F955C70F94350952C70091D005109189
:104B9000D10524E08FEFF12C30E0215029F1F8010C
:104BA0009081492F4B7F413421F441814133E1F41D
:104BB00008C09035C9F4918190539A30A8F4892F98
:104BC00008C0913421F0953421F431E002C0FF2473
:104BD000F394A8014E5F5F4F8A014F5F5F4FF8016A
:104BE00090819032C9F3D9CF40911C0C833090F45E
:104BF000882391F02FEF280F283080F481E090E097
:104C0000A0E0B0E004C0880F991FAA1FBB1F2A951F
:104C1000D2F705C0842F03C08FEF01C080E06CE1A4
:104C20007CE07A8369834B8380931C0C31110E9452
:104C30001FCDFF2021F084E896E00E94E2CCC8015D
:104C40000E948A49CE0101960E9436CEF0C60E948B
:104C50006B81EDC681E080932F0880932E080E941F
:104C60004591E5C660E070E083E50E9425D482307E
:104C700038F00E941CCD87E896E00E94E2CCD7C6AF
:104C80008C01112788E40E94E7D38823E1F00E9479
:104C900043D38A3A910544F00E9443D38530914032
:104CA00034F40E9443D305C08AEA90E002C084E055
:104CB00091E026E0209FF001219FF00D1124E8569D
:104CC000F94E9183808382E40E94E7D38823D9F050
:104CD0000E9443D3059744F00E9443D38F36910539
:104CE00034F40E9443D305C085E090E002C08EE614
:104CF00090E026E0209FF001219FF00D1124E8565E
:104D0000F94E9383828386E40E94E7D3882309F4D3
:104D10008EC60E9443D397FD09C00E9443D38F3FA4
:104D2000910509F034F40E9443D305C080E090E07F
:104D300002C08FEF90E026E0209FF001219FF00D50
:104D40001124E856F94E9583848371C60E94F3D3EB
:104D5000182F87FD6CC60091771684E40E94E7D374
:104D6000882311F40C9452300E9466D36B017C01AD
:104D700020E030E0A9010F94F324882341F124E0DE
:104D80001202F0011124ED58F94EC082D182E28264
:104D9000F38220E030E0A9016091731670917416DF
:104DA00080917516909176160F94F32481110CC0A2
:104DB00080E090E0A0EEBFE38093731690937416AA
:104DC000A0937516B093761601E00C94523080E0F3
:104DD000809377160E9486762AC60E94F3D387FDB9
:104DE00026C65DE8E52E54E0F52E0CE414E16CE5F2
:104DF000C62E64E1D62ED7018D917D010E9499D3F4
:104E0000882359F00E9466D30F941E2DF801608309
:104E10007183828393830E9479BE0C5F1F4FC016FB
:104E2000D10649F704C60E94F3D387FD00C64DE8BA
:104E3000E42E44E0F42E0CE414E1D7018D917D01C1
:104E40000E9499D3882339F00E9466D3F80164A3A5
:104E500075A386A397A30C5F1F4FF4E10C351F07C2
:104E600061F7E5C58091FB0487FF02C00C945830C0
:104E70008091FC048E7011F00C9458304091801495
:104E80005091811460918214709183148CEA96E0A1
:104E90000E94FACC4091841450918514609186143C
:104EA0007091871489EA96E00E94FACC40918814A8
:104EB0005091891460918A1470918B1489E590E364
:104EC0000E94FACC8AE00E94DB31B1C58091FA04DD
:104ED000827111F00C949E308091FC048C7811F05A
:104EE0000C949E308091FD04837011F00C949E30E0
:104EF0009EC58091CF039091D003A091D103B09132
:104F0000D2038CA79DA7AEA7BFA74090D303509014
:104F1000D4036090D5037090D6038090D70390900F
:104F2000D803A090D903B090DA03C090DB03D090EF
:104F3000DC03E090DD03F090DE038091DF039091CD
:104F4000E003A091E103B091E2038CAB9DABAEAB6B
:104F5000BFAB8091E3039091E403A091E503B0918E
:104F6000E60388AB99ABAAABBBAB0E941FCD8EEC1E
:104F700096E00E94E2CC83E50E9499D3882321F039
:104F80000E9457D38093CD038091CD03882319F0DD
:104F900083E897E002C08FE797E00E94E2CC86ECBE
:104FA00096E00E94E2CC4CA55DA56EA57FA58AEC9B
:104FB0009FE20E94FACCB301A20181EE90E30E942D
:104FC000FACCB501A4018EED90E30E94FACC84ECFA
:104FD00096E00E94E2CC8CEB96E00E94E2CCB70116
:104FE000A6018AEC9FE20E94FACC4CA95DA96EA9A9
:104FF0007FA981EE90E30E94FACC48A959A96AA939
:105000007BA98EED90E30E94FACC8AE00E94DB310E
:105010000EC582E40E9499D3882341F08091210239
:1050200090912202909306028093050282E50E94ED
:1050300099D3882341F080910502909106029093C4
:1050400022028093210283E50E94E7D3882331F076
:105050000E9443D390932202809321028091FA040C
:105060009091FB04A091FC04B091FD04892B8A2B44
:105070008B2B09F0DCC460912102709122028EED2D
:1050800096E00E940ACD85E20E94DB318AE00E9410
:10509000DB31CDC40E94F3D3082F87FDC8C483E55C
:1050A0000E94E7D3002E000C110B882361F10E94AF
:1050B00043D3F801EE0FFF1FE15DFD4F9183808325
:1050C000000F111F000F111FD801A45CBD4F7D01FF
:1050D000BC01990F880B990B0F94F9242AE037ED46
:1050E00043E25CE30F945825F801EC5FF74F208111
:1050F0003181428153810F945825F7016083718378
:105100008283938394C40E941FCD65E48AE19CE06E
:105110000E9414D280E3800F0E94DB31000F111F28
:10512000F801E15DFD4F6081718182EE96E00E94A1
:105130000ACD85E20E94DB318AE00E94DB3177C430
:1051400064E071E083E50E9414D48C0168EE73E0A2
:1051500080E50E9414D48938F3E19F0710F088E8B5
:1051600093E1B8010E946A9862C485E40F94880BA9
:10517000811173C080E50E9499D3882351F00E9469
:1051800066D36093B7167093B8168093B916909350
:10519000BA1689E40E9499D3882381F00E9466D3CD
:1051A0002CEA35EC47E25EE30F9458256093BB167A
:1051B0007093BC168093BD169093BE1684E40E9433
:1051C00099D3882381F00E9466D32CEA35EC47E21C
:1051D0005EE30F94B12C6093BF167093C01680935A
:1051E000C1169093C2160E941FCD4091B7165091E0
:1051F000B8166091B9167091BA1682EF96E00E94C7
:10520000FACC2CEA35EC47E25EE36091BB16709174
:10521000BC168091BD169091BE160F94B12CAB01B7
:10522000BC018EEE96E00E94FACC2CEA35EC47E207
:105230005EE36091BF167091C0168091C116909187
:10524000C2160F945825AB01BC018AEE96E00E946D
:10525000FACC8AE00E94DB31EAC30E941CCD86EFC3
:1052600096E00E94E2CCE3C380E50E9499D38823B4
:1052700051F00E9466D360938C1670938D168093C4
:105280008E1690938F1689E40E9499D3882381F01B
:105290000E9466D32CEA35EC47E25EE30F94582572
:1052A0006093901670939116809392169093931634
:1052B00084E40E9499D3882381F00E9466D32CEA6B
:1052C00035EC47E25EE30F94B12C60939416709333
:1052D000951680939616909397160E941FCD409135
:1052E0008C1650918D1660918E1670918F1680E1FC
:1052F00097E00E94FACC2CEA35EC47E25EE360913D
:1053000090167091911680919216909193160F9429
:10531000B12CAB01BC018CE097E00E94FACC2CEAE6
:1053200035EC47E25EE3609194167091951680919A
:105330009616909197160F945825AB01BC0188E002
:1053400097E00E94FACC8AE00E94DB3170C383E5CB
:105350000E9499D3182F882369F00E9443D39C019F
:105360009093CC038093CB0391E0232B09F090E042
:105370009093CD1580E50E9499D3882359F0209110
:10538000CB033091CC03232B11F00E9457D3809391
:10539000CD154DC311114BC30E941FCD80E397E083
:1053A0000E94E2CC8091CD15882319F088E197E026
:1053B00002C084E197E00E94E2CC6091CB0370913F
:1053C000CC038FE197E00E940ACD8BE197E00E9429
:1053D000E2CC2DC30E94C04F2AC30E94FB7627C394
:1053E0008091FA04887809F014C78091FC048670D3
:1053F00009F00FC74EC784E50E9499D38823A1F016
:105400001092641610926516109266161092671626
:10541000109268168FEF0E949DCC61E070E084E5E9
:105420000E9425D48093681683E50E9499D388232F
:1054300021F00E9443D30E949DCC83E40E9499D323
:10544000882331F08091EE03803210F40E9471CCF9
:1054500080E50E9499D3882331F00E9443D38032A3
:1054600010F40E9471CC85E50E9499D3882309F439
:10547000DEC20E9443D3803208F0D9C241E050E03E
:1054800060E070E0082E04C0440F551F661F771FB0
:105490000A94D2F7409550956095709500916416E6
:1054A000109165162091661630916716402351239E
:1054B00062237323409364165093651660936616B7
:1054C000709367169091EE038913B1C210924A143B
:1054D000AEC20E9418C1ABC20E94C7BFA8C220932F
:1054E00079160E9434B910927916882309F49FC264
:1054F0000E941FCD84E797E00E94E2CC98C2809181
:105500002C0C82FF06C087FD04C0806880932C0CA1
:105510008EC284FF8CC20F94AC0989C20E9432D41F
:1055200086C20E94F3D3082F87FD81C285E50E94C1
:1055300099D38823A9F1E02E002E000CFF080E94C9
:1055400066D34B015C0120E030E0A9010F94FC2DF3
:1055500087FF04C0B7FAB094B7F8B094C701F3E07E
:10556000880F991FFA95E1F7DC01A559B94E7D0125
:10557000FD0180829182A282B38220E030E849ED71
:1055800053E4C501B4010F94FC2D18164CF480E0CF
:1055900090E8A9EDB3E4F70180839183A283B383FC
:1055A0008CE40E9499D3882309F441C2002E000C98
:1055B000110B0E9466D36B017C0120E030E0A90151
:1055C0000F94FC2D87FF04C0F7FAF094F7F8F094DD
:1055D00020E030E849ED53E4C701B6010F94FC2DFB
:1055E0009801E3E0220F331FEA95E1F7F901E5594D
:1055F000F94E18162CF0C482D582E682F78217C2C3
:1056000080E090E8A9EDB3E484839583A683B78313
:105610000EC20E94F3D3182F87FD09C28AE50E94AB
:10562000E7D3882331F08AE50F944B0A5B016C01C4
:1056300006C0A12CB12C60E2C62E71E4D72E412FFA
:1056400063E085E00F942F1220919C1430919D14FB
:1056500040919E1450919F1460E070E088EC93E4B8
:105660000F94D42B7B018C019501A6010F94FC2D86
:10567000181614F475018601C701D80188A799A7E7
:10568000AAA7BBA720E030E0A901B701C8010F9489
:10569000F324882321F0CE0188960F94681E80E0C1
:1056A00090E0A0EAB1E48CA39DA3AEA3BFA318A28F
:1056B00019A21AA21BA28CE40E9499D3882329F074
:1056C0000E9466D36B017C0108C0C0906F16D09019
:1056D0007016E0907116F090721620E030E0A9018B
:1056E000C701B6010F94FC2D87FF04C0F7FAF094B0
:1056F000F7F8F094CC8EDD8EEE8EFF8E0091B4160E
:105700001091B5160430110564F00E94D74B801B30
:10571000910B97FF03C091958195910901E0049742
:105720000CF400E063E080E00E9437CD811106C0F8
:1057300040E063E089E00F942F120DC053E0E52EA6
:1057400022E0AE014C5D5F4FBE01645E7F4FCE0133
:1057500080960F94540A88A599A5AAA5BBA5BC015B
:10576000CD01905869837A838B839C8320E030E05D
:10577000A9010F94F324882321F0CE0101960F9400
:10578000681E40E060E089E00F942F1250C10E9433
:10579000F3D3182F87FD4BC18AE50E94E7D38823F6
:1057A00031F08AE50F944B0A4B015C0106C0812C55
:1057B000912C40E2A42E41E4B42E412F64E083E01A
:1057C0000F942F1220E030E0A901C501B4010F941D
:1057D000FC2D18167CF580E090E0A0EAB0E4898307
:1057E0009A83AB83BC8320919C1430919D1440918B
:1057F0009E1450919F14C501B4010F94D52B6B01D9
:105800007C0120E030E048EC53E40F94F32487FD62
:1058100006C0C12CD12C38ECE32E33E4F32ECC8E11
:10582000DD8EEE8EFF8EBE016F5F7F4FCE014C96F8
:105830000E94FC7E85E50E9499D3882329F00E946E
:1058400066D36B017C010AC028E01202F00111242A
:10585000E559F94EC080D180E280F38020E030E04D
:10586000A901C701B6010F94FC2D87FF04C0F7FA08
:10587000F094F7F8F094F7FAF094F7F8F094C982FE
:10588000DA82EB82FC8244E061E0CE0101960E9464
:1058900088CD20E030E0A901C501B4010F94FC2DB2
:1058A00018165CF580E090E0A0EAB0E489839A8362
:1058B000AB83BC83A501940160919C1470919D14ED
:1058C00080919E1490919F140F94D42B6B017C01B6
:1058D00020E030E0A9010F94FC2D18161CF0C12C1B
:1058E000D12C7601CC8EDD8EEE8EFF8EBE016F5FE9
:1058F0007F4FCE014C960E94FC7E40E060E089E044
:105900000F942F1294C083E08093760810923B1777
:1059100060E083E50E942CD5811189C0E0914102AD
:1059200032E6E39FF0011124EC55FD4F80810E9487
:10593000333F7DC083E50E9499D3882339F00E94CC
:1059400057D3809378160E94BDD771C00E941FCD97
:1059500086E897E00E94E2CC80917816882319F0BF
:1059600083E897E002C08FE797E00E94E2CC8AE0EC
:1059700022D55DC00E94E4D75AC00E94FB76809178
:105980002C0C877F8B7F80932C0C0E943489811193
:105990004EC00E94B5D70E94F3890E945E916D337C
:1059A00071058105910520F087EB97E00E94CF49B2
:1059B00083EB97E00E94CF4984EE80933C178CE103
:1059C0009CE09A83898380911C0C8B838FEF80935A
:1059D0001C0C8FE997E00E94E2CCCE0101960E9458
:1059E00036CE8BE997E00E94CF4921C00F943D0A43
:1059F0001EC01091FF040F9464176093020E709301
:105A0000030E8093040E9093050E112381F00E94E3
:105A10001FCD84E5D0D4812F0E94B38C80E2CBD4FB
:105A20008BEB97E00E94E2CC02C00F943D0A88AD58
:105A3000811102C00F94C6093092A117E8960FB6E3
:105A4000F894DEBF0FBECDBFDF91CF911F910F91B4
:105A5000FF90EF90DF90CF90BF90AF909F908F908E
:105A60007F906F905F904F903F902F90089520E02F
:105A700030E0A901C701B6010F94F324881F8827DD
:105A8000881F181709F4A2C080E090E0A0E8BFEBDF
:105A90008CAB9DABAEABBFAB2CA53DA54EA55FA51A
:105AA000C501B4010F94D42B20E030E040E05FE367
:105AB0000F9458256CA77DA78EA79FA728A939A961
:105AC0004AA95BA9C301B2010F94D42B20E030E0B6
:105AD00040E05FE30F9458252B013C012CA53DA528
