:100000000C9421220C9452220C9452220C945222D1
:100010000C9452220C9452220C9452220C94522290
:100020000C9452220C9452220C9452220C94522280
:100030000C9452220C9452220C9452220C94522270
:100040000C9452220C948E7B0C9452220C945222CB
:100050000C9452220C9452220C94629B0C94499161
:100060000C9452220C9436430C9422430C9452224A
:100070000C9452220C9452220C9452220C94522230
:100080000C9414420C9452220C9452220C9452223E
:100090000C9442420C942C430C9452220C94522205
:1000A0000C9452220C9452220C94E6410C9452224D
:1000B0000C9452220C9452220C9452220C945222F0
:1000C0000C9452220C9452220C9452220C945222E0
:1000D0000C9452220C9452220C9452220C945222D0
:1000E0000C945222714283429542A642AE42DD42B6
:1000F000B242DD42B642BA42DD42BE42C242C642CE
:10010000CE42DD42D8426543774389439A43A243B6
:10011000D143A643D143AA43AE43D143B243B643EE
:10012000BA43C243D143CC43257208720E720B729C
:10013000117214722A722072177235721A721D723D
:10014000C2018601520154018A013401B801AE0195
:100150006E0198018C018401C601A6013401C4011D
:1001600062015C01240150014801360142015A013B
:1001700056016C017C01B401BC019A0192012A0173
:100180005A0176018801AA01C8018E019401B201C9
:1001900094019401940194019401940194019401B7
:1001A00094019401940194019401940194019401A7
:1001B0009401940194019401940194019401940197
:1001C00094019401640194019401940194019401B7
:1001D000940194019401CE0194019401940194013D
:1001E000940194019401940194019401A801B00137
:1001F000084AD73B3BCE016E84BCBFFDC12F3D6C8E
:1002000074319ABD56833DDA3D00C77F11BED9E4F3
:10021000BB4C3E916BAAAABE000000803F05A84CD3
:10022000CDB2D44EB93836A9020C50B9918688089F
:100230003CA6AAAA2ABE000000803F000D94F32825
:100240000D945D290D9444580D944E440D946F2CDB
:100250000D940F2E0D94BD440D9406160D94793017
:100260000D9453290D94832C0D94D2430D94624424
:100270000D9458290D9406480D9483160D94672902
:100280000D9435160D946C440D949A160D9485308A
:100290000D9458440D94DB010D9409480D94D62B10
:1002A0000D9453440D948A430D948E430D947644DB
:1002B0000D940B290D94E5440D94CD430D941B2C06
:1002C0000D94D22B0D94C9430D94434A0D943B29B0
:1002D0000D94C6280D94241A0D947E440D94A943C0
:1002E0000D94F5010D9429020D9448620D94C744B4
:1002F0000D9403480D94762C0D9486440D948A1623
:100300000D941A160D94DA2B0D94B7430D949B435C
:100310000D94D1440D9492430D94B1430D947948BA
:100320000D94CE2B0D94B3440D9495480D94D12883
:100330000D94AD430D94A4440D940F020D94F11847
:100340000D9486290D9495160D945C170D94BF435A
:100350000D94524A0D94DB440D9479160D94A343E9
:100360000D94194A0D94484A0D9490440D94F91532
:100370000D949F430D9423290D949A440D94122FAC
:100380000D9490160D9498430D94C5430D94BB4362
:100390000D94094A0D942A620D9462290D941D4A08
:1003A0004E414E494E495459494E46CDCCCC3D0A5A
:1003B000D7233C17B7D13877CC2B329595E6241F3D
:1003C000B14F0A000020410000C84200401C4620F6
:1003D000BCBE4CCA1B0E5AAEC59D7400407A10F3C9
:1003E0005A00A0724E18090010A5D4E80000E87663
:1003F00048170000E40B54020000CA9A3B000000BA
:10040000E1F505000080969800000040420F0000D2
:1004100000A08601000000102700000000E8030093
:100420000000006400000000000A0000000000015D
:1004300000000000002C76D888DC674F0823DFC15D
:10044000DFAE59E1B1B796E5E3E453C63AE6519918
:100450007696E8E6C28426EB898C9B62ED407C6F41
:10046000FCEFBC9C9F40F2BAA56FA5F490055A2AF8
:10047000F75C936B6CF9676DC11BFCE0E40D47FE04
:10048000F520E6B500D0ED902E03009435770500F9
:1004900080841E080000204E0A000000C80C333380
:1004A00033330F986E12831141EF8D2114893BE68F
:1004B0005516CFFEE6DB18D1844B381BF77C1D9018
:1004C0001DA4BBE424203284725E228100C9F12481
:1004D000ECA1E53D27434F4D4D554E49434154490D
:1004E0004F4E0044525952554E004552524F5253AE
:1004F00000494E464F004543484F0047322F47338F
:100500002062616420706172616D65746572730A46
:100510000047322F47332062616420706172616D41
:1005200065746572730A00536C6565702E2E2E001B
:100530005A2050726F626520506173742042656466
:100540000A005A2050726F62652050617374204215
:100550006564004D3131372050726F6265206661ED
:10056000696C65642E205265776970696E672E0A22
:100570004732380A4731322050302053313220542C
:10058000300070726F62655F7265776970650047F1
:100590003239205265747279696E670050726F62E9
:1005A000696E67204661696C6564004D31313720A2
:1005B000426564206C6576656C696E67206661696A
:1005C0006C65642E0A4730205A31300A4D33303082
:1005D0002050323520533838300A4D3330302050D7
:1005E00035302053300A4D333030205032352053CF
:1005F0003838300A4D333030205035302053300AEF
:100600004D3330302050323520533838300A4D3396
:100610003030205035302053300A473420533100D9
:1006200070726F62655F6661696C6564004D31313F
:100630003720426564206C6576656C696E6720645E
:100640006F6E652E00205A3A200020593A20004251
:10065000656420583A20004D65736820706F696E9C
:1006600074206F7574206F662072616E67650A0072
:100670004D302053746F70004D312053746F7000F3
:10068000436C69636B20746F20526573756D652EC2
:100690002E2E004E6F204D6F76652E00456E642025
:1006A00066696C65206C6973740A00426567696EDF
:1006B0002066696C65206C6973740A004E6F206D4A
:1006C000656469610A00526573756D696E672053D0
:1006D0004400286E6F2066696C652900437572724C
:1006E000656E742066696C653A2000534420707210
:1006F000696E74696E67206279746520004E6F744C
:10070000205344207072696E74696E670A005072DB
:10071000696E742074696D653A20000A53746174BF
:10072000733A2046696C616D656E742075736564FB
:100730003A20002C204C6F6E67657374206A6F62DC
:100740003A2000546F74616C2074696D653A200022
:1007500053746174733A20002C204661696C65649F
:100760003A20002C2046696E69736865643A20005F
:100770005072696E74733A200053746174733A2036
:10078000006F6B006F666600F604F104EA04E30490
:10079000D50444454255473A004D3131332053008A
:1007A00043522D3130205633204F46462E002F2FF6
:1007B000004D31343520533C696E6465783E206FBE
:1007C0007574206F662072616E67652028302D3148
:1007D000290A00205200416363656C657261746987
:1007E0006F6E3A2050004F4646004F4E0020204D7D
:1007F00061783A2000200020204D696E3A20005395
:100800006F667420656E6473746F70733A2000466F
:10081000523A0020466C6F773A2000206F757420A2
:100820006F662072616E67650A00536572766F208D
:10083000003A200020536572766F200020643A0051
:1008400020693A0020703A00496E76616C69642034
:1008500065787472756465720A0020643A002069D4
:100860003A0020703A0064697300656E0043290AFB
:100870000061626C656420286D696E2074656D701E
:100880002000436F6C642065787472756465732012
:10089000617265200046696C616D656E74207275C9
:1008A0006E6F75742064697374616E636520286D62
:1008B0006D293A200046696C616D656E7420727511
:1008C0006E6F757420004D34323120696E636F7223
:1008D0007265637420706172616D657465722075F4
:1008E000736167650A004D65736820706F696E7487
:1008F000206F7574206F662072616E67650A00450F
:100900004550524F4D204F4B0A00506F7765722D66
:100910006C6F7373207265636F7665727920004522
:1009200072726F722077726974696E6720746F20BB
:10093000454550524F4D210A0053544F50504544A5
:100940002E20005072696E7465722073746F70701F
:1009500065642064756520746F206572726F7273B0
:100960002E2046697820746865206572726F722047
:10097000616E6420757365204D39393920746F209C
:10098000726573746172742E202854656D7065727F
:1009900061747572652069732072657365742E20A9
:1009A0005365742069742061667465722072657382
:1009B00074617274696E67290A004E6F204368651E
:1009C000636B73756D2077697468206C696E652040
:1009D0006E756D6265722C204C617374204C696E6B
:1009E000653A20004E6F20436865636B73756D2018
:1009F00077697468206C696E65206E756D626572CA
:100A00002C204C617374204C696E653A2000636839
:100A100065636B73756D206D69736D617463682CAC
:100A2000204C617374204C696E653A20004C696EED
:100A300065204E756D626572206973206E6F74203B
:100A40004C617374204C696E65204E756D626572E1
:100A50002B312C204C617374204C696E653A200058
:100A60004D3131300053657269616C20737461746B
:100A70007573206D69736D617463680A0053442057
:100A800072656164206572726F720A002121204BC9
:100A9000494C4C20636175736564206279204B4931
:100AA0004C4C20627574746F6E2F70696E0A002151
:100AB00021204B494C4C2063617573656420627939
:100AC00020746F6F206D75636820696E616374694F
:100AD00076652074696D65202D2063757272656E70
:100AE0007420636F6D6D616E643A20006275737976
:100AF0003A2070617573656420666F7220696E704C
:100B000075740A00627573793A2070617573656453
:100B100020666F7220757365720A00627573793A88
:100B20002070726F63657373696E670A004D656448
:100B300069612052656D6F766564004D6564696119
:100B400020496E736572746564004D3130303053E6
:100B5000007061757365004D363030002066696C39
:100B6000616D656E745F72756E6F75742000666975
:100B70006C616D656E745F72756E6F757420540074
:100B800046696C616D656E7452756E6F7574205434
:100B900000436F6F6C696E672E2E2E00486561747E
:100BA000696E672E2E2E0045202553004265642075
:100BB000436F6F6C696E672E2E2E0042656420486D
:100BC000656174696E672E2E2E0023646566696EFA
:100BD000652044454641554C545F00626564004BB6
:100BE0006420004B6920004B702000504944204194
:100BF00075746F74756E652066696E697368656477
:100C0000212050757420746865206C617374204BCA
:100C1000702C204B6920616E64204B6420636F6EE2
:100C20007374616E74732066726F6D2062656C6F91
:100C30007720696E746F20436F6E666967757261A5
:100C400074696F6E2E680A00504944204175746FB4
:100C500074756E65206661696C6564212074696DC8
:100C6000656F75740A00504944204175746F74753E
:100C70006E65206661696C6564212054656D7065E0
:100C800072617475726520746F6F20686967680A95
:100C900000204B643A2000204B693A2000204B7022
:100CA0003A200020436C61737369632050494420EB
:100CB0000A00204E6F206F76657273686F6F740A3A
:100CC000002054753A2000204B753A2000206D61B9
:100CD000783A2000206D696E3A200020643A2000A6
:100CE00020626961733A2000504944204175746F55
:100CF00074756E652073746172740A0050494420E3
:100D00004175746F74756E65206661696C656421E8
:100D10002054656D706572617475726520746F6FB3
:100D200020686967680A00504944204175746F74EF
:100D3000756E6500504944204175746F74756E6519
:100D4000206661696C656421204261642068656188
:100D50007465722069640A004572723A207574667F
:100D60003820666F6E74206E6F7420696E697469C6
:100D7000616C697A65642E004572723A20757466FA
:100D80003820666F6E74206E6F7420696E697469A6
:100D9000616C697A65642E004572723A20757466DA
:100DA0003820666F6E74206E6F7420696E69746986
:100DB000616C697A65642E00000C0F00FE07022545
:100DC00003BB017FFE08FE08FE0508080600004080
:100DD000F0C88888987810050808060000C0F888D0
:100DE00088888888F80505050600012030F830203D
:100DF0000508080600002070F820202020E00509E2
:100E0000090600FF2070A8A8B8888870200705058B
:100E1000070001D86C366CD80509090600FFF8A850
:100E20008888888888A8F8050A0A0600FE2050509D
:100E3000505088A8A8887003030306000340A04010
:100E4000FFFFFFFFFFFFFFFFFFFFFFFFFFFFFFFFB2
:100E5000FFFFFFFFFFFF0000000605FF0107070679
:100E6000020080808080800080030303060105A0CB
:100E7000A0A005060606000050F85050F8500509DD
:100E8000090600FF2070A8A07028A8702005070799
:100E9000060000C8C8102040989805070706000003
:100EA00040A0A040A890680103030602058080804E
:100EB0000309090601FF2040408080804040200354
:100EC00009090601FF80404020202040408005079E
:100ED0000706000020A8702070A820050505060060
:100EE000012020F820200203030601FFC0408005F6
:100EF0000101060003F8020202060100C0C0050756
:100F00000706000008101020404080050707060073
:100F100000708898A8C8887003070706010040C0C1
:100F200040404040E0050707060000708808102098
:100F300040F8050707060000F8081030088870051B
:100F4000070706000010305090F81010050707063C
:100F50000000F880F00808887005070706000030D8
:100F60004080F0888870050707060000F808101018
:100F70002020200507070600007088887088887088
:100F800005070706000070888878081060020505CC
:100F9000060100C0C000C0C00206060601FFC0C0B6
:100FA00000C0408003050506010120408040200567
:100FB0000303060002F800F803050506010180405E
:100FC00020408005070706000070881020200020C0
:100FD0000507070600007088B8A8B88070050707E5
:100FE000060000708888F8888888050707060000D2
:100FF000F04848704848F0050707060000708880F0
:1010000080808870050707060000F0484848484877
:10101000F0050707060000F88080F08080F80507DB
:1010200007060000F88080F0808080050707060032
:1010300000708880809888700507070600008888FF
:1010400088F8888888030707060100E04040404090
:1010500040E00507070600003810101010906005EA
:1010600007070600008890A0C0A090880507070623
:101070000000808080808080F805070706000088D7
:10108000D8A8888888880507070600008888C8A827
:101090009888880507070600007088888888887007
:1010A000050707060000F08888F0808080050707A4
:1010B00006000070888888A8906805070706000069
:1010C000F08888F0A09088050707060000708880E7
:1010D00070088870050707060000F82020202020EF
:1010E000200507070600008888888888887005071B
:1010F00007060000888888885050200507070600EA
:101100000088888888A8A8500507070600008888F6
:101110005020508888050707060000888850202046
:101120002020050707060000F80810204080F8037B
:1011300009090601FFE080808080808080E005074B
:10114000070600008040402010100803090906012E
:10115000FFE020202020202020E0050303060005DA
:101160002050880501010600FEF80303030601056F
:10117000804020050505060000700878887805077E
:10118000070600008080F0888888F00505050600C5
:1011900000708080887005070706000008087888BE
:1011A0008888780505050600007088F080700507BE
:1011B00007060000304840E04040400507070600B1
:1011C000FE70888888780870050707060000808010
:1011D000F0888888880307070601004000C0404067
:1011E00040E00409090601FE1000301010101090B4
:1011F0006005070706000080808890E0908803075C
:1012000007060100C04040404040E00505050600DB
:1012100000D0A8A8A8A8050505060000B0C88888C1
:101220008805050506000070888888700507070690
:1012300000FEF0888888F080800507070600FE78A9
:10124000888888780808050505060000B0C88080F1
:101250008005050506000078807008F00507070680
:1012600000002020F8202020180505050600008831
:10127000888898680505050600008888885020053C
:1012800005050600008888A8A85005050506000089
:1012900088502050880507070600FE88888850205F
:1012A0004080050505060000F8102040F8030909F4
:1012B0000601FF20404040804040402001090906CF
:1012C00002FF808080808080808080030909060181
:1012D000FF8040404020404040800503030600025C
:1012E00048A890FF446966663A2020200046726F45
:1012F0006D5374703A00537465707065723A00559E
:101300006E4C6576656C3A004C6576656C65643A42
:10131000005261773A20202020000A4C6F676963F1
:10132000616C3A00436F756E7420453A00436170FA
:101330003A004D4541545041434B00434F4F4C45BB
:10134000525F54454D504552415455524500434813
:10135000414D4245525F54454D50455241545552BE
:101360004500424142595354455050494E4700416F
:10137000524353004D4F54494F4E5F4D4F444553D8
:1013800000544845524D414C5F50524F54454354D0
:10139000494F4E004C4F4E475F46494C454E414DDC
:1013A00045004155544F5245504F52545F53445F8E
:1013B0005354415455530053445F575249544500C8
:1013C0005245504541540053444341524400505209
:1013D0004F4D50545F535550504F525400484F5347
:1013E000545F414354494F4E5F434F4D4D414E442E
:1013F0005300454D455247454E43595F5041525366
:10140000455200434153455F4C494748545F42525F
:10141000494748544E45535300544F47474C455F46
:101420004C494748545300534F4654574152455F27
:10143000504F574552004255494C445F5045524326
:10144000454E54004C4556454C494E475F44415427
:1014500041005A5F50524F42450052554E4F55542D
:10146000004155544F4C4556454C005052494E543E
:101470005F4A4F420050524F475245535300415527
:10148000544F5245504F52545F54454D50004155B2
:10149000544F5245504F52545F504F5300564F4C8B
:1014A000554D455452494300454550524F4D004219
:1014B000494E4152595F46494C455F5452414E5343
:1014C0004645520053455249414C5F584F4E5F5874
:1014D0004F4646004649524D574152455F4E414D99
:1014E000453A4D61726C696E20322E302E382E32A4
:1014F0002D46695A692D424C2D313135323030201C
:10150000284A756E20203520323032312031343A6D
:1015100034303A31392920534F555243455F434FB8
:1015200044455F55524C3A6769746875622E636F23
:101530006D2F4D61726C696E4669726D776172656F
:101540002F4D61726C696E2050524F544F434F4C77
:101550005F56455253494F4E3A312E30204D41434C
:1015600048494E455F545950453A43522D31302039
:1015700056332045585452554445525F434F554EBB
:10158000543A3120555549443A63656465326132B5
:10159000662D343161322D343734382D3962313291
:1015A0002D6335356336326633363766660A00504A
:1015B000726F6265204F6666736574205A005072C0
:1015C0006F6265204F6666736574205A00290A00B1
:1015D00020746F20003F5A206F7574206F66207250
:1015E000616E6765202800290A0020746F20003F83
:1015F00059206F7574206F662072616E67652028B0
:101600002D00290A0020746F20003F58206F757448
:10161000206F662072616E676520282D0050726F02
:101620006265204F66667365742058006F6B0A0010
:10163000526573656E643A20004D383400446F6E15
:1016400065207072696E74696E672066696C650AE0
:10165000004D3737004D33310043616E6E6F74209B
:101660006F70656E207375626469722000256973FE
:101670000025696D20256973002569682025696D3D
:101680002025697300256964202569682025696D16
:1016900020256973002569792025696420256968FA
:1016A0002025696D202569730042656400456E63DD
:1016B0006C6F73757265002568753A2530326875F0
:1016C0000025303268753A253032687500202020B8
:1016D000202020200020202020001FE020102010AB
:1016E00020101020102020102010303008400480DE
:1016F00003001FE03FF03FF03FF01FE01FE03FF02E
:101700003FF03FF00FC0078003003FFFF03800704C
:1017100030FC3020FC102078102030102C00D02E0F
:1017200031D02F7BD02F7BD02E31D02C00D0203049
:101730001020781020FC1030FC303800703FFFF093
:101740003FFFF03800703186302387102787902FB5
:1017500087D02F03D0203010207810207810203030
:10176000102F03D02F87D027879023871031863002
:101770003800703FFFF01FFFF81FFFF80410400211
:101780000820020820041040082080104100104169
:10179000000820800410400000001FFFF81FFFF821
:1017A000000000001E000000002100000000271DB6
:1017B000C08C00272121920041212092008E21CE51
:1017C000920090212092011021209201201D21CC15
:1017D0000220000000041001130008100114801002
:1017E00008011080200400A30047F200A08043E21B
:1017F000004480200400430018D800000019840031
:10180000000021FC0000003F005761697420666FF2
:10181000720066696C616D656E74207075726765C3
:1018200000003E2000256C642E25696D004578740B
:10183000727564656420546F74616C003E20004CC6
:101840006F6E67657374204A6F622054696D65001E
:101850003E2000546F74616C205072696E74205485
:10186000696D6500436F6D706C65746564003A2046
:10187000005072696E7420436F756E74003A2000D8
:101880003132300035004245443A204550434F53F1
:10189000203130304B0052756E617761792057618D
:1018A0007463683A204F4E004D61782054656D7026
:1018B00000323735004D696E2054656D700035007B
:1018C00045313A204550434F53203130304B005082
:1018D00053550047656E657269630050726F746F8F
:1018E000636F6C00312E3000426175640031313518
:1018F00032303000437265616C6974793344205230
:10190000414D50530042696C696E656172204C65AF
:1019100076656C696E67004578747275646572737C
:101920000031006D61726C696E66772E6F726700B0
:1019300043522D313020563300323032312D303683
:101940002D30352031343A323800322E302E382EB8
:10195000322D46695A692D424C2D313135323030A5
:10196000004D61726C696E005072696E7465722010
:10197000537461747300546865726D6973746F7227
:101980007300426F61726420496E666F0050726925
:101990006E74657220496E666F004D61696E004D10
:1019A000313030300053746F70205072696E7400A3
:1019B000526573756D65205072696E7400506F7753
:1019C0006572204F7574616765003F004261636B0B
:1019D0000053746F70004E6F204D65646961005054
:1019E00072696E742066726F6D204D656469610066
:1019F0004368616E6765204D65646961004D3231F1
:101A0000004368616E67652046696C616D656E7440
:101A100000436F6E66696775726174696F6E00541A
:101A2000656D7065726174757265004D6F74696F74
:101A30006E00526573756D65205072696E74004159
:101A4000626F7574205072696E7465720043616EC6
:101A500063656C204F626A6563740054756E65003F
:101A600053746F70205072696E74005061757365A5
:101A7000205072696E7400496E666F205363726500
:101A8000656E00504944204175746F74756E652011
:101A90002A005049442D44202A005049442D492011
:101AA0002A005049442D50202A0020082046616316
:101AB00074002008204D6178002008204D696E00D8
:101AC0004F6666004F6E004175746F74656D7000EF
:101AD0005654726176204D696E00566D696E0056DF
:101AE0006D6178204500566D6178205A00566D6111
:101AF00078205900566D6178205800416D6178203A
:101B00004500416D6178205A00416D61782059008F
:101B1000416D6178205800412D54726176656C00EA
:101B2000412D5265747261637400416363656C009A
:101B300024F4D43050C38E20C2A24017828B70117F
:101B4000127A910D816CD90AA861E108C75866071D
:101B5000615143061E4B5D05C145A7041A4111049E
:101B6000093D9803713931034036DB026533910238
:101B7000D4305402802E1D02632CEE01752AC5015B
:101B8000B028A001102781018F2564012B244B016F
:101B9000E0223401AC211F018D200D01801FFC00CB
:101BA000841EED00971DDF00B81CD200E61BC600A6
:101BB000201BBC00641AB200B219A8000A19A000C8
:101BC0006A189900D117910040178B00B516840050
:101BD00031167E00B31579003A157300C7146F00F3
:101BE00058146A00EE1366008813630025135E0024
:101BF000C7125B006C12570015125400C11151003E
:101C000070114F0021114B00D61049008D10470074
:101C10004610440002104200C00F4000800F3E00FA
:101C2000420F3C00060F3B00CB0E3800930E3700EE
:101C30005C0E3500270E3400F30D3200C10D31006B
:101C4000900D3000600D2E00320D2D00050D2C0082
:101C5000D90C2B00AE0C2900850C29005C0C270048
:101C6000350C27000E0C2600E80B2400C40B2400C2
:101C7000A00B23007D0B23005A0B2100390B210000
:101C8000180B2000F80A1F00D90A1E00BB0A1E000C
:101C90009D0A1D00800A1D00630A1C00470A1B00E4
:101CA0002C0A1B00110A1A00F7091A00DD09190095
:101CB000C4091900AB091900920917007B09180023
:101CC000630917004C091600360916002009160092
:101CD0000A091500F5081500E0081400CC081400E6
:101CE000B8081400A4081400900813007D0812001E
:101CF0006B0813005808120046081200340811003F
:101D0000230811001208110001081100F00710004B
:101D1000E0071000D0071000C0071000B0070F0048
:101D2000A107100091070E0083070F0074070F0032
:101D300065070E0057070E0049070E003B070D0010
:101D40002E070E0020070D0013070D0006070D00DB
:101D5000F9060C00ED060D00E0060C00D4060C00A0
:101D6000C8060C00BC060C00B0060C00A4060B0054
:101D700099060C008D060B0082060B0077060B00FF
:101D80006C060B0061060A0057060B004C060A00A1
:101D900042060A0038060A002E060A0024060A0037
:101DA0001A060A001006090007060A00FD050900C8
:101DB000F4050900EB050900E2050900D905090051
:101DC000D0050900C7050900BE050900B5050800D2
:101DD000AD050800A50509009C050800940508004C
:101DE0008C050800840508007C05080074050800BF
:101DF0006C050700650508005D050700560508002D
:101E00004E05070047050700400508003805070094
:101E1000310507002A050700230507001C050600F9
:101E2000160507000F050700080506000205070054
:101E3000FB040600F5040700EE040600E8040600B3
:101E4000E2040700DB040600D5040600CF04060008
:101E5000C9040600C3040600BD040600B70406005A
:101E6000B1040500AC040600A6040600A0040500A9
:101E70009B04060095040500900406008A040500F2
:101E800085040500800406007A0405007504050039
:101E9000700405006B04050066040500610405007C
:101EA0005C04050057040500520405004D040500BC
:101EB00048040500430405003E0404003A040500FC
:101EC00035040500300404002C0405002704040038
:101ED000230405001E0404001A040400160405006F
:101EE000110404000D0404000904050004040400A6
:101EF00000040400FC030400F8030400F4030400DD
:101F0000F0030400EC030400E8030400E40304000D
:101F1000E0030400DC030400D8030400D40304003D
:101F2000D0030400CC030400C8030300C50303006E
:101F300024F404D9201BC40C5C0E9804C4095F026D
:101F400065077101F405F900FB04B300480487003C
:101F5000C10369005803550003034500BE023A005F
:101F60008402310053022A002902250004022000C5
:101F7000E4011C00C8011900AF011700980114000A
:101F800084011300710110006101100051010E0065
:101F900043010D0036010B002B010B0020010B004B
:101FA000150109000C01090003010800FB000800ED
:101FB000F3000800EB000700E4000600DE00060066
:101FC000D8000600D2000600CC000500C7000500BE
:101FD000C2000500BD000400B9000400B500040003
:101FE000B1000400AD000400A9000400A500030036
:101FF000A20003009F0004009B0003009800030060
:102000009500020093000300900003008D00020081
:102010008B00030088000200860002008400030099
:10202000810002007F0002007D0002007B000200B0
:1020300079000200770001007600020074000200BF
:1020400072000100710002006F0002006D000100CB
:102050006C0002006A0001006900020067000100D4
:1020600066000100650001006400020062000100DA
:1020700061000100600001005F0002005D000100DE
:102080005C0001005B0001005A00010059000100E2
:1020900058000100570001005600010055000100E2
:1020A00054000100530000005300010052000100E1
:1020B00051000100500001004F0001004E000000DF
:1020C0004E0001004D0001004C0001004B000000DB
:1020D0004B0001004A0001004900010048000000D7
:1020E00048000100470001004600000046000100D2
:1020F00045000000450001004400010043000000CD
:1021000043000100420000004200010041000000C5
:1021100041000100400001003F0000003F000100BD
:102120003E0000003E0001003D0000003D000100B7
:102130003C0000003C0000003C0001003B000000AF
:102140003B0001003A0000003A00010039000000A5
:10215000390001003800000038000000380001009C
:102160003700000037000100360000003600000094
:102170003600010035000000350000003500010088
:10218000340000003400000034000100330000007F
:102190003300000033000100320000003200000074
:1021A0003200010031000000310000003100010068
:1021B0003000000030000000300001002F0000005F
:1021C0002F0000002F0000002F0001002E00000053
:1021D0002E0000002E0001002D0000002D00000048
:1021E0002D0000002D0001002C0000002C0000003C
:1021F0002C0000002C0001002B0000002B00000030
:102200002B0000002B0001002A0000002A00000023
:102210002A0000002A000100290000002900000017
:10222000290000002900000029000100280000000A
:1022300028000000280000002800000028000100FD
:1022400027000000270000002700000027000000F2
:1022500027000100260000002600000026000000E4
:1022600026000000260001002500000025000000D7
:1022700025000000250000002500000025000100C9
:1022800024000000240000002400000024000000BE
:1022900024000100230000002300000023000000B0
:1022A00023000000230000002300000023000100A1
:1022B0002200000022000000220000002200000096
:1022C0002200000022000100210000002100000087
:1022D000210000002100000021000000210000007A
:1022E000210001002000000020000000200000006C
:1022F000200000002000000020000000200000005E
:10230000200001001F0000001F0000001F0000004F
:102310001F0000001F0000001F0000001F00010040
:102320001E0000001E0000001E0000001E00000035
:10233000393000003325000087190000B00F00007D
:10234000DB080000BD040000740200003F01000033
:10235000486F6D696E67204661696C6564006F70D7
:10236000656E00545249474745524544003A2000A3
:1023700066696C616D656E74007A5F70726F62651C
:10238000007A5F6D696E00795F6D696E00785F6DD0
:10239000696E005265706F7274696E6720656E6455
:1023A00073746F70207374617475730A0020746F96
:1023B0006F206C6F6E6720657874727573696F6ECD
:1023C0002070726576656E7465640A0020636F6CB8
:1023D0006420657874727573696F6E2070726576AB
:1023E000656E7465640A00486F6D652025732573FA
:1023F000257320466972737400000000000000001D
:1024000000000000005761726E696E673A20486FE5
:102410006D696E672042756D702044697669736FCF
:1024200072203C20310A0002020400009B4300009D
:102430009B430000C8430000A0400000A0400000F3
:102440000040FFFFFF0000000100000001000080CD
:1024500000555555000000400033333300AAAA2A26
:10246000004992240000002000C7711C00999919AE
:1024700000D1451700555515003BB11300244912F2
:102480000011111100000010000F0F0F00E3380EB3
:102490000043790D00CCCC0C00C3300C00E8A20B3B
:1024A0000064210B00AAAA0A00703D0A009DD80909
:1024B00000427B090092240900DCD30800888808C8
:1024C000001042080000000800F0C10700878707DD
:1024D0000075500700711C07003EEB0600A1BC060A
:1024E000006990060066660600703E0600611806E8
:1024F0000017F4050074D105005BB00500B290052B
:1025000000627205005555050078390500B81E05B2
:1025100000050505004EEC040087D40400A1BD04AD
:102520000090A7040049920400C17D0400EE6904F4
:1025300000C7560400444404005C3204000821042F
:102540000041100400000004003FF00300F8E00325
:102550000026D20300C3C30300CCB503003AA8038E
:10256000000A9B0300388E0300C08103009F75039F
:1025700000D0690300505E03001D5303003448037C
:1025800000913D03003333030016290300381F0375
:102590000097150300300C0300030303000BFA023D
:1025A0000049F10200BAE802005CE002002DD80206
:1025B000002DD0020059C80200B0C0020031B9029B
:1025C00000DAB10200AAAA0200A0A30200BC9C0289
:1025D00000FA9502005C8F0200DF8802008282020E
:1025E00000457C02002776020027700200436A0241
:1025F000007C640200D05E02003F590200C8530212
:102600000000000000000000600000000000FC006E
:10261000000FF00000000007E00000000001861F2E
:10262000C018700000000000603C0C000001830C2A
:102630006010300000000000603C0C000001830CC2
:10264000303030000000000060000C000000030C7F
:10265000183000000000000060003F0F3C00030C39
:102660000C6001DF0FE0FE00601C1C061800060C69
:102670000C6000F318318300600C0C0318001E0C72
:102680000C6000E030398300600C0C033000030C58
:102690000C6000C030380F00600C0C033000018C5F
:1026A0000C6000C03FF8FB00600C0C033000018C94
:1026B0000C6030C030018300600C0C01F001818C93
:1026C0000C6030C030018300600C0C00E001818C94
:1026D000183030C018318300600C0C40E001838C4E
:1026E000301860C00C6187C0E01C0CC06000C30CD7
:1026F000600FC3F007C0FFC7FC7F0781C0007E1FCB
:10270000C000000000000000000000070000000002
:1027100000000000000000000000000700000000B2
:10272000006D61726C696E66772E6F726700322E73
:10273000302E382E322D46695A692D424C2D3131BA
:1027400035323030001FFFFFFFFFFFFF6000000049
:102750000001FF400000000000FF800000000000BA
:102760007F83CF00000C303F87FF80000C301F8636
:102770007980000C000F8C30C7838C30E78C30CF11
:10278000C7CC31F38C30DCECEC33B98C30D86C6CCA
:1027900033198C30D06C0C33198C30D86C0C331945
:1027A0008C30DC6C0E3B198C30CF7C079F198C3041
:1027B000C77C038F19400000000000026000000089
:1027C0000000061FFFFFFFFFFFF870012C019001C2
:1027D0002701B0012201C0011D01F0011801100202
:1027E000130130020E016002090190020401C002CF
:1027F000FF000003FA004003F5008003F000D0035F
:10280000EB002004E6007004E100E004DC00400579
:10281000D700C005D2004006CD00D006C800800712
:10282000C3003008BE00F008B900C009B400B00A07
:10283000AF00B00BAA00D00CA500000EA000500FF6
:102840009B00C01096005012910000148C00C0151F
:102850008700B0178200B0197D00D01B7800001EE1
:10286000730040206E0090226900F024640040272D
:102870005F0090295A00E02B5500102E50002030A8
:102880004B0010324600E033410090353C001037D9
:10289000370070383200A0392D00B03A2800A03B34
:1028A0002300603C1E00103D1900903D1400103EB6
:1028B0000F00703E0A00C03E0500003F0000403F90
:1028C000FBFF803FF6FFC03FF1FF2020506C616EA0
:1028D0006E657242756666657242797465733A20F8
:1028E000002046726565204D656D6F72793A200053
:1028F000436F6D70696C65643A204A756E202035AF
:1029000020323032310A00204C61737420557064DB
:10291000617465643A20323032312D30362D3035D5
:102920002031343A3238207C20417574686F723A15
:102930002046695A69206261736564206F6E204188
:1029400061726F6E204A7573742C20435231302DA2
:102950005633290A00322E302E382E322D46695A2F
:10296000692D424C2D3131353230300A004D6172C3
:102970006C696E0020536F667477617265205265D2
:102980007365740A00205761746368646F6720522E
:10299000657365740A002042726F776E206F7574DC
:1029A0002052657365740A002045787465726E6103
:1029B0006C2052657365740A00506F7765725570AC
:1029C0000A0073746172740A004732385859004D16
:1029D00031303031006572726F72207772697469BC
:1029E0006E6720746F2066696C650A00446F6E65BF
:1029F00020736176696E672066696C652E0A004DEA
:102A0000323900456E6473746F707300255320254E
:102A1000632025632025632025630020503A002091
:102A20005A3A0020593A0020583A00656E6473748F
:102A30006F7073206869743A20004572723A204DB5
:102A4000415854454D50004D415854454D50207407
:102A50007269676765726564004572723A204D4914
:102A60004E54454D50004D494E54454D50207472C2
:102A70006967676572656400544845524D414C2052
:102A800052554E4157415900546865726D616C2032
:102A900052756E6177617900202F002042403A0024
:102AA00020403A0020573A0020573A00496E76619C
:102AB0006C69642065787472756465720A00FFFD44
:102AC000FCFAF8F6F4F2F0EEECEAE9E7E5E3E1E02F
:102AD000DEDCDAD9D7D5D4D2D0CFCDCBCAC8C7C5E2
:102AE000C3C2C0BFBDBCBAB9B7B6B4B3B2B0AFAD64
:102AF000ACAAA9A8A6A5A4A2A1A09E9D9C9A9998BB
:102B00009795949392908F8E8D8B8A8988878684EF
:102B1000838281807F7E7D7B7A7978777675747306
:102B20007271706F6E6D6C6B6A69686766656463FD
:102B30006261605F5E5D5C5B5A59585857565554E8
:102B400053525150504F4E4D4C4B4A4A49484746BC
:102B500046454443424241403F3E3E3D3C3B3B3A7A
:102B600039383837363535343332323130302F2E2C
:102B70002E2D2C2B2B2A29292827272625252423CF
:102B80002322212120201F1E1E1D1C1C1B1B1A1965
:102B900019181817161615151413131212111110EF
:102BA0000F0F0E0E0D0D0C0C0B0A0A090908080771
:102BB00007060605050404030302020100000000E5
:102BC0009B4300009B430000C8430000000000003E
:102BD00000000000000053657474696E6773205331
:102BE000746F72656400290A002062797465733B12
:102BF00020637263200053657474696E6773205399
:102C0000746F7265642028006E6F74696669636111
:102C100074696F6E20006E6F7469666963617469B0
:102C20006F6E200063616E63656C005072696E7434
:102C30002041626F72746564004469736D697373D7
:102C40000055492041626F72746564004D32352031
:102C5000500A4D323400526573756D650055492038
:102C600050617573650050617573696E672E2E2E05
:102C700000726573756D65004D32340045455052E4
:102C80004F4D2056657273696F6E204572726F7278
:102C900000454550524F4D20496E6465782045727D
:102CA000726F7200454550524F4D204352432045AC
:102CB00072726F72003F0049676E6F7265005265F5
:102CC00073657400496E697469616C697A65204541
:102CD0004550524F4D0000FE0003FF8007C7C0075C
:102CE00001E00000E00000F00000700400700E0041
:102CF000701F00703F80F00E00E00F01E007C7C0BA
:102D000003FF8000FE0000FE0003FF8007C7C00F26
:102D100001E00E00E03F80F01F00700E0070040024
:102D2000700000700000F00000E00701E007C7C07D
:102D300003FF8000FE000E000E000E000E000E00CD
:102D40000E000E000E007FC03F801F000E0004002A
:102D500004000E001F003F807FC00E000E000E001A
:102D60000E000E000E000E000E00FFFFFF7F80FF22
:102D7000C0FFC0FFC07F807F80FFC0FFC0FFC03F9B
:102D8000001E000C0050726F6265205A204F66666C
:102D90007365740052756E6F757420446973742086
:102DA0006D6D004C6F6164206D6D00556E6C6F61D0
:102DB00064206D6D0046696C2E204469612E0045CB
:102DC00020696E206D6D5E33004D333033205531F8
:102DD00020452569205325690056652D4A65726B8B
:102DE00000565A2D4A65726B0056592D4A65726B12
:102DF0000056582D4A65726B0050726F6265205AFA
:102E0000204F66667365740050726F6265205920AA
:102E10004F66667365740050726F62652058204F6C
:102E2000666673657400452073746570732F6D6DED
:102E3000005A2053746570732F6D6D0059205374C0
:102E40006570732F6D6D00582053746570732F6D0E
:102E50006D00416476616E636564205365747469C6
:102E60006E6773003F0043616E63656C00496E6975
:102E70007400496E697469616C697A6520454550D2
:102E8000524F4D0046696C616D656E740054656DFE
:102E900070657261747572650053746570732F6D1F
:102EA0006D0050726F6265204F66667365747300C3
:102EB0004A65726B00416363656C65726174696F2A
:102EC0006E0056656C6F6369747900436F6E666956
:102ED0006775726174696F6E00220A00556E6B6EC1
:102EE0006F776E20636F6D6D616E643A20220020F3
:102EF00042002050006F6B0043522D31302056337A
:102F00002052656164792E005072696E74696E6733
:102F10002E2E2E005072696E742050617573656498
:102F20000020453A00205A3A0020593A00583A0009
:102F300020746F6F206C6F6E672065787472757384
:102F4000696F6E2070726576656E7465640A002024
:102F5000636F6C6420657874727573696F6E20702E
:102F6000726576656E7465640A0047323620436187
:102F70006E63656C6564004732362048656174692C
:102F80006E67204E6F7A7A6C65004732362048654E
:102F90006174696E67204265640057616974696E87
:102FA0006720666F72206865617475702E0A00462E
:102FB00069786564204C656E677468205072696D2D
:102FC0006500446F6E65205072696D696E67004DD3
:102FD000616E75616C207072696D696E672E2E2E40
:102FE000004C656176696E6720473236003F53704A
:102FF0006563696669656420582C5920636F6F7238
:1030000064696E617465206F7574206F6620626FED
:10301000756E64732E0A003F2852296570656174CD
:103020002076616C7565206E6F7420706C617573AD
:1030300069626C653B206D757374206265206174F4
:10304000206C6561737420312E0A003F53706563F4
:103050006966696564206E6F7A7A6C652074656D47
:103060007065726174757265206E6F7420706C612A
:10307000757369626C652E0A003F537065636966FB
:103080006965642066696C616D656E742073697A28
:1030900065206E6F7420706C61757369626C652E4B
:1030A0000A003F53706563696669656420707269E0
:1030B0006D65206C656E677468206E6F7420706C2F
:1030C00061757369626C652E0A003F5370656369B0
:1030D00066696564206E6F7A7A6C652073697A65BB
:1030E000206E6F7420706C61757369626C652E0A56
:1030F000003F52657472616374696F6E204D756C28
:103100007469706C696572206D75737420626520D6
:103110007370656369666965642E0A003F53706564
:103120006369666965642052657472616374696F6E
:103130006E204D756C7469706C696572206E6F7469
:1031400020706C61757369626C652E0A003F537064
:1031500065636966696564206C617965722068657C
:1031600069676874206E6F7420706C617573696232
:103170006C652E0A0043292E0A003F53706563696F
:1031800066696564206265642074656D706572614E
:1031900074757265206E6F7420706C6175736962EE
:1031A0006C65202834302D004732362073746172EC
:1031B00074696E672E2E2E0A004F46460A0046613D
:1031C0006465204865696768742000426564204C26
:1031D0006576656C696E6720004661696C65642080
:1031E000746F20656E61626C6520426564204C6579
:1031F00076656C696E670A00496E76616C69642059
:103200006D6573682E0A00507265686561742024CC
:1032100020456E6400507265686561742024204208
:1032200065640054656D7065726174757265004304
:103230006F6F6C646F776E005072656865617420A3
:10324000240046616E205370656564207E004265EF
:1032500064004E6F7A7A6C65004D61696E00507241
:103260006F6265205A204F666673657400466C6F06
:10327000770046616E205370656564207E0042656C
:1032800064004E6F7A7A6C65005370656564004D1A
:1032900061696E00554E4C4F41442046494C414DAA
:1032A000454E54004C4F41442046494C414D454EFB
:1032B000540046494C414D454E54204348414E47E9
:1032C0004500426564004E6F7A7A6C650046616E17
:1032D00020537065656400436F6E6669677572613F
:1032E00074696F6E00526573746F72652044656611
:1032F00061756C7473004C6F6164205365747469FC
:103300006E67730053746F72652053657474696ED1
:1033100067730050726568656174202420436F6E86
:103320006600506F776572204F7574616765004F56
:103330006666004F6E0052756E6F75742053656E31
:10334000736F7200424C546F7563680050726F6205
:1033500065205A204F666673657400416476616E1D
:103360006365642053657474696E6773004D6169A9
:103370006E004D37303220542564004D36303020F9
:10338000423020542564004D373032203B25640004
:103390004D37303120542564004D373032004D37E1
:1033A0003031004D363030204230004D61696E00C2
:1033B000436F6E74696E7565004F6666004F6E00F0
:1033C00052756E6F75742053656E736F7200507511
:1033D000726765206D6F726500524553554D4520EB
:1033E0004F5054494F4E533A005052494E5420507A
:1033F00041555345440020204E6F7A7A6C653A203F
:10340000005061726B696E672E2E2E0000005761AE
:10341000697420666F720066696C616D656E7420F8
:103420006368616E676500746F2073746172740005
:103430005761697420666F720066696C616D656EB4
:103440007420756E6C6F616400004E6F7A7A6C65E3
:103450002068656174696E6700506C6561736520F2
:10346000776169742E2E2E0000507265737320628E
:103470007574746F6E00746F2068656174206E6F70
:103480007A7A6C650000496E736572742066696CA7
:10349000616D656E7400616E642070726573732077
:1034A000627574746F6E00746F20636F6E74696EF2
:1034B0007565005761697420666F720066696C619A
:1034C0006D656E74206C6F6164000050726573737B
:1034D00020427574746F6E00746F20726573756D21
:1034E00065207072696E7400005761697420666FA0
:1034F00072207072696E7400746F20726573756DDE
:10350000652E2E2E00005374616E64617264204437
:103510006576696174696F6E3A20002052616E674A
:10352000653A2000204D61783A2000204D696E3ABE
:103530002000205369676D613A20004D65616E3A45
:1035400020005741524E494E4721204C6F77205A58
:10355000204A65726B206D6179206C65616420740E
:103560006F20756E77616E74656420706175736528
:10357000732E0A00204D39322058004D3234532525
:103580006C6454256C64004739322E39452573002C
:1035900047314625640047315A257346363030009E
:1035A00047315825735925734633303030004D313B
:1035B0003036502569532569004D3130395325691E
:1035C000004D323030442573004739322E395A25A8
:1035D00073004D3432305325635A25730047323817
:1035E000523058590047315A25734636303000471B
:1035F00039322E395A2573004739322E3945300079
:103600004D313039532569004D313930532569002A
:103610004D343230205330205A300020496E7661CC
:103620006C696420657874727564657220005072EC
:10363000696E742066726F6D204D6564696100501B
:10364000726F62696E67204661696C656400205A1A
:103650003A200020593A200042656420583A200060
:1036600073686F7700627574746F6E006265676966
:103670006E0044697361626C6552756E6F7574009B
:1036800050757267654D6F72650050617573656442
:1036900000436F6E74696E7565004C6F61642046FF
:1036A000696C616D656E74205400496E7365727447
:1036B0002066696C616D656E7420616E642073654F
:1036C0006E64204D3130380A0021212053544F5070
:1036D0002063616C6C65642062656361757365204D
:1036E0006F6620424C546F756368206572726F720A
:1036F000202D20726573746172742077697468205C
:103700004D3939390A0021212053544F502063612B
:103710006C6C65642062656361757365206F6620FB
:10372000424C546F756368206572726F72202D2051
:10373000726573746172742077697468204D3939C9
:10374000390A002F2F616374696F6E3A0070726FCF
:103750006D70745F00656E6400486F74656E642000
:10376000746F6F20636F6C640A0053656E64204D44
:1037700031303820746F20726573756D650A0049A9
:103780006E736572742066696C616D656E7420611C
:103790006E642073656E64204D3130380A005265C6
:1037A0006865617420446F6E650052656865617478
:1037B000696E672E2E2E005265686561740048653B
:1037C000617465722054696D656F75740053656E20
:1037D00064204D31303820746F2068656174206E2C
:1037E0006F7A7A6C650A004E6F7A7A6C6520506148
:1037F000726B656400706175736564005061757308
:103800006500726573756D656400526573756D69E9
:103810006E670000002200250028002B002E0031DA
:1038200000340002010000050108010B0100002125
:1038300000240027002A002D003000330001010081
:1038400000040107010A0105050505070508080828
:1038500008020202020A0A08080404040401010121
:103860000101010101030303030303030304070729
:10387000070C0C0C0C0C0C0C0C02020202060606C7
:1038800006060606060B0B0B0B0B0B0B0B010210AF
:10389000202008081020401020408002010201086A
:1038A000040201010204081020408080402010081A
:1038B0000402018004020180402010080402010873
:1038C00004020101020408102040800102040810D3
:1038D00020408050726F62696E6720506F696E740D
:1038E0000025532025692F2569002E0A002F00503E
:1038F000726F62696E67206D65736820706F696EA4
:10390000742000202844525952554E29004732391C
:10391000204175746F20426564204C6576656C6942
:103920006E67003F20284C2C522C462C4229206FD9
:103930007574206F6620626F756E64732E0A003F87
:103940002856296572626F7365206C6576656C20F8
:10395000696D706C61757369626C652028302D34F7
:10396000292E0A00426164205A2076616C75650A2E
:10397000004E6F2062696C696E65617220677269C2
:10398000640A00446576696174696F6E0025533A74
:103990002025730046696E6973686564210A003AE0
:1039A000207A3A2000206F662000476F696E6720FA
:1039B000746F3A20580043570A00206469723A0035
:1039C00020616E676C653A00537461727420726195
:1039D000646975733A004D343820506F696E740015
:1039E00025533A2025642F256400506F736974694C
:1039F0006F6E696E67207468652070726F62652EE5
:103A00002E2E0A003F4C656773206F66206D6F761F
:103A1000656D656E7420696D706C61757369626C3B
:103A2000652028302D3135292E0A003F2028582CBA
:103A30005929206F7574206F6620626F756E6473EC
:103A40002E0A0050726F6265206F7574206F6620B9
:103A5000626F756E6473003F53616D706C652073A7
:103A6000697A65206E6F7420706C61757369626C21
:103A7000652028342D3530292E0A004D3438205A3F
:103A80002D50726F62652052657065617461626964
:103A90006C69747920546573740A003F285629654F
:103AA00072626F7365206C6576656C20696D706CF1
:103AB00061757369626C652028302D34292E0A00E7
:103AC0005A2056616C756500496E6465782059000E
:103AD000496E64657820580053746F726520536591
:103AE0007474696E6773004C6F61642053657474FD
:103AF000696E67730050726F6265205A204F666668
:103B00007365740046616465204865696768740080
:103B10004F6666004F6E00426564204C6576656CAA
:103B2000696E670045646974204D657368004C6573
:103B300076656C20426564004732394E0047323961
:103B4000004175746F20486F6D65004D6F74696F2B
:103B50006E003F0043616E63656C204F626A65636F
:103B600074004E4F005945530043616E63656C20ED
:103B70004F626A656374203D004D61696E00537445
:103B80006F77004465706C6F790053572D4D6F64EB
:103B9000650053656C662D546573740052657365DA
:103BA000740048617264636F646564204465666193
:103BB000756C742053657474696E6773204C6F6103
:103BC0006465640A003B20003A0A0020204D36302C
:103BD00033200020440020204D3431322053004651
:103BE000696C616D656E742072756E6F757420738B
:103BF000656E736F723A002055004C0046696C6127
:103C00006D656E74206C6F61642F756E6C6F61648E
:103C1000206C656E677468733A0020204D3835312A
:103C20002058005A2D50726F6265204F666673658A
:103C3000740020204D343133205300506F7765726B
:103C40002D4C6F7373205265636F766572793A00FD
:103C500020440020490020204D33303420500020E3
:103C6000440020490020204D33303120500050497D
:103C7000442073657474696E67733A0020460020AF
:103C8000480020204D3134352053004D6174657259
:103C900069616C2068656174757020706172616D16
:103CA00065746572733A00204A002020473239203B
:103CB0005720490020204D34323020530041757484
:103CC0006F20426564204C6576656C696E673A00CA
:103CD00020580020530020204D3230352042004132
:103CE0006476616E6365643A20423C6D696E5F7311
:103CF00065676D656E745F74696D655F75733E2091
:103D0000533C6D696E5F66656564726174653E20E3
:103D1000543C6D696E5F74726176656C5F66656553
:103D200064726174653E20583C6D61785F785F6AAB
:103D300065726B3E20593C6D61785F795F6A657290
:103D40006B3E205A3C6D61785F7A5F6A65726B3EAC
:103D500020453C6D61785F655F6A65726B3E00204F
:103D6000540020520020204D323034205000416356
:103D700063656C65726174696F6E2028756E697415
:103D8000732F7332293A20503C7072696E745F61F0
:103D90006363656C3E20523C726574726163745F4C
:103DA000616363656C3E20543C74726176656C5F40
:103DB000616363656C3E0020204D32303120580035
:103DC0004D6178696D756D20416363656C657261E5
:103DD00074696F6E2028756E6974732F7332293A77
:103DE00000204500205A0020590020204D32303359
:103DF0002058004D6178696D756D20666565647247
:103E0000617465732028756E6974732F73293A0085
:103E100053746570732070657220756E69743A0012
:103E200020440020204D323030205300204469735C
:103E300061626C65640A0046696C616D656E742030
:103E400073657474696E67733A0020204D3134399C
:103E50002043203B20556E69747320696E204365B2
:103E60006C736975730A0020286D6D290020204746
:103E70003231202020203B20556E69747320696EFA
:103E8000206D6D00454550524F4D20646174617343
:103E9000697A65206572726F722E0A00290A002005
:103EA00062797465733B2063726320002073746FC2
:103EB0007265642073657474696E677320726574CB
:103EC000726965766564202800202863616C6375DB
:103ED0006C6174656429210A0020213D200045455C
:103EE00050524F4D20435243206D69736D6174638E
:103EF00068202D202873746F726564292000205378
:103F0000697A653A2000496E6465783A200000803D
:103F10003B4400803B44000070410000964200009A
:103F2000A0420000A0420000C843EC11BF43D007EC
:103F30000000D00700006400000088130000204D3E
:103F400061726C696E3D563833290A0045455052FE
:103F50004F4D2076657273696F6E206D69736D6168
:103F60007463682028454550524F4D3D003F005333
:103F700074617274205072696E740043616E63657F
:103F80006C005072696E740043616E6E6F742065D0
:103F90006E746572207375626469723A2000022E35
:103FA0002E004D61696E002100486F74656E6420BB
:103FB000746F6F20636F6C64004261636B005072BA
:103FC0006F63656564004F6666004F6E00536F66F1
:103FD0007420456E6473746F7073004D6F74696FF5
:103FE0006E0044697361626C65205374657070651E
:103FF0007273004D3834004D34382050726F626552
:104000002054657374004732384F0A4D34382050BD
:10401000313000426564204C6576656C696E6700DE
:10402000486F6D65205A004732385A00486F6D65F9
:104030002059004732385900486F6D6520580047B5
:10404000323858004175746F20486F6D65004732F3
:1040500038004D61696E0043616E6E6F74206F7041
:10406000656E207375626469722000534420496E46
:104070006974204661696C00534420636172642056
:104080006F6B0A006F70656E526F6F7420666169A6
:104090006C65640A00766F6C756D652E696E697467
:1040A000206661696C65640A004E6F20534420638A
:1040B0006172640A000A4D3234004D323320257398
:1040C000002E0A006F70656E206661696C65642C55
:1040D0002046696C653A200046696C652073656C02
:1040E00065637465640A002053697A653A20004666
:1040F000696C65206F70656E65643A2000454E44BA
:1041000020535542524F5554494E450A00222070C3
:104110006F73002220706172656E743A22005355ED
:1041200042524F5554494E452043414C4C207461F6
:10413000726765743A220053756263616C6C204F3C
:10414000766572666C6F7700457863656564656453
:10415000206D617820535542524F5554494E4520A9
:1041600064657074683A002E0A0044656C65746971
:104170006F6E206661696C65642C2046696C653AD7
:10418000200046696C652064656C657465643A005E
:104190002F6175746F25632E670057726974696E9D
:1041A0006720746F2066696C653A200066726573DB
:1041B0006800646F696E67002066696C653A20006C
:1041C0004E6F7720007C3C3E5E2B3D3F2F5B5D3B7E
:1041D0002C2A225C005045544700504C41000000FE
:1041E0000A0B02090C0D0E08070304010000000071
:1041F00000000000000000000000000000000000BF
:10420000000000000000000000001211100000007B
:10421000000000000000000000000000000000009E
:1042200000000000004D6F76652025736D6D004D18
:104230006F766520302E316D6D004D6F76652031C3
:104240006D6D004D6F76652031306D6D004D6F7670
:1042500065204178697300457874727564657200F1
:104260004D6F7665205A004D6F76652059004D6F71
:104270007665205800DA41D5414368616E67652054
:1042800046696C616D656E7400556E6C6F6164207B
:1042900046696C616D656E74004C6F61642046699F
:1042A0006C616D656E740050726568656174204361
:1042B0007573746F6D0050726568656174202400B9
:1042C0004261636B00506C65617365205265736574
:1042D00074005052494E5445522048414C54454474
:1042E0000025533A20255300706F7765726F66661C
:1042F000004B494C4C45442E20005072696E746549
:10430000722068616C7465642E206B696C6C28295E
:104310002063616C6C6564210A0053544F50504512
:10432000442E20005072696E7465722073746F7031
:104330007065642064756520746F206572726F7299
:10434000732E2046697820746865206572726F72DA
:1043500020616E6420757365204D39393920746F82
:1043600020726573746172742E202854656D7065B7
:104370007261747572652069732072657365742E3D
:1043800020536574206974206166746572207265BB
:104390007374617274696E67290A006563686F3AA5
:1043A000004572726F723A0042696C696E656172A3
:1043B000204C6576656C696E6720477269643A0ABD
:1043C0000020436F756E7420583A004265640045C2
:1043D0003100626564002C2073797374656D2073FD
:1043E000746F7070656421204865617465725F49FF
:1043F000443A200048656174696E67204661696CC3
:1044000065640048656174696E67206661696C6502
:1044100064004D3131322053687574646F776E00DB
:10442000202D20496E76616C696420657874727500
:10443000646572206E756D62657220210A007401D8
:10444000CA0111241FBECFEFD1E2DEBFCDBF00E015
:104450000CBF14E0A0E0B2E0E0EBF5EE02E00BBF31
:1044600002C007900D92A43EB107D9F729E1A4EE4E
:10447000B4E001C01D92A832B207E1F712E2C0E237
:10448000D2E200E006C021970109802FFE010F94BF
:104490006F6FCF31D10780E00807A9F70F947C5ADE
:1044A0000D94C7720C9400002F923F924F925F922E
:1044B0006F927F928F929F92AF92BF92CF92DF9234
:1044C000EF92FF920F931F93CF93DF93CDB7DEB799
:1044D000E4970FB6F894DEBF0FBECDBF8CAB309023
:1044E000AD1021E02093AD1080913A068D3409F48F
:1044F00089C3843511F40C944E34873411F00C9434
:10450000603480913806909139068B31910509F419
:104510001DC1B0F48430910530F42091BE08823082
:10452000910570F137C08531910511F40C94623416
:104530008A31910509F406C1049709F05FC3C3C02D
:104540008A32910509F4F3C148F48D319105B1F037
:1045500008F417C14E9709F46DC150C38B3591050E
:1045600009F4C5C28C35910509F4C6C28A35910596
:1045700009F044C31092E9040C94623414E043C17E
:10458000233010F40C9462340E94B1E70E940C8A2C
:104590000C946234233010F40C94623411E00297CE
:1045A00009F010E00E94B1E719821A821B821C8276
:1045B0001D821E821F82188682E50E9485CC882378
:1045C00009F44BC00E9479CA6B017C0120E030E005
:1045D000A9010F949668882309F455C08091C609F3
:1045E0009091C709A091C809B091C90988A799A756
:1045F000AAA7BBA78091CA099091CB09A091CC0929
:10460000B091CD098CA79DA7AEA7BFA780909710AA
:1046100090909810A0909910B0909A1040909B1094
:1046200050909C1060909D1070909E10A501940178
:1046300068A579A58AA59BA50F94966881110C940D
:104640008234A30192016CA57DA58EA59FA50F9430
:1046500096688823C1F00C94823489E40E9485CC4A
:10466000882331F00E9479CA69837A838B839C8383
:104670008AE40E9485CC882331F00E9479CA6D8338
:104680007E838F83988720E030E0A90169817A8159
:104690008B819C810F94966881110C94363520E0B3
:1046A00030E0A9016D817E818F8198850F94966895
:1046B00081110C9436350F9493508BEF94E00F9446
:1046C000CD4F0C94623480E50E9485CC882329F07C
:1046D0000E9424EF6B017C0103C0C12CD12C760118
:1046E00083E50E9485CC882361F00E9479CA20E08E
:1046F00030E04AE754E40F94FB680F94C1706B01FB
:104700007C010E9487A580910909811105C060E0A4
:1047100087E295E00E949EAF0F942645C60ED71EF5
:10472000E81EF91E0F942645DC01CB018C199D096A
:10473000AE09BF09B7FD02C00C94623480E00E944C
:104740004939F0CF0E94C7CC0C94623487E00E94B4
:10475000C79081110C9462348CE0E5E1F4E0DE0155
:10476000119601900D928A95E1F760E070E080E586
:104770000E9452EEBE016F5F7F4F0E941FDB0C94C0
:10478000623487E00E943D8981110C94573560E0C6
:104790008FE40E94B4CC81110C9462340C94573590
:1047A00060E08FE40E94B4CC81113CC080913B0654
:1047B00090913C06A0913D06B0913E0695FF04C045
:1047C0008EE490E40E94CD5D87E00E94C790811145
:1047D00029C00F943D11882329F1115011F40C9434
:1047E000F73620E030E049E35CE26FE875E085E011
:1047F0000F94AB0061E082E895E00E9488FD83E5BC
:1048000095E00E94CD5D0F9426456093D00870938B
:10481000D1088093D2089093D308809135178823CC
:1048200029F2BECF0F9476008DE296E00E94CD5D16
:104830000C9462340091BE141091BF14D8012D91D4
:104840003D914D915C916091C6097091C70980912D
:10485000C8099091C9090F94786FAB01BC0188E534
:104860000E9492CC69837A838B839C83F801248194
:104870003581468157816091CA097091CB09809139
:10488000CC099091CD090F94786FAB01BC0189E5FB
:104890000E9492CC6D837E838F839887BE016B5F6D
:1048A0007F4FCE0101960F94A40B882311F40C9432
:1048B000623480E00F94C6020E94CE8C61E085E4F1
:1048C0000E94B4CC182F21E0482FBE016B5F7F4FB0
:1048D000CE0101960E9415F26B017C019B01AC0197
:1048E0000F942772811119C049815A816B817C8193
:1048F0008FE496E00F9471504D815E816F817885D1
:104900008AE496E00F947150B701A60185E496E021
:104910000F9471508AE00E9444390E94B58C113086
:1049200011F40F948A0B0E94568F0C94623480917C
:10493000BE08833010F40C94623489E40E9485CC64
:10494000E82E882321F00E9476CA082F01C000E0DB
:104950008AE40E9485CCF82E882321F00E9476CA32
:10496000182F01C010E0EE2011F0053020F4FF20D8
:1049700041F0153030F087E596E00F94CD4F0C9460
:10498000623480E1E6ECF9E0A7E9B0E101900D9234
:104990008A95E1F7EE2019F1602F000F770B880B55
:1049A000990B0F949C682091821030918310409154
:1049B0008410509185100F94FB6820918A103091DB
:1049C0008B1040918C1050918D100F94786F6093E4
:1049D0009710709398108093991090939A10FF20DD
:1049E00019F1612F110F770B880B990B0F949C68AD
:1049F0002091861030918710409188105091891035
:104A00000F94FB6820918E1030918F104091901080
:104A1000509191100F94786F60939B1070939C103D
:104A200080939D1090939E1060E080E50E94B4CC2E
:104A30008823C1F1EE20D1F0E091BE14F091BF14B3
:104A4000208131814281538160919710709198103B
:104A50008091991090919A100F94776F60939710AE
:104A6000709398108093991090939A10FF20D1F032
:104A7000E091BE14F091BF142481358146815781A5
:104A800060919B1070919C1080919D1090919E1050
:104A90000F94776F60939B1070939C1080939D1080
:104AA00090939E1040E050E0BA0186E40E9492CCC0
:104AB0006B017C0120E030E0A9010F949F71181672
:104AC0004CF420E030E040E752E4C701B6010F9417
:104AD000547003C060E070E0CB0169837A838B83FC
:104AE0009C83CE0101960E94338E0C9462348FE039
:104AF0008093E9040C94623480913706882359F13D
:104B0000893011F00C946234E1E8AE2EE4E0BE2E60
:104B1000F6ECCF2EF9E0DF2E00E010E0F12CD5010D
:104B20008D915D010E9485CC882369F0B3E0FB1272
:104B300002C011E001C001E00E9479CAF601608361
:104B4000718382839383F394F4E0CF0ED11C24E02D
:104B5000F212E5CF44C061E8C62E64E0D62E76ECB2
:104B6000E72E79E0F72E00E010E0212CD6018D91A0
:104B70006D010E9485CC882359F10E9479CA4B01AE
:104B80005C01F70120813181428153810F94776F5D
:104B90002B013C012DEB37E346E855EB0F949F7159
:104BA00087FD0AC02DEB37E346E855E3C301B201A8
:104BB0000F949668181664F4F3E02F1202C011E007
:104BC00001C001E0D7018D929D92AD92BC921397E6
:104BD0002394B4E0EB0EF11CE4E02E12C7CF0023C7
:104BE00019F00E94548F06C0112321F082ED99E044
:104BF0000E9498A50E94568F0C9462340E9482C82D
:104C00000C9462348091380690913906883791056A
:104C100009F46AC708F01BC18D34910509F44AC430
:104C200008F093C08A31910509F477C370F5843197
:104C3000910509F4B0C278F48131910509F497C265
:104C400028F4029708F449C20C944B34429709F4B3
:104C50000DC60C944B348731910509F4DDC248F43C
:104C60008531910509F4C8C2469709F4C9C20C946C
:104C70004B348831910509F4E6C2499711F00C9440
:104C80004B340E9496ED0C9462348032910509F405
:104C9000CBC3E8F58D31910509F4AFC380F48B31B6
:104CA000910509F448C34C9711F00C944B34809152
:104CB0000D0790910E070F9422340C9462348E31BC
:104CC000910509F4A1C34F9711F00C944B340E9445
:104CD00063906C8F7D8F8E8F9F8FBE016F5F7F4F34
:104CE000CE014C960E94F04F60E0CE0101960E94EA
:104CF0004DB00F949650BE016F5F7F4F8EE097E0EE
:104D00000F948A508AE00E9444390C9462348934AA
:104D1000910509F4B8C360F48132910509F4AFC379
:104D2000C09711F00C944B340F945E0D0C946234C8
:104D30008B34910509F4BAC38C34910511F00C94AD
:104D40004B340E94B2900C9462348B36910509F476
:104D5000A2C4D0F58435910509F488C5E0F4813505
:104D6000910509F464C530F48E34910509F4A6C3A5
:104D70000C944B348235910509F470C58335910547
:104D800011F00C944B348091E9048F7E8062809303
:104D9000E9040C9462348836910509F421C450F476
:104DA0008535910509F466C58C35910509F487C5EB
:104DB0000C944B348936910509F417C48A36910551
:104DC00009F426C40C944B348137910509F4D5C4F9
:104DD000F8F48E36910509F46DC478F48C3691059B
:104DE00011F40C9462348D36910511F00C944B340F
:104DF00081E00E94284F0C9462348F36910509F4AB
:104E000077C48037910511F40C9462340C944B34C0
:104E10008537910509F4F5C568F48237910509F4E1
:104E2000EDC58337910511F00C944B340E94715AF3
:104E30000C9462348637910509F4F4C587379105DF
:104E400011F00C944B340E9401900C94623481391F
:104E5000F1E09F0711F40C94BA3108F088C08D3C42
:104E6000910509F479C7D0F58B39910509F4B4C4DB
:104E7000E0F48D37910509F4D6C468F489379105BB
:104E800011F00C944B3410927708109276080E941F
:104E900054900C9462348C38910509F493C4813990
:104EA000910509F428C60C944B34893C910509F40A
:104EB000DDC650F48E3B910509F489C4883C910508
:104EC00009F48DC60C944B348B3C910509F4F1C662
:104ED0008C3C910509F40CC70C944B348C32A1E046
:104EE0009A0711F40C946D30F8F48D3D910511F48E
:104EF0000C94802F50F4833D910509F430C78C3D0C
:104F0000910509F4BCC70C944B348831E1E09E074D
:104F100011F40C94D62F8232914011F00C944B3442
:104F20000E94E4540C9462348F3221E0920711F411
:104F30000C94B73168F48D32A1E09A0711F40C9407
:104F400082308E32914011F40C9474310C944B34B5
:104F50008033E1E09E0711F40C94023180399140D6
:104F600011F00C944B340E9487A50C946234883F56
:104F700031E0930711F40C94BF3208F055C0853A24
:104F8000B1E09B0711F40C94D63118F58C39F1E09F
:104F90009F0711F40C94CB3168F4823931E0930708
:104FA00011F40C94C4318A39914011F40C94623498
:104FB0000C944B348D39B1E09B0711F40C943134CF
:104FC000843A914011F00C944B340E94B0CA0C9476
:104FD0006234853FF1E09F0711F40C94B93278F404
:104FE000863E31E0930711F40C944B32843F91409C
:104FF00011F00C944B340E94899E0C946234863FCD
:10500000B1E09B0711F40C94BC32873F914011F042
:105010000C944B3461E083E50E94B4CC91E0892785
:105020000F9496210C9462348335F3E09F0711F4BA
:105030000C94173418F58B3532E0930711F40C9467
:10504000DE3278F48C30B2E09B0711F40C94CF324E
:105050008835924011F00C944B340E9484EC0C94EF
:1050600062348D3BF2E09F0711F40C9455338E3B74
:10507000924011F40C9458330C944B34873E33E037
:10508000930711F40C941A34C8F48C36B3E09B07E0
:1050900011F40C946234803A934011F00C944B3428
:1050A00020910D0730910E079091501592609093CA
:1050B0005015C9010F9422340C946234883EF3E0F9
:1050C0009F0711F40C944834893E934011F00C94DE
:1050D0004B340E94405E0C94623480E50E9485CC83
:1050E000882329F00E9424EF6B017C0103C0C12CAE
:1050F000D12C760183E50E9485CC882361F00E9443
:1051000079CA20E030E04AE754E40F94FB680F943A
:10511000C1706B017C010E9487A580910D07909161
:105120000E07009721F061E00E944DB005C060E0DD
:1051300080E896E00E949EAF8091380690913906F3
:10514000892B19F068E776E002C060E776E020E09E
:1051500030E041E956E382E00F94AB0040E0C70144
:10516000B6010E94DF3F0E947AC70C94623480919E
:105170003B0684FF02C00C940D3780913D0687FFEB
:1051800002C00C940D3780913E06837011F00C9490
:105190000D370C944B378091501584FF25C08BEA56
:1051A00096E00F94CD4F8091501584FF17C085E78E
:1051B00095E10E9448968BE1E5E7F5E1DE01119665
:1051C00001900D928A95E1F760E070E0CE010196C2
:1051D0000F942638CE0101960E94E1FB8CE996E0FF
:1051E0000F94CD4F0C9462340F9496508CEB96E054
:1051F0000F94CD4F0C9462340F94F9360C946234B2
:105200008091501582FF04C087FD02C00C94623467
:105210000F943A330C946234E0910D07F0910E072D
:105220008081882329F0803209F410823196F8CFEA
:1052300060E080910D0790910E070F946E341092EC
:105240005F090C94623483E50E9485CC882321F0A9
:105250000E9446CA0E94CF5084E50E9485CC8823D4
:10526000A9F00E9446CA6B017C010E949790C092EF
:10527000E708D092E808E092E908F092EA08CD2821
:10528000CE28CF2819F081E08093C5098091B71707
:105290008823F9F080E090E0A0EAB1E489839A8362
:1052A000AB83BC831C8E1D8E1E8E1F8E18A219A26E
:1052B0001AA21BA200E010E020E0AE014F5F5F4F9A
:1052C000BE01645E7F4FCE0180960E94B5FD0C94B6
:1052D00062340E940439882381F00F94D4320E94F2
:1052E000273986E897E00F947C321092DB111092F8
:1052F000DC111092DD111092DE1161E081E79CE279
:105300000E9488FD49E35CE266EC76E085E00E945D
:105310000CF20E947AC70C9462348091501584FD7F
:1053200002C00C94623483E50E9485CC81110C94F8
:1053300059370C94623480913B0690913C06A091C1
:105340003D06B0913E0632E0B695A79597958795B4
:105350003A95D1F780FF2CC08CED96E00F94CD4F9D
:105360008091BC168823D9F0BE016F5F7F4F89EB17
:1053700096E10F94BC40CE0101960E942F5BCE01B6
:1053800001960F94F5338091EA13882361F080E24F
:105390000E9444398AEE93E10E942F5B04C082EDA3
:1053A00096E00F94CD4F8AE00E9444390C94623409
:1053B0008091501582FF1BC040914C1550914D15A6
:1053C00060914E1570914F158BEE96E00F945850EA
:1053D0008FE20E944439609148157091491580917F
:1053E0004A1590914B150F9427320C9462348DEF2F
:1053F00096E00F94CD4F0C946234809150158E7FBF
:10540000809350150C9462348091501584FD02C035
:105410000C9462340E94F1C780910D0790910E07A1
:105420000F94B4370C9462348091501582FF03C0FE
:1054300087FF0E9487A58091501584FD02C00C94BF
:10544000623460E080E50E94B4CC182F682F809110
:105450000D0790910E070F946E3483E50E9485CC62
:10546000882321F00E9446CA0E94CF500F94D43264
:1054700011110C9462340E9427390C9462340E94FA
:105480003D5B0C94623480E50E947FFA882311F41E
:105490000C9462340E9456CA90E08536910510F053
:1054A00084E690E080935F090C9462340E9427396F
:1054B0000C9462340E9439390C94623460E070E0DC
:1054C00083E50E94A7CC8E34910531F40E9405A398
:1054D0000E947AC70C94623489E797E00F94CD4F0D
:1054E000609166087091670880E797E00F946850B4
:1054F000609168087091690883E697E00F9468509E
:1055000060916608709167088091680890916908B9
:10551000681B790B8091C509815021E030E0823011
:1055200010F020E030E0621B730B88E597E00F94E9
:1055300068508AE00E94443980E597E00F94CD4F8F
:1055400080916A0890916B08A0916C08B0916D08E9
:105550008C8F9D8FAE8FBF8FBE016F5F7F4FCE014F
:105560004C960E94F04FBE016F5F7F4F83E497E03F
:105570000F948A5080916E0890916F08A0917008E6
:10558000B09171088C8F9D8FAE8FBF8FBE016F5F02
:105590007F4FCE014C960E94F04FBE016F5F7F4F50
:1055A00083E397E00F948A5020E030E04AE754E428
:1055B00060917208709173088091740890917508D9
:1055C0000F945470AB01BC018BE197E00F947150C4
:1055D0008DE60E9444398AE00E9444390C9462347A
:1055E00080E00E94284F0C9462340E94BAE8182F81
:1055F00087FF02C00C94673481E897E00F94CD4F89
:10560000812F0E94B3968AE00E9444390C9467343B
:1056100060E080E50F94520DF82E31E0381710F459
:105620000C94623480913B0680FF05C06091040AAF
:10563000062F10E002C00FEF10E089E40E9485CC35
:10564000882399F00E9456CA90E01816190614F49F
:1056500081E090E026E0289FF001299FF00D1124C1
:10566000E459F74E0481158108C083E50E9485CC7A
:10567000882319F00E9446CA8B01EF2DF0E0EC5F01
:10568000F54FB8010F3F110519F010F06FEF70E002
:1056900060830C94623460E080E50F94520D823098
:1056A00010F00C946234E82FF0E0EC5FF54F1082BC
:1056B0000C9462348EE40E9485CC882311F40C94FF
:1056C00062340E9446CAE0916F02A2E6EA9FF001AE
:1056D0001124EE52FD4FE081B7E6EB02F0011124F8
:1056E000E15CF94F60837183828393830C9462340D
:1056F00083E50E947FFA882331F060E083E50F9410
:10570000520D809319100F94965082E997E00F94F0
:10571000CD4F80911910882369F128E8E22E27E007
:10572000F22E00E010E020E08091191090E0A0E05F
:10573000B0E0002E04C0B695A795979587950A947A
:10574000D2F780FF0EC0DD24D394D20E222319F0AD
:105750008CE20E944439F701859194910F94CD4FCA
:105760002D2D0F5F1F4FE2E0EE0EF11C05301105ED
:10577000D9F619CE84E897E014CE83E50E9485CC53
:10578000882381F00E9456CA282F30E02D3331053E
:1057900024F4809300020C9462348CE38093000222
:1057A0000C9462340F9496501091000289E997E0AE
:1057B0000F94CD4F812F0F94CB4F8AE00E94443934
:1057C0000C94623480E00E94BC4E0C94623481E000
:1057D0000E94BC4E0C94623483E50E9485CC8823E1
:1057E00011F40C9462340E9456CA182F8D3308F0BD
:1057F0008CE3809352140F9426456B017C01212F7A
:1058000030E0A8EEB3E00F94206FC60ED71EE81E5E
:10581000F91EC0924E14D0924F14E0925014F092A0
:1058200051140C9462340E9496ED0C9462340E94E0
:10583000B29B0E94F4A60E9439390E943C3968EE5E
:1058400073E080E090E00F94A94F0E94413960E03E
:1058500080EA97E00E949EAF0C9462348091E90444
:105860008F7D80618093E9040C9462340E9465EE20
:105870000C94623483E50E947FFA882311F40C941F
:1058800062340F9426456093D0087093D1088093BA
:10589000D2089093D3080E9479CA20E030E04AE70A
:1058A00054E40F94FB680F94C1706093E404709308
:1058B000E5048093E6049093E7040C9462340E941C
:1058C000BAE887FF01C0FEC790913B0694FD04C073
:1058D00090913D0697FF0AC081E8C82E84E0D82E3B
:1058E0009AE1E92E90E1F92E10E009C090913E0670
:1058F000937091F7682F81E00E94E9EEE3C7D6012B
:105900008D916D010E9485CC882309F46DC0133000
:1059100009F063C00E9479CA4B015C0120E030E0CD
:1059200040EA51E40F94966887FF4EC0A5019401A8
:1059300060913A1070913B1080913C1090913D1015
:105940000F9454702B013C019B01AC016091E8095C
:105950007091E9098091EA099091EB090F94FB6835
:105960006093E8097093E9098093EA099093EB0941
:10597000A301920160914A1070914B1080914C10DC
:1059800090914D100F94FB6860934A1070934B10E8
:1059900080934C1090934D106091F8097091F90923
:1059A0008091FA099091FB090F949A68A3019201E2
:1059B0000F94FB680F94C1706093F8097093F90914
:1059C0008093FA099093FB0980923A1090923B10D1
:1059D000A0923C10B0923D1007C00E9479CAF70116
:1059E000648B758B868B978B1F5FF4E0EF0EF11C39
:1059F000143009F084CF0E94ACA464C70E94015CFB
:105A000061C780910D0790910E07009741F0DC016E
:105A10002C91222321F060E00E944DB053C70E94D8
:105A20007AC750C700910D0710910E0724E08FEF41
:105A3000F12C30E0215029F1F8019081492F4B7F62
:105A4000413421F441814133E1F408C09035C9F477
:105A5000918190539A30A8F4892F08C0913421F095
:105A6000953421F431E002C0FF24F394A8014E5F85
:105A70005F4F8A014F5F5F4FF80190819032C9F309
:105A8000D9CF40914015833090F4882391F02FEFC7
:105A9000280F283080F481E090E0A0E0B0E004C05E
:105AA000880F991FAA1FBB1F2A95D2F705C0842F04
:105AB00003C08FEF01C080E060E475E17A83698301
:105AC0004B838093401531110F949650FF2021F0A5
:105AD0008EEA97E00F94CD4FC8010E94885DCE01F9
