:100000000C94AE230C94DF230C94DF230C94DF2399
:100010000C94DF230C94DF230C94DF230C94DF2358
:100020000C94DF230C94DF230C94DF230C94DF2348
:100030000C94DF230C94DF230C94DF230C94DF2338
:100040000C94DF230C9444DD0C94DF230C94DF2309
:100050000C94DF230C94DF230D948D2F0D9460609E
:100060000C94DF230C94EC440C94D8440C94DF23C0
:100070000C94DF230C94DF230C94DF230C94DF23F8
:100080000C94CA430C94DF230C94DF230C94DF23DD
:100090000C94F8430C94E2440C94DF230C94DF237B
:1000A0000C94DF230C94DF230C949C430C94DF23EB
:1000B0000C94DF230C94DF230C94DF230C94DF23B8
:1000C0000C94DF230C94DF230C94DF230C94DF23A8
:1000D0000C94DF230C94DF230C94DF230C94DF2398
:1000E0000C94DF23D73BDC3BE13BEB3BF53B6E3C29
:1000F000FF3B073C0F3C193C233C2D3C3C3C463C21
:100100006E3C503C5A3C643C274439444B445C446C
:1001100064449344684493446C44704493447444EA
:1001200078447C44844493448E441B452D453F458C
:100130005045584587455C4587456045644587453A
:1001400068456C4570457845874582451E8F018F0F
:10015000048F218F078F0A8F0D8F198F108F2C8F8F
:10016000138F168F2A019C013401AE013401340132
:1001700034013401340134013401340134013401D7
:1001800034013401340134013401340134013401C7
:1001900034013401340134013401340134013401B7
:1001A000900134013401340134013401340134014B
:1001B0003401380134013401340134013401340193
:1001C0003401340134013401200128019601540125
:1001D000A2015C018201B0016C01B2018001B60193
:1001E0006601760174015E01B0018401B401680109
:1001F000084AD73B3BCE016E84BCBFFDC12F3D6C8E
:1002000074319ABD56833DDA3D00C77F11BED9E4F3
:10021000BB4C3E916BAAAABE000000803F05A84CD3
:10022000CDB2D44EB93836A9020C50B9918688089F
:100230003CA6AAAA2ABE000000803F000D94E53328
:100240000D94705D0D94E6450D94BF000D94A916B4
:100250000D94375D0D94275D0D94F5450D946972ED
:100260000D9460480D945F450D94655B0D94B14508
:100270000D943B5D0D94E2110D9414460D94C74707
:100280000D94CB470D944F290D942B4B0D94D05AC0
:100290000D94AD330D94284A0D944E330D9453298B
:1002A0000D9407000D94E1450D94D25E0D946933D1
:1002B0000D9499450D9450290D94C55E0D94F65EEC
:1002C0000D94C9450D944B720D94BE370D94E85EA4
:1002D0000D94045F0D940C480D94D65E0D9430126D
:1002E0000D9469480D94BE330D94F25E0D94EE5E4C
:1002F0000D9441330D9467350D94F0450D94B7334B
:100300000D94E05E0D94C95E0D94FC5E0D94CA5A86
:100310000D94D3160D94F1380D94EB450D94C3470D
:100320000D94615D0D94232A0D94C86A0D94CF5EDF
:100330000D94FC110D94BF470D94495B0D948145BC
:100340000D94EF330D94C15E0D9429360D94161261
:100350000D94EA330D94C4330D9476480D94665D84
:100360000D94095F0D94DA5E0D94005F0D94E45EC8
:100370000D94CD5A0D94C6284E414E494E495459BC
:10038000494E46CDCCCC3D0AD7233C17B7D1387760
:10039000CC2B329595E6241FB14F0A000020410076
:1003A00000C84200401C4620BCBE4CCA1B0E5AAEC0
:1003B000C59D7400407A10F35A00A0724E180900CF
:1003C00010A5D4E80000E87648170000E40B5402BA
:1003D0000000CA9A3B000000E1F5050000809698F5
:1003E00000000040420F000000A086010000001045
:1003F0002700000000E80300000000640000000087
:10040000000A00000000000100000000002C76D867
:1004100088DC674F0823DFC1DFAE59E1B1B796E54D
:10042000E3E453C63AE651997696E8E6C28426EBB1
:10043000898C9B62ED407C6FFCEFBC9C9F40F2BAC4
:10044000A56FA5F490055A2AF75C936B6CF9676D5C
:10045000C11BFCE0E40D47FEF520E6B500D0ED90B1
:100460002E0300943577050080841E080000204E7E
:100470000A000000C80C333333330F986E12831117
:1004800041EF8D2114893BE65516CFFEE6DB18D1EE
:10049000844B381BF77C1D901DA4BBE424203284C0
:1004A000725E228100C9F124ECA1E53D27434F4D46
:1004B0004D554E49434154494F4E004452595255AF
:1004C0004E004552524F525300494E464F0045434D
:1004D000484F0047322F47332062616420706172B9
:1004E000616D65746572730A0047322F473320626D
:1004F000616420706172616D65746572730A005386
:100500006C6565702E2E2E005A2050726F62652029
:1005100050617374204265640A005A2050726F6201
:1005200065205061737420426564004D313137207D
:1005300050726F6265206661696C65642E20526539
:10054000776970696E672E0A4732380A4731322060
:100550005030205331322054300070726F62655F2A
:100560007265776970650047323920526574727917
:10057000696E670050726F62696E67204661696CD0
:100580006564004D31313720426564206C657665C5
:100590006C696E67206661696C65642E0A4730205D
:1005A0005A31300A4D3330302050323520533838EC
:1005B000300A4D333030205035302053300A4D331F
:1005C00030302050323520533838300A4D333030F7
:1005D000205035302053300A4D33303020503235E2
:1005E00020533838300A4D333030205035302053C6
:1005F000300A47342053310070726F62655F666164
:10060000696C6564004D31313720426564206C654A
:1006100076656C696E6720646F6E652E00205A3AAD
:10062000200020593A200042656420583A20004DAD
:1006300065736820706F696E74206F7574206F66C3
:100640002072616E67650A004D302053746F700030
:100650004D312053746F7000436C69636B20746F6D
:1006600020526573756D652E2E2E00456E642066D2
:10067000696C65206C6973740A00426567696E2055
:1006800066696C65206C6973740A004E6F206D6535
:100690006469610A00526573756D696E6720534421
:1006A00000286E6F2066696C65290043757272655B
:1006B0006E742066696C653A20005344207072693C
:1006C0006E74696E67206279746520004E6F7420C5
:1006D0005344207072696E74696E670A00507269C3
:1006E0006E742074696D653A20006F6B006F6666EA
:1006F00000CE04C904C204BB04AD044445425547BE
:100700003A004D31313320530043522D31302056C1
:1007100033204F46462E002F2F004D3134352053C5
:100720003C696E6465783E206F7574206F66207238
:10073000616E67652028302D31290A00206C696DB3
:100740006974656420746F2000204D617820004634
:10075000656564726174650020580020204D6178E1
:100760003A2000200020204D696E3A2000203B20D6
:100770000020204D323131205300536F66742065C4
:100780006E6473746F70730046523A0020466C6F4B
:10079000773A2000206F7574206F662072616E6753
:1007A000650A00536572766F20003A200020536579
:1007B00072766F200064697300656E0043290A0039
:1007C00061626C656420286D696E2074656D7020AF
:1007D00000436F6C64206578747275646573206182
:1007E000726520004F4646004F4E00203B20486F68
:1007F00073742068616E646C696E6720006D6D00B3
:10080000203B2044697374616E6365200046696C07
:10081000616D656E742072756E6F757420004D3455
:10082000323120696E636F72726563742070617219
:10083000616D657465722075736167650A004D6549
:10084000736820706F696E74206F7574206F6620F6
:1008500072616E67650A00454550524F4D204F4BFF
:100860000A004D383400446F6E65207072696E74F2
:10087000696E672066696C650A004D3737004D3335
:1008800031004572726F722077726974696E6720E9
:10089000746F20454550524F4D210A0053544F501C
:1008A0005045442E20005072696E74657220737436
:1008B0006F707065642064756520746F2065727256
:1008C0006F72732E20466978207468652065727295
:1008D0006F7220616E6420757365204D393939203F
:1008E000746F20726573746172742E202854656D64
:1008F00070657261747572652069732072657365C5
:10090000742E2053657420697420616674657220AA
:1009100072657374617274696E67290A004E6F2084
:10092000436865636B73756D2077697468206C69C3
:100930006E65206E756D6265722C204C617374203B
:100940004C696E653A20004E6F20436865636B7397
:10095000756D2077697468206C696E65206E756DA1
:100960006265722C204C617374204C696E653A206C
:1009700000636865636B73756D206D69736D617479
:1009800063682C204C617374204C696E653A2000BA
:100990004C696E65204E756D626572206973206EBC
:1009A0006F74204C617374204C696E65204E756DB8
:1009B0006265722B312C204C617374204C696E651A
:1009C0003A20004D3131300053657269616C2073FB
:1009D0007461747573206D69736D617463680A0066
:1009E00053442072656164206572726F720A00213F
:1009F00021204B494C4C20636175736564206279FA
:100A0000204B494C4C20627574746F6E2F70696E68
:100A10000A002121204B494C4C20636175736564A9
:100A200020627920746F6F206D75636820696E6134
:100A300063746976652074696D65202D2063757215
:100A400072656E7420636F6D6D616E643A20006232
:100A50007573793A2070617573656420666F7220D2
:100A6000696E7075740A00627573793A20706175E9
:100A700073656420666F7220757365720A00627513
:100A800073793A2070726F63657373696E670A00D9
:100A90004D656469612052656D6F766564004D65D2
:100AA00064696120496E736572746564004D31300C
:100AB000303053007061757365004D363030002062
:100AC00066696C616D656E745F72756E6F757420AA
:100AD0000066696C616D656E745F72756E6F7574BA
:100AE00020540046696C616D656E7452756E6F7549
:100AF000742054007061757365640050617573658E
:100B000000726573756D656400526573756D696E0D
:100B100067004732362043616E63656C6564004749
:100B200032362048656174696E67204E6F7A7A6C40
:100B300065004732362048656174696E67204265FA
:100B4000640057616974696E6720666F722068651A
:100B5000617475702E0A004669786564204C656E74
:100B6000677468205072696D6500446F6E6520502F
:100B700072696D696E67004D616E75616C2070728F
:100B8000696D696E672E2E2E004C656176696E6701
:100B900020473236003F537065636966696564209B
:100BA000582C5920636F6F7264696E617465206F91
:100BB0007574206F6620626F756E64732E0A003F35
:100BC00028522965706561742076616C7565206EA8
:100BD0006F7420706C61757369626C653B206D7514
:100BE0007374206265206174206C656173742031B8
:100BF0002E0A003F537065636966696564206E6FF5
:100C00007A7A6C652074656D706572617475726551
:100C1000206E6F7420706C61757369626C652E0A4A
:100C2000003F5370656369666965642066696C613D
:100C30006D656E742073697A65206E6F7420706CB8
:100C400061757369626C652E0A003F537065636954
:100C500066696564207072696D65206C656E677485
:100C600068206E6F7420706C61757369626C652E9C
:100C70000A003F537065636966696564206E6F7A28
:100C80007A6C652073697A65206E6F7420706C6170
:100C9000757369626C652E0A003F526574726163F8
:100CA00074696F6E204D756C7469706C6965722023
:100CB0006D7573742062652073706563696669651C
:100CC000642E0A003F53706563696669656420524B
:100CD000657472616374696F6E204D756C746970B0
:100CE0006C696572206E6F7420706C6175736962D7
:100CF0006C652E0A003F5370656369666965642000
:100D00006C6179657220686569676874206E6F74BC
:100D100020706C61757369626C652E0A0043292E20
:100D20000A003F53706563696669656420626564A3
:100D30002074656D7065726174757265206E6F7474
:100D400020706C61757369626C65202834302D00E9
:100D5000473236207374617274696E672E2E2E0AC4
:100D6000002569730025696D202569730025696870
:100D70002025696D2025697300256964202569682F
:100D80002025696D2025697300256979202569640E
:100D9000202569682025696D2025697300536572D7
:100DA0007669636520333030680053657276696315
:100DB0006520353068000A53746174733A204669BF
:100DC0006C616D656E7420757365643A20002C202B
:100DD0004C6F6E67657374206A6F623A2000546FBF
:100DE00074616C2074696D653A200053746174738A
:100DF0003A20002C204661696C65643A20002C2062
:100E000046696E69736865643A20005072696E7451
:100E1000733A200053746174733A2000436F6F6C0F
:100E2000696E672E2E2E0048656174696E672E2EDE
:100E30002E0045312025530042656420436F6F6CBE
:100E4000696E672E2E2E00426564204865617469C4
:100E50006E672E2E2E0023646566696E65204445FC
:100E60004641554C545F00626564004B6420004B62
:100E70006920004B702000504944204175746F7404
:100E8000756E652066696E697368656421205075AA
:100E90007420746865206C617374204B702C204B37
:100EA0006920616E64204B6420636F6E7374616EA1
:100EB00074732066726F6D2062656C6F7720696E47
:100EC000746F20436F6E66696775726174696F6EC7
:100ED0002E680A00504944204175746F74756E6520
:100EE000206661696C6564212074696D656F757435
:100EF0000A00504944204175746F74756E65206610
:100F000061696C6564212054656D706572617475EA
:100F1000726520746F6F20686967680A00504944E1
:100F2000204379636C65730025532025692F25695B
:100F300000204B643A2000204B693A2000204B707F
:100F40003A200020436C6173736963205049442048
:100F50000A00204E6F206F76657273686F6F740A97
:100F6000002054753A2000204B753A2000206D6116
:100F7000783A2000206D696E3A200020643A200003
:100F800020626961733A2000255300504944204192
:100F900075746F74756E652073746172740A005095
:100FA0004944204175746F74756E65206661696C83
:100FB0006564212054656D70657261747572652079
:100FC000746F6F20686967680A0050494420417552
:100FD000746F74756E6500504944204175746F7468
:100FE000756E65206661696C6564212042616420CC
:100FF0006865617465722069640A004572723A20FE
:101000007574663820666F6E74206E6F7420696E1A
:10101000697469616C697A65642E004572723A2060
:101020007574663820666F6E74206E6F7420696EFA
:10103000697469616C697A65642E004572723A2040
:101040007574663820666F6E74206E6F7420696EDA
:10105000697469616C697A65642E00000C0F00FE8A
:1010600007022503BB017FFE08FE08FE05080806EF
:10107000000040F0C888889878100508080600002D
:10108000C0F88888888888F80505050600012030A2
:10109000F830200508080600002070F820202020E5
:1010A000E00509090600FF2070A8A8B8888870200C
:1010B000070505070001D86C366CD805090906003C
:1010C000FFF8A88888888888A8F8050A0A0600FE1C
:1010D000205050505088A8A88870030303060003CE
:1010E00040A040FFFFFFFFFFFFFFFFFFFFFFFFFFED
:1010F000FFFFFFFFFFFFFFFFFF0000000605FF01EE
:1011000007070602008080808080008003030306BA
:101110000105A0A0A005060606000050F85050F8F2
:10112000500509090600FF2070A8A07028A87020AB
:10113000050707060000C8C8102040989805070753
:1011400006000040A0A040A8906801030306020525
:101150008080800309090601FF2040408080804094
:1011600040200309090601FF804040202020404024
:101170008005070706000020A8702070A82005053C
:10118000050600012020F820200203030601FFC00D
:101190004080050101060003F8020202060100C0BA
:1011A000C005070706000008101020404080050712
:1011B00007060000708898A8C88870030707060112
:1011C0000040C040404040E005070706000070882E
:1011D00008102040F8050707060000F8081030083E
:1011E000887005070706000010305090F8101005B1
:1011F0000707060000F880F0080888700507070652
:101200000000304080F0888870050707060000F86D
:10121000081010202020050707060000708888703D
:1012200088887005070706000070888878081060B5
:10123000020505060100C0C000C0C0020606060186
:10124000FFC0C000C04080030505060101204080AA
:101250004020050303060002F800F8030505060117
:10126000018040204080050707060000708810209C
:101270002000200507070600007088B8A8B8807015
:10128000050707060000708888F888888805070722
:10129000060000F04848704848F0050707060000BF
:1012A00070888080808870050707060000F0484835
:1012B000484848F0050707060000F88080F0808065
:1012C000F8050707060000F88080F0808080050799
:1012D0000706000070888080988870050707060060
:1012E00000888888F8888888030707060100E0409E
:1012F00040404040E005070706000038101010107D
:1013000090600507070600008890A0C0A09088059F
:101310000707060000808080808080F805070706A8
:10132000000088D8A88888888805070706000088F4
:1013300088C8A898888805070706000070888888EC
:10134000888870050707060000F08888F080808094
:1013500005070706000070888888A89068050707B9
:10136000060000F08888F0A09088050707060000B6
:1013700070888070088870050707060000F8202034
:101380002020202005070706000088888888888894
:1013900070050707060000888888885050200507D8
:1013A0000706000088888888A8A850050707060057
:1013B0000088885020508888050707060000888824
:1013C0005020202020050707060000F808102040C4
:1013D00080F80309090601FFE0808080808080801A
:1013E000E0050707060000804040201010080309B0
:1013F000090601FFE020202020202020E005030333
:101400000600052050880501010600FEF8030303CD
:101410000601058040200505050600007008788853
:10142000780507070600008080F0888888F00505A9
:101430000506000070808088700507070600000818
:101440000878888888780505050600007088F0808F
:1014500070050707060000304840E040404005079F
:10146000070600FE70888888780870050707060060
:10147000008080F088888888030707060100400004
:10148000C0404040E00409090601FE100030101081
:101490001010906005070706000080808890E0909B
:1014A00088030707060100C04040404040E00505B2
:1014B00005060000D0A8A8A8A8050505060000B0EC
:1014C000C88888880505050600007088888870052A
:1014D00007070600FEF0888888F080800507070669
:1014E00000FE78888888780808050505060000B0A1
:1014F000C880808005050506000078807008F0052A
:1015000007070600002020F8202020180505050602
:101510000000888888986805050506000088888886
:1015200050200505050600008888A8A85005050577
:1015300006000088502050880507070600FE8888AE
:101540008850204080050505060000F8102040F86E
:101550000309090601FF204040408040404020012F
:1015600009090602FF8080808080808080800309D6
:10157000090601FF804040402040404080050303B1
:1015800006000248A890FF42656400456E636C6FD8
:1015900073757265002568753A25303268750025C7
:1015A000303268753A2530326875002020202020BE
:1015B00020200020202020001FE0201020102010DC
:1015C000102010202010201030300840048003002C
:1015D0001FE03FF03FF03FF01FE01FE03FF03FF023
:1015E0003FF00FC0078003003FFFF038007030FC71
:1015F0003020FC102078102030102C00D02E31D05C
:101600002F7BD02F7BD02E31D02C00D0203010203B
:10161000781020FC1030FC303800703FFFF03FFFA6
:10162000F03800703186302387102787902F87D0BD
:101630002F03D02030102078102078102030102F69
:1016400003D02F87D027879023871031863038002A
:10165000703FFFF01FFFF81FFFF804104002082042
:1016600002082004104008208010410010410008AA
:1016700020800410400000001FFFF81FFFF800004A
:1016800000001E000000002100000000271DC08C8B
:1016900000272121920041212092008E21CE92002C
:1016A00090212092011021209201201D21CC0220A6
:1016B000000000041001130008100114801008013C
:1016C0001080200400A30047F200A08043E2004401
:1016D00080200400430018D8000000198400000096
:1016E00021FC0000003F00504944204175746F7494
:1016F000756E65202A005049442D44202A00504927
:10170000442D49202A005049442D50202A00200809
:101710002046616374002008204D61780020082075
:101720004D696E004F6666004F6E004175746F74B0
:10173000656D70004D696E2054726176656C20563F
:10174000656C004D696E2056656C6F636974790035
:101750004D617820452056656C004D6178205A20F7
:1017600056656C004D617820592056656C004D61BE
:101770007820582056656C004D61782045204163E3
:1017800063656C004D6178205A20416363656C008D
:101790004D6178205920416363656C004D6178206C
:1017A0005820416363656C0054726176656C20411A
:1017B0006363656C00526574726163742041636396
:1017C000656C00416363656C004D61782045204A7B
:1017D00065726B004D6178205A204A65726B004D2E
:1017E00061782059204A65726B004D61782058203D
:1017F0004A65726B00486F6D696E67204661696C5F
:101800006564006F70656E00545249474745524504
:1018100044003A200066696C616D656E74007A5F01
:1018200070726F6265007A5F6D696E00795F6D69D5
:101830006E00785F6D696E005265706F7274696ECC
:101840006720656E6473746F702073746174757350
:101850000A0020746F6F206C6F6E67206578747259
:101860007573696F6E2070726576656E7465640A53
:101870000020636F6C6420657874727573696F6E95
:101880002070726576656E7465640A00486F6D65D8
:101890002025732573257320466972737400000038
:1018A000A0C00000A0C0000000005761726E696E09
:1018B000673A20486F6D696E672042756D702044ED
:1018C000697669736F72203C20310A0002020400BD
:1018D000809843008098430000C8430000A0400067
:1018E00000A04000000040FFFFFF000000010000DA
:1018F00000010000800055555500000040003333C2
:101900003300AAAA2A004992240000002000C771CF
:101910001C0099991900D1451700555515003BB188
:1019200013002449120011111100000010000F0FC4
:101930000F00E3380E0043790D00CCCC0C00C3300F
:101940000C00E8A20B0064210B00AAAA0A00703D5B
:101950000A009DD80900427B090092240900DCD3CB
:101960000800888808001042080000000800F0C144
:1019700007008787070075500700711C07003EEBC2
:101980000600A1BC06006990060066660600703E6F
:1019900006006118060017F4050074D105005BB05D
:1019A0000500B290050062720500555505007839B2
:1019B0000500B81E0500050505004EEC040087D49F
:1019C0000400A1BD040090A7040049920400C17D59
:1019D0000400EE690400C7560400444404005C326D
:1019E00004000821040041100400000004003FF03E
:1019F0000300F8E0030026D20300C3C30300CCB504
:101A000003003AA803000A9B0300388E0300C0813C
:101A100003009F750300D0690300505E03001D534F
:101A2000030034480300913D0300333303001629BB
:101A30000300381F030097150300300C0300030355
:101A400003000BFA020049F10200BAE802005CE070
:101A500002002DD802002DD0020059C80200B0C0EB
:101A6000020031B90200DAB10200AAAA0200A0A362
:101A70000200BC9C0200FA9502005C8F0200DF8825
:101A8000020082820200457C020027760200277055
:101A90000200436A02007C640200D05E02003F59EB
:101AA0000200C8530200554E4C4F41442046494C59
:101AB000414D454E54004C4F41442046494C414D08
:101AC000454E540046494C414D454E5420434841F3
:101AD0004E474500426564004E6F7A7A6C65004659
:101AE000616E20537065656400436F6E666967754B
:101AF000726174696F6E00526573746F7265204411
:101B0000656661756C7473004C6F61642053657415
:101B100074696E67730053746F72652053657474D3
:101B2000696E677300536F756E6400507265686507
:101B30006174202420436F6E6600506F77657220B9
:101B40004F7574616765004F6666004F6E00527591
:101B50006E6F75742053656E736F7200424C546FD4
:101B60007563680050726F6265205A204F66667315
:101B7000657400416476616E6365642053657474B6
:101B8000696E6773004D61696E004D3730322054C5
:101B90002564004D36303020423020542564004DFD
:101BA000373032203B2564004D37303120542564D6
:101BB000004D373032004D373031004D3630302057
:101BC0004230004D61696E00436F6E74696E7565D9
:101BD000004F6666004F6E0052756E6F757420532D
:101BE000656E736F72005075726765206D6F7265F8
:101BF00000524553554D45204F5054494F4E533A8E
:101C0000005052494E542050415553454400202025
:101C10004E6F7A7A6C653A20005061726B696E671C
:101C20002E2E2E0000005761697420666F720066C8
:101C3000696C616D656E74206368616E67650074C0
:101C40006F207374617274005761697420666F72DB
:101C50000066696C616D656E7420756E6C6F616491
:101C600000004E6F7A7A6C652068656174696E67F2
:101C700000506C6561736520776169742E2E2E00AB
:101C800000507265737320627574746F6E00746FA8
:101C90002068656174206E6F7A7A6C650000496E09
:101CA000736572742066696C616D656E7400616E37
:101CB0006420707265737320627574746F6E007443
:101CC0006F20636F6E74696E75650057616974206B
:101CD000666F720066696C616D656E74206C6F6111
:101CE000640000507265737320427574746F6E00E7
:101CF000746F20726573756D65207072696E740003
:101D0000005761697420666F72207072696E74008A
:101D1000746F20726573756D652E2E2E00005761ED
:101D2000697420666F720066696C616D656E7420FF
:101D3000707572676500003E2000536572766963B6
:101D400065203330306820003E200053657276698C
:101D5000636520353068200020696E3A003E20001F
:101D6000256C642E25696D00457874727564656410
:101D700020546F74616C003E20004C6F6E67657379
:101D800074204A6F622054696D65003E2000546FD4
:101D900074616C205072696E742054696D650043E3
:101DA0006F6D706C65746564003A20005072696EE6
:101DB0007420436F756E74003A20004261636B2D8E
:101DC0004C656674004261636B2D526967687400EC
:101DD00046726F6E742D52696768740046726F6E3A
:101DE000742D4C65667400507265686561742024BA
:101DF00020456E640050726568656174202420423D
:101E000065640054656D7065726174757265004338
:101E10006F6F6C646F776E005072656865617420D7
:101E2000240046616E20537065656400426564005D
:101E30004E6F7A7A6C65004D61696E004D65617315
:101E4000757265004C6173742076616C7565200055
:101E5000426564205472616D6D696E6700446F6EF7
:101E60006500DC1DD01DC51DBB1D53656C6563740D
:101E7000204F726967696E00486F6D696E67205800
:101E8000595A004732380050726F6265205A204F0D
:101E9000666673657400466C6F770046616E20530A
:101EA0007065656400426564004E6F7A7A6C650007
:101EB0005370656564004D61696E00446966663AF9
:101EC0002020200046726F6D5374703A0053746581
:101ED000707065723A00556E4C6576656C3A004CD0
:101EE0006576656C65643A005261773A202020205F
:101EF000000A4C6F676963616C3A00436F756E74DA
:101F000020453A004361703A004D454154504143E9
:101F10004B00434F4F4C45525F54454D5045524145
:101F200054555245004348414D4245525F54454D3A
:101F3000504552415455524500424142595354452F
:101F40005050494E470041524353004D4F54494F62
:101F50004E5F4D4F44455300544845524D414C5FF0
:101F600050524F54454354494F4E004C4F4E475FDB
:101F700046494C454E414D45004155544F52455000
:101F80004F52545F53445F5354415455530053448C
:101F90005F575249544500524550454154005344FF
:101FA000434152440050524F4D50545F535550508E
:101FB0004F525400484F53545F414354494F4E5F72
:101FC000434F4D4D414E445300454D455247454EBC
:101FD00043595F50415253455200434153455F4C72
:101FE000494748545F4252494748544E455353006D
:101FF000544F47474C455F4C494748545300534F53
:102000004654574152455F504F574552004255493B
:102010004C445F50455243454E54004C4556454C48
:10202000494E475F44415441005A5F50524F424528
:102030000052554E4F5554004155544F4C4556454E
:102040004C005052494E545F4A4F420050524F4745
:1020500052455353004155544F5245504F52545FCF
:1020600054454D50004155544F5245504F52545FC6
:10207000504F5300564F4C554D455452494300451F
:102080004550524F4D0042494E4152595F46494CCE
:10209000455F5452414E53464552005345524941C3
:1020A0004C5F584F4E5F584F4646004649524D5779
:1020B0004152455F4E414D453A4D61726C696E200B
:1020C000322E302E392E322D46695A692D424C2D32
:1020D00031313532303020284F6374203136203290
:1020E0003032312031333A34303A33352920534FAE
:1020F000555243455F434F44455F55524C3A6769DB
:10210000746875622E636F6D2F4D61726C696E46D7
:1021100069726D776172652F4D61726C696E2050C6
:10212000524F544F434F4C5F56455253494F4E3ACE
:10213000312E30204D414348494E455F545950455A
:102140003A43522D3130205633204558545255448D
:1021500045525F434F554E543A3120555549443A04
:1021600063656465326132662D343161322D3437F6
:1021700034382D396231322D63353563363266336A
:10218000363766660A0050726F6265204F66667366
:102190006574205A0050726F6265204F66667365E1
:1021A00074205A00290A0020746F20003F5A206FC3
:1021B0007574206F662072616E6765202800290A99
:1021C0000020746F20003F59206F7574206F6620C7
:1021D00072616E676520282D00290A0020746F2027
:1021E000003F58206F7574206F662072616E6765BE
:1021F00020282D00203B0020590020204D3835316B
:102200002058005A2D50726F6265204F66667365C4
:1022100074006F6B0A00526573656E643A20004368
:10222000616E6E6F74206F70656E20737562646985
:1022300072200020440020490020204D33303420FB
:102240005000426564205049440020450020204D44
:102250003932205800537465707320706572207590
:102260006E697400616C736F20656E61626C656489
:10227000290A004E6F204D6F76652E002E0A002031
:102280006E6F742064697361626C65642E2053689C
:1022900061726564207769746800203B00205500F6
:1022A00020204D363033204C0046696C616D656EE0
:1022B00074206C6F61642F756E6C6F6164004D32B9
:1022C0003453256C6454256C64004739322E3945EB
:1022D00025730047314625640047315A2573463639
:1022E000303000473158257359257346333030302C
:1022F000004D313036502569532569004D31303954
:10230000532569004D323030442573004739322E51
:10231000395A2573004D3432305325635A257300E2
:10232000473238523058590047315A2573463630B3
:1023300030004739322E395A2573004739322E3949
:102340004530004D313039532569004D3139305316
:102350002569004D343230205330205A3000203B64
:10236000200020204D343133205300506F776572A8
:102370002D6C6F7373207265636F76657279003BA5
:10238000200020286D6D290020496E76616C6964FB
:10239000206578747275646572200050726F626592
:1023A000205A204F66667365740050726F62652014
:1023B00059204F66667365740050726F62652058CD
:1023C000204F666673657400452073746570732FC3
:1023D0006D6D005A2053746570732F6D6D00592018
:1023E00053746570732F6D6D00582053746570734E
:1023F0002F6D6D00416476616E6365642053657472
:1024000074696E6773003F0043616E63656C0049D9
:102410006E697400496E697469616C697A652045FA
:102420004550524F4D0046696C616D656E740054A5
:10243000656D706572617475726500537465707353
:102440002F6D6D0050726F6265204F666673657404
:1024500073004A65726B00416363656C65726174F9
:10246000696F6E0056656C6F6369747900436F6EB7
:1024700066696775726174696F6E004C6173742070
:102480005A3A2000476F6F6420506F696E74733A38
:10249000200050726F62696E6720506F696E740021
:1024A00041646A7573742062656420756E74696C2A
:1024B000207468652070726F626520747269676746
:1024C0006572732E00536B697000446F6E65004730
:1024D00032394E003F00436F726E65727320776928
:1024E0007468696E20746F6C6572616E63652E200E
:1024F000426564207472616D6D65642E004E4F00FC
:102500005945530043616E6E6F74206F70656E2085
:102510007375626469722000534420496E697420A7
:102520004661696C0053442063617264206F6B0ADA
:10253000006F70656E526F6F74206661696C6564C0
:102540000A00766F6C756D652E696E697420666120
:10255000696C65640A004E6F2053442063617264A5
:102560000A000A4D3234004D3233202573002E0A02
:10257000006F70656E206661696C65642C20466929
:102580006C653A200046696C652073656C65637400
:1025900065640A002053697A653A200046696C65D3
:1025A000206F70656E65643A2000454E4420535597
:1025B00042524F5554494E450A002220706F730015
:1025C0002220706172656E743A2200535542524F58
:1025D0005554494E452043414C4C20746172676507
:1025E000743A220053756263616C6C204F76657299
:1025F000666C6F77004578636565646564206D611E
:102600007820535542524F5554494E4520646570C9
:1026100074683A002E0A0044656C6574696F6E2018
:102620006661696C65642C2046696C653A200046D9
:10263000696C652064656C657465643A002F61752A
:10264000746F25632E670057726974696E67207412
:102650006F2066696C653A20006672657368006475
:102660006F696E67002066696C653A20004E6F776F
:1026700020003132300035004245443A2045504375
:102680004F53203130304B0052756E6177617920A5
:1026900057617463683A204F4E004D61782054654D
:1026A0006D7000323735004D696E2054656D7000D5
:1026B000350045313A204550434F53203130304B9F
:1026C000005053550047656E657269630050726F24
:1026D000746F636F6C00312E30004261756400319D
:1026E000313532303000437265616C69747933443E
:1026F0002052414D50530042696C696E65617220F1
:102700004C6576656C696E670045787472756465B2
:1027100072730031006D61726C696E66772E6F7234
:10272000670043522D313020563300323032312D84
:1027300031302D313600322E302E392E322D466971
:102740005A692D424C2D313135323030004D617295
:102750006C696E005072696E746572205374617496
:102760007300546865726D6973746F727300426FA1
:1027700061726420496E666F005072696E74657292
:1027800020496E666F004D61696E004D313030300A
:102790000053746F70205072696E740052657375C7
:1027A0006D65205072696E7400506F776572204FAE
:1027B0007574616765004732370A4D3131372055EE
:1027C0007365722053637269707420446F6E650084
:1027D0005061726B204E6F7A7A6C65004D61696E44
:1027E000003F004261636B0053746F70003F005301
:1027F00065727669636520353068003F0053657205
:102800007669636520333030680052657365740003
:1028100043616E63656C005265736574004E6F2092
:102820004D65646961005072696E742066726F6DE7
:10283000204D65646961004368616E6765204D6580
:10284000646961004D3231005365727669636520B9
:102850003530680041626F7574205072696E74651E
:1028600072004368616E67652046696C616D656ED4
:102870007400437573746F6D20436F6D6D616E648A
:102880007300436F6E66696775726174696F6E007D
:1028900054656D7065726174757265004D6F746911
:1028A0006F6E00526573756D65205072696E7400AD
:1028B0005365727669636520333030680043616E1A
:1028C00063656C204F626A6563740054756E6500C1
:1028D00053746F70205072696E7400506175736527
:1028E000205072696E7400496E666F205363726582
:1028F000656E007C3C3E5E2B3D3F2F5B5D3B2C2A92
:10290000225C0024F4D43050C38E20C2A24017822F
:102910008B7011127A910D816CD90AA861E108C7F8
:10292000586607615143061E4B5D05C145A7041A51
:10293000411104093D9803713931034036DB0265CA
:10294000339102D4305402802E1D02632CEE0175A7
:102950002AC501B028A001102781018F2564012B11
:10296000244B01E0223401AC211F018D200D018098
:102970001FFC00841EED00971DDF00B81CD200E68E
:102980001BC600201BBC00641AB200B219A8000AC2
:1029900019A0006A189900D117910040178B00B553
:1029A00016840031167E00B31579003A157300C7FE
:1029B000146F0058146A00EE136600881363002534
:1029C000135E00C7125B006C12570015125400C151
:1029D00011510070114F0021114B00D61049008D8C
:1029E0001047004610440002104200C00F40008013
:1029F0000F3E00420F3C00060F3B00CB0E38009309
:102A00000E37005C0E3500270E3400F30D3200C186
:102A10000D3100900D3000600D2E00320D2D00059F
:102A20000D2C00D90C2B00AE0C2900850C29005C64
:102A30000C2700350C27000E0C2600E80B2400C4E0
:102A40000B2400A00B23007D0B23005A0B2100391F
:102A50000B2100180B2000F80A1F00D90A1E00BB2A
:102A60000A1E009D0A1D00800A1D00630A1C004703
:102A70000A1B002C0A1B00110A1A00F7091A00DDB4
:102A8000091900C4091900AB091900920917007B44
:102A9000091800630917004C0916003609160020B2
:102AA0000916000A091500F5081500E0081400CC05
:102AB000081400B8081400A4081400900813007D3E
:102AC0000812006B08130058081200460812003460
:102AD000081100230811001208110001081100F06C
:102AE000071000E0071000D0071000C0071000B06A
:102AF000070F00A107100091070E0083070F007455
:102B0000070F0065070E0057070E0049070E003B30
:102B1000070D002E070E0020070D0013070D0006FD
:102B2000070D00F9060C00ED060D00E0060C00D4C0
:102B3000060C00C8060C00BC060C00B0060C00A475
:102B4000060B0099060C008D060B0082060B007721
:102B5000060B006C060B0061060A0057060B004CC2
:102B6000060A0042060A0038060A002E060A002459
:102B7000060A001A060A001006090007060A00FDE8
:102B8000050900F4050900EB050900E2050900D973
:102B9000050900D0050900C7050900BE050900B5F3
:102BA000050800AD050800A50509009C050800946E
:102BB0000508008C050800840508007C05080074E1
:102BC0000508006C050700650508005D050700564F
:102BD0000508004E050700470507004005080038B6
:102BE000050700310507002A050700230507001C1B
:102BF000050600160507000F050700080506000278
:102C0000050700FB040600F5040700EE040600E8D3
:102C1000040600E2040700DB040600D5040600CF2A
:102C2000040600C9040600C3040600BD040600B77C
:102C3000040600B1040500AC040600A6040600A0CA
:102C40000405009B04060095040500900406008A14
:102C500004050085040500800406007A040500755B
:102C6000040500700405006B04050066040500619E
:102C70000405005C04050057040500520405004DDE
:102C800004050048040500430405003E0404003A1E
:102C900004050035040500300404002C0405002759
:102CA000040400230405001E0404001A0404001692
:102CB000040500110404000D0404000904050004C7
:102CC00004040000040400FC030400F8030400F4FE
:102CD000030400F0030400EC030400E8030400E430
:102CE000030400E0030400DC030400D8030400D460
:102CF000030400D0030400CC030400C8030300C590
:102D000003030024F404D9201BC40C5C0E9804C4F3
:102D1000095F0265077101F405F900FB04B300487F
:102D2000048700C10369005803550003034500BE32
:102D3000023A008402310053022A002902250004CD
:102D4000022000E4011C00C8011900AF011700981F
:102D50000114008401130071011000610110005181
:102D6000010E0043010D0036010B002B010B00206A
:102D7000010B00150109000C01090003010800FB0B
:102D8000000800F3000800EB000700E4000600DE86
:102D9000000600D8000600D2000600CC000500C7DF
:102DA000000500C2000500BD000400B9000400B524
:102DB000000400B1000400AD000400A9000400A557
:102DC000000300A20003009F0004009B0003009882
:102DD0000003009500020093000300900003008DA3
:102DE0000002008B000300880002008600020084BD
:102DF000000300810002007F0002007D0002007BD2
:102E000000020079000200770001007600020074E1
:102E100000020072000100710002006F0002006DEC
:102E20000001006C0002006A0001006900020067F6
:102E300000010066000100650001006400020062FC
:102E400000010061000100600001005F0002005D00
:102E50000001005C0001005B0001005A0001005904
:102E60000001005800010057000100560001005504
:102E70000001005400010053000000530001005203
:102E800000010051000100500001004F0001004E00
:102E90000000004E0001004D0001004C0001004BFD
:102EA0000000004B0001004A0001004900010048F9
:102EB00000000048000100470001004600000046F5
:102EC00000010045000000450001004400010043EE
:102ED00000000043000100420000004200010041E8
:102EE00000000041000100400001003F0000003FE1
:102EF0000001003E0000003E0001003D0000003DDA
:102F00000001003C0000003C0000003C0001003BD0
:102F10000000003B0001003A0000003A00010039C7
:102F200000000039000100380000003800000038BF
:102F300000010037000000370001003600000036B5
:102F400000000036000100350000003500000035AB
:102F500000010034000000340000003400010033A0
:102F60000000003300000033000100320000003296
:102F7000000000320001003100000031000000318B
:102F80000001003000000030000000300001002F80
:102F90000000002F0000002F0000002F0001002E75
:102FA0000000002E0000002E0001002D0000002D6A
:102FB0000000002D0000002D0001002C0000002C5E
:102FC0000000002C0000002C0001002B0000002B52
:102FD0000000002B0000002B0001002A0000002A46
:102FE0000000002A0000002A00010029000000293A
:102FF000000000290000002900000029000100282D
:103000000000002800000028000000280000002820
:103010000001002700000027000000270000002713
:103020000000002700010026000000260000002606
:1030300000000026000000260001002500000025F9
:1030400000000025000000250000002500000025EC
:1030500000010024000000240000002400000024DF
:1030600000000024000100230000002300000023D2
:1030700000000023000000230000002300000023C4
:1030800000010022000000220000002200000022B7
:1030900000000022000000220001002100000021A9
:1030A000000000210000002100000021000000219C
:1030B000000000210001002000000020000000208E
:1030C0000000002000000020000000200000002080
:1030D000000000200001001F0000001F0000001F72
:1030E0000000001F0000001F0000001F0000001F64
:1030F0000001001E0000001E0000001E0000001E57
:10310000000000393000003325000087190000B0AE
:103110000F0000DB080000BD040000740200003F47
:1031200001000073686F7700627574746F6E0062DF
:103130006567696E0044697361626C6552756E6F94
:1031400075740050757267654D6F726500506175DA
:1031500073656400436F6E74696E7565004C6F61D2
:10316000642046696C616D656E74205400496E730D
:103170006572742066696C616D656E7420616E6441
:103180002073656E64204D3130380A00220A0055E4
:103190006E6B6E6F776E20636F6D6D616E643A203B
:1031A00022002042002050006F6B0020453A002092
:1031B0005A3A0020593A00583A0020746F6F206C38
:1031C0006F6E6720657874727573696F6E207072A8
:1031D0006576656E7465640A0020636F6C642065B3
:1031E0007874727573696F6E2070726576656E742F
:1031F00065640A006E6F74696669636174696F6EF5
:10320000200043522D3130205633205265616479BD
:103210002E003E2053657276696365203330306836
:1032200021003E2053657276696365203530682140
:10323000005072696E74696E672E2E2E006E6F7468
:10324000696669636174696F6E200063616E6365AE
:103250006C005072696E742041626F727465640014
:103260004469736D6973730055492041626F7274CC
:103270006564004D323520500A4D32340050726979
:103280006E742050617573656400526573756D6569
:103290000055492050617573650050617573696E02
:1032A000672E2E2E00726573756D65004D323400E9
:1032B000454550524F4D2056657273696F6E2045DB
:1032C00072726F7200454550524F4D20496E6465D1
:1032D00078204572726F7200454550524F4D204321
:1032E0005243204572726F72003F0049676E6F72E1
:1032F0006500526573657400496E697469616C6933
:103300007A6520454550524F4D0000FE0003FF8076
:1033100007C7C00701E00000E00000F000007004F3
:1033200000700E00701F00703F80F00E00E00F0173
:10333000E007C7C003FF8000FE0000FE0003FF801F
:1033400007C7C00F01E00E00E03F80F01F00700EC5
:1033500000700400700000700000F00000E0070141
:10336000E007C7C003FF8000FE000E000E000E0045
:103370000E000E000E000E000E007FC03F801F00EA
:103380000E00040004000E001F003F807FC00E00EE
:103390000E000E000E000E000E000E000E00FFFFCD
:1033A000FF7F80FFC0FFC0FFC07F807F80FFC0FF26
:1033B000C0FFC03F001E000C0050726F6265205AB3
:1033C000204F66667365740052756E6F7574204485
:1033D000697374206D6D004C6F6164206D6D0055D4
:1033E0006E6C6F6164206D6D0046696C2E204469BF
:1033F000612E004520696E206D6D5E33004D3330C7
:1034000033205531204525692053256900FFFDFCF7
:10341000FAF8F6F4F2F0EEECEAE9E7E5E3E1E0DEF3
:10342000DCDAD9D7D5D4D2D0CFCDCBCAC8C7C5C3A3
:10343000C2C0BFBDBCBAB9B7B6B4B3B2B0AFADAC21
:10344000AAA9A8A6A5A4A2A1A09E9D9C9A99989776
:1034500095949392908F8E8D8B8A898887868483AA
:103460008281807F7E7D7B7A7978777675747372BE
:1034700071706F6E6D6C6B6A6968676665646362B4
:1034800061605F5E5D5C5B5A59585857565554539E
:10349000525150504F4E4D4C4B4A4A494847464670
:1034A000454443424241403F3E3E3D3C3B3B3A392E
:1034B000383837363535343332323130302F2E2EDE
:1034C0002D2C2B2B2A292928272726252524232381
:1034D00022212120201F1E1E1D1C1C1B1B1A191916
:1034E0001818171616151514131312121111100FA0
:1034F0000F0E0E0D0D0C0C0B0A0A09090808070720
:10350000060605050404030302020100003D3D3DDB
:103510003D3D3D3D3D3D3D3D3D3D3D3D3D3D3D3DDB
:103520003D3D3D3D3D3D3D3D3D3D3D3D3D3D3D3DCB
:103530003D3D3D3D3D3D3D3D3D3D0A00210A0020D4
:1035400053657276696365203330306800205365B7
:103550007276696365203530680020696E200053FB
:10356000746174733A200000009643000096430093
:1035700000C8430000A0C00000A0C000000000532D
:10358000657474696E67732053746F726564002983
:103590000A002062797465733B20637263200053D4
:1035A000657474696E67732053746F726564202844
:1035B00000506C65617365205265736574005052EC
:1035C000494E5445522048414C5445440025533AF5
:1035D00020255300706F7765726F6666004B494C0B
:1035E0004C45442E20005072696E746572206861EB
:1035F0006C7465642E206B696C6C28292063616C87
:103600006C6564210A0053544F505045442E2000ED
:103610005072696E7465722073746F707065642087
:1036200064756520746F206572726F72732E204608
:10363000697820746865206572726F7220616E64AB
:1036400020757365204D39393920746F2072657388
:10365000746172742E202854656D70657261747582
:1036600072652069732072657365742E20536574CA
:10367000206974206166746572207265737461726A
:1036800074696E67290A006563686F3A0045727253
:103690006F723A0042696C696E656172204C6576A2
:1036A000656C696E6720477269643A0A00212120BF
:1036B00053544F502063616C6C6564206265636194
:1036C000757365206F6620424C546F756368206582
:1036D00072726F72202D207265737461727420771C
:1036E000697468204D3939390A0021212053544F1B
:1036F000502063616C6C65642062656361757365FD
:10370000206F6620424C546F756368206572726F3B
:1037100072202D20726573746172742077697468E9
:10372000204D3939390A002F2F616374696F6E3A61
:103730000070726F6D70745F00656E6400486F7426
:10374000656E6420746F6F20636F6C640A0053654C
:103750006E64204D31303820746F20726573756D42
:10376000650A00496E736572742066696C616D65E7
:103770006E7420616E642073656E64204D31303844
:103780000A0052656865617420446F6E6500526579
:1037900068656174696E672E2E2E005265686561DA
:1037A00074004865617465722054696D656F757445
:1037B0000053656E64204D31303820746F20686589
:1037C0006174206E6F7A7A6C650A004E6F7A7A6C3B
:1037D00065205061726B656400000000000000000D
:1037E000600000000000FC00000FF0000000000777
:1037F000E00000000001861FC018700000000000FB
:10380000603C0C000001830C6010300000000000E0
:10381000603C0C000001830C3030300000000000E0
:1038200060000C000000030C1830000000000000D5
:1038300060003F0F3C00030C0C6001DF0FE0FE0056
:10384000601C1C061800060C0C6000F31831830085
:10385000600C0C0318001E0C0C6000E03039830073
:10386000600C0C033000030C0C6000C030380F00FB
:10387000600C0C033000018C0C6000C03FF8FB00B2
:10388000600C0C033000018C0C6030C030018300F0
:10389000600C0C01F001818C0C6030C030018300A1
:1038A000600C0C00E001818C183030C018318300AE
:1038B000600C0C40E001838C301860C00C6187C044
:1038C000E01C0CC06000C30C600FC3F007C0FFC752
:1038D000FC7F0781C0007E1FC000000000000000C8
:1038E00000000007000000000000000000000000D1
:1038F0000000000700000000006D61726C696E66D8
:10390000772E6F726700322E302E392E322D466997
:103910005A692D424C2D313135323030001FFFFFB6
:10392000FFFFFFFF600000000001FF4000000000FB
:1039300000FF8000000000007F83CF00000C303FBC
:1039400087FF80000C301F867980000C000F8C30C0
:10395000C7838C30E78C30CFC7CC31F38C30DCECB4
:10396000EC33B98C30D86C6C33198C30D06C0C3390
:10397000198C30D86C0C33198C30DC6C0E3B198CE4
:1039800030CF7C079F198C30C77C038F1940000013
:1039900000000002600000000000061FFFFFFFFFA4
:1039A000FFF870012C0190012701B0012201C00134
:1039B0001D01F00118011002130130020E01600216
:1039C000090190020401C002FF000003FA00400355
:1039D000F5008003F000D003EB002004E600700443
:1039E000E100E004DC004005D700C005D20040063D
:1039F000CD00D006C8008007C3003008BE00F00824
:103A0000B900C009B400B00AAF00B00BAA00D00CD6
:103A1000A500000EA000500F9B00C0109600501291
:103A2000910000148C00C0158700B0178200B019F7
:103A30007D00D01B7800001E730040206E00902295
:103A40006900F024640040275F0090295A00E02BB1
:103A50005500102E500020304B0010324600E0334D
:103A6000410090353C001037370070383200A039E3
:103A70002D00B03A2800A03B2300603C1E00103D02
:103A80001900903D1400103E0F00703E0A00C03E29
:103A90000500003F0000403FFBFF803FF6FFC03FB6
:103AA000F1FF2020506C616E6E657242756666652E
:103AB0007242797465733A20002046726565204D24
:103AC000656D6F72793A200020436F6D70696C6587
:103AD000643A204F637420313620323032310A008C
:103AE000204C61737420557064617465643A2032AF
:103AF0003032312D31302D3136207C2041757468C3
:103B00006F723A2046695A69206261736564206F5A
:103B10006E204161726F6E204A7573742C2043527F
:103B200031302D56330A004D61726C696E20322E91
:103B3000302E392E322D46695A692D424C2D3131A5
:103B4000353230300A0020536F6674776172652019
:103B500052657365740A00205761746368646F6707
:103B60002052657365740A002042726F776E206F71
:103B700075742052657365740A0020457874657207
:103B80006E616C2052657365740A00506F776572C0
:103B900055700A0073746172740A004732385859BC
:103BA000004D31303031006572726F72207772696A
:103BB00074696E6720746F2066696C650A00446FD3
:103BC0006E6520736176696E672066696C652E0A82
:103BD000004D323900456E6473746F707300255365
:103BE0002025632025632025632025630020503A8B
:103BF00000205A3A0020593A0020583A00656E6475
:103C000073746F7073206869743A2000504554478C
:103C100000504C4100113C0C3C4368616E676520CC
:103C200046696C616D656E7400556E6C6F616420E1
:103C300046696C616D656E74004C6F616420466905
:103C40006C616D656E7400507265686561742043C7
:103C50007573746F6D00507265686561742024001F
:103C60004261636B005072696E742066726F6D20E2
:103C70004D656469610050726F62696E67204661CC
:103C8000696C656400205A3A200020593A200042AD
:103C9000656420583A200000002200250028002BEF
:103CA000002E003100340002010000050108010B64
:103CB0000100002100240027002A002D00300033DD
:103CC0000001010000040107010A010505050507BF
:103CD0000508080808020202020A0A080804040487
:103CE00004010101010101010103030303030303B3
:103CF00003040707070C0C0C0C0C0C0C0C02020242
:103D00000206060606060606060B0B0B0B0B0B0B34
:103D10000B010210202008081020401020408002D3
:103D20000102010804020101020408102040808001
:103D30004020100804020180040201804020100885
:103D4000040201080402010102040810204080015D
:103D500002040810204080202D20496E76616C6995
:103D600064206578747275646572206E756D626525
:103D70007220210A004572723A204D415854454D37
:103D800050004D415854454D502074726967676525
:103D9000726564004572723A204D494E54454D504B
:103DA000004D494E54454D502074726967676572E5
:103DB000656400544845524D414C2052554E415780
:103DC000415900546865726D616C2052756E61775F
:103DD000617900202F002042403A0020403A002024
:103DE000573A0020573A00496E76616C6964206545
:103DF000787472756465720A005A2056616C756534
:103E000000496E646578205900496E6465782058D1
:103E10000053746F72652053657474696E67730024
:103E20004C6F61642053657474696E6773004265FA
:103E300064205472616D6D696E670050726F6265C7
:103E4000205A204F66667365740046616465204899
:103E50006569676874004F6666004F6E004265646E
:103E6000204C6576656C696E670045646974204D09
:103E7000657368004C6576656C2042656400473266
:103E8000394E00473239004175746F20486F6D65B7
:103E9000004D6F74696F6E003F0043616E63656C27
:103EA000204F626A656374004E4F005945530043CA
:103EB000616E63656C204F626A656374203D004DDE
:103EC00061696E0053746F77004465706C6F7900A0
:103ED00053572D4D6F64650053656C662D546573A3
:103EE00074005265736574004733352061626F72E8
:103EF0007465642E0A00206D696E75746573002008
:103F0000616E642000207475726E730020627920E7
:103F10000020005475726E200020280047333520A1
:103F20006661696C656420617420706F696E7420CD
:103F3000004732385A003F2853296372657720744E
:103F40006872656164206D7573742062652033301A
:103F50002C2033312C2034302C2034312C2035309F
:103F60002C206F722035312E0A004F46460A00463B
:103F70006164652048656967687420004265642053
:103F80004C6576656C696E6720004661696C656496
:103F900020746F20656E61626C6520426564204C00
:103FA0006576656C696E670A00496E76616C696456
:103FB000206D6573682E0A0050726F62696E67200B
:103FC000506F696E740025532025692F2569002ED6
:103FD0000A002F0050726F62696E67206D6573680A
:103FE00020706F696E742000202844525952554E3B
:103FF0002900473239204175746F20426564204C96
:104000006576656C696E67003F20284C2C522C4603
:104010002C4229206F7574206F6620626F756E6464
:10402000732E0A003F2856296572626F7365206CF3
:104030006576656C20696D706C61757369626C651D
:104040002028302D34292E0A00426164205A20761F
:10405000616C75650A004E6F2062696C696E6561FE
:104060007220677269640A003F00537461727420A1
:104070005072696E740043616E63656C00507269C2
:104080006E740043616E6E6F7420656E746572208D
:104090007375626469723A200002202E2E004D6111
:1040A000696E002100486F74656E6420746F6F2024
:1040B000636F6C64004261636B0050726F6365658F
:1040C00064004F6666004F6E00536F667420456E45
:1040D0006473746F7073004D6F74696F6E00446920
:1040E0007361626C65205374657070657273004D06
:1040F0003834004D34382050726F62652054657337
:1041000074004732384F0A4D343820503130004265
:104110006564204C6576656C696E67005472616DEC
:104120006D696E672057697A61726400486F6D65CA
:10413000205A004732385A00486F6D6520590047B1
:1041400032385900486F6D652058004732385800A2
:104150004175746F20486F6D65004D61696E004454
:104160006576696174696F6E0025533A2025730086
:1041700046696E6973686564210A003A207A3A20BC
:1041800000206F662000476F696E6720746F3A20C9
:10419000580043570A00206469723A0020616E6734
:1041A0006C653A005374617274207261646975734E
:1041B0003A004D343820506F696E740025533A2010
:1041C00025642F256400506F736974696F6E696E82
:1041D00067207468652070726F62652E2E2E0A004B
:1041E0003F4C656773206F66206D6F76656D656EF9
:1041F0007420696D706C61757369626C652028301C
:104200002D3135292E0A003F2028582C5929206F9E
:104210007574206F6620626F756E64732E0A00508D
:10422000726F6265206F7574206F6620626F756EA5
:104230006473003F53616D706C652073697A65200B
:104240006E6F7420706C61757369626C65202834C0
:104250002D3530292E0A004D3438205A2D50726FDA
:104260006265205265706561746162696C69747918
:1042700020546573740A003F2856296572626F7373
:1042800065206C6576656C20696D706C617573690D
:10429000626C652028302D34292E0A005374616E1B
:1042A0006461726420446576696174696F6E3A2056
:1042B000002052616E67653A2000204D61783A20F7
:1042C00000204D696E3A2000205369676D613A20E5
:1042D000004D65616E3A200020440020204D3230B0
:1042E00030205300202844697361626C6564293A68
:1042F0000046696C616D656E742073657474696ED7
:1043000067730020204D3230312058004D617820F5
:10431000416363656C65726174696F6E2028756EA8
:104320006974732F7332290020204D3230332058A6
:10433000004D61782066656564726174657320283C
:10434000756E6974732F73290020520020204D323E
:104350003034205000416363656C65726174696F2D
:104360006E2028756E6974732F7332292028503C93
:104370007072696E742D616363656C3E20523C728D
:104380006574726163742D616363656C3E20543C97
:1043900074726176656C2D616363656C3E290057AC
:1043A00041524E494E4721204C6F77205A204A6592
:1043B000726B206D6179206C65616420746F20756B
:1043C0006E77616E746564207061757365732E0A13
:1043D0000020540020530020204D32303520420070
:1043E000416476616E6365642028423C6D696E5F4E
:1043F0007365676D656E745F74696D655F75733E37
:1044000020533C6D696E5F66656564726174653EDC
:1044100020543C6D696E5F74726176656C5F666591
:104420006564726174653E20583C6D61785F785FA9
:104430006A65726B3E20593C6D61785F795F6A6591
:10444000726B3E205A3C6D61785F7A5F6A65726B71
:104450003E20453C6D61785F655F6A65726B3E2901
:104460000020440020490020204D333031205000EE
:10447000486F74656E6420504944004861726463FB
:104480006F6465642044656661756C74205365745F
:1044900074696E6773204C6F616465640A00203B29
:1044A000204C6576656C696E67200020204D3432A3
:1044B000302053004175746F20426564204C65764E
:1044C000656C696E670020460020480020204D3151
:1044D00034352053004D6174657269616C206865E4
:1044E0006174757020706172616D657465727300BE
:1044F000203B2053656E736F722000204400202003
:104500004D34313220530046696C616D656E742004
:1045100072756E6F75742073656E736F7200205ABA
:1045200000204A002020473239205720490020200F
:104530004D3134392043203B20556E697473206916
:104540006E2043656C736975730A0054656D706500
:1045500072617475726520556E697473002020470E
:104560003231203B004C696E65617220556E697472
:104570007300454550524F4D206461746173697AF0
:1045800065206572726F722E0A00290A0020627916
:104590007465733B2063726320002073746F7265CF
:1045A000642073657474696E6773207265747269D0
:1045B00065766564202800202863616C63756C61F2
:1045C00074656429210A0020213D20004545505290
:1045D0004F4D20435243206D69736D6174636820B1
:1045E0002D202873746F7265642920002053697A26
:1045F000653A2000496E6465783A2000000048431F
:1046000000004843000060410000C8410000A04293
:104610000000A0420000C8430080CB43F40100002A
:10462000F401000064000000E8030000204D617206
:104630006C696E3D563835290A00454550524F4D3C
:104640002076657273696F6E206D69736D61746336
:10465000682028454550524F4D3D0000000A0B028E
:10466000090C0D0E08070304010000000000000003
:10467000000000000000000000000000000000003A
:1046800000000000000000121110000000000000F7
:10469000000000000000000000000000000000001A
:1046A00000004D6F76652025736D6D004D6F76654A
:1046B00020302E316D6D004D6F766520316D6D00AF
:1046C0004D6F76652031306D6D004D6F7665204100
:1046D000786973004D6F76652045787472756465EE
:1046E00072004D6F7665205A004D6F766520590037
:1046F0004D6F766520580020436F756E7420583AD0
:1047000000426564004531004500626564002C206C
:1047100073797374656D2073746F70706564212094
:104720004865617465725F49443A20004865617468
:10473000696E67204661696C6564004865617469EB
:104740006E67206661696C6564004D3131322053BB
:10475000687574646F776E002E01620111241FBEAC
:10476000CFEFD1E2DEBFCDBF00E00CBF15E0A0E08F
:10477000B2E0E0E6F8E003E00BBF02C007900D9264
:10478000AE3BB107D9F729E1AEEBB5E001C01D9210
:10479000AD3EB207E1F713E2CDEAD3E200E006C096
:1047A00021970109802FFE010F94B280CC3AD107E6
:1047B00080E00807A9F70F94CA6A0D941F840C942F
:1047C00000002F923F924F925F926F927F928F9252
:1047D0009F92AF92BF92CF92DF92EF92FF920F9390
:1047E0001F93CF93DF93CDB7DEB7E4970FB6F8945E
:1047F000DEBF0FBECDBF8CAB3090E90921E0209326
:10480000E9098091A9078D3409F49FC3843511F417
:104810000C94A633873411F00C94B8338091A70719
:104820009091A8078B31910509F41FC1B0F4843031
:10483000910530F42091DE118230910580F139C06C
:104840008531910511F40C94BA338A31910509F43C
:1048500008C1049709F075C3C5C08332910509F4F6
:1048600001C248F48D319105C1F008F419C14E9789
:1048700009F47BC166C38A35910509F4D7C220F4D7
:104880008A9709F4F3C15DC38B35910509F4D2C24F
:104890008C35910509F4D3C254C314E04FC12330C1
:1048A00010F40C94BA330E94FBA90E94F47C0C947F
:1048B000BA33233010F40C94BA3311E0029709F0A4
:1048C00010E00E94FBA919821A821B821C821D82A1
:1048D0001E821F82188682E50E945848882309F4A8
:1048E0004BC00E94D3476B017C0120E030E0A9015E
:1048F0000F94D979882309F455C08091370290919B
:104900003802A0913902B0913A0288A799A7AAA7C4
:10491000BBA780913B0290913C02A0913D02B091D7
:104920003E028CA79DA7AEA7BFA780903B12909098
:104930003C12A0903D12B0903E1240903F12509019
:1049400040126090411270904212A501940168A536
:1049500079A58AA59BA50F94D97981110C94DA3396
:10496000A30192016CA57DA58EA59FA50F94D97971
:104970008823C1F00C94DA3389E40E9458488823D4
:1049800031F00E94D34769837A838B839C838AE4C6
:104990000E945848882331F00E94D3476D837E835C
:1049A0008F83988720E030E0A90169817A818B812B
:1049B0009C810F94D97981110C948E3420E030E0E1
:1049C000A9016D817E818F8198850F94D97981119C
:1049D0000C948E340F94D51283ED94E00F944A1208
:1049E0000C94BA3380E50E945848882329F00F942C
:1049F0005A4E6B017C0103C0C12CD12C760183E59A
:104A00000E945848882361F00E94D34720E030E09C
:104A10004AE754E40F943E7A0F9404826B017C01C0
:104A20000F94210980916F10811105C060E08FEF14
:104A300094E00E9474FF0F94965FC60ED71EE81E86
:104A4000F91E0F94965FDC01CB018C199D09AE090C
:104A5000BF09B7FD02C00C94BA3380E00E94263A29
:104A6000F0CF0E9476480C94BA3387E00E94C3844A
:104A700081110C94BA338CE0EBE2F4E0DE01119684
:104A800001900D928A95E1F760E070E080E50E9468
:104A90005CB0BE016F5F7F4F0E94BE950C94BA332D
:104AA00087E00E94267C81110C94AF348091AA0784
:104AB0009091AB07A091AC07B091AD073EE0B695E1
:104AC000A795979587953A95D1F780FF02C00C94EA
:104AD000BA330C94AF3460E08FE40E9464488111D3
:104AE0003CC08091AA079091AB07A091AC07B09110
:104AF000AD0795FF04C083E89EE10E9460A787E0B0
:104B00000E94C384811129C00F94F73E882329F1A4
:104B1000115011F40C94473620E030E040E652E3A7
:104B200067E675E085E00F94221561E08AE595E07F
:104B30000F949A148BE295E00E9460A70F94965F01
:104B40006093B7187093B8188093B9189093BA18F7
:104B50008091E618882329F2BECF0F94EF1485E0E8
:104B600096E00E9460A70C94BA330091451610910C
:104B70004616D8012D913D914D915C91609137027F
:104B8000709138028091390290913A020F94BB8063
:104B9000AB01BC0188E50E94E4A969837A838B8319
:104BA0009C83F801248135814681578160913B02C5
:104BB00070913C0280913D0290913E020F94BB8027
:104BC000AB01BC0189E50E94E4A96D837E838F83DC
:104BD0009887BE016B5F7F4FCE0101960F94543BC7
:104BE000882311F40C94BA3380E00F94260E0E94AF
:104BF000A07F61E085E40E946448182F21E0482FDF
:104C0000BE016B5F7F4FCE0101960F9438186B0188
:104C10007C019B01AC010F947183811119C0498102
:104C20005A816B817C8187E296E00F94164D4D810D
:104C30005E816F81788582E296E00F94164DB70110
:104C4000A6018DE196E00F94164D8AE00E94213A6C
:104C50000E94877F113011F40F943A3B0E94288202
:104C60000C94BA330F94BB430C94BA338091DE1189
:104C7000833010F40C94BA3389E40E945848E82E2B
:104C8000882321F00E94D047082F01C000E08AE469
:104C90000E945848F82E882321F00E94D047182FF0
:104CA00001C010E0EE2011F0053020F4FF2041F0AB
:104CB000153030F08FE296E00F944A120C94BA331C
:104CC00080E1E7E3F2E0ABE3B2E101900D928A9577
:104CD000E1F7EE2019F1602F000F770B880B990B8D
:104CE0000F94DF79209126123091271240912812DB
:104CF000509129120F943E7A20912E1230912F124A
:104D000040913012509131120F94BB8060933B124E
:104D100070933C1280933D1290933E12FF2019F144
:104D2000612F110F770B880B990B0F94DF7920916E
:104D30002A1230912B1240912C1250912D120F9467
:104D40003E7A2091321230913312409134125091B8
:104D500035120F94BB8060933F1270934012809382
:104D600041129093421260E080E50E9464488823DB
:104D7000C1F1EE20D1F0E0914516F0914616208168
:104D800031814281538160913B1270913C1280913C
:104D90003D1290913E120F94BA8060933B12709333
:104DA0003C1280933D1290933E12FF20D1F0E0918F
:104DB0004516F091461624813581468157816091D0
:104DC0003F127091401280914112909142120F94C3
:104DD000BA8060933F127093401280934112909377
:104DE000421240E050E0BA0186E40E94E4A96B015F
:104DF0007C0120E030E0A9010F94E28218164CF407
:104E000020E030E040E752E4C701B6010F949781FB
:104E100003C060E070E0CB0169837A838B839C835D
:104E2000CE0101960E9405810C94BA331092C305FD
:104E30000C94BA338FE08093C3050C94BA338091FD
:104E4000A607882359F1893011F00C94BA33B5E9DB
:104E5000AB2EB4E0BB2E17E3C12E12E0D12E00E042
:104E600010E0F12CD5018D915D010E9458488823F6
:104E700069F0B3E0FB1611F001E001C011E00E94FF
:104E8000D347F6016083718382839383F394F4E0C4
:104E9000CF0ED11C24E0F212E5CF44C0F5E9CF2EAD
:104EA000F4E0DF2EA7E3EA2EA2E0FA2E00E010E005
:104EB000212CD6018D916D010E945848882359F10B
:104EC0000E94D3474B015C01F7012081318142816F
:104ED00053810F94BA802B013C012DEB37E346E858
:104EE00055EB0F94E28287FD0AC02DEB37E346E8CD
:104EF00055E3C301B2010F94D979181664F4F3E0B5
:104F00002F1611F001E001C011E0D7018D929D92A2
:104F1000AD92BC9213972394B4E0EB0EF11CE4E045
:104F20002E12C7CF002319F00E94268206C011233B
:104F300021F083E492E00F9432090E9428820C94BD
:104F4000BA330E9460F60C94BA338091A70790910F
:104F5000A8078837910509F4ABC608F01EC18D3447
:104F6000910509F43CC408F093C08A31910509F415
:104F70006AC370F58431910509F49AC278F48131DD
:104F8000910509F491C228F4029708F442C20C94E6
:104F9000A333429709F44EC50C94A333873191058E
:104FA00009F4CFC248F48531910509F4BAC2469795
:104FB00009F4BBC20C94A3338831910509F4D8C21B
:104FC000499711F00C94A3330E94A3AF0C94BA3309
:104FD0008032910509F4C4C3E8F58D31910509F4D7
:104FE000A8C380F48B31910509F43BC34C9711F0B1
:104FF0000C94A33380917C0890917D080E94B7C7E0
:105000000C94BA338E31910509F49AC34F9711F07D
:105010000C94A3330E9435836C8F7D8F8E8F9F8F6E
:10502000BE016F5F7F4FCE014C960E94DE6060E054
:10503000CE0101960F9421000F94D812BE016F5F2C
:105040007F4F8DED96E00F94E4158AE00E94213A9F
:105050000C94BA338934910509F4ADC360F48132FC
:10506000910509F4A5C3C09711F00C94A3330F94D4
:10507000FC4E0C94BA338B34910509F4ADC38C34D7
:10508000910511F00C94A3330E9484830C94BA33DD
:105090008B36910509F4F5C3E8F58435910509F4DB
:1050A000C9C4F8F48135910509F4A7C448F48E34D5
:1050B000910511F00C94A3330E94BD610C94BA3396
:1050C0008235910509F4AFC48335910511F00C9434
:1050D000A3338091C3058F7E80628093C3050C94B7
:1050E000BA338836910509F47DC350F485359105AE
:1050F00009F4A3C48C35910509F4C2C40C94A333FC
:105100008936910509F472C38A36910509F47EC384
:105110000C94A3338137910509F41DC4F8F48E363D
:10512000910509F4B7C378F48C36910511F40C9409
:10513000BA338D36910511F00C94A33381E00E94AF
:1051400037600C94BA338F36910509F4BFC38037AA
:10515000910511F40C94BA330C94A333853791055F
:1051600009F430C568F48237910509F428C58337FE
:10517000910511F00C94A3330E9429A40C94BA3326
:105180008637910509F430C58737910511F00C94E5
:10519000A3330E94D3820C94BA338139F1E09F0784
:1051A00011F40C944A3108F082C08D3C910509F449
:1051B00039C6D0F58B39910509F4F7C3E0F48D3782
:1051C000910509F417C468F48937910511F00C941E
:1051D000A33310929711109296110E9426830C947B
:1051E000BA338C38910509F4D8C38139910509F493
:1051F00066C50C94A333893C910509F4E1C550F4CC
:105200008E3B910509F4CDC3883C910509F4CBC5CB
:105210000C94A3338B3C910509F4E4C58C3C9105B7
:1052200009F4F0C50C94A3338C32A1E09A0709F479
:10523000BFC7E8F48D3D910509F4CFC650F4833D16
:10524000910509F4F2C58C3D910509F485C60C94CD
:10525000A3338831E1E09E0709F415C782329140FB
:1052600011F00C94A3330E943F9E0C94BA338F32FA
:1052700021E0920711F40C94473158F48D32A1E0EB
:105280009A0709F4AAC78E32914009F4BDC70C945D
:10529000A3338033E1E09E0709F4ACC78039914025
:1052A00011F00C94A3330F9421090C94BA33883F66
:1052B00031E0930711F40C944F3208F053C0853A53
:1052C000B1E09B0711F40C94663108F58C39F1E0DC
:1052D0009F0709F4F0C760F4823931E0930709F4BD
:1052E000E3C78A39914011F40C94BA330C94A33378
:1052F0008D39B1E09B0711F40C945733843A9140F7
:1053000011F00C94A3330F94043D0C94BA33853FF1
:10531000F1E09F0711F40C94493278F4863E31E0B5
:10532000930711F40C94DB31843F914011F00C94FD
:10533000A3330F9494010C94BA33863FB1E09B07DA
:1053400011F40C944C32873F914011F00C94A3332C
:1053500061E083E50E94644891E089270F94C5537A
:105360000C94BA338335F3E09F0711F40C943D336A
:1053700018F58B3532E0930711F40C946E3278F403
:105380008C30B2E09B0711F40C945F328835924068
:1053900011F00C94A3330E9495AE0C94BA338D3B5C
:1053A000F2E09F0711F40C947B328E3B924011F493
:1053B0000C947E320C94A333873E33E0930711F4B0
:1053C0000C944033C8F48C36B3E09B0711F40C9472
:1053D000BA33803A934011F00C94A33320917C08A7
:1053E00030917D089091D71692609093D716C9019D
:1053F0000E94B7C70C94BA33883EF3E09F0711F4BC
:105400000C946733893E934011F40C946A330C94E6
:10541000A33380E50E945848882329F00F945A4E00
:105420006B017C0103C0C12CD12C760183E50E9465
:105430005848882361F00E94D34720E030E04AE7D3
:1054400054E40F943E7A0F9404826B017C010F9414
:10545000210980917C0890917D08009721F061E0FE
:105460000F94210005C060E088E596E00E9474FF7B
:105470008091A7079091A807892B19F060E576E045
:1054800002C068E476E020E030E044E551E382E0E9
:105490000F94221540E0C701B6010E94954180E0BB
:1054A0000F946C000C94BA330E9425B20C94BA335A
:1054B0008091D71684FF2DC08AE796E00F944A1298
:1054C00060E08CE40E946448182F8091D71684FF16
:1054D0001AC08CEF96E10E9410DA8BE1ECEFF6E156
:1054E000DE01119601900D928A95E1F720E030E0FF
:1054F00040E050E0612FCE0101960E941CC8CE0111
:1055000001960E948B528BE696E00F944A120C94FF
:10551000BA330F94D8128BE896E00F944A120C9489
:10552000BA330E947EC50C94BA338091D71682FF9D
:1055300004C087FD02C00C94BA330E9405C80C94C5
:10554000BA33E0917C08F0917D088081882329F0AE
:10555000803209F410823196F8CF60E080917C08A7
:1055600090917D080E94C3C61092C5100C94BA3366
:1055700083E50E945848882321F00E94A0470E949A
:10558000DD9A84E50E9458488823A9F00E94A0472C
:105590006B017C010E946983C0922611D092271171
:1055A000E0922811F0922911CD28CE28CF2819F0A9
:1055B00081E080932E11809181088823F9F080E0AA
:1055C00090E0A0EAB1E489839A83AB83BC831C8E0C
:1055D0001D8E1E8E1F8E18A219A21AA21BA200E0F9
:1055E00010E020E0AE014F5F5F4FBE01645E7F4F71
:1055F000CE0180960E9491520C94BA330E94E339F6
:10560000882381F00E94E3C10E94063A86E299E075
:105610000E949BC110926213109263131092641344
:105620001092651361E085EA92E30F949A1440E6C4
:1056300052E365E976E085E00E9479F780E00F9417
:105640006C000C94BA338091D71684FD02C00C9480
:10565000BA3383E50E94584881110C945D360C944E
:10566000BA338091AA079091AB07A091AC07B09193
:10567000AD07E2E0B695A79597958795EA95D1F79E
:1056800080FF2CC08BEA96E00F944A128091431859
:105690008823D9F0BE016F5F7F4F80E498E10E94BC
:1056A000DDD9CE0101960F94D43ECE0101960E9421
:1056B00088C280917115882361F080E20E94213AAE
:1056C00081E795E10F94D43E04C081EA96E00F94FF
:1056D0004A128AE00E94213A0C94BA338091D7167C
:1056E00082FF21C0C090D316D090D416E090D5167A
:1056F000F090D6168AEB96E00F944A12C701B601D5
:105700000F94AB238FE20E94213A6091CF167091E3
:10571000D0168091D1169091D2160F94AB230F948E
:105720007C250C94BA338CEC96E00F944A120C94BE
:10573000BA338091D7168E7F8093D7160C94BA33E4
:105740008091D71684FD02C00C94BA330E94D3F521
:1057500080917C0890917D080E9439C60C94BA33E0
:105760008091D71682FF03C087FF0F942109809193
:10577000D71684FD01C0FEC760E080E50E94644842
:10578000182F682F80917C0890917D080E94C3C6D5
:1057900083E50E945848882321F00E94A0470E9478
:1057A000DD9A0E94E3C11111E5C70E94063AE2C7E3
:1057B0000E9427A8DFC780E50E945848882309F483
:1057C000D9C70E94B04790E08536910510F084E675
:1057D00090E08093C510CEC70E94063ACBC70E94C6
:1057E000183AC8C780E00E943760C4C70E948CA9DD
:1057F000182F87FDC4C78AEE96E00F944A12812FB6
:105800000F94D82A8AE00E94213AB9C760E080E567
:105810000F94EB3E8111AEC78091AA0780FF05C0AF
:1058200060911B0A062F10E002C00FEF10E089E420
:105830000E945848882399F00E94B04790E01816BB
:10584000190614F481E090E026E0289FF001299FDA
:10585000F00D1124E658F64E0481158108C083E549
:105860000E945848882319F00E94A0478B01B80174
:105870000F3F110519F010F06FEF70E060931B0AF5
:1058800079C760E080E50F94EB3E811173C71092F9
:105890001B0A70C78EE40E945848882309F46AC71F
:1058A0000E94A047E091840232E6E39FF0011124B8
:1058B000E951FD4FE081A7E6EA02F0011124E2552B
:1058C000F84F608371838283938354C783E50E947A
:1058D0000A48882331F060E083E50F94EB3E809323
:1058E0001F100F94D8128BEF96E00F944A128091FC
:1058F0001F10882369F171EFE72E76E0F72E00E0A4
:1059000010E020E080911F1090E0A0E0B0E0002EB9
:1059100004C0B695A795979587950A94D2F780FF0E
:105920000EC0DD24D394D20E222319F08CE20E9403
:10593000213AF701859194910F944A122D2D0F5F12
:105940001F4FB2E0EB0EF11C05301105D9F6C1CEA8
:105950008DEE96E0BCCE83E50E945848882371F016
:105960000E94B047282F30E02D3331051CF480937E
:10597000000200C78CE380930002FCC60F94D8128B
:105980001091000282E097E00F944A12812F0F9449
:105990000B0C8AE00E94213AEDC680E00E94CB5FAA
:1059A000E9C681E00E94CB5FE5C683E50E945848C6
:1059B000882309F4DFC60E94B047182F8D3308F002
:1059C0008CE38093D9150F94965F6B017C01212F96
:1059D00030E0A8EEB3E00F946380C60ED71EE81E39
:1059E000F91EC092D515D092D615E092D715F09237
:1059F000D815C0C60E94A3AFBDC60F94DE2F0F946A
:105A0000470A0E94183A0E941B3A68EE73E080E051
:105A100090E00F949F110E941E3A60E089E097E0A9
:105A20000E9474FFA7C68091C3058F7D806180931B
:105A3000C305A0C60E94F1B09DC683E50E940A4836
:105A4000882309F497C60F94965F6093B7187093F4
:105A5000B8188093B9189093BA180E94D34720E0E1
:105A600030E04AE754E40F943E7A0F940482609346
:105A7000BE057093BF058093C0059093C1057AC69B
:105A80000E948CA987FD76C69091AA0794FD04C058
:105A90009091AC0797FF0AC055E9C52E54E0D52E6A
:105AA00060E2E62E60E1F62E10E009C09091AD07AD
:105AB000937091F7682F81E00E9449B35BC6F601AD
:105AC00081916F010E945848882309F46EC01330F9
:105AD00051F00E94D347D70154966D937D938D93D7
