:100000000C9425230C9465230C9465230C94652390
:100010000C9465230C9465230C9465230C94652340
:100020000C9465230C9465230C9465230C94652330
:100030000C9465230C9465230C9465230C94652320
:100040000C9465230D948D090C9465230C94652301
:100050000C9465230D94FF070C9465230D94416364
:100060000C9465230C943F7B0C94357B0C94652396
:100070000C9465230C9465230C9465230C946523E0
:100080000C94EE4A0C9465230C9465230C94652320
:100090000C9465230C9465230C9465230C946523C0
:1000A0000C9465230C9465230C94C04A0C9465232E
:1000B0000C9465230C9465230C9465230C946523A0
:1000C0000C9465230C9465230C9465230C94652390
:1000D0000C9465230C9465230C9465230C94652380
:1000E0000C946523084AD73B3BCE016E84BCBFFD10
:1000F000C12F3D6C74319ABD56833DDA3D00C77FF8
:1001000011BED9E4BB4C3E916BAAAABE0000008090
:100110003F05A84CCDB2D44EB93836A9020C50B91F
:10012000918688083CA6AAAA2ABE000000803F004B
:100130000D947F620D94FC3F0D9490620D94696262
:100140000D949A620D94CE3F0D94BA620D94A26202
:100150000D9464620D94FB3F0D9494620D94A44041
:100160000D9483620D947B620D94B6620D94A86227
:100170000D940F700D94B0620D9487620D94AC6273
:100180000D948A620D949E620D942D700D940D70E5
:100190004E414E494E495459494E46CDCCCC3D0A6C
:1001A000D7233C17B7D13877CC2B329595E6241F4F
:1001B000B14F0A000020410000C84200401C462008
:1001C000BCBE4CCA1B0E5AAEC59D7400407A10F3DB
:1001D0005A00A0724E18090010A5D4E80000E87675
:1001E00048170000E40B54020000CA9A3B000000CC
:1001F000E1F505000080969800000040420F0000E5
:1002000000A08601000000102700000000E80300A5
:100210000000006400000000000A0000000000016F
:1002200000000000002C76D888DC674F0823DFC16F
:10023000DFAE59E1B1B796E5E3E453C63AE651992A
:100240007696E8E6C28426EB898C9B62ED407C6F53
:10025000FCEFBC9C9F40F2BAA56FA5F490055A2A0A
:10026000F75C936B6CF9676DC11BFCE0E40D47FE16
:10027000F520E6B500D0ED902E030094357705000B
:1002800080841E080000204E0A000000C80C333392
:1002900033330F986E12831141EF8D2114893BE6A1
:1002A0005516CFFEE6DB18D1844B381BF77C1D902A
:1002B0001DA4BBE424203284725E228100C9F12493
:1002C000ECA1E53D27434F4D4D554E49434154491F
:1002D0004F4E0044525952554E004552524F5253C0
:1002E00000494E464F004543484F004572726F72B9
:1002F0002077726974696E6720746F20454550528B
:100300004F4D210A0053544F505045442E20005069
:1003100072696E7465722073746F707065642064A6
:10032000756520746F206572726F72732E20466936
:100330007820746865206572726F7220616E642027
:10034000757365204D39393920746F207265737467
:100350006172742E202854656D70657261747572B7
:10036000652069732072657365742E20536574204F
:100370006974206166746572207265737461727449
:10038000696E67290A004E6F20436865636B737559
:100390006D2077697468206C696E65206E756D627A
:1003A00065722C204C617374204C696E653A200094
:1003B0004E6F20436865636B73756D207769746851
:1003C000206C696E65206E756D6265722C204C61C3
:1003D0007374204C696E653A2000636865636B73C3
:1003E000756D206D69736D617463682C204C617349
:1003F00074204C696E653A20004C696E65204E751C
:100400006D626572206973206E6F74204C61737425
:10041000204C696E65204E756D6265722B312C2003
:100420004C617374204C696E653A20004D31313057
:100430000053657269616C20737461747573206D0B
:1004400069736D617463680A005344207265616466
:10045000206572726F720A004B494C4C20627574B1
:10046000746F6E2F70696E0A002121204B494C4C2D
:10047000206361757365642062792000746F6F205A
:100480006D75636820696E6163746976652074694F
:100490006D65202D2063757272656E7420636F6DBB
:1004A0006D616E643A20002121204B494C4C206341
:1004B00061757365642062792000627573793A20F2
:1004C00070617573656420666F7220696E707574F3
:1004D0000A00627573793A207061757365642066ED
:1004E0006F7220757365720A00627573793A2070B5
:1004F000726F63657373696E670A004D6564696145
:100500002052656D6F766564004D656469612049B0
:100510006E736572746564004D3130303053007015
:1005200061757365004D363030002066696C616D11
:10053000656E745F72756E6F7574200066696C61AC
:100540006D656E745F72756E6F75742054004669C8
:100550006C616D656E7452756E6F757420540050C9
:100560006C65617365205265736574005052494E25
:100570005445522048414C5445440025533A2025C7
:100580005300706F7765726F6666004B494C4C453F
:10059000442E20005072696E7465722068616C741C
:1005A00065642E206B696C6C28292063616C6C6516
:1005B00064210A006563686F3A004572726F723A8F
:1005C0000042696C696E656172204C6576656C6984
:1005D0006E6720477269643A0A002F2F616374695D
:1005E0006F6E3A006E6F74696669636174696F6EED
:1005F0002000656E640073686F7700627574746FB5
:100600006E00486F74656E6420746F6F20636F6C4A
:10061000640A0053656E64204D31303820746F20B9
:10062000726573756D650A00496E73657274206634
:10063000696C616D656E7420616E642073656E64B3
:10064000204D3130380A0052656865617420446F6E
:100650006E6500526568656174696E672E2E2E00A6
:1006600052656865617400486561746572205469FB
:100670006D656F75740053656E64204D31303820A0
:10068000746F2068656174206E6F7A7A6C650A00F9
:100690004E6F7A7A6C65205061726B656400706190
:1006A0007573656400486561642063616E6E6F7484
:1006B000206265207061726B6564005061757365BE
:1006C000004732362043616E63656C6564004732D3
:1006D000362048656174696E67204E6F7A7A6C6562
:1006E000004732362048656174696E672042656450
:1006F0000057616974696E6720666F722068656172
:100700007475702E0A004669786564204C656E67C2
:100710007468205072696D6500446F6E6520507278
:10072000696D696E67004D616E75616C20707269EC
:100730006D696E672E2E2E004C656176696E67209E
:10074000473236003F5370656369666965642058B7
:100750002C5920636F6F7264696E617465206F75C8
:1007600074206F6620626F756E64732E0A003F28D6
:10077000522965706561742076616C7565206E6FB5
:100780007420706C61757369626C653B206D757364
:1007900074206265206174206C6561737420312E51
:1007A0000A003F537065636966696564206E6F7AFD
:1007B0007A6C652074656D70657261747572652000
:1007C0006E6F7420706C61757369626C652E0A00BF
:1007D0003F5370656369666965642066696C616D25
:1007E000656E742073697A65206E6F7420706C6119
:1007F000757369626C652E0A003F537065636966A4
:10080000696564207072696D65206C656E677468D7
:10081000206E6F7420706C61757369626C652E0A4E
:10082000003F537065636966696564206E6F7A7A0C
:100830006C652073697A65206E6F7420706C6175C9
:100840007369626C652E0A003F526574726163744D
:10085000696F6E204D756C7469706C696572206D7E
:100860007573742062652073706563696669656479
:100870002E0A003F5370656369666965642052659E
:100880007472616374696F6E204D756C7469706CFD
:10089000696572206E6F7420706C61757369626C2B
:1008A000652E0A003F537065636966696564206C54
:1008B0006179657220686569676874206E6F74205D
:1008C000706C61757369626C652E0A0043292E0A8B
:1008D000003F5370656369666965642062656420E2
:1008E00074656D7065726174757265206E6F7420C9
:1008F000706C61757369626C65202834302D004717
:100900003236207374617274696E672E2E2E0A005F
:100910004F46460A00466164652048656967687409
:100920002000426564204C6576656C696E67200026
:100930004661696C656420746F20656E61626C65E8
:1009400020426564204C6576656C696E670A0049D3
:100950006E76616C6964206D6573682E0A00507252
:100960006F62696E6720506F696E74002553202591
:10097000692F2569002E0A002F0050726F62696E80
:1009800067206D65736820706F696E742000202881
:1009900044525952554E2900473239204175746FDF
:1009A00020426564204C6576656C696E67003F2067
:1009B000284C2C522C462C4229206F7574206F66CF
:1009C00020626F756E64732E0A003F285629657287
:1009D000626F7365206C6576656C20696D706C6103
:1009E000757369626C652028302D34292E0A004207
:1009F0006164205A2076616C75650A004E6F206232
:100A0000696C696E65617220677269640A005A20B8
:100A100050726F62652050617374204265640A00F1
:100A20005A2050726F626520506173742042656471
:100A300000446576696174696F6E0025533A20251C
:100A4000730046696E6973686564210A003A207A0A
:100A50003A2000206F662000476F696E6720746F30
:100A60003A20580043570A00206469723A00206116
:100A70006E676C653A0053746172742072616469C8
:100A800075733A004D343820506F696E74002553E9
:100A90003A2025642F256400506F736974696F6E66
:100AA000696E67207468652070726F62652E2E2EE5
:100AB0000A003F4C656773206F66206D6F76656D29
:100AC000656E7420696D706C61757369626C652008
:100AD00028302D3135292E0A003F2028582C59293D
:100AE000206F7574206F6620626F756E64732E0AB6
:100AF0000050726F6265206F7574206F6620626FA0
:100B0000756E6473003F53616D706C652073697A14
:100B100065206E6F7420706C61757369626C6520FE
:100B200028342D3530292E0A004D3438205A2D50C6
:100B3000726F6265205265706561746162696C698B
:100B4000747920546573740A003F285629657262CF
:100B50006F7365206C6576656C20696D706C61756E
:100B60007369626C652028302D34292E0A00537475
:100B7000616E6461726420446576696174696F6E48
:100B80003A20002052616E67653A2000204D61785E
:100B90003A2000204D696E3A2000205369676D614C
:100BA0003A20004D65616E3A200020440020204D1F
:100BB000323030205300202844697361626C6564D0
:100BC000293A0046696C616D656E742073657474B2
:100BD000696E67730020204D3230312058004D611E
:100BE0007820416363656C65726174696F6E20285B
:100BF000756E6974732F7332290020204D323033A3
:100C00002058004D61782066656564726174657373
:100C10002028756E6974732F7329002052002020DC
:100C20004D323034205000416363656C65726174ED
:100C3000696F6E2028756E6974732F7332292028AE
:100C4000503C7072696E742D616363656C3E205216
:100C50003C726574726163742D616363656C3E20E0
:100C6000543C74726176656C2D616363656C3E29DA
:100C70000020540020530020204D32303520420007
:100C8000416476616E6365642028423C6D696E5FE5
:100C90007365676D656E745F74696D655F75733ECE
:100CA00020533C6D696E5F66656564726174653E74
:100CB00020543C6D696E5F74726176656C5F666529
:100CC0006564726174653E20583C6D61785F6A6549
:100CD000726B3E20593C6D61785F6A65726B3E2095
:100CE0005A3C6D61785F6A65726B3E20453C6D6170
:100CF000785F6A65726B3E2900204400204900201D
:100D0000204D333031205000486F74656E642050A0
:100D100049440020440020490020204D3330342035
:100D2000500042656420504944003A200020536539
:100D300072766F2000206F7574206F662072616E6E
:100D400067650A00536572766F20002E0A0020281E
:100D5000302D313029002076616C7565206F7574F7
:100D6000206F662072616E676500416476616E6314
:100D700065204B3D00203B0020550020204D3630A3
:100D800033204C0046696C616D656E74206C6F6138
:100D9000642F756E6C6F6164004D323453256C6442
:100DA00054256C64004739322E394525730047318C
:100DB0004625640047315A257346363030004731A6
:100DC0005825735925734633303030004D31303655
:100DD000502569532569004D313039532569004D3F
:100DE000323030442573004739322E395A2573008A
:100DF0004D3432305325635A257300473238523010
:100E000058590047315A2573463630300047393239
:100E10002E395A2573004739322E394530004D316D
:100E20003039532569004D313930532569004D342F
:100E30003230533000203B200020204D343133200D
:100E40005300506F7765722D6C6F737320726563FA
:100E50006F76657279003B200020496E76616C697F
:100E600064206578747275646572200047322F477C
:100E7000332062616420706172616D6574657273A4
:100E80000A0047322F47332062616420706172612B
:100E90006D65746572730A00536C6565702E2E2E35
:100EA0000070726F62655F726577697065004D31C1
:100EB00031372050726F6265206661696C65642EFF
:100EC000205265776970696E672E0A4732380A4783
:100ED00031322050302053313220543000473239E3
:100EE000205265747279696E670070726F62655F17
:100EF0006661696C65640050726F62696E67204656
:100F000061696C6564004D31313720426564206C45
:100F10006576656C696E67206661696C65642E0A2A
:100F20004730205A31300A4D33303020503235208E
:100F3000533838300A4D333030205035302053305C
:100F40000A4D3330302050323520533838300A4D76
:100F5000333030205035302053300A4D333030207C
:100F600050323520533838300A4D33303020503528
:100F7000302053300A4734205331004D313137206F
:100F8000426564206C6576656C696E6720646F6E7F
:100F9000652E005A2050726F626520506173742074
:100FA00042656400205A3A200020593A20004265E8
:100FB0006420583A2000206D696E757465730020B6
:100FC000616E642000207475726E73002062792057
:100FD0000020005475726E20004733352061626F27
:100FE000727465642E0A002028004733352066613C
:100FF000696C656420617420706F696E74200047AD
:1010000032385A003F28532963726577207468721A
:10101000656164206D7573742062652033302C2007
:1010200033312C2034302C2034312C2035302C20FE
:101030006F722035312E0A004D65736820706F691C
:101040006E74206F7574206F662072616E67650A1A
:10105000004E6F204D6F76652E00456E64206669E8
:101060006C65206C6973740A00426567696E20665E
:10107000696C65206C6973740A004E6F206D65643D
:1010800069610A00286E6F2066696C6529004375E6
:101090007272656E742066696C653A20004E6F74DA
:1010A000205344207072696E74696E670A0053445D
:1010B000207072696E74696E6720627974652000B1
:1010C00043616E6E6F74206F70656E20737562641D
:1010D000697220005072696E742074696D653A20DF
:1010E000006F6B006F666600E602E102DA02D3026F
:1010F000C50244454255473A004D31313320530033
:1011000043522D3130205633204F46462E002F2F8C
:10111000004D31343520533C696E6465783E206F54
:101120007574206F662072616E67652028302D31DE
:10113000290A00206C696D6974656420746F200051
:10114000204D6178200046656564726174650057C2
:1011500041524E494E4721204C6F77205A204A6514
:10116000726B206D6179206C65616420746F2075ED
:101170006E77616E746564207061757365732E0A95
:101180000020580020204D61783A200020002020C7
:101190004D696E3A2000203B200020204D32313135
:1011A000205300536F667420656E6473746F7073A0
:1011B00000250A0046523A0020466C6F773A20001C
:1011C00050726F6265204F6666736574205A0050D6
:1011D000726F6265204F6666736574205A00646999
:1011E0007300656E0043290A0061626C6564202803
:1011F0006D696E2074656D702000436F6C642065AE
:10120000787472756465732061726520004F46467C
:10121000004F4E00203B20486F73742068616E645D
:101220006C696E6720006D6D00203B20446973740B
:10123000616E6365200046696C616D656E74207235
:10124000756E6F757420004D34323120696E636F96
:10125000727265637420706172616D65746572206D
:1012600075736167650A004D65736820706F696EFC
:1012700074206F7574206F662072616E67650A0056
:10128000454550524F4D204F4B0A003F284229619F
:101290007564207261746520696D706C6175736925
:1012A000626C652E0A00206261756420726174654B
:1012B0002073657420746F20002053657269616C1F
:1012C0002000290A0020746F20003F5A206F757497
:1012D000206F662072616E6765202800290A002051
:1012E000746F20003F59206F7574206F6620726103
:1012F0006E676520282D00290A0020746F20003FAA
:1013000058206F7574206F662072616E67652028A3
:101310002D004D383400446F6E65207072696E7414
:10132000696E672066696C650A004D3737004D337A
:101330003100446966663A2020200046726F6D5382
:1013400074703A00537465707065723A00556E4C53
:101350006576656C3A004C6576656C65643A00525A
:1013600061773A20202020000A4C6F676963616C26
:101370003A00436F756E7420453A004361703A003D
:10138000434F4E4649475F4558504F5254004D45D4
:1013900041545041434B00434F4F4C45525F5445DD
:1013A0004D5045524154555245004348414D4245E8
:1013B000525F54454D5045524154555245004241AB
:1013C00042595354455050494E47004152435300EF
:1013D0004D4F54494F4E5F4D4F444553005448457F
:1013E000524D414C5F50524F54454354494F4E006B
:1013F000455854454E4445445F4D323000435553A3
:10140000544F4D5F4649524D574152455F55504CE0
:101410004F4144004C464E5F5752495445004C4F93
:101420004E475F46494C454E414D45004155544F4E
:101430005245504F52545F53445F53544154555397
:101440000053445F5752495445005245504541545A
:10145000004D554C54495F564F4C554D4500534433
:10146000434152440050524F4D50545F53555050D9
:101470004F525400484F53545F414354494F4E5FBD
:10148000434F4D4D414E445300454D455247454E07
:1014900043595F50415253455200434153455F4CBD
:1014A000494748545F4252494748544E45535300B8
:1014B000544F47474C455F4C494748545300534F9E
:1014C0004654574152455F504F5745520042554987
:1014D0004C445F50455243454E54004C4556454C94
:1014E000494E475F44415441005A5F50524F424574
:1014F0000052554E4F5554004155544F4C4556459A
:101500004C005052494E545F4A4F420050524F4790
:1015100052455353004155544F5245504F52545F1A
:1015200054454D50004155544F5245504F52545F11
:10153000504F5300564F4C554D455452494300456A
:101540004550524F4D0042494E4152595F46494C19
:10155000455F5452414E534645520053455249410E
:101560004C5F584F4E5F584F4646004649524D57C4
:101570004152455F4E414D453A4D61726C696E2056
:10158000322E312E322E3120284A756E20313720EE
:10159000323032332031333A32363A323029205326
:1015A0004F555243455F434F44455F55524C3A6750
:1015B00069746875622E636F6D2F4D61726C696E10
:1015C0004669726D776172652F4D61726C696E202C
:1015D00050524F544F434F4C5F56455253494F4E14
:1015E0003A312E30204D414348494E455F545950C1
:1015F000453A43522D3130205633204558545255E8
:101600004445525F434F554E543A31205555494455
:101610003A63656465326132662D343161322D344E
:101620003734382D396231322D63353563363266C1
:10163000333637666600626567696E004D30205349
:10164000746F70004D312053746F7000436C696388
:101650006B20746F20526573756D652E2E2E0020E1
:101660003B0020204D3835312058005A2D50726FE4
:101670006265204F666673657400526573756D69A7
:101680006E67205344002569730025696D20256924
:1016900073002569682025696D2025697300256917
:1016A00064202569682025696D20256973002569F6
:1016B0007920256964202569682025696D202569C0
:1016C000730020696E200053746174733A200053D4
:1016D00065727669636520333030680053657276D1
:1016E00069636520353068000A53746174733A2069
:1016F00046696C616D656E7420757365643A20008F
:101700002C204C6F6E67657374206A6F623A2000FC
:10171000546F74616C2074696D653A200053746174
:1017200074733A20002C204661696C65643A20008D
:101730002C2046696E69736865643A2000507269AE
:101740006E74733A200053746174733A2000436FCF
:101750006F6C696E672E2E2E004531202553004296
:10176000656420436F6F6C696E672E2E2E00426594
:10177000642048656174696E672E2E2E00236465AF
:1017800066696E652044454641554C545F000062D1
:101790006564004B6420004B6920004B70200050B2
:1017A00049442074756E696E6720646F6E65002011
:1017B00066696E6973686564212050757420746869
:1017C00065206C617374204B702C204B6920616E16
:1017D00064204B6420636F6E7374616E7473206653
:1017E000726F6D2062656C6F7720696E746F204335
:1017F0006F6E66696775726174696F6E2E680A0034
:10180000504944204175746F74756E65002066619F
:10181000696C6564212074696D656F75740A005088
:101820004944204175746F74756E65004175746F1D
:1018300074756E65206661696C6564212054696DFC
:10184000656F75742E00206661696C656421205493
:10185000656D706572617475726520746F6F206854
:101860006967680A00504944204175746F74756E49
:101870006500504944204379636C6573002553200B
:1018800025692F256900204B643A2000204B693AD6
:101890002000204B703A200020436C617373696311
:1018A00020504944200A00204E6F206F76657273E5
:1018B000686F6F740A002054753A2000204B753A07
:1018C0002000206D61783A2000206D696E3A20007A
:1018D00020643A200020626961733A200048656103
:1018E00074696E672E2E2E002073746172740A0064
:1018F000504944204175746F74756E65004175746C
:101900006F74756E65206661696C6564212054652D
:101910006D706572617475726520746F6F2068698F
:1019200067682E00206661696C6564212054656DCE
:10193000706572617475726520746F6F2068696775
:10194000680A00504944204175746F74756E6500D3
:10195000504944204175746F74756E65002066614E
:10196000696C6564212042616420686561746572F8
:101970002069640A00504944204175746F74756E83
:1019800065004572723A207574663820666F6E7411
:10199000206E6F7420696E697469616C697A656420
:1019A0002E004572723A207574663820666F6E7428
:1019B000206E6F7420696E697469616C697A656400
:1019C0002E004572723A207574663820666F6E7408
:1019D000206E6F7420696E697469616C697A6564E0
:1019E0002E002000200020003A003A002568753AB9
:1019F00025303268750025303268753A25303268F6
:101A000075002530326875272530326875002568E5
:101A100075642025303268753A2530326875004289
:101A2000656400456E636C6F7375726500450020D8
:101A30000020002000200020002500202020202061
:101A40002020002020202000657272001FE020105E
:101A500020102010102010202010201030300840BE
:101A6000048003001FE03FF03FF03FF01FE01FE065
:101A70003FF03FF03FF00FC0078003003FFFF0381A
:101A8000007030FC3020FC102078102030102C002A
:101A9000D02E31D02F7BD02F7BD02E31D02C00D028
:101AA00020301020781020FC1030FC303800703FBF
:101AB000FFF03FFFF0380070318630238710278712
:101AC000902F87D02F03D02030102078102078104E
:101AD0002030102F03D02F87D027879023871031F5
:101AE00086303800703FFFF01FFFF81FFFF804102A
:101AF0004002082002082004104008208010410005
:101B00001041000820800410400000001FFFF81F53
:101B1000FFF8000000001E0000000021000000008F
:101B2000271DC08C00272121920041212092008E88
:101B300021CE920090212092011021209201201D9F
:101B400021CC022000000004100113000810011431
:101B5000801008011080200400A30047F200A0803C
:101B600043E2004480200400430018D8000000191C
:101B70008400000021FC0000003F00000C0F00FE6C
:101B800007022503BB017FFE08FE08FE05080806C4
:101B9000000040F0C8888898781005080806000002
:101BA000C0F88888888888F8050505060001203077
:101BB000F830200508080600002070F820202020BA
:101BC000E00509090600FF2070A8A8B888887020E1
:101BD000070505070001D86C366CD8050909060011
:101BE000FFF8A88888888888A8F8050A0A0600FEF1
:101BF000205050505088A8A88870030303060003A3
:101C000040A040FFFFFFFFFFFFFFFFFFFFFFFFFFC1
:101C1000FFFFFFFFFFFFFFFFFF0000000605FF01C2
:101C2000070706020080808080800080030303068F
:101C30000105A0A0A005060606000050F85050F8C7
:101C4000500509090600FF2070A8A07028A8702080
:101C5000050707060000C8C8102040989805070728
:101C600006000040A0A040A89068010303060205FA
:101C70008080800309090601FF2040408080804069
:101C800040200309090601FF8040402020204040F9
:101C90008005070706000020A8702070A820050511
:101CA000050600012020F820200203030601FFC0E2
:101CB0004080050101060003F8020202060100C08F
:101CC000C0050707060000081010204040800507E7
:101CD00007060000708898A8C888700307070601E7
:101CE0000040C040404040E0050707060000708803
:101CF00008102040F8050707060000F80810300813
:101D0000887005070706000010305090F810100585
:101D10000707060000F880F0080888700507070626
:101D20000000304080F0888870050707060000F842
:101D30000810102020200507070600007088887012
:101D4000888870050707060000708888780810608A
:101D5000020505060100C0C000C0C002060606015B
:101D6000FFC0C000C040800305050601012040807F
:101D70004020050303060002F800F80305050601EC
:101D80000180402040800507070600007088102071
:101D90002000200507070600007088B8A8B88070EA
:101DA000050707060000708888F8888888050707F7
:101DB000060000F04848704848F005070706000094
:101DC00070888080808870050707060000F048480A
:101DD000484848F0050707060000F88080F080803A
:101DE000F8050707060000F88080F080808005076E
:101DF0000706000070888080988870050707060035
:101E000000888888F8888888030707060100E04072
:101E100040404040E0050707060000381010101051
:101E200090600507070600008890A0C0A090880574
:101E30000707060000808080808080F8050707067D
:101E4000000088D8A88888888805070706000088C9
:101E500088C8A898888805070706000070888888C1
:101E6000888870050707060000F08888F080808069
:101E700005070706000070888888A890680507078E
:101E8000060000F08888F0A090880507070600008B
:101E900070888070088870050707060000F8202009
:101EA0002020202005070706000088888888888869
:101EB00070050707060000888888885050200507AD
:101EC0000706000088888888A8A85005070706002C
:101ED00000888850205088880507070600008888F9
:101EE0005020202020050707060000F80810204099
:101EF00080F80309090601FFE080808080808080EF
:101F0000E005070706000080404020101008030984
:101F1000090601FFE020202020202020E005030307
:101F20000600052050880501010600FEF8030303A2
:101F30000601058040200505050600007008788828
:101F4000780507070600008080F0888888F005057E
:101F500005060000708080887005070706000008ED
:101F60000878888888780505050600007088F08064
:101F700070050707060000304840E0404040050774
:101F8000070600FE70888888780870050707060035
:101F9000008080F0888888880307070601004000D9
:101FA000C0404040E00409090601FE100030101056
:101FB0001010906005070706000080808890E09070
:101FC00088030707060100C04040404040E0050587
:101FD00005060000D0A8A8A8A8050505060000B0C1
:101FE000C8888888050505060000708888887005FF
:101FF00007070600FEF0888888F08080050707063E
:1020000000FE78888888780808050505060000B075
:10201000C880808005050506000078807008F005FE
:1020200007070600002020F82020201805050506D7
:10203000000088888898680505050600008888885B
:1020400050200505050600008888A8A8500505054C
:1020500006000088502050880507070600FE888883
:102060008850204080050505060000F8102040F843
:102070000309090601FF2040404080404040200104
:1020800009090602FF8080808080808080800309AB
:10209000090601FF80404040204040408005030386
:1020A00006000248A890FF554E4C4F414420464937
:1020B0004C414D454E54004C4F41442046494C4103
:1020C0004D454E540046494C414D454E54204348E1
:1020D000414E4745004261636B2D4C65667400427A
:1020E00061636B2D52696768740046726F6E742D60
:1020F00052696768740046726F6E742D4C65667421
:102100000043522D31302056332052656164792EC0
:10211000003E205365727669636520333030682154
:10212000003E205365727669636520353068210072
:102130005072696E74696E672E2E2E0063616E6335
:10214000656C005072696E742041626F72746564D0
:102150000055492041626F72746564004D3235202C
:10216000500A4D3234005072696E7420506175739C
:10217000656400526573756D650055492050617541
:1021800073650050617573696E672E2E2E0072653F
:1021900073756D65004D3234003F0049676E6F7294
:1021A0006500526573657400496E697469616C6994
:1021B0007A6520454550524F4D0000FE0003FF80D8
:1021C00007C7C00701E00000E00000F00000700455
:1021D00000700E00701F00703F80F00E00E00F01D5
:1021E000E007C7C003FF8000FE0000FE0003FF8081
:1021F00007C7C00F01E00E00E03F80F01F00700E27
:1022000000700400700000700000F00000E00701A2
:10221000E007C7C003FF8000FE000E000E000E00A6
:102220000E000E000E000E000E007FC03F801F004B
:102230000E00040004000E001F003F807FC00E004F
:102240000E000E000E000E000E000E000E00FFFF2E
:10225000FF7F80FFC0FFC0FFC07F807F80FFC0FF87
:10226000C0FFC03F001E000C0050726F6265205A14
:10227000204F66667365740052756E6F75742044E6
:10228000697374206D6D004C6F6164206D6D005535
:102290006E6C6F6164206D6D0046696C2E20446920
:1022A000612E004520696E206D6D5E3300416476BD
:1022B000616E6365204B004D33303320553120452E
:1022C00025692053256900504944204175746F7475
:1022D000756E65202A005049442D44202A0050493B
:1022E000442D49202A005049442D50202A0020081E
:1022F0002046616374002008204D6178002008208A
:102300004D696E004F6666004F6E004175746F74C4
:10231000656D70004D696E2054726176656C205356
:1023200070656564004D696E2056656C6F636974F5
:1023300079004D61782040205370656564004D61DF
:1023400078204520416363656C004D617820402012
:10235000416363656C0054726176656C2041636310
:10236000656C005265747261637420416363656CCF
:1023700000416363656C004D61782040204A6572BE
:102380006B0050726F6265205A204F6666736574E9
:102390000050726F62652059204F66667365740045
:1023A00050726F62652058204F66667365740040F6
:1023B0002073746570732F6D6D00416476616E6378
:1023C00065642053657474696E6773003F004361F0
:1023D0006E63656C00496E697400496E6974696169
:1023E0006C697A6520454550524F4D0046696C61D5
:1023F0006D656E740054656D70657261747572659B
:102400000053746570732F6D6D0050726F6265209C
:102410004F666673657473004A65726B004163634F
:10242000656C65726174696F6E004D6178205370E0
:1024300065656420286D6D2F732900436F6E666992
:102440006775726174696F6E004C617374205A3ADB
:1024500020002F00476F6F6420506F696E74733ACD
:10246000200050726F62696E6720506F696E740051
:1024700041646A7573742062656420756E74696C5A
:10248000207468652070726F626520747269676776
:102490006572732E00536B697000446F6E65004760
:1024A00032394E00436F726E6572732077697468BB
:1024B000696E20746F6C6572616E63652E20426573
:1024C00064207472616D6D65642E004261636B00FF
:1024D0004C6576656C005A2056616C756500496ED6
:1024E000646578205900496E6465782058005374FB
:1024F0006F72652053657474696E6773004C6F6109
:10250000642053657474696E677300426564205477
:1025100072616D6D696E670050726F6265205A203E
:102520004F66667365740046616465204865696737
:102530006874004F6666004F6E00426564204C650B
:1025400076656C696E670045646974204D657368D3
:10255000004C6576656C20426564004732394E0058
:10256000473239004175746F20486F6D65004D6FBB
:1025700074696F6E003F0043616E63656C204F624B
:102580006A656374004E4F005945530043616E63A2
:10259000656C204F626A656374203D004D61696E11
:1025A0000053572D4D6F64650053746F7700446579
:1025B000706C6F790053656C662D546573740052AE
:1025C0006573657400426564004E6F7A7A6C6500CD
:1025D00046616E20537065656400436F6E6669677F
:1025E00075726174696F6E00526573746F726520E5
:1025F00044656661756C7473004C6F61642053654B
:102600007474696E67730053746F726520536574D8
:1026100074696E677300536F756E640050726568FD
:10262000656174202420436F6E6600506F77657279
:10263000204F7574616765004F6666004F6E0052EB
:10264000756E6F75742053656E736F7200424C54D3
:102650006F7563680050726F6265205A204F66661E
:1026600073657400416476616E63656420536574BC
:1026700074696E6773004D61696E004D37303220AA
:10268000542564004D3630302042302054256400FB
:102690004D373032203B2564004D373031205425F2
:1026A00064004D373032004D373031004D36303018
:1026B000204230004D61696E00436F6E74696E7523
:1026C00065004F6666004F6E0052756E6F75742020
:1026D00053656E736F72005075726765206D6F720F
:1026E0006500524553554D45204F5054494F4E5368
:1026F0003A005052494E5420504155534544002F02
:1027000000200020204E6F7A7A6C653A20005061DC
:10271000726B696E672E2E2E00000057616974205F
:10272000666F720066696C616D656E7420636861C6
:102730006E676500746F207374617274005761690D
:102740007420666F720066696C616D656E742075C9
:102750006E6C6F616400004E6F7A7A6C65206865FC
:102760006174696E6700506C65617365207761699B
:10277000742E2E2E0000507265737320627574746F
:102780006F6E00746F2068656174206E6F7A7A6C6A
:10279000650000496E736572742066696C616D65D1
:1027A0006E7400616E64207072657373206275745C
:1027B000746F6E00746F20636F6E74696E75650060
:1027C0005761697420666F720066696C616D656E31
:1027D00074206C6F616400005072657373204275E1
:1027E00074746F6E00746F20726573756D65207000
:1027F00072696E7400005761697420666F72207090
:1028000072696E7400746F20726573756D652E2E1B
:102810002E00005761697420666F720066696C61F2
:102820006D656E7420707572676500003E20005300
:10283000657276696365203330306820003E200081
:102840005365727669636520353068200020696EB3
:102850003A003E2000256C642E25696D0045787491
:10286000727564656420546F74616C003E20004C86
:102870006F6E67657374204A6F622054696D6500DE
:102880003E20005072696E742054696D6500436F7C
:102890006D706C65746564003A20005072696E74E6
:1028A00020436F756E74003A2000313230003500DD
:1028B0004245443A204550434F53203130304B007D
:1028C00052756E617761792057617463683A204F61
:1028D0004E004D61782054656D7000323735004DE3
:1028E000696E2054656D7000350045313A204550C1
:1028F000434F53203130304B005053550047656EE5
:10290000657269630050726F746F636F6C00312E73
:10291000300042617564003235303030300043722F
:1029200065616C69747933442052414D50530042C3
:10293000696C696E656172204C6576656C696E675D
:10294000004578747275646572730031006D617250
:102950006C696E66772E6F72670043522D3130209E
:10296000563300323032332D30362D313700322E8F
:10297000312E322E31004D61726C696E00507269D9
:102980006E74657220537461747300546865726D5F
:102990006973746F727300426F61726420496E666E
:1029A0006F005072696E74657220496E666F004DDB
:1029B00061696E004D313030300053746F702050BB
:1029C00072696E7400526573756D65205072696E20
:1029D0007400506F776572204F75746167650047AA
:1029E00032370A4D31313720557365722053637287
:1029F00069707420446F6E65005061726B204E6F79
:102A00007A7A6C65004D61696E003F004261636BCC
:102A10000053746F70003F005365727669636520E0
:102A2000353068003F005365727669636520333046
:102A300030680052657365740043616E63656C00B5
:102A40005265736574004368616E67652046696C02
:102A5000616D656E7400536572766963652033300D
:102A60003068005365727669636520353068004EC2
:102A70006F204D65646961005072696E74206672E2
:102A80006F6D204D65646961004368616E67652004
:102A90004D65646961004D32310041626F7574208B
:102AA0005072696E74657200437573746F6D204364
:102AB0006F6D6D616E647300436F6E6669677572EA
:102AC0006174696F6E0054656D70657261747572C2
:102AD00065004D6F74696F6E00526573756D65208A
:102AE0005072696E740043616E63656C204F626A58
:102AF0006563740054756E650053746F7020507276
:102B0000696E74005061757365205072696E74004F
:102B1000496E666F2053637265656E003F005374A3
:102B2000617274205072696E740043616E63656CEB
:102B3000005072696E740043616E6E6F7420656E32
:102B4000746572207375626469723A200002202EE7
:102B50002E004D61696E002100486F74656E64201F
:102B6000746F6F20636F6C64004261636B0050721E
:102B70006F63656564004D6F766520457874727586
:102B8000646572004F6666004F6E00536F66742076
:102B9000456E6473746F7073004D6F74696F6E006F
:102BA00044697361626C65205374657070657273FB
:102BB000004D3834004D34382050726F6265205417
:102BC000657374004732384F0A4D34382050313025
:102BD00000426564204C6576656C696E67005472CE
:102BE000616D6D696E672057697A61726400537414
:102BF0006F77205A2D50726F6265004D343032006D
:102C00004465706C6F79205A2D50726F6265004D6B
:102C1000343031004732385A004732385900486F53
:102C20006D6520400047323858004175746F204868
:102C30006F6D65004D61696E005072656865617405
:102C40002024204265640050726568656174202408
:102C500020456E640054656D7065726174757265AF
:102C600000436F6F6C646F776E00507265686561CA
:102C70007420240046616E205370656564004265CF
:102C800064004E6F7A7A6C65004D61696E004D6527
:102C90006173757265004C6173742076616C756543
:102CA0002000426564205472616D6D696E67004456
:102CB0006F6E6500F620EA20DF20D52053656C6535
:102CC0006374204F726967696E00486F6D696E6743
:102CD0002058595A004732380050726F6265205AA6
:102CE000204F666673657400416476616E6365208B
:102CF0004B00466C6F770046616E205370656564CB
:102D000000426564004E6F7A7A6C650053706565A9
:102D100064004D61696E004572723A20454550521B
:102D20004F4D20436F7272757074004572723A2075
:102D3000454550524F4D20435243004572723A2050
:102D4000454550524F4D2053697A65004572723A9D
:102D500020454550524F4D2056657273696F6E0085
:102D6000486F6D696E67204661696C6564006F70BD
:102D7000656E00545249474745524544003A200089
:102D800066696C616D656E74007A5F70726F626502
:102D9000007A5F6D696E00795F6D696E00785F6DB6
:102DA000696E005265706F7274696E6720656E643B
:102DB00073746F70207374617475730A0020746F7C
:102DC0006F206C6F6E6720657874727573696F6EB3
:102DD0002070726576656E7465640A0020636F6C9E
:102DE0006420657874727573696F6E207072657691
:102DF000656E7465640A00486F6D65202573204612
:102E000069727374000000A0C00000A0C000000040
:102E1000005761726E696E673A20486F6D696E6720
:102E20002042756D702044697669736F72203C2072
:102E3000310A000202040080984300809843000099
:102E4000C8430000A0400000A04000000040000077
:102E500000010000000100008000555555000000F1
:102E6000400033333300AAAA2A004992240000000C
:102E70002000C7711C0099991900D14517005555BC
:102E800015003BB11300244912001111110000007C
:102E900010000F0F0F00E3380E0043790D00CCCC6B
:102EA0000C00C3300C00E8A20B0064210B00AAAA9E
:102EB0000A00703D0A009DD80900427B0900922457
:102EC0000900DCD3080088880800104208000000D0
:102ED0000800F0C107008787070075500700711CC4
:102EE00007003EEB0600A1BC06006990060066667E
:102EF0000600703E06006118060017F4050074D144
:102F000005005BB00500B2900500627205005555E2
:102F1000050078390500B81E0500050505004EECD2
:102F2000040087D40400A1BD040090A704004992C6
:102F30000400C17D0400EE690400C7560400444447
:102F400004005C3204000821040041100400000069
:102F500004003FF00300F8E0030026D20300C3C3DF
:102F60000300CCB503003AA803000A9B0300388E87
:102F70000300C08103009F750300D0690300505E09
:102F800003001D53030034480300913D0300333315
:102F9000030016290300381F030097150300300CA7
:102FA0000300030303000BFA020049F10200BAE830
:102FB00002005CE002002DD802002DD0020059C8AA
:102FC0000200B0C0020031B90200DAB10200AAAAC0
:102FD0000200A0A30200BC9C0200FA9502005C8FD4
:102FE0000200DF88020082820200457C0200277610
:102FF000020027700200436A02007C640200D05E77
:1030000002003F590200C8530200FFFDFCFAF8F627
:10301000F4F2F0EEECEAE9E7E5E3E1E0DEDCDAD950
:10302000D7D5D4D2D0CFCDCBCAC8C7C5C3C2C0BFF5
:10303000BDBCBAB9B7B6B4B3B2B0AFADACAAA9A86B
:10304000A6A5A4A2A1A09E9D9C9A999897959493B9
:1030500092908F8E8D8B8A898887868483828180E7
:103060007F7E7D7B7A797877767574737271706FF5
:103070006E6D6C6B6A696867666564636261605FE8
:103080005E5D5C5B5A5958585756555453525150CF
:10309000504F4E4D4C4B4A4A49484746464544439B
:1030A000424241403F3E3E3D3C3B3B3A3938383757
:1030B000363535343332323130302F2E2E2D2C2B05
:1030C0002B2A2929282727262525242323222121A5
:1030D00020201F1E1E1D1C1C1B1B1A191918181737
:1030E0001616151514131312121111100F0F0E0EC0
:1030F0000D0D0C0C0B0A0A0909080807070606053E
:10310000050404030302020100003D3D3D3D3D3D39
:103110003D3D3D3D3D3D3D3D3D3D3D3D3D3D3D3DDF
:103120003D3D3D3D3D3D3D3D3D3D3D3D3D3D3D3DCF
:103130003D3D3D3D3D3D3D0A00210A002053657265
:103140007669636520333030680020536572766994
:103150006365203530680053544F505045442E204D
:10316000005072696E7465722073746F707065645C
:103170002064756520746F206572726F72732E20E3
:1031800046697820746865206572726F7220616E7E
:103190006420757365204D39393920746F2072654C
:1031A00073746172742E202854656D706572617439
:1031B0007572652069732072657365742E2053657E
:1031C000742069742061667465722072657374611D
:1031D0007274696E67290A00206572726F72202D01
:1031E00020726573746172742077697468204D3938
:1031F00039390A00424C546F75636800212120530D
:10320000544F502063616C6C656420626563617526
:103210007365206F6620000000964300009643000F
:1032200000C8430000A0C00000A0C0000000005380
:10323000657474696E67732053746F7265640029D6
:103240000A002062797465733B2063726320005327
:10325000657474696E67732053746F726564202897
:103260000048617264636F646564204465666175DB
:103270006C742053657474696E6773204C6F61645D
:1032800065640020286D6D2900203B204C65766523
:103290006C696E67200020204D343230205300418D
:1032A00075746F20426564204C6576656C696E6745
:1032B0000020460020480020204D313435205300A6
:1032C0004D6174657269616C206865617475702008
:1032D000706172616D65746572730020204D3930C4
:1032E00030204B004C696E65617220416476616EDE
:1032F000636500203B2053656E736F72200020448D
:103300000020204D34313220530046696C616D65D8
:103310006E742072756E6F75742073656E736F7244
:1033200000204A0020204732392057204900202021
:103330004D3134392043203B20556E697473206928
:103340006E2043656C736975730A0054656D706512
:1033500072617475726520556E6974730020204720
:103360003231203B004C696E65617220556E697484
:103370007300454550524F4D206461746173697A02
:1033800065206572726F722E0A004572723A20458E
:103390004550524F4D2043524300202863616C63D7
:1033A000756C6174656429210A0020213D20004567
:1033B0004550524F4D20435243206D69736D6174E7
:1033C0006368202D202873746F726564292000457E
:1033D0004550524F4D20436F72727570740A002031
:1033E00053697A653A2000496E6465783A20005343
:1033F000746F7265642073657474696E677320728C
:10340000657472696576656400290A0020627974C2
:1034100065733B2063726320002073746F72656470
:103420002073657474696E67732072657472696560
:1034300076656420280000004843000048430000EF
:1034400060410000C8410000A0420000A04200000E
:10345000C8430080CB43F4010000F4010000640085
:103460000000E8030000204D61726C696E3D563823
:1034700038290A00454550524F4D207665727369D0
:103480006F6E206D69736D617463682028454550C7
:10349000524F4D3D0024F404D9201BC40C5C0E98FF
:1034A00004C4095F0265077101F405F900FB04B368
:1034B0000048048700C10369005803550003034511
:1034C00000BE023A008402310053022A002902257C
:1034D0000004022000E4011C00C8011900AF01171C
:1034E00000980114008401130071011000610110A3
:1034F0000051010E0043010D0036010B002B010BA2
:103500000020010B00150109000C0109000301084E
:1035100000FB000800F3000800EB000700E40006D1
:1035200000DE000600D8000600D2000600CC000530
:1035300000C7000500C2000500BD000400B900047A
:1035400000B5000400B1000400AD000400A90004AF
:1035500000A5000300A20003009F0004009B0003DD
:103560000098000300950002009300030090000300
:10357000008D0002008B000300880002008600021C
:103580000084000300810002007F0002007D000231
:10359000007B000200790002007700010076000243
:1035A000007400020072000100710002006F00024E
:1035B000006D0001006C0002006A00010069000259
:1035C0000067000100660001006500010064000260
:1035D000006200010061000100600001005F000264
:1035E000005D0001005C0001005B0001005A000169
:1035F0000059000100580001005700010056000169
:103600000055000100540001005300000053000168
:10361000005200010051000100500001004F000164
:10362000004E0000004E0001004D0001004C000162
:10363000004B0000004B0001004A0001004900015E
:10364000004800000048000100470001004600005B
:103650000046000100450000004500010044000153
:10366000004300000043000100420000004200014E
:10367000004100000041000100400001003F000047
:10368000003F0001003E0000003E0001003D000040
:10369000003D0001003C0000003C0000003C000137
:1036A000003B0000003B0001003A0000003A00012E
:1036B0000039000000390001003800000038000027
:1036C000003800010037000000370001003600001C
:1036D0000036000000360001003500000035000013
:1036E0000035000100340000003400000034000107
:1036F00000330000003300000033000100320000FE
:1037000000320000003200010031000000310000F2
:1037100000310001003000000030000000300001E6
:10372000002F0000002F0000002F0000002F0001DC
:10373000002E0000002E0000002E0001002D0000D1
:10374000002D0000002D0000002D0001002C0000C5
:10375000002C0000002C0000002C0001002B0000B9
:10376000002B0000002B0000002B0001002A0000AD
:10377000002A0000002A0000002A000100290000A1
:103780000029000000290000002900000029000194
:103790000028000000280000002800000028000089
:1037A000002800010027000000270000002700007B
:1037B000002700000027000100260000002600006E
:1037C0000026000000260000002600010025000061
:1037D0000025000000250000002500000025000055
:1037E0000025000100240000002400000024000047
:1037F000002400000024000100230000002300003A
:10380000002300000023000000230000002300002C
:10381000002300010022000000220000002200001E
:103820000022000000220000002200010021000010
:103830000021000000210000002100000021000004
:1038400000210000002100010020000000200000F5
:1038500000200000002000000020000000200000E8
:103860000020000000200001001F0000001F0000D9
:10387000001F0000001F0000001F0000001F0000CC
:10388000001F0001001E0000001E0000001E0000BE
:10389000001E00000024F4D43050C38E20C2A24089
:1038A00017828B7011127A910D816CD90AA861E18F
:1038B00008C7586607615143061E4B5D05C145A701
:1038C000041A411104093D9803713931034036DB74
:1038D0000265339102D4305402802E1D02632CEE17
:1038E00001752AC501B028A001102781018F256428
:1038F000012B244B01E0223401AC211F018D200D4E
:1039000001801FFC00841EED00971DDF00B81CD253
:1039100000E61BC600201BBC00641AB200B219A846
:10392000000A19A0006A189900D117910040178B5E
:1039300000B516840031167E00B31579003A157370
:1039400000C7146F0058146A00EE136600881363F2
:103950000025135E00C7125B006C1257001512544D
:1039600000C111510070114F0021114B00D61049B8
:10397000008D1047004610440002104200C00F4066
:1039800000800F3E00420F3C00060F3B00CB0E387C
:1039900000930E37005C0E3500270E3400F30D3215
:1039A00000C10D3100900D3000600D2E00320D2D44
:1039B00000050D2C00D90C2B00AE0C2900850C291C
:1039C000005C0C2700350C27000E0C2600E80B24A9
:1039D00000C40B2400A00B23007D0B23005A0B21F5
:1039E00000390B2100180B2000F80A1F00D90A1E0D
:1039F00000BB0A1E009D0A1D00800A1D00630A1CF0
:103A000000470A1B002C0A1B00110A1A00F7091AAA
:103A100000DD091900C4091900AB09190092091742
:103A2000007B091800630917004C091600360916B7
:103A300000200916000A091500F5081500E0081411
:103A400000CC081400B8081400A40814009008134F
:103A5000007D0812006B0813005808120046081277
:103A60000034081100230811001208110001081188
:103A700000F0071000E0071000D0071000C007108A
:103A800000B0070F00A107100091070E0083070F79
:103A90000074070F0065070E0057070E0049070E58
:103AA000003B070D002E070E0020070D0013070D29
:103AB0000006070D00F9060C00ED060D00E0060CEF
:103AC00000D4060C00C8060C00BC060C00B0060CA6
:103AD00000A4060B0099060C008D060B0082060B55
:103AE0000077060B006C060B0061060A0057060BF8
:103AF000004C060A0042060A0038060A002E060A92
:103B00000024060A001A060A001006090007060A21
:103B100000FD050900F4050900EB050900E20509AF
:103B200000D9050900D0050900C7050900BE05092F
:103B300000B5050800AD050800A50509009C0508AD
:103B400000940508008C050800840508007C050821
:103B500000740508006C050700650508005D050791
:103B600000560508004E05070047050700400508F8
:103B70000038050700310507002A0507002305075F
:103B8000001C050600160507000F050700080506BE
:103B90000002050700FB040600F5040700EE04061A
:103BA00000E8040600E2040700DB040600D5040672
:103BB00000CF040600C9040600C3040600BD0406C5
:103BC00000B7040600B1040500AC040600A6040614
:103BD00000A00405009B040600950405009004065F
:103BE000008A04050085040500800406007A0405A7
:103BF0000075040500700405006B040500660405EB
:103C000000610405005C040500570405005204052A
:103C1000004D04050048040500430405003E04046B
:103C2000003A04050035040500300404002C0405A6
:103C30000027040400230405001E0404001A0404E1
:103C40000016040500110404000D04040009040515
:103C5000000404040000040400FC030400F803044E
:103C600000F4030400F0030400EC030400E8030480
:103C700000E4030400E0030400DC030400D80304B0
:103C800000D4030400D0030400CC030400C80303E1
:103C900000C503030020436F756E7420583A00423C
:103CA0006564004531004500626564002C2073792D
:103CB0007374656D2073746F70706564212048653E
:103CC000617465725F49443A20004572723A204D32
:103CD000415854454D50004D415854454D50207465
:103CE00072696767657265640048656174696E67CB
:103CF000204661696C65640048656174696E67207F
:103D00006661696C6564004D353234004D31313285
:103D10002053687574646F776E004572723A204D57
:103D2000494E54454D50004D494E54454D50207418
:103D3000726967676572656400544845524D414C2D
:103D40002052554E4157415900546865726D616C5F
:103D50002052756E6177617900202F002042403A31
:103D60000020403A0020573A0020573A00496E762A
:103D7000616C69642065787472756465720A007C90
:103D80003C3E5E2B3D3F2F5B5D3B2C2A225C00437B
:103D9000616E6E6F74206F70656E207375626469FA
:103DA0007220004D6564696120496E697420466126
:103DB000696C0053442063617264206F6B0A006F6A
:103DC00070656E526F6F74206661696C65640A007D
:103DD000766F6C756D652E696E6974206661696CAD
:103DE00065640A004E6F20534420636172640A00C8
:103DF000534420636172642072656C65617365640D
:103E00000A000A4D3234004D3233202573002E0A49
:103E1000006F70656E206661696C65642C20466970
:103E20006C653A200046696C652073656C65637447
:103E300065640A002053697A653A200046696C651A
:103E4000206F70656E65643A2000454E44205355DE
:103E500042524F5554494E450A002220706F73005C
:103E60002220706172656E743A2200535542524F9F
:103E70005554494E452043414C4C2074617267654E
:103E8000743A220053756263616C6C204F766572E0
:103E9000666C6F77004578636565646564206D6165
:103EA0007820535542524F5554494E452064657011
:103EB00074683A002E0A0044656C6574696F6E2060
:103EC0006661696C65642C2046696C653A20004621
:103ED000696C652064656C657465643A005045548E
:103EE0004700504C410020583A0057726974696E7F
:103EF0006720746F2066696C653A2000667265738E
:103F00006800646F696E67002066696C653A20001E
:103F10004E6F7720002F6175746F25632E67000048
:103F2000000000000000600000000000FC00000F26
:103F3000F00000000007E00000000001861FC0182C
:103F4000700000000000603C0C000001830C601059
:103F5000300000000000603C0C000001830C303099
:103F600030000000000060000C000000030C18305E
:103F700000000000000060003F0F3C00030C0C60DC
:103F800001DF0FE0FE00601C1C061800060C0C6030
:103F900000F318318300600C0C0318001E0C0C6039
:103FA00000E030398300600C0C033000030C0C601F
:103FB00000C030380F00600C0C033000018C0C6026
:103FC00000C03FF8FB00600C0C033000018C0C605B
:103FD00030C030018300600C0C01F001818C0C605A
:103FE00030C030018300600C0C00E001818C18307F
:103FF00030C018318300600C0C40E001838C301815
:1040000060C00C6187C0E01C0CC06000C30C600F76
:10401000C3F007C0FFC7FC7F0781C0007E1FC00040
:104020000000000000000000000700000000000089
:104030000000000000000000000700000000006D0C
:1040400061726C696E66772E6F726700322E312E48
:10405000322E31001FFFFFFFFFFFFF600000000056
:1040600001FF400000000000FF8000000000007F12
:1040700083CF00000C303F87FF80000C301F867913
:1040800080000C000F8C30C7838C30E78C30CFC79A
:10409000CC31F38C30DCECEC33B98C30D86C6C3335
:1040A000198C30D06C0C33198C30D86C0C33198CC3
:1040B00030DC6C0E3B198C30CF7C079F198C30C7DD
:1040C0007C038F1940000000000002600000000027
:1040D00000061FFFFFFFFFFFF870012C0190012772
:1040E00001B0012201C0011D01F0011801100213ED
:1040F0000130020E016002090190020401C002FFBA
:10410000000003FA004003F5008003F000D003EB49
:10411000002004E6007004E100E004DC004005D764
:1041200000C005D2004006CD00D006C8008007C3FD
:10413000003008BE00F008B900C009B400B00AAFF2
:1041400000B00BAA00D00CA500000EA000500F9BE1
:1041500000C01096005012910000148C00C015870A
:1041600000B0178200B0197D00D01B7800001E73CC
:104170000040206E0090226900F024640040275F18
:104180000090295A00E02B5500102E500020304B93
:104190000010324600E033410090353C00103737C4
:1041A0000070383200A0392D00B03A2800A03B231F
:1041B00000603C1E00103D1900903D1400103E0FA1
:1041C00000703E0A00C03E0500003F0000403FFB7B
:1041D000FF803FF6FFC03FF1FF2020506C616E6E04
:1041E000657242756666657242797465733A20003D
:1041F0002046726565204D656D6F72793A2000200A
:10420000436F6D70696C65643A204A756E20313772
:1042100020323032330A00204C61737420557064B0
:10422000617465643A20323032332D30362D3137A7
:10423000207C20417574686F723A2046695A692063
:104240006261736564206F6E204161726F6E204AF7
:104250007573742C20435231302D56330A004D6152
:10426000726C696E20322E312E322E310A002053AC
:104270006F6674776172652052657365740A0020F9
:104280005761746368646F672052657365740A00D0
:104290002042726F776E206F75742052657365745B
:1042A0000A002045787465726E616C2052657365F2
:1042B000740A00506F77657255700A0073746172EA
:1042C000740A004732385859004D3130303100659A
:1042D00072726F722077726974696E6720746F20D2
:1042E00066696C650A00446F6E6520736176696E5D
:1042F000672066696C652E0A004D323900456E6490
:1043000073746F7073002553202563202563202567
:10431000632025630020503A00205A3A0020593A81
:104320000020583A00656E6473746F70732068697A
:10433000743A200000000A0B02090C0D0E08070356
:104340000401000000000000000000000000000068
:10435000000000000000000000000000000000005D
:10436000121110000000000000000000000000001A
:1043700000000000000000000000702600009B1EEE
:104380000000C3150000C70D0000F40700004F0433
:10439000000040020000260100004D6F76652024D9
:1043A0006D6D00302E303235004D6F766520302E29
:1043B000316D6D004D6F766520316D6D004D6F76FE
:1043C000652031306D6D004D6F76652041786973E1
:1043D000004D6F7665202A004D6F7665204000E223
:1043E0003EDD3E4368616E67652046696C616D65C0
:1043F0006E7400556E6C6F61642046696C616D650A
:104400006E74004C6F61642046696C616D656E74FA
:10441000005072656865617420437573746F6D0038
:10442000507265686561742024004261636B0020EE
:10443000005072696E742066726F6D204D656469FC
:1044400061002000200020746F6F206C6F6E672069
:10445000657874727573696F6E2070726576656EBB
:104460007465640A0020636F6C64206578747275EB
:1044700073696F6E2070726576656E7465640A008C
:1044800070726F6D70745F00626567696E00446979
:104490007361626C6552756E6F75740050757267EA
:1044A000654D6F72650050617573656400436F6E92
:1044B00074696E7565004C6F61642046696C616D4E
:1044C000656E74205400496E736572742066696C61
:1044D000616D656E7420616E642073656E64204D3D
:1044E0003130380A00726573756D65640044697314
:1044F0006D69737300526573756D696E67005072F4
:104500006F62696E67204661696C656400205A3A83
:10451000200020593A200042656420583A2000FFCC
:10452000FFFFE63E31462D462946000022002500C9
:1045300028002B002E00310034000201000005018C
:1045400008010B0100002100240027002A002D0093
:104550003000330001010000040107010A010505D4
:104560000505070508080808020202020A0A0808E9
:104570000404040401010101010101010303030317
:1045800003030303040707070C0C0C0C0C0C0C0CA6
:104590000202020206060606060606060B0B0B0BB7
:1045A0000B0B0B0B010210202008081020401020DC
:1045B00040800201020108040201010204081020E7
:1045C00040808040201008040201800402018040E5
:1045D000201008040201080402010102040810204E
:1045E00040800102040810204080204500205A002D
:1045F00020590020204D39322058005374657073C3
:104600002070657220756E697400220A00556E6B09
:104610006E6F776E20636F6D6D616E643A2022005D
:104620002042002050006F6B0020453A00205A3A8B
:104630000020593A00583A006F6B0A0052657365C2
:104640006E643A200000C400B80011241FBECFEFF2
:10465000D1E2DEBFCDBF00E00CBF84B78093ED1A7E
:1046600014BE0FB6F894A89580916000886180937D
:104670006000109260000FBE14E0A0E0B2E0E6E23D
:10468000F2E103E00BBF02C007900D92A036B10724
:10469000D9F72AE1A0E6B4E001C01D92AD3EB20711
:1046A000E1F713E2C4E2D3E200E006C0219701097A
:1046B000802FFE010F949985C332D10780E008074F
:1046C000A9F70F94DE710D9402890C940000FC018F
:1046D000A081B1811C92A281B3818C918F5F8C9358
:1046E0000280F381E02D90818CE0989F800D112451
:1046F000E2E9F8E113AE84AF0895FC0184910895D6
:10470000FC0180810895119800C09091020187FDFD
:104710009095917090930001119A00C000C011987B
:1047200000C09091020186FD9095917090930001D8
:10473000119A00C000C0119800C09091020185FD3F
:104740009095917090930001119A00C000C011984B
:1047500000C09091020184FD9095917090930001AA
:10476000119A00C000C0119800C09091020183FD11
:104770009095917090930001119A00C000C011981B
:1047800000C09091020182FD90959170909300017C
:10479000119A00C000C0119800C09091020181FDE3
:1047A0009095917090930001119A00C000C01198EB
:1047B00000C080910201817080930001119A00C0B5
:1047C00000C0089590E080E00895CF93DF93C091FA
:1047D000AD17D091AE1781E0CE31D105E4F020E0E5
:1047E00030E040E05FE36091A9177091AA178091D3
:1047F000AB179091AC170F94A2850F94E6866C1BB3
:104800007D0B77FF03C071956195710981E063307D
:1048100071050CF080E0DF91CF910895CF93DF9385
:10482000DB01F9019C919130C1F0943080F09450FB
:104830009C938830D1F480819181009771F0019729
:1048400091838083480F591FEA01188206C08C3576
:1048500039F49C5F9C93943041F4DF91CF9108959B
:104860008B3339F781E08C93F8CF20813181B90106
:104870006F5F7F4F71836083420F531FEA0188830C
:10488000808191818F3591056CF7E7CF0F931F934E
:1048900081E00091D8181091D9182091DA18309140
:1048A000DB184091D4185091D5186091D6187091AA
:1048B000D718041715072607370708F480E01F915B
:1048C0000F91089590E080E008952091E3058330F2
:1048D00021F425FD0CC024FD0CC030E0A90102C06C
:1048E000559547958A95E2F7CA018170089581E050
:1048F000089580E008958091FE0584FD0BC08091AD
:10490000000687FD07C090910106937081E019F4BD
:1049100080E0089581E00895CF92DF92EF92FF92B8
:10492000CF93DF93EC01CC80DD80EE80FF8022ED21
:1049300030E040EA50ECC701B6010F94C98787FD0B
:1049400023C023E030E046E953E4C701B6010F94E9
:10495000D27E1816CCF0C880D980EA80FB8022ED88
:1049600030E040EA50ECC701B6010F94C98787FDDB
:104970000BC0C1E023E030E046E953E4C701B601D3
:104980000F94D27E18160CF4C0E08C2FDF91CF91DB
:10499000FF90EF90DF90CF900895682F70E090E047
:1049A00080E00F94D87E2091240730912507409114
:1049B0002607509127070F94377F209117073091D2
:1049C00018074091190750911A070D94A285682F76
:1049D00070E090E080E00F94D87E20912007309125
:1049E000210740912207509123070F94377F209190
:1049F00013073091140740911507509116070D9435
:104A0000A2852FEB280F2A3108F047C0E22FF0E0F3
:104A10008091FE059091FF05A0910006B0910106DE
:104A200004C0B695A795979587952A95D2F780FDEE
:104A300002C081700895EC51FA4FE081EE2341F1FC
:104A40008091551290915612E80FF92FF11D808137
:104A500090ED980F9A3030F08E3251F4818180536E
:104A60008A3098F4F093D705E093D60581E0089555
:104A70008D3211F08B3249F4818190ED980F9A308C
:104A800088F38E3211F48281EACFF0E0E0E0EACFE1
:104A90001092D7051092D605E9CF80E00895B1DFD6
:104AA000882341F081E02091D6053091D705232B52
:104AB00009F480E00895282F80932B02803240F57E
:104AC00080914106281724F081E0820F80934106EF
:104AD00081E090E002C0880F991F2A95E2F7092E25
:104AE000000CAA0BBB0B40913D0650913E06609115
:104AF0003F067091400684239523A623B72321E027
:104B0000892B8A2B8B2B09F420E02093B709089579
:104B10001092B7090895109239118091570290911F
:104B20005802A0915902B0915A0280939D07909328
:104B30009E07A0939F07B093A0070895269A2E9AE8
:104B400008958F929F92AF92BF92CF92DF92EF9291
:104B5000FF92FC01828158E5C52E52E0D52EC81A7D
:104B6000D10887FDD394CC0CDD1CCC0CDD1C0D2CA6
:104B7000000CEE08FF08818178E8872E912C881AB6
:104B8000910887FD9394880C991C880C991C092C1A
:104B9000000CAA08BB0880818F3FD1F190E0FC0196
:104BA000EE0FFF1FE80FF91FE350F84E818192814D
:104BB00033E0880F991F3A95E1F7B0E0A0E044E0B8
:104BC000B595A795979587954A95D1F702969C013B
:104BD0002F5F3F4F032E000C440B550B281939094A
:104BE0004A095B09A4EBB0E00F943A85A70196014E
:104BF000281939094A095B090F941E85C901FF90DC
:104C0000EF90DF90CF90BF90AF909F908F900895DE
:104C100090E080E0DCCFCF93DF93C091AD17D091CF
:104C2000AE17209729F16091A9177091AA1780916A
:104C3000AB179091AC170F94E6866E5F7F4F249769
:104C40006C177D07ACF47093B6076093B5070F94AB
:104C5000F362605E70448D4F9F4F6093B70770930F
:104C6000B8078093B9079093BA07DF91CF91089561
:104C70001092B7071092B8071092B9071092BA07AE
:104C8000F4CFBF92CF92DF92EF92FF920F931F93D8
:104C9000CF93DF936B01E9014A3009F4DFC045315E
:104CA00009F08AC0DB011296ED91FC911281C68158
:104CB000D78180910201809582708093000100C0AD
:104CC000000086E290E00197F0F7012F0295007F47
:104CD00020E1B22EB10E88EF16DD00C0000086E2A2
:104CE00090E00197F0F7103208F0A5C0812F80778F
:104CF000806809DD802F07DD00C0000086E290E0BB
:104D00000197F0F780E8FFDC80E0FDDC00C00000E8
:104D100086E290E00197F0F78AEFF5DC00C0000032
:104D200086E290E00197F0F77E01B0E1EB0EF11C16
:104D30008881807FE8DC89918295807FE4DCCE15D4
:104D4000DF05B1F700C0000086E290E00197F0F7C0
:104D50001F5F005F1B11BFCF8091020182708093A3
:104D60000001D6011296ED91FC9180819281980FFD
:104D700092832181921708F0EDC194819F5F948303
:104D80009381890F821710F08FEF820F8383458103
:104D900050E0440F551F70E060E0868197810F94CA
:104DA000AE8881E0DF91CF911F910F91FF90EF903E
:104DB000DF90CF90BF900895FB01028113814233B1
:104DC00009F4CAC108F4D2C1463409F4BFC147345A
:104DD00009F4C7C14B3329F789812B81D801129679
:104DE0006C91129713964C91213009F404C2233030
:104DF00009F0E5C138EF380F582F91E0431708F458
:104E000090E041E0531708F040E031E0561708F415
:104E100030E0592F542B352319F4942309F4C1CFD2
:104E2000FA8030E0F901E15FFC4FD080255F3C4F14
:104E3000F901E080DDC180EE810F8068807F63DC56
:104E4000812F8295807F5FDC00C0000086E290E0C9
:104E50000197F0F780E857DC80E857CF8091010197
:104E60008260809301018091020182708093000131
:104E70008091010181608093010180910201817024
:104E800080930001099A119A8091020180958270A5
:104E90008093000100C0000086E290E00197F0F7E7
:104EA00088E790E0CEE9DFE0FE013197F1F7019766
:104EB000D9F788EF28DC00C0000086E290E0019777
:104EC000F0F780E220DC80E01EDC00C0000086E21B
:104ED00090E00197F0F780E016DC80E814DC00C079
:104EE000000086E290E00197F0F780E00CDC80E1C2
:104EF0000ADC00C0000086E290E00197F0F7CE01E6
:104F00000197F1F7CE010197F1F7CE010197F1F783
:104F1000CE010197F1F7CE010197F1F7CE0101978C
:104F2000F1F7CE010197F1F7CE010197F1F7CE012C
:104F30000197F1F7CE010197F1F7CE010197F1F753
:104F4000CE010197F1F7CE010197F1F7CE0101975C
:104F5000F1F72197F1F780E2D6DB80E4D4DB00C0E3
:104F6000000086E290E00197F0F780E2CCDB80E67B
:104F7000CADB00C0000086E290E00197F0F7D0E0C5
:104F8000C0E08C2F80778068BEDB8D2FBCDB00C03B
:104F9000000086E290E00197F0F780E8B4DB80E063
:104FA000B2DB00C0000086E290E00197F0F78AEFE4
:104FB000AADB00C0000086E290E00197F0F790E2E3
:104FC000119800C080910201817080930001119AB4
:104FD00000C000C0119800C08091020181708093D0
:104FE0000001119A00C000C0119800C08091020118
:104FF000817080930001119A00C000C0119800C018
:1050000080910201817080930001119A00C000C05C
:10501000119800C080910201817080930001119A63
:1050200000C000C0119800C080910201817080937F
:105030000001119A00C000C0119800C080910201C7
:10504000817080930001119A00C000C0119800C0C7
:1050500080910201817080930001119A00C000C00C
:10506000119800C080910201817080930001119A13
:1050700000C000C0119800C080910201817080932F
:105080000001119A00C000C0119800C08091020177
:10509000817080930001119A00C000C0119800C077
:1050A00080910201817080930001119A00C000C0BC
:1050B000119800C080910201817080930001119AC3
:1050C00000C000C0119800C08091020181708093DF
:1050D0000001119A00C000C0119800C08091020127
:1050E000817080930001119A00C000C0119800C027
:1050F00080910201817080930001119A00C000C06C
:1051000000C00000E6E2F0E03197F0F7915009F0BE
:1051100057CF88EFF8DA00C0000086E290E00197F0
:10512000F0F7CF5FD05FC03209F02BCF80E0EBDA31
:1051300080ECE9DA00C0000086E290E00197F0F729
:10514000809102018270809300012BCEF80185814D
:10515000888327CE80E026CEB901C8010F948B63E7
:1051600020CED80111968C9188831BCE443191F0CA
:10517000473109F016CE1882D80112968C911297F9
:10518000898315968C91159781508A8313968C91FB
:105190008B8307CED80115964C91159750E0440F9C
:1051A000551F70E060E016968D919C910F94AE882B
:1051B000F80112828081815083831482F2CD4817D6
:1051C00008F4EFCD861708F4ECCDFA80E12CD12C51
:1051D000243070F426CEBE01C8010F948B63898100
:1051E00098819D0D98838E0D8983FF0C09F4D9CD8C
:1051F000F7FEF6CFF0CF58E0580F382FFECDEF92E4
:10520000FF920F931F93CF93DF93EC018B017A01F1
:105210008A859B858617970731F0888199810F943D
:10522000BD651B870A87B701888199810F944B5E02
:105230002E813F81820F932F911D9F838E8390E05B
:1052400080E0DF91CF911F910F91FF90EF90089533
:105250009F92AF92BF92CF92DF92EF92FF920F9305
:105260001F93CF93DF93EC018B01942EA52E8A859B
:105270009B858617970731F0888199810F94BD65CA
:105280001B870A8788859985019649F5BC800A8124
:105290008E81080FC880D980D6015596ED91FC917A
:1052A000C6011995B80EE92CFA2C10E0F7012191EE
:1052B0007F01211127C08E819F81810F911D9F83C6
:1052C0008E8390E080E0DF91CF911F910F91FF904E
:1052D000EF90DF90CF90BF90AF909F9008950E8198
:1052E0001F81692D7A2D888199810F944B5E800FE3
:1052F000912F911D288539852817390738F681E0C7
:1053000090E0E1CF4B2D602FC6010F941566080F7A
:10531000180FCCCFDF92EF92FF920F931F93CF9392
:10532000DF93EC01D62E1CAD0BAD7C0184E0E80EC2
:10533000F11CE98DFA8DC7011995412F480F2D2DCC
:10534000602FC7010F9415669BAD890F8BAF81E06D
:1053500090E0DF91CF911F910F91FF90EF90DF9040
:1053600008952F923F924F925F926F927F928F9209
:105370009F92AF92BF92CF92DF92EF92FF920F93E4
:105380001F93CF93DF93CDB7DEB72D970FB6F89469
:10539000DEBF0FBECDBF8091DC11813031F0809136
:1053A000DC1882FF6EC087FD6CC00F946A2A4B0127
:1053B0005C0145E050E060E270E086E196E00F9429
:1053C000AE8885E4809314068AE380931506C501B0
:1053D000B40120E13EE040E050E00F94FC84D22E86
:1053E000C32E022F132F8CE3282E312C412C512C4D
:1053F000C501B401A20191010F94FC84762E672EA1
:10540000CA01B901A20191010F94FC849E012F5F92
:105410003F4F790130E8831631E5930631E0A3066A
:10542000B10408F447C07F936F93C80168E170E04E
:105430000F9472859F938F93C501B40120E831E5E5
:1054400041E050E00F94FC843F932F938EE09AE16B
:105450009F938F93FF92EF920F946B7EC7010F94EF
:10546000217E0FB6F894DEBF0FBECDBF2CE030E03A
:10547000A901481B5109CA01B7018C5E994F0F94CD
:10548000D3882D960FB6F894DEBF0FBECDBFDF9147
:10549000CF911F910F91FF90EF90DF90CF90BF9031
:1054A000AF909F908F907F906F905F904F903F90C4
:1054B0002F9008950115110599F46F927F927F93B3
:1054C0006F9382E09AE19F938F93FF92EF920F94F4
:1054D0006B7E0FB6F894DEBF0FBECDBF85E0C6CFA2
:1054E0000436110538F47F936F93CF92DF9286EFE5
:1054F00099E1E9CF7F936F93CF92DF928CEE99E1A0
:105500009F938F93FF92EF920F946B7E0FB6F89458
:10551000DEBF0FBECDBF86E0A9CFCF93C0912206DC
:10552000CC23B1F04CE050E060E270E084E196E022
:105530000F94AE888C2F0F94B92FFC0193E0A8E153
:10554000B6E001900D929A95E1F785E280931B06F3
:10555000CF910895CF9380910906811154C0109284
:10556000CD181092CE181092CF1810929B1810924E
:105570009A1810929D1810929C1810929F1881E012
:1055800080939E1882E28093A0181092A518109222
:10559000A418E9EBF8E127EC38E18FEF81932E179F
:1055A0003F07E1F7C1E0C093B6182AE930E0309335
:1055B000AC182093AB18C093AD181092AE1810928F
:1055C000AF1890E49093B0181092B1182AEA30E026
:1055D0003093C8182093C71827E132E03093991808
:1055E0002093981897E19093BD1891E19093BE187D
:1055F00090E19093BB188093BA188093B9180F94D8
:10560000C963C093090681E080930B0682EE99E19D
:1056100090937217809371171092741710927317EA
:10562000CF910895CF92DF92EF92FF920F931F9345
:10563000CF93DF93CDB7DEB72C970FB6F894DEBFCC
:105640000FBECDBFF090CD18E090CE1820910B0684
:1056500021111DC042EA59E16E2D8F2D0F948066F5
:1056600090E080E0F80EF092CD18E092CE189927E5
:105670002C960FB6F894DEBF0FBECDBFDF91CF9151
:105680001F910F91FF90EF90DF90CF900895C09001
:105690009A18D0909B1826E938E13A8329832F2D58
:1056A00030E03C832B832E2D30E03E832D83188603
:1056B0001F827A8769871C861B8608E219E29E0191
:1056C0002F5F3F4F4DE753E2BC01C6010F94475295
:1056D000B60186E998E10F94BD658F819885C2CFA8
:1056E000AB01BC014093D8185093D9186093DA18D5
:1056F0007093DB1883E49AE10C945EFD63E00D94F3
:1057000007670F931F93CF93DF9300D01F92CDB7FE
:10571000DEB79C010BEF11E190E1E3E8F2E0D80184
:1057200001900D929A95E1F7F90120813181428132
:105730005381F80160857185828593850F94A285D8
:10574000F801608771878287938780E090E0A0E608
:10575000B1E489839A83AB83BC83CE0101960F9415
:10576000403F0F900F900F900F90DF91CF911F91BE
:105770000F9108952F923F924F925F926F927F9276
:105780008F929F92AF92BF92CF92DF92EF92FF9251
:105790001F93CF93DF93CDB7DEB72C970FB6F89456
:1057A000DEBF0FBECDBF7A011901DC012D913D9105
:1057B0004D915C912D833E834F835887FB01408040
:1057C0005180628073808090830290908402A090C8
:1057D0008502B0908602A50194016D817E818F8142
:1057E00098850F94D27E81110EC011E0A301920121
:1057F00060918702709188028091890290918A025B
:105800000F94D27E811110E0D1012D913D914D91E7
:105810005C9129873A874B875C87F701C080D180EC
:10582000E280F38020910A0230910B0240910C0239
:1058300050910D02C701B6010F94D27E882309F45E
:105840004EC0C0920A02D0920B02E0920C02F0927B
:105850000D0280918F0290919002A0919102B091DF
:105860009202409187025091880260918902709162
:105870008A028092FB119092FC11A092FD11B092CD
:10588000FE114093FF115093001260930112709328
:105890000212C0920312D0920412E0920512F0920A
:1058A00006128093071290930812A0930912B093E6
:1058B0000A1220E030E040E05FE36091371270911F
:1058C00038128091391290913A120F94377F698380
:1058D0007A838B839C83CE0101960F94403F2D8168
:1058E0003E814F8158852093FB113093FC114093EA
:1058F000FD115093FE114092FF11509200126092E0
:10590000011270920212D1012D913D914D915C9145
:1059100060910712709108128091091290910A12F9
:105920000F94A28560930712709308128093091256
:1059300090930A1211112FC020E030E0A90169856F
:105940007A858B859C850F94D27E811133C060E06F
:1059500070E088EC92E469837A838B839C83CE0128
:1059600001960F94403F2C960FB6F894DEBF0FBE01
:10597000CDBFDF91CF911F91FF90EF90DF90CF903F
:10598000BF90AF909F908F907F906F905F904F905F
:105990003F902F9008952AEF3EE74AE25FE360913F
:1059A0003B1270913C1280913D1290913E120F94E7
:1059B000377FD1CF60E070E080EA91E4CCCF809176
:1059C000D6059091D705009731F04AE050E070E09D
:1059D00060E00D94F37C60E070E0CB010895CF931C
:1059E000DF9300D01F92CDB7DEB780E090E0A8EC47
:1059F000B2E489839A83AB83BC8361E0CE010196D4
:105A00000F9487240F900F900F900F90DF91CF91FC
:105A100008958091D6059091D705009731F04AE01E
:105A200050E070E060E00D94C67B60E070E0CB0178
:105A30000895CF93DF93EB0132D8882311F0E9DF8B
:105A4000EB01CE01DF91CF910895E3DF97FD0AC00E
:105A5000E0DF6F3F71058105910509F02CF4D9DF76
:105A6000862F089580E008958FEF0895CF93C62F75
:105A700016D8882311F0CF91E8CF8C2FCF910895BD
:105A80008091D6059091D705892B39F0DEDF91E022
:105A9000811101C090E0892F089591E0FCCFCF9350
:105AA000DF93C82FD62F0E944F25882319F0DF914E
:105AB000CF91E6CF8C2F0E940125811101C08D2F3F
:105AC000DF91CF910895A5DFCB010895CF93DF93A8
:105AD0009091B80993FD54C0C82F89E40E944F25C6
