:100000000C94E3220C9423230C9423230C94232399
:100010000C9423230C9423230C9423230C94232348
:100020000C9423230C9423230C9423230C94232338
:100030000C9423230C9423230C9423230C94232328
:100040000C9423230C94D8AB0C9423230C942323DB
:100050000C9423230C9495AA0C9423230D94B65C42
:100060000C9423230C94AA6E0C94A06E0C9423235E
:100070000C9423230C9423230C9423230C942323E8
:100080000C94783E0C9423230C9423230C94232368
:100090000C9423230C9423230C9423230C942323C8
:1000A0000C9423230C9423230C944A3E0C94232376
:1000B0000C9423230C9423230C9423230C942323A8
:1000C0000C9423230C9423230C9423230C94232398
:1000D0000C9423230C9423230C9423230C94232388
:1000E0000C942323084AD73B3BCE016E84BCBFFD52
:1000F000C12F3D6C74319ABD56833DDA3D00C77FF8
:1001000011BED9E4BB4C3E916BAAAABE0000008090
:100110003F05A84CCDB2D44EB93836A9020C50B91F
:10012000918688083CA6AAAA2ABE000000803F004B
:100130000D948C040D941C1D0D949C150D949C0E17
:100140000D9456030D94920E0D9468050D94136A48
:100150000D946B180D946E000D943D0A0D94C90A10
:100160000D94215C0D94F5190D94D95B0D94A802A2
:100170000D94BB3A0D94175C0D94255C0D94BC3A1C
:100180000D94AB0E0D94A60E0D94BA0E0D945D2534
:100190000D942B5C0D94BF0E0D941D5C0D942F0AD5
:1001A0000D94020F0D94095C0D9449370D94F238AB
:1001B0000D94E72D0D944C0C0D94F3690D94CE0E17
:1001C0000D94055C0D94FC5B0D942B360D94182951
:1001D0000D94EB360D944D010D94F4030D94F85BE2
:1001E0000D940F5C0D94B50E0D94F9160D94042921
:1001F0000D94F05B0D9455250D948E3A0D94F45B9F
:100200000D9489370D94970E0D94390A0D947D360F
:100210000D9444070D94C40E0D9469370D94A10EEE
:100220000D9409370D94643B0D94DE5B0D94135CC3
:100230000D94E1240D94A7370D94B4360D942F5CE2
:100240000D94A8240D9486080D9474250D942613FE
:100250000D94D30E0D94F5690D9411220D94FF5B4E
:100260000D9429110D94B00E0D94C90E4E414E49B6
:100270004E495459494E46CDCCCC3D0AD7233C1764
:10028000B7D13877CC2B329595E6241FB14F0A00B1
:100290000020410000C84200401C4620BCBE4CCAA1
:1002A0001B0E5AAEC59D7400407A10F35A00A0721E
:1002B0004E18090010A5D4E80000E87648170000A1
:1002C000E40B54020000CA9A3B000000E1F505006F
:1002D0000080969800000040420F000000A08601B8
:1002E000000000102700000000E803000000006488
:1002F00000000000000A00000000000100000000F3
:10030000002C76D888DC674F0823DFC1DFAE59E1C7
:10031000B1B796E5E3E453C63AE651997696E8E636
:10032000C28426EB898C9B62ED407C6FFCEFBC9C09
:100330009F40F2BAA56FA5F490055A2AF75C936B1B
:100340006CF9676DC11BFCE0E40D47FEF520E6B5D6
:1003500000D0ED902E0300943577050080841E08B0
:100360000000204E0A000000C80C333333330F98CE
:100370006E12831141EF8D2114893BE65516CFFE95
:10038000E6DB18D1844B381BF77C1D901DA4BBE421
:1003900024203284725E228100C9F124ECA1E53D63
:1003A00027434F4D4D554E49434154494F4E00440C
:1003B000525952554E004552524F525300494E46E3
:1003C0004F004543484F004572726F722077726943
:1003D00074696E6720746F20454550524F4D210A55
:1003E0000053544F505045442E20005072696E7493
:1003F00065722073746F7070656420647565207415
:100400006F206572726F72732E204669782074684F
:1004100065206572726F7220616E6420757365204D
:100420004D39393920746F20726573746172742E7E
:10043000202854656D7065726174757265206973EA
:100440002072657365742E20536574206974206171
:10045000667465722072657374617274696E67295F
:100460000A004E6F20436865636B73756D20776972
:100470007468206C696E65206E756D6265722C20E3
:100480004C617374204C696E653A20004E6F2043B6
:100490006865636B73756D2077697468206C696E2D
:1004A00065206E756D6265722C204C617374204CF2
:1004B000696E653A2000636865636B73756D206DC6
:1004C00069736D617463682C204C617374204C698E
:1004D0006E653A20004C696E65204E756D626572DE
:1004E000206973206E6F74204C617374204C696EA8
:1004F00065204E756D6265722B312C204C617374D2
:10050000204C696E653A20004D31313000536572E0
:1005100069616C20737461747573206D69736D61AA
:100520007463680A005344207265616420657272C6
:100530006F720A004B494C4C20627574746F6E2FB9
:1005400070696E0A002121204B494C4C2063617573
:100550007365642062792000746F6F206D75636825
:1005600020696E6163746976652074696D65202DFC
:100570002063757272656E7420636F6D6D616E6459
:100580003A20002121204B494C4C20636175736552
:10059000642062792000627573793A207061757306
:1005A000656420666F7220696E7075740A006275EA
:1005B00073793A2070617573656420666F72207577
:1005C0007365720A00627573793A2070726F6365A1
:1005D0007373696E670A004D656469612052656DC9
:1005E0006F766564004D6564696120496E7365725C
:1005F000746564004D31303030530070617573653F
:10060000004D363030002066696C616D656E745F38
:1006100072756E6F7574200066696C616D656E74BD
:100620005F72756E6F757420540046696C616D65FC
:100630006E7452756E6F7574205400506C656173E2
:1006400065205265736574005052494E54455220DE
:1006500048414C5445440025533A20255300706FBF
:100660007765726F6666004B494C4C45442E2000FE
:100670005072696E7465722068616C7465642E20B6
:100680006B696C6C28292063616C6C6564210A00BD
:100690006563686F3A004572726F723A0042696C26
:1006A000696E656172204C6576656C696E6720477E
:1006B0007269643A0A002F2F616374696F6E3A00A1
:1006C0006E6F74696669636174696F6E2000656E30
:1006D000640073686F7700627574746F6E00486FA2
:1006E00074656E6420746F6F20636F6C640A0053CE
:1006F000656E64204D31303820746F2072657375DB
:100700006D650A00496E736572742066696C616D6F
:10071000656E7420616E642073656E64204D3130A7
:10072000380A0052656865617420446F6E65005236
:100730006568656174696E672E2E2E005265686566
:100740006174004865617465722054696D656F75E8
:10075000740053656E64204D31303820746F20680A
:10076000656174206E6F7A7A6C650A004E6F7A7AD2
:100770006C65205061726B656400706175736564AF
:10078000005061757365004732362043616E6365C2
:100790006C6564004732362048656174696E672075
:1007A0004E6F7A7A6C65004732362048656174690D
:1007B0006E67204265640057616974696E672066E0
:1007C0006F72206865617475702E0A0046697865DD
:1007D00064204C656E677468205072696D650044D2
:1007E0006F6E65205072696D696E67004D616E7540
:1007F000616C207072696D696E672E2E2E004C65DB
:100800006176696E6720473236003F5370656369D1
:100810006669656420582C5920636F6F7264696E35
:10082000617465206F7574206F6620626F756E64E9
:10083000732E0A003F285229657065617420766125
:100840006C7565206E6F7420706C61757369626C75
:10085000653B206D757374206265206174206C6542
:1008600061737420312E0A003F53706563696669B5
:100870006564206E6F7A7A6C652074656D70657240
:100880006174757265206E6F7420706C6175736928
:10089000626C652E0A003F53706563696669656422
:1008A0002066696C616D656E742073697A65206E6F
:1008B0006F7420706C61757369626C652E0A003FFD
:1008C000537065636966696564207072696D65203F
:1008D0006C656E677468206E6F7420706C617573E0
:1008E00069626C652E0A003F5370656369666965CD
:1008F00064206E6F7A7A6C652073697A65206E6FFA
:100900007420706C61757369626C652E0A003F52C9
:10091000657472616374696F6E204D756C74697073
:100920006C696572206D75737420626520737065E3
:100930006369666965642E0A003F53706563696682
:100940006965642052657472616374696F6E204DCD
:10095000756C7469706C696572206E6F7420706C50
:1009600061757369626C652E0A003F537065636937
:1009700066696564206C617965722068656967687D
:1009800074206E6F7420706C61757369626C652E73
:100990000A0043292E0A003F537065636966696542
:1009A00064206265642074656D706572617475722F
:1009B00065206E6F7420706C61757369626C652060
:1009C0002834302D00473236207374617274696E9A
:1009D000672E2E2E0A004F46460A004661646520A7
:1009E0004865696768742000426564204C657665D7
:1009F0006C696E6720004661696C656420746F20C5
:100A0000656E61626C6520426564204C6576656C3C
:100A1000696E670A00496E76616C6964206D657362
:100A2000682E0A0050726F62696E6720506F696E9F
:100A3000740025532025692F2569002E0A002F00F8
:100A400050726F62696E67206D65736820706F69A0
:100A50006E742000202844525952554E29004732C6
:100A600039204175746F20426564204C6576656C51
:100A7000696E67003F20284C2C522C462C422920BE
:100A80006F7574206F6620626F756E64732E0A0036
:100A90003F2856296572626F7365206C6576656CB8
:100AA00020696D706C61757369626C652028302DEA
:100AB00034292E0A00426164205A2076616C7565E3
:100AC0000A004E6F2062696C696E65617220677200
:100AD00069640A005A2050726F6265205061737415
:100AE000204265640A005A2050726F62652050618E
:100AF00073742042656400446576696174696F6E41
:100B00000025533A2025730046696E697368656451
:100B1000210A003A207A3A2000206F662000476FB1
:100B2000696E6720746F3A20580043570A002064AA
:100B300069723A0020616E676C653A0053746172A5
:100B400074207261646975733A004D343820506FB7
:100B5000696E740025533A2025642F256400506F78
:100B6000736974696F6E696E67207468652070724E
:100B70006F62652E2E2E0A003F4C656773206F66EC
:100B8000206D6F76656D656E7420696D706C617532
:100B90007369626C652028302D3135292E0A003F9B
:100BA0002028582C5929206F7574206F6620626F99
:100BB000756E64732E0A0050726F6265206F7574D3
:100BC000206F6620626F756E6473003F53616D70B5
:100BD0006C652073697A65206E6F7420706C617526
:100BE0007369626C652028342D3530292E0A004D3A
:100BF0003438205A2D50726F6265205265706561DD
:100C0000746162696C69747920546573740A003F79
:100C10002856296572626F7365206C6576656C2055
:100C2000696D706C61757369626C652028302D3454
:100C3000292E0A005374616E6461726420446576E3
:100C4000696174696F6E3A20002052616E67653A7F
:100C50002000204D61783A2000204D696E3A200036
:100C6000205369676D613A20004D65616E3A20003E
:100C700020440020204D3230302053002028446989
:100C80007361626C6564293A0046696C616D656EDA
:100C9000742073657474696E67730020204D323060
:100CA000312058004D617820416363656C65726145
:100CB00074696F6E2028756E6974732F7332290002
:100CC00020204D3230332058004D61782066656514
:100CD0006472617465732028756E6974732F73294B
:100CE0000020520020204D323034205000416363F8
:100CF000656C65726174696F6E2028756E697473B6
:100D00002F7332292028503C7072696E742D6163F4
:100D100063656C3E20523C726574726163742D6130
:100D20006363656C3E20543C74726176656C2D6122
:100D30006363656C3E290020540020530020204D41
:100D4000323035204200416476616E63656420284C
:100D5000423C6D696E5F7365676D656E745F746943
:100D60006D655F75733E20533C6D696E5F666565AA
:100D700064726174653E20543C6D696E5F7472618B
:100D800076656C5F66656564726174653E20583C8B
:100D90006D61785F6A65726B3E20593C6D61785F6A
:100DA0006A65726B3E205A3C6D61785F6A65726B52
:100DB0003E20453C6D61785F6A65726B3E2900207C
:100DC000440020490020204D333031205000486F2E
:100DD00074656E642050494400204400204900207E
:100DE000204D333034205000426564205049440087
:100DF0003A200020536572766F2000206F757420B2
:100E00006F662072616E67650A00536572766F20A7
:100E100000203B0020550020204D363033204C0070
:100E200046696C616D656E74206C6F61642F756EC0
:100E30006C6F6164004D323453256C6454256C64CE
:100E4000004739322E394525730047314625640065
:100E500047315A257346363030004731582573598B
:100E600025734633303030004D31303650256953CC
:100E70002569004D313039532569004D32303044F9
:100E80002573004739322E395A2573004D343230DC
:100E90005325635A2573004732385230585900475A
:100EA000315A257346363030004739322E395A25AB
:100EB00073004739322E394530004D3130395325D2
:100EC00069004D313930532569004D34323020539B
:100ED00030205A3000203B200020204D3431332078
:100EE0005300506F7765722D6C6F7373207265635A
:100EF0006F76657279003B200020496E76616C69DF
:100F000064206578747275646572200047322F47DB
:100F1000332062616420706172616D657465727303
:100F20000A0047322F47332062616420706172618A
:100F30006D65746572730A00536C6565702E2E2E94
:100F40000070726F62655F726577697065004D3120
:100F500031372050726F6265206661696C65642E5E
:100F6000205265776970696E672E0A4732380A47E2
:100F70003132205030205331322054300047323942
:100F8000205265747279696E670070726F62655F76
:100F90006661696C65640050726F62696E672046B5
:100FA00061696C6564004D31313720426564206CA5
:100FB0006576656C696E67206661696C65642E0A8A
:100FC0004730205A31300A4D3330302050323520EE
:100FD000533838300A4D33303020503530205330BC
:100FE0000A4D3330302050323520533838300A4DD6
:100FF000333030205035302053300A4D33303020DC
:1010000050323520533838300A4D33303020503587
:10101000302053300A4734205331004D31313720CE
:10102000426564206C6576656C696E6720646F6EDE
:10103000652E00205A3A200020593A20004265646B
:1010400020583A2000206D696E7574657300206128
:101050006E642000207475726E7300206279200027
:1010600020005475726E20004733352061626F7224
:101070007465642E0A0020280047333520666169B4
:101080006C656420617420706F696E742000473253
:10109000385A003F28532963726577207468726557
:1010A0006164206D7573742062652033302C2033A9
:1010B000312C2034302C2034312C2035302C206F32
:1010C000722035312E0A004D65736820706F696E8D
:1010D00074206F7574206F662072616E67650A00F8
:1010E0004E6F204D6F76652E00456E642066696CEC
:1010F00065206C6973740A00426567696E206669D1
:101100006C65206C6973740A004E6F206D656469AC
:10111000610A00286E6F2066696C6529004375724C
:1011200072656E742066696C653A20004E6F74209B
:101130005344207072696E74696E670A00534420CC
:101140007072696E74696E672062797465200043FD
:10115000616E6E6F74206F70656E20737562646966
:101160007220005072696E742074696D653A2000B7
:101170006F6B006F666600C203BD03B603AF03A1C9
:101180000344454255473A004D3131332053004323
:10119000522D3130205633204F46462E002F2F003F
:1011A0004D31343520533C696E6465783E206F754F
:1011B00074206F662072616E67652028302D31299A
:1011C0000A00206C696D6974656420746F200020CA
:1011D0004D61782000466565647261746500574111
:1011E000524E494E4721204C6F77205A204A657253
:1011F0006B206D6179206C65616420746F20756E61
:1012000077616E746564207061757365732E0A0072
:1012100020580020204D61783A2000200020204DE9
:10122000696E3A2000203B200020204D32313120D1
:101230005300536F667420656E6473746F7073002F
:1012400046523A0020466C6F773A200050726F6227
:1012500065204F6666736574205A0050726F626530
:10126000204F6666736574205A0064697300656E6A
:101270000043290A0061626C656420286D696E2054
:1012800074656D702000436F6C64206578747275AE
:101290006465732061726520004F4646004F4E0022
:1012A000203B20486F73742068616E646C696E67C0
:1012B00020006D6D00203B2044697374616E63658E
:1012C000200046696C616D656E742072756E6F7575
:1012D0007420004D34323120696E636F7272656321
:1012E0007420706172616D657465722075736167D9
:1012F000650A004D65736820706F696E74206F75A4
:1013000074206F662072616E67650A004545505211
:101310004F4D204F4B0A003F2842296175642072CF
:1013200061746520696D706C61757369626C652E9E
:101330000A002062617564207261746520736574AF
:1013400020746F20002053657269616C2000290AA7
:101350000020746F20003F5A206F7574206F662044
:1013600072616E6765202800290A0020746F2000D2
:101370003F59206F7574206F662072616E6765201B
:10138000282D00290A0020746F20003F58206F7517
:1013900074206F662072616E676520282D004D38BD
:1013A0003400446F6E65207072696E74696E6720D8
:1013B00066696C650A004D3737004D33310044696A
:1013C00066663A2020200046726F6D5374703A00B2
:1013D000537465707065723A00556E4C6576656C35
:1013E0003A004C6576656C65643A005261773A2044
:1013F000202020000A4C6F676963616C3A00436FDC
:10140000756E7420453A004361703A00434F4E4672
:1014100049475F4558504F5254004D454154504143
:10142000434B00434F4F4C45525F54454D5045523E
:101430004154555245004348414D4245525F544541
:101440004D50455241545552450042414259535422
:10145000455050494E470041524353004D4F544967
:101460004F4E5F4D4F44455300544845524D414CFB
:101470005F50524F54454354494F4E0045585445D0
:101480004E4445445F4D323000435553544F4D5FF9
:101490004649524D574152455F55504C4F414400CB
:1014A0004C464E5F5752495445004C4F4E475F469D
:1014B000494C454E414D45004155544F5245504FC2
:1014C00052545F53445F5354415455530053445F47
:1014D000575249544500524550454154004D554CD2
:1014E00054495F564F4C554D450053444341524477
:1014F0000050524F4D50545F535550504F5254006E
:10150000484F53545F414354494F4E5F434F4D4DF5
:10151000414E445300454D455247454E43595F5057
:10152000415253455200434153455F4C494748544B
:101530005F4252494748544E45535300544F474722
:101540004C455F4C494748545300534F465457410C
:1015500052455F504F574552004255494C445F50E9
:10156000455243454E54004C4556454C494E475F05
:1015700044415441005A5F50524F42450052554E2B
:101580004F5554004155544F4C4556454C00505210
:10159000494E545F4A4F420050524F4752455353B1
:1015A000004155544F5245504F52545F54454D5091
:1015B000004155544F5245504F52545F504F5300C5
:1015C000564F4C554D455452494300454550524F96
:1015D0004D0042494E4152595F46494C455F545275
:1015E000414E534645520053455249414C5F584F76
:1015F0004E5F584F4646004649524D574152455F4F
:101600004E414D453A4D61726C696E20322E312E3D
:101610003220284A616E2020382032303233203187
:10162000333A31353A34372920534F555243455FC9
:10163000434F44455F55524C3A6769746875622E52
:10164000636F6D2F4D61726C696E4669726D776163
:1016500072652F4D61726C696E2050524F544F432A
:101660004F4C5F56455253494F4E3A312E30204D24
:10167000414348494E455F545950453A43522D31F4
:10168000302056332045585452554445525F434FFD
:10169000554E543A3120555549443A636564653294
:1016A0006132662D343161322D343734382D396250
:1016B00031322D6335356336326633363766660030
:1016C000626567696E004D302053746F70004D3154
:1016D0002053746F7000436C69636B20746F2052E9
:1016E0006573756D652E2E2E00203B0020204D3831
:1016F00035312058005A2D50726F6265204F666652
:1017000073657400526573756D696E67205344008C
:101710002569730025696D20256973002569682096
:1017200025696D2025697300256964202569682075
:1017300025696D2025697300256979202569642054
:101740002569682025696D202569730020696E2050
:101750000053746174733A2000536572766963654F
:101760002033303068005365727669636520353008
:1017700068000A53746174733A2046696C616D6540
:101780006E7420757365643A20002C204C6F6E6770
:10179000657374206A6F623A2000546F74616C2024
:1017A00074696D653A200053746174733A20002C9B
:1017B000204661696C65643A20002C2046696E6998
:1017C000736865643A20005072696E74733A200041
:1017D00053746174733A2000436F6F6C696E672EA7
:1017E0002E2E0045312025530042656420436F6F43
:1017F0006C696E672E2E2E00426564204865617408
:10180000696E672E2E2E0023646566696E6520441E
:10181000454641554C545F0000626564004B6420AE
:10182000004B6920004B7020005049442074756EB5
:10183000696E6720646F6E65002066696E69736803
:101840006564212050757420746865206C61737420
:10185000204B702C204B6920616E64204B64206308
:101860006F6E7374616E74732066726F6D20626543
:101870006C6F7720696E746F20436F6E6669677551
:10188000726174696F6E2E680A0050494420417578
:10189000746F74756E6500206661696C65642120E3
:1018A00074696D656F75740A005049442041757400
:1018B0006F74756E65004175746F74756E65206622
:1018C00061696C6564212054696D656F75742E00C3
:1018D000206661696C6564212054656D7065726174
:1018E0007475726520746F6F20686967680A0050AC
:1018F0004944204175746F74756E650050494420E9
:101900004379636C65730025532025692F25690091
:10191000204B643A2000204B693A2000204B703A5B
:10192000200020436C617373696320504944200A8E
:1019300000204E6F206F76657273686F6F740A00B7
:101940002054753A2000204B753A2000206D6178B4
:101950003A2000206D696E3A200020643A20002071
:10196000626961733A200048656174696E672E2E62
:101970002E002073746172740A005049442041752E
:10198000746F74756E65004175746F74756E652043
:101990006661696C6564212054656D70657261745F
:1019A00075726520746F6F20686967682E00206605
:1019B00061696C6564212054656D70657261747530
:1019C000726520746F6F20686967680A0050494427
:1019D000204175746F74756E6500504944204175DF
:1019E000746F74756E6500206661696C6564212092
:1019F000426164206865617465722069640A005000
:101A00004944204175746F74756E65004572723A71
:101A1000207574663820666F6E74206E6F7420694E
:101A20006E697469616C697A65642E004572723AF8
:101A3000207574663820666F6E74206E6F7420692E
:101A40006E697469616C697A65642E004572723AD8
:101A5000207574663820666F6E74206E6F7420690E
:101A60006E697469616C697A65642E0020002000DB
:101A700020003A003A002568753A25303268750032
:101A800025303268753A2530326875002530326865
:101A90007527253032687500256875642025303239
:101AA00068753A253032687500000C0F00FE070299
:101AB0002503BB017FFE08FE08FE0508080600009E
:101AC00040F0C88888987810050808060000C0F81B
:101AD0008888888888F80505050600012030F830D8
:101AE000200508080600002070F820202020E005CE
:101AF00009090600FF2070A8A8B88888702007058B
:101B000005070001D86C366CD80509090600FFF8F6
:101B1000A88888888888A8F8050A0A0600FE205048
:101B200050505088A8A8887003030306000340A003
:101B300040FFFFFFFFFFFFFFFFFFFFFFFFFFFFFF74
:101B4000FFFFFFFFFFFFFF0000000605FF01070783
:101B50000602008080808080008003030306010568
:101B6000A0A0A005060606000050F85050F8500549
:101B700009090600FF2070A8A07028A8702005079A
:101B800007060000C8C810204098980507070600FF
:101B90000040A0A040A890680103030602058080D1
:101BA000800309090601FF204040808080404020DA
:101BB0000309090601FF80404020202040408005A5
:101BC000070706000020A8702070A820050505065C
:101BD00000012020F820200203030601FFC04080FE
:101BE000050101060003F8020202060100C0C0055B
:101BF0000707060000081010204040800507070670
:101C00000000708898A8C888700307070601004084
:101C1000C040404040E005070706000070880810FB
:101C20002040F8050707060000F808103008887003
:101C300005070706000010305090F8101005070740
:101C4000060000F880F00808887005070706000005
:101C5000304080F0888870050707060000F80810FB
:101C600010202020050707060000708888708888EB
:101C70007005070706000070888878081060020564
:101C800005060100C0C000C0C00206060601FFC074
:101C9000C000C040800305050601012040804020AF
:101CA000050303060002F800F8030505060101809C
:101CB00040204080050707060000708810202000A3
:101CC000200507070600007088B8A8B880700507CF
:101CD00007060000708888F88888880507070600CE
:101CE00000F04848704848F0050707060000708873
:101CF0008080808870050707060000F04848484843
:101D000048F0050707060000F88080F08080F8059D
:101D10000707060000F88080F0808080050707062E
:101D2000000070888080988870050707060000888A
:101D30008888F8888888030707060100E04040404B
:101D40004040E005070706000038101010109060B2
:101D50000507070600008890A0C0A0908805070727
:101D6000060000808080808080F80507070600005C
:101D700088D8A8888888880507070600008888C84A
:101D8000A8988888050707060000708888888888D2
:101D900070050707060000F08888F080808005073E
:101DA0000706000070888888A89068050707060065
:101DB00000F08888F0A0908805070706000070886A
:101DC0008070088870050707060000F82020202092
:101DD0002020050707060000888888888888700505
:101DE00007070600008888888850502005070706E6
:101DF000000088888888A8A8500507070600008882
:101E000088502050888805070706000088885020E1
:101E1000202020050707060000F80810204080F861
:101E20000309090601FFE080808080808080E00552
:101E3000070706000080404020101008030909062B
:101E400001FFE020202020202020E00503030600E1
:101E5000052050880501010600FEF8030303060172
:101E60000580402005050506000070087888780583
:101E700007070600008080F0888888F005050506C1
:101E80000000708080887005070706000008087849
:101E9000888888780505050600007088F080700540
:101EA0000707060000304840E040404005070706AD
:101EB00000FE708888887808700507070600008093
:101EC00080F0888888880307070601004000C0402A
:101ED0004040E00409090601FE1000301010101007
:101EE000906005070706000080808890E0908803D6
:101EF0000707060100C04040404040E005050506D8
:101F00000000D0A8A8A8A8050505060000B0C8884C
:101F10008888050505060000708888887005070711
:101F20000600FEF0888888F080800507070600FE1E
:101F300078888888780808050505060000B0C880FC
:101F4000808005050506000078807008F005070709
:101F50000600002020F820202018050505060000B6
:101F600088888898680505050600008888885020BC
:101F70000505050600008888A8A850050505060087
:101F80000088502050880507070600FE8888885082
:101F9000204080050505060000F8102040F80309E0
:101FA000090601FF204040408040404020010909CF
:101FB0000602FF808080808080808080030909067F
:101FC00001FF804040402040404080050303060060
:101FD0000248A890FF4261636B2D4C656674004215
:101FE00061636B2D52696768740046726F6E742D61
:101FF00052696768740046726F6E742D4C65667422
:10200000002100486F74656E6420746F6F20636FE9
:102010006C64004261636B0050726F6365656400BD
:102020004D6F7665204578747275646572004F66F1
:1020300066004F6E00536F667420456E6473746F54
:102040007073004D6F74696F6E0044697361626CE8
:1020500065205374657070657273004D3834004D9F
:1020600034382050726F62652054657374004732B3
:10207000384F0A4D34382050313000426564204CCE
:102080006576656C696E67005472616D6D696E6727
:102090002057697A617264004732385A00473238F3
:1020A0005900486F6D65204000473238580041752F
:1020B000746F20486F6D65004D61696E00507265E8
:1020C000686561742024204265640050726568650B
:1020D0006174202420456E640054656D70657261E2
:1020E0007475726500436F6F6C646F776E00507229
:1020F000656865617420240046616E2053706565D3
:102100006400426564004E6F7A7A6C65004D6169C7
:102110006E004D656173757265004C617374207655
:10212000616C75652000426564205472616D6D6953
:102130006E6700446F6E6500F61FEA1FDF1FD51F34
:1021400053656C656374204F726967696E00486FF0
:102150006D696E672058595A004732380050726FC7
:102160006265205A204F666673657400466C6F770F
:102170000046616E20537065656400426564004EE0
:102180006F7A7A6C65005370656564004D61696EA5
:1021900000486F6D696E67204661696C6564006F09
:1021A00070656E00545249474745524544003A20F5
:1021B0000066696C616D656E74007A5F70726F6243
:1021C00065007A5F6D696E00795F6D696E00785F9A
:1021D0006D696E005265706F7274696E6720656E0E
:1021E0006473746F70207374617475730A00207463
:1021F0006F6F206C6F6E6720657874727573696F8E
:102200006E2070726576656E7465640A0020636F77
:102210006C6420657874727573696F6E2070726576
:1022200076656E7465640A00486F6D6520257325B8
:10223000732573204669727374000000A0C000000B
:10224000A0C0000000005761726E696E673A2048B6
:102250006F6D696E672042756D7020446976697391
:102260006F72203C20310A00020204008098430073
:102270008098430000C8430000A0400000A0400038
:102280000000400000000100000001000080005537
:102290005555000000400033333300AAAA2A0049F4
:1022A00092240000002000C7711C0099991900D1E8
:1022B000451700555515003BB11300244912001174
:1022C000111100000010000F0F0F00E3380E004343
:1022D000790D00CCCC0C00C3300C00E8A20B0064DC
:1022E000210B00AAAA0A00703D0A009DD8090042ED
:1022F0007B090092240900DCD308008888080010BC
:1023000042080000000800F0C10700878707007539
:10231000500700711C07003EEB0600A1BC060069D7
:1023200090060066660600703E06006118060017FB
:10233000F4050074D105005BB00500B290050062A1
:102340007205005555050078390500B81E050005D1
:102350000505004EEC040087D40400A1BD040090E4
:10236000A7040049920400C17D0400EE690400C77F
:10237000560400444404005C320400082104004177
:10238000100400000004003FF00300F8E003002602
:10239000D20300C3C30300CCB503003AA803000A6C
:1023A0009B0300388E0300C08103009F750300D09B
:1023B000690300505E03001D53030034480300917D
:1023C0003D03003333030016290300381F03009731
:1023D000150300300C0300030303000BFA0200494D
:1023E000F10200BAE802005CE002002DD802002DE4
:1023F000D0020059C80200B0C0020031B90200DAB0
:10240000B10200AAAA0200A0A30200BC9C0200FA2A
:102410009502005C8F0200DF880200828202004584
:102420007C02002776020027700200436A02007CCB
:10243000640200D05E02003F590200C8530200FF50
:10244000FDFCFAF8F6F4F2F0EEECEAE9E7E5E3E198
:10245000E0DEDCDAD9D7D5D4D2D0CFCDCBCAC8C74D
:10246000C5C3C2C0BFBDBCBAB9B7B6B4B3B2B0AFD2
:10247000ADACAAA9A8A6A5A4A2A1A09E9D9C9A992C
:10248000989795949392908F8E8D8B8A8988878662
:1024900084838281807F7E7D7B7A7978777675747C
:1024A000737271706F6E6D6C6B6A69686766656474
:1024B000636261605F5E5D5C5B5A59585857565560
:1024C0005453525150504F4E4D4C4B4A4A49484735
:1024D0004646454443424241403F3E3E3D3C3B3BF5
:1024E0003A39383837363535343332323130302FA7
:1024F0002E2E2D2C2B2B2A2929282727262525244B
:10250000232322212120201F1E1E1D1C1C1B1B1AE1
:10251000191918181716161515141313121211116C
:10252000100F0F0E0E0D0D0C0C0B0A0A09090808EE
:102530000707060605050404030302020100003D27
:102540003D3D3D3D3D3D3D3D3D3D3D3D3D3D3D3DBB
:102550003D3D3D3D3D3D3D3D3D3D3D3D3D3D3D3DAB
:102560003D3D3D3D3D3D3D3D3D3D3D3D0A00210A5A
:10257000002053657276696365203330306800202F
:1025800053657276696365203530680053544F5047
:102590005045442E20005072696E74657220737429
:1025A0006F707065642064756520746F2065727249
:1025B0006F72732E20466978207468652065727288
:1025C0006F7220616E6420757365204D3939392032
:1025D000746F20726573746172742E202854656D57
:1025E00070657261747572652069732072657365B8
:1025F000742E20536574206974206166746572209E
:1026000072657374617274696E67290A002065725D
:10261000726F72202D2072657374617274207769F5
:102620007468204D3939390A00424C546F7563681B
:102630000021212053544F502063616C6C6564204D
:1026400062656361757365206F66200000009643C4
:10265000000096430000C8430000A0C00000A0C0D6
:102660000000000053657474696E67732053746FC3
:1026700072656400290A002062797465733B2063E7
:102680007263200053657474696E67732053746FAE
:1026900072656420280048617264636F6465642019
:1026A00044656661756C742053657474696E6773F4
:1026B000204C6F616465640020286D6D2900203B0B
:1026C000204C6576656C696E67200020204D3432A1
:1026D000302053004175746F20426564204C65764C
:1026E000656C696E670020460020480020204D314F
:1026F00034352053004D6174657269616C206865E2
:102700006174757020706172616D657465727300BB
:10271000203B2053656E736F722000204400202000
:102720004D34313220530046696C616D656E742002
:1027300072756E6F75742073656E736F7200204AC8
:10274000002020473239205720490020204D3134C5
:10275000392043203B20556E69747320696E2043F5
:10276000656C736975730A0054656D706572617488
:1027700075726520556E69747300202047323120D0
:102780003B004C696E65617220556E69747300453B
:102790004550524F4D206461746173697A652065BC
:1027A00072726F722E0A0053746F726564207365C3
:1027B0007474696E67732072657472696576656496
:1027C00000290A002062797465733B2063726320DC
:1027D000002073746F7265642073657474696E672A
:1027E00073207265747269657665642028004545BA
:1027F00050524F4D20435243204572726F72002059
:102800002863616C63756C6174656429210A00201A
:10281000213D2000454550524F4D20435243206DED
:1028200069736D61746368202D202873746F7265FD
:10283000642920002053697A653A2000496E646556
:10284000783A2000000048430000484300006041FF
:102850000000C8410000A0420000A0420000C843A0
:102860000080CB43F4010000F4010000640000008C
:10287000E8030000454550524F4D2056657273697C
:102880006F6E204572726F7200204D61726C696EBE
:102890003D563837290A00454550524F4D20766540
:1028A0007273696F6E206D69736D6174636820283F
:1028B000454550524F4D3D0020436F756E74205872
:1028C0003A00426564004531004500626564002CB1
:1028D0002073797374656D2073746F7070656421F3
:1028E000204865617465725F49443A200045727200
:1028F0003A204D415854454D50004D415854454D96
:102900005020747269676765726564004865617418
:10291000696E67204661696C656400486561746929
:102920006E67206661696C6564004D353234004D18
:102930003131322053687574646F776E004572725E
:102940003A204D494E54454D50004D494E54454D49
:102950005020747269676765726564005448455217
:102960004D414C2052554E415741590054686572B3
:102970006D616C2052756E6177617900202F0020A7
:1029800042403A0020403A0020573A0020573A008F
:10299000496E76616C6964206578747275646572DD
:1029A0000A007C3C3E5E2B3D3F2F5B5D3B2C2A2288
:1029B0005C0043616E6E6F74206F70656E2073757E
:1029C0006264697220004D6564696120496E6974B2
:1029D000204661696C0053442063617264206F6B10
:1029E0000A006F70656E526F6F74206661696C6566
:1029F000640A00766F6C756D652E696E6974206669
:102A000061696C65640A004E6F20534420636172F3
:102A1000640A00534420636172642072656C6561CE
:102A20007365640A000A4D3234004D323320257339
:102A3000002E0A006F70656E206661696C65642CFB
:102A40002046696C653A200046696C652073656CA8
:102A500065637465640A002053697A653A2000460C
:102A6000696C65206F70656E65643A2000454E4460
:102A700020535542524F5554494E450A002220706A
:102A80006F73002220706172656E743A2200535594
:102A900042524F5554494E452043414C4C2074619D
:102AA000726765743A220053756263616C6C204FE3
:102AB000766572666C6F77004578636565646564FA
:102AC000206D617820535542524F5554494E452050
:102AD00064657074683A00554E4C4F414420464935
:102AE0004C414D454E54004C4F41442046494C41C9
:102AF0004D454E540046494C414D454E54204348A7
:102B0000414E47450042656400456E636C6F7375C6
:102B100072650045002000200020002000200025D4
:102B2000002020202020202000202020200065726E
:102B300072001FE020102010201010201020201004
:102B4000201030300840048003001FE03FF03FF0C9
:102B50003FF01FE01FE03FF03FF03FF00FC0078065
:102B600003003FFFF038007030FC3020FC1020786C
:102B7000102030102C00D02E31D02F7BD02F7BD0C6
:102B80002E31D02C00D020301020781020FC1030B6
:102B9000FC303800703FFFF03FFFF03800703186A6
:102BA000302387102787902F87D02F03D020301015
:102BB0002078102078102030102F03D02F87D027B6
:102BC00087902387103186303800703FFFF01FFF59
:102BD000F81FFFF8041040020820020820041040EB
:102BE000082080104100104100082080041040009F
:102BF00000001FFFF81FFFF8000000001E0000008B
:102C0000002100000000271DC08C00272121920018
:102C100041212092008E21CE92009021209201101D
:102C200021209201201D21CC02200000000410016F
:102C3000130008100114801008011080200400A364
:102C40000047F200A08043E20044802004004300DB
:102C500018D8000000198400000021FC0000003F8B
:102C60000043522D31302056332052656164792E55
:102C7000003E2053657276696365203330306821E9
:102C8000003E205365727669636520353068210007
:102C90005072696E74696E672E2E2E0063616E63CA
:102CA000656C005072696E742041626F7274656465
:102CB0000055492041626F72746564004D323520C1
:102CC000500A4D3234005072696E74205061757331
:102CD000656400526573756D6500554920506175D6
:102CE00073650050617573696E672E2E2E007265D4
:102CF00073756D65004D323400454550524F4D207F
:102D000056657273696F6E204572726F7200454529
:102D100050524F4D20496E646578204572726F7233
:102D200000454550524F4D20435243204572726F2B
:102D300072003F0049676E6F72650052657365747B
:102D400000496E697469616C697A65204545505225
:102D50004F4D0050726F6265205A204F6666736552
:102D6000740052756E6F75742044697374206D6DB4
:102D7000004C6F6164206D6D00556E6C6F61642056
:102D80006D6D0046696C2E204469612E00452069F6
:102D90006E206D6D5E33004D33303320553120454C
:102DA00025692053256900504944204175746F748A
:102DB000756E65202A005049442D44202A00504950
:102DC000442D49202A005049442D50202A00200833
:102DD0002046616374002008204D6178002008209F
:102DE0004D696E004F6666004F6E004175746F74DA
:102DF000656D70004D696E2054726176656C20536C
:102E000070656564004D696E2056656C6F6369740A
:102E100079004D61782040205370656564004D61F4
:102E200078204520416363656C004D617820402027
:102E3000416363656C0054726176656C2041636325
:102E4000656C005265747261637420416363656CE4
:102E500000416363656C004D61782040204A6572D3
:102E60006B0050726F6265205A204F6666736574FE
:102E70000050726F62652059204F6666736574005A
:102E800050726F62652058204F666673657400400B
:102E90002073746570732F6D6D00416476616E638D
:102EA00065642053657474696E6773003F00436105
:102EB0006E63656C00496E697400496E697469617E
:102EC0006C697A6520454550524F4D0046696C61EA
:102ED0006D656E740054656D7065726174757265B0
:102EE0000053746570732F6D6D0050726F626520B2
:102EF0004F666673657473004A65726B0041636365
:102F0000656C65726174696F6E004D6178205370F5
:102F100065656420286D6D2F732900436F6E6669A7
:102F20006775726174696F6E004C617374205A3AF0
:102F300020002F00476F6F6420506F696E74733AE2
:102F4000200050726F62696E6720506F696E740066
:102F500041646A7573742062656420756E74696C6F
:102F6000207468652070726F62652074726967678B
:102F70006572732E00536B697000446F6E65004775
:102F800032394E00436F726E6572732077697468D0
:102F9000696E20746F6C6572616E63652E20426588
:102FA00064207472616D6D65642E004261636B0014
:102FB0004C6576656C005A2056616C756500496EEB
:102FC000646578205900496E646578205800537410
:102FD0006F72652053657474696E6773004C6F611E
:102FE000642053657474696E67730042656420548D
:102FF00072616D6D696E670050726F6265205A2054
:103000004F6666736574004661646520486569674C
:103010006874004F6666004F6E00426564204C6520
:1030200076656C696E670045646974204D657368E8
:10303000004C6576656C20426564004732394E006D
:10304000473239004175746F20486F6D65004D6FD0
:1030500074696F6E003F0043616E63656C204F6260
:103060006A656374004E4F005945530043616E63B7
:10307000656C204F626A656374203D004D61696E26
:103080000053572D4D6F64650053746F770044658E
:10309000706C6F790053656C662D546573740052C3
:1030A0006573657400426564004E6F7A7A6C6500E2
:1030B00046616E20537065656400436F6E66696794
:1030C00075726174696F6E00526573746F726520FA
:1030D00044656661756C7473004C6F616420536560
:1030E0007474696E67730053746F726520536574EE
:1030F00074696E677300536F756E64005072656813
:10310000656174202420436F6E6600506F7765728E
:10311000204F7574616765004F6666004F6E005200
:10312000756E6F75742053656E736F7200424C54E8
:103130006F7563680050726F6265205A204F666633
:1031400073657400416476616E63656420536574D1
:1031500074696E6773004D61696E004D37303220BF
:10316000542564004D363030204230205425640010
:103170004D373032203B2564004D37303120542507
:1031800064004D373032004D373031004D3630302D
:10319000204230004D61696E00436F6E74696E7538
:1031A00065004F6666004F6E0052756E6F75742035
:1031B00053656E736F72005075726765206D6F7224
:1031C0006500524553554D45204F5054494F4E537D
:1031D0003A005052494E5420504155534544002F17
:1031E00000200020204E6F7A7A6C653A20005061F2
:1031F000726B696E672E2E2E000000576169742075
:10320000666F720066696C616D656E7420636861DB
:103210006E676500746F2073746172740057616922
:103220007420666F720066696C616D656E742075DE
:103230006E6C6F616400004E6F7A7A6C6520686511
:103240006174696E6700506C6561736520776169B0
:10325000742E2E2E00005072657373206275747484
:103260006F6E00746F2068656174206E6F7A7A6C7F
:10327000650000496E736572742066696C616D65E6
:103280006E7400616E642070726573732062757471
:10329000746F6E00746F20636F6E74696E75650075
:1032A0005761697420666F720066696C616D656E46
:1032B00074206C6F616400005072657373204275F6
:1032C00074746F6E00746F20726573756D65207015
:1032D00072696E7400005761697420666F722070A5
:1032E00072696E7400746F20726573756D652E2E31
:1032F0002E00005761697420666F720066696C6108
:103300006D656E7420707572676500003E20005315
:10331000657276696365203330306820003E200096
:103320005365727669636520353068200020696EC8
:103330003A003E2000256C642E25696D00457874A6
:10334000727564656420546F74616C003E20004C9B
:103350006F6E67657374204A6F622054696D6500F3
:103360003E20005072696E742054696D6500436F91
:103370006D706C65746564003A20005072696E74FB
:1033800020436F756E74003A2000313230003500F2
:103390004245443A204550434F53203130304B0092
:1033A00052756E617761792057617463683A204F76
:1033B0004E004D61782054656D7000323735004DF8
:1033C000696E2054656D7000350045313A204550D6
:1033D000434F53203130304B005053550047656EFA
:1033E000657269630050726F746F636F6C00312E89
:1033F0003000426175640032353030303000437245
:1034000065616C69747933442052414D50530042D8
:10341000696C696E656172204C6576656C696E6772
:10342000004578747275646572730031006D617265
:103430006C696E66772E6F72670043522D313020B3
:10344000563300323032332D30312D303800322EA9
:10345000312E32004D61726C696E005072696E746B
:10346000657220537461747300546865726D69737A
:10347000746F727300426F61726420496E666F00F0
:103480005072696E74657220496E666F004D616995
:103490006E004D313030300053746F7020507269BF
:1034A0006E7400526573756D65205072696E74009C
:1034B000506F776572204F757461676500473237CA
:1034C0000A4D31313720557365722053637269702C
:1034D0007420446F6E65005061726B204E6F7A7A73
:1034E0006C65004D61696E003F004261636B005383
:1034F000746F70003F0053657276696365203530E4
:1035000068003F0053657276696365203330306828
:103510000052657365740043616E63656C005265AB
:10352000736574004E6F204D656469610050726967
:103530006E742066726F6D204D656469610043682A
:10354000616E6765204D65646961004D32310043ED
:1035500068616E67652046696C616D656E740053C5
:103560006572766963652033303068005365727622
:10357000696365203530680041626F757420507250
:10358000696E74657200437573746F6D20436F6D5F
:103590006D616E647300436F6E6669677572617406
:1035A000696F6E0054656D70657261747572650047
:1035B0004D6F74696F6E00526573756D6520507242
:1035C000696E740043616E63656C204F626A656367
:1035D000740054756E650053746F70205072696E7C
:1035E00074005061757365205072696E7400496E85
:1035F000666F2053637265656E003F00537461729D
:1036000074205072696E740043616E63656C005083
:1036100072696E740043616E6E6F7420656E7465BE
:1036200072207375626469723A200002202E2E00A7
:103630004D61696E005045544700504C4100205880
:103640003A002E0A0044656C6574696F6E206661ED
:10365000696C65642C2046696C653A200046696C8B
:10366000652064656C657465643A005772697469B5
:103670006E6720746F2066696C653A20006672651B
:10368000736800646F696E67002066696C653A2034
:10369000004E6F7720002F6175746F25632E6700D1
:1036A00000000000000000600000000000FC0000BE
:1036B0000FF00000000007E00000000001861FC0BE
:1036C00018700000000000603C0C000001830C60DA
:1036D00010300000000000603C0C000001830C3042
:1036E0003030000000000060000C000000030C18E7
:1036F0003000000000000060003F0F3C00030C0C95
:103700006001DF0FE0FE00601C1C061800060C0CB8
:103710006000F318318300600C0C0318001E0C0CC1
:103720006000E030398300600C0C033000030C0CA7
:103730006000C030380F00600C0C033000018C0CAE
:103740006000C03FF8FB00600C0C033000018C0CE3
:103750006030C030018300600C0C01F001818C0CE2
:103760006030C030018300600C0C00E001818C18D7
:103770003030C018318300600C0C40E001838C3085
:103780001860C00C6187C0E01C0CC06000C30C60F6
:103790000FC3F007C0FFC7FC7F0781C0007E1FC0BA
:1037A0000000000000000000000007000000000012
:1037B0000000000000000000000007000000000002
:1037C0006D61726C696E66772E6F726700322E3192
:1037D0002E32001FFFFFFFFFFFFF6000000000010F
:1037E000FF400000000000FF8000000000007F8319
:1037F000CF00000C303F87FF80000C301F8679809F
:10380000000C000F8C30C7838C30E78C30CFC7CCD6
:1038100031F38C30DCECEC33B98C30D86C6C331970
:103820008C30D06C0C33198C30D86C0C33198C3034
:10383000DC6C0E3B198C30CF7C079F198C30C77C19
:10384000038F19400000000000026000000000002B
:10385000061FFFFFFFFFFFF870012C0190012701F9
:10386000B0012201C0011D01F00118011002130175
:1038700030020E016002090190020401C002FF0043
:103880000003FA004003F5008003F000D003EB00D2
:103890002004E6007004E100E004DC004005D700ED
:1038A000C005D2004006CD00D006C8008007C30086
:1038B0003008BE00F008B900C009B400B00AAF007B
:1038C000B00BAA00D00CA500000EA000500F9B006A
:1038D000C01096005012910000148C00C015870093
:1038E000B0178200B0197D00D01B7800001E730055
:1038F00040206E0090226900F024640040275F00A1
:1039000090295A00E02B5500102E500020304B001B
:1039100010324600E033410090353C00103737004C
:1039200070383200A0392D00B03A2800A03B2300A7
:10393000603C1E00103D1900903D1400103E0F0029
:10394000703E0A00C03E0500003F0000403FFBFF04
:10395000803FF6FFC03FF1FF2020506C616E6E6526
:103960007242756666657242797465733A2000200A
:1039700046726565204D656D6F72793A200020436F
:103980006F6D70696C65643A204A616E2020382042
:10399000323032330A00204C6173742055706461F8
:1039A0007465643A20323032332D30312D30382076
:1039B0007C20417574686F723A2046695A692062AA
:1039C00061736564206F6E204161726F6E204A756D
:1039D00073742C20435231302D56330A004D6172DE
:1039E0006C696E20322E312E320A0020536F6674BD
:1039F000776172652052657365740A00205761749F
:103A00006368646F672052657365740A00204272B0
:103A10006F776E206F75742052657365740A00208D
:103A200045787465726E616C2052657365740A0026
:103A3000506F77657255700A0073746172740A0072
:103A40004732385859004D31303031006572726F4D
:103A5000722077726974696E6720746F2066696C72
:103A6000650A00446F6E6520736176696E67206633
:103A7000696C652E0A004D323900456E6473746FAF
:103A8000707300255320256320256320256320259E
:103A9000630020503A00205A3A0020593A0020583A
:103AA0003A00656E6473746F7073206869743A20AD
:103AB0000000000A0B02090C0D0E080703040100A8
:103AC00000000000000000000000000000000000F6
:103AD00000000000000000000000000000121110B3
:103AE00000000000000000000000000000000000D6
:103AF0000000000000000024F404D9201BC40C5C6A
:103B00000E9804C4095F0265077101F405F900FB12
:103B100004B30048048700C103690058035500033B
:103B2000034500BE023A008402310053022A0029F4
:103B300002250004022000E4011C00C8011900AFA6
:103B40000117009801140084011300710110006135
:103B500001100051010E0043010D0036010B002B36
:103B6000010B0020010B00150109000C01090003E5
:103B7000010800FB000800F3000800EB000700E468
:103B8000000600DE000600D8000600D2000600CCC9
:103B9000000500C7000500C2000500BD000400B913
:103BA000000400B5000400B1000400AD000400A949
:103BB000000400A5000300A20003009F0004009B76
:103BC000000300980003009500020093000300909A
:103BD0000003008D0002008B0003008800020086B5
:103BE00000020084000300810002007F0002007DCB
:103BF0000002007B000200790002007700010076DD
:103C00000002007400020072000100710002006FE7
:103C10000002006D0001006C0002006A00010069F2
:103C200000020067000100660001006500010064F9
:103C30000002006200010061000100600001005FFD
:103C40000002005D0001005C0001005B0001005A01
:103C50000001005900010058000100570001005602
:103C60000001005500010054000100530000005302
:103C70000001005200010051000100500001004FFE
:103C80000001004E0000004E0001004D0001004CFC
:103C90000001004B0000004B0001004A00010049F8
:103CA00000010048000000480001004700010046F4
:103CB00000000046000100450000004500010044EE
:103CC00000010043000000430001004200000042E8
:103CD0000001004100000041000100400001003FE0
:103CE0000000003F0001003E0000003E0001003DDA
:103CF0000000003D0001003C0000003C0000003CD2
:103D00000001003B0000003B0001003A0000003AC7
:103D100000010039000000390001003800000038BF
:103D200000000038000100370000003700010036B5
:103D300000000036000000360001003500000035AC
:103D400000000035000100340000003400000034A1
:103D50000001003300000033000000330001003296
:103D6000000000320000003200010031000000318C
:103D70000000003100010030000000300000003081
:103D80000001002F0000002F0000002F0000002F76
:103D90000001002E0000002E0000002E0001002D6A
:103DA0000000002D0000002D0000002D0001002C5F
:103DB0000000002C0000002C0000002C0001002B53
:103DC0000000002B0000002B0000002B0001002A47
:103DD0000000002A0000002A0000002A000100293B
:103DE000000000290000002900000029000000292F
:103DF0000001002800000028000000280000002822
:103E00000000002800010027000000270000002714
:103E10000000002700000027000100260000002607
:103E200000000026000000260000002600010025FA
:103E300000000025000000250000002500000025EE
:103E400000000025000100240000002400000024E0
:103E500000000024000000240001002300000023D3
:103E600000000023000000230000002300000023C6
:103E700000000023000100220000002200000022B8
:103E800000000022000000220000002200010021AA
:103E9000000000210000002100000021000000219E
:103EA000000000210000002100010020000000208F
:103EB0000000002000000020000000200000002082
:103EC00000000020000000200001001F0000001F73
:103ED0000000001F0000001F0000001F0000001F66
:103EE0000000001F0001001E0000001E0000001E58
:103EF0000000001E00000024F4D43050C38E20C205
:103F0000A24017828B7011127A910D816CD90AA888
:103F100061E108C7586607615143061E4B5D05C144
:103F200045A7041A411104093D9803713931034032
:103F300036DB0265339102D4305402802E1D0263B9
:103F40002CEE01752AC501B028A001102781018F30
:103F50002564012B244B01E0223401AC211F018D8B
:103F6000200D01801FFC00841EED00971DDF00B8AE
:103F70001CD200E61BC600201BBC00641AB200B2B3
:103F800019A8000A19A0006A189900D117910040D9
:103F9000178B00B516840031167E00B31579003AF0
:103FA000157300C7146F0058146A00EE136600887A
:103FB00013630025135E00C7125B006C12570015D7
:103FC000125400C111510070114F0021114B00D645
:103FD0001049008D1047004610440002104200C0F6
:103FE0000F4000800F3E00420F3C00060F3B00CB0D
:103FF0000E3800930E37005C0E3500270E3400F3A8
:104000000D3200C10D3100900D3000600D2E0032D8
:104010000D2D00050D2C00D90C2B00AE0C290085B0
:104020000C29005C0C2700350C27000E0C2600E83C
:104030000B2400C40B2400A00B23007D0B23005A8B
:104040000B2100390B2100180B2000F80A1F00D9A2
:104050000A1E00BB0A1E009D0A1D00800A1D006387
:104060000A1C00470A1B002C0A1B00110A1A00F741
:10407000091A00DD091900C4091900AB09190092D9
:104080000917007B091800630917004C0916003650
:10409000091600200916000A091500F5081500E0A8
:1040A000081400CC081400B8081400A408140090E8
:1040B0000813007D0812006B081300580812004610
:1040C0000812003408110023081100120811000121
:1040D000081100F0071000E0071000D0071000C022
:1040E000071000B0070F00A107100091070E008312
:1040F000070F0074070F0065070E0057070E0049F1
:10410000070E003B070D002E070E0020070D0013C1
:10411000070D0006070D00F9060C00ED060D00E086
:10412000060C00D4060C00C8060C00BC060C00B03F
:10413000060C00A4060B0099060C008D060B0082ED
:10414000060B0077060B006C060B0061060A005791
:10415000060B004C060A0042060A0038060A002E2A
:10416000060A0024060A001A060A001006090007BB
:10417000060A00FD050900F4050900EB050900E247
:10418000050900D9050900D0050900C7050900BEC9
:10419000050900B5050800AD050800A50509009C46
:1041A000050800940508008C050800840508007CBB
:1041B000050800740508006C050700650508005D2A
:1041C000050700560508004E050700470507004093
:1041D00005080038050700310507002A05070023F8
:1041E0000507001C050600160507000F0507000857
:1041F00005060002050700FB040600F5040700EEB3
:10420000040600E8040600E2040700DB040600D50B
:10421000040600CF040600C9040600C3040600BD5E
:10422000040600B7040600B1040500AC040600A6AD
:10423000040600A00405009B0406009504050090F8
:104240000406008A04050085040500800406007A3F
:1042500004050075040500700405006B0405006684
:10426000040500610405005C0405005704050052C4
:104270000405004D04050048040500430405003E04
:104280000404003A04050035040500300404002C41
:1042900004050027040400230405001E0404001A7A
:1042A00004040016040500110404000D04040009B0
:1042B0000405000404040000040400FC030400F8E6
:1042C000030400F4030400F0030400EC030400E81A
:1042D000030400E4030400E0030400DC030400D84A
:1042E000030400D4030400D0030400CC030400C87A
:1042F000030300C503030056290000691B0000608A
:1043000010000012090000CC0400007802000040F8
:10431000010000A10000004D6F766520246D6D0046
:10432000302E303235004D6F766520302E316D6D78
:10433000004D6F766520316D6D004D6F76652031D3
:10434000306D6D004D6F76652041786973004D6F5B
:104350007665202A004D6F76652040003A36353666
:104360004368616E67652046696C616D656E7400B7
:10437000556E6C6F61642046696C616D656E74008A
:104380004C6F61642046696C616D656E740050729B
:10439000656865617420437573746F6D0050726554
:1043A000686561742024004261636B0020005072D4
:1043B000696E742066726F6D204D656469610020BE
:1043C00000200020746F6F206C6F6E67206578741A
:1043D000727573696F6E2070726576656E74656450
:1043E0000A0020636F6C6420657874727573696F5E
:1043F0006E2070726576656E7465640A0070726F07
:104400006D70745F00626567696E00446973616214
:104410006C6552756E6F75740050757267654D6F7F
:1044200072650050617573656400436F6E74696EE8
:104430007565004C6F61642046696C616D656E74D2
:10444000205400496E736572742066696C616D65F5
:104450006E7420616E642073656E64204D31303857
:104460000A00726573756D6564004469736D6973E4
:104470007300526573756D696E670050726F626983
:104480006E67204661696C656400205A3A200020FE
:10449000593A200042656420583A2000FFFFFF3E51
:1044A00036AE45AA45A64500002200250028002B6F
:1044B000002E003100340002010000050108010B4C
:1044C0000100002100240027002A002D00300033C5
:1044D0000001010000040107010A010505050507A7
:1044E0000508080808020202020A0A08080404046F
:1044F000040101010101010101030303030303039B
:1045000003040707070C0C0C0C0C0C0C0C02020229
:104510000206060606060606060B0B0B0B0B0B0B1C
:104520000B010210202008081020401020408002BB
:1045300001020108040201010204081020408080E9
:10454000402010080402018004020180402010086D
:104550000402010804020101020408102040800145
:1045600002040810204080204500205A00205900F5
:1045700020204D39322058005374657073207065C7
:104580007220756E697400220A00556E6B6E6F772B
:104590006E20636F6D6D616E643A202200204200D0
:1045A0002050006F6B0020453A00205A3A002059F5
:1045B0003A00583A006F6B0A00526573656E643AB0
:1045C0002000A6002A0111241FBECFEFD1E2DEBFDA
:1045D000CDBF00E00CBF84B780933C1A14BE0FB669
:1045E000F894A89580916000886180936000109293
:1045F00060000FBE14E0A0E0B2E0E0ECF4E003E005
:104600000BBF02C007900D92A435B107D9F72AE17C
:10461000A4E5B4E001C01D92AC33B207E1F712E2A9
:10462000C2EED2E200E006C021970109802FFE0110
:104630000F94E67EC13ED10780E00807A9F70F94EA
:104640003E6B0D944F820C94000090E080E0089542
:10465000CF93DF93C0914709D091480981E0CE31D3
:10466000D105E4F020E030E040E05FE360914309F1
:104670007091440980914509909146090F94EF7E0D
:104680000F9433806C1B7D0B77FF03C07195619590
:10469000710981E0633071050CF080E0DF91CF910A
:1046A0000895CF93DF93DB01F9019C919130C1F024
:1046B000943080F094509C938830D1F48081918123
:1046C000009771F0019791838083480F591FEA0189
:1046D000188206C08C3539F49C5F9C93943041F469
:1046E000DF91CF9108958B3339F781E08C93F8CF28
:1046F00020813181B9016F5F7F4F71836083420FE9
:10470000531FEA018883808191818F3591056CF771
:10471000E7CF0F931F9381E000912718109128187D
:104720002091291830912A1840912318509124186B
:10473000609125187091261804171507260737076A
:1047400008F480E01F910F91089590E080E00895B3
:104750002091D705833021F425FD0CC024FD0CC029
:1047600030E0A90102C0559547958A95E2F7CA0144
:104770008170089581E0089580E008958091F205A8
:1047800084FD0BC08091F40587FD07C09091F5056D
:10479000937081E019F480E0089581E00895CF924C
:1047A000DF92EF92FF92CF93DF93EC01CC80DD801C
:1047B000EE80FF8022ED30E040EA50ECC701B60108
:1047C0000F94168187FD23C023E030E046E953E4CF
:1047D000C701B6010F941F781816CCF0C880D98095
:1047E000EA80FB8022ED30E040EA50ECC701B601E0
:1047F0000F94168187FD0BC0C1E023E030E046E94D
:1048000053E4C701B6010F941F7818160CF4C0E0EA
:104810008C2FDF91CF91FF90EF90DF90CF90089594
:10482000682F70E090E080E00F94257820914B068F
:1048300030914C0640914D0650914E060F9484786D
:1048400020913E0630913F0640914006509141062E
:104850000D94EF7E682F70E090E080E00F94257853
:1048600020914706309148064091490650914A06EA
:104870000F94847820913A0630913B0640913C0693
:1048800050913D060D94EF7E2FEB280F2A3108F052
:1048900047C0E22FF0E08091F2059091F305A091DE
:1048A000F405B091F50504C0B695A7959795879541
:1048B0002A95D2F780FD02C081700895E852FA4F20
:1048C000E081EE2341F18091FC119091FD11E80F00
:1048D000F92FF11D808190ED980F9A3030F08E32D3
:1048E00051F4818180538A3098F4F093CB05E093A2
:1048F000CA0581E008958D3211F08B3249F481812F
:1049000090ED980F9A3088F38E3211F48281EACFBD
:10491000F0E0E0E0EACF1092CB051092CA05E9CFB3
:1049200080E00895B1DF882341F081E02091CA053D
:104930003091CB05232B09F480E00895282F809334
:104940006402803240F580914A08281724F081E003
:10495000820F80934A0881E090E002C0880F991F7F
:104960002A95E2F7092E000CAA0BBB0B40914608D2
:104970005091470860914808709149088423952315
:10498000A623B72321E0892B8A2B8B2B09F420E067
:104990002093D70908951092D70908951092C9104D
:1049A0008091480290914902A0914A02B0914B0235
:1049B0008093C5069093C606A093C706B093C80619
:1049C0000895269A2E9A0895EF92FF920F931F93BF
:1049D000CF93DF93EC018B017A018A859B85861743
:1049E000970731F0888199810F94325F1B870A877E
:1049F000B701888199810F94F4562E813F81820FEF
:104A0000932F911D9F838E8390E080E0DF91CF9163
:104A10001F910F91FF90EF9008959F92AF92BF92D8
:104A2000CF92DF92EF92FF920F931F93CF93DF937A
:104A3000EC018B01942EA52E8A859B8586179707FE
:104A400031F0888199810F94325F1B870A878885AE
:104A50009985019649F5BC800A818E81080FC8802E
:104A6000D980D6015596ED91FC91C6011995B80EE5
:104A7000E92CFA2C10E0F70121917F01211127C0C8
:104A80008E819F81810F911D9F838E8390E080E0B6
:104A9000DF91CF911F910F91FF90EF90DF90CF901A
:104AA000BF90AF909F9008950E811F81692D7A2D40
:104AB000888199810F94F456800F912F911D28853C
:104AC00039852817390738F681E090E0E1CF4B2D82
:104AD000602FC6010F948A5F080F180FCCCFDF92AA
:104AE000EF92FF920F931F93CF93DF93EC01D62E9B
:104AF0001CAD0BAD7C0184E0E80EF11CE98DFA8D54
:104B0000C7011995412F480F2D2D602FC7010F9414
:104B10008A5F9BAD890F8BAF81E090E0DF91CF91F1
:104B20001F910F91FF90EF90DF9008952F923F9289
:104B30004F925F926F927F928F929F92AF92BF92AD
:104B4000CF92DF92EF92FF920F931F93CF93DF9359
:104B5000CDB7DEB72D970FB6F894DEBF0FBECDBF31
:104B600080916C11813031F080912B1882FF6EC0E2
:104B700087FD6CC00E9418CA4B015C0145E050E003
:104B800060E270E084E398E00F94FB8185E4809319
:104B900032088AE380933308C501B40120E13EE086
:104BA00040E050E00F94497ED22EC32E022F132FE7
:104BB0008CE3282E312C412C512CC501B401A201CB
:104BC00091010F94497E762E672ECA01B901A20188
:104BD00091010F94497E9E012F5F3F4F790130E88C
:104BE000831631E5930631E0A306B10408F447C00B
:104BF0007F936F93C80168E170E00F94BF7E9F932D
:104C00008F93C501B40120E831E541E050E00F94F5
:104C1000497E3F932F9388E99AE19F938F93FF9268
:104C2000EF920F94B877C7010F946E770FB6F89490
:104C3000DEBF0FBECDBF2CE030E0A901481B5109FB
:104C4000CA01B7018E5C974F0F9420822D960FB644
:104C5000F894DEBF0FBECDBFDF91CF911F910F91B2
:104C6000FF90EF90DF90CF90BF90AF909F908F908C
:104C70007F906F905F904F903F902F900895011517
:104C8000110599F46F927F927F936F938CE89AE16C
:104C90009F938F93FF92EF920F94B8770FB6F8948B
:104CA000DEBF0FBECDBF85E0C6CF0436110538F498
:104CB0007F936F93CF92DF9280E89AE1E9CF7F9361
:104CC0006F93CF92DF9286E79AE19F938F93FF9243
:104CD000EF920F94B8770FB6F894DEBF0FBECDBF3A
:104CE00086E0A9CFCF93C0913F08CC23B1F04CE030
:104CF00050E060E270E082E398E00F94FB818C2F3B
:104D00000E940ED1FC0193E0A6E3B8E001900D9261
:104D10009A95E1F785E280933908CF910895CF9372
:104D2000DF93C0914709D0914809209729F16091FC
:104D300043097091440980914509909146090F9467
:104D400033806E5F7F4F24976C177D07ACF47093B0
:104D5000DE066093DD060F94685C605E70448D4FE4
:104D60009F4F6093DF067093E0068093E106909377
:104D7000E206DF91CF9108951092DF061092E006CF
:104D80001092E1061092E206F4CFAB01BC01409311
:104D90002718509328186093291870932A1882E9CD
:104DA00099E10C94A6A163E00D947C600F931F938E
:104DB000CF93DF9300D01F92CDB7DEB79C0102EAFC
:104DC00011E190E1EBE7F2E0D80101900D929A95A4
:104DD000E1F7F9012081318142815381F801608539
:104DE0007185828593850F94EF7EF80160877187C6
:104DF0008287938780E090E0A0E6B1E489839A837C
:104E0000AB83BC83CE0101960E9430EB0F900F90D4
:104E10000F900F90DF91CF911F910F9108952F92D6
:104E20003F924F925F926F927F928F929F92AF923A
:104E3000BF92CF92DF92EF92FF921F93CF93DF93B7
:104E4000CDB7DEB72C970FB6F894DEBF0FBECDBF3F
:104E50007A011901DC012D913D914D915C912D83D9
:104E60003E834F835887FB0140805180628073806E
:104E700080907B0290907C02A0907D02B0907E0298
:104E8000A50194016D817E818F8198850F941F7893
:104E900081110EC011E0A301920160917F02709117
:104EA000800280918102909182020F941F7881117B
:104EB00010E0D1012D913D914D915C9129873A8768
:104EC0004B875C87F701C080D180E280F38020911E
:104ED0000A0230910B0240910C0250910D02C70161
:104EE000B6010F941F78882309F44EC0C0920A02BD
:104EF000D0920B02E0920C02F0920D028091870298
:104F000090918802A0918902B0918A0240917F021B
:104F10005091800260918102709182028092A21170
:104F20009092A311A092A411B092A5114093A61142
:104F30005093A7116093A8117093A911C092AA1160
:104F4000D092AB11E092AC11F092AD118093AE1102
:104F50009093AF11A093B011B093B11120E030E065
:104F600040E05FE36091DE117091DF118091E0110C
:104F70009091E1110F94847869837A838B839C8369
:104F8000CE0101960E9430EB2D813E814F815885E4
:104F90002093A2113093A3114093A4115093A51113
:104FA0004092A6115092A7116092A8117092A91177
:104FB000D1012D913D914D915C916091AE11709117
:104FC000AF118091B0119091B1110F94EF7E609369
:104FD000AE117093AF118093B0119093B111111174
:104FE0002FC020E030E0A90169857A858B859C85FA
:104FF0000F941F78811133C060E070E088EC92E478
:1050000069837A838B839C83CE0101960E9430EB67
:105010002C960FB6F894DEBF0FBECDBFDF91CF91B7
:105020001F91FF90EF90DF90CF90BF90AF909F9037
:105030008F907F906F905F904F903F902F9008954A
:105040002AEF3EE74AE25FE36091E2117091E311DB
:105050008091E4119091E5110F948478D1CF60E0B4
:1050600070E080EA91E4CCCF8091CA059091CB05A5
:10507000009731F04AE050E070E060E00D94407637
:1050800060E070E0CB010895CF93DF9300D01F92D2
:10509000CDB7DEB780E090E0A8ECB2E489839A83D4
:1050A000AB83BC8361E0CE0101960E949BC30F904D
:1050B0000F900F900F90DF91CF91089580919D09EF
:1050C00082FF0BC063E687E897E00F946B240F9490
:1050D000745C0F94AA2D81E0089580E0089580917A
:1050E000CA059091CB05009731F04AE050E070E09E
:1050F00060E00D94137560E070E0CB010895CF93EC
:10510000DF93EB010FDC882311F0E9DFEB01CE0127
:10511000DF91CF910895E3DF97FD0AC0E0DF6F3F95
:1051200071058105910509F02CF4D9DF862F0895CA
:1051300080E008958FEF0895CF93C62FF3DB882387
:1051400011F0CF91E8CF8C2FCF9108958091CA05AF
:105150009091CB05892B39F0DEDF91E0811101C000
:1051600090E0892F089591E0FCCFCF93DF93C82F73
:10517000D62FD8DB882319F0DF91CF91E7CF8C2F82
:1051800083DB811101C08D2FDF91CF910895A7DFBF
:10519000CB010895CF93DF939091D80993FD53C02D
:1051A000C82F89E4BFDB882309F450C0B4DF90E046
:1051B0001816190614F481E090E026E0289FF0010B
:1051C000299FF00D1124EA5AF64F82819381D0E095
:1051D0008E36910514F08EE690E090934809809306
:1051E00047099DDD6091470970914809072E000C21
:1051F000880B990B0F94257820914309309144092D
:1052000040914509509146090F94168160E01816A7
:105210008CF488EF97E10F946B2461E06C278C2F5E
:105220000E94CDAACC2349F060E08D2FDF91CF9171
:105230000C9476A789EE97E1EECF88E293E2909303
:10524000C1168093C016DF91CF91089583E56ADB84
:10525000D82F811106C0CC23B1F382E563DB88230C
:1052600091F395DFB5CFCF93DF93EB015BDB882321
:1052700019F0DF91CF918BCFCE01DF91CF910895BF
:105280000F931F93CF938091CA059091CB05009700
:1052900009F1FC018F01C1912C2F2F7DA1F0C534A4
:1052A00031F0C53621F0C83511F0C83799F7F8014B
:1052B000108270E060E00F94BD73F801C083CF915D
:1052C0001F910F91089570E060E0CF911F910F91B1
:1052D0000D94BD7360E070E0CB01F1CFCF92DF920F
:1052E000EF92FF926A017B011DDB882329F0FF907A
:1052F000EF90DF90CF90C4CFC701B601FF90EF9041
:10530000DF90CF9008950F931F93CF9383E50ADB2F
:105310008823F9F00F94685C6093EA067093EB06BB
:105320008093EC069093ED06ABDF20E030E04AE797
:1053300054E40F9484780F94388060930E02709335
:105340000F028093100290931102CF911F910F9141
:10535000089514DA882331F10E9422B285E494DAA8
:1053600081110E9450AC00ED13E0C0E0F8012191E2
:105370008F0121548091F2059091F305A091F405DD
:10538000B091F50504C0B695A795979587952A9590
:10539000D2F780FF03C08C2F0E945FACCF5FC33079
:1053A00029F7D3CFCF911F910F910C9433B2AF92C5
:1053B000BF92CF92DF92EF92FF920F931F93CF9302
:1053C0005C016B018A018A599A4F7C01DC01CC9106
:1053D000C7FF3DC0FB0111821082CF5FD701CC9384
:1053E000CC300CF053C08CE08A9DF0018B9DF00D09
:1053F0001124CF018C0F911DC7FD9A952091941710
:105400002817190609F00CF441C0F60120813181FA
:10541000FC01EE0FFF1FE80FF91FE45BF84E8181DE
:105420009281820F931FD80111969C938E93808155
:1054300087FF3DC061E08F77CF911F910F91FF9063
:10544000EF90DF90CF90BF90AF900D94A95B8CE070
:105450008A9DF0018B9DF00D1124CF018C0F911DC1
:10546000C7FD9A95209194172817190609F00CF496
:10547000B4CFFC01EE0FFF1FE80FF91FE45BF84EFD
:10548000808160E08F770F94A95BA7CFF6018081C0
:10549000918104968034FCE99F0710F480E49CE934
:1054A000D80111969C938E938FEFF7018083CF9153
:1054B0001F910F91FF90EF90DF90CF90BF90AF9032
:1054C0000895119800C09091020187FD9095917008
:1054D00090930001119A00C000C0119800C09091F3
:1054E000020186FD9095917090930001119A00C081
:1054F00000C0119800C09091020185FD90959170B7
:1055000090930001119A00C000C0119800C09091C2
:10551000020184FD9095917090930001119A00C052
:1055200000C0119800C09091020183FD9095917088
:1055300090930001119A00C000C0119800C0909192
:10554000020182FD9095917090930001119A00C024
:1055500000C0119800C09091020181FD909591705A
:1055600090930001119A00C000C0119800C0809172
:105570000201817080930001119A00C000C008955B
:1055800020E030E040E05FE3609182117091831190
:1055900080918411909185110F94EF7E0F94338048
:1055A000CB0108959CE0899F802D112491E0980FF4
:1055B0009093FE052CE0280F2093930930E02E5F96
:1055C0003F4F409119184217130619F014F080E06C
:1055D000089520911B189217D0F7662341F08E5F33
:1055E0000F94605E809193098E5F0F94605E80914E
:1055F000930990911918891750F320911B189091D5
:10560000FE05291720F310921C1880931D1881E0C5
:105610000895CF938091FD05811154C010921C18FC
:1056200010921D1810921E181092EA171092E91786
:105630001092EC171092EB171092EE1781E0809306
:10564000ED1782E28093EF171092F4171092F31780
:10565000E8E0F8E126E138E18FEF81932E173F076C
:10566000E1F7C1E0C09305182EEB30E03093FB1753
:105670002093FA17C093FC171092FD171092FE1793
:1056800090E49093FF171092001828EB30E03093CD
:1056900017182093161827E132E03093E81720936B
:1056A000E71797E190930C1891E190930D1890E112
:1056B00090930A1880930918809308180F943E5D00
:1056C000C093FD0581E08093FF058CE69AE19093FD
:1056D00019178093181710921B1710921A17CF9151
:1056E00008952091FC05022E000C330B821713063F
:1056F00041F08093FC0569EA7AE185EE97E10D942B
:10570000325F0895EF92FF920F931F93CF93DF9331
:10571000CDB7DEB72C970FB6F894DEBF0FBECDBF66
:10572000FC0160817181828193816F3F71058105E8
:10573000910509F0B8F481EE97E1D1D9E091E9172C
:10574000F091EA173196849190E02C960FB6F89478
:10575000DEBF0FBECDBFDF91CF911F910F91FF90A4
:10576000EF90089510911C1800911D182091FF05CD
:1057700021110FC04CE45AE1602F812F0F94F55F87
:1057800090E080E0180F10931C1800931D189927C3
:10579000DCCFE090E917F090EA1725EE37E13A8385
:1057A0002983212F30E03C832B83202F30E03E8360
:1057B0002D8318861F822FEF3FEF3A8729871C869B
:1057C0001B862DE035E2AE014F5F5F4FBF01C70181
:1057D0000F94A04AB70185EE97E10F94325F8F8155
:1057E0009885D0CFCF93DF93FC0125AD211104C064
:1057F00021E025AF0F943E5DC091E717D091E817E7
:10580000E0911618F091171882E01995E09116189A
:10581000F091171881E0199530E020E044E1BE01D5
:1058200085EE97E10F943A5D28E138E147E1BE014A
:1058300085EE97E10F943A5DE0911618F0911718F4
:1058400080E0DF91CF911994CF92DF92EF92FF9297
:105850000F931F93CF93DF93CDB7DEB72C970FB67F
:10586000F894DEBF0FBECDBFF0901C18E0901D185D
:105870002091FF0521111DC04CE25AE16E2D8F2DA4
:105880000F94F55F90E080E0F80EF0921C18E09223
:105890001D1899272C960FB6F894DEBF0FBECDBF0A
:1058A000DF91CF911F910F91FF90EF90DF90CF90FC
:1058B0000895C090E917D090EA1725EE37E13A83B2
:1058C00029832F2D30E03C832B832E2D30E03E8327
:1058D0002D8318861F827A8769871C861B860DE0B8
:1058E00015E29E012F5F3F4F41E250EFBC01C60120
:1058F0000F94654BB60185EE97E10F94325F8F816F
:105900009885C2CF6FEF7FEF9FCFE1EEF7E183AFD6
:1059100064AFCA01F7CFF6CFCF92DF92EF92FF923A
:105920000F931F93CF93DF93CDB7DEB72C970FB6AE
:10593000F894DEBF0FBECDBFF0901C18E0901D188C
:105940002091FF0521111DC04CE05AE16E2D8F2DD5
:105950000F94F55F90E080E0F80EF0921C18E09252
:105960001D1899272C960FB6F894DEBF0FBECDBF39
:10597000DF91CF911F910F91FF90EF90DF90CF902B
:105980000895C090E917D090EA1725EE37E13A83E1
:1059900029832F2D30E03C832B832E2D30E03E8356
:1059A0002D8318861F827A8769871C861B860DE0E7
:1059B00015E29E012F5F3F4F44E250EFBC01C6014C
:1059C0000F94654BB60185EE97E10F94325F8F819E
:1059D0009885C2CF8F929F92AF92BF92CF92DF9263
:1059E000EF92FF920F931F93CF93DF935B01C42F2E
:1059F000690141FB662760F9D5DD882309F460C0A1
:105A000010E000E0A114B10439F0C5010F94CB2DD2
:105A100066E0869F80011124F12CE12CC114D10491
:105A200029F0C6010F94D92DE82EF12CC0FF1FC01C
:105A300080E890E0801B910B4AEFB701460390018C
:105A4000479F300D1124820F931F6CE070E00F947C
:105A5000D37E4B01C0E8D0E071E0871A910897FC33
:105A600008C08EE69AE14EDFC81BD90BF5CFC0E81F
:105A7000D0E0012BB9F0CE0166E070E00F94BF7E5C
:105A80002091970930919809409195095091960974
:105A9000062F60919409C5010F94F53796E0899F10
:105AA000E0011124EF2829F0BE01C60135DFC81B33
:105AB000D90BC730D10520F08CE69AE123DFF7CF70
:105AC000DF91CF911F910F91FF90EF90DF90CF90DA
:105AD000BF90AF909F908F9008956FEF7FEF1CCF96
