:100000000C9446200C9477200C9477200C94772045
:100010000C9477200C9477200C9477200C94772004
:100020000C9477200C9477200C9477200C947720F4
:100030000C9477200C9477200C9477200C947720E4
:100040000C9477200C949B630C9477200C9477206D
:100050000C9477200C9477200D9486230D945F4F99
:100060000C9477200C9496410C948C410C9477203E
:100070000C9477200C9477200C9477200C947720A4
:100080000C9439390C9477200C9477200C947720B9
:100090000C9477200C9477200C9477200C94772084
:1000A0000C9477200C9477200C940B390C947720C7
:1000B0000C9477200C9477200C9477200C94772064
:1000C0000C9477200C9477200C9477200C94772054
:1000D0000C9477200C9477200C9477200C94772044
:1000E0000C947720CC41DE41F041014209423C4270
:1000F0000D423C42114215423C4219421D422142EE
:100100002A423C423542FF976E96A7963B98A796A7
:10011000A796A796A796A796A796A796A796A796F7
:10012000A796A796A796A796A796A796A796A796E7
:10013000A796A796A796A796A796A796A796A796D7
:10014000A7963598A796A796A796A796A796A79637
:10015000A796A7960E98A796A796A796A796A7964E
:10016000A796A796A796A796A7965298A4965F02D9
:10017000CD01A50117029F02CF02BD021501BD01ED
:100180004B027F02A30167027B023F01B9020F020B
:10019000B9012101ED01A50251017D0135028F0157
:1001A000A101B90155021B01BB0157029D012F029C
:1001B0008D028F0203028502EF014102E701EB018C
:1001C000C902A9026B020302C101F1013102084A0E
:1001D000D73B3BCE016E84BCBFFDC12F3D6C74315B
:1001E0009ABD56833DDA3D00C77F11BED9E4BB4CB2
:1001F0003E916BAAAABE000000803F05A84CCDB27C
:10020000D44EB93836A9020C50B9918688083CA65C
:10021000AAAA2ABE000000803F000D94212C0C9455
:100220002D6E0C943DE20C9405AB0D94532E0C9462
:1002300011420D944C2C0D94334E0D94EE3C0C94C5
:10024000544F0D94094E0D94002C0D9437590C9475
:1002500056500C94ED420C94A7960C9435420C9495
:1002600029E20C9499820C9496E10C9497580D9481
:100270006D280D94B21C0D94EC380C9435540D94EB
:10028000F44D0C942A420C94E8510C9471A90D94ED
:10029000182C0D94FB260C94B8820D94043D0C94FC
:1002A000B4990D94174E0D94102C0D94F02B0D94C1
:1002B000D62E0D94F42B0C9400520C940E980C94A2
:1002C00000A80D94D1380C9417430C94F0410C9471
:1002D000D6E10D94462C0C9466E20C9429E40C941F
:1002E0003B980C94DA9E0C9470550C943C420C9400
:1002F000B44F0C9461E70C9438E20D941B4E0C94AF
:1003000061500D94DA3A0C94E2510C94D0510C9453
:10031000DE990C94D1AC0C946C550C9412E20D94B3
:10032000254E0C94D6510C9480580C94F34F0C9499
:1003300009420D94142C0D941B2C0D947E4E0C949C
:1003400015420D94294E0D94502E0D943E2E0D9471
:10035000A3600D94D5340C942EE20C94DC510C94D3
:10036000DE410C9401420D94BD2E0D940A3D0C9477
:1003700018E20D943C4E0D94374E0D944A2E0C9479
:10038000D7AC0D94F24E0C9447500C9433E20C947D
:1003900030830C94A4960C9428830D943B2E0C94DB
:1003A00025500C9451580C94EC950D94D22E0D942C
:1003B000AA3C0C94EC420C946E960D94402C0D9437
:1003C000082C0C945A520D942D2C0C943B4F0D94E8
:1003D000BB4E0C943F520D94C54E0D940D4E0D9492
:1003E000A94E0D94FC4E0C94F0420C94F4510C94D4
:1003F00019420D94E2260D9458390D94C3380C948B
:10040000A9520C9479430D94104F0C94C8E10C94AC
:1004100006520C9447E20C94D7BA0C94FE950D94B6
:10042000FC4D0D94FC2B0D94203F0C94CC410D946D
:100430005B2E0C94864F0C94C5580C94AE580C94BB
:100440006A550D946A390C9435980C9418590C948B
:100450000C520C94D5AC0C940C500D94B92E0D94F8
:10046000834E0D94064F0C940D420D94214E0C9426
:10047000EF950C9466500C94C6E10C9412520C94B7
:1004800024E20D94B14E0C946D4F0D9485600C9444
:10049000CEE10D940C2C0D94662E0C944B550D94BE
:1004A0001B2E0C94D3AC0C94EA850D942F4E0D9416
:1004B000794E0C9421420C94A5600C942D560D9409
:1004C000582E0D9422390C94E9950C9442E20D9427
:1004D000024E0C943E500D94E84E0C9458820C94AD
:1004E00015830C9421520C9430520C94C4E10D9459
:1004F0000F350D94042C0D94054E0C9422E30D94AD
:100500004D2E0C941C590D94DE290D94A14E0C9483
:10051000D5E50D9494270C94E4830D948D4E0D94A1
:10052000974E0C941EE20D94682E0C94EE510C9490
:10053000B19E0C9460580D94CE2E0D941E2C0D94EB
:10054000412E0C94FF970C946E550D94134E0C9401
:100550000CE20D94DE4E0C9482840C94C74F0C94E4
:1005600069520C941D420C943F5C0D94CF260C9460
:100570000C830D94F84D0C9429E30D94472E0C94A4
:1005800052980C9471750C94B9E10C94FA510D9435
:100590000F2E0D94CF4E0C9477880C94ADBA0D9419
:1005A000442E0C94D9AC0C94A14F0D94F82B0C94C0
:1005B00069580C944B520C941D830C94E04F0D948D
:1005C0003D390D94F83C0C9424770D9407394E4135
:1005D0004E494E495459494E46CDCCCC3D0AD723BD
:1005E0003C17B7D13877CC2B329595E6241FB14F05
:1005F0000A000020410000C84200401C4620BCBE4A
:100600004CCA1B0E5AAEC59D7400407A10F35A00B6
:10061000A0724E18090010A5D4E80000E87648172B
:100620000000E40B54020000CA9A3B000000E1F510
:1006300005000080969800000040420F000000A0D6
:100640008601000000102700000000E80300000001
:10065000006400000000000A00000000000100002B
:100660000000002C76D888DC674F0823DFC1DFAE9E
:1006700059E1B1B796E5E3E453C63AE65199769667
:10068000E8E6C28426EB898C9B62ED407C6FFCEF30
:10069000BC9C9F40F2BAA56FA5F490055A2AF75C5E
:1006A000936B6CF9676DC11BFCE0E40D47FEF52010
:1006B000E6B500D0ED902E030094357705008084D8
:1006C0001E080000204E0A000000C80C33333333EC
:1006D0000F986E12831141EF8D2114893BE6551658
:1006E000CFFEE6DB18D1844B381BF77C1D901DA490
:1006F000BBE424203284725E228100C9F124ECA183
:10070000E53D27434F4D4D554E49434154494F4ECA
:100710000044525952554E004552524F52530045D3
:1007200043484F0047322F47332062616420706195
:1007300072616D65746572730A00536C6565702E25
:100740002E2E005A2050726F626520506173742003
:100750004265640A005A2050726F626520506173CE
:100760007420426564004D3131372050726F6265EC
:10077000206661696C65642E205265776970696EC8
:10078000672E0A4732380A47313220503020533121
:10079000322054300070726F62655F7265776970E5
:1007A0006500473239205265747279696E67004D71
:1007B00031313720426564206C6576656C696E67FF
:1007C000206661696C65642E0A4730205A31300A10
:1007D0004D3330302050323520533838300A4D33C5
:1007E0003030205035302053300A4D3330302050D7
:1007F000323520533838300A4D33303020503530C0
:100800002053300A4D3330302050323520533838A1
:10081000300A4D333030205035302053300A4734C1
:100820002053310070726F62655F6661696C656448
:10083000004D31313720426564206C6576656C6906
:100840006E6720646F6E652E004D65736820706F53
:10085000696E74206F7574206F662072616E6765B3
:100860000A004D302053746F70004D312053746F67
:100870007000436C69636B20746F20526573756DF3
:10088000652E2E2E004E6F204D6F76652E00456E24
:10089000642066696C65206C6973740A0042656740
:1008A000696E2066696C65206C6973740A004E6F0E
:1008B000206D656469610A00526573756D696E67C4
:1008C00020534400286E6F2066696C6529004375CB
:1008D0007272656E742066696C653A2000507269A8
:1008E0006E742074696D653A20000A5374617473E4
:1008F0003A2046696C616D656E7420757365643A63
:1009000020002C204C6F6E67657374206A6F623A0A
:100910002000546F74616C2074696D653A20002C5E
:10092000204661696C65643A20002C2046696E6936
:10093000736865643A20005072696E74733A2000DF
:1009400053746174733A2000452025530044454296
:1009500055473A004D3131332053004265642043FE
:100960006F6F6C696E672E2E2E004265642048659D
:100970006174696E672E2E2E0043522D3130205641
:1009800033204F46462E002F2F20004D3134352086
:10099000533C696E6465783E206F7574206F6620E5
:1009A00072616E67652028302D31290A0046523A5F
:1009B0000020466C6F773A200020536572766F20D6
:1009C0000020643A0020693A0020703A006469739C
:1009D0000043290A0061626C656420286D696E20FD
:1009E00074656D702000436F6C6420657874727557
:1009F00064657320617265200046696C616D656E87
:100A0000742072756E6F75742064697374616E639F
:100A10006520286D6D293A200046696C616D656E10
:100A2000742072756E6F757420004D3432312069F8
:100A30006E636F727265637420706172616D65744C
:100A400065722075736167650A00454550524F4DC8
:100A5000204F4B0A00506F7765722D6C6F737320B7
:100A60007265636F766572792000446F6E652070E1
:100A700072696E74696E672066696C650A004D372D
:100A800037004D3331001F07A40A18071107030769
:100A9000554E4B4E4F574E205354415445004743FB
:100AA0004F44455F494E464F004C43445F504155CB
:100AB00053455F524553554D450046494C414D45C0
:100AC0004E545F52554E4F55545F434F4E54494E0E
:100AD00055450046494C414D454E545F52554E4F89
:100AE0005554004D38373620526573706F6E646907
:100AF0006E672050524F4D50545F004572726F72B6
:100B00002077726974696E6720746F204545505272
:100B10004F4D210A004E6F20436865636B73756DFE
:100B20002077697468206C696E65206E756D6265EA
:100B3000722C204C617374204C696E653A200063FE
:100B40006865636B73756D206D69736D617463683F
:100B50002C204C617374204C696E653A20004C69FE
:100B60006E65204E756D626572206973206E6F74BC
:100B7000204C617374204C696E65204E756D626502
:100B8000722B312C204C617374204C696E653A20B5
:100B9000004D31313000534420726561642065722C
:100BA000726F720A002121204B494C4C2063617501
:100BB000736564206279204B494C4C2062757474D3
:100BC0006F6E2F70696E0A002121204B494C4C201A
:100BD00063617573656420627920746F6F206D7531
:100BE000636820696E6163746976652074696D65F8
:100BF000202D2063757272656E7420636F6D6D6158
:100C00006E643A2000627573793A2070617573657D
:100C10006420666F7220696E7075740A0062757365
:100C2000793A2070617573656420666F7220757300
:100C300065720A00627573793A2070726F6365732A
:100C400073696E670A004D656469612052656D6F56
:100C5000766564004D6564696120496E73657274E0
:100C60006564004D3130303053007061757365003C
:100C70004D363030002066696C616D656E745F7250
:100C8000756E6F7574200066696C616D656E745F5A
:100C900072756E6F757420540046696C616D656E77
:100CA0007452756E6F75742054002569792025691A
:100CB00064202569682025696D20256973002364F7
:100CC0006566696E652044454641554C545F004B4E
:100CD0006420004B6920004B7020005049442041A3
:100CE00075746F74756E652066696E697368656486
:100CF000212050757420746865206C617374204BDA
:100D0000702C204B6920616E64204B6420636F6EF1
:100D10007374616E74732066726F6D2062656C6FA0
:100D20007720696E746F20436F6E666967757261B4
:100D300074696F6E2E680A00504944204175746FC3
:100D400074756E65206661696C6564212074696DD7
:100D5000656F75740A000A20436C617373696320C0
:100D6000504944200A00204B643A2000204B693A45
:100D70002000204B703A20000A204E6F206F7665CD
:100D80007273686F6F740A002054753A2000204B0C
:100D9000753A2000206D61783A2000206D696E3A26
:100DA000200020643A200020626961733A200050DC
:100DB0004944204175746F74756E65207374617257
:100DC000740A00504944204175746F74756E652033
:100DD0006661696C6564212054656D70657261742B
:100DE00075726520746F6F20686967680A005049E2
:100DF00044204175746F74756E65005049442041FC
:100E000075746F74756E65206661696C6564212008
:100E1000426164206578747275646572206E756DC8
:100E20006265720A004572723A20757466382066EF
:100E30006F6E74206E6F7420696E697469616C697D
:100E40007A65642E00000C0F00FE07022503BB012B
:100E50007FFE08FE08FE05080806000040F0C8886E
:100E600088987810050808060000C0F888888888E7
:100E700088F80505050600012030F830200508082F
:100E80000600002070F820202020E0050909060057
:100E9000FF2070A8A8B88888702007050507000102
:100EA000D86C366CD80509090600FFF8A888888830
:100EB0008888A8F8050A0A0600FE2050505050887D
:100EC000A8A8887003030306000340A040FFFFFFAB
:100ED000FFFFFFFFFFFFFFFFFFFFFFFFFFFFFFFF22
:100EE000FFFFFF0000000605FF0107070602008064
:100EF000808080800080030303060105A0A0A00578
:100F0000060606000050F85050F850050909060082
:100F1000FF2070A8A07028A8702005070706000011
:100F2000C8C8102040989805070706000040A0A0F8
:100F300040A8906801030306020580808003090928
:100F40000601FF20404080808040402003090906C0
:100F500001FF804040202020404080050707060018
:100F60000020A8702070A82005050506000120209B
:100F7000F820200203030601FFC04080050101069E
:100F80000003F8020202060100C0C00507070600C0
:100F900000081010204040800507070600007088F8
:100FA00098A8C8887003070706010040C040404069
:100FB00040E0050707060000708808102040F8058B
:100FC0000707060000F808103008887005070706B4
:100FD000000010305090F81010050707060000F8C8
:100FE00080F008088870050707060000304080F090
:100FF000888870050707060000F8081010202020D8
:101000000507070600007088887088887005070744
:101010000600007088887808106002050506010047
:10102000C0C000C0C00206060601FFC0C000C0402C
:1010300080030505060101204080402005030306CA
:101040000002F800F80305050601018040204080F9
:1010500005070706000070881020200020050707FC
:101060000600007088B8A8B8807005070706000061
:10107000708888F8888888050707060000F04848C7
:10108000704848F005070706000070888080808857
:1010900070050707060000F04848484848F0050773
:1010A00007060000F88080F08080F805070706003A
:1010B00000F88080F08080800507070600007088B7
:1010C0008080988870050707060000888888F8885F
:1010D0008888030707060100E04040404040E005E3
:1010E000070706000038101010109060050707066B
:1010F00000008890A0C0A090880507070600008027
:101100008080808080F805070706000088D8A888BE
:101110008888880507070600008888C8A8988888F6
:10112000050707060000708888888888700507070B
:10113000060000F08888F080808005070706000020
:1011400070888888A89068050707060000F08888DE
:10115000F0A0908805070706000070888070088856
:1011600070050707060000F8202020202020050732
:1011700007060000888888888888700507070600A9
:101180000088888888505020050707060000888856
:101190008888A8A8500507070600008888502050B6
:1011A0008888050707060000888850202020200531
:1011B0000707060000F80810204080F80309090618
:1011C00001FFE080808080808080E00507070600C6
:1011D00000804040201010080309090601FFE020AC
:1011E000202020202020E005030306000520508851
:1011F0000501010600FEF8030303060105804020F7
:1012000005050506000070087888780507070600C0
:10121000008080F0888888F0050505060000708051
:101220008088700507070600000808788888887895
:101230000505050600007088F080700507070600A8
:1012400000304840E04040400507070600FE708837
:1012500088887808700507070600008080F0888875
:1012600088880307070601004000C0404040E004B2
:1012700009090601FE1000301010101090600507DB
:101280000706000080808890E09088030707060129
:1012900000C04040404040E0050505060000D0A8E1
:1012A000A8A8A8050505060000B0C8888888050517
:1012B0000506000070888888700507070600FEF0A4
:1012C000888888F080800507070600FE788888886F
:1012D000780808050505060000B0C880808005056F
:1012E0000506000078807008F0050707060000205A
:1012F00020F8202020180505050600008888889819
:101300006805050506000088888850200505050643
:1013100000008888A8A85005050506000088502010
:1013200050880507070600FE888888502040800501
:101330000505060000F8102040F80309090601FF22
:101340002040404080404040200109090602FF80C3
:1013500080808080808080800309090601FF8040B2
:101360004040204040408005030306000248A8900A
:10137000FF452073746570732F6D6D005A20537490
:101380006570732F6D6D00592053746570732F6DE8
:101390006D00582053746570732F6D6D00496E6930
:1013A000740050726F6265204F66667365747300D7
:1013B000416363656C65726174696F6E0056656C3C
:1013C0006F63697479005A2056616C756500496EC7
:1013D000646578205900496E64657820580046613C
:1013E0006465204865696768740045646974204DC8
:1013F000657368004C6576656C2042656400473211
:10140000380A4732390052756E6F7574204469731B
:1014100074206D6D004C6F6164206D6D00556E6CB5
:101420006F6164206D6D0046696C2E204469612EE9
:10143000004520696E206D6DC2B3004D33303320FE
:1014400055312045256920532569005049442041E4
:1014500075746F74756E65202A005049442D4420C0
:101460002A005049442D49202A005049442D50203B
:101470002A0020082046616374002008204D61780E
:10148000002008204D696E004175746F74656D70A1
:101490000024F4D43050C38E20C2A24017828B7037
:1014A00011127A910D816CD90AA861E108C75866BA
:1014B00007615143061E4B5D05C145A7041A411142
:1014C00004093D9803713931034036DB02653391DD
:1014D00002D4305402802E1D02632CEE01752AC501
:1014E00001B028A001102781018F2564012B244B16
:1014F00001E0223401AC211F018D200D01801FFC71
:1015000000841EED00971DDF00B81CD200E61BC64C
:1015100000201BBC00641AB200B219A8000A19A06E
:10152000006A189900D117910040178B00B51684F6
:101530000031167E00B31579003A157300C7146F99
:101540000058146A00EE1366008813630025135ECA
:1015500000C7125B006C12570015125400C11151E4
:101560000070114F0021114B00D61049008D10471B
:10157000004610440002104200C00F4000800F3EA1
:1015800000420F3C00060F3B00CB0E3800930E3795
:10159000005C0E3500270E3400F30D3200C10D3112
:1015A00000900D3000600D2E00320D2D00050D2C29
:1015B00000D90C2B00AE0C2900850C29005C0C27EF
:1015C00000350C27000E0C2600E80B2400C40B2469
:1015D00000A00B23007D0B23005A0B2100390B21A7
:1015E00000180B2000F80A1F00D90A1E00BB0A1EB3
:1015F000009D0A1D00800A1D00630A1C00470A1B8B
:10160000002C0A1B00110A1A00F7091A00DD09193B
:1016100000C4091900AB091900920917007B0918C9
:1016200000630917004C0916003609160020091638
:10163000000A091500F5081500E0081400CC08148C
:1016400000B8081400A4081400900813007D0812C4
:10165000006B0813005808120046081200340811E5
:1016600000230811001208110001081100F00710F2
:1016700000E0071000D0071000C0071000B0070FEF
:1016800000A107100091070E0083070F0074070FD9
:101690000065070E0057070E0049070E003B070DB7
:1016A000002E070E0020070D0013070D0006070D82
:1016B00000F9060C00ED060D00E0060C00D4060C47
:1016C00000C8060C00BC060C00B0060C00A4060BFB
:1016D0000099060C008D060B0082060B0077060BA6
:1016E000006C060B0061060A0057060B004C060A48
:1016F0000042060A0038060A002E060A0024060ADE
:10170000001A060A001006090007060A00FD05096E
:1017100000F4050900EB050900E2050900D90509F7
:1017200000D0050900C7050900BE050900B5050878
:1017300000AD050800A50509009C050800940508F2
:10174000008C050800840508007C05080074050865
:10175000006C050700650508005D050700560508D3
:10176000004E05070047050700400508003805073B
:1017700000310507002A050700230507001C0506A0
:1017800000160507000F05070008050600020507FB
:1017900000FB040600F5040700EE040600E804065A
:1017A00000E2040700DB040600D5040600CF0406AF
:1017B00000C9040600C3040600BD040600B7040601
:1017C00000B1040500AC040600A6040600A0040550
:1017D000009B04060095040500900406008A040599
:1017E0000085040500800406007A040500750405E0
:1017F00000700405006B0405006604050061040523
:10180000005C04050057040500520405004D040562
:101810000048040500430405003E0404003A0405A2
:101820000035040500300404002C040500270404DE
:1018300000230405001E0404001A04040016040515
:1018400000110404000D040400090405000404044C
:101850000000040400FC030400F8030400F4030483
:1018600000F0030400EC030400E8030400E40304B4
:1018700000E0030400DC030400D8030400D40304E4
:1018800000D0030400CC030400C8030300C5030315
:101890000024F404D9201BC40C5C0E9804C4095F16
:1018A0000265077101F405F900FB04B300480487E1
:1018B00000C10369005803550003034500BE023A06
:1018C000008402310053022A00290225000402206C
:1018D00000E4011C00C8011900AF011700980114B1
:1018E0000084011300710110006101100051010E0C
:1018F0000043010D0036010B002B010B0020010BF2
:1019000000150109000C01090003010800FB000893
:1019100000F3000800EB000700E4000600DE00060C
:1019200000D8000600D2000600CC000500C7000564
:1019300000C2000500BD000400B9000400B50004A9
:1019400000B1000400AD000400A9000400A50003DC
:1019500000A20003009F0004009B00030098000306
:10196000009500020093000300900003008D000228
:10197000008B000300880002008600020084000340
:1019800000810002007F0002007D0002007B000257
:101990000079000200770001007600020074000266
:1019A0000072000100710002006F0002006D000172
:1019B000006C0002006A000100690002006700017B
:1019C0000066000100650001006400020062000181
:1019D0000061000100600001005F0002005D000185
:1019E000005C0001005B0001005A00010059000189
:1019F0000058000100570001005600010055000189
:101A00000054000100530000005300010052000187
:101A10000051000100500001004F0001004E000085
:101A2000004E0001004D0001004C0001004B000081
:101A3000004B0001004A000100490001004800007D
:101A40000048000100470001004600000046000178
:101A50000045000000450001004400010043000073
:101A6000004300010042000000420001004100006C
:101A70000041000100400001003F0000003F000164
:101A8000003E0000003E0001003D0000003D00015E
:101A9000003C0000003C0000003C0001003B000056
:101AA000003B0001003A0000003A0001003900004C
:101AB0000039000100380000003800000038000143
:101AC000003700000037000100360000003600003B
:101AD000003600010035000000350000003500012F
:101AE0000034000000340000003400010033000026
:101AF000003300000033000100320000003200001B
:101B0000003200010031000000310000003100010E
:101B1000003000000030000000300001002F000005
:101B2000002F0000002F0000002F0001002E0000F9
:101B3000002E0000002E0001002D0000002D0000EE
:101B4000002D0000002D0001002C0000002C0000E2
:101B5000002C0000002C0001002B0000002B0000D6
:101B6000002B0000002B0001002A0000002A0000CA
:101B7000002A0000002A00010029000000290000BE
:101B800000290000002900000029000100280000B1
:101B900000280000002800000028000000280001A4
:101BA0000027000000270000002700000027000099
:101BB000002700010026000000260000002600008B
:101BC000002600000026000100250000002500007E
:101BD0000025000000250000002500000025000170
:101BE0000024000000240000002400000024000065
:101BF0000024000100230000002300000023000057
:101C00000023000000230000002300000023000147
:101C1000002200000022000000220000002200003C
:101C2000002200000022000100210000002100002D
:101C30000021000000210000002100000021000020
:101C40000021000100200000002000000020000012
:101C50000020000000200000002000000020000004
:101C600000200001001F0000001F0000001F0000F6
:101C7000001F0000001F0000001F0000001F0001E7
:101C8000001E0000001E0000001E0000001E0000DC
:101C900000393000003325000087190000B00F0024
:101CA00000DB080000BD040000740200003F0100DA
:101CB0000050726F6265205A204F6666736574002B
:101CC00046616E205370656564207E004D61696ECB
:101CD00000466C6F77002568753A253032687500CC
:101CE00025303268753A2530326875002020202072
:101CF000202020001FE02010201020101020102095
:101D00002010201030300840048003001FE03FF016
:101D10003FF03FF01FE01FE03FF03FF03FF00FC00B
:101D2000078003003FFFF038007030FC3020FC10CB
:101D30002078102030102C00D02E31D02F7BD02FC7
:101D40007BD02E31D02C00D020301020781020FCF9
:101D50001030FC303800703FFFF03FFFF03800706B
:101D60003186302387102787902F87D02F03D020EC
:101D700030102078102078102030102F03D02F87BB
:101D8000D02787902387103186303800703FFFF0CE
:101D90001FFFF81FFFF8041040020820020820046B
:101DA00010400820801041001041000820800410DD
:101DB000400000001FFFF81FFFF8000000001E0099
:101DC0000000002100000000271DC08C00272121F9
:101DD000920041212092008E21CE920090212092EB
:101DE000011021209201201D21CC022000000004BE
:101DF0001001130008100114801008011080200445
:101E000000A30047F200A08043E2004480200400C9
:101E1000430018D8000000198400000021FC0000D5
:101E2000003F00486F6D696E67204661696C6564AC
:101E3000006F70656E005452494747455245440053
:101E400066696C616D656E74007A5F6D696E0079AC
:101E50005F6D696E00785F6D696E005265706F72BC
:101E600074696E6720656E6473746F70207374613B
:101E70007475730A00486F6D65202573257325738B
:101E8000204669727374005761726E696E673A20FA
:101E9000486F6D696E672042756D70204469766980
:101EA000736F72203C20310A000000484200004855
:101EB000420000C0400202040000A0400000A04018
:101EC00000000040FFFFFF000000010000000100D3
:101ED000008000555555000000400033333300AA00
:101EE000AA2A004992240000002000C7711C009912
:101EF000991900D1451700555515003BB113002421
:101F000049120011111100000010000F0F0F00E323
:101F1000380E0043790D00CCCC0C00C3300C00E827
:101F2000A20B0064210B00AAAA0A00703D0A009DC2
:101F3000D80900427B090092240900DCD3080088FC
:101F40008808001042080000000800F0C107008760
:101F500087070075500700711C07003EEB0600A1C3
:101F6000BC06006990060066660600703E060061C9
:101F700018060017F4050074D105005BB00500B227
:101F8000900500627205005555050078390500B8C6
:101F90001E0500050505004EEC040087D40400A1D1
:101FA000BD040090A7040049920400C17D0400EE26
:101FB000690400C7560400444404005C320400086D
:101FC00021040041100400000004003FF00300F869
:101FD000E0030026D20300C3C30300CCB503003ADC
:101FE000A803000A9B0300388E0300C08103009FF2
:101FF000750300D0690300505E03001D53030034D5
:10200000480300913D0300333303001629030038D1
:102010001F030097150300300C0300030303000B9C
:10202000FA020049F10200BAE802005CE002002D69
:10203000D802002DD0020059C80200B0C002003101
:10204000B90200DAB10200AAAA0200A0A30200BCF1
:102050009C0200FA9502005C8F0200DF8802008279
:10206000820200457C0200277602002770020043AE
:102070006A02007C640200D05E02003F590200C880
:10208000530200506F776572204F75746167650069
:10209000436F6E66696775726174696F6E00436144
:1020A0006E63656C204F626A6563740043616E63A2
:1020B000656C0042696C696E656172204C6576657D
:1020C0006C696E670045787472756465727300435D
:1020D000522D313020563300323032302D31312DF7
:1020E00031302031313A3033005072696E7465728C
:1020F00020537461747300546865726D6973746FF2
:10210000727300426F61726420496E666F00507294
:10211000696E74657220496E666F004D31303030E3
:102120000053746F70205072696E7400526573753D
:102130006D65205072696E74004368616E6765203A
:102140004D65646961004D32310041626F757420E4
:102150005072696E746572004E6F204D65646961DE
:102160000054756E65005061757365205072696E1C
:102170007400496E666F2053637265656E00537418
:10218000617274205072696E740043616E6E6F7478
:1021900020656E746572207375626469723A2000FE
:1021A000022E2E0000009B4300009B430000C8430A
:1021B000FFFDFCFAF8F6F4F2F0EEECEAE9E7E5E30D
:1021C000E1E0DEDCDAD9D7D5D4D2D0CFCDCBCAC8C6
:1021D000C7C5C3C2C0BFBDBCBAB9B7B6B4B3B2B04D
:1021E000AFADACAAA9A8A6A5A4A2A1A09E9D9C9AA9
:1021F00099989795949392908F8E8D8B8A898887E2
:102200008684838281807F7E7D7B7A7978777675FC
:1022100074737271706F6E6D6C6B6A6968676665F6
:1022200064636261605F5E5D5C5B5A5958585756E3
:10223000555453525150504F4E4D4C4B4A4A4948B9
:10224000474646454443424241403F3E3E3D3C3B7B
:102250003B3A39383837363535343332323130302D
:102260002F2E2E2D2C2B2B2A2929282727262525D2
:1022700024232322212120201F1E1E1D1C1C1B1B6A
:102280001A191918181716161515141313121211F6
:1022900011100F0F0E0E0D0D0C0C0B0A0A09090878
:1022A00008070706060505040403030202010000EF
:1022B000000000000000000000000000536574747E
:1022C000696E67732053746F72656400536574742C
:1022D000696E67732053746F726564202800456EC1
:1022E000636C6F737572650000FE0003FF8007C7A3
:1022F000C00701E00000E00000F000007004007082
:102300000E00701F00703F80F00E00E00F01E0072C
:10231000C7C003FF8000FE0000FE0003FF8007C768
:10232000C00F01E00E00E03F80F01F00700E007053
:102330000400700000700000F00000E00701E007FA
:10234000C7C003FF8000FE000E000E000E000E004E
:102350000E000E000E000E007FC03F801F000E001A
:10236000040004000E001F003F807FC00E000E001E
:102370000E000E000E000E000E000E00FFFFFF7F8D
:1023800080FFC0FFC0FFC07F807F80FFC0FFC0FF15
:10239000C03F001E000C002053697A653A200043BC
:1023A000616E6E6F74206F70656E20737562646904
:1023B000722000534420496E6974204661696C00A4
:1023C00053442063617264206F6B0A006F70656E06
:1023D000526F6F74206661696C65640A00766F6C79
:1023E000756D652E696E6974206661696C65640A35
:1023F000004E6F20534420636172640A004D3233F3
:102400002025730046696C652073656C656374658F
:10241000640A0046696C65206F70656E65643A20D9
:1024200000454E4420535542524F5554494E450A9B
:10243000002220706F73002220706172656E743A02
:102440002200535542524F5554494E452043414C6A
:102450004C207461726765743A220053756263613F
:102460006C6C204F766572666C6F7700457863659B
:1024700065646564206D617820535542524F555410
:10248000494E452064657074683A310A0044656CB1
:102490006574696F6E206661696C65642C2046699D
:1024A0006C653A200046696C652064656C657465EE
:1024B000643A005344207072696E74696E672062DA
:1024C00079746520004E6F74205344207072696ED9
:1024D00074696E670A006F70656E206661696C656D
:1024E000642C2046696C653A200057726974696EE5
:1024F0006720746F2066696C653A200066726573A8
:102500006800646F696E67004E6F772000565472E2
:102510006176204D696E00566D696E00566D61786A
:10252000204500566D6178205A00566D617820591B
:1025300000566D6178205800416D6178204500415A
:102540006D6178205A00416D6178205900416D61BC
:1025500078205800412D54726176656C00412D52EF
:1025600065747261637400416363656C0056652D28
:102570004A65726B00565A2D4A65726B0056592D8A
:102580004A65726B0056582D4A65726B0050726F27
:1025900062652059204F66667365740050726F62E1
:1025A000652058204F6666736574002062797465F3
:1025B000733B2063726320004E6F20454550524F9D
:1025C0004D2E0A00205200454550524F4D20646167
:1025D000746173697A65206572726F722E0A0020C9
:1025E00073746F7265642073657474696E677320A9
:1025F00072657472696576656420280020286361BD
:102600006C63756C6174656429210A0020213D208A
:1026100000454550524F4D20435243206D69736D24
:1026200061746368202D202873746F72656429209B
:1026300000496E6465783A200044494749504F5438
:1026400053204C6F616465640A0044494749504F08
:102650005453204C6F6164696E670A00204D6172AB
:102660006C696E3D563832290A00454550524F4D2F
:102670002076657273696F6E206D69736D61746326
:10268000682028454550524F4D3D004861726463B3
:102690006F6465642044656661756C74205365746D
:1026A00074696E6773204C6F616465640A003B2037
:1026B0000020204D363033200020204D3431322090
:1026C000530046696C616D656E742072756E6F752E
:1026D000742073656E736F723A0020550046696C02
:1026E000616D656E74206C6F61642F756E6C6F61C7
:1026F00064206C656E677468733A0020204D38352D
:10270000312058005A2D50726F6265204F666673F3
:1027100065740020204D343133205300506F7765AD
:10272000722D4C6F7373205265636F766572793AC0
:102730000020204D33303420500020204D333031E4
:102740002050005049442073657474696E67733A71
:102750000020460020480020204D31343520530011
:102760004D6174657269616C206865617475702073
:10277000706172616D65746572733A00204A002061
:1027800020473239205720490020204D3432302054
:1027900053004175746F20426564204C6576656C0A
:1027A000696E673A0020204D323035204200416486
:1027B00076616E6365643A20423C6D696E5F736555
:1027C000676D656E745F74696D655F75733E2053E8
:1027D0003C6D696E5F66656564726174653E205428
:1027E0003C6D696E5F74726176656C5F6665656489
:1027F000726174653E20583C6D61785F785F6A65F0
:10280000726B3E20593C6D61785F795F6A65726BCF
:102810003E205A3C6D61785F7A5F6A65726B3E203C
:10282000453C6D61785F655F6A65726B3E00202094
:102830004D323034205000416363656C65726174C1
:10284000696F6E2028756E6974732F7332293A2070
:10285000503C7072696E745F616363656C3E2052B8
:102860003C726574726163745F616363656C3E2082
:10287000543C74726176656C5F616363656C3E00A5
:1028800020204D3230312058004D6178696D756DD2
:1028900020416363656C65726174696F6E20287591
:1028A0006E6974732F7332293A0020204D32303311
:1028B0002058004D6178696D756D2066656564729C
:1028C000617465732028756E6974732F73293A00DB
:1028D00053746570732070657220756E69743A0068
:1028E00020440020204D32303020530020446973B2
:1028F00061626C65640A0046696C616D656E742086
:1029000073657474696E67733A0020204D313439F1
:102910002043203B20556E69747320696E20436507
:102920006C736975730A0020286D6D29002020479B
:102930003231202020203B20556E69747320696E4F
:10294000206D6D0000803B4400803B4400007041DE
:10295000000096420000A0420000A0420000C843D0
:102960000080CF43D0070000D007000064000000C3
:10297000881300000000000000000060000000005C
:1029800000FC00000FF00000000007E00000000065
:1029900001861FC018700000000000603C0C0000A1
:1029A00001830C6010300000000000603C0C00004F
:1029B00001830C303030000000000060000C00008B
:1029C00000030C183000000000000060003F0F3CC6
:1029D00000030C0C6001DF0FE0FE00601C1C0618F9
:1029E00000060C0C6000F318318300600C0C031817
:1029F000001E0C0C6000E030398300600C0C0330CA
:102A000000030C0C6000C030380F00600C0C033069
:102A100000018C0C6000C03FF8FB00600C0C033020
:102A200000018C0C6030C030018300600C0C01F0A0
:102A300001818C0C6030C030018300600C0C00E020
:102A400001818C183030C018318300600C0C40E0DC
:102A500001838C301860C00C6187C0E01C0CC06022
:102A600000C30C600FC3F007C0FFC7FC7F0781C025
:102A7000007E1FC0000000000000000000000700F2
:102A8000000000000000000000000000000007003F
:102A9000000000001FFFFFFFFFFFFF6000000000BD
:102AA00001FF400000000000FF8000000000007FE8
:102AB00083CF00000C303F87FF80000C301F8679E9
:102AC00080000C000F8C30C7838C30E78C30CFC770
:102AD000CC31F38C30DCECEC33B98C30D86C6C330B
:102AE000198C30D06C0C33198C30D86C0C33198C99
:102AF00030DC6C0E3B198C30CF7C079F198C30C7B3
:102B00007C038F19400000000000026000000000FC
:102B100000061FFFFFFFFFFFF870012C0190012747
:102B200001B0012201C0011D01F0011801100213C2
:102B30000130020E016002090190020401C002FF8F
:102B4000000003FA004003F5008003F000D003EB1F
:102B5000002004E6007004E100E004DC004005D73A
:102B600000C005D2004006CD00D006C8008007C3D3
:102B7000003008BE00F008B900C009B400B00AAFC8
:102B800000B00BAA00D00CA500000EA000500F9BB7
:102B900000C01096005012910000148C00C01587E0
:102BA00000B0178200B0197D00D01B7800001E73A2
:102BB0000040206E0090226900F024640040275FEE
:102BC0000090295A00E02B5500102E500020304B69
:102BD0000010324600E033410090353C001037379A
:102BE0000070383200A0392D00B03A2800A03B23F5
:102BF00000603C1E00103D1900903D1400103E0F77
:102C000000703E0A00C03E0500003F0000403FFB50
:102C1000FF803FF6FFC03FF1FF68747470733A2F76
:102C20002F6D61726C696E66772E6F726700322E3F
:102C3000302E372E322D46695A692D424C00202005
:102C4000506C616E6E65724275666665724279742B
:102C500065733A20002046726565204D656D6F7280
:102C6000793A2000436F6D70696C65643A204E6F4D
:102C70007620313020323032300A00204C617374BB
:102C800020557064617465643A20323032302D31E1
:102C9000312D31302031313A3033207C2041757470
:102CA000686F723A2046695A692C20435231302DA0
:102CB00056332C206261736564206F6E20667261EA
:102CC0006E367020435231302D56320A00322E308B
:102CD0002E372E322D46695A692D424C0A004D611D
:102CE000726C696E0020536F667477617265205252
:102CF000657365740A00205761746368646F6720A8
:102D000052657365740A002042726F776E206F758A
:102D1000742052657365740A002045787465726E7C
:102D2000616C2052657365740A00506F7765725547
:102D3000700A006175746F25632E6700473238583A
:102D400059004D31303031006572726F72207772E8
:102D50006974696E6720746F2066696C650A004447
:102D60006F6E6520736176696E672066696C652E8B
:102D70000A004D3239002553202563202563202584
:102D80006320256300656E6473746F7073206869D7
:102D9000743A20007C3C3E5E2B3D3F2F5B5D3B2C1C
:102DA0002A225C0020746F6F206C6F6E672065783C
:102DB00074727573696F6E2070726576656E746576
:102DC000640A0020636F6C6420657874727573699F
:102DD0006F6E2070726576656E7465640A00205AA5
:102DE0003A0020593A0050726F62696E6720506F46
:102DF000696E740025532025692F25690050726F74
:102E000062696E67206D65736820706F696E7420EB
:102E100000202844525952554E290047323920414A
:102E200075746F20426564204C6576656C696E67C9
:102E3000003F20284C2C522C462C4229206F7574C0
:102E4000206F6620626F756E64732E0A003F2856ED
:102E5000296572626F7365206C6576656C20696D9B
:102E6000706C61757369626C652028302D34292E71
:102E70000A00426164205A2076616C75650A004E32
:102E80006F2062696C696E65617220677269640A9D
:102E900000446576696174696F6E0025533A202598
:102EA000730046696E6973686564210A003A207A86
:102EB0003A2000206F662000476F696E6720746FAC
:102EC0003A20580043570A00206469723A00206192
:102ED0006E676C653A005374617274207261646944
:102EE00075733A004D343820506F696E7400255365
:102EF0003A2025642F256400506F736974696F6EE2
:102F0000696E67207468652070726F62652E2E2E60
:102F10000A003F4C656773206F66206D6F76656DA4
:102F2000656E7420696D706C61757369626C652083
:102F300028302D3135292E0A003F2028582C5929B8
:102F4000206F7574206F6620626F756E64732E0A31
:102F50000050726F6265206F7574206F6620626F1B
:102F6000756E6473003F53616D706C652073697A90
:102F700065206E6F7420706C61757369626C65207A
:102F800028342D3530292E0A004D3438205A2D5042
:102F9000726F6265205265706561746162696C6907
:102FA000747920546573740A005374616E6461729D
:102FB0006420446576696174696F6E3A200020521E
:102FC000616E67653A2000205369676D613A2000A1
:102FD0004D65616E3A20004F6666004F6E004D6F82
:102FE00074696F6E004D3834004175746F20486FFE
:102FF0006D650054656D7065726174757265002150
:1030000000486F74656E6420746F6F20636F6C642A
:103010000050726F6365656400536F667420456E7F
:103020006473746F70730044697361626C652053DC
:1030300074657070657273004D34382050726F6221
:1030400065205465737400473238204F0A4D343878
:103050002050313000486F6D65205A004732385A91
:1030600000486F6D652059004732385900486F6D30
:103070006520580047323858004732380050726592
:1030800068656174202420456E640050726568652F
:10309000617420242042656400436F6F6C646F7715
:1030A0006E0053544F505045442E20005072696EAC
:1030B0007465722073746F70706564206475652028
:1030C000746F206572726F72732E20466978207457
:1030D0006865206572726F7220616E642075736519
:1030E000204D39393920746F2072657374617274A0
:1030F0002E202854656D7065726174757265206943
:10310000732072657365742E205365742069742072
:1031100061667465722072657374617274696E673A
:10312000290A0021212053544F502063616C6C65A3
:10313000642062656361757365206F6620424C543C
:103140006F756368206572726F72202D20726573CF
:10315000746172742077697468204D3939390A00B6
:103160005072696E74696E67204F626A656374009D
:103170002553202569002F2F616374696F6E3A0013
:10318000656E640070726F6D70745F0073686F7746
:103190000044697361626C6552756E6F757400509E
:1031A000757267654D6F726500486F74656E642057
:1031B000746F6F20636F6C640A0053656E64204DFA
:1031C00031303820746F20726573756D650A005256
:1031D000656865617420446F6E650052656865615D
:1031E00074696E672E2E2E00526568656174004802
:1031F00065617465722054696D656F7574005365FF
:103200006E64204D31303820746F20686561742001
:103210006E6F7A7A6C650A004E6F7A7A6C65205010
:1032200061726B65640070617573656400726573CB
:10323000756D656400526573756D696E67004469EC
:1032400066663A2020200046726F6D5374703A0013
:10325000537465707065723A00556E4C6576656C96
:103260003A004C6576656C65643A005261773A20A5
:10327000202020000A4C6F676963616C3A00436F3D
:10328000756E7420453A004361703A004348414DE1
:103290004245525F54454D504552415455524500A8
:1032A000424142595354455050494E4700415243C0
:1032B00053004D4F54494F4E5F4D4F4445530054BA
:1032C0004845524D414C5F50524F54454354494F2D
:1032D0004E004C4F4E475F46494C454E414D4500D0
:1032E0004155544F5245504F52545F53445F5354CD
:1032F00041545553005344434152440050524F4DA2
:1033000050545F535550504F525400454D4552470D
:10331000454E43595F504152534552004341534536
:103320005F4C494748545F4252494748544E4553C1
:103330005300544F47474C455F4C4947485453004E
:10334000534F4654574152455F504F5745520042E4
:1033500055494C445F50455243454E54004C4556E8
:10336000454C494E475F44415441005A5F50524FCB
:103370004245004155544F4C4556454C005052492A
:103380004E545F4A4F420050524F475245535300EC
:103390004155544F5245504F52545F54454D500083
:1033A000564F4C554D45545249430042494E4152A7
:1033B000595F46494C455F5452414E534645520071
:1033C00053455249414C5F584F4E5F584F46460057
:1033D0004649524D574152455F4E414D453A4D6128
:1033E000726C696E20322E302E372E322D46695A7D
:1033F000692D424C20284E6F7620313020323032F9
:10340000302031313A30363A32372920534F555235
:1034100043455F434F44455F55524C3A687474705E
:10342000733A2F2F6769746875622E636F6D2F4D25
:1034300061726C696E4669726D776172652F4D615C
:10344000726C696E2050524F544F434F4C5F56453B
:103450005253494F4E3A312E30204D414348494E48
:10346000455F545950453A43522D31302056332050
:1034700045585452554445525F434F554E543A3186
:1034800020555549443A63656465326132662D348E
:103490003161322D343734382D396231322D633574
:1034A000356336326633363766660A0050726F62AD
:1034B00065204F6666736574205A003F5A206F7509
:1034C00074206F662072616E67652028003F592066
:1034D0006F7574206F662072616E676520282D00FD
:1034E00020746F20003F58206F7574206F66207223
:1034F000616E676520282D0050726F6265204F66EF
:1035000066736574205800656E7175657565696EC2
:10351000672022006F6B00526573656E643A20006D
:103520004732362048656174696E67204E6F7A7A3B
:103530006C65004732362048656174696E672042C9
:1035400065640057616974696E6720666F722068F0
:1035500065617475702E0A004669786564204C6553
:103560006E677468205072696D6500446F6E6520E7
:103570005072696D696E67004D616E75616C207087
:1035800072696D696E672E2E2E00473236204361B8
:103590006E63656C6564004C656176696E67204793
:1035A0003236003F53706563696669656420582C44
:1035B0005920636F6F7264696E617465206F7574F2
:1035C000206F6620626F756E64732E0A003F28526A
:1035D0002965706561742076616C7565206E6F7405
:1035E00020706C61757369626C653B206D757374D6
:1035F000206265206174206C6561737420312E0A2D
:10360000003F537065636966696564206E6F7A7AFE
:103610006C652074656D7065726174757265206E7D
:103620006F7420706C61757369626C652E0A003F5F
:103630005370656369666965642066696C616D6570
:103640006E742073697A65206E6F7420706C61757A
:103650007369626C652E0A003F5370656369666921
:103660006564207072696D65206C656E6774682092
:103670006E6F7420706C61757369626C652E0A00E0
:103680003F537065636966696564206E6F7A7A6C12
:10369000652073697A65206E6F7420706C61757334
:1036A00069626C652E0A003F5265747261637469C9
:1036B0006F6E204D756C7469706C696572206D75E4
:1036C0007374206265207370656369666965642E32
:1036D0000A003F53706563696669656420526574CA
:1036E00072616374696F6E204D756C7469706C697A
:1036F0006572206E6F7420706C61757369626C65A1
:103700002E0A003F537065636966696564206C61C9
:1037100079657220686569676874206E6F742070BF
:103720006C61757369626C652E0A0043292E0A006C
:103730003F537065636966696564206265642074DF
:10374000656D7065726174757265206E6F7420703E
:103750006C61757369626C65202834302D004732C6
:1037600036207374617274696E672E2E2E0A004FB4
:1037700046460A00466164652048656967687420AA
:1037800000426564204C6576656C696E6720004672
:1037900061696C656420746F20656E61626C652080
:1037A000426564204C6576656C696E670A00496EF7
:1037B00076616C6964206D6573682E0A00416363ED
:1037C000656C65726174696F6E3A205000574152A2
:1037D0004E494E4721204C6F77205A204A65726B24
:1037E000206D6179206C65616420746F20756E773F
:1037F000616E746564207061757365732E0A0020B4
:103800004D393220580020204D61783A2000202088
:103810004D696E3A2000536F667420656E64737450
:103820006F70733A20004D32342053256C6420545D
:10383000256C64004739322E392045257300473105
:1038400020462564004739322E39205A2573004717
:1038500031205A302046323030004731205825730D
:1038600020592573204633303030004D343230201B
:10387000532569205A2573004D3130362050256973
:1038800020532569004D31303920532569004D31D1
:10389000393020532569004D3230302044257300E3
:1038A00047323852305859004739322E3920453086
:1038B000205A300A47315A2573004D343230205394
:1038C00030205A300020496E76616C69642065783A
:1038D00074727564657220005072696E742066722D
:1038E0006F6D204D656469610050726F62696E672B
:1038F000204661696C656400205A3A200020593ADC
:10390000200042656420583A20005072696E74208D
:1039100050617573656400626567696E00627574F5
:10392000746F6E00436F6E74696E7565004C6F61E5
:10393000642046696C616D656E74205400496E7335
:103940006572742066696C616D656E7420616E6469
:103950002073656E64204D3130380A00220A00550C
:103960006E6B6E6F776E20636F6D6D616E643A2063
:10397000220043522D313020563320526561647944
:103980002E005072696E74696E672E2E2E00496E7D
:1039900076616C69642065787472756465720A007A
:1039A000202D20496E76616C69642065787472758B
:1039B000646572206E756D62657220210A0054483C
:1039C00045524D414C2052554E4157415900546883
:1039D00065726D616C2052756E6177617900457218
:1039E000723A204D415854454D50004D4158544570
:1039F0004D50207472696767657265640045727224
:103A00003A204D494E54454D50004D494E54454D78
:103A1000502074726967676572656400202F00200A
:103A200042403A0020403A0020573A0052756E6FEB
:103A300075742053656E736F7200554E4C4F414440
:103A40002046494C414D454E540046494C414D4558
:103A50004E54204348414E4745004D3730322054A4
:103A60002564004D36303020423020542564004D0E
:103A7000373032203B2564004D37303120542564E7
:103A8000004D373032004D373031004D3630302068
:103A90004230005075726765206D6F726500524547
:103AA00053554D45204F5054494F4E533A005052B4
:103AB000494E54205041555345440020204E6F7AC2
:103AC0007A6C653A2000256C642E25696D00457876
:103AD00074727564656420546F74616C004C6F6E11
:103AE00067657374204A6F622054696D65003E20DB
:103AF00000546F74616C205072696E742054696D4B
:103B00006500436F6D706C65746564005072696E1A
:103B10007420436F756E7400313230004245443A70
:103B2000204550434F53203130304B0052756E6169
:103B30007761792057617463683A204F4E004D6178
:103B4000782054656D7000323735004D696E205411
:103B5000656D700045313A204550434F5320313058
:103B6000304B005053550047656E657269630050D5
:103B7000726F746F636F6C00312E30004261756438
:103B80000032353030303000437265616C697479D1
:103B900033442052414D5053005061726B696E673F
:103BA0002E2E2E0000005761697420666F72006629
:103BB000696C616D656E74206368616E6765007421
:103BC0006F207374617274005761697420666F723C
:103BD0000066696C616D656E7420756E6C6F6164F2
:103BE00000004E6F7A7A6C652068656174696E6753
:103BF00000506C6561736520776169742E2E2E000C
:103C000000507265737320627574746F6E00746F08
:103C10002068656174206E6F7A7A6C650000496E69
:103C2000736572742066696C616D656E7400616E97
:103C30006420707265737320627574746F6E0074A3
:103C40006F20636F6E74696E7565005761697420CB
:103C5000666F720066696C616D656E74206C6F6171
:103C6000640000507265737320427574746F6E0047
:103C7000746F20726573756D65207072696E740063
:103C8000005761697420666F72207072696E7400EB
:103C9000746F20726573756D652E2E2E000057614E
:103CA000697420666F720066696C616D656E742060
:103CB000707572676500003F00496E697469616CD8
:103CC000697A6520454550524F4D006E6F746966A4
:103CD00069636174696F6E200063616E63656C0077
:103CE0005072696E742041626F7274656400446939
:103CF000736D6973730055492041626F7274656416
:103D0000004D323520500A4D323400526573756DC6
:103D10006500554920506175736500506175736980
:103D20006E672E2E2E00726573756D6500454550C9
:103D3000524F4D2056657273696F6E204572726FD7
:103D40007200454550524F4D20496E6465782045BC
:103D500072726F7200454550524F4D2043524320BE
:103D60004572726F720049676E6F7265004C6F61C9
:103D7000642053657474696E67730053746F726561
:103D80002053657474696E677300416476616E6375
:103D900065642053657474696E6773004E4F0059F3
:103DA00045530043616E63656C204F626A656374BE
:103DB000203D0053572D4D6F64650053746F77009D
:103DC0004465706C6F790053656C662D546573742F
:103DD0000046616E20537065656400526573746FB0
:103DE00072652044656661756C7473005072656815
:103DF000656174202420436F6E6600424C546F75D9
:103E000063680000002200250028002B002E0031EE
:103E100000340002010000050108010B010000212F
:103E200000240027002A002D00300033000101008B
:103E300000040107010A0105050505070508080832
:103E400008020202020A0A0808040404040101012B
:103E50000101010101030303030303030304070733
:103E6000070C0C0C0C0C0C0C0C02020202060606D1
:103E700006060606060B0B0B0B0B0B0B0B010210B9
:103E80002020080810204010204080020102010874
:103E90000402010102040810204080804020100824
:103EA000040201800402018040201008040201087D
:103EB00004020101020408102040800102040810DD
:103EC000204080506C656173652052657365740095
:103ED0005052494E5445522048414C5445440025C7
:103EE000533A20255300706F7765726F6666004BFA
:103EF000494C4C45442E20005072696E7465722006
:103F000068616C7465642E206B696C6C2829206371
:103F1000616C6C6564210A006563686F3A004572E4
:103F2000726F723A0042696C696E656172204C650D
:103F300076656C696E6720477269643A0A0050457D
:103F4000544700504C41004D6F76652025736D6DD0
:103F5000004D6F766520302E316D6D004D6F7665AA
:103F600020316D6D004D6F76652031306D6D004DE7
:103F70006F76652041786973004578747275646561
:103F800072004D6F7665205A004D6F76652059009E
:103F90004D6F76652058004368616E6765204669FD
:103FA0006C616D656E7400556E6C6F61642046695E
:103FB0006C616D656E74004C6F61642046696C6164
:103FC0006D656E7400507265686561742043757329
:103FD000746F6D00507265686561742024004261E1
:103FE000636B0000000A0B02090C0D0E08070304A6
:103FF00001000000000000000000000000000000C0
:10400000000000000000000000000000000000129E
:10401000111000000000000000000000000000007F
:10402000000000000000000000433F3E3F20436FBF
:10403000756E7420583A00453100626564002C208A
:1040400073797374656D2073746F7070656421206B
:104050004865617465725F49443A2000486561743F
:10406000696E67204661696C6564004865617469C2
:104070006E67206661696C6564004D313132205392
:10408000687574646F776E00A701450211241FBE26
:10409000CFEFD1E2DEBFCDBF00E00CBF13E0A0E068
:1040A000B2E0E6EAF3EE02E00BBF02C007900D9229
:1040B000A832B107D9F728E1A8E2B3E001C01D9208
:1040C000AB31B207E1F710E2C5E4D0E200E006C090
:1040D00021970109802FFE010F94246EC434D1076B
:1040E00080E00807A9F70F9478590D94C1710C94DA
:1040F00000002F923F924F925F926F927F928F9229
:104100009F92AF92BF92CF92DF92EF92FF920F9366
:104110001F93CF93DF93CDB7DEB7E6970FB6F89432
:10412000DEBF0FBECDBF8DAB2091D30F2CAB21E0F6
:104130002093D30F8091E40E8D3409F481C384352C
:1041400011F40C94E731873411F00C94F93180911B
:10415000E20E9091E30E8B31910509F421C1B4F484
:104160008430910534F482309105E4F597FF2EC038
:1041700063C38531910511F40C94FB318A319105AB
:1041800009F40AC1049709F057C3C7C08A329105E0
:1041900009F472C24CF48D319105B1F00CF41BC1DD
:1041A0004E9709F464C148C38B35910509F4DEC10B
:1041B0008C35910509F4DFC18A35910509F03CC3BE
:1041C000109227100C94FB3114E033C18091F0075A
:1041D000813011F00C94FB310F941A0B0E94D17BAB
:1041E0000C94FB312091F007213011F00C94FB313D
:1041F00011E0029709F010E00F941A0B19821A824D
:104200001B821C821D821E821F82188682E50E94EC
:104210002AEC882309F44BC00E94A5EB6B017C01BA
:1042200020E030E0A9010F942967882309F455C0E4
:104230008091F3079091F407A091F507B091F607EC
:1042400088A799A7AAA7BBA78091F7079091F8071D
:10425000A091F907B091FA0788AB99ABAAABBBABB9
:104260008090B20F9090B30FA090B40FB090B50FA4
:104270004090B60F5090B70F6090B80F7090B90F84
:10428000A501940168A579A58AA59BA50F94296726
:1042900081110C940432A301920168A979A98AA919
:1042A0009BA90F9429678823C1F00C94043289E4F8
:1042B0000E942AEC882331F00E94A5EB69837A835F
:1042C0008B839C838AE40E942AEC882331F00E942D
:1042D000A5EB6D837E838F83988720E030E0A90172
:1042E00069817A818B819C810F94296781110C945B
:1042F000B83220E030E0A9016D817E818F81988500
:104300000F94296781110C94B8320F94094C84E200
:1043100097E00F94144B0C94FB3180E50E942AEC3B
:10432000882329F00E94F6D66B017C0103C0C12CC2
:10433000D12C760183E50E942AEC882361F00E944B
:10434000A5EB20E030E04AE754E40F948F670F9428
:10435000A06F6B017C010E94B09380910F118111BD
:1043600005C060E08AE397E00F9491340F94534FB7
:10437000C60ED71EE81EF91E0F94534FDC01CB0169
:104380008C199D09AE09BF09B7FD02C00C94FB3121
:1043900080E00E94933AF0CF0E9484FF0C94FB319E
:1043A00087E00E94DA7A81110C94FB318CE0ECE812
:1043B000F2E0DE01119601900D928A95E1F760E03E
:1043C00070E080E50F945611BE016F5F7F4F0F9430
:1043D0004D330C94FB31809171048770873011F05C
:1043E0000C94E03260E08FE40E9446EC81110C9462
:1043F000FB310C94E03280912C1081112AC00E9474
:10440000D6DC882361F1115011F40C94BF3420E004
:1044100030E04EEE5CE362EA77E085E00E94BDF0BA
:1044200061E085E997E00E947EEE86E697E00E94D3
:10443000E2FC0F94534F6093FA107093FB1080933B
:10444000FC109093FD1087E00E94DA7A882399F29D
:1044500006C060E08FE40E9446EC882381F20E944F
:104460008EF081E398E00E94E2FC0C94FB312091F5
:10447000C40F3091C50F4091C60F5091C70F609186
:10448000F3077091F4078091F5079091F6070F9468
:104490002D6EAB01BC0188E50E948F4769837A834A
:1044A0008B839C832091C80F3091C90F4091CA0F14
:1044B0005091CB0F6091F7077091F8078091F90741
:1044C0009091FA070F942D6EAB01BC0189E50E9413
:1044D0008F476D837E838F839887BE016B5F7F4F8D
:1044E000CE0101960E942FD7882311F40C94FB3142
:1044F00080E00F9466460E94A97E61E085E40E94F8
:1045000046EC182F21E0482FBE016B5F7F4FCE0194
:1045100001960F947B176B017C019B01AC010F94FA
:104520001F71811119C049815A816B817C8182E0A0
:1045300099E30F94D84B4D815E816F8178858DEF23
:1045400098E30F94D84BB701A60188EF98E30F9436
:10455000D84B8AE00E9467390E94907E113011F496
:104560000E9415D70E94F9800C94FB318FE0809354
:1045700027100C94FB318091E10E882351F1893092
:1045800009F076C01BEDA12E12E0B12E03EFC02E74
:1045900007E0D02E00E010E0F12CD5018D915D01F7
:1045A0000E942AEC882369F00E94A5EBF601608343
:1045B000718382839383F3E0FF1202C011E001C094
:1045C00001E0F39424E0C20ED11C34E0F312E5CFF5
:1045D00044C0ABEDCA2EA2E0DA2EB3EFEB2EB7E06B
:1045E000FB2E00E010E0312CD6018D916D010E9470
:1045F0002AEC882359F10E94A5EB4B015C01F701DD
:1046000020813181428153810F942C6E2B013C011A
:104610002DEB37E346E855EB0F948D7087FD0AC00C
:104620002DEB37E346E855E3C301B2010F94296748
:10463000181664F4F3E03F1202C011E001C001E07B
:10464000D7018D929D92AD92BC9213973394B4E0B2
:10465000EB0EF11CE4E03E12C7CF002319F00E94DC
:10466000F78006C0112321F08FEF97E00E94C193DD
:104670000E94F9800C94FB318091F007813011F099
:104680000C94FB3189E40E942AECE82E882321F067
:104690000E94A1EB082F01C000E08AE40E942AECEE
:1046A000F82E882321F00E94A1EB182F01C010E002
:1046B000EE2011F0053020F4FF2041F0153030F0ED
:1046C00089E498E00F94144B0C94FB3180E1E3EF04
:1046D000F7E0A2EBBFE001900D928A95E1F7EE20A2
:1046E00019F1602F000F770B880B990B0F9430672F
:1046F0002091890530918A0540918B0550918C0558
:104700000F948F6720917B0530917C0540917D054A
:1047100050917E050F942D6E6093B20F7093B30F7E
:104720008093B40F9093B50FFF2019F1612F110FF3
:10473000770B880B990B0F94306720918D05309182
:104740008E0540918F05509190050F948F672091B1
:104750007F053091800540918105509182050F942D
:104760002D6E6093B60F7093B70F8093B80F909330
:10477000B90F60E080E50E9446EC8823C1F1EE208D
:10478000D1F02091C40F3091C50F4091C60F5091C8
:10479000C70F6091B20F7091B30F8091B40F9091D9
:1047A000B50F0F942C6E6093B20F7093B30F80937C
:1047B000B40F9093B50FFF20D1F02091C80F309126
:1047C000C90F4091CA0F5091CB0F6091B60F7091F5
:1047D000B70F8091B80F9091B90F0F942C6E609322
:1047E000B60F7093B70F8093B80F9093B90F40E056
:1047F00050E0BA0186E40E948F476B017C0120E003
:1048000030E0A9010F948D7018164CF420E030E0D0
:1048100040E752E4C701B6010F94276F03C060E080
:1048200070E0CB0169837A838B839C83CE010196F0
:104830000E94CA7F0C94FB310F9489150C94FB31B4
:104840008091E20E9091E30E8837910509F4AAC792
:104850000CF020C18D34910509F445C40CF09CC0C6
:104860008A31910509F46FC3BCF58431910509F4CF
:10487000B4C27CF48131910509F49BC22CF40297F7
:1048800008F44DC20C94E431429709F479C60C94B3
:10489000E4318731910509F4D5C294F4853191054D
:1048A00009F4CCC2469711F00C94E4310E9457A150
:1048B0008091BC14877F80628093BC140C94FB3180
:1048C0008831910509F4D5C2499711F00C94E4316F
:1048D0000F948A100C94FB318032910509F4BFC308
:1048E000ECF58D31910509F4A3C384F48B31910566
:1048F00009F437C34C9711F00C94E4318091D20342
:104900009091D3030E94BCA20C94FB318E3191058F
:1049100009F495C34F9711F00C94E4310E94F4818F
:104920006C8F7D8F8E8F9F8FBE016F5F7F4FCE010B
:104930004C960E94144D60E0CE0101960F944835CC
:104940000F940D4CBE016F5F7F4F8DED98E00F947B
:10495000F64B8AE00E9467390C94FB31893491054B
:1049600009F4AAC364F48132910509F4A1C3C09784
:1049700011F00C94E4310E94EAD80C94FB318B3492
:10498000910509F4ACC38C34910511F00C94E43119
:104990000E9443820C94FB318B36910509F4E2C4EA
:1049A000D4F58435910509F4EBC5E4F4813591051E
:1049B00009F4C9C534F48E34910509F498C30C94F4
:1049C000E4318235910509F4D4C58335910511F0A0
:1049D0000C94E431809127108F7E806280932710A1
:1049E0000C94FB318836910509F413C454F48535D1
:1049F000910509F4C8C58C35910509F4E7C50C94F7
:104A0000E4318936910509F455C48A36910509F4D3
:104A100065C40C94E4318137910509F40AC5DCF4CE
:104A20008E36910509F4ADC45CF48C36910511F411
:104A30000C94FB318D36910509F412C40C94E431C9
:104A40008F36910509F4B0C48037910511F40C94A8
:104A5000FB310C94E4318537910509F458C66CF4A8
:104A60008237910509F450C68337910511F00C94F3
:104A7000E4310E94C0FA0C94FB318637910509F4A9
:104A800057C68737910511F00C94E4310E948E814E
:104A90000C94FB318139F1E09F0711F40C943F2F06
:104AA0000CF089C08D3C910509F480C7ECF58B3979
:104AB000910509F41FC5E4F48D37910509F440C54B
:104AC0006CF48937910511F00C94E43110922706AB
:104AD000109226060E94E5810C94FB318C389105DA
:104AE00009F4C9C48139910509F463C60C94E43111
:104AF000893C910509F418C754F48E3B910509F4DB
:104B0000D9C4883C910509F4C8C60C94E4318B3CA7
:104B1000910509F42CC78C3C910511F00C94E431FB
:104B20000F9441130C94FB318C32A1E09A0711F4DD
:104B30000C94F02DECF48D3D910509F464C754F408
:104B4000833D910509F435C78C3D910509F434C7BF
:104B50000C94E4318831E1E09E0709F4AAC782325F
:104B6000914011F00C94E4310E942DF60C94FB312D
:104B70008F3221E0920711F40C943C2F6CF48D32AB
:104B8000A1E09A0711F40C94052E8E32914011F495
:104B90000C94F82E0C94E4318033E1E09E0711F47C
:104BA0000C94852E8039914011F00C94E4310E94D0
:104BB000B0930C94FB31883F31E0930711F40C94CF
:104BC00042300CF055C0853AB1E09B0711F40C94CB
:104BD0005B2F1CF58C39F1E09F0711F40C94502FDA
:104BE0006CF4823931E0930711F40C94492F8A391F
:104BF000914011F40C94FB310C94E4318D39B1E007
:104C00009B0711F40C94A931843A914011F00C9453
:104C1000E4310E94B1FD0C94FB31853FF1E09F0728
:104C200011F40C943C307CF4863E31E0930711F48F
:104C30000C94D02F843F914011F00C94E4310E94E9
:104C40004E8B0C94FB31863FB1E09B0711F40C9422
:104C50003F30873F914011F00C94E43161E083E5EF
:104C60000E9446EC91E089270E94A6B10C94FB318A
:104C70008335F3E09F0711F40C9498311CF58B35C4
:104C800032E0930711F40C945F307CF48C30B2E086
:104C90009B0711F40C9452308835924011F00C941B
:104CA000E4310F94730F0C94FB318D3BF2E09F07BE
:104CB00011F40C94D6308E3B924011F40C94D93000
:104CC0000C94E431873E33E0930711F40C949B314C
:104CD000CCF48C36B3E09B0711F40C94FB31803A92
:104CE000934011F00C94E4312091D2033091D3031E
:104CF0009091BC1492609093BC14C9010E94BCA214
:104D00000C94FB31883EF3E09F0711F40C94C03102
:104D1000893E934011F40C94C3310C94E43180E546
:104D20000E942AEC882329F00E94F6D66B017C01B0
:104D300003C0C12CD12C760183E50E942AEC882384
:104D400061F00E94A5EB20E030E04AE754E40F94C4
:104D50008F670F94A06F6B017C010E94B0938091CC
:104D6000D2039091D303009721F061E00F9448356E
:104D700005C060E082E798E00F9491348091E20EE4
:104D80009091E30E892B19F06AE678E002C062E6A2
:104D900078E020E030E044E259E382E00E94BDF098
:104DA00040E0C701B6010E944E410F9466150C9475
:104DB000FB318091E50E84FF02C00C94D5348091C4
:104DC000E70E87FF02C00C94D5348091E80E837003
:104DD00011F00C94D5340C94F1348091BC1483FF01
:104DE00025C08DE998E00F94144B8091BC1483FF8B
:104DF00017C08BED94E10E9455C38BE1EBEDF4E11C
:104E0000DE01119601900D928A95E1F760E070E065
:104E1000CE0101960E940CA7CE0101960E9473EC70
:104E20008EE898E00F94144B0C94FB310F940D4CCA
:104E30008EEA98E00F94144B0C94FB310E94DCA591
:104E40000C94FB31E091D203F091D303808188234D
:104E500029F0803209F410823196F8CF60E0809119
:104E6000D2039091D3030E9406A3109234040C94B1
:104E7000FB3183E50E942AEC882321F00E946DEB30
:104E80000E94C34E84E50E942AEC8823A9F00E9468
:104E90006DEB6B017C010E942882C0928304D0924A
:104EA0008404E0928504F0928604CD28CE28CF2891
:104EB00019F081E0809326108091E4048823F9F0B2
:104EC00080E090E0A0EAB1E489839A83AB83BC835D
:104ED0001C8E1D8E1E8E1F8E18A219A21AA21BA236
:104EE00000E010E020E0AE014F5F5F4FBE01645E66
:104EF0007F4FCE0180960E9496EE0C94FB310E946B
:104F00001F37882381F00E9468A10E94433781E700
:104F100090E10E940DA11092E90E1092EA0E1092FB
:104F2000EB0E1092EC0E61E086E29DE30E947EEEB5
:104F30004EEE5CE368EB78E085E00F948D160F94FD
:104F400066150C94FB318091BC1483FD02C00C9457
:104F5000FB3183E50E942AEC81110C94FF340C9400
:104F6000FB3183E40E94DCEB8823C1F18EEC98E0F6
:104F70000F94144B80912216882339F1BE016F5F84
:104F80007F4F8FE196E10E9421C38E010F5F1F4F7B
:104F9000D8018D918D01882319F00E946739F8CFCF
:104FA000CE0101960E948EA28091E40F882389F0A1
:104FB00080E20E94673904EE1FE0F80181918F01C1
:104FC000882339F00E946739F8CF84EC98E00F9479
:104FD000144B8AE00E9467390C94FB3183E50E94F0
:104FE0002AEC882309F10E947DEB182F90E0CD97E1
:104FF0000CF01CE310932C030F94534F6B017C01B6
:10500000212F30E0A8EEB3E00F94D36DC60ED71E6B
:10501000E81EF91EC0922803D0922903E0922A03C9
:10502000F0922B030C94FB310E94DDA00C94FB3119
:105030008091BC148E7F8093BC140C94FB318091C2
:10504000BC1483FD02C00C94FB310F949616809122
:10505000D2039091D3030E9466A50C94FB318091FA
:10506000BC1482FD0E94B0938091BC1483FD02C0E9
:105070000C94FB3160E080E50E9446EC182F682F0D
:105080008091D2039091D3030E9406A383E50E94EE
:105090002AEC882321F00E946DEB0E94C34E0E94EF
:1050A00068A111110C94FB310E9443370C94FB3121
:1050B0000E94F34D0C94FB3180E50E94DCEB8823C9
:1050C00011F40C94FB310E947DEB90E08536910544
:1050D00010F084E690E0809334040C94FB310E943D
:1050E00043370C94FB310E94D3900C94FB3160E069
:1050F00070E083E50E9437EC8E34910531F40E9414
:1051000044910F9466150C94FB3180E499E00F9460
:10511000144B609116067091170687E399E00F947F
:10512000CB4B60911806709119068AE299E00F94B2
:10513000CB4B6091160670911706809118069091DE
:105140001906681B790B80912610815021E030E010
:10515000823010F020E030E0621B730B8FE199E0A9
:105160000F94CB4B8AE00E94673980E499E00F945A
:10517000144B80911A0690911B06A0911C06B091C9
:105180001D068C8F9D8FAE8FBF8FBE016F5F7F4FCF
:10519000CE014C960E94144DBE016F5F7F4F82E19D
:1051A00099E00F94F64B80911E0690911F06A091F6
:1051B0002006B09121068C8F9D8FAE8FBF8FBE01D0
:1051C0006F5F7F4FCE014C960E94144DBE016F5F02
:1051D0007F4F82E099E00F94F64B20E030E04AE701
:1051E00054E46091220670912306809124069091E8
:1051F00025060F94276FAB01BC018AEE98E00F944F
:10520000D84B8DE60E9467398AE00E9467390C947A
:10521000FB318091520E83FF02C00C94FB310F943E
:105220001E0C87FF02C00C94FB3189E40E942AEC1B
:10523000882311F40C9404350E947DEB90E018163D
:10524000190614F481E090E026E0289FF001299FE0
:10525000F00D1124E656FA4F808191810C940E35A1
:105260008091520E83FF02C00C94FB310F941E0CF0
:10527000F82E87FF02C00C94FB3189E40E942AECCF
:10528000082F882311F40C9417350E947DEB90E0D1
:105290001816190614F481E090E026E0289FF0012A
:1052A000299FF00D1124E656FA4F8081918110E07C
:1052B0000C9427350F941E0C182F87FD0AC084E12B
:1052C00095E30F94144B812F0F945F1E8AE00E9488
:1052D0006739FCA9F093D30F0C94123660E080E597
:1052E0000E94DED8F82E21E0281710F40C94FB3130
:1052F00081E40E94DCEB882329F060913C08062FB2
:1053000010E002C00FEF10E089E40E942AEC88232D
:1053100099F00E947DEB90E01816190614F481E0D4
:1053200090E026E0289FF001299FF00D1124E65619
:10533000FA4F0481158108C083E50E942AEC882376
:1053400019F00E946DEB8B01EF2DF0E0E45CF74F5C
:10535000B8010F3F110519F010F06FEF70E0608396
:105360000C94FB3160E080E50E94DED8823010F0C2
:105370000C94FB31E82FF0E0E45CF74F10820C94C2
:10538000FB318EE40E942AEC882311F40C94FB314B
:105390000E946DEB6093CE037093CF038093D00394
:1053A0009093D1030C94FB3183E50E94DCEB8823BE
:1053B00031F060E083E50E94DED88093520E0F94B6
:1053C0000D4C8DE499E00F94144B8091520E88237C
:1053D00069F1F6E8EF2EFAE0FF2E00E010E020E0A1
:1053E0008091520E90E0A0E0B0E0002E04C0B6958F
:1053F000A795979587950A94D2F780FF0EC0DD2474
:10540000D394D20E222319F08CE20E946739F7015F
:10541000859194910F94144B2D2D0F5F1F4F32E007
:10542000E30EF11C05301105D9F6D3CD8BEE9EE3CA
:10543000CECD83E50E942AEC882371F00E947DEB9B
:10544000282F30E02D3331051CF480930002D3C7A0
:105450008CE380930002CFC70F940D4C4091000263
:1054600050E060E070E084E599E00F94BA4B8AE088
:105470000E946739C0C78091520E83FDBCC789E482
:105480000E942AEC882311F40C9471350E947DEB64
:1054900090E01816190614F481E090E026E0289FA9
:1054A000F001299FF00D1124E656FA4F8281938175
:1054B0000C947C358091520E83FD9DC789E40E9437
:1054C0002AEC882311F40C9483350E947DEB90E044
:1054D0001816190614F481E090E026E0289FF001E8
:1054E000299FF00D1124E656FA4F8281938110E036
:1054F0000C94943583E50E942AEC882309F47BC739
:105500000E947DEB182F90E0CD970CF01CE31093D8
:1055100031030F94534F6B017C01212F30E0A8EE33
:10552000B3E00F94D36DC60ED71EE81EF91EC092CD
:105530002D03D0922E03E0922F03F09230035BC72D
:105540000F948A1058C70F94BE230E94D3900E94D4
:1055500020950E94563768EE73E080E090E00F944B
:10556000F1490E945B3760E089E799E00F9491343C
:1055700042C7809127108F7D8061809327103BC7A1
:105580000F94221238C783E50E94DCEB882309F4CC
:1055900032C70F94534F6093FA107093FB108093AF
:1055A000FC109093FD100E94A5EB20E030E04AE74C
:1055B00054E40F948F670F94A06F6093320370933D
:1055C0003303809334039093350315C70F941E0C57
:1055D00087FD11C79091E50E94FD04C09091E70EF0
:1055E00097FF0AC07BEDC72E72E0D72EE3E5EE2EC3
:1055F000EEE0FE2E10E009C09091E80E937091F756
:10560000682F81E00F948212F6C6D6018D916D014C
:105610000E942AEC882309F46DC0133009F063C09E
:105620000E94A5EB4B015C0120E030E040EA51E430
:105630000F94296787FF4EC0A50194016091730EF6
:105640007091740E8091750E9091760E0F94276F65
:105650002B013C019B01AC01609120087091210855
:1056600080912208909123080F948F6760932008FF
:10567000709321088093220890932308A30192013C
:105680006091830E7091840E8091850E9091860EAC
:105690000F948F676093830E7093840E8093850EB2
:1056A0009093860E60913008709131088091320895
:1056B000909133080F942E67A30192010F948F6786
:1056C0000F94A06F60933008709331088093320874
:1056D000909333088092730E9092740EA092750E80
:1056E000B092760E07C00E94A5EBF701648B758B14
:1056F000868B978B1F5FF4E0EF0EF11C143009F0DE
:1057000084CF0E94CB9277C60E9441FB74C68091E1
:10571000D2039091D303009741F0DC012C91222316
:1057200021F060E00F94483566C60F94661563C695
:105730000091D2031091D30394E0F12C40E09150FA
:1057400021F1F8018081282F2B7F213421F4218140
:105750002133D9F407C08035C1F4818180538A3068
:1057600048F013C0813421F0853421F441E002C0B7
:10577000FF24F39498012E5F3F4F89012F5F3F4F25
:10578000F80180818032C9F3DACF41110F940D4CBA
:10579000FF2021F087E899E00F94144BC8010E9484
:1057A000723A29C620932706209326060E94E58197
:1057B00022C660E070E083E50E9437EC823038F06A
:1057C0000F94094C8BE899E00F94144B14C68C018C
:1057D000112788E40E942AEC8823E1F00E94A1EBC3
:1057E0008A3A910544F00E94A1EB8530914034F44F
:1057F0000E94A1EB05C08AEA90E002C084E091E03B
:1058000026E0209FF001219FF00D1124E656FA4F6B
:105810009183808382E40E942AEC8823D9F00E943D
:10582000A1EB059744F00E94A1EB8F36910534F46B
:105830000E94A1EB05C085E090E002C08EE690E0FA
:1058400026E0209FF001219FF00D1124E656FA4F2B
:105850009383828386E40E942AEC882309F4CBC5D3
:105860000E94A1EB97FD09C00E94A1EB8F3F91051B
:1058700009F034F40E94A1EB05C080E090E002C082
:105880008FEF90E026E0209FF001219FF00D112482
:10589000E656FA4F95838483AEC50F941E0C182FDD
:1058A00087FDA9C50091481084E40E942AEC882352
:1058B00011F40C94BD350E94A5EB6B017C0120E036
:1058C00030E0A9010F942967882341F124E01202F6
:1058D000F0011124EC5BFF4EC082D182E282F382A0
:1058E00020E030E0A9016091441070914510809152
:1058F0004610909147100F94296781110CC080E0E9
:1059000090E0A0EEBFE38093441090934510A093E5
:105910004610B093471001E00C94BD3580E08093B1
:1059200048100E94247767C50F941E0C87FD63C53D
:105930006BEDE62E62E0F62E03E51EE0D7018D91B9
:105940007D010E94DCEB882359F00E94A5EB0F94A7
:10595000A06FF80160837183828393830E94849295
:105960000C5F1F4FFEE003361F0741F744C50F943D
:105970001E0C87FD40C55BEDE52E52E0F52E03E5DC
:105980001EE0D7018D917D010E94DCEB882339F068
:105990000E94A5EBF80164A375A386A397A30C5FEF
:1059A0001F4FFEE003361F0761F725C50F94BD1298
:1059B00022C50F9469111FC583E50E942AEC882334
:1059C00031F00E94A1EB90930E0280930D02809122
:1059D000E50E9091E60EA091E70EB091E80E892BAE
:1059E0008A2B8B2B09F007C560910D0270910E0276
:1059F0008DEA99E00F94E94B85E20E9467398AE0CD
:105A00000E946739F8C40F941E0CF82E87FDF3C46A
:105A100083E50E942AEC0F2D0F2C000C110B88231C
:105A200069F10E94A1EBF801EE0FFF1FE15FFD4F4E
:105A300091838083000F111F000F111F98012A5BB3
:105A40003D4F7901BC01990F880B990B0F9430677A
:105A50002AE037ED43E25CE30F948F67F801EE58DC
:105A6000FB4F20813181428153810F948F67D70191
:105A70006D937D938D939C931397BDC40F940D4CA0
:105A800085E40E94673980E38F0D0E946739000F1B
:105A9000111FF801E15FFD4F6081718181EB99E099
:105AA0000F94E94B85E20E9467398AE00E946739CA
:105AB000A2C480E50E94DCEB882309F49CC40E9408
:105AC000A1EB8C01892B09F07FC083E50E94DCEB00
:105AD000882389F00E94A1EB8F3FBFEF9B0729F439
