:100000000C94C01B0C94F11B0C94F11B0C94F11B71
:100010000C94F11B0C94F11B0C94F11B0C94F11B30
:100020000C94F11B0C94F11B0C94F11B0C94F11B20
:100030000C94F11B0C94F11B0C94F11B0C94F11B10
:100040000C94F11B0D94CE0B0C94F11B0C94F11B32
:100050000C94F11B0C94F11B0C94D4990C94019307
:100060000C94F11B0C94A53A0C949B3A0C94F11B44
:100070000C94F11B0C94F11B0C94F11B0C94F11BD0
:100080000C94F11B0C94F11B0C94F11B0C94F11BC0
:100090000C94F11B0C94F11B0C94F11B0C94F11BB0
:1000A0000C94F11B0C94F11B0C94F11B0C94F11BA0
:1000B0000C94F11B0C94F11B0C94F11B0C94F11B90
:1000C0000C94F11B0C94F11B0C94F11B0C94F11B80
:1000D0000C94F11B0C94F11B0C94F11B0C94F11B70
:1000E0000C94F11BDB3AED3AFF3A103B183B4B3BCB
:1000F0001C3B4B3B203B243B4B3B283B2C3B303BAE
:10010000393B4B3B443B103E7F3CB83C4C3EB83CFB
:10011000B83CB83CB83CB83CB83CB83CB83CB83C3F
:10012000B83CB83CB83CB83CB83CB83CB83CB83C2F
:10013000B83CB83CB83CB83CB83CB83CB83CB83C1F
:10014000B83C463EB83CB83CB83CB83CB83CB83C7F
:10015000B83CB83C1F3EB83CB83CB83CB83CB83C96
:10016000B83CB83CB83CB83CB83C633EB53C07BC76
:10017000EABBEDBB0ABCF0BBF3BBF6BB02BCF9BBF0
:1001800015BCFCBBFFBBA101950223012302CD01DD
:100190008F02790219027502A7027F016F01BB026B
:1001A0007B028F02D1013F01F101B1016901970189
:1001B00013024D0251018B0101027101EB01CF01CC
:1001C00093026B0257015101D5010D01A302084AA8
:1001D000D73B3BCE016E84BCBFFDC12F3D6C74315B
:1001E0009ABD56833DDA3D00C77F11BED9E4BB4CB2
:1001F0003E916BAAAABE000000803F05A84CCDB27C
:10020000D44EB93836A9020C50B9918688083CA65C
:10021000AAAA2ABE000000803F000D943C090C945D
:10022000F3BB0C9456630C94D5B70C9437E40C9440
:10023000D5590C944C3E0C949C990C94AD590C944B
:10024000183B0C943BE40D9434080C94C5690C9451
:10025000CDB70C94CC590C947F3C0C94103B0C946F
:100260001F3E0C94CE610C94A1930C9441FF0C940E
:10027000EDB70C94FA3B0C941FB80C94B53C0D945C
:1002800073080C9402730C94F2FC0C94DC690C94CB
:100290003CFF0C94BA630C94FD3B0C94717E0C945F
:1002A00097690D9450090C94303B0C94D7E00D9451
:1002B00028090C94FCBB0C94FA610C9439950C94AD
:1002C000243B0C943FE40D94A91D0C94B83C0C9471
:1002D000C5620D94BE080C94FF720C94503F0D94AF
:1002E00061080D94F1080C94AE630C94B4630C9403
:1002F000E8FF0C94AE690C94C6630C9471FC0D94E9
:100300005B080C94E3620C94065E0C94F0BB0C94B6
:1003100098B90C94463E0D94E1080C948EE70C9429
:10032000CC630C94ED3A0C9406B80C9468690D9467
:10033000C3080C9437950C9493600C94E1B70C941B
:10034000A2630D9442080C944D630C94D4620C94F7
:1003500062980C94393B0C943DE40C94F6BB0C94DD
:10036000FF3A0D94B9080C94607E0C94EDBB0C948C
:10037000E1610C94B7B50C948B730C9402BC0C9493
:10038000D4920C940F3C0C94A8630C94A7FC0C948E
:10039000FE720C94AC930D948B1D0D943C080D943F
:1003A00005090D946F080C949EB50D9432090C94B8
:1003B000C9B70C941C3B0C9477690C944B3B0C9480
:1003C00080690C943F620C94F7B70C94DB3A0C9460
:1003D00069FC0C9435950D94FB080C942C3B0C9403
:1003E000915A0D9477080C945C7E0C946E610C9479
:1003F000955C0C94003C0C94EABB0C949C620C94AD
:100400002F6A0D94E9080C94757E0C94B9FC0C9439
:10041000D5660C94797E0C94BB610C9415BC0C943D
:10042000283B0C94E9B70D94CD080C94B3FC0C94C4
:10043000D9B70D944D080C9407BC0C94BC5B0D947B
:10044000CF100C949C630D9438080C94336A0C9470
:1004500029730C94BEBB0C94633E0C948B950C9446
:10046000BB620C94C9FC0C9426620C94BCAD0C9439
:10047000FE620C9496630C94DB660C94F4B70C94B7
:10048000EF620C947E930C940D630C9439E40C94FD
:10049000E0FF0C94F1B70C94C0630D94D7080C9452
:1004A000CEFC0C94DDB70C94D7660C94B6960C94E5
:1004B000D2630C9407D30C9425B80C948CFF0C9445
:1004C000235B0C94A3E20C9419B80C94C4FC0C9418
:1004D0000D620C94BFFC0D941E090C94D9660C940B
:1004E000EE660C9458620C940ABC0D9453080C945C
:1004F0000B7E0D9449080D9469080C948BB50C94EF
:10050000203B0D94B3160C9487610C949A6C0D9457
:10051000EB000C94A0610C94D1B70C94F9BB0D9432
:100520007C080C9460610D940F090D9445080C949F
:10053000FFBB0C94E5B70C94D3FC0C9446FF0C94D1
:10054000A2590C94443B0D9446090C94FAB70D94AF
:1005500057080C94CABB0C9400710C94103E0C9478
:10056000ADFC0C9462E70C94FE920C944BFF0C943F
:1005700061640D9409110D9465080C94DD590C9477
:10058000BF650C9492954E414E494E495459494E7F
:1005900046CDCCCC3D0AD7233C17B7D13877CC2BEE
:1005A000329595E6241FB14F0A000020410000C893
:1005B0004200401C4620BCBE4CCA1B0E5AAEC59D14
:1005C0007400407A10F35A00A0724E18090010A56A
:1005D000D4E80000E87648170000E40B540200005D
:1005E000CA9A3B000000E1F50500008096980000E3
:1005F0000040420F000000A086010000001027000C
:10060000000000E803000000006400000000000A91
:1006100000000000000100000000002C76D888DCFB
:10062000674F0823DFC1DFAE59E1B1B796E5E3E4D8
:1006300053C63AE651997696E8E6C28426EB898C51
:100640009B62ED407C6FFCEFBC9C9F40F2BAA56FB3
:10065000A5F490055A2AF75C936B6CF9676DC11B82
:10066000FCE0E40D47FEF520E6B500D0ED902E034A
:1006700000943577050080841E080000204E0A0093
:100680000000C80C333333330F986E12831141EFDF
:100690008D2114893BE65516CFFEE6DB18D1844B3D
:1006A000381BF77C1D901DA4BBE424203284725EAD
:1006B000228100C9F124ECA1E53D27434F4D4D5562
:1006C0004E49434154494F4E0044525952554E00F1
:1006D0004552524F5253004543484F0047322F472F
:1006E000332062616420706172616D65746572733C
:1006F0000A00536C6565702E2E2E00486F6D6520C4
:10070000257325732573204669727374004D30205C
:1007100053746F70004D312053746F7000436C69D7
:10072000636B20746F20526573756D652E2E2E00DD
:100730004E6F204D6F76652E00456E642066696CA5
:1007400065206C6973740A00426567696E2066698A
:100750006C65206C6973740A004E6F206D65646966
:10076000610A00526573756D696E672053440028F5
:100770006E6F2066696C65290043757272656E74D0
:100780002066696C653A20005072696E7420746945
:100790006D653A20000A53746174733A2046696C9F
:1007A000616D656E7420757365643A20002C204C71
:1007B0006F6E67657374206A6F623A2000546F74BD
:1007C000616C2074696D653A20002C204661696C6B
:1007D00065643A20002C2046696E69736865643A46
:1007E00020005072696E74733A2000537461747300
:1007F0003A2000452025530044454255473A004DD4
:1008000031313320530043522D3130205633204FA5
:1008100046462E004348414D4245525F54454D5097
:100820004552415455524500424142595354455056
:1008300050494E470041524353004D4F54494F4E8B
:100840005F4D4F44455300544845524D414C5F5015
:10085000524F54454354494F4E004C4F4E475F460C
:10086000494C454E414D45004155544F5245504F1E
:1008700052545F53445F53544154555300534443BF
:100880004152440050524F4D50545F535550504FB9
:10089000525400454D455247454E43595F504152D1
:1008A00053455200434153455F4C494748545F42CA
:1008B00052494748544E45535300544F47474C45BF
:1008C0005F4C494748545300534F46545741524593
:1008D0005F504F574552004255494C445F50455276
:1008E00043454E54004C4556454C494E475F4441A4
:1008F0005441005A5F50524F4245004155544F4CAD
:100900004556454C005052494E545F4A4F420050A4
:10091000524F4752455353004155544F5245504F43
:1009200052545F54454D5000564F4C554D4554520E
:1009300049430042494E4152595F46494C455F5434
:1009400052414E534645520053455249414C5F581F
:100950004F4E5F584F4646004649524D574152450B
:100960005F4E414D453A4D61726C696E20322E30BA
:100970002E372E322D46695A692D424C20284E6F53
:100980007620313020323032302031313A31313A34
:1009900034382920534F555243455F434F44455FF8
:1009A00055524C3A68747470733A2F2F67697468A3
:1009B00075622E636F6D2F4D61726C696E46697240
:1009C0006D776172652F4D61726C696E2050524F68
:1009D000544F434F4C5F56455253494F4E3A312E78
:1009E00030204D414348494E455F545950453A43A4
:1009F000522D3130205633204558545255444552DB
:100A00005F434F554E543A3120555549443A63653A
:100A10006465326132662D343161322D34373438B9
:100A20002D396231322D63353563363266333637D0
:100A300066660A002F2F20004D31343520533C6963
:100A40006E6465783E206F7574206F662072616EEB
:100A500067652028302D31290A00416363656C6584
:100A6000726174696F6E3A20500020204D61783AAF
:100A7000200020204D696E3A2000536F6674206577
:100A80006E6473746F70733A200046523A002046C9
:100A90006C6F773A200020643A0020693A00207099
:100AA0003A00496E76616C69642065787472756489
:100AB00065720A006469730043290A0061626C650B
:100AC0006420286D696E2074656D702000436F6C22
:100AD00064206578747275646573206172652000A6
:100AE00046696C616D656E742072756E6F757420E9
:100AF00064697374616E636520286D6D293A200006
:100B000046696C616D656E742072756E6F757420C8
:100B100000454550524F4D204F4B0A00506F7765AE
:100B2000722D6C6F7373207265636F7665727920B6
:100B300000446F6E65207072696E74696E6720661E
:100B4000696C650A004D3737004D333100D7066BAD
:100B50000BD006C906BB06554E4B4E4F574E205381
:100B6000544154450047434F44455F494E464F006A
:100B70004C43445F50415553455F524553554D4595
:100B80000046494C414D454E545F52554E4F5554C9
:100B90005F434F4E54494E55450046494C414D45E3
:100BA0004E545F52554E4F5554004D3837362052F3
:100BB0006573706F6E64696E672050524F4D50546C
:100BC0005F004572726F722077726974696E672078
:100BD000746F20454550524F4D210A0053544F50D9
:100BE0005045442E20005072696E746572207374F3
:100BF0006F707065642064756520746F2065727213
:100C00006F72732E20466978207468652065727251
:100C10006F7220616E6420757365204D39393920FB
:100C2000746F20726573746172742E202854656D20
:100C30007065726174757265206973207265736581
:100C4000742E205365742069742061667465722067
:100C500072657374617274696E67290A004E6F2041
:100C6000436865636B73756D2077697468206C6980
:100C70006E65206E756D6265722C204C61737420F8
:100C80004C696E653A2000636865636B73756D200F
:100C90006D69736D617463682C204C617374204CB2
:100CA000696E653A20004C696E65204E756D62650F
:100CB00072206973206E6F74204C617374204C69CC
:100CC0006E65204E756D6265722B312C204C617300
:100CD00074204C696E653A20004D31313000534428
:100CE0002072656164206572726F720A0021212092
:100CF0004B494C4C20636175736564206279204BCD
:100D0000494C4C20627574746F6E2F70696E0A00C6
:100D10002121204B494C4C2063617573656420622E
:100D20007920746F6F206D75636820696E616374DC
:100D30006976652074696D65202D20637572726512
:100D40006E7420636F6D6D616E643A20006275731E
:100D5000793A2070617573656420666F7220696EE0
:100D60007075740A00627573793A207061757365E5
:100D70006420666F7220757365720A0062757379FC
:100D80003A2070726F63657373696E670A004D6510
:100D90006469612052656D6F766564004D656469B4
:100DA0006120496E736572746564004D3130303076
:100DB00053007061757365004D36303000206669F0
:100DC0006C616D656E745F72756E6F757420006610
:100DD000696C616D656E745F72756E6F75742054A9
:100DE0000046696C616D656E7452756E6F75742026
:100DF0005400456E636C6F73757265004469666676
:100E00003A2020200046726F6D5374703A0053747C
:100E100065707065723A005261773A202020200098
:100E20000A4C6F676963616C3A00436F756E74209A
:100E3000453A004361703A00656E71756575656984
:100E40006E672022006F6B00526573656E643A20F6
:100E50000025697920256964202569682025696D48
:100E6000202569730042656420436F6F6C696E676B
:100E70002E2E2E004265642048656174696E672ECF
:100E80002E2E0024F4D43050C38E20C2A2401782EC
:100E90008B7011127A910D816CD90AA861E108C793
:100EA000586607615143061E4B5D05C145A7041AEC
:100EB000411104093D9803713931034036DB026565
:100EC000339102D4305402802E1D02632CEE017542
:100ED0002AC501B028A001102781018F2564012BAC
:100EE000244B01E0223401AC211F018D200D018033
:100EF0001FFC00841EED00971DDF00B81CD200E629
:100F00001BC600201BBC00641AB200B219A8000A5C
:100F100019A0006A189900D117910040178B00B5ED
:100F200016840031167E00B31579003A157300C798
:100F3000146F0058146A00EE1366008813630025CE
:100F4000135E00C7125B006C12570015125400C1EB
:100F500011510070114F0021114B00D61049008D26
:100F60001047004610440002104200C00F400080AD
:100F70000F3E00420F3C00060F3B00CB0E380093A3
:100F80000E37005C0E3500270E3400F30D3200C121
:100F90000D3100900D3000600D2E00320D2D00053A
:100FA0000D2C00D90C2B00AE0C2900850C29005CFF
:100FB0000C2700350C27000E0C2600E80B2400C47B
:100FC0000B2400A00B23007D0B23005A0B210039BA
:100FD0000B2100180B2000F80A1F00D90A1E00BBC5
:100FE0000A1E009D0A1D00800A1D00630A1C00479E
:100FF0000A1B002C0A1B00110A1A00F7091A00DD4F
:10100000091900C4091900AB091900920917007BDE
:10101000091800630917004C09160036091600204C
:101020000916000A091500F5081500E0081400CC9F
:10103000081400B8081400A4081400900813007DD8
:101040000812006B081300580812004608120034FA
:10105000081100230811001208110001081100F006
:10106000071000E0071000D0071000C0071000B004
:10107000070F00A107100091070E0083070F0074EF
:10108000070F0065070E0057070E0049070E003BCB
:10109000070D002E070E0020070D0013070D000698
:1010A000070D00F9060C00ED060D00E0060C00D45B
:1010B000060C00C8060C00BC060C00B0060C00A410
:1010C000060B0099060C008D060B0082060B0077BC
:1010D000060B006C060B0061060A0057060B004C5D
:1010E000060A0042060A0038060A002E060A0024F4
:1010F000060A001A060A001006090007060A00FD83
:10110000050900F4050900EB050900E2050900D90D
:10111000050900D0050900C7050900BE050900B58D
:10112000050800AD050800A50509009C0508009408
:101130000508008C050800840508007C050800747B
:101140000508006C050700650508005D05070056E9
:101150000508004E05070047050700400508003850
:10116000050700310507002A050700230507001CB5
:10117000050600160507000F050700080506000212
:10118000050700FB040600F5040700EE040600E86E
:10119000040600E2040700DB040600D5040600CFC5
:1011A000040600C9040600C3040600BD040600B717
:1011B000040600B1040500AC040600A6040600A065
:1011C0000405009B04060095040500900406008AAF
:1011D00004050085040500800406007A04050075F6
:1011E000040500700405006B040500660405006139
:1011F0000405005C04050057040500520405004D79
:1012000004050048040500430405003E0404003AB8
:1012100004050035040500300404002C04050027F3
:10122000040400230405001E0404001A040400162C
:10123000040500110404000D040400090405000461
:1012400004040000040400FC030400F8030400F498
:10125000030400F0030400EC030400E8030400E4CA
:10126000030400E0030400DC030400D8030400D4FA
:10127000030400D0030400CC030400C8030300C52A
:1012800003030024F404D9201BC40C5C0E9804C48E
:10129000095F0265077101F405F900FB04B300481A
:1012A000048700C10369005803550003034500BECD
:1012B000023A008402310053022A00290225000468
:1012C000022000E4011C00C8011900AF01170098BA
:1012D000011400840113007101100061011000511C
:1012E000010E0043010D0036010B002B010B002005
:1012F000010B00150109000C01090003010800FBA6
:10130000000800F3000800EB000700E4000600DE20
:10131000000600D8000600D2000600CC000500C779
:10132000000500C2000500BD000400B9000400B5BE
:10133000000400B1000400AD000400A9000400A5F1
:10134000000300A20003009F0004009B000300981C
:101350000003009500020093000300900003008D3D
:101360000002008B00030088000200860002008457
:10137000000300810002007F0002007D0002007B6C
:10138000000200790002007700010076000200747C
:1013900000020072000100710002006F0002006D87
:1013A0000001006C0002006A000100690002006791
:1013B0000001006600010065000100640002006297
:1013C00000010061000100600001005F0002005D9B
:1013D0000001005C0001005B0001005A000100599F
:1013E000000100580001005700010056000100559F
:1013F000000100540001005300000053000100529E
:1014000000010051000100500001004F0001004E9A
:101410000000004E0001004D0001004C0001004B97
:101420000000004B0001004A000100490001004893
:10143000000000480001004700010046000000468F
:101440000001004500000045000100440001004388
:101450000000004300010042000000420001004182
:1014600000000041000100400001003F0000003F7B
:101470000001003E0000003E0001003D0000003D74
:101480000001003C0000003C0000003C0001003B6B
:101490000000003B0001003A0000003A0001003962
:1014A000000000390001003800000038000000385A
:1014B0000001003700000037000100360000003650
:1014C0000000003600010035000000350000003546
:1014D000000100340000003400000034000100333B
:1014E0000000003300000033000100320000003231
:1014F0000000003200010031000000310000003126
:101500000001003000000030000000300001002F1A
:101510000000002F0000002F0000002F0001002E0F
:101520000000002E0000002E0001002D0000002D04
:101530000000002D0000002D0001002C0000002CF8
:101540000000002C0000002C0001002B0000002BEC
:101550000000002B0000002B0001002A0000002AE0
:101560000000002A0000002A0001002900000029D4
:1015700000000029000000290000002900010028C7
:1015800000000028000000280000002800000028BB
:1015900000010027000000270000002700000027AE
:1015A00000000027000100260000002600000026A1
:1015B0000000002600000026000100250000002594
:1015C0000000002500000025000000250000002587
:1015D000000100240000002400000024000000247A
:1015E000000000240001002300000023000000236D
:1015F000000000230000002300000023000000235F
:101600000001002200000022000000220000002251
:101610000000002200000022000100210000002143
:101620000000002100000021000000210000002136
:101630000000002100010020000000200000002028
:10164000000000200000002000000020000000201A
:10165000000000200001001F0000001F0000001F0C
:101660000000001F0000001F0000001F0000001FFE
:101670000001001E0000001E0000001E0000001EF1
:10168000000000393000003325000087190000B049
:101690000F0000DB080000BD040000740200003FE2
:1016A000010000506F776572204F757461676500A7
:1016B000436F6E66696775726174696F6E0043612E
:1016C0006E63656C204F626A65637400256C642EDE
:1016D00025696D00457874727564656420546F7473
:1016E000616C004C6F6E67657374204A6F622054A2
:1016F000696D65003E2000546F74616C2050726902
:101700006E742054696D6500436F6D706C6574650F
:1017100064005072696E7420436F756E74003132CC
:1017200030004245443A204550434F532031303039
:101730004B0052756E617761792057617463683A26
:10174000204F4E004D61782054656D700032373562
:10175000004D696E2054656D700045313A2045504A
:10176000434F53203130304B005053550047656E86
:10177000657269630050726F746F636F6C00312E15
:1017800030004261756400323530303030004372D1
:1017900065616C69747933442052414D5053004562
:1017A00078747275646572730043522D313020561F
:1017B0003300323032302D31312D31302031313A59
:1017C0003033005072696E746572205374617473A3
:1017D00000546865726D6973746F727300426F6153
:1017E000726420496E666F005072696E7465722073
:1017F000496E666F004D313030300053746F702089
:101800005072696E7400526573756D65205072690F
:101810006E74004368616E6765204D6564696100A0
:101820004D32310041626F7574205072696E74657B
:1018300072004E6F204D656469610054756E6500DD
:101840005061757365205072696E7400496E666FE1
:101850002053637265656E00452073746570732F45
:101860006D6D005A2053746570732F6D6D00592093
:1018700053746570732F6D6D0058205374657073C9
:101880002F6D6D00496E697400416363656C65720C
:101890006174696F6E0056656C6F63697479004E90
:1018A0004F005945530043616E63656C204F626A77
:1018B000656374203D0046616E2053706565640069
:1018C00052756E6F75742044697374206D6D004C91
:1018D0006F6164206D6D00556E6C6F6164206D6D7D
:1018E0000046696C2E204469612E004520696E20F7
:1018F0006D6DC2B3004D333033205531204525691D
:101900002053256900504944204175746F74756EE9
:1019100065202A005049442D44202A005049442D76
:1019200049202A005049442D50202A0020082046F2
:10193000616374002008204D6178002008204D6903
:101940006E004175746F74656D700023646566691F
:101950006E652044454641554C545F004B64200061
:101960004B6920004B702000504944204175746F32
:1019700074756E652066696E6973686564212050B0
:10198000757420746865206C617374204B702C2012
:101990004B6920616E64204B6420636F6E737461C9
:1019A0006E74732066726F6D2062656C6F7720694C
:1019B0006E746F20436F6E66696775726174696FCC
:1019C0006E2E680A00504944204175746F74756E1C
:1019D00065206661696C6564212074696D656F7549
:1019E000740A000A20436C61737369632050494490
:1019F000200A00204B643A2000204B693A20002046
:101A00004B703A20000A204E6F206F766572736823
:101A10006F6F740A002054753A2000204B753A20ED
:101A200000206D61783A2000206D696E3A20002018
:101A3000643A200020626961733A200050494420D2
:101A40004175746F74756E652073746172740A00E9
:101A5000504944204175746F74756E6520666169E4
:101A60006C6564212054656D706572617475726572
:101A700020746F6F20686967680A005049442041EC
:101A800075746F74756E6500504944204175746FAC
:101A900074756E65206661696C65642120426164BD
:101AA000206578747275646572206E756D626572FA
:101AB0000A004572723A207574663820666F6E743B
:101AC000206E6F7420696E697469616C697A6564EF
:101AD0002E00000C0F00FE07022503BB017FFE084D
:101AE000FE08FE05080806000040F0C888889878BF
:101AF00010050808060000C0F88888888888F8055E
:101B000005050600012030F8302005080806000011
:101B10002070F820202020E00509090600FF207031
:101B2000A8A8B888887020070505070001D86C367A
:101B30006CD80509090600FFF8A88888888888A855
:101B4000F8050A0A0600FE205050505088A8A888C0
:101B50007003030306000340A040FFFFFFFFFFFFE9
:101B6000FFFFFFFFFFFFFFFFFFFFFFFFFFFFFFFF85
:101B70000000000605FF0107070602008080808044
:101B8000800080030303060105A0A0A00506060649
:101B9000000050F85050F8500509090600FF207069
:101BA000A8A07028A87020050707060000C8C81064
:101BB0002040989805070706000040A0A040A89084
:101BC000680103030602058080800309090601FFFE
:101BD0002040408080804040200309090601FF80AA
:101BE000404020202040408005070706000020A834
:101BF000702070A8200505050600012020F820208F
:101C00000203030601FFC04080050101060003F83E
:101C1000020202060100C0C0050707060000081006
:101C20001020404080050707060000708898A8C86B
:101C3000887003070706010040C040404040E005AF
:101C40000707060000708808102040F805070706FF
:101C50000000F8081030088870050707060000101B
:101C6000305090F81010050707060000F880F008C3
:101C7000088870050707060000304080F0888870EB
:101C8000050707060000F8081010202020050707A8
:101C900006000070888870888870050707060000B5
:101CA00070888878081060020505060100C0C00031
:101CB000C0C00206060601FFC0C000C04080030588
:101CC000050601012040804020050303060002F8BC
:101CD00000F8030505060101804020408005070744
:101CE000060000708810202000200507070600006D
:101CF0007088B8A8B880700507070600007088884B
:101D0000F8888888050707060000F04848704848AA
:101D1000F00507070600007088808080887005073E
:101D200007060000F04848484848F0050707060045
:101D300000F88080F08080F8050707060000F88032
:101D400080F08080800507070600007088808098FA
:101D50008870050707060000888888F88888880347
:101D60000707060100E04040404040E00507070645
:101D7000000038101010109060050707060000885A
:101D800090A0C0A090880507070600008080808092
:101D90008080F805070706000088D8A8888888880A
:101DA0000507070600008888C8A8988888050707DF
:101DB000060000708888888888700507070600007C
:101DC000F08888F08080800507070600007088880A
:101DD00088A89068050707060000F08888F0A090A2
:101DE000880507070600007088807008887005075E
:101DF00007060000F8202020202020050707060005
:101E00000088888888888870050707060000888809
:101E1000888850502005070706000088888888A811
:101E2000A8500507070600008888502050888805BC
:101E30000707060000888850202020200507070695
:101E40000000F80810204080F80309090601FFE0AF
:101E500080808080808080E0050707060000804049
:101E600040201010080309090601FFE0202020206F
:101E7000202020E00503030600052050880501010D
:101E80000600FEF803030306010580402005050552
:101E90000600007008788878050707060000808033
:101EA000F0888888F005050506000070808088703D
:101EB0000507070600000808788888887805050562
:101EC0000600007088F080700507070600003048A3
:101ED00040E04040400507070600FE70888888788B
:101EE00008700507070600008080F088888888034E
:101EF00007070601004000C0404040E00409090611
:101F000001FE100030101010109060050707060049
:101F10000080808890E09088030707060100C04099
:101F200040404040E0050505060000D0A8A8A8A84C
:101F3000050505060000B0C8888888050505060067
:101F40000070888888700507070600FEF08888887A
:101F5000F080800507070600FE78888888780808E2
:101F6000050505060000B0C880808005050506004F
:101F70000078807008F00507070600002020F82090
:101F80002020180505050600008888889868050542
:101F90000506000088888850200505050600008891
:101FA00088A8A8500505050600008850205088051F
:101FB00007070600FE888888502040800505050632
:101FC0000000F8102040F80309090601FF204040F6
:101FD0004080404040200109090602FF8080808047
:101FE00080808080800309090601FF8040404020F6
:101FF0004040408005030306000248A890FF3F00D0
:10200000496E697469616C697A6520454550524F23
:102010004D00726573756D6500454550524F4D20FA
:1020200056657273696F6E204572726F7200454516
:1020300050524F4D20496E646578204572726F7220
:1020400000454550524F4D20435243204572726F18
:10205000720049676E6F726500486F6D696E672028
:102060004661696C6564006F70656E005452494743
:1020700047455245440066696C616D656E74007A2F
:102080005F6D696E00795F6D696E00785F6D696E76
:10209000005265706F7274696E6720656E64737448
:1020A0006F70207374617475730A005761726E6982
:1020B0006E673A20486F6D696E672042756D7020BB
:1020C00044697669736F72203C20310A0000004831
:1020D00042000048420000C0400202040000A0404C
:1020E0000000A04000000040FFFFFF5365747469CA
:1020F0006E67732053746F72656400206279746533
:10210000733B20637263200053657474696E677358
:102110002053746F726564202800454550524F4D1E
:10212000206461746173697A65206572726F722EC2
:102130000A002073746F7265642073657474696E2D
:102140006773207265747269657665642028002063
:102150002863616C63756C6174656429210A0020D1
:10216000213D2000454550524F4D20435243206DA4
:1021700069736D61746368202D202873746F7265B4
:1021800064292000496E6465783A20004449474933
:10219000504F5453204C6F616465640A00444947B2
:1021A00049504F5453204C6F6164696E670A002098
:1021B0004D61726C696E3D563832290A00454550B2
:1021C000524F4D2076657273696F6E206D69736D25
:1021D000617463682028454550524F4D3D00000012
:1021E0000000000000600000000000FC00000FF094
:1021F0000000000007E00000000001861FC018700A
:102200000000000000603C0C000001830C601030F6
:102210000000000000603C0C000001830C303030F6
:10222000000000000060000C000000030C183000EB
:10223000000000000060003F0F3C00030C0C600138
:10224000DF0FE0FE00601C1C061800060C0C60008E
:10225000F318318300600C0C0318001E0C0C600096
:10226000E030398300600C0C033000030C0C60007C
:10227000C030380F00600C0C033000018C0C600083
:10228000C03FF8FB00600C0C033000018C0C603088
:10229000C030018300600C0C01F001818C0C6030B7
:1022A000C030018300600C0C00E001818C183030DC
:1022B000C018318300600C0C40E001838C30186042
:1022C000C00C6187C0E01C0CC06000C30C600FC371
:1022D000F007C0FFC7FC7F0781C0007E1FC0000061
:1022E00000000000000000000700000000000000E7
:1022F00000000000000000000700000000001FFFB9
:10230000FFFFFFFFFF600000000001FF4000000032
:102310000000FF8000000000007F83CF00000C3031
:102320003F87FF80000C301F867980000C000F8CE7
:1023300030C7838C30E78C30CFC7CC31F38C30DCA6
:10234000ECEC33B98C30D86C6C33198C30D06C0C0D
:1023500033198C30D86C0C33198C30DC6C0E3B1973
:102360008C30CF7C079F198C30C77C038F194000BD
:102370000000000002600000000000061FFFFFFFD9
:10238000FFFFF870012C0190012701B0012201C06C
:10239000011D01F00118011002130130020E01604D
:1023A00002090190020401C002FF000003FA00408C
:1023B00003F5008003F000D003EB002004E600707A
:1023C00004E100E004DC004005D700C005D2004075
:1023D00006CD00D006C8008007C3003008BE00F05C
:1023E00008B900C009B400B00AAF00B00BAA00D011
:1023F0000CA500000EA000500F9B00C010960050CE
:1024000012910000148C00C0158700B0178200B034
:10241000197D00D01B7800001E730040206E0090D4
:10242000226900F024640040275F0090295A00E0F0
:102430002B5500102E500020304B0010324600E08B
:1024400033410090353C001037370070383200A01F
:10245000392D00B03A2800A03B2300603C1E00103C
:102460003D1900903D1400103E0F00703E0A00C060
:102470003E0500003F0000403FFBFF803FF6FFC0ED
:102480003FF1FF68747470733A2F2F6D61726C693D
:102490006E66772E6F726700322E302E372E322DF9
:1024A00046695A692D424C002020506C616E6E6561
:1024B0007242756666657242797465733A200020CF
:1024C00046726565204D656D6F72793A2000436FE5
:1024D0006D70696C65643A204E6F76203130203221
:1024E0003032300A00204C6173742055706461747E
:1024F00065643A20323032302D31312D3130203187
:10250000313A3033207C20417574686F723A20462E
:10251000695A692C20435231302D56332C20626188
:10252000736564206F6E206672616E367020435250
:1025300031302D56320A00322E302E372E322D46B3
:10254000695A692D424C0A004D61726C696E002017
:10255000536F6674776172652052657365740A0003
:10256000205761746368646F672052657365740AED
:10257000002042726F776E206F757420526573650C
:10258000740A002045787465726E616C2052657320
:1025900065740A00506F77657255700A0061757432
:1025A0006F25632E67004732385859004D3130305F
:1025B00031006572726F722077726974696E67207C
:1025C000746F2066696C650A00446F6E65207361E4
:1025D00076696E672066696C652E0A004D32390097
:1025E000255320256320256320256320256300656E
:1025F0006E6473746F7073206869743A20004D388C
:10260000340054656D7065726174757265004E6F4B
:102610007A7A6C65004D61696E0044697361626C21
:102620006520537465707065727300486F6D652026
:102630005A004732385A00486F6D652059004732BA
:10264000385900486F6D65205800473238580041AE
:1026500075746F20486F6D650047323800507265A1
:1026600068656174202420456E6400507265686559
:10267000617420242042656400436F6F6C646F773F
:102680006E0046616E205370656564207E00466C66
:102690006F770020436F756E7420583A0045310003
:1026A000626564002C2073797374656D2073746F98
:1026B0007070656421204865617465725F49443AB1
:1026C000200048656174696E67204661696C6564C5
:1026D0000048656174696E67206661696C656400B5
:1026E0004D3131322053687574646F776E00202D40
:1026F00020496E76616C69642065787472756465D2
:1027000072206E756D62657220210A005448455230
:102710004D414C2052554E41574159005468657205
:102720006D616C2052756E61776179004572723A05
:10273000204D415854454D50004D415854454D5041
:1027400020747269676765726564004572723A2029
:102750004D494E54454D50004D494E54454D502025
:1027600074726967676572656400202F00204240BB
:102770003A0020403A0020573A007C3C3E5E2B3D18
:102780003F2F5B5D3B2C2A225C0000009B43000036
:102790009B430000C843000000010000000100004E
:1027A0008000555555000000400033333300AAAA7D
:1027B0002A004992240000002000C7711C0099994A
:1027C0001900D1451700555515003BB11300244998
:1027D000120011111100000010000F0F0F00E3385C
:1027E0000E0043790D00CCCC0C00C3300C00E8A2E5
:1027F0000B0064210B00AAAA0A00703D0A009DD8B4
:102800000900427B090092240900DCD30800888873
:1028100008001042080000000800F0C10700878788
:10282000070075500700711C07003EEB0600A1BCB5
:1028300006006990060066660600703E0600611894
:10284000060017F4050074D105005BB00500B290D6
:102850000500627205005555050078390500B81E5F
:102860000500050505004EEC040087D40400A1BD59
:10287000040090A7040049920400C17D0400EE69A1
:102880000400C7560400444404005C3204000821DC
:10289000040041100400000004003FF00300F8E0D1
:1028A000030026D20300C3C30300CCB503003AA83B
:1028B00003000A9B0300388E0300C08103009F754C
:1028C0000300D0690300505E03001D530300344829
:1028D0000300913D03003333030016290300381F22
:1028E000030097150300300C0300030303000BFAE9
:1028F000020049F10200BAE802005CE002002DD8B3
:1029000002002DD0020059C80200B0C0020031B947
:102910000200DAB10200AAAA0200A0A30200BC9C35
:102920000200FA9502005C8F0200DF8802008282BA
:102930000200457C02002776020027700200436AED
:1029400002007C640200D05E02003F590200C853BE
:102950000200FFFDFCFAF8F6F4F2F0EEECEAE9E72B
:10296000E5E3E1E0DEDCDAD9D7D5D4D2D0CFCDCBE8
:10297000CAC8C7C5C3C2C0BFBDBCBAB9B7B6B4B375
:10298000B2B0AFADACAAA9A8A6A5A4A2A1A09E9DD5
:102990009C9A99989795949392908F8E8D8B8A8913
:1029A00088878684838281807F7E7D7B7A79787731
:1029B000767574737271706F6E6D6C6B6A6968672F
:1029C000666564636261605F5E5D5C5B5A5958581E
:1029D0005756555453525150504F4E4D4C4B4A4AF6
:1029E0004948474646454443424241403F3E3E3DBA
:1029F0003C3B3B3A3938383736353534333232316F
:102A000030302F2E2E2D2C2B2B2A29292827272614
:102A1000252524232322212120201F1E1E1D1C1CAE
:102A20001B1B1A191918181716161515141313123B
:102A3000121111100F0F0E0E0D0D0C0C0B0A0A09BE
:102A40000908080707060605050404030302020136
:102A500000000000000000000000000000004164D1
:102A600076616E6365642053657474696E67730084
:102A7000554E4C4F41442046494C414D454E540023
:102A800046494C414D454E54204348414E47450030
:102A90004C6F61642053657474696E67730053747E
:102AA0006F72652053657474696E67730052657345
:102AB000746F72652044656661756C747300507242
:102AC0006568656174202420436F6E660052756EE0
:102AD0006F75742053656E736F72004D37303220FE
:102AE000542564004D363030204230205425640097
:102AF0004D373032203B2564004D3730312054258E
:102B000064004D373032004D373031004D363030B3
:102B1000204230005075726765206D6F72650052FB
:102B20004553554D45204F5054494F4E533A005050
:102B300052494E54205041555345440020204E6F79
:102B40007A7A6C653A20005061726B696E672E2E3E
:102B50002E0000005761697420666F720066696C10
:102B6000616D656E74206368616E676500746F20C7
:102B70007374617274005761697420666F720066C5
:102B8000696C616D656E7420756E6C6F61640000B8
:102B90004E6F7A7A6C652068656174696E67005063
:102BA0006C6561736520776169742E2E2E0000506C
:102BB0007265737320627574746F6E00746F206831
:102BC000656174206E6F7A7A6C650000496E73657A
:102BD00072742066696C616D656E7400616E64204C
:102BE000707265737320627574746F6E00746F20F9
:102BF000636F6E74696E7565005761697420666FE6
:102C0000720066696C616D656E74206C6F61640042
:102C100000507265737320427574746F6E00746F28
:102C200020726573756D65207072696E740000574F
:102C300061697420666F72207072696E7400746FBF
:102C400020726573756D652E2E2E000057616974B4
:102C500020666F720066696C616D656E74207075B8
:102C6000726765000020746F6F206C6F6E6720655F
:102C70007874727573696F6E2070726576656E74A4
:102C800065640A0020636F6C6420657874727573E4
:102C9000696F6E2070726576656E7465640A0020D7
:102CA0005A3A0020593A00204D39322058004D320E
:102CB000342053256C642054256C64004739322E2F
:102CC00039204525730047312046256400473932B5
:102CD0002E39205A2573004731205A302046323091
:102CE0003000473120582573205925732046333052
:102CF0003030004D31303620502569205325690091
:102D00004D31303920532569004D3139302053255C
:102D100069004D323030204425730047323852303C
:102D20005859004739322E39204530205A300A4749
:102D3000315A25730020496E76616C69642065788C
:102D400074727564657220001FE02010201020103E
:102D50001020102020102010303008400480030084
:102D60001FE03FF03FF03FF01FE01FE03FF03FF07B
:102D70003FF00FC0078003003FFFF038007030FCC9
:102D80003020FC102078102030102C00D02E31D0B4
:102D90002F7BD02F7BD02E31D02C00D02030102094
:102DA000781020FC1030FC303800703FFFF03FFFFF
:102DB000F03800703186302387102787902F87D016
:102DC0002F03D02030102078102078102030102FC2
:102DD00003D02F87D0278790238710318630380083
:102DE000703FFFF01FFFF81FFFF80410400208209B
:102DF0000208200410400820801041001041000803
:102E000020800410400000001FFFF81FFFF80000A2
:102E100000001E000000002100000000271DC08CE3
:102E200000272121920041212092008E21CE920084
:102E300090212092011021209201201D21CC0220FE
:102E40000000000410011300081001148010080194
:102E50001080200400A30047F200A08043E2004459
:102E600080200400430018D80000001984000000EE
:102E700021FC0000003F002568753A253032687556
:102E80000025303268753A253032687500202020E0
:102E90002020202000506C656173652052657365A9
:102EA00074005052494E5445522048414C544544B8
:102EB0000025533A20255300706F7765726F666660
:102EC000004B494C4C45442E20005072696E74658D
:102ED000722068616C7465642E206B696C6C2829A3
:102EE0002063616C6C6564210A006563686F3A0059
:102EF0004572726F723A005072696E74696E672023
:102F00004F626A656374002553202569002F2F6185
:102F10006374696F6E3A00626567696E00656E641E
:102F20000070726F6D70745F0073686F7700446932
:102F30007361626C6552756E6F757400507572675F
:102F4000654D6F726500486F74656E6420746F6FB5
:102F500020636F6C640A0053656E64204D31303815
:102F600020746F20726573756D650A00526568651F
:102F7000617420446F6E6500526568656174696EA6
:102F8000672E2E2E00526568656174004865617475
:102F900065722054696D656F75740053656E6420A9
:102FA0004D31303820746F2068656174206E6F7AFF
:102FB0007A6C650A004E6F7A7A6C65205061726B8C
:102FC00065640070617573656400726573756D6525
:102FD0006400526573756D696E6700565472617650
:102FE000204D696E00566D696E00566D6178204502
:102FF00000566D6178205A00566D61782059005650
:103000006D6178205800416D6178204500416D6107
:1030100078205A00416D6178205900416D61782017
:103020005800412D54726176656C00412D526574D3
:103030007261637400416363656C0056652D4A6577
:10304000726B00565A2D4A65726B0056592D4A65AF
:10305000726B0056582D4A65726B002053697A6571
:103060003A20004D32332025730046696C65207389
:10307000656C65637465640A0046696C65206F70F1
:10308000656E65643A2000454E4420535542524FC8
:103090005554494E450A002220706F73002220705B
:1030A0006172656E743A2200535542524F5554492D
:1030B0004E452043414C4C207461726765743A223E
:1030C0000053756263616C6C204F766572666C6F3D
:1030D00077004578636565646564206D6178205389
:1030E0005542524F5554494E452064657074683AB4
:1030F000310A0044656C6574696F6E206661696CA5
:1031000065642C2046696C653A200046696C652030
:1031100064656C657465643A005344207072696E2E
:1031200074696E67206279746520004E6F74205355
:1031300044207072696E74696E670A006F70656E04
:10314000206661696C65642C2046696C653A2000D4
:1031500057726974696E6720746F2066696C653A8E
:103160002000667265736800646F696E67004E6F59
:1031700077200043616E6E6F74206F70656E2073F0
:1031800075626469722000534420496E6974204658
:1031900061696C0053442063617264206F6B0A00A4
:1031A0006F70656E526F6F74206661696C65640A3A
:1031B00000766F6C756D652E696E69742066616945
:1031C0006C65640A004E6F20534420636172640A88
:1031D000005072696E742066726F6D204D6564696F
:1031E00061005072696E742050617573656400628D
:1031F0007574746F6E00436F6E74696E7565004C04
:103200006F61642046696C616D656E74205400497D
:103210006E736572742066696C616D656E74206191
:103220006E642073656E64204D3130380A00220AC6
:1032300000556E6B6E6F776E20636F6D6D616E649F
:103240003A20220043522D313020563320526561FE
:1032500064792E005072696E74696E672E2E2E008E
:1032600043616E63656C004F6666004F6E004D6F84
:1032700074696F6E005374617274205072696E7459
:103280000043616E6E6F7420656E74657220737595
:10329000626469723A2000022E2E002100486F7489
:1032A000656E6420746F6F20636F6C640050726F82
:1032B0006365656400536F667420456E6473746F54
:1032C00070730000002200250028002B002E003122
:1032D00000340002010000050108010B010000217B
:1032E00000240027002A002D0030003300010100D7
:1032F00000040107010A010505050507050808087E
:1033000008020202020A0A08080404040401010176
:10331000010101010103030303030303030407077E
:10332000070C0C0C0C0C0C0C0C020202020606061C
:1033300006060606060B0B0B0B0B0B0B0B01021004
:1033400020200808102040102040800201020108BF
:10335000040201010204081020408080402010086F
:1033600004020180040201804020100804020108C8
:103370000402010102040810204080010204081028
:103380002040805045544700504C41004D6F7665B9
:103390002025736D6D004D6F766520302E316D6D7B
:1033A000004D6F766520316D6D004D6F7665203173
:1033B000306D6D004D6F76652041786973004578FA
:1033C000747275646572004D6F7665205A004D6F9A
:1033D00076652059004D6F76652058004368616E10
:1033E00067652046696C616D656E7400556E6C6F23
:1033F00061642046696C616D656E74004C6F616438
:103400002046696C616D656E740050726568656117
:103410007420437573746F6D0050726568656174D4
:103420002024004261636B0000000A0B02090C0DAE
:103430000E08070304010000000000000000000067
:10344000000000000000000000000000000000007C
:103450000000000012111000000000000000000039
:1034600000000000000000000000000000008833A1
:10347000833320520048617264636F646564204442
:10348000656661756C742053657474696E6773202A
:103490004C6F616465640A003B200020204D36308B
:1034A00033200020204D34313220530046696C61B6
:1034B0006D656E742072756E6F75742073656E73B2
:1034C0006F723A0020550046696C616D656E74201C
:1034D0006C6F61642F756E6C6F6164206C656E67D4
:1034E0007468733A0020204D343133205300506FFC
:1034F0007765722D4C6F7373205265636F766572BA
:10350000793A0020204D33303420500020490020EB
:10351000204D33303120500050494420736574747D
:10352000696E67733A0020460020480020204D3124
:1035300034352053004D6174657269616C20686593
:103540006174757020706172616D65746572733A33
:103550000020204D323035204200416476616E6398
:1035600065643A20423C6D696E5F7365676D656E98
:10357000745F74696D655F75733E20533C6D696E51
:103580005F66656564726174653E20543C6D696E6A
:103590005F74726176656C5F66656564726174659F
:1035A0003E20583C6D61785F785F6A65726B3E20A3
:1035B000593C6D61785F795F6A65726B3E205A3C59
:1035C0006D61785F7A5F6A65726B3E20453C6D6124
:1035D000785F655F6A65726B3E0020204D32303443
:1035E000205000416363656C65726174696F6E2081
:1035F00028756E6974732F7332293A20503C7072AB
:10360000696E745F616363656C3E20523C726574E1
:10361000726163745F616363656C3E20543C7472D5
:103620006176656C5F616363656C3E0020204D329E
:1036300030312058004D6178696D756D20416363AC
:10364000656C65726174696F6E2028756E6974733C
:103650002F7332293A0020204D3230332058004D4C
:103660006178696D756D20666565647261746573F6
:103670002028756E6974732F73293A00537465702E
:10368000732070657220756E69743A0020440020C2
:10369000204D3230302053002044697361626C65E4
:1036A000640A0046696C616D656E7420736574749C
:1036B000696E67733A0020204D3134392043203B36
:1036C00020556E69747320696E2043656C7369754B
:1036D000730A0020286D6D290020204732312020F8
:1036E00020203B20556E69747320696E206D6D003B
:1036F00000803B4400803B44000070410000964243
:103700000000A0420000A0420000C8430080CF4358
:10371000D0070000D00700006400000088130000FC
:103720006E6F74696669636174696F6E20006361AE
:103730006E63656C005072696E742041626F7274C2
:103740006564004469736D69737300554920416273
:103750006F72746564004D323520500A4D3234006A
:10376000526573756D65005549205061757365002C
:1037700050617573696E672E2E2E00006301CB01B8
:1037800011241FBECFEFD1E2DEBFCDBF00E00CBFE2
:1037900012E0A0E0B2E0E8E3FCE502E00BBF02C00B
:1037A00007900D92A03FB107D9F726E1A0EFB2E054
:1037B00001C01D92A039B207E1F71BE1CFEBDBE1BD
:1037C00000E006C021970109802FFE010F94652AB1
:1037D000CE3BD10780E00807A9F70F94B5160D94EA
:1037E0000A2E0C9400002F923F924F925F926F929C
:1037F0007F928F929F92AF92BF92CF92DF92EF9281
:10380000FF920F931F93CF93DF93CDB7DEB7E3976C
:103810000FB6F894DEBF0FBECDBF8AAB20911D0F4F
:1038200028AB21E020931D0F8091FA038D3409F419
:10383000BBC2843511F40C94B22C873411F00C9473
:10384000D72C8091F8039091F9038531910511F4FB
:103850000C94D92C74F4843091053CF48230910599
:103860000CF0EEC097FF1BC09BC2049709F483C104
:1038700097C28A35910509F409C244F48B31910548
:1038800009F4B8C14C9709F4F1C18AC28B3591058E
:1038900009F400C28C35910509F401C281C28091FE
:1038A000EB06813011F00C94D92C0E9427CC86EEC7
:1038B00094E00E94957E8091D60D83FD85C0209175
:1038C0007707309178074091790750917A07609196
:1038D000F2047091F3048091F4049091F5040F9434
:1038E0007223882309F470C08091D20781111BC014
:1038F000609135107091361080913710909138108A
:103900000F94E22B20914F02309150022150310947
:103910006217730744F40E9468DC84E89CE20E940A
:1039200064DB11E001C010E0209177073091780747
:103930004091790750917A076091F2047091F304F5
:103940008091F4049091F5040F94752A6B017C0129
:1039500020E030E0A9010F94D62C87FF04C0F7FACD
:10396000F094F7F8F09420914B0230914C02409182
:103970004D0250914E02C701B6010F94D82320E0AA
:1039800030E849ED53E40F94D62C18163CF40E940D
:1039900068DC85E69CE20E9464DB02C01123A1F092
:1039A0008091F2049091F304A091F404B091F50495
:1039B0008093770790937807A0937907B0937A075D
:1039C00082EF94E00E94D9B22AE037ED43E25CE353
:1039D000609156027091570280915802909159025D
:1039E0000F94D8236B017C016091530270915402B3
:1039F000072E000C880B990B0F9479239B01AC01C7
:103A0000C701B6010F94D82369837A838B839C8383
:103A10008E010F5F1F4F22EF34E04EEE54E06AEE4E
:103A200074E086EE94E00E9425CA80E1E6EEF4E0C0
:103A3000ABE6B7E001900D928A95E1F70C94D92C92
:103A40002091EB06213011F00C94D92C11E0029753
:103A500009F010E00E9427CC19821A821B821C8276
:103A60001D821E821F82188682E50E941ACC88233E
:103A700009F44BC00E9499CB6B017C0120E030E03F
:103A8000A9010F947223882309F455C080916B0714
:103A900090916C07A0916D07B0916E078CA39DA3C8
:103AA000AEA3BFA380916F0790917007A09171079B
:103AB000B09172078CA79DA7AEA7BFA78090E60420
:103AC0009090E704A090E804B090E9044090EA04E4
:103AD0005090EB046090EC047090ED04A50194010B
:103AE0006CA17DA18EA19FA10F94722381110C94D2
:103AF000E22CA30192016CA57DA58EA59FA50F9434
:103B000072238823C1F00C94E22C89E40E941ACC21
:103B1000882331F00E9499CB69837A838B839C83BD
:103B20008AE40E941ACC882331F00E9499CB6D83DD
:103B30007E838F83988720E030E0A90169817A81B4
:103B40008B819C810F94722381110C94962D20E01F
:103B500030E0A9016D817E818F8198850F94722359
:103B600081110C94962D0E9464DC8CED96E00E94ED
:103B700064DB0C94D92C80E50E941ACC882329F0B0
:103B80000E9451CB6B017C0103C0C12CD12C76016A
:103B900083E50E941ACC882361F00E9499CB20E033
:103BA00030E04AE754E40F94D8230F94E92B6B01DB
:103BB0007C010E9464AF80911716811105C060E0FE
:103BC00082EF96E00F948B100F949309C60ED71EC8
:103BD000E81EF91E0F949309DC01CB018C199D0995
:103BE000AE09BF09B7FD02C00C94D92C80E00E9439
:103BF000A733F0CF0E940BF98E010F5F1F4F882370
:103C000011F40C94BD2D82FF03C047ED52E002C0B9
:103C10004FEE52E081FF03C029ED32E002C02FEEEB
:103C200032E080FF03C08BED92E002C08FEE92E0A5
:103C30005F934F933F932F939F938F938BEF96E0D8
:103C40009F938F931F930F930F940A230E9468DC16
:103C5000C8010E94863360E0C8010F9442110FB67C
:103C6000F894DEBF0FBECDBF0C94D92C8091190FF4
:103C70008770873011F00C94CE2D60E08FE40E94A5
:103C800087D081110C94D92C0C94CE2D1092710FE9
:103C90000C94D92C8FE08093710F0C94D92C8091C7
:103CA000F703882351F1893009F076C065EBA62E21
:103CB00062E0B62E7BE6C72E77E0D72E00E010E05C
:103CC000F12CD5018D915D010E941ACC882369F0F9
:103CD0000E9499CBF6016083718382839383F3E022
:103CE000FF1202C011E001C001E0F39424E0C20E13
:103CF000D11C34E0F312E5CF44C045EBC42E42E0C2
:103D0000D42E5BE6E52E57E0F52E00E010E0312CD6
:103D1000D6018D916D010E941ACC882359F10E9421
:103D200099CB4B015C01F7012081318142815381A4
:103D30000F94752A2B013C012DEB37E346E855EB38
:103D40000F94D62C87FD0AC02DEB37E346E855E3E8
:103D5000C301B2010F947223181664F4F3E03F120A
:103D600002C011E001C001E0D7018D929D92AD9299
:103D7000BC9213973394B4E0EB0EF11CE4E03E12D6
:103D8000C7CF002319F00E94CD7F06C0112321F078
:103D900087E797E00E94D9B20E940F800C94D92C3B
:103DA0000E9404F80C94D92C8091F8039091F903A7
:103DB0008537910509F4AEC70CF046C18C349105E6
:103DC00009F47FC40CF05DC08931910509F488C302
:103DD0001CF58431910509F4C3C27CF4813191054D
:103DE00009F49DC22CF4029708F44FC20C94AF2C36
:103DF000429709F494C60C94AF2C8631910509F4CE
:103E0000E4C20CF4DEC28731910509F4E8C2489798
:103E100009F4FCC20C94AF2C8E31910509F4E1C376
:103E2000ACF48B31910509F46DC30CF45DC38C3196
:103E3000910509F4CEC34D9711F00C94AF2C8091ED
:103E400015138E7F809315130C94D92C8132910514
:103E500009F400C44CF48F31910509F4FFC3809735
:103E600009F4CFC30C94AF2C8934910509F416C41E
:103E70008B34910511F00C94AF2C0E94CF310C942F
:103E8000D92C8936910509F407C564F58335910568
:103E900009F43EC6BCF48E34910509F41AC40CF43E
:103EA00014C48135910509F41DC68235910511F0C0
:103EB0000C94AF2C8091710F8F7D80618093710F76
:103EC0000C94D92C8535910509F460C60CF427C6ED
:103ED0008C35910509F47DC68836910509F48BC4AB
:103EE0000C94AF2C8E36910509F43BC58CF48B36BF
:103EF000910509F428C50CF4E3C48C36910511F43E
:103F00000C94D92C8D36910509F49CC40C94AF2CDB
:103F10008137910509F47CC55CF48F36910509F46D
:103F200033C58037910511F40C94D92C0C94AF2C27
:103F30008237910509F4EBC68337910511F00C9493
:103F4000AF2C88E599E00E9464DB60E088E499E0AA
:103F50000E94484E60E083E399E00E94484E61E091
:103F60008BE090E20E94484E61E088E299E00E9476
:103F7000484E61E088E199E00E94484E60E08FE0A1
:103F800099E00E94484E61E085E099E00E94484E29
:103F900060E08BEF98E00E94484E61E083EA9BE08E
:103FA0000E94484E60E083EF98E00E94484E60E037
:103FB00085EE98E00E94484E61E087ED98E00E940F
:103FC000484E60E088EC98E00E94484E60E08AEB42
:103FD00098E00E94484E60E084EA98E00E94484ED3
:103FE00061E083E998E00E94484E61E084E898E04F
:103FF0000E94484E61E08DE798E00E94484E61E0E3
:1040000088E698E00E94484E61E08AE598E00E94C8
:10401000484E61E087E498E00E94484E60E08AE301
:1040200098E00E94484E61E085E398E00E94484E87
:1040300060E088E298E00E94484E60E084E198E009
:104040000E94484E0C94D92C8F32F1E09F0711F456
:104050000C94812A0CF073C0883C910509F424C7A4
:10406000A4F58D37910509F43AC5BCF4873791055D
:1040700009F49BC60CF45FC68837910509F498C60D
:104080008937910511F00C94AF2C109221051092F4
:1040900020050E94B9800C94D92C8139910509F42E
:1040A0008FC634F48C38910509F4D4C40C94AF2C29
:1040B0008B39910509F4EDC48E3B910511F00C94F8
:1040C000AF2C0E94E6430C94D92C833D910509F452
:1040D000C1C7ACF48B3C910509F453C734F4893C57
:1040E000910509F428C70C94AF2C8C3C910509F478
:1040F0006AC78D3C910509F49AC70C94AF2C8C3299
:10410000A1E09A0711F40C94362964F48C3D9105D2
:1041100011F40C94BA288D3D910511F40C94E1280A
:104120000C94AF2C8D32E1E09E0711F40C944B29D6
:104130008E32914011F40C943D2A0C94AF2C883FA0
:1041400031E0930711F40C94042B0CF04DC08D3921
:10415000B1E09B0711F40C946A2CDCF48039F1E097
:104160009F0711F40C94842A3CF48033914011F49D
:104170000C94CA290C94AF2C8A39A1E09A0711F447
:104180000C94D92C8C39914011F40C94872A0C94FE
:10419000AF2C853FE1E09E0711F40C94FE2A7CF4DD
:1041A000863E21E0920711F40C94922A843F9140BC
:1041B00011F00C94AF2C0E94488E0C94D92C863FA1
:1041C000A1E09A0711F40C94012B873F914011F064
:1041D0000C94AF2C61E083E50E9487D091E08927A1
:1041E0000F94020E0C94D92C8E3BE2E09E0711F442
:1041F0000C949D2BECF4883522E0920711F40C947A
:10420000212B3CF48C30924011F40C94142B0C9420
:10421000AF2C8B35B2E09B0711F40C94242B8D3B13
:10422000924011F00C94AF2C0E9454CD0C94D92CD8
:10423000873EF3E09F0711F40C945C2CCCF48C3691
:1042400033E0930711F40C94D92C803A934011F089
:104250000C94AF2C20918704309188049091151311
:10426000926090931513C9010E94BEEB0C94D92C57
:10427000883EB3E09B0711F40C948B2C893E93404D
:1042800011F40C948E2C0C94AF2C80E50E941ACC67
:10429000882329F00E9451CB6B017C0103C0C12C03
:1042A000D12C760183E50E941ACC882361F00E940C
:1042B00099CB20E030E04AE754E40F94D8230F94E0
:1042C000E92B6B017C010E9464AF8091870490917F
:1042D0008804009721F061E00F94421105C060E06E
:1042E0008DE197E00F948B108091F8039091F90382
:1042F000892B19F065E177E002C06DE077E020E0FE
:1043000030E046EF51E382E00E94E5DB40E0C70188
:10431000B6010E945D3A0E94C7F70C94D92C809197
:10432000F30384FF02C00C94812F8091F50387FF73
:1043300002C00C94812F8091F603837011F00C94CD
:10434000812F60E080E397E00F948B105F988A984C
:104350008091080181708093060112980C94D92CE9
:104360008091151383FF25C088E497E00E9464DBE9
:104370008091151383FF17C084E393E10E9488A501
:104380008BE1E4E3F3E1DE01119601900D928A9551
:10439000E1F760E070E0CE0101960E94FDF4CE01ED
:1043A00001960E94B4D089E397E00E9464DB0C94EC
:1043B000D92C0E9468DC89E597E00E9464DB0C94AC
:1043C000D92C0E94DEEE0C94D92C0E9494EA8091A4
:1043D0001513877F8062809315130C94D92CE0917C
:1043E0008704F09188048081882329F0803209F4C1
:1043F00010823196F8CF60E0809187049091880414
:104400000E9408EC1092270E0C94D92C83E50E9490
:104410001ACC882321F00E9461CB0E948D4784E54D
:104420000E941ACC8823A9F00E9461CB6B017C0109
:104430000E948782C0925B07D0925C07E0925D0782
:10444000F0925E07CD28CE28CF2819F081E0809326
:10445000700F8091700E8823F9F080E090E0A0EA60
:10446000B1E489839A83AB83BC831C8E1D8E1E8E20
:104470001F8E18A219A21AA21BA200E010E020E0D1
:10448000AE014F5F5F4FBE01645E7F4FCE018096ED
:104490000E940FDD0C94D92C0E94AB31882381F04F
:1044A0000E94A5EA0E94CF3181EB9FE00E944AEA78
:1044B0001092FB031092FC031092FD031092FE0376
:1044C00061E082E190E20E9473DB43E457E363E63C
:1044D00077E085E00E9402F90E94C7F70C94D92C7E
:1044E0000E9482CE0C94D92C8091151383FD02C0BA
:1044F0000C94D92C83E50E941ACC81110C949D2F29
:104500000C94D92C83E40E94CCCB8823C1F189E799
:1045100097E00E9464DB80917B14882339F1BE010F
:104520006F5F7F4F88E794E10E944FA48E010F5F79
:104530001F4FD8018D918D01882319F00E947B3285
:10454000F8CFCE0101960E9490EB80912E0F882328
:1045500089F080E20E947B320EE21FE0F801819137
:104560008F01882339F00E947B32F8CF8FE697E0E5
:104570000E9464DB8AE00E947B320C94D92C83E594
:104580000E941ACC882309F10E9475CB182F90E065
:10459000CD970CF01CE31093F4020F9493096B0178
:1045A0007C01212F30E0A8EEB3E00F94F529C60E70
:1045B000D71EE81EF91EC092F002D092F102E092DE
:1045C000F202F092F3020C94D92C0E941AEA0C9495
:1045D000D92C80918704909188040E94BEEB0C94A2
:1045E000D92C8091151383FD02C00C94D92C0E9404
:1045F000EAF780918704909188040E9468EE0C94F9
:10460000D92C8091151382FD0E9464AF80911513FF
:1046100083FD02C00C94D92C60E080E50E9487D015
:10462000182F682F80918704909188040E9408ECCD
:1046300083E50E941ACC882321F00E9461CB0E945E
:104640008D470E94A5EA11110C94D92C0E94CF31FC
:104650000C94D92C0E94BD460C94D92C0E945382F4
:104660006C8F7D8F8E8F9F8FBE016F5F7F4FCE01CE
:104670004C960E94DE4560E0CE0101960F944211F7
:104680000E9468DCBE016F5F7F4F88E897E00E9460
:1046900051DC8AE00E947B320C94D92C80E50E9488
:1046A000CCCB882311F40C94D92C0E9475CB90E0CC
:1046B0008536910510F084E690E08093270E0C94E7
:1046C000D92C0E94A2820C94D92C0E947DAE0C940D
:1046D000D92C60E070E083E50E9461CF8E349105B3
:1046E00031F40E94EEAE0E94C7F70C94D92C8BEEE9
:1046F00097E00E9464DB609110057091110582EED5
:1047000097E00E9426DC609112057091130585EDFB
:1047100097E00E9426DC6091100570911105809150
:10472000120590911305681B790B8091700F8150D1
:1047300021E030E0823010F020E030E0621B730BAB
:104740008AEC97E00E9426DC8AE00E947B328BEEA6
:1047500097E00E9464DB8091140590911505A0916B
:104760001605B09117058C8F9D8FAE8FBF8FBE0140
:104770006F5F7F4FCE014C960E94DE45BE016F5F9A
:104780007F4F8DEB97E00E9451DC8091180590914E
:104790001905A0911A05B0911B058C8F9D8FAE8FC6
:1047A000BF8FBE016F5F7F4FCE014C960E94DE45EA
:1047B000BE016F5F7F4F8DEA97E00E9451DC20E0E1
:1047C00030E04AE754E460911C0570911D0580912A
:1047D0001E0590911F050F94702BAB01BC0185E95C
:1047E00097E00E9433DC8DE60E947B328AE00E94D3
:1047F0007B320C94D92C8091D60D83FF02C00C948F
:10480000D92C0E942BCD87FF02C00C94D92C89E4AF
:104810000E941ACC882311F40C94A22F0E9475CB0D
:1048200090E01816190614F481E090E026E0289F25
:10483000F001299FF00D1124E150FA4E8081918101
:104840000C94AC2F8091D60D83FF02C00C94D92C10
:104850000E942BCDF82E87FF02C00C94D92C89E43E
:104860000E941ACC082F882311F40C94B52F0E94B3
:1048700075CB90E01816190614F481E090E026E05C
:10488000289FF001299FF00D1124E150FA4E8081FC
:10489000918110E00C94C52F0E942BCD182F87FD1D
:1048A0000AC085E49EE00E9464DB812F0E94C7A9B4
:1048B0008AE00E947B32F8A9F0931D0F0C946531B9
:1048C00080E50E9417F9F82E21E0281710F40C94C7
:1048D000D92C81E40E94CCCB882329F06091C007B9
:1048E000062F10E002C00FEF10E089E40E941ACCFE
:1048F000882399F00E9475CB90E01816190614F4DD
:1049000081E090E026E0289FF001299FF00D11241E
:10491000E150FA4E0481158108C083E50E941ACC4B
:10492000882319F00E9461CB8B01EF2DF0E0E05459
:10493000F84FB8010F3F110519F010F06FEF70E05C
:1049400060830C94D92C80E50E9417F9823010F016
:104950000C94D92CE82FF0E0E054F84F10820C941E
:10496000D92C8EE40E941ACC882311F40C94D92CF3
:104970000E9461CB609383047093840480938504C8
:10498000909386040C94D92C83E50E94CCCB882389
:1049900029F083E50E9417F98093D60D0E9468DC08
:1049A00088EF97E00E9464DB8091D60D882369F13F
:1049B0003DE4E32E3BE0F32E00E010E020E08091A8
:1049C000D60D90E0A0E0B0E0002E04C0B695A7950B
:1049D000979587950A94D2F780FF0EC0DD24D39473
:1049E000D20E222319F08CE20E947B32F7018591CE
:1049F00094910E9464DB2D2D0F5F1F4F32E0E30E78
:104A0000F11C05301105D9F6B5CD8DEB9EE2B0CD88
:104A100083E50E941ACC882371F00E9475CB282F61
:104A200030E02D3331051CF480930002C2C78CE3C3
:104A300080930002BEC70E9468DC4091000250E0F3
:104A400060E070E08FEF97E00E9415DC8AE00E9442
:104A50007B32AFC78091D60D83FDABC789E40E943E
:104A60001ACC882311F40C940E300E9475CB90E080
:104A70001816190614F481E090E026E0289FF00152
:104A8000299FF00D1124E150FA4E628173810C943C
:104A9000183083E50E941ACC882309F48AC70E9443
:104AA00075CB182F90E0CD970CF01CE31093F90212
:104AB0000F9493096B017C01212F30E0A8EEB3E045
:104AC0000F94F529C60ED71EE81EF91EC092F502F6
:104AD000D092F602E092F702F092F8026AC70E94C2
:104AE00082CE67C70E94259A0E947DAE0E9475AF54
:104AF0000E94E23168EE73E080E090E00E9440DBCB
:104B00000E94E73160E086E098E00F948B1051C777
:104B10008091710F8F7E80628093710F4AC783E509
:104B20000E941ACC8823E9F00F94930960934E07F2
:104B300070934F0780935007909351070E9499CB31
:104B400020E030E04AE754E40F94D8230F94E92B97
:104B50006093010270930202809303029093040217
:104B600028C78091F30384FF02C00C942B308091FE
:104B7000F50387FF02C00C942B308091F6038370FD
:104B800011F00C942B300E9475AF13C783E50E947F
:104B9000CCCB882309F40DC70F94930960934E077B
:104BA00070934F0780935007909351070E9499CBC1
:104BB00020E030E04AE754E40F94D8230F94E92B27
:104BC0006093FA027093FB028093FC029093FD02C3
:104BD000F0C60E942BCD87FDECC69091F30394FDA7
:104BE00004C09091F50397FF0AC095EBC92E92E09F
:104BF000D92E27EDE22E2DE0F22E10E009C0909183
:104C0000F603937091F7682F81E00E9416CBD1C60E
:104C1000D6018D916D010E941ACC882309F46DC0D4
:104C2000133009F063C00E9499CB4B015C0120E076
:104C300030E040EA51E40F94722387FF4EC0A50193
:104C400094016091F70D7091F80D8091F90D90919C
:104C5000FA0D0F94702B2B013C019B01AC0160916C
:104C6000A4077091A5078091A6079091A7070F94BC
:104C7000D8236093A4077093A5078093A607909309
:104C8000A707A30192016091070E7091080E809111
:104C9000090E90910A0E0F94D8236093070E70931B
:104CA000080E8093090E90930A0E6091B4077091DC
:104CB000B5078091B6079091B7070F947723A301AA
:104CC00092010F94D8230F94E92B6093B40770934B
:104CD000B5078093B6079093B7078092F70D90922F
:104CE000F80DA092F90DB092FA0D07C00E9499CB71
:104CF000F701648B758B868B978B1F5FF4E0EF0E4B
:104D0000F11C143009F084CF0E940EB452C60E94E8
:104D1000624E4FC68091870490918804009741F0BD
:104D2000DC012C91222321F060E00F94421141C656
:104D30000E94C7F73EC6009187041091880494E052
:104D4000F12C40E0915021F1F8018081282F2B7F38
:104D5000213421F421812133D9F407C08035C1F4F5
:104D6000818180538A3048F013C0813421F085342A
:104D700021F441E002C0FF24F39498012E5F3F4FDD
:104D800089012F5F3F4FF80180818032C9F3DACF6C
:104D900041110E9468DCFF2021F084E39AE00E9428
:104DA00064DBC8010E94863304C60E94968001C657
:104DB00081E080932105809320050E94B980F9C588
:104DC00060E070E083E50E9461CF823038F00E949D
:104DD00064DC88E39AE00E9464DBEBC58C01112758
:104DE00088E40E941ACC8823E1F00E9471CB8A3AB1
:104DF000910544F00E9471CB8530914034F40E94BB
:104E000071CB05C08AEA90E002C084E091E026E020
:104E1000209FF001219FF00D1124E150FA4E918363
:104E2000808382E40E941ACC8823D9F00E9471CB3F
:104E3000059744F00E9471CB8F36910534F40E949F
:104E400071CB05C085E090E002C08EE690E026E0E0
:104E5000209FF001219FF00D1124E150FA4E938321
:104E6000828386E40E941ACC882309F4A2C50E949A
:104E700071CB97FD09C00E9471CB8F3F910509F05E
:104E800034F40E9471CB05C080E090E002C08FEF47
:104E900090E026E0209FF001219FF00D1124E150C9
:104EA000FA4E9583848385C50E942BCD182F87FDEC
:104EB00080C500918D0F84E40E941ACC882311F4E0
:104EC0000C945C300E9499CB6B017C0120E030E0B7
:104ED000A9010F947223882341F124E01202F0010A
:104EE0001124E757F04FC082D182E282F38220E0A2
:104EF00030E0A9016091890F70918A0F80918B0F2A
:104F000090918C0F0F94722381110CC080E090E07F
:104F1000A0EEBFE38093890F90938A0FA0938B0F2D
:104F2000B0938C0F01E00C945C3080E080938D0F87
:104F30000E94BCAD3EC50E942BCD87FD3AC5B5EBA6
:104F4000EB2EB2E0FB2E07ED1DE087EEC82E8DE0C4
:104F5000D82ED7018D917D010E94CCCB882359F0AA
:104F60000E9499CB0F94E92BF801608371838283AF
:104F700093830E941DAF0C5F1F4FC016D10649F7E7
:104F800018C50E942BCD87FD14C5F5EBEF2EF2E07E
:104F9000FF2E07ED1DE0A7EECA2EADE0DA2ED701F9
:104FA0008D917D010E94CCCB882339F00E9499CB52
:104FB000F80164A375A386A397A30C5F1F4FC016C7
:104FC000D10669F7F6C48091F40387FF02C00C9400
:104FD00062308091F5038E7011F00C946230409134
:104FE0000B0E50910C0E60910D0E70910E0E8AE515
:104FF0009AE00E9433DC40910F0E5091100E6091A8
:10500000110E7091120E82E794E30E9433DC4091FE
:10501000130E5091140E6091150E7091160E8CE0C7
:1050200092E30E9433DC8AE00E947B32C2C480910A
:10503000F303827111F00C94A8308091F5038C7801
:1050400011F00C94A8308091F603837011F00C9449
:10505000A830AFC48091320290913302A091340203
:10506000B09135028CA39DA3AEA3BFA3409036029E
:1050700050903702609038027090390280903A0266
:1050800090903B02A0903C02B0903D02C0903E0246
:10509000D0903F02E0904002F090410280914202A5
:1050A00090914302A0914402B091450288A799A72C
:1050B000AAA7BBA78091460290914702A0914802FF
:1050C000B09149028CA79DA7AEA7BFA70E9468DC3C
:1050D0008AE79AE00E9464DB83E50E94CCCB8823B8
:1050E00021F00E9489CB8093300280913002882386
:1050F00019F081E497E102C084E599E00E9464DB45
:1051000082E79AE00E9464DB4CA15DA16EA17FA1C1
:1051100082E396E30E9433DCB301A2018BE396E2C3
:105120000E9433DCB501A4018FE296E20E9433DCD9
:1051300083E99EE20E9464DB8AE69AE00E9464DBD7
:10514000B701A60182E396E30E9433DC48A559A586
:105150006AA57BA58BE396E20E9433DC4CA55DA596
:105160006EA57FA58FE296E20E9433DC8AE00E9462
:105170007B321FC483E50E941ACC882331F00E9441
:1051800071CB90935402809353028091F3039091DA
:10519000F403A091F503B091F603892B8A2B8B2B96
:1051A00009F007C460915302709154028AE89AE0B2
:1051B0000E9444DC85E20E947B328AE00E947B32BE
:1051C000F8C30E942BCDF82E87FDF3C383E50E9420
:1051D0001ACC0F2D0F2C000C110B882361F10E94AB
:1051E00071CBF801EE0FFF1FEE5DFD4F91838083C1
:1051F000000F111F000F111FD801A55BBD4F7D01CE
:10520000BC01990F880B990B0F9479232AE037ED95
:1052100043E25CE30F94D823F801ED5AF84F208164
:105220003181428153810F94D823F70160837183C8
:1052300082839383BEC30E9468DC85E40E947B3234
:1052400080E38F0D0E947B32000F111FF801EE5D8D
:10525000FD4F608171818EE89AE00E9444DC85E216
:105260000E947B328AE00E947B32A3C364E071E03B
:1052700083E50E944ECF8C0168EE73E080E50E94CA
:105280004ECF8938F3E19F0710F088E893E1B80129
:105290000E94FC878EC385E40E9417F9811173C0B8
:1052A00080E50E94CCCB882351F00E9499CB60937B
:1052B0003C1070933D1080933E1090933F1089E412
:1052C0000E94CCCB882381F00E9499CB2CEA35EC4C
:1052D00047E25EE30F94D82360934010709341102F
:1052E000809342109093431084E40E94CCCB882397
:1052F00081F00E9499CB2CEA35EC47E25EE30F94F3
:10530000702B6093441070934510809346109093D7
:1053100047100E9468DC40913C1050913D10609114
:105320003E1070913F108EE99AE00E9433DC2CEA27
:1053300035EC47E25EE3609140107091411080913E
:105340004210909143100F94702BAB01BC018AE97D
:105350009AE00E9433DC2CEA35EC47E25EE3609190
:1053600044107091451080914610909147100F9411
:10537000D823AB01BC0186E99AE00E9433DC8AE0C5
:105380000E947B3216C30E9464DC82EA9AE00E948B
:1053900064DB0FC380E50E94CCCB882351F00E94D0
:1053A00099CB60937D0F70937E0F80937F0F9093C6
:1053B000800F89E40E94CCCB882381F00E9499CB96
:1053C0002CEA35EC47E25EE30F94D8236093810F1B
:1053D0007093820F8093830F9093840F84E40E94D4
:1053E000CCCB882381F00E9499CB2CEA35EC47E2A4
:1053F0005EE30F94702B6093850F7093860F8093FC
:10540000870F9093880F0E9468DC40917D0F509128
:105410007E0F60917F0F7091800F8EE99AE00E945D
:1054200033DC2CEA35EC47E25EE36091810F70914A
:10543000820F8091830F9091840F0F94702BAB019A
:10544000BC018AE99AE00E9433DC2CEA35EC47E2A1
:105450005EE36091850F7091860F8091870F909128
:10546000880F0F94D823AB01BC0186E99AE00E9413
:1054700033DC8AE00E947B329CC283E50E94CCCB65
:10548000182F882371F00E9499CB0F94E22B709310
:10549000500260934F0221E0672B09F020E0209337
:1054A000D20780E50E94CCCB882359F020914F028F
:1054B00030915002232B11F00E9489CB8093D207A8
:1054C00078C2111176C20E9468DC8DEC9AE00E94CD
:1054D00064DB8091D207882319F085E598E102C04A
:1054E00084EB9AE00E9464DB60914F02709150025D
:1054F0008CEB9AE00E9444DC88EB9AE00E9464DB2B
:1055000058C20E94B87755C20E9464AF52C28091BF
:10551000F303887809F087C68091F503867009F057
:1055200082C6AFC684E50E94CCCB8823A1F010923E
:10553000D8041092D9041092DA041092DB0410926D
:10554000DC048FEF0E9400DB61E070E084E50E94E4
:1055500061CF8093DC0483E50E94CCCB882321F0CB
:105560000E9471CB0E9400DB83E40E94CCCB882395
:1055700031F080910B02803210F40E94D4DA80E581
:105580000E94CCCB882331F00E9471CB803210F482
:105590000E94D4DA85E50E94CCCB882309F409C2A5
:1055A0000E9471CB803208F004C241E050E0082E26
:1055B00002C0440F551F0A94E2F740955095052EFE
:1055C000000C660B770B0091D8041091D904209140
:1055D000DA043091DB044023512362237323409388
:1055E000D8045093D9046093DA047093DB0490914B
:1055F0000B028913DEC11092D50DDBC10F94F40D9F
:10560000D8C10F949C0CD5C12093F5150E94338806
:105610001092F515882309F4CCC10E9468DC81E161
:105620009BE00E9464DBC5C18091151382FF04C01A
:10563000806480931513BDC183FFBBC10E94EAF74C
:10564000B8C10E9470CFB5C10E942BCD082F87FD35
:10565000B0C185E50E94CCCB8823B1F1E02E002EAD
:10566000000CFF080E9499CB4B015C0120E030E068
:10567000A9010F94D62C87FF04C0B7FAB094B7F8ED
:10568000B094C70153E0880F991F5A95E1F79C0128
:105690002A503A4E7901D9018D929D92AD92BC92D9
:1056A000139720E030E849ED53E4C501B4010F94AD
:1056B000D62C18164CF480E090E8A9EDB3E4F7017D
:1056C00080839183A283B3838CE40E94CCCB882314
:1056D00009F46FC1002E000C110B0E9499CB6B01D5
:1056E0007C0120E030E0A9010F94D62C87FF04C094
:1056F000F7FAF094F7F8F09420E030E849ED53E43D
:10570000C701B6010F94D62C980143E0220F331F36
:105710004A95E1F7F901EA50FA4E18162CF0C482C6
:10572000D582E682F78245C180E090E8A9EDB3E436
:1057300084839583A683B7833CC10E942BCD182F09
:1057400087FD37C18AE50E941ACC882349F040E0E2
:1057500050E0BA018AE50E94A1774B015C0106C0C6
:10576000812C912C90E2A92E91E4B92E412F64E076
:1057700083E00E94D6BB20E030E0A901C501B4015E
:105780000F94D62C18167CF580E090E0A0EAB0E4E7
:1057900089839A83AB83BC8320917307309174070C
:1057A0004091750750917607C501B4010F94762A90
:1057B0006B017C0120E030E048EC53E40F9472234D
:1057C00087FD06C0C12CD12C88ECE82E83E4F82E8E
:1057D000CC8EDD8EEE8EFF8EBE016F5F7F4FCE01D1
:1057E0004C960E94587F85E50E94CCCB882329F0F7
:1057F0000E9499CB6B017C010AC028E01202F001E3
:105800001124EA50FA4EC080D180E280F38020E07B
:1058100030E0A901C701B6010F94D62C87FF04C060
:10582000F7FAF094F7F8F094F7FAF094F7F8F094A8
:10583000C982DA82EB82FC8244E061E0CE0101960B
:105840000E94F0DE20E030E0A901C501B4010F9410
:10585000D62C18165CF580E090E0A0EAB0E48983CD
:105860009A83AB83BC83A501940160917307709107
:10587000740780917507909176070F94752A6B01D4
:105880007C0120E030E0A9010F94D62C18161CF002
:10589000C12CD12C7601CC8EDD8EEE8EFF8EBE011A
:1058A0006F5F7F4FCE014C960E94587F40E060E0D2
:1058B00089E00E94D6BB7DC081E08093EB06109208
:1058C0006C1660E083E50E9487D0811172C00E944F
:1058D0001C486FC083E50E94CCCB882339F00E941E
:1058E00089CB8093FE150E94A4D063C00E9468DC1F
:1058F0008CE19BE00E9464DB8091FE15882319F007
:1059000081E497E102C084E599E00E9464DB8AE0CB
:105910000E947B324EC00E940BD14BC00E9453822A
:105920006D3371058105910520F089E49BE00F94AA
:10593000231685E49BE00F94231684EE8093270EB4
:105940000E949CD00E94D3EE81E39BE00E9464DB26
:105950008EEF95E290932705809326052AC00E943A
:1059600004F827C00091F8031091F9030F949309EC
:1059700060934E0770934F078093500790935107A1
:105980000023B9F00E9468DC84E50E947B32B801F4
:105990007727072E000C880B990B0E94EF3280E2CC
:1059A0000E947B3282EA9AE00E9464DB02C00E947D
:1059B00004F83AA9311102C00E94D64788A9809301
:1059C0001D0F83C420E030E0A901C701B6010F9488
:1059D0007223881F8827881F181709F4A2C080E047
:1059E00090E0A0E8BFEB88A799A7AAA7BBA72CA126
:1059F0003DA14EA15FA1C501B4010F94752A20E01D
:105A000030E040E05FE30F94D8236CA37DA38EA326
:105A10009FA32CA53DA54EA55FA5C301B2010F9480
:105A2000752A20E030E040E05FE30F94D8232B019B
:105A30003C012CA13DA14EA15FA1CA01B9010F9467
:105A4000D8234B015C01A3019201C301B2010F9461
:105A5000D8239B01AC01C501B4010F94762A0F94A1
:105A6000242D4B015C019B01AC01C701B6010F94D1
:105A7000752A6CA77DA78EA79FA7A5019401C701D2
:105A8000B6010F94762A9B01AC016CA57DA58EA56D
:105A90009FA50F94D8236B017C0120E030E0A90181
:105AA0000F94D62C87FD07C0C701B6010F94242D93
:105AB0006B017C0103C0C12CD12C7601C301B20162
:105AC0009058A50194010F94702B28A539A54AA5DB
:105AD0005BA50F94D823A70196010F94D8232CA17E
