:100000000C941C220C944D220C944D220C944D22E5
:100010000C944D220C944D220C944D220C944D22A4
:100020000C944D220C944D220C944D220C944D2294
:100030000C944D220C944D220C944D220C944D2284
:100040000C944D220C946E820C944D220C944D22F3
:100050000C944D220C944D220C9492A80C941B9657
:100060000C944D220C9432430C941E430C944D225C
:100070000C944D220C944D220C944D220C944D2244
:100080000C9410420C944D220C944D220C944D2251
:100090000C943E420C9428430C944D220C944D2217
:1000A0000C944D220C944D220C94E2410C944D2260
:1000B0000C944D220C944D220C944D220C944D2204
:1000C0000C944D220C944D220C944D220C944D22F4
:1000D0000C944D220C944D220C944D220C944D22E4
:1000E0000C944D226D427F429142A242AA42D942D3
:1000F000AE42D942B242B642D942BA42BE42C242EE
:10010000CA42D942D44261437343854396439E43D6
:10011000CD43A243CD43A643AA43CD43AE43B2430E
:10012000B643BE43CD43C843539F2C9F2F9F569F3A
:10013000329F359F389F449F3B9F519F3E9F419FD9
:100140009E01480126013201A0013401C60172015D
:10015000B201C4016201A601CA01C00134014C010F
:100160004E0146018A017001A2019601CC015E0197
:100170009C01980138013A01820122018E012A0175
:100180005E0150016C01400128019001C2017E0115
:10019000C201C201C201C201C201C201C201C20147
:1001A000C201C201C201C201C201C201C201C20137
:1001B000C201C201C201C201C201C201C201C20127
:1001C000C201C2018801C201C201C201C201C20151
:1001D000C201C201C201BE01C201C201C201C2010B
:1001E000C201C201C201C201C201C2013E012E010F
:1001F000084AD73B3BCE016E84BCBFFDC12F3D6C8E
:1002000074319ABD56833DDA3D00C77F11BED9E4F3
:10021000BB4C3E916BAAAABE000000803F05A84CD3
:10022000CDB2D44EB93836A9020C50B9918688089F
:100230003CA6AAAA2ABE000000803F000D94FF3A07
:100240000D94DC0E0D940F440D9418620D94F5423C
:100250000D94154A0D9428440D942B2D0D94254A88
:100260000D94272D0D94F9420D943D430D94BE47F6
:100270000D94F1430D94FB430D94612F0D945E4A50
:100280000D9446440D94FB3A0D94B32A0D943843D3
:100290000D9406430D94FF040D9430430D943443A4
:1002A0000D9432440D9464300D946C2D0D944B5884
:1002B0000D9404050D94740B0D945C2A0D94504418
:1002C0000D94AE2A0D941C430D94C02D0D94D604AC
:1002D0000D94222A0D94D52D0D943C440D941F2D80
:1002E0000D94BE430D940E430D94FF050D94033BF6
:1002F0000D94BB470D94A92A0D94442A0D94544A99
:100300000D94C93D0D9405440D94D72A0D94B82A37
:100310000D944F4A0D94B9430D94C82D0D941E446D
:100320000D9437480D94073B0D94D53B0D94CD4368
:100330000D94E9430D94200D0D94E1430D94034376
:100340000D94FD420D94C3430D94742A0D942243E1
:100350000D94CE3B0D94F9040D94A42A0D94D60E61
:100360000D94E80E0D9414430D94AA3A0D94172A97
:100370000D9436620D948C2A0D94013E0D94294AF9
:100380000D942A430D9453480D9418430D940A4339
:100390000D94232D0D9426430D94D7430D94B84707
:1003A0004E414E494E495459494E46CDCCCC3D0A5A
:1003B000D7233C17B7D13877CC2B329595E6241F3D
:1003C000B14F0A000020410000C84200401C4620F6
:1003D000BCBE4CCA1B0E5AAEC59D7400407A10F3C9
:1003E0005A00A0724E18090010A5D4E80000E87663
:1003F00048170000E40B54020000CA9A3B000000BA
:10040000E1F505000080969800000040420F0000D2
:1004100000A08601000000102700000000E8030093
:100420000000006400000000000A0000000000015D
:1004300000000000002C76D888DC674F0823DFC15D
:10044000DFAE59E1B1B796E5E3E453C63AE6519918
:100450007696E8E6C28426EB898C9B62ED407C6F41
:10046000FCEFBC9C9F40F2BAA56FA5F490055A2AF8
:10047000F75C936B6CF9676DC11BFCE0E40D47FE04
:10048000F520E6B500D0ED902E03009435770500F9
:1004900080841E080000204E0A000000C80C333380
:1004A00033330F986E12831141EF8D2114893BE68F
:1004B0005516CFFEE6DB18D1844B381BF77C1D9018
:1004C0001DA4BBE424203284725E228100C9F12481
:1004D000ECA1E53D27434F4D4D554E49434154490D
:1004E0004F4E0044525952554E004552524F5253AE
:1004F00000494E464F004543484F0047322F47338F
:100500002062616420706172616D65746572730A46
:100510000047322F47332062616420706172616D41
:1005200065746572730A00536C6565702E2E2E001B
:100530005A2050726F626520506173742042656466
:100540000A005A2050726F62652050617374204215
:100550006564004D3131372050726F6265206661ED
:10056000696C65642E205265776970696E672E0A22
:100570004732380A4731322050302053313220542C
:10058000300070726F62655F7265776970650047F1
:100590003239205265747279696E670050726F62E9
:1005A000696E67204661696C6564004D31313720A2
:1005B000426564206C6576656C696E67206661696A
:1005C0006C65642E0A4730205A31300A4D33303082
:1005D0002050323520533838300A4D3330302050D7
:1005E00035302053300A4D333030205032352053CF
:1005F0003838300A4D333030205035302053300AEF
:100600004D3330302050323520533838300A4D3396
:100610003030205035302053300A473420533100D9
:1006200070726F62655F6661696C6564004D31313F
:100630003720426564206C6576656C696E6720645E
:100640006F6E652E00205A3A200020593A20004251
:10065000656420583A20004D65736820706F696E9C
:1006600074206F7574206F662072616E67650A0072
:100670004D302053746F70004D312053746F7000F3
:10068000436C69636B20746F20526573756D652EC2
:100690002E2E004E6F204D6F76652E00456E642025
:1006A00066696C65206C6973740A00426567696EDF
:1006B0002066696C65206C6973740A004E6F206D4A
:1006C000656469610A00526573756D696E672053D0
:1006D0004400286E6F2066696C652900437572724C
:1006E000656E742066696C653A2000534420707210
:1006F000696E74696E67206279746520004E6F744C
:10070000205344207072696E74696E670A005072DB
:10071000696E742074696D653A20000A53746174BF
:10072000733A2046696C616D656E742075736564FB
:100730003A20002C204C6F6E67657374206A6F62DC
:100740003A2000546F74616C2074696D653A200022
:1007500053746174733A20002C204661696C65649F
:100760003A20002C2046696E69736865643A20005F
:100770005072696E74733A200053746174733A2036
:10078000006F6B006F666600F604F104EA04E30490
:10079000D50444454255473A004D3131332053008A
:1007A00043522D3130205633204F46462E002F2FF6
:1007B000004D31343520533C696E6465783E206FBE
:1007C0007574206F662072616E67652028302D3148
:1007D000290A00205200416363656C657261746987
:1007E0006F6E3A20500046523A0020466C6F773ABE
:1007F0002000206F7574206F662072616E67650A35
:1008000000536572766F20003A200020536572769F
:100810006F200020643A0020693A0020703A0049B5
:100820006E76616C69642065787472756465720AAD
:100830000020643A0020693A0020703A006469732D
:1008400000656E0043290A0061626C656420286DB2
:10085000696E2074656D702000436F6C642065784C
:10086000747275646573206172652000203B2048B6
:100870006F73742068616E646C696E6720006D6DC3
:1008800000203B2044697374616E636520004669F3
:100890006C616D656E742072756E6F757420004D9D
:1008A00034323120696E636F7272656374207061D7
:1008B00072616D657465722075736167650A004DBC
:1008C00065736820706F696E74206F7574206F6631
:1008D0002072616E67650A00454550524F4D204FAA
:1008E0004B0A00506F7765722D6C6F7373207265C1
:1008F000636F7665727920004572726F722077722D
:100900006974696E6720746F20454550524F4D21C0
:100910000A0053544F505045442E20005072696EC7
:100920007465722073746F707065642064756520DF
:10093000746F206572726F72732E2046697820740E
:100940006865206572726F7220616E6420757365D0
:10095000204D39393920746F207265737461727457
:100960002E202854656D70657261747572652069FA
:10097000732072657365742E20536574206974202A
:1009800061667465722072657374617274696E67F2
:10099000290A004E6F20436865636B73756D20777D
:1009A000697468206C696E65206E756D6265722C65
:1009B000204C617374204C696E653A20004E6F20A4
:1009C000436865636B73756D2077697468206C6923
:1009D0006E65206E756D6265722C204C617374209B
:1009E0004C696E653A2000636865636B73756D20B2
:1009F0006D69736D617463682C204C617374204C55
:100A0000696E653A20004C696E65204E756D6265B1
:100A100072206973206E6F74204C617374204C696E
:100A20006E65204E756D6265722B312C204C6173A2
:100A300074204C696E653A20004D313130005365A9
:100A40007269616C20737461747573206D69736D64
:100A5000617463680A0053442072656164206572A2
:100A6000726F720A002121204B494C4C2063617542
:100A7000736564206279204B494C4C206275747414
:100A80006F6E2F70696E0A002121204B494C4C205B
:100A900063617573656420627920746F6F206D7572
:100AA000636820696E6163746976652074696D6539
:100AB000202D2063757272656E7420636F6D6D6199
:100AC0006E643A2000627573793A207061757365BF
:100AD0006420666F7220696E7075740A00627573A7
:100AE000793A2070617573656420666F7220757342
:100AF00065720A00627573793A2070726F6365736C
:100B000073696E670A004D656469612052656D6F97
:100B1000766564004D6564696120496E7365727421
:100B20006564004D3130303053007061757365007D
:100B30004D363030002066696C616D656E745F7291
:100B4000756E6F7574200066696C616D656E745F9B
:100B500072756E6F757420540046696C616D656EB8
:100B60007452756E6F757420540025697300256981
:100B70006D20256973002569682025696D20256928
:100B80007300256964202569682025696D20256921
:100B90007300256979202569642025696820256905
:100BA0006D2025697300436F6F6C696E672E2E2E62
:100BB0000048656174696E672E2E2E00452025530E
:100BC0000042656420436F6F6C696E672E2E2E00A5
:100BD0004265642048656174696E672E2E2E00237D
:100BE000646566696E652044454641554C545F0016
:100BF000626564004B6420004B6920004B7020004C
:100C0000504944204175746F74756E652066696E35
:100C10006973686564212050757420746865206C60
:100C2000617374204B702C204B6920616E64204BE3
:100C30006420636F6E7374616E74732066726F6D7F
:100C40002062656C6F7720696E746F20436F6E66EB
:100C5000696775726174696F6E2E680A0050494445
:100C6000204175746F74756E65206661696C65648A
:100C7000212074696D656F75740A005049442041E4
:100C800075746F74756E65206661696C656421208A
:100C900054656D706572617475726520746F6F2034
:100CA000686967680A00204B643A2000204B693A63
:100CB0002000204B703A200020436C6173736963FD
:100CC00020504944200A00204E6F206F76657273D1
:100CD000686F6F740A002054753A2000204B753AF3
:100CE0002000206D61783A2000206D696E3A200066
:100CF00020643A200020626961733A200050494420
:100D0000204175746F74756E652073746172740A16
:100D100000504944204175746F74756E652066619A
:100D2000696C6564212054656D70657261747572BB
:100D30006520746F6F20686967680A005049442015
:100D40004175746F74756E65005049442041757427
:100D50006F74756E65206661696C656421204261FF
:100D600064206865617465722069640A0045727266
:100D70003A207574663820666F6E74206E6F74202A
:100D8000696E697469616C697A65642E0045727276
:100D90003A207574663820666F6E74206E6F74200A
:100DA000696E697469616C697A65642E0045727256
:100DB0003A207574663820666F6E74206E6F7420EA
:100DC000696E697469616C697A65642E00000C0F44
:100DD00000FE07022503BB017FFE08FE08FE050892
:100DE0000806000040F0C8888898781005080806B2
:100DF0000000C0F88888888888F805050506000185
:100E00002030F830200508080600002070F8202067
:100E10002020E00509090600FF2070A8A8B88888EE
:100E20007020070505070001D86C366CD805090944
:100E30000600FFF8A88888888888A8F8050A0A06A6
:100E400000FE205050505088A8A888700303030665
:100E5000000340A040FFFFFFFFFFFFFFFFFFFFFF7A
:100E6000FFFFFFFFFFFFFFFFFFFFFF000000060582
:100E7000FF01070706020080808080800080030356
:100E800003060105A0A0A005060606000050F850C4
:100E900050F8500509090600FF2070A8A07028A886
:100EA0007020050707060000C8C810204098980564
:100EB000070706000040A0A040A8906801030306B1
:100EC00002058080800309090601FF2040408080E0
:100ED000804040200309090601FF80404020202077
:100EE00040408005070706000020A8702070A82059
:100EF0000505050600012020F82020020303060155
:100F0000FFC04080050101060003F802020206014D
:100F100000C0C005070706000008101020404080F0
:100F2000050707060000708898A8C888700307079F
:100F300006010040C040404040E0050707060000B1
:100F4000708808102040F8050707060000F8081010
:100F50003008887005070706000010305090F81020
:100F600010050707060000F880F0080888700507DC
:100F700007060000304080F08888700507070600EB
:100F800000F80810102020200507070600007088D0
:100F900088708888700507070600007088887808C0
:100FA0001060020505060100C0C000C0C0020606B0
:100FB0000601FFC0C000C0408003050506010120F6
:100FC00040804020050303060002F800F8030505F1
:100FD0000601018040204080050707060000708858
:100FE00010202000200507070600007088B8A8B868
:100FF0008070050707060000708888F888888805D3
:101000000707060000F04848704848F00507070643
:10101000000070888080808870050707060000F057
:101020004848484848F0050707060000F88080F067
:101030008080F8050707060000F88080F080808037
:1010400005070706000070888080988870050707EC
:10105000060000888888F88888880307070601004A
:10106000E04040404040E00507070600003810100F
:10107000101090600507070600008890A0C0A0909F
:1010800088050707060000808080808080F80507BB
:101090000706000088D8A888888888050707060002
:1010A000008888C8A8988888050707060000708807
:1010B0008888888870050707060000F08888F08017
:1010C000808005070706000070888888A89068055A
:1010D0000707060000F08888F0A09088050707063B
:1010E000000070888070088870050707060000F807
:1010F00020202020202005070706000088888888F7
:101100008888700507070600008888888850502066
:1011100005070706000088888888A8A850050707E3
:1011200006000088885020508888050707060000C0
:1011300088885020202020050707060000F80810A6
:10114000204080F80309090601FFE080808080804C
:101150008080E0050707060000804040201010084E
:101160000309090601FFE020202020202020E005BF
:1011700003030600052050880501010600FEF80360
:1011800003030601058040200505050600007008E0
:101190007888780507070600008080F0888888F046
:1011A00005050506000070808088700507070600A9
:1011B000000808788888887805050506000070888A
:1011C000F08070050707060000304840E0404040CE
:1011D0000507070600FE70888888780870050707ED
:1011E0000600008080F088888888030707060100D1
:1011F0004000C0404040E00409090601FE100030F4
:10120000101010109060050707060000808088907D
:10121000E09088030707060100C04040404040E0DE
:10122000050505060000D0A8A8A8A8050505060024
:1012300000B0C88888880505050600007088888881
:10124000700507070600FEF0888888F08080050793
:10125000070600FE788888887808080505050600D6
:1012600000B0C88080800505050600007880700801
:10127000F00507070600002020F8202020180505AB
:10128000050600008888889868050505060000881E
:10129000888850200505050600008888A8A8500504
:1012A000050506000088502050880507070600FE47
:1012B00088888850204080050505060000F8102029
:1012C00040F80309090601FF2040404080404040AB
:1012D000200109090602FF80808080808080808054
:1012E0000309090601FF804040402040404080053E
:1012F000030306000248A890FF446966663A20206E
:10130000200046726F6D5374703A005374657070AC
:1013100065723A00556E4C6576656C3A004C6576A0
:10132000656C65643A005261773A20202020000AFB
:101330004C6F676963616C3A00436F756E7420454A
:101340003A004361703A004D4541545041434B00CF
:10135000434F4F4C45525F54454D504552415455B3
:101360005245004348414D4245525F54454D50451A
:1013700052415455524500424142595354455050F0
:10138000494E470041524353004D4F54494F4E5F21
:101390004D4F44455300544845524D414C5F5052C7
:1013A0004F54454354494F4E004C4F4E475F4649BA
:1013B0004C454E414D45004155544F5245504F52BA
:1013C000545F53445F5354415455530053445F5743
:1013D00052495445005245504541540053444341FD
:1013E00052440050524F4D50545F535550504F523D
:1013F0005400484F53545F414354494F4E5F434F4D
:101400004D4D414E445300454D455247454E43597D
:101410005F50415253455200434153455F4C494749
:1014200048545F4252494748544E45535300544F25
:1014300047474C455F4C494748545300534F465427
:10144000574152455F504F574552004255494C4411
:101450005F50455243454E54004C4556454C494E0D
:10146000475F44415441005A5F50524F4245005239
:10147000554E4F5554004155544F4C4556454C0020
:101480005052494E545F4A4F420050524F475245C6
:101490005353004155544F5245504F52545F544599
:1014A0004D50004155544F5245504F52545F504F8C
:1014B0005300564F4C554D455452494300454550F5
:1014C000524F4D0042494E4152595F46494C455F8B
:1014D0005452414E534645520053455249414C5F88
:1014E000584F4E5F584F4646004649524D5741525D
:1014F000455F4E414D453A4D61726C696E20322E0A
:10150000302E392E312D46695A692D424C2D3131FC
:101510003532303020284A756C203230203230325B
:10152000312031383A33373A34352920534F555228
:1015300043455F434F44455F55524C3A6769746871
:1015400075622E636F6D2F4D61726C696E466972A4
:101550006D776172652F4D61726C696E2050524FCC
:10156000544F434F4C5F56455253494F4E3A312EDC
:1015700030204D414348494E455F545950453A4308
:10158000522D31302056332045585452554445523F
:101590005F434F554E543A3120555549443A63659F
:1015A0006465326132662D343161322D343734381E
:1015B0002D396231322D6335356336326633363735
:1015C00066660A0050726F6265204F6666736574C6
:1015D000205A0050726F6265204F666673657420F2
:1015E0005A00290A0020746F20003F5A206F75743A
:1015F000206F662072616E6765202800290A00202E
:10160000746F20003F59206F7574206F66207261DF
:101610006E676520282D00290A0020746F20003F86
:1016200058206F7574206F662072616E6765202880
:101630002D0050726F6265204F6666736574205886
:10164000006F6B0A00526573656E643A20004D3876
:101650003400446F6E65207072696E74696E672025
:1016600066696C650A004D3737004D3331004361C0
:101670006E6E6F74206F70656E2073756264697230
:101680002000554E4C4F41442046494C414D454E5B
:1016900054004C4F41442046494C414D454E540066
:1016A00046494C414D454E54204348414E47450024
:1016B0003F0043616E63656C204F626A656374002E
:1016C0004E4F005945530043616E63656C204F6275
:1016D0006A656374203D004D61696E0053746F77D5
:1016E000004465706C6F790053572D4D6F64650031
:1016F00053656C662D546573740052657365740090
:10170000426564004E6F7A7A6C650046616E2053C4
:101710007065656400436F6E6669677572617469B0
:101720006F6E00526573746F7265204465666175F3
:101730006C7473004C6F61642053657474696E67D8
:10174000730053746F72652053657474696E6773A8
:101750000050726568656174202420436F6E6600D6
:10176000506F776572204F7574616765004F6666CC
:10177000004F6E0052756E6F75742053656E736FF7
:101780007200424C546F7563680050726F6265203E
:101790005A204F666673657400416476616E6365B6
:1017A000642053657474696E6773004D61696E00DF
:1017B0004D37303220542564004D363030204230D1
:1017C00020542564004D373032203B2564004D37CE
:1017D000303120542564004D373032004D373031E0
:1017E000004D363030204230004D61696E00436F4D
:1017F0006E74696E7565004F6666004F6E005275B7
:101800006E6F75742053656E736F720050757267DA
:1018100065206D6F726500524553554D45204F5000
:1018200054494F4E533A005052494E54205041555E
:101830005345440020204E6F7A7A6C653A20004868
:101840006F6D696E67204661696C6564006F7065D5
:101850006E00545249474745524544003A200066BD
:10186000696C616D656E74007A5F70726F6265009D
:101870007A5F6D696E00795F6D696E00785F6D6982
:101880006E005265706F7274696E6720656E647366
:10189000746F70207374617475730A0020746F6FB5
:1018A000206C6F6E6720657874727573696F6E2037
:1018B00070726576656E7465640A0020636F6C648F
:1018C00020657874727573696F6E207072657665C5
:1018D0006E7465640A00486F6D6520257325732555
:1018E000732046697273740000000000000000005D
:1018F000000000005761726E696E673A20486F6D94
:10190000696E672042756D702044697669736F72E5
:10191000203C20310A0002020400009B4300009B8F
:10192000430000C8430000A0400000A040000000A9
:1019300040FFFFFF000000010000000100008000E8
:10194000555555000000400033333300AAAA2A0041
:101950004992240000002000C7711C0099991900C9
:10196000D1451700555515003BB11300244912000D
:1019700011111100000010000F0F0F00E3380E00CE
:1019800043790D00CCCC0C00C3300C00E8A20B0056
:1019900064210B00AAAA0A00703D0A009DD8090024
:1019A000427B090092240900DCD3080088880800E3
:1019B0001042080000000800F0C1070087870700F8
:1019C00075500700711C07003EEB0600A1BC060025
:1019D0006990060066660600703E06006118060003
:1019E00017F4050074D105005BB00500B290050046
:1019F000627205005555050078390500B81E0500CE
:101A0000050505004EEC040087D40400A1BD0400C8
:101A100090A7040049920400C17D0400EE6904000F
:101A2000C7560400444404005C320400082104004A
:101A300041100400000004003FF00300F8E0030040
:101A400026D20300C3C30300CCB503003AA80300A9
:101A50000A9B0300388E0300C08103009F750300BA
:101A6000D0690300505E03001D5303003448030097
:101A7000913D03003333030016290300381F030090
:101A800097150300300C0300030303000BFA020058
:101A900049F10200BAE802005CE002002DD8020021
:101AA0002DD0020059C80200B0C0020031B90200B6
:101AB000DAB10200AAAA0200A0A30200BC9C0200A4
:101AC000FA9502005C8F0200DF8802008282020029
:101AD000457C02002776020027700200436A02005C
:101AE0007C640200D05E02003F590200C85302002D
:101AF0004732362043616E63656C65640047323659
:101B00002048656174696E67204E6F7A7A6C650053
:101B10004732362048656174696E6720426564000B
:101B200057616974696E6720666F722068656174B9
:101B300075702E0A004669786564204C656E67747E
:101B400068205072696D6500446F6E65205072693F
:101B50006D696E67004D616E75616C207072696DA4
:101B6000696E672E2E2E004C656176696E67204780
:101B70003236003F53706563696669656420582C8E
:101B80005920636F6F7264696E617465206F75743C
:101B9000206F6620626F756E64732E0A003F2852B4
:101BA0002965706561742076616C7565206E6F744F
:101BB00020706C61757369626C653B206D75737420
:101BC000206265206174206C6561737420312E0A77
:101BD000003F537065636966696564206E6F7A7A49
:101BE0006C652074656D7065726174757265206EC8
:101BF0006F7420706C61757369626C652E0A003FAA
:101C00005370656369666965642066696C616D65BA
:101C10006E742073697A65206E6F7420706C6175C4
:101C20007369626C652E0A003F537065636966696B
:101C30006564207072696D65206C656E67746820DC
:101C40006E6F7420706C61757369626C652E0A002A
:101C50003F537065636966696564206E6F7A7A6C5C
:101C6000652073697A65206E6F7420706C6175737E
:101C700069626C652E0A003F526574726163746913
:101C80006F6E204D756C7469706C696572206D752E
:101C90007374206265207370656369666965642E7C
:101CA0000A003F5370656369666965642052657414
:101CB00072616374696F6E204D756C7469706C69C4
:101CC0006572206E6F7420706C61757369626C65EB
:101CD0002E0A003F537065636966696564206C6114
:101CE00079657220686569676874206E6F7420700A
:101CF0006C61757369626C652E0A0043292E0A00B7
:101D00003F53706563696669656420626564207429
:101D1000656D7065726174757265206E6F74207088
:101D20006C61757369626C65202834302D00473210
:101D300036207374617274696E672E2E2E0A004FFE
:101D400046460A00466164652048656967687420F4
:101D500000426564204C6576656C696E67200046BC
:101D600061696C656420746F20656E61626C6520CA
:101D7000426564204C6576656C696E670A00496E41
:101D800076616C6964206D6573682E0A0024F4D452
:101D90003050C38E20C2A24017828B7011127A91EC
:101DA0000D816CD90AA861E108C7586607615143E3
:101DB000061E4B5D05C145A7041A411104093D9853
:101DC00003713931034036DB0265339102D430545C
:101DD00002802E1D02632CEE01752AC501B028A0D9
:101DE00001102781018F2564012B244B01E022344F
:101DF00001AC211F018D200D01801FFC00841EED10
:101E000000971DDF00B81CD200E61BC600201BBCDB
:101E100000641AB200B219A8000A19A0006A189941
:101E200000D117910040178B00B516840031167E43
:101E300000B31579003A157300C7146F0058146A7F
:101E400000EE1366008813630025135E00C7125B63
:101E5000006C12570015125400C111510070114F3F
:101E60000021114B00D61049008D10470046104448
:101E70000002104200C00F4000800F3E00420F3CA5
:101E800000060F3B00CB0E3800930E37005C0E357A
:101E900000270E3400F30D3200C10D3100900D30DB
:101EA00000600D2E00320D2D00050D2C00D90C2BDD
:101EB00000AE0C2900850C29005C0C2700350C278E
:101EC000000E0C2600E80B2400C40B2400A00B23FA
:101ED000007D0B23005A0B2100390B2100180B2029
:101EE00000F80A1F00D90A1E00BB0A1E009D0A1D29
:101EF00000800A1D00630A1C00470A1B002C0A1BF5
:101F000000110A1A00F7091A00DD091900C409199D
:101F100000AB091900920917007B09180063091723
:101F2000004C09160036091600200916000A09158A
:101F300000F5081500E0081400CC081400B80814D7
:101F400000A4081400900813007D0812006B081309
:101F50000058081200460812003408110023081126
:101F6000001208110001081100F0071000E007102E
:101F700000D0071000C0071000B0070F00A1071025
:101F80000091070E0083070F0074070F0065070E0E
:101F90000057070E0049070E003B070D002E070EE5
:101FA0000020070D0013070D0006070D00F9060CB1
:101FB00000ED060D00E0060C00D4060C00C8060C6F
:101FC00000BC060C00B0060C00A4060B0099060C21
:101FD000008D060B0082060B0077060B006C060BCB
:101FE0000061060A0057060B004C060A0042060A6A
:101FF0000038060A002E060A0024060A001A060AFD
:10200000001006090007060A00FD050900F405098D
:1020100000EB050900E2050900D9050900D0050912
:1020200000C7050900BE050900B5050800AD050893
:1020300000A50509009C050800940508008C05080A
:1020400000840508007C050800740508006C05077D
:1020500000650508005D050700560508004E0507E8
:10206000004705070040050800380507003105074F
:10207000002A050700230507001C050600160507B2
:10208000000F0507000805060002050700FB04060F
:1020900000F5040700EE040600E8040600E2040769
:1020A00000DB040600D5040600CF040600C90406C0
:1020B00000C3040600BD040600B7040600B1040511
:1020C00000AC040600A6040600A00405009B04065C
:1020D0000095040500900406008A040500850405A7
:1020E00000800406007A04050075040500700405EC
:1020F000006B04050066040500610405005C04052E
:102100000057040500520405004D0405004804056D
:1021100000430405003E0404003A040500350405AC
:1021200000300404002C04050027040400230405E7
:10213000001E0404001A040400160405001104041F
:10214000000D040400090405000404040000040454
:1021500000FC030400F8030400F4030400F003048B
:1021600000EC030400E8030400E4030400E00304BB
:1021700000DC030400D8030400D4030400D00304EB
:1021800000CC030400C8030300C503030024F404C7
:10219000D9201BC40C5C0E9804C4095F026507714A
:1021A00001F405F900FB04B30048048700C103698A
:1021B000005803550003034500BE023A0084023173
:1021C0000053022A002902250004022000E4011C19
:1021D00000C8011900AF0117009801140084011311
:1021E00000710110006101100051010E0043010D4A
:1021F0000036010B002B010B0020010B001501091B
:10220000000C01090003010800FB000800F30008AE
:1022100000EB000700E4000600DE000600D8000620
:1022200000D2000600CC000500C7000500C2000572
:1022300000BD000400B9000400B5000400B10004B2
:1022400000AD000400A9000400A5000300A20003E3
:10225000009F0004009B000300980003009500020B
:102260000093000300900003008D0002008B000328
:102270000088000200860002008400030081000242
:10228000007F0002007D0002007B00020079000256
:102290000077000100760002007400020072000165
:1022A00000710002006F0002006D0001006C00026E
:1022B000006A000100690002006700010066000179
:1022C000006500010064000200620001006100017D
:1022D00000600001005F0002005D0001005C000181
:1022E000005B0001005A0001005900010058000184
:1022F0000057000100560001005500010054000184
:102300000053000000530001005200010051000181
:1023100000500001004F0001004E0000004E00017F
:10232000004D0001004C0001004B0000004B00017B
:10233000004A000100490001004800000048000177
:102340000047000100460000004600010045000073
:10235000004500010044000100430000004300016B
:102360000042000000420001004100000041000165
:1023700000400001003F0000003F0001003E00005F
:10238000003E0001003D0000003D0001003C000057
:10239000003C0000003C0001003B0000003B00014D
:1023A000003A0000003A0001003900000039000145
:1023B000003800000038000000380001003700003D
:1023C0000037000100360000003600000036000132
:1023D0000035000000350000003500010034000029
:1023E000003400000034000100330000003300001E
:1023F0000033000100320000003200000032000112
:102400000031000000310000003100010030000008
:102410000030000000300001002F0000002F0000FD
:10242000002F0000002F0001002E0000002E0000F1
:10243000002E0001002D0000002D0000002D0000E6
:10244000002D0001002C0000002C0000002C0000DA
:10245000002C0001002B0000002B0000002B0000CE
:10246000002B0001002A0000002A0000002A0000C2
:10247000002A0001002900000029000000290000B6
:1024800000290000002900010028000000280000A9
:10249000002800000028000000280001002700009C
:1024A000002700000027000000270000002700018F
:1024B0000026000000260000002600000026000084
:1024C0000026000100250000002500000025000076
:1024D0000025000000250000002500010024000068
:1024E000002400000024000000240000002400015B
:1024F0000023000000230000002300000023000050
:10250000002300000023000000230001002200003F
:102510000022000000220000002200000022000033
:102520000022000100210000002100000021000025
:102530000021000000210000002100000021000116
:10254000002000000020000000200000002000000B
:1025500000200000002000000020000000200001FA
:10256000001F0000001F0000001F0000001F0000EF
:10257000001F0000001F0000001F0001001E0000DF
:10258000001E0000001E0000001E00000039300088
:10259000003325000087190000B00F0000DB0800A1
:1025A00000BD040000740200003F01000000FE00B6
:1025B00003FF8007C7C00701E00000E00000F00053
:1025C00000700400700E00701F00703F80F00E005D
:1025D000E00F01E007C7C003FF8000FE0000FE001F
:1025E00003FF8007C7C00F01E00E00E03F80F01F2F
:1025F00000700E00700400700000700000F0000019
:10260000E00701E007C7C003FF8000FE000E000ED8
:10261000000E000E000E000E000E000E007FC03FE8
:10262000801F000E00040004000E001F003F807F8A
:10263000C00E000E000E000E000E000E000E000E6A
:1026400000FFFFFF7F80FFC0FFC0FFC07F807F8053
:10265000FFC0FFC0FFC03F001E000C0050726F6241
:1026600065205A204F66667365740052756E6F75EB
:10267000742044697374206D6D004C6F6164206D2B
:102680006D00556E6C6F6164206D6D0046696C2E37
:10269000204469612E004520696E206D6D5E330017
:1026A0004D333033205531204525692053256900AD
:1026B000504944204175746F74756E65202A00502E
:1026C00049442D44202A005049442D49202A0050D5
:1026D00049442D50202A00200820466163740020C0
:1026E00008204D6178002008204D696E004F666615
:1026F000004F6E004175746F74656D7000000000CE
:1027000000000000600000000000FC00000FF0006E
:1027100000000007E00000000001861FC0187000E4
:1027200000000000603C0C000001830C60103000D1
:1027300000000000603C0C000001830C30303000D1
:102740000000000060000C000000030C18300000C6
:102750000000000060003F0F3C00030C0C6001DF34
:102760000FE0FE00601C1C061800060C0C6000F355
:1027700018318300600C0C0318001E0C0C6000E084
:1027800030398300600C0C033000030C0C6000C077
:1027900030380F00600C0C033000018C0C6000C05E
:1027A0003FF8FB00600C0C033000018C0C6030C063
:1027B00030018300600C0C01F001818C0C6030C092
:1027C00030018300600C0C00E001818C183030C0B7
:1027D00018318300600C0C40E001838C301860C01D
:1027E0000C6187C0E01C0CC06000C30C600FC3F01C
:1027F00007C0FFC7FC7F0781C0007E1FC00000002C
:1028000000000000000000070000000000000000C1
:10281000000000000000000700000000006D617271
:102820006C696E66772E6F726700322E302E392EED
:10283000312D46695A692D424C2D313135323030B7
:10284000001FFFFFFFFFFFFF600000000001FF40CF
:102850000000000000FF8000000000007F83CF0028
:10286000000C303F87FF80000C301F867980000C01
:10287000000F8C30C7838C30E78C30CFC7CC31F35E
:102880008C30DCECEC33B98C30D86C6C33198C3078
:10289000D06C0C33198C30D86C0C33198C30DC6C48
:1028A0000E3B198C30CF7C079F198C30C77C038F6F
:1028B0001940000000000002600000000000061F38
:1028C000FFFFFFFFFFF870012C0190012701B0010D
:1028D0002201C0011D01F001180110021301300294
:1028E0000E016002090190020401C002FF00000312
:1028F000FA004003F5008003F000D003EB00200451
:10290000E6007004E100E004DC004005D700C005EB
:10291000D2004006CD00D006C8008007C3003008B2
:10292000BE00F008B900C009B400B00AAF00B00B97
:10293000AA00D00CA500000EA000500F9B00C010F4
:1029400096005012910000148C00C0158700B0173B
:102950008200B0197D00D01B7800001E730040205B
:102960006E0090226900F024640040275F009029E7
:102970005A00E02B5500102E500020304B00103232
:102980004600E033410090353C0010373700703886
:102990003200A0392D00B03A2800A03B2300603C53
:1029A0001E00103D1900903D1400103E0F00703EB7
:1029B0000A00C03E0500003F0000403FFBFF803F93
:1029C000F6FFC03FF1FF2020506C616E6E657242D1
:1029D000756666657242797465733A2000204672A6
:1029E0006565204D656D6F72793A2000436F6D709B
:1029F000696C65643A204A756C203230203230327E
:102A0000310A00204C6173742055706461746564F0
:102A10003A20323032312D30372D3230207C204177
:102A20007574686F723A2046695A692062617365ED
:102A300064206F6E204161726F6E204A7573742C32
:102A400020435231302D56330A004D61726C696E4D
:102A500020322E302E392E312D46695A692D424CA6
:102A60002D3131353230300A0020536F6674776172
:102A700072652052657365740A002057617463683B
:102A8000646F672052657365740A002042726F7725
:102A90006E206F75742052657365740A0020457846
:102AA0007465726E616C2052657365740A00506FB4
:102AB00077657255700A0073746172740A00473248
:102AC000385859004D31303031006572726F7220C4
:102AD00077726974696E6720746F2066696C650A25
:102AE00000446F6E6520736176696E672066696C5D
:102AF000652E0A004D323900456E6473746F707331
:102B000000255320256320256320256320256300AD
:102B100020503A00205A3A0020593A0020583A00F2
:102B2000656E6473746F7073206869743A20005026
:102B300061726B696E672E2E2E00000057616974FA
:102B400020666F720066696C616D656E74206368E3
:102B5000616E676500746F207374617274005761F1
:102B6000697420666F720066696C616D656E7420B1
:102B7000756E6C6F616400004E6F7A7A6C652068C8
:102B8000656174696E6700506C656173652077617B
:102B900069742E2E2E000050726573732062757456
:102BA000746F6E00746F2068656174206E6F7A7A3E
:102BB0006C650000496E736572742066696C616DA6
:102BC000656E7400616E6420707265737320627547
:102BD00074746F6E00746F20636F6E74696E7565C8
:102BE000005761697420666F720066696C616D657B
:102BF0006E74206C6F6164000050726573732042C4
:102C00007574746F6E00746F20726573756D6520D6
:102C10007072696E7400005761697420666F72206B
:102C20007072696E7400746F20726573756D652EB5
:102C30002E2E00005761697420666F720066696C01
:102C4000616D656E7420707572676500003E2000CE
:102C5000256C642E25696D00457874727564656411
:102C600020546F74616C003E20004C6F6E6765737A
:102C700074204A6F622054696D65003E2000546FD5
:102C800074616C205072696E742054696D650043E4
:102C90006F6D706C65746564003A20005072696EE7
:102CA0007420436F756E74003A2000313230003565
:102CB000004245443A204550434F53203130304B79
:102CC0000052756E617761792057617463683A20AC
:102CD0004F4E004D61782054656D700032373500DD
:102CE0004D696E2054656D7000350045313A2045C0
:102CF00050434F53203130304B00505355004765FF
:102D00006E657269630050726F746F636F6C00312F
:102D10002E3000426175640031313532303000436D
:102D20007265616C69747933442052414D5053008F
:102D300042696C696E656172204C6576656C696E7E
:102D400067004578747275646572730031006D6157
:102D5000726C696E66772E6F72670043522D313048
:102D600020563300323032312D30372D32300032A0
:102D70002E302E392E312D46695A692D424C2D3177
:102D80003135323030004D61726C696E00507269BD
:102D90006E74657220537461747300546865726D4B
:102DA0006973746F727300426F61726420496E665A
:102DB0006F005072696E74657220496E666F004DC7
:102DC00061696E004D313030300053746F702050A7
:102DD00072696E7400526573756D65205072696E0C
:102DE0007400506F776572204F7574616765003F9E
:102DF000004261636B0053746F70004E6F204D652D
:102E0000646961005072696E742066726F6D204D46
:102E100065646961004368616E6765204D6564693A
:102E200061004D3231004368616E67652046696C10
:102E3000616D656E7400436F6E666967757261746B
:102E4000696F6E0054656D706572617475726500AE
:102E50004D6F74696F6E00526573756D65205072A9
:102E6000696E740041626F7574205072696E74658A
:102E7000720043616E63656C204F626A6563740023
:102E800054756E650053746F70205072696E7400D3
:102E90005061757365205072696E7400496E666F7B
:102EA0002053637265656E004572723A204D415839
:102EB00054454D50004D415854454D502074726951
:102EC000676765726564004572723A204D494E54D9
:102ED000454D50004D494E54454D50207472696720
:102EE000676572656400544845524D414C20525507
:102EF0004E4157415900546865726D616C2052759E
:102F00006E6177617900202F002042403A00204016
:102F10003A0020573A0020573A00496E76616C69B2
:102F2000642065787472756465720A005654726123
:102F300076204D696E00566D696E00566D61782081
:102F40004500566D6178205A00566D617820590011
:102F5000566D6178205800416D6178204500416DC3
:102F60006178205A00416D6178205900416D617887
:102F7000205800412D54726176656C00412D5265D8
:102F8000747261637400416363656C0056652D4A19
:102F900065726B00565A2D4A65726B0056592D4A60
:102FA00065726B0056582D4A65726B0050726F62E5
:102FB00065205A204F66667365740050726F6265B3
:102FC0002059204F66667365740050726F626520E9
:102FD00058204F666673657400452073746570737E
:102FE0002F6D6D005A2053746570732F6D6D0059ED
:102FF0002053746570732F6D6D0058205374657085
:10300000732F6D6D00416476616E63656420536556
:103010007474696E6773003F0043616E63656C0092
:10302000496E697400496E697469616C697A6520DA
:10303000454550524F4D0046696C616D656E740098
:1030400054656D7065726174757265005374657056
:10305000732F6D6D0050726F6265204F66667365E9
:103060007473004A65726B00416363656C657261DD
:1030700074696F6E0056656C6F6369747900436F95
:103080006E66696775726174696F6E005A20566169
:103090006C756500496E646578205900496E6465F9
:1030A0007820580053746F72652053657474696E8C
:1030B0006773004C6F61642053657474696E677345
:1030C0000050726F6265205A204F66667365740007
:1030D0004661646520486569676874004F666600EC
:1030E0004F6E00426564204C6576656C696E6700C2
:1030F00045646974204D657368004C6576656C2085
:10310000426564004732394E0047323900417574D8
:103110006F20486F6D65004D6F74696F6E002121DF
:103120002053544F502063616C6C6564206265636A
:1031300061757365206F6620424C546F756368201B
:103140006572726F72202D207265737461727420C3
:1031500077697468204D3939390A00212120535488
:103160004F502063616C6C656420626563617573A8
:1031700065206F6620424C546F75636820657272DB
:103180006F72202D20726573746172742077697478
:1031900068204D3939390A002F2F616374696F6EC9
:1031A0003A0070726F6D70745F00656E6400486FF6
:1031B00074656E6420746F6F20636F6C640A0053D3
:1031C000656E64204D31303820746F2072657375E0
:1031D0006D650A00496E736572742066696C616D75
:1031E000656E7420616E642073656E64204D3130AD
:1031F000380A0052656865617420446F6E6500523C
:103200006568656174696E672E2E2E00526568656B
:103210006174004865617465722054696D656F75ED
:10322000740053656E64204D31303820746F20680F
:10323000656174206E6F7A7A6C650A004E6F7A7AD7
:103240006C65205061726B656400706175736564B4
:1032500000506175736500726573756D6564005229
:103260006573756D696E6700FFFDFCFAF8F6F4F2A0
:10327000F0EEECEAE9E7E5E3E1E0DEDCDAD9D7D528
:10328000D4D2D0CFCDCBCAC8C7C5C3C2C0BFBDBCC6
:10329000BAB9B7B6B4B3B2B0AFADACAAA9A8A6A537
:1032A000A4A2A1A09E9D9C9A999897959493929080
:1032B0008F8E8D8B8A8988878684838281807F7EAA
:1032C0007D7B7A797877767574737271706F6E6DB5
:1032D0006C6B6A696867666564636261605F5E5DA6
:1032E0005C5B5A5958585756555453525150504F89
:1032F0004E4D4C4B4A4A4948474646454443424254
:1033000041403F3E3E3D3C3B3B3A3938383736350D
:1033100035343332323130302F2E2E2D2C2B2B2AB8
:103320002929282727262525242323222121202057
:103330001F1E1E1D1C1C1B1B1A19191818171616E8
:10334000151514131312121111100F0F0E0E0D0D6F
:103350000C0C0B0A0A0909080807070606050504EC
:10336000040303020201000000009B4300009B4392
:103370000000C84300000000000000000000000042
:1033800053657474696E67732053746F726564005B
:10339000290A002062797465733B20637263200000
:1033A00053657474696E67732053746F726564201B
:1033B0002800220A00556E6B6E6F776E20636F6D6A
:1033C0006D616E643A2022002042002050006F6B35
:1033D0000043522D31302056332052656164792EDE
:1033E000005072696E74696E672E2E2E00507269DD
:1033F0006E74205061757365640020453A00205A50
:103400003A0020593A00583A0020746F6F206C6FD0
:103410006E6720657874727573696F6E207072655F
:1034200076656E7465640A0020636F6C642065784D
:1034300074727573696F6E2070726576656E7465EF
:10344000640A005072696E742066726F6D204D655B
:103450006469610050726F62696E67204661696CD1
:10346000656400205A3A200020593A2000426564E1
:1034700020583A200073686F7700627574746F6E1D
:1034800000626567696E0044697361626C655275BC
:103490006E6F75740050757267654D6F7265005080
:1034A000617573656400436F6E74696E7565004C79
:1034B0006F61642046696C616D656E7420540049CB
:1034C0006E736572742066696C616D656E742061DF
:1034D0006E642073656E64204D3130380A00426599
:1034E0006400456E636C6F73757265002568753A8C
:1034F00025303268750025303268753A25303268DB
:103500007500202020202020200020202020001FC7
:10351000E02010201020101020102020102010304B
:10352000300840048003001FE03FF03FF03FF01FF1
:10353000E01FE03FF03FF03FF00FC0078003003F87
:10354000FFF038007030FC3020FC10207810203064
:10355000102C00D02E31D02F7BD02F7BD02E31D00D
:103560002C00D020301020781020FC1030FC303897
:1035700000703FFFF03FFFF0380070318630238746
:10358000102787902F87D02F03D02030102078105D
:103590002078102030102F03D02F87D0278790233A
:1035A00087103186303800703FFFF01FFFF81FFF93
:1035B000F80410400208200208200410400820806F
:1035C0001041001041000820800410400000001F3E
:1035D000FFF81FFFF8000000001E0000000021009F
:1035E000000000271DC08C002721219200412120CE
:1035F00092008E21CE9200902120920110212092E3
:1036000001201D21CC02200000000410011300083D
:10361000100114801008011080200400A30047F25C
:1036200000A08043E2004480200400430018D8003A
:103630000000198400000021FC0000003F005072CF
:103640006F62696E6720506F696E74002553202584
:10365000692F2569002E0A002F0050726F62696E73
:1036600067206D65736820706F696E742000202874
:1036700044525952554E2900473239204175746FD2
:1036800020426564204C6576656C696E67003F205A
:10369000284C2C522C462C4229206F7574206F66C2
:1036A00020626F756E64732E0A003F28562965727A
:1036B000626F7365206C6576656C20696D706C61F6
:1036C000757369626C652028302D34292E0A0042FA
:1036D0006164205A2076616C75650A004E6F206225
:1036E000696C696E65617220677269640A0044657D
:1036F00076696174696F6E0025533A202573004620
:10370000696E6973686564210A003A207A3A20007C
:10371000206F662000476F696E6720746F3A2058EB
:103720000043570A00206469723A0020616E676C9A
:10373000653A005374617274207261646975733AFA
:10374000004D343820506F696E740025533A20259F
:10375000642F256400506F736974696F6E696E67BA
:10376000207468652070726F62652E2E2E0A003FED
:103770004C656773206F66206D6F76656D656E743E
:1037800020696D706C61757369626C652028302DDD
:103790003135292E0A003F2028582C5929206F75D1
:1037A00074206F6620626F756E64732E0A0050720B
:1037B0006F6265206F7574206F6620626F756E642E
:1037C00073003F53616D706C652073697A65206E7C
:1037D0006F7420706C61757369626C652028342D7C
:1037E0003530292E0A004D3438205A2D50726F6220
:1037F00065205265706561746162696C69747920D5
:10380000546573740A003F2856296572626F7365A8
:10381000206C6576656C20696D706C61757369628A
:103820006C652028302D34292E0A005374616E6493
:1038300061726420446576696174696F6E3A200034
:103840002052616E67653A2000204D61783A200071
:10385000204D696E3A2000205369676D613A20005F
:103860004D65616E3A200000002200250028002BE3
:10387000002E003100340002010000050108010B98
:103880000100002100240027002A002D0030003311
:103890000001010000040107010A010505050507F3
:1038A0000508080808020202020A0A0808040404BB
:1038B00004010101010101010103030303030303E7
:1038C00003040707070C0C0C0C0C0C0C0C02020276
:1038D0000206060606060606060B0B0B0B0B0B0B69
:1038E0000B01021020200808102040102040800208
:1038F0000102010804020101020408102040808036
:1039000040201008040201800402018040201008B9
:103910000402010804020101020408102040800191
:10392000020408102040805072656865617420248C
:1039300020456E64005072656865617420242042E1
:1039400065640054656D70657261747572650043DD
:103950006F6F6C646F776E0050726568656174207C
:10396000240046616E205370656564207E004265C8
:1039700064004E6F7A7A6C65004D61696E0050721A
:103980006F6265205A204F666673657400466C6FDF
:10399000770046616E205370656564207E00426545
:1039A00064004E6F7A7A6C65005370656564004DF3
:1039B00061696E0043616E6E6F74206F70656E207A
:1039C0007375626469722000534420496E697420E3
:1039D0004661696C0053442063617264206F6B0A16
:1039E000006F70656E526F6F74206661696C6564FC
:1039F0000A00766F6C756D652E696E69742066615C
:103A0000696C65640A004E6F2053442063617264E0
:103A10000A000A4D3234004D3233202573002E0A3D
:103A2000006F70656E206661696C65642C20466964
:103A30006C653A200046696C652073656C6563743B
:103A400065640A002053697A653A200046696C650E
:103A5000206F70656E65643A2000454E44205355D2
:103A600042524F5554494E450A002220706F730050
:103A70002220706172656E743A2200535542524F93
:103A80005554494E452043414C4C20746172676542
:103A9000743A220053756263616C6C204F766572D4
:103AA000666C6F77004578636565646564206D6159
:103AB0007820535542524F5554494E452064657005
:103AC00074683A002E0A0044656C6574696F6E2054
:103AD0006661696C65642C2046696C653A20004615
:103AE000696C652064656C657465643A002F617566
:103AF000746F25632E670057726974696E6720744E
:103B00006F2066696C653A200066726573680064B0
:103B10006F696E67002066696C653A20004E6F77AA
:103B2000200048617264636F646564204465666167
:103B3000756C742053657474696E6773204C6F6183
:103B40006465640A003B20003A0A0020204D3630AC
:103B500033200020440020204D34313220530046D1
:103B6000696C616D656E742072756E6F757420730B
:103B7000656E736F723A002055004C0046696C61A7
:103B80006D656E74206C6F61642F756E6C6F61640F
:103B9000206C656E677468733A0020204D383531AB
:103BA0002058005A2D50726F6265204F666673650B
:103BB000740020204D343133205300506F776572EC
:103BC0002D4C6F7373205265636F766572793A007E
:103BD00020440020490020204D3330342050002064
:103BE000440020490020204D3330312050005049FE
:103BF000442073657474696E67733A002046002030
:103C0000480020204D3134352053004D61746572D9
:103C100069616C2068656174757020706172616D96
:103C200065746572733A00204A00202047323920BB
:103C30005720490020204D34323020530041757404
:103C40006F20426564204C6576656C696E673A004A
:103C500020580020530020204D32303520420041B2
:103C60006476616E6365643A20423C6D696E5F7391
:103C700065676D656E745F74696D655F75733E2011
:103C8000533C6D696E5F66656564726174653E2064
:103C9000543C6D696E5F74726176656C5F666565D4
:103CA00064726174653E20583C6D61785F785F6A2C
:103CB00065726B3E20593C6D61785F795F6A657211
:103CC0006B3E205A3C6D61785F7A5F6A65726B3E2D
:103CD00020453C6D61785F655F6A65726B3E0020D0
:103CE000540020520020204D3230342050004163D7
:103CF00063656C65726174696F6E2028756E697496
:103D0000732F7332293A20503C7072696E745F6170
:103D10006363656C3E20523C726574726163745FCC
:103D2000616363656C3E20543C74726176656C5FC0
:103D3000616363656C3E0020204D323031205800B5
:103D40004D6178696D756D20416363656C65726165
:103D500074696F6E2028756E6974732F7332293AF7
:103D600000204500205A0020590020204D323033D9
:103D70002058004D6178696D756D206665656472C7
:103D8000617465732028756E6974732F73293A0006
:103D900053746570732070657220756E69743A0093
:103DA00020440020204D32303020530020446973DD
:103DB00061626C65640A0046696C616D656E7420B1
:103DC00073657474696E67733A0020204D3134391D
:103DD0002043203B20556E69747320696E20436533
:103DE0006C736975730A0020286D6D2900202047C7
:103DF0003231202020203B20556E69747320696E7B
:103E0000206D6D00454550524F4D206461746173C3
:103E1000697A65206572726F722E0A00290A002085
:103E200062797465733B2063726320002073746F42
:103E30007265642073657474696E6773207265744B
:103E4000726965766564202800202863616C63755B
:103E50006C6174656429210A0020213D20004545DC
:103E600050524F4D20435243206D69736D6174630E
:103E700068202D202873746F7265642920002053F8
:103E8000697A653A2000496E6465783A20000080BE
:103E90003B4400803B44000070410000964200001B
:103EA000A0420000A0420000C843EC11BF43D0076D
:103EB0000000D00700006400000088130000204DBF
:103EC00061726C696E3D563833290A00454550527F
:103ED0004F4D2076657273696F6E206D69736D61E9
:103EE0007463682028454550524F4D3D005741525C
:103EF0004E494E4721204C6F77205A204A65726BFD
:103F0000206D6179206C65616420746F20756E7717
:103F1000616E746564207061757365732E0A00208C
:103F20004D393220580020204D61783A2000200081
:103F300020204D696E3A2000536F667420656E64D0
:103F400073746F70733A20004D323453256C64548F
:103F5000256C64004739322E3945257300473146B8
:103F600025640047315A25734636303000473158B2
:103F700025735925734633303030004D313036507B
:103F80002569532569004D313039532569004D327B
:103F90003030442573004739322E395A2573004D8D
:103FA0003432305325635A25730047323852305823
:103FB000590047315A257346363030004739322E82
:103FC000395A2573004739322E394530004D31308A
:103FD00039532569004D313930532569004D34324C
:103FE00030205330205A300020496E76616C69646D
:103FF00020657874727564657220003F00537461A7
:104000007274205072696E740043616E63656C0057
:104010005072696E740043616E6E6F7420656E74C9
:104020006572207375626469723A2000022E2E0058
:104030004D61696E002100486F74656E6420746F75
:104040006F20636F6C64004261636B0050726F633A
:10405000656564004F6666004F6E00536F6674209E
:10406000456E6473746F7073004D6F74696F6E008A
:1040700044697361626C6520537465707065727316
:10408000004D3834004D34382050726F6265205432
:10409000657374004732384F0A4D34382050313040
:1040A00000426564204C6576656C696E6700486FF8
:1040B0006D65205A004732385A00486F6D652059A7
:1040C000004732385900486F6D6520580047323834
:1040D00058004175746F20486F6D65004732380095
:1040E0004D61696E007C3C3E5E2B3D3F2F5B5D3B2E
:1040F0002C2A225C006E6F74696669636174696F53
:104100006E20006E6F74696669636174696F6E20FA
:104110000063616E63656C005072696E7420416269
:104120006F72746564004469736D697373005549F7
:104130002041626F72746564004D323520500A4D23
:10414000323400526573756D6500554920506175B4
:1041500073650050617573696E672E2E2E0072654F
:1041600073756D65004D323400454550524F4D20FA
:1041700056657273696F6E204572726F72004545A5
:1041800050524F4D20496E646578204572726F72AF
:1041900000454550524F4D20435243204572726FA7
:1041A00072003F0049676E6F7265005265736574F7
:1041B00000496E697469616C697A652045455052A1
:1041C0004F4D005045544700504C410000000A0B31
:1041D00002090C0D0E080703040100000000000096
:1041E00000000000000000000000000000000000CF
:1041F000000000000000000012111000000000008C
:1042000000000000000000000000000000000000AE
:104210000000004D6F76652025736D6D004D6F7643
:104220006520302E316D6D004D6F766520316D6DDE
:10423000004D6F76652031306D6D004D6F766520D5
:1042400041786973004578747275646572004D6FCA
:104250007665205A004D6F76652059004D6F766562
:10426000205800C841C3414368616E6765204669B4
:104270006C616D656E7400556E6C6F61642046698B
:104280006C616D656E74004C6F61642046696C6191
:104290006D656E7400507265686561742043757356
:1042A000746F6D005072656865617420240042610E
:1042B000636B00506C6561736520526573657400B3
:1042C0005052494E5445522048414C5445440025D3
:1042D000533A20255300706F7765726F6666004B06
:1042E000494C4C45442E20005072696E7465722012
:1042F00068616C7465642E206B696C6C282920637E
:10430000616C6C6564210A0053544F505045442E33
:1043100020005072696E7465722073746F707065DE
:10432000642064756520746F206572726F72732EDD
:104330002046697820746865206572726F7220610A
:104340006E6420757365204D39393920746F207281
:104350006573746172742E202854656D7065726186
:10436000747572652069732072657365742E2053AD
:104370006574206974206166746572207265737457
:10438000617274696E67290A006563686F3A004557
:1043900072726F723A004F4646004F4E0042696C8F
:1043A000696E656172204C6576656C696E67204741
:1043B0007269643A0A0020436F756E7420583A009F
:1043C00042656400453100626564002C2073797396
:1043D00074656D2073746F70706564212048656129
:1043E0007465725F49443A200048656174696E677C
:1043F000204661696C65640048656174696E672078
:104400006661696C6564004D3131322053687574A2
:10441000646F776E00202D20496E76616C69642090
:104420006578747275646572206E756D6265722050
:10443000210A0000B801240111241FBECFEFD1E2F0
:10444000DEBFCDBF00E00CBF15E0A0E0B2E0E6E7C4
:10445000F5EE02E00BBF02C007900D92A630B10747
:10446000D9F729E1A6E0B5E001C01D92A135B20758
:10447000E1F712E2CBE1D2E200E006C021970109A8
:10448000802FFE010F945D6FCA31D10780E00807CD
:10449000A9F70F94775A0D94AA720C9400002F92EA
:1044A0003F924F925F926F927F928F929F92AF92C4
:1044B000BF92CF92DF92EF92FF920F931F93CF9311
:1044C000DF93CDB7DEB7E4970FB6F894DEBF0FBE2B
:1044D000CDBF8CAB30900D1021E020930D1080915A
:1044E0005C068D3409F495C3843511F40C94FD33C6
:1044F000873411F00C940F3480915A0690915B062A
:104500008B31910509F41DC1B0F48430910530F46C
:104510002091B9088230910570F137C0853191053D
:1045200011F40C9411348A31910509F406C10497F1
:1045300009F06BC3C3C08A32910509F4FFC148F486
:104540008D319105B1F008F417C14E9709F479C186
:104550005CC38B35910509F4D1C28C35910509F402
:10456000D2C28A35910509F050C310920B050C9404
:10457000113414E04FC1233010F40C9411340F9413
:10458000E4210E948D6C0C941134233010F40C94AF
:10459000113411E0029709F010E00F94E421198220
:1045A0001A821B821C821D821E821F82188682E54F
:1045B0000E943FBF882309F44BC00E94BABE6B0122
:1045C0007C0120E030E0A9010F948468882309F47D
:1045D00055C080912E0990912F09A0913009B0917A
:1045E000310988A799A7AAA7BBA780913209909102
:1045F0003309A0913409B09135098CA79DA7AEA7C6
:10460000BFA78090F70F9090F80FA090F90FB0908F
:10461000FA0F4090FB0F5090FC0F6090FD0F7090D0
:10462000FE0FA501940168A579A58AA59BA50F9405
:10463000846881110C943134A30192016CA57DA58D
:104640008EA59FA50F9484688823C1F00C94313403
:1046500089E40E943FBF882331F00E94BABE69837B
:104660007A838B839C838AE40E943FBF882331F046
:104670000E94BABE6D837E838F83988720E030E0EE
:10468000A90169817A818B819C810F948468811151
:104690000C94E53420E030E0A9016D817E818F81AA
:1046A00098850F94846881110C94E5340F9485509B
:1046B0008BEF94E00F94C24F0C94113480E50E946C
:1046C0003FBF882329F00E94BAF46B017C0103C02C
:1046D000C12CD12C760183E50E943FBF882361F075
:1046E0000E94BABE20E030E04AE754E40F94E96843
:1046F0000F94AF706B017C010E9428D08091BF178E
:10470000811105C060E087E295E00F946C3D0F9445
:104710009144C60ED71EE81EF91E0F949144DC0189
:10472000CB018C199D09AE09BF09B7FD02C00C94DD
:10473000113480E00E944E39F0CF0E940B790C9426
:10474000113487E00E94327381110C9411348CE093
:10475000E5E1F4E0DE01119601900D928A95E1F712
:1047600060E070E080E50F948628BE016F5F7F4FA8
:104770000F942D0A0C94113487E00E94BF6B8111B5
:104780000C94063580915D0690915E06A0915F06BF
:10479000B09160062EE0B695A795979587952A95D6
:1047A000D1F780FF02C00C9411340C94063560E000
:1047B0008FE40E94F67881113CC080915D06909153
:1047C0005E06A0915F06B091600695FF04C08CED77
:1047D00090E40E94A65D87E00E943273811129C097
:1047E0000E94D4F8882329F1115011F40C949E36BC
:1047F00020E030E046E251E46FE875E085E00E9499
:1048000029C561E082E895E00E9406C283E595E053
:104810000E94A65D0F9491446093CC087093CD08DC
:104820008093CE089093CF0880913617882329F281
:10483000BECF0E94F4C48DE296E00E94A65D0C9467
:1048400011340091381410913914D8012D913D91F3
:104850004D915C9160912E0970912F0980913009E2
:10486000909131090F94666FAB01BC0188E50E94FD
:10487000D07869837A838B839C83F8012481358186
:1048800046815781609132097091330980913409D2
:10489000909135090F94666FAB01BC0189E50E94C8
:1048A000D0786D837E838F839887BE016B5F7F4F47
:1048B000CE0101960E94D073882311F40C94113418
:1048C00080E00E9444C70E94396F61E085E40E9445
:1048D000F678182F21E0482FBE016B5F7F4FCE0185
:1048E00001960E94A5E36B017C019B01AC010F9432
:1048F0001572811119C049815A816B817C818FE4C5
:1049000096E00F9463504D815E816F8178858AE4D3
:1049100096E00F946350B701A60185E496E00F94EA
:1049200063508AE00E9449390E94206F113011F4CF
:104930000E94BAF80E94C1710C9411348091B90898
:10494000833010F40C94113489E40E943FBFE82EA8
:10495000882321F00E94B7BE082F01C000E08AE43E
:104960000E943FBFF82E882321F00E94B7BE182F67
:1049700001C010E0EE2011F0053020F4FF2041F0DE
:10498000153030F087E596E00F94C24F0C94113447
:1049900080E1EEE2F9E0A7EFBFE001900D928A9589
:1049A000E1F7EE2019F1602F000F770B880B990BC0
:1049B0000F948A682091E20F3091E30F4091E40F49
:1049C0005091E50F0F94E9682091EA0F3091EB0FB9
:1049D0004091EC0F5091ED0F0F94666F6093F70FBD
:1049E0007093F80F8093F90F9093FA0FFF2019F14D
:1049F000612F110F770B880B990B0F948A68209108
:104A0000E60F3091E70F4091E80F5091E90F0F94B6
:104A1000E9682091EE0F3091EF0F4091F00F509127
:104A2000F10F0F94666F6093FB0F7093FC0F8093F0
:104A3000FD0F9093FE0F60E080E50E94F6788823DA
:104A4000C1F1EE20D1F0E0913814F09139142081B9
:104A50003181428153816091F70F7091F80F8091FD
:104A6000F90F9091FA0F0F94656F6093F70F7093A1
:104A7000F80F8093F90F9093FA0FFF20D1F0E09197
:104A80003814F09139142481358146815781609121
:104A9000FB0F7091FC0F8091FD0F9091FE0F0F9412
:104AA000656F6093FB0F7093FC0F8093FD0F9093E5
:104AB000FE0F40E050E0BA0186E40E94D0786B011E
:104AC0007C0120E030E0A9010F948D7118164CF4A0
:104AD00020E030E040E752E4C701B6010F94427095
:104AE00003C060E070E0CB0169837A838B839C8391
:104AF000CE0101960E949E700C9411348FE0809339
:104B00000B050C94113480915906882359F1893092
:104B100011F00C941134A5E9AA2EA4E0BA2EBEE23D
:104B2000CB2EB9E0DB2E00E010E0F12CD5018D9109
:104B30005D010E943FBF882369F0B3E0FB1611F0CE
:104B400001E001C011E00E94BABEF60160837183EA
:104B500082839383F394F4E0CF0ED11C24E0F2120D
:104B6000E5CF44C0E5E9CE2EE4E0DE2EFEE2EF2EF6
:104B7000F9E0FF2E00E010E0212CD6018D916D01AF
:104B80000E943FBF882359F10E94BABE4B015C01CD
:104B9000F70120813181428153810F94656F2B0190
:104BA0003C012DEB37E346E855EB0F948D7187FD03
:104BB0000AC02DEB37E346E855E3C301B2010F9479
:104BC0008468181664F4F3E02F1611F001E001C0B8
:104BD00011E0D7018D929D92AD92BC9213972394D0
:104BE000B4E0EB0EF11CE4E02E12C7CF002319F065
:104BF0000E94BF7106C0112321F08AE399E00E9450
:104C000039D00E94C1710C9411340E94B8E10C9407
:104C1000113480915A0690915B068837910509F40A
:104C20009BC708F01BC18D34910509F450C408F0EE
:104C300093C08A31910509F47DC370F584319105E3
:104C400009F4AEC278F48131910509F495C228F4D3
:104C5000029708F447C20C94FA33429709F40FC63E
:104C60000C94FA338731910509F4E3C248F4853195
:104C7000910509F4CEC2469709F4CFC20C94FA33D9
:104C80008831910509F4ECC2499711F00C94FA337C
:104C90000F94CA270C9411348032910509F4D1C3C2
:104CA000E8F58D31910509F4B5C380F48B31910598
:104CB00009F44EC34C9711F00C94FA3380912F07EE
:104CC000909130070F9488120C9411348E31910515
:104CD00009F4A7C34F9711F00C94FA330E94CE72D7
:104CE0006C8F7D8F8E8F9F8FBE016F5F7F4FCE0148
:104CF0004C960E94C14F60E0CE0101960F941B3E7E
:104D00000F948850BE016F5F7F4F8EE097E00F9445
:104D10007C508AE00E9449390C9411348934910501
:104D200009F4BEC360F48132910509F4B5C3C0979C
:104D300011F00C94FA330E94D9F40C9411348B3492
:104D4000910509F4C0C38C34910511F00C94FA3329
:104D50000E941D730C9411348B36910509F4A8C47C
:104D6000D0F58435910509F48AC5E0F481359105C3
:104D700009F468C530F48E34910509F4ACC30C9481
:104D8000FA338235910509F473C58335910511F025
:104D90000C94FA3380910B058F7E806280930B0513
:104DA0000C9411348836910509F427C450F48535E4
:104DB000910509F49BC58C35910509F4BAC50C948D
:104DC000FA338936910509F41DC48A36910509F430
:104DD0002CC40C94FA338137910509F4DBC4F8F440
:104DE0008E36910509F473C478F48C36910511F46C
:104DF0000C9411348D36910511F00C94FA3381E046
:104E00000E941A4F0C9411348F36910509F47DC419
:104E10008037910511F40C9411340C94FA338537D2
:104E2000910509F426C668F48237910509F41EC677
:104E30008337910511F00C94FA330E944A5A0C946E
:104E400011348637910509F425C68737910511F08D
:104E50000C94FA330E946C720C9411348139F1E095
:104E60009F0711F40C94673108F086C08D3C9105C2
:104E700009F4AAC7D0F58B39910509F4BAC4E0F456
:104E80008D37910509F4DBC468F48937910511F079
:104E90000C94FA3310927208109271080E94BF723B
:104EA0000C9411348C38910509F499C48139910519
:104EB00009F459C60C94FA33893C910509F40EC7DC
:104EC00050F48E3B910509F48FC4883C910509F498
:104ED000BEC60C94FA338B3C910509F422C78C3C76
:104EE000910509F43DC70C94FA338C32A1E09A077E
:104EF00011F40C941930E8F48D3D910509F4ABC719
:104F000050F4833D910509F462C78C3D910509F485
:104F100061C70C94FA338831E1E09E0709F4F2C7C7
:104F20008232914011F00C94FA330E94D6540C94C2
:104F300011348F3221E0920711F40C94643168F43B
:104F40008D32A1E09A0711F40C942E308E329140EC
:104F500011F40C9421310C94FA338033E1E09E0774
:104F600011F40C94AE308039914011F00C94FA3366
:104F70000E9428D00C941134883F31E0930711F43B
:104F80000C946C3208F055C0853AB1E09B0711F4DF
:104F90000C94833118F58C39F1E09F0711F40C94CF
:104FA000783168F4823931E0930711F40C9471314F
:104FB0008A39914011F40C9411340C94FA338D39E0
:104FC000B1E09B0711F40C94DE33843A914011F068
:104FD0000C94FA330E948A750C941134853FF1E0E9
:104FE0009F0711F40C94663278F4863E31E0930703
:104FF00011F40C94F831843F914011F00C94FA3381
:105000000E945EC90C941134863FB1E09B0711F4F5
:105010000C946932873F914011F00C94FA3361E0AF
:1050200083E50E94F67891E089270F94591A0C9431
:1050300011348335F3E09F0711F40C94C43318F551
:105040008B3532E0930711F40C948B3278F48C306A
:10505000B2E09B0711F40C947C328835924011F039
:105060000C94FA330F94B8260C9411348D3BF2E073
:105070009F0711F40C9402338E3B924011F40C9470
:1050800005330C94FA33873E33E0930711F40C9404
:10509000C733C8F48C36B3E09B0711F40C94113479
:1050A000803A934011F00C94FA3320912F073091FD
:1050B00030079091CA1492609093CA14C9010F945A
:1050C00088120C941134883EF3E09F0711F40C947D
:1050D000F733893E934011F00C94FA330E94195E25
:1050E0000C94113480E50E943FBF882329F00E9470
:1050F000BAF46B017C0103C0C12CD12C760183E58D
:105100000E943FBF882361F00E94BABE20E030E0D9
:105110004AE754E40F94E9680F94AF706B017C0187
:105120000E9428D080912F0790913007009721F09E
:1051300061E00F941B3E05C060E080E896E00F94AC
:105140006C3D80915A0690915B06892B19F068E7B7
:1051500076E002C060E776E020E030E046EA54E323
:1051600082E00E9429C540E0C701B6010E94DB3FF2
:105170000E94B0E00C94113480915D0684FF02C05F
:105180000C94B43680915F0687FF02C00C94B4364D
:1051900080916006837011F00C94B4360C94F23652
:1051A0008091CA1484FF2DC08BEA96E00F94C24F01
:1051B00060E08CE40E94F678182F8091CA1484FF76
:1051C0001AC08FEE94E10E9476A38BE1EFEEF4E13A
:1051D000DE01119601900D928A95E1F720E030E012
:1051E00040E050E0612FCE0101960F948F16CE0162
:1051F00001960E945FC08CE996E00F94C24F0C9418
:1052000011340F9488508CEB96E00F94C24F0C949D
:1052100011340F9461150C9411348091CA1482FFDB
:1052200004C087FD02C00C9411340F949D110C949E
:105230001134E0912F07F09130078081882329F005
:10524000803209F410823196F8CF60E080912F0708
:10525000909130070F94D412109215180C941134B9
:1052600083E50E943FBF882321F00E9487BE0E94F1
:10527000C15084E50E943FBF8823A9F00E9487BEE9
:105280006B017C010E940273C092FD08D092FE085F
:10529000E092FF08F0920009CD28CE28CF2819F01F
:1052A00081E080932D0980919C168823F9F080E09D
:1052B00090E0A0EAB1E489839A83AB83BC831C8E1F
:1052C0001D8E1E8E1F8E18A219A21AA21BA200E00C
:1052D00010E020E0AE014F5F5F4FBE01645E7F4F84
:1052E000CE0180960E9433C20C9411340E94E8389B
:1052F000882381F00F9437110E940B3985E897E0DD
:105300000F94DF10109255111092561110925711F0
:105310001092581161E08EE591E40E9406C246E2C7
:1053200051E466EC76E085E00E949CE30E94B0E0E8
:105330000C9411348091CA1484FD02C00C94113471
:1053400083E50E943FBF81110C9400370C94113407
:1053500080915D0690915E06A0915F06B091600617
:1053600052E0B695A795979587955A95D1F780FF06
:105370002CC08CED96E00F94C24F80913616882396
:10538000D9F0BE016F5F7F4F83E396E10F947E39C2
:10539000CE0101960E94085BCE0101960F945B122C
:1053A00080916413882361F080E20E94493984E689
:1053B00093E10E94085B04C082ED96E00F94C24F17
:1053C0008AE00E9449390C9411348091CA1482FFFA
:1053D0001BC04091C6145091C7146091C8147091BD
:1053E000C9148BEE96E00F944A508FE20E9449391F
:1053F0006091C2147091C3148091C4149091C5142B
:105400000F948A100C9411348DEF96E00F94C24FD4
:105410000C9411348091CA148E7F8093CA140C941A
:1054200011348091CA1484FD02C00C9411340E947E
:1054300027E180912F07909130070F941C160C9450
:1054400011348091CA1482FF03C087FF0E9428D0C4
:105450008091CA1484FD02C00C94113460E080E590
:105460000E94F678182F682F80912F0790913007AF
:105470000F94D41283E50E943FBF882321F00E943D
:1054800087BE0E94C1500F94371111110C94113432
:105490000E940B390C9411340E94165B0C94113449
:1054A00080E50E94F1BE882311F40C9411340E940F
:1054B00097BE90E08536910510F084E690E08093E9
:1054C00015180C9411340E940B390C9411340E945D
:1054D0001D390C94113460E070E083E50E94E77898
:1054E0008E34910531F40E94A7CD0E94B0E00C9457
:1054F000113489E797E00F94C24F60916108709171
:10550000620880E797E00F945A50609163087091A9
:10551000640883E697E00F945A5060916108709197
:1055200062088091630890916408681B790B8091F0
:105530002D09815021E030E0823010F020E030E091
:10554000621B730B88E597E00F945A508AE00E9423
:10555000493980E597E00F94C24F8091650890919A
:105560006608A0916708B09168088C8F9D8FAE8FF8
:10557000BF8FBE016F5F7F4FCE014C960E94C14F1F
:10558000BE016F5F7F4F83E497E00F947C50809162
:10559000690890916A08A0916B08B0916C088C8F93
:1055A0009D8FAE8FBF8FBE016F5F7F4FCE014C9638
:1055B0000E94C14FBE016F5F7F4F83E397E00F945E
:1055C0007C5020E030E04AE754E460916D0870912F
:1055D0006E0880916F08909170080F944270AB0133
:1055E000BC018BE197E00F9463508DE60E9449392E
:1055F0008AE00E9449390C94113480E00E941A4FCD
:105600000C9411340F94ED22182F87FF02C00C94D4
:10561000163481E897E00F94C24F812F0E94E1A3D6
:105620008AE00E9449390C94163460E080E50E94BB
:105630007E75F82E31E0381710F40C9411348091F7
:105640005D0680FF05C060916C09062F10E002C066
:105650000FEF10E089E40E943FBF882399F00E9479
:1056600097BE90E01816190614F481E090E026E049
:10567000289FF001299FF00D1124EC56F74E04816C
:10568000158108C083E50E943FBF882319F00E945E
:1056900087BE8B01EF2DF0E0E459F64FB8010F3FC4
:1056A000110519F010F06FEF70E060830C94113465
:1056B00060E080E50E947E75823010F00C94113419
:1056C000E82FF0E0E459F64F10820C9411348EE488
:1056D0000E943FBF882311F40C9411340E9487BEAE
:1056E000E0917302A2E6EA9FF0011124EA52FD4F15
:1056F000E081B7E6EB02F0011124EF59F94F608326
:105700007183828393830C94113483E50E94F1BEEC
:10571000882331F060E083E50E947E758093810FDD
:105720000F94885082E997E00F94C24F8091810FC7
:10573000882369F148E8E42E47E0F42E00E010E009
:1057400020E08091810F90E0A0E0B0E0002E04C046
:10575000B695A795979587950A94D2F780FF0EC0C6
:10576000DD24D394D20E222319F08CE20E94493911
:10577000F701859194910F94C24F2D2D0F5F1F4F0C
:10578000E2E0EE0EF11C05301105D9F619CE84E8E1
:1057900097E014CE83E50E943FBF882381F00E94EA
:1057A00097BE282F30E02D33310524F4809300027A
:1057B0000C9411348CE3809300020C9411340F94F8
:1057C00088501091000289E997E00F94C24F812F11
:1057D0000F94C04F8AE00E9449390C94113480E044
:1057E0000E94AE4E0C94113481E00E94AE4E0C9497
:1057F000113483E50E943FBF882311F40C941134C7
:105800000E9497BE182F8D3308F08CE38093CC1341
:105810000F9491446B017C01212F30E0A8EEB3E09E
:105820000F940E6FC60ED71EE81EF91EC092C81345
:10583000D092C913E092CA13F092CB13F2C70F941F
:10584000CA27EFC70E94E2A80E944CD10E941D39CE
:105850000E94203968EE73E080E090E00F949E4F44
:105860000E94463960E080EA97E00F946C3DD9C70A
:1058700080910B058F7D806180930B05D2C783E5F6
:105880000E943FBF8823E9F00F9491446093CC08B5
:105890007093CD088093CE089093CF080E94BABE33
:1058A00020E030E04AE754E40F94E9680F94AF70C9
:1058B00060930102709302028093030290930402AA
:1058C000B0C780915D0684FF02C00C9405378091BB
:1058D0005F0687FF02C00C940537809160068370D5
:1058E00011F00C9405370E944CD19BC783E50E94B0
:1058F000F1BE882309F495C70F9491446093CC08B6
:105900007093CD088093CE089093CF080E94BABEC2
:1059100020E030E04AE754E40F94E9680F94AF7058
:105920006093060570930705809308059093090519
:1059300078C70F94ED2287FD74C790915D0694FDA2
:1059400004C090915F0697FF0AC085E9C82E84E0E5
:10595000D82E92E8E92E9FE0F92E10E009C0909130
:105960006006937091F7682F81E00F944B2959C717
:10597000D6018D916D010E943FBF882309F46CC050
:10598000133041F00E94BABEF701648B758B868B91
:10599000978B62C00E94BABE4B015C0120E030E0F0
:1059A00040EA51E40F94846887FF4EC0A50194013A
:1059B0006091A20F7091A30F8091A40F9091A50FF9
:1059C0000F9442702B013C019B01AC016091500986
:1059D0007091510980915209909153090F94E9688F
:1059E0006093500970935109809352099093530921
:1059F000A30192016091B20F7091B30F8091B40F27
:105A00009091B50F0F94E9686093B20F7093B30F44
:105A10008093B40F9093B50F609160097091610904
:105A200080916209909163090F948868A3019201A3
:105A30000F94E9680F94AF706093600970936109E7
:105A400080936209909363098092A20F9092A30FB2
:105A5000A092A40FB092A50F1F5FF4E0EF0EF11C0F
:105A6000143009F085CF0E944ECFDBC60E94DA5B6E
:105A7000D8C680912F0790913007009741F0DC0144
:105A80002C91222321F060E00F941B3ECAC60E9495
:105A9000B0E0C7C600912F071091300724E08FEFC8
:105AA000F12C30E0215029F1F8019081492F4B7FF2
:105AB000413421F441814133E1F408C09035C9F407
:105AC000918190539A30A8F4892F08C0913421F025
:105AD000953421F431E002C0FF24F394A8014E5F15
