:100000000C94C71B0C94F81B0C94F81B0C94F81B55
:100010000C94F81B0C94F81B0C94F81B0C94F81B14
:100020000C94F81B0C94F81B0C94F81B0C94F81B04
:100030000C94F81B0C94F81B0C94F81B0C94F81BF4
:100040000C94F81B0D94DD0B0C94F81B0C94F81B0E
:100050000C94F81B0C94F81B0C94E3990C941093DB
:100060000C94F81B0C94B43A0C94AA3A0C94F81B18
:100070000C94F81B0C94F81B0C94F81B0C94F81BB4
:100080000C94F81B0C94F81B0C94F81B0C94F81BA4
:100090000C94F81B0C94F81B0C94F81B0C94F81B94
:1000A0000C94F81B0C94F81B0C94F81B0C94F81B84
:1000B0000C94F81B0C94F81B0C94F81B0C94F81B74
:1000C0000C94F81B0C94F81B0C94F81B0C94F81B64
:1000D0000C94F81B0C94F81B0C94F81B0C94F81B54
:1000E0000C94F81BEA3AFC3A0E3B1F3B273B5A3B69
:1000F0002B3B5A3B2F3B333B5A3B373B3B3B3F3B36
:10010000483B5A3B533B1F3E8E3CC73C5B3EC73C83
:10011000C73CC73CC73CC73CC73CC73CC73CC73CC7
:10012000C73CC73CC73CC73CC73CC73CC73CC73CB7
:10013000C73CC73CC73CC73CC73CC73CC73CC73CA7
:10014000C73C553EC73CC73CC73CC73CC73CC73C07
:10015000C73CC73C2E3EC73CC73CC73CC73CC73C1E
:10016000C73CC73CC73CC73CC73C723EC43C16BCFE
:10017000F9BBFCBB19BCFFBB02BC05BC11BC08BC75
:1001800024BC0BBC0EBCA101950223012302CD01AE
:100190008F02790219027502A7027F016F01BB026B
:1001A0007B028F02D1013F01F101B1016901970189
:1001B00013024D0251018B0101027101EB01CF01CC
:1001C00093026B0257015101D5010D01A302084AA8
:1001D000D73B3BCE016E84BCBFFDC12F3D6C74315B
:1001E0009ABD56833DDA3D00C77F11BED9E4BB4CB2
:1001F0003E916BAAAABE000000803F05A84CCDB27C
:10020000D44EB93836A9020C50B9918688083CA65C
:10021000AAAA2ABE000000803F000D944B090C944E
:1002200002BC0C9465630C94E4B70C9446E40C9403
:10023000E4590C945B3E0C94AB990C94BC590C940F
:10024000273B0C944AE40D9443080C94D4690C9415
:10025000DCB70C94DB590C948E3C0C941F3B0C9433
:100260002E3E0C94DD610C94B0930C9450FF0C94D2
:10027000FCB70C94093C0C942EB80C94C43C0D941F
:1002800082080C9411730C9401FD0C94EB690C948E
:100290004BFF0C94C9630C940C3C0C94807E0C9422
:1002A000A6690D945F090C943F3B0C94E6E00D9415
:1002B00037090C940BBC0C9409620C9448950C946F
:1002C000333B0C944EE40D94B71D0C94C73C0C9436
:1002D000D4620D94CD080C940E730C945F3F0D9472
:1002E00070080D9400090C94BD630C94C3630C94C6
:1002F000F7FF0C94BD690C94D5630C9480FC0D94AD
:100300006A080C94F2620C94155E0C94FFBB0C947A
:10031000A7B90C94553E0D94F0080C949DE70C94ED
:10032000DB630C94FC3A0C9415B80C9477690D942B
:10033000D2080C9446950C94A2600C94F0B70C94DF
:10034000B1630D9451080C945C630C94E3620C94BB
:1003500071980C94483B0C944CE40C9405BC0C94A0
:100360000E3B0D94C8080C946F7E0C94FCBB0C944F
:10037000F0610C94C6B50C949A730C9411BC0C9457
:10038000E3920C941E3C0C94B7630C94B6FC0C9452
:100390000D730C94BB930D94991D0D944B080D9403
:1003A00014090D947E080C94ADB50D9441090C947C
:1003B000D8B70C942B3B0C9486690C945A3B0C9444
:1003C0008F690C944E620C9406B80C94EA3A0C9423
:1003D00078FC0C9444950D940A090C943B3B0C94C6
:1003E000A05A0D9486080C946B7E0C947D610C943D
:1003F000A45C0C940F3C0C94F9BB0C94AB620C9471
:100400003E6A0D94F8080C94847E0C94C8FC0C94FD
:10041000E4660C94887E0C94CA610C9424BC0C9401
:10042000373B0C94F8B70D94DC080C94C2FC0C9488
:10043000E8B70D945C080C9416BC0C94CB5B0D943F
:10044000DE100C94AB630D9447080C94426A0C9434
:1004500038730C94CDBB0C94723E0C949A950C940A
:10046000CA620C94D8FC0C9435620C94CBAD0C94FD
:100470000D630C94A5630C94EA660C9403B80C9479
:10048000FE620C948D930C941C630C9448E40C94C1
:10049000EFFF0C9400B80C94CF630D94E6080C9415
:1004A000DDFC0C94ECB70C94E6660C94C5960C94A9
:1004B000E1630C9416D30C9434B80C949BFF0C9409
:1004C000325B0C94B2E20C9428B80C94D3FC0C94DC
:1004D0001C620C94CEFC0D942D090C94E8660C94CF
:1004E000FD660C9467620C9419BC0D9462080C9420
:1004F0001A7E0D9458080D9478080C949AB50C94B3
:100500002F3B0D94C2160C9496610C94A96C0D941B
:10051000FA000C94AF610C94E0B70C9408BC0D94F5
:100520008B080C946F610D941E090D9454080C9463
:100530000EBC0C94F4B70C94E2FC0C9455FF0C9494
:10054000B1590C94533B0D9455090C9409B80D9472
:1005500066080C94D9BB0C940F710C941F3E0C943C
:10056000BCFC0C9471E70C940D930C945AFF0C9402
:1005700070640D9418110D9474080C94EC590C943B
:10058000CE650C94A1954E414E494E495459494E61
:1005900046CDCCCC3D0AD7233C17B7D13877CC2BEE
:1005A000329595E6241FB14F0A000020410000C893
:1005B0004200401C4620BCBE4CCA1B0E5AAEC59D14
:1005C0007400407A10F35A00A0724E18090010A56A
:1005D000D4E80000E87648170000E40B540200005D
:1005E000CA9A3B000000E1F50500008096980000E3
:1005F0000040420F000000A086010000001027000C
:10060000000000E803000000006400000000000A91
:1006100000000000000100000000002C76D888DCFB
:10062000674F0823DFC1DFAE59E1B1B796E5E3E4D8
:1006300053C63AE651997696E8E6C28426EB898C51
:100640009B62ED407C6FFCEFBC9C9F40F2BAA56FB3
:10065000A5F490055A2AF75C936B6CF9676DC11B82
:10066000FCE0E40D47FEF520E6B500D0ED902E034A
:1006700000943577050080841E080000204E0A0093
:100680000000C80C333333330F986E12831141EFDF
:100690008D2114893BE65516CFFEE6DB18D1844B3D
:1006A000381BF77C1D901DA4BBE424203284725EAD
:1006B000228100C9F124ECA1E53D27434F4D4D5562
:1006C0004E49434154494F4E0044525952554E00F1
:1006D0004552524F5253004543484F0047322F472F
:1006E000332062616420706172616D65746572733C
:1006F0000A00536C6565702E2E2E00486F6D6520C4
:10070000257325732573204669727374004D30205C
:1007100053746F70004D312053746F7000436C69D7
:10072000636B20746F20526573756D652E2E2E00DD
:100730004E6F204D6F76652E00456E642066696CA5
:1007400065206C6973740A00426567696E2066698A
:100750006C65206C6973740A004E6F206D65646966
:10076000610A00526573756D696E672053440028F5
:100770006E6F2066696C65290043757272656E74D0
:100780002066696C653A20005072696E7420746945
:100790006D653A20000A53746174733A2046696C9F
:1007A000616D656E7420757365643A20002C204C71
:1007B0006F6E67657374206A6F623A2000546F74BD
:1007C000616C2074696D653A20002C204661696C6B
:1007D00065643A20002C2046696E69736865643A46
:1007E00020005072696E74733A2000537461747300
:1007F0003A2000452025530044454255473A004DD4
:1008000031313320530043522D3130205633204FA5
:1008100046462E004348414D4245525F54454D5097
:100820004552415455524500424142595354455056
:1008300050494E470041524353004D4F54494F4E8B
:100840005F4D4F44455300544845524D414C5F5015
:10085000524F54454354494F4E004C4F4E475F460C
:10086000494C454E414D45004155544F5245504F1E
:1008700052545F53445F53544154555300534443BF
:100880004152440050524F4D50545F535550504FB9
:10089000525400454D455247454E43595F504152D1
:1008A00053455200434153455F4C494748545F42CA
:1008B00052494748544E45535300544F47474C45BF
:1008C0005F4C494748545300534F46545741524593
:1008D0005F504F574552004255494C445F50455276
:1008E00043454E54004C4556454C494E475F4441A4
:1008F0005441005A5F50524F4245004155544F4CAD
:100900004556454C005052494E545F4A4F420050A4
:10091000524F4752455353004155544F5245504F43
:1009200052545F54454D5000564F4C554D4554520E
:1009300049430042494E4152595F46494C455F5434
:1009400052414E534645520053455249414C5F581F
:100950004F4E5F584F4646004649524D574152450B
:100960005F4E414D453A4D61726C696E20322E30BA
:100970002E372E322D46695A692D313135323030BD
:1009800062202841707220203320323032312031F1
:10099000353A31363A32372920534F555243455F65
:1009A000434F44455F55524C3A68747470733A2F04
:1009B0002F6769746875622E636F6D2F4D61726C5D
:1009C000696E4669726D776172652F4D61726C69EF
:1009D0006E2050524F544F434F4C5F56455253492F
:1009E0004F4E3A312E30204D414348494E455F54D9
:1009F0005950453A43522D313020563320455854F2
:100A000052554445525F434F554E543A3120555547
:100A100049443A63656465326132662D343161322E
:100A20002D343734382D396231322D633535633604
:100A3000326633363766660A002F2F20004D313478
:100A40003520533C696E6465783E206F7574206F65
:100A5000662072616E67652028302D31290A0041B9
:100A60006363656C65726174696F6E3A2050002033
:100A7000204D61783A200020204D696E3A200053C5
:100A80006F667420656E6473746F70733A200046ED
:100A9000523A0020466C6F773A200020643A0020DA
:100AA000693A0020703A00496E76616C696420658D
:100AB000787472756465720A006469730043290A68
:100AC0000061626C656420286D696E2074656D70CC
:100AD0002000436F6C6420657874727564657320C0
:100AE000617265200046696C616D656E7420727577
:100AF0006E6F75742064697374616E636520286D10
:100B00006D293A200046696C616D656E74207275BE
:100B10006E6F75742000454550524F4D204F4B0A63
:100B200000506F7765722D6C6F7373207265636F01
:100B3000766572792000446F6E65207072696E74FC
:100B4000696E672066696C650A004D3737004D3362
:100B50003100D706700BD006C906BB06554E4B4E6A
:100B60004F574E2053544154450047434F44455F2F
:100B7000494E464F004C43445F50415553455F52E8
:100B80004553554D450046494C414D454E545F52E5
:100B9000554E4F55545F434F4E54494E55450046B0
:100BA000494C414D454E545F52554E4F5554004DA2
:100BB00038373620526573706F6E64696E672050E7
:100BC000524F4D50545F004572726F7220777269B8
:100BD00074696E6720746F20454550524F4D210A4D
:100BE0000053544F505045442E20005072696E748B
:100BF00065722073746F707065642064756520740D
:100C00006F206572726F72732E2046697820746847
:100C100065206572726F7220616E64207573652045
:100C20004D39393920746F20726573746172742E76
:100C3000202854656D7065726174757265206973E2
:100C40002072657365742E20536574206974206169
:100C5000667465722072657374617274696E672957
:100C60000A004E6F20436865636B73756D2077696A
:100C70007468206C696E65206E756D6265722C20DB
:100C80004C617374204C696E653A2000636865633B
:100C90006B73756D206D69736D617463682C204C86
:100CA000617374204C696E653A20004C696E652052
:100CB0004E756D626572206973206E6F74204C6191
:100CC0007374204C696E65204E756D6265722B31B0
:100CD0002C204C617374204C696E653A20004D31B4
:100CE00031300053442072656164206572726F7206
:100CF0000A002121204B494C4C20636175736564C7
:100D0000206279204B494C4C20627574746F6E2FB1
:100D100070696E0A002121204B494C4C206361759B
:100D200073656420627920746F6F206D756368202D
:100D3000696E6163746976652074696D65202D2024
:100D400063757272656E7420636F6D6D616E643A67
:100D50002000627573793A2070617573656420664E
:100D60006F7220696E7075740A00627573793A202B
:100D700070617573656420666F7220757365720AA1
:100D800000627573793A2070726F63657373696E70
:100D9000670A004D656469612052656D6F76656410
:100DA000004D6564696120496E7365727465640005
:100DB0004D3130303053007061757365004D363001
:100DC00030002066696C616D656E745F72756E6F60
:100DD0007574200066696C616D656E745F72756E06
:100DE0006F757420540046696C616D656E74527540
:100DF0006E6F7574205400456E636C6F7375726509
:100E000000446966663A2020200046726F6D537474
:100E1000703A00537465707065723A005261773AA7
:100E200020202020000A4C6F676963616C3A004300
:100E30006F756E7420453A004361703A00656E71BB
:100E400075657565696E672022006F6B005265736A
:100E5000656E643A2000256979202569642025693A
:100E6000682025696D202569730042656420436F01
:100E70006F6C696E672E2E2E004265642048656196
:100E800074696E672E2E2E0024F4D43050C38E2049
:100E9000C2A24017828B7011127A910D816CD90A0F
:100EA000A861E108C7586607615143061E4B5D05FE
:100EB000C145A7041A411104093D98037139310352
:100EC0004036DB0265339102D4305402802E1D027D
:100ED000632CEE01752AC501B028A00110278101FD
:100EE0008F2564012B244B01E0223401AC211F012A
:100EF0008D200D01801FFC00841EED00971DDF007A
:100F0000B81CD200E61BC600201BBC00641AB2004D
:100F1000B219A8000A19A0006A189900D117910007
:100F200040178B00B516840031167E00B31579008A
:100F30003A157300C7146F0058146A00EE13660068
:100F40008813630025135E00C7125B006C12570004
:100F500015125400C111510070114F0021114B00A6
:100F6000D61049008D104700461044000210420080
:100F7000C00F4000800F3E00420F3C00060F3B00B8
:100F8000CB0E3800930E37005C0E3500270E340070
:100F9000F30D3200C10D3100900D3000600D2E00B8
:100FA000320D2D00050D2C00D90C2B00AE0C2900A4
:100FB000850C29005C0C2700350C27000E0C260040
:100FC000E80B2400C40B2400A00B23007D0B23009E
:100FD0005A0B2100390B2100180B2000F80A1F00C2
:100FE000D90A1E00BB0A1E009D0A1D00800A1D00B2
:100FF000630A1C00470A1B002C0A1B00110A1A0076
:10100000F7091A00DD091900C4091900AB09190014
:10101000920917007B091800630917004C09160094
:1010200036091600200916000A091500F5081500F2
:10103000E0081400CC081400B8081400A408140038
:10104000900813007D0812006B0813005808120066
:10105000460812003408110023081100120811007C
:1010600001081100F0071000E0071000D007100081
:10107000C0071000B0070F00A107100091070E0075
:1010800083070F0074070F0065070E0057070E0057
:1010900049070E003B070D002E070E0020070D002C
:1010A00013070D0006070D00F9060C00ED060D00F4
:1010B000E0060C00D4060C00C8060C00BC060C00B0
:1010C000B0060C00A4060B0099060C008D060B0060
:1010D00082060B0077060B006C060B0061060A0007
:1010E00057060B004C060A0042060A0038060A00A2
:1010F0002E060A0024060A001A060A001006090035
:1011000007060A00FD050900F4050900EB050900C2
:10111000E2050900D9050900D0050900C705090045
:10112000BE050900B5050800AD050800A5050900C4
:101130009C050800940508008C050800840508003B
:101140007C050800740508006C05070065050800AB
:101150005D050700560508004E0507004705070016
:101160004005080038050700310507002A0507007B
:10117000230507001C050600160507000F050700DC
:101180000805060002050700FB040600F504070039
:10119000EE040600E8040600E2040700DB04060093
:1011A000D5040600CF040600C9040600C3040600E7
:1011B000BD040600B7040600B1040500AC04060037
:1011C000A6040600A00405009B0406009504050083
:1011D000900406008A0405008504050080040600CA
:1011E0007A04050075040500700405006B04050011
:1011F00066040500610405005C0405005704050051
:10120000520405004D040500480405004304050090
:101210003E0404003A0405003504050030040400CF
:101220002C04050027040400230405001E04040008
:101230001A04040016040500110404000D0404003F
:10124000090405000404040000040400FC03040075
:10125000F8030400F4030400F0030400EC030400AA
:10126000E8030400E4030400E0030400DC030400DA
:10127000D8030400D4030400D0030400CC0304000A
:10128000C8030300C503030024F404D9201BC40CC5
:101290005C0E9804C4095F0265077101F405F9004A
:1012A000FB04B30048048700C103690058035500DC
:1012B00003034500BE023A008402310053022A00B3
:1012C0002902250004022000E4011C00C8011900C5
:1012D000AF01170098011400840113007101100080
:1012E0006101100051010E0043010D0036010B0099
:1012F0002B010B0020010B00150109000C01090056
:1013000003010800FB000800F3000800EB000700E1
:10131000E4000600DE000600D8000600D200060049
:10132000CC000500C7000500C2000500BD00040098
:10133000B9000400B5000400B1000400AD000400D1
:10134000A9000400A5000300A20003009F00040000
:101350009B00030098000300950002009300030027
:10136000900003008D0002008B0003008800020043
:101370008600020084000300810002007F0002005A
:101380007D0002007B00020079000200770001006E
:101390007600020074000200720001007100020079
:1013A0006F0002006D0001006C0002006A00010085
:1013B000690002006700010066000100650001008D
:1013C0006400020062000100610001006000010091
:1013D0005F0002005D0001005C0001005B00010095
:1013E0005A00010059000100580001005700010097
:1013F0005600010055000100540001005300000098
:101400005300010052000100510001005000010092
:101410004F0001004E0000004E0001004D00010091
:101420004C0001004B0000004B0001004A0001008D
:101430004900010048000000480001004700010089
:101440004600000046000100450000004500010084
:10145000440001004300000043000100420000007E
:101460004200010041000000410001004000010075
:101470003F0000003F0001003E0000003E00010070
:101480003D0000003D0001003C0000003C00000069
:101490003C0001003B0000003B0001003A0000005E
:1014A0003A00010039000000390001003800000056
:1014B000380000003800010037000000370001004C
:1014C0003600000036000000360001003500000044
:1014D0003500000035000100340000003400000039
:1014E000340001003300000033000000330001002D
:1014F0003200000032000000320001003100000024
:101500003100000031000100300000003000000018
:10151000300001002F0000002F0000002F0000000D
:101520002F0001002E0000002E0000002E00010000
:101530002D0000002D0000002D0000002D000100F6
:101540002C0000002C0000002C0000002C000100EA
:101550002B0000002B0000002B0000002B000100DE
:101560002A0000002A0000002A0000002A000100D2
:1015700029000000290000002900000029000000C7
:1015800029000100280000002800000028000000B9
:1015900028000000280001002700000027000000AC
:1015A000270000002700000027000100260000009F
:1015B0002600000026000000260000002600010092
:1015C0002500000025000000250000002500000087
:1015D0002500000025000100240000002400000078
:1015E000240000002400000024000100230000006B
:1015F000230000002300000023000000230000005F
:10160000230000002300010022000000220000004F
:101610002200000022000000220000002200010041
:101620002100000021000000210000002100000036
:101630002100000021000000210001002000000026
:10164000200000002000000020000000200000001A
:101650002000000020000000200001001F0000000A
:101660001F0000001F0000001F0000001F000000FE
:101670001F0000001F0001001E0000001E000000EF
:101680001E0000001E00000039300000332500005D
:1016900087190000B00F0000DB080000BD04000047
:1016A000740200003F010000506F776572204F7593
:1016B0007461676500436F6E66696775726174690E
:1016C0006F6E0043616E63656C204F626A65637480
:1016D00000256C642E25696D00457874727564650B
:1016E0006420546F74616C004C6F6E676573742076
:1016F0004A6F622054696D65003E2000546F74612A
:101700006C205072696E742054696D6500436F6D72
:10171000706C65746564005072696E7420436F75F7
:101720006E7400313230004245443A204550434FF8
:1017300053203130304B0052756E617761792057FC
:10174000617463683A204F4E004D61782054656D96
:101750007000323735004D696E2054656D7000455C
:10176000313A204550434F53203130304B005053D5
:10177000550047656E657269630050726F746F63E0
:101780006F6C00312E3000426175640031313532AA
:10179000303000437265616C697479334420524182
:1017A0004D505300457874727564657273004352EE
:1017B0002D313020563300323032312D30342D303F
:1017C000332031353A3133005072696E74657220BE
:1017D000537461747300546865726D6973746F72C9
:1017E0007300426F61726420496E666F00507269C7
:1017F0006E74657220496E666F004D313030300076
:1018000053746F70205072696E7400526573756DF9
:1018100065205072696E74004368616E6765204D83
:1018200065646961004D32310041626F757420500A
:1018300072696E746572004E6F204D656469610057
:1018400054756E65005061757365205072696E74D1
:1018500000496E666F2053637265656E00452073A4
:10186000746570732F6D6D005A2053746570732FFB
:101870006D6D00592053746570732F6D6D00582085
:1018800053746570732F6D6D00496E697400416308
:1018900063656C65726174696F6E0056656C6F6329
:1018A000697479004E4F005945530043616E63657A
:1018B0006C204F626A656374203D0046616E205360
:1018C000706565640052756E6F7574204469737439
:1018D000206D6D004C6F6164206D6D00556E6C6FF6
:1018E0006164206D6D0046696C2E204469612E0094
:1018F0004520696E206D6DC2B3004D3330332055E5
:1019000031204525692053256900504944204175FF
:10191000746F74756E65202A005049442D44202A46
:10192000005049442D49202A005049442D50202A76
:101930000020082046616374002008204D61780073
:101940002008204D696E004175746F74656D7000DC
:1019500023646566696E652044454641554C545F75
:10196000004B6420004B6920004B7020005049441C
:10197000204175746F74756E652066696E69736851
:101980006564212050757420746865206C617374DF
:10199000204B702C204B6920616E64204B642063C7
:1019A0006F6E7374616E74732066726F6D20626502
:1019B0006C6F7720696E746F20436F6E6669677510
:1019C000726174696F6E2E680A0050494420417537
:1019D000746F74756E65206661696C65642120742E
:1019E000696D656F75740A000A20436C61737369D1
:1019F0006320504944200A00204B643A2000204BC9
:101A0000693A2000204B703A20000A204E6F206F68
:101A100076657273686F6F740A002054753A2000FF
:101A2000204B753A2000206D61783A2000206D69C6
:101A30006E3A200020643A200020626961733A20E7
:101A400000504944204175746F74756E652073743D
:101A50006172740A00504944204175746F74756E48
:101A600065206661696C6564212054656D706572DE
:101A7000617475726520746F6F20686967680A0009
:101A8000504944204175746F74756E650050494427
:101A9000204175746F74756E65206661696C65644C
:101AA0002120426164206578747275646572206ECD
:101AB000756D6265720A004572723A2075746638F7
:101AC00020666F6E74206E6F7420696E6974696130
:101AD0006C697A65642E00000C0F00FE0702250376
:101AE000BB017FFE08FE08FE05080806000040F066
:101AF000C88888987810050808060000C0F888880B
:101B0000888888F80505050600012030F830200592
:101B100008080600002070F820202020E0050909B0
:101B20000600FF2070A8A8B8888870200705050760
:101B30000001D86C366CD80509090600FFF8A888A2
:101B400088888888A8F8050A0A0600FE20505050A8
:101B50005088A8A8887003030306000340A040FF34
:101B6000FFFFFFFFFFFFFFFFFFFFFFFFFFFFFFFF85
:101B7000FFFFFFFFFF0000000605FF010707060249
:101B80000080808080800080030303060105A0A000
:101B9000A005060606000050F85050F85005090947
:101BA0000600FF2070A8A07028A87020050707066F
:101BB0000000C8C81020409898050707060000409C
:101BC000A0A040A89068010303060205808080035E
:101BD00009090601FF204040808080404020030921
:101BE000090601FF80404020202040408005070773
:101BF00006000020A8702070A82005050506000139
:101C00002020F820200203030601FFC040800501C8
:101C100001060003F8020202060100C0C005070722
:101C2000060000081010204040800507070600004D
:101C3000708898A8C8887003070706010040C04054
:101C4000404040E00507070600007088081020406B
:101C5000F8050707060000F8081030088870050727
:101C60000706000010305090F81010050707060016
:101C700000F880F00808887005070706000030406B
:101C800080F0888870050707060000F8081010200B
:101C90002020050707060000708888708888700576
:101CA000070706000070888878081060020505069E
:101CB0000100C0C000C0C00206060601FFC0C0008F
:101CC000C040800305050601012040804020050337
:101CD00003060002F800F803050506010180402014
:101CE00040800507070600007088102020002005AE
:101CF00007070600007088B8A8B8807005070706B7
:101D00000000708888F8888888050707060000F0BA
:101D10004848704848F00507070600007088808032
:101D2000808870050707060000F04848484848F0DA
:101D3000050707060000F88080F08080F805070797
:101D4000060000F88080F08080800507070600000C
:101D5000708880809888700507070600008888884A
:101D6000F8888888030707060100E04040404040AB
:101D7000E0050707060000381010101090600507F6
:101D8000070600008890A0C0A090880507070600FD
:101D900000808080808080F805070706000088D8D2
:101DA000A8888888880507070600008888C8A8983A
:101DB000888805070706000070888888888870056D
:101DC0000707060000F08888F08080800507070676
:101DD000000070888888A89068050707060000F052
:101DE0008888F0A09088050707060000708880703A
:101DF000088870050707060000F820202020202012
:101E00000507070600008888888888887005070706
:101E100006000088888888505020050707060000C3
:101E200088888888A8A85005070706000088885079
:101E30002050888805070706000088885020202049
:101E400020050707060000F80810204080F8030965
:101E5000090601FFE080808080808080E005070720
:101E6000060000804040201010080309090601FF09
:101E7000E020202020202020E0050303060005208C
:101E800050880501010600FEF803030306010580E2
:101E900040200505050600007008788878050707CA
:101EA0000600008080F0888888F00505050600009F
:101EB0007080808870050707060000080878888809
:101EC00088780505050600007088F0807005070712
:101ED000060000304840E04040400507070600FE8D
:101EE000708888887808700507070600008080F0F1
:101EF000888888880307070601004000C0404040EA
:101F0000E00409090601FE10003010101010906066
:101F100005070706000080808890E0908803070787
:101F2000060100C04040404040E0050505060000B5
:101F3000D0A8A8A8A8050505060000B0C88888880C
:101F400005050506000070888888700507070600EB
:101F5000FEF0888888F080800507070600FE7888F4
:101F60008888780808050505060000B0C8808080CC
:101F700005050506000078807008F00507070600D3
:101F8000002020F82020201805050506000088887C
:101F90008898680505050600008888885020050592
:101FA000050600008888A8A85005050506000088D9
:101FB000502050880507070600FE8888885020407A
:101FC00080050505060000F8102040F80309090601
:101FD00001FF2040404080404040200109090602A6
:101FE000FF8080808080808080800309090601FF57
:101FF00080404040204040408005030306000248E6
:10200000A890FF3F00496E697469616C697A652028
:10201000454550524F4D00726573756D65004545DD
:1020200050524F4D2056657273696F6E2045727223
:102030006F7200454550524F4D20496E64657820BF
:102040004572726F7200454550524F4D20435243C6
:10205000204572726F720049676E6F726500486F3B
:102060006D696E67204661696C6564006F70656EAE
:10207000005452494747455245440066696C616DBA
:10208000656E74007A5F6D696E00795F6D696E00D0
:10209000785F6D696E005265706F7274696E67204B
:1020A000656E6473746F70207374617475730A0065
:1020B0005761726E696E673A20486F6D696E67206E
:1020C00042756D702044697669736F72203C2031CF
:1020D0000A0000004842000048420000C0400202DE
:1020E000040000A0400000A04000000040FFFFFFEF
:1020F00053657474696E67732053746F72656400FE
:102100002062797465733B206372632000536574A9
:1021100074696E67732053746F726564202800457C
:102120004550524F4D206461746173697A65206532
:1021300072726F722E0A002073746F72656420735E
:10214000657474696E67732072657472696576650B
:1021500064202800202863616C63756C6174656479
:1021600029210A0020213D2000454550524F4D2095
:10217000435243206D69736D61746368202D20287C
:1021800073746F726564292000496E6465783A2023
:102190000044494749504F5453204C6F6164656473
:1021A0000A0044494749504F5453204C6F616469B9
:1021B0006E670A00204D61726C696E3D5638322997
:1021C0000A00454550524F4D2076657273696F6E17
:1021D000206D69736D617463682028454550524FC6
:1021E0004D3D000000000000000060000000000005
:1021F000FC00000FF00000000007E00000000001FC
:10220000861FC018700000000000603C0C00000138
:10221000830C6010300000000000603C0C000001E6
:10222000830C303030000000000060000C00000023
:10223000030C183000000000000060003F0F3C005D
:10224000030C0C6001DF0FE0FE00601C1C06180090
:10225000060C0C6000F318318300600C0C031800AE
:102260001E0C0C6000E030398300600C0C03300061
:10227000030C0C6000C030380F00600C0C03300001
:10228000018C0C6000C03FF8FB00600C0C033000B8
:10229000018C0C6030C030018300600C0C01F00137
:1022A000818C0C6030C030018300600C0C00E001B8
:1022B000818C183030C018318300600C0C40E00174
:1022C000838C301860C00C6187C0E01C0CC06000BB
:1022D000C30C600FC3F007C0FFC7FC7F0781C000BD
:1022E0007E1FC0000000000000000000000700008A
:1022F00000000000000000000000000000070000D7
:102300000000001FFFFFFFFFFFFF60000000000153
:10231000FF400000000000FF8000000000007F83FD
:10232000CF00000C303F87FF80000C301F86798083
:10233000000C000F8C30C7838C30E78C30CFC7CCBB
:1023400031F38C30DCECEC33B98C30D86C6C331955
:102350008C30D06C0C33198C30D86C0C33198C3019
:10236000DC6C0E3B198C30CF7C079F198C30C77CFE
:10237000038F194000000000000260000000000010
:10238000061FFFFFFFFFFFF870012C0190012701DE
:10239000B0012201C0011D01F0011801100213015A
:1023A00030020E016002090190020401C002FF0028
:1023B0000003FA004003F5008003F000D003EB00B7
:1023C0002004E6007004E100E004DC004005D700D2
:1023D000C005D2004006CD00D006C8008007C3006B
:1023E0003008BE00F008B900C009B400B00AAF0060
:1023F000B00BAA00D00CA500000EA000500F9B004F
:10240000C01096005012910000148C00C015870077
:10241000B0178200B0197D00D01B7800001E730039
:1024200040206E0090226900F024640040275F0085
:1024300090295A00E02B5500102E500020304B0000
:1024400010324600E033410090353C001037370031
:1024500070383200A0392D00B03A2800A03B23008C
:10246000603C1E00103D1900903D1400103E0F000E
:10247000703E0A00C03E0500003F0000403FFBFFE9
:10248000803FF6FFC03FF1FF68747470733A2F2FDE
:102490006D61726C696E66772E6F726700322E30D6
:1024A0002E372E322D46695A692D31313532303072
:1024B00062002020506C616E6E65724275666665C2
:1024C0007242797465733A20002046726565204D2A
:1024D000656D6F72793A2000436F6D70696C656449
:1024E0003A2041707220203320323032310A0020ED
:1024F0004C61737420557064617465643A203230A5
:1025000032312D30342D30332031353A3133207C87
:1025100020417574686F723A2046695A692C2043CD
:102520005231302D56332C206261736564206F6EFA
:10253000206672616E367020435231302D56320A59
:1025400000322E302E372E322D46695A692D313108
:1025500035323030620A004D61726C696E00205372
:102560006F6674776172652052657365740A002026
:102570005761746368646F672052657365740A00FD
:102580002042726F776E206F757420526573657488
:102590000A002045787465726E616C20526573651F
:1025A000740A00506F77657255700A006175746F18
:1025B00025632E67004732385859004D313030318D
:1025C000006572726F722077726974696E67207429
:1025D0006F2066696C650A00446F6E6520736176D2
:1025E000696E672066696C652E0A004D32390025D8
:1025F0005320256320256320256320256300656E15
:102600006473746F7073206869743A20004D3834B5
:102610000054656D7065726174757265004E6F7AF5
:102620007A6C65004D61696E0044697361626C6526
:1026300020537465707065727300486F6D65205A21
:10264000004732385A00486F6D65205900473238CC
:102650005900486F6D652058004732385800417561
:10266000746F20486F6D650047323800507265689E
:10267000656174202420456E640050726568656150
:102680007420242042656400436F6F6C646F776E22
:102690000046616E205370656564207E00466C6F55
:1026A000770020436F756E7420583A004531006200
:1026B0006564002C2073797374656D2073746F707A
:1026C00070656421204865617465725F49443A20F1
:1026D0000048656174696E67204661696C656400D5
:1026E00048656174696E67206661696C6564004D58
:1026F0003131322053687574646F776E00202D205D
:10270000496E76616C69642065787472756465726F
:10271000206E756D62657220210A00544845524D45
:10272000414C2052554E4157415900546865726DD5
:10273000616C2052756E61776179004572723A2042
:102740004D415854454D50004D415854454D502031
:10275000747269676765726564004572723A204DEC
:10276000494E54454D50004D494E54454D502074EE
:10277000726967676572656400202F002042403AE5
:102780000020403A0020573A007C3C3E5E2B3D3F03
:102790002F5B5D3B2C2A225C0000009B4300009BCA
:1027A000430000C843000000010000000100008059
:1027B00000555555000000400033333300AAAA2AC3
:1027C000004992240000002000C7711C009999194B
:1027D00000D1451700555515003BB113002449128F
:1027E0000011111100000010000F0F0F00E3380E50
:1027F0000043790D00CCCC0C00C3300C00E8A20BD8
:102800000064210B00AAAA0A00703D0A009DD809A5
:1028100000427B090092240900DCD3080088880864
:10282000001042080000000800F0C1070087870779
:102830000075500700711C07003EEB0600A1BC06A6
:10284000006990060066660600703E060061180684
:102850000017F4050074D105005BB00500B29005C7
:1028600000627205005555050078390500B81E054F
:1028700000050505004EEC040087D40400A1BD044A
:102880000090A7040049920400C17D0400EE690491
:1028900000C7560400444404005C320400082104CC
:1028A0000041100400000004003FF00300F8E003C2
:1028B0000026D20300C3C30300CCB503003AA8032B
:1028C000000A9B0300388E0300C08103009F75033C
:1028D00000D0690300505E03001D53030034480319
:1028E00000913D03003333030016290300381F0312
:1028F0000097150300300C0300030303000BFA02DA
:102900000049F10200BAE802005CE002002DD802A2
:10291000002DD0020059C80200B0C0020031B90237
:1029200000DAB10200AAAA0200A0A30200BC9C0225
:1029300000FA9502005C8F0200DF880200828202AA
:1029400000457C02002776020027700200436A02DD
:10295000007C640200D05E02003F590200C85302AE
:1029600000FFFDFCFAF8F6F4F2F0EEECEAE9E7E538
:10297000E3E1E0DEDCDAD9D7D5D4D2D0CFCDCBCAF3
:10298000C8C7C5C3C2C0BFBDBCBAB9B7B6B4B3B27D
:10299000B0AFADACAAA9A8A6A5A4A2A1A09E9D9CDB
:1029A0009A99989795949392908F8E8D8B8A898817
:1029B000878684838281807F7E7D7B7A7978777633
:1029C0007574737271706F6E6D6C6B6A696867662F
:1029D0006564636261605F5E5D5C5B5A595858571D
:1029E00056555453525150504F4E4D4C4B4A4A49F4
:1029F00048474646454443424241403F3E3E3D3CB7
:102A00003B3B3A393838373635353433323231306A
:102A1000302F2E2E2D2C2B2B2A292928272726250F
:102A20002524232322212120201F1E1E1D1C1C1BA8
:102A30001B1A191918181716161515141313121234
:102A40001111100F0F0E0E0D0D0C0C0B0A0A0909B7
:102A5000080807070606050504040303020201002F
:102A6000000000000000000000000000004164764B
:102A7000616E6365642053657474696E6773005595
:102A80004E4C4F41442046494C414D454E54004622
:102A9000494C414D454E54204348414E4745004C1A
:102AA0006F61642053657474696E67730053746F4B
:102AB00072652053657474696E6773005265737430
:102AC0006F72652044656661756C74730050726541
:102AD00068656174202420436F6E660052756E6FC6
:102AE00075742053656E736F72004D373032205409
:102AF0002564004D36303020423020542564004D8E
:102B0000373032203B2564004D3730312054256466
:102B1000004D373032004D373031004D36303020E7
:102B20004230005075726765206D6F7265005245C6
:102B300053554D45204F5054494F4E533A00505233
:102B4000494E54205041555345440020204E6F7A41
:102B50007A6C653A20005061726B696E672E2E2E7A
:102B60000000005761697420666F720066696C61CD
:102B70006D656E74206368616E676500746F2073A5
:102B800074617274005761697420666F72006669BF
:102B90006C616D656E7420756E6C6F616400004EC3
:102BA0006F7A7A6C652068656174696E6700506C35
:102BB0006561736520776169742E2E2E0000507256
:102BC00065737320627574746F6E00746F2068652E
:102BD0006174206E6F7A7A6C650000496E7365725D
:102BE000742066696C616D656E7400616E6420703E
:102BF0007265737320627574746F6E00746F2063F6
:102C00006F6E74696E7565005761697420666F72C6
:102C10000066696C616D656E74206C6F61640000A4
:102C2000507265737320427574746F6E00746F20F8
:102C3000726573756D65207072696E7400005761FE
:102C4000697420666F72207072696E7400746F20F0
:102C5000726573756D652E2E2E00005761697420A4
:102C6000666F720066696C616D656E742070757256
:102C70006765000020746F6F206C6F6E6720657849
:102C800074727573696F6E2070726576656E7465A7
:102C9000640A0020636F6C642065787472757369D0
:102CA0006F6E2070726576656E7465640A00205AD6
:102CB0003A0020593A00204D39322058004D323424
:102CC0002053256C642054256C64004739322E391A
:102CD0002045257300473120462564004739322EB0
:102CE00039205A2573004731205A3020463230307F
:102CF0000047312058257320592573204633303042
:102D000030004D3130362050256920532569004D63
:102D100031303920532569004D3139302053256930
:102D2000004D32303020442573004732385230583D
:102D300059004739322E39204530205A300A473160
:102D40005A25730020496E76616C69642065787439
:102D5000727564657220001FE02010201020101092
:102D60002010202010201030300840048003001F65
:102D7000E03FF03FF03FF01FE01FE03FF03FF03F4B
:102D8000F00FC0078003003FFFF038007030FC30C8
:102D900020FC102078102030102C00D02E31D02FA5
:102DA0007BD02F7BD02E31D02C00D020301020783B
:102DB0001020FC1030FC303800703FFFF03FFFF077
:102DC0003800703186302387102787902F87D02FC7
:102DD00003D02030102078102078102030102F03DE
:102DE000D02F87D027879023871031863038007006
:102DF0003FFFF01FFFF81FFFF804104002082002F9
:102E000008200410400820801041001041000820D4
:102E1000800410400000001FFFF81FFFF8000000B2
:102E2000001E000000002100000000271DC08C00D3
:102E3000272121920041212092008E21CE920090E4
:102E4000212092011021209201201D21CC0220007E
:102E50000000041001130008100114801008011074
:102E600080200400A30047F200A08043E2004480D9
:102E7000200400430018D80000001984000000213D
:102E8000FC0000003F002568753A25303268750067
:102E900025303268753A25303268750020202020B0
:102EA00020202000506C6561736520526573657445
:102EB000005052494E5445522048414C544544001C
:102EC00025533A20255300706F7765726F66660050
:102ED0004B494C4C45442E20005072696E7465720B
:102EE0002068616C7465642E206B696C6C282920E5
:102EF00063616C6C6564210A006563686F3A004524
:102F000072726F723A005072696E74696E67204F08
:102F1000626A656374002553202569002F2F616361
:102F200074696F6E3A00626567696E00656E640071
:102F300070726F6D70745F0073686F7700446973AF
:102F400061626C6552756E6F75740050757267655D
:102F50004D6F726500486F74656E6420746F6F20EA
:102F6000636F6C640A0053656E64204D3130382005
:102F7000746F20726573756D650A005265686561CE
:102F80007420446F6E6500526568656174696E6790
:102F90002E2E2E0052656865617400486561746567
:102FA000722054696D656F75740053656E64204DB1
:102FB00031303820746F2068656174206E6F7A7AC2
:102FC0006C650A004E6F7A7A6C65205061726B6591
:102FD000640070617573656400726573756D656416
:102FE00000526573756D696E670056547261762084
:102FF0004D696E00566D696E00566D617820450012
:10300000566D6178205A00566D6178205900566DD2
:103010006178205800416D6178204500416D6178EC
:10302000205A00416D6178205900416D6178205827
:1030300000412D54726176656C00412D52657472A9
:1030400061637400416363656C0056652D4A657267
:103050006B00565A2D4A65726B0056592D4A65729F
:103060006B0056582D4A65726B002053697A653A99
:1030700020004D32332025730046696C652073654E
:103080006C65637465640A0046696C65206F7065E1
:103090006E65643A2000454E4420535542524F55C8
:1030A00054494E450A002220706F7300222070613F
:1030B00072656E743A2200535542524F5554494E30
:1030C000452043414C4C207461726765743A22007C
:1030D00053756263616C6C204F766572666C6F77B6
:1030E000004578636565646564206D61782053559B
:1030F00042524F5554494E452064657074683A31C8
:103100000A0044656C6574696F6E206661696C6560
:10311000642C2046696C653A200046696C65206421
:10312000656C657465643A005344207072696E740E
:10313000696E67206279746520004E6F7420534475
:10314000207072696E74696E670A006F70656E2018
:103150006661696C65642C2046696C653A2000578D
:10316000726974696E6720746F2066696C653A20B5
:1031700000667265736800646F696E67004E6F77F2
:10318000200043616E6E6F74206F70656E207375E2
:10319000626469722000534420496E69742046615C
:1031A000696C0053442063617264206F6B0A006F86
:1031B00070656E526F6F74206661696C65640A0099
:1031C000766F6C756D652E696E6974206661696CC9
:1031D00065640A004E6F20534420636172640A00E4
:1031E0005072696E742066726F6D204D65646961FE
:1031F000005072696E742050617573656400627569
:1032000074746F6E00436F6E74696E7565004C6FF9
:1032100061642046696C616D656E74205400496E6E
:10322000736572742066696C616D656E7420616E81
:10323000642073656E64204D3130380A00220A0024
:10324000556E6B6E6F776E20636F6D6D616E643A55
:1032500020220043522D31302056332052656164C4
:10326000792E005072696E74696E672E2E2E00439F
:10327000616E63656C004F6666004F6E004D6F7443
:10328000696F6E005374617274205072696E7400BD
:1032900043616E6E6F7420656E7465722073756223
:1032A0006469723A2000022E2E002100486F746576
:1032B0006E6420746F6F20636F6C640050726F6374
:1032C00065656400536F667420456E6473746F7037
:1032D000730000002200250028002B002E00310082
:1032E000340002010000050108010B01000021006B
:1032F000240027002A002D003000330001010000C7
:10330000040107010A010505050507050808080865
:10331000020202020A0A080804040404010101016D
:103320000101010103030303030303030407070768
:103330000C0C0C0C0C0C0C0C02020202060606060D
:10334000060606060B0B0B0B0B0B0B0B01021020DA
:1033500020080810204010204080020102010804CB
:10336000020101020408102040808040201008045F
:1033700002018004020180402010080402010804B8
:1033800002010102040810204080010204081020FC
:1033900040805045544700504C41004D6F766520A9
:1033A00025736D6D004D6F766520302E316D6D008B
:1033B0004D6F766520316D6D004D6F766520313033
:1033C0006D6D004D6F7665204178697300457874A6
:1033D0007275646572004D6F7665205A004D6F7688
:1033E000652059004D6F76652058004368616E670F
:1033F000652046696C616D656E7400556E6C6F6119
:10340000642046696C616D656E74004C6F61642068
:1034100046696C616D656E740050726568656174B3
:1034200020437573746F6D00507265686561742018
:1034300024004261636B0000000A0B02090C0D0EB0
:103440000807030401000000000000000000000065
:10345000000000000000000000000000000000006C
:103460000000001211100000000000000000000029
:1034700000000000000000000000000000973392F0
:103480003320520048617264636F64656420446550
:103490006661756C742053657474696E6773204C33
:1034A0006F616465640A003B200020204D36303394
:1034B000200020204D34313220530046696C616D6C
:1034C000656E742072756E6F75742073656E736FA0
:1034D000723A0020550046696C616D656E74206C0F
:1034E0006F61642F756E6C6F6164206C656E6774BC
:1034F00068733A0020204D343133205300506F77E9
:1035000065722D4C6F7373205265636F76657279A7
:103510003A0020204D333034205000204900202034
:103520004D33303120500050494420736574746924
:103530006E67733A0020460020480020204D313449
:10354000352053004D6174657269616C2068656156
:1035500074757020706172616D65746572733A0084
:1035600020204D323035204200416476616E636523
:10357000643A20423C6D696E5F7365676D656E7479
:103580005F74696D655F75733E20533C6D696E5F56
:1035900066656564726174653E20543C6D696E5F5A
:1035A00074726176656C5F66656564726174653EB0
:1035B00020583C6D61785F785F6A65726B3E205978
:1035C0003C6D61785F795F6A65726B3E205A3C6D35
:1035D00061785F7A5F6A65726B3E20453C6D617809
:1035E0005F655F6A65726B3E0020204D323034208B
:1035F0005000416363656C65726174696F6E202869
:10360000756E6974732F7332293A20503C70726959
:103610006E745F616363656C3E20523C72657472C8
:103620006163745F616363656C3E20543C747261D6
:1036300076656C5F616363656C3E0020204D3230BF
:10364000312058004D6178696D756D204163636567
:103650006C65726174696F6E2028756E6974732F62
:103660007332293A0020204D3230332058004D610A
:1036700078696D756D206665656472617465732027
:1036800028756E6974732F73293A005374657073CB
:103690002070657220756E69743A00204400202005
:1036A0004D3230302053002044697361626C656490
:1036B0000A0046696C616D656E7420736574746987
:1036C0006E67733A0020204D3134392043203B206F
:1036D000556E69747320696E2043656C73697573E8
:1036E0000A0020286D6D290020204732312020203B
:1036F000203B20556E69747320696E206D6D00004B
:10370000803B4400803B4400007041000096420032
:1037100000A0420000A0420000C8430080CF43D078
:10372000070000D007000064000000881300006E4E
:103730006F74696669636174696F6E200063616E9E
:1037400063656C005072696E742041626F727465BB
:1037500064004469736D6973730055492041626F59
:1037600072746564004D323520500A4D3234005277
:103770006573756D6500554920506175736500501E
:10378000617573696E672E2E2E006301CB011124C3
:103790001FBECFEFD1E2DEBFCDBF00E00CBF12E015
:1037A000A0E0B2E0E4E5FCE502E00BBF02C0079058
:1037B0000D92A03FB107D9F726E1A0EFB2E001C01A
:1037C0001D92A039B207E1F71BE1C6ECDBE100E096
:1037D00006C021970109802FFE010F94732AC53C72
:1037E000D10780E00807A9F70F94C4160D94182E8E
:1037F0000C9400002F923F924F925F926F927F92B3
:103800008F929F92AF92BF92CF92DF92EF92FF92F0
:103810000F931F93CF93DF93CDB7DEB7E3970FB628
:10382000F894DEBF0FBECDBF8AAB20911D0F28AB31
:1038300021E020931D0F8091FA038D3409F4BBC25F
:10384000843511F40C94BE2C873411F00C94E32CC5
:103850008091F8039091F9038531910511F40C944E
:10386000E52C74F4843091053CF4823091050CF021
:10387000EEC097FF1BC09BC2049709F483C197C297
:103880008A35910509F409C244F48B31910509F494
:10389000B8C14C9709F4F1C18AC28B35910509F47E
:1038A00000C28C35910509F401C281C28091EB06FA
:1038B000813011F00C94E52C0E9436CC86EE94E019
:1038C0000E94A47E8091D60D83FD85C0209177074C
:1038D000309178074091790750917A076091F2040E
:1038E0007091F3048091F4049091F5040F94802377
:1038F000882309F470C08091D20781111BC06091A8
:1039000035107091361080913710909138100F94C7
:10391000F02B20914F023091500221503109621753
:10392000730744F40E9477DC83E99CE20E9473DB16
:1039300011E001C010E020917707309178074091A5
:10394000790750917A076091F2047091F3048091A5
:10395000F4049091F5040F94832A6B017C0120E01C
:1039600030E0A9010F94E42C87FF04C0F7FAF0942B
:10397000F7F8F09420914B0230914C0240914D02A7
:1039800050914E02C701B6010F94E62320E030E8C3
:1039900049ED53E40F94E42C18163CF40E9477DCB4
:1039A00084E79CE20E9473DB02C01123A1F08091A6
:1039B000F2049091F304A091F404B091F504809383
:1039C000770790937807A0937907B0937A0782EFEF
:1039D00094E00E94E8B22AE037ED43E25CE36091B4
:1039E00056027091570280915802909159020F949B
:1039F000E6236B017C016091530270915402072E03
:103A0000000C880B990B0F9487239B01AC01C70115
:103A1000B6010F94E62369837A838B839C838E019E
:103A20000F5F1F4F22EF34E04EEE54E06AEE74E079
:103A300086EE94E00E9434CA80E1E6EEF4E0ABE664
:103A4000B7E001900D928A95E1F70C94E52C209156
:103A5000EB06213011F00C94E52C11E0029709F0EF
:103A600010E00E9436CC19821A821B821C821D82B1
:103A70001E821F82188682E50E9429CC882309F4C1
:103A80004BC00E94A8CB6B017C0120E030E0A90173
:103A90000F948023882309F455C080916B0790917F
:103AA0006C07A0916D07B0916E078CA39DA3AEA388
:103AB000BFA380916F0790917007A0917107B0919B
:103AC00072078CA79DA7AEA7BFA78090E604909031
:103AD000E704A090E804B090E9044090EA04509014
:103AE000EB046090EC047090ED04A50194016CA1CE
:103AF0007DA18EA19FA10F94802381110C94EE2CA7
:103B0000A30192016CA57DA58EA59FA50F9480238E
:103B10008823C1F00C94EE2C89E40E9429CC8823E0
:103B200031F00E94A8CB69837A838B839C838AE4DB
:103B30000E9429CC882331F00E94A8CB6D837E831C
:103B40008F83988720E030E0A90169817A818B8199
:103B50009C810F94802381110C94A22D20E030E0F1
:103B6000A9016D817E818F8198850F9480238111B9
:103B70000C94A22D0E9473DC8CED96E00E9473DB06
:103B80000C94E52C80E50E9429CC882329F00E9422
:103B900060CB6B017C0103C0C12CD12C760183E585
:103BA0000E9429CC882361F00E94A8CB20E030E05D
:103BB0004AE754E40F94E6230F94F72B6B017C0142
:103BC0000E9473AF80911716811105C060E082EFEB
:103BD00096E00F949A100F94A209C60ED71EE81E05
:103BE000F91E0F94A209DC01CB018C199D09AE09C5
:103BF000BF09B7FD02C00C94E52C80E00E94B633EB
:103C0000F0CF0E941AF98E010F5F1F4F882311F425
:103C10000C94C92D82FF03C047ED52E002C04FEE65
:103C200052E081FF03C029ED32E002C02FEE32E006
:103C300080FF03C08BED92E002C08FEE92E05F93B5
:103C40004F933F932F939F938F938BEF96E09F9388
:103C50008F931F930F930F9418230E9477DCC80152
:103C60000E94953360E0C8010F9451110FB6F8948B
:103C7000DEBF0FBECDBF0C94E52C8091190F87706D
:103C8000873011F00C94DA2D60E08FE40E9496D01A
:103C900081110C94E52C0C94DA2D1092710F0C9478
:103CA000E52C8FE08093710F0C94E52C8091F70345
:103CB000882351F1893009F076C065EBA62E62E0C9
:103CC000B62E7BE6C72E77E0D72E00E010E0F12C71
:103CD000D5018D915D010E9429CC882369F00E9455
:103CE000A8CBF6016083718382839383F3E0FF1294
:103CF00002C011E001C001E0F39424E0C20ED11C27
:103D000034E0F312E5CF44C045EBC42E42E0D42E9C
:103D10005BE6E52E57E0F52E00E010E0312CD601F1
:103D20008D916D010E9429CC882359F10E94A8CB66
:103D30004B015C01F70120813181428153810F9455
:103D4000832A2B013C012DEB37E346E855EB0F941A
:103D5000E42C87FD0AC02DEB37E346E855E3C301A9
:103D6000B2010F948023181664F4F3E03F1202C0EE
:103D700011E001C001E0D7018D929D92AD92BC92FD
:103D800013973394B4E0EB0EF11CE4E03E12C7CF7E
:103D9000002319F00E94DC7F06C0112321F087E781
:103DA00097E00E94E8B20E941E800C94E52C0E94CD
:103DB00013F80C94E52C8091F8039091F903853762
:103DC000910509F4B3C70CF046C18C34910509F490
:103DD00085C40CF05DC08931910509F48EC31CF5D2
:103DE0008431910509F4C3C27CF48131910509F451
:103DF0009DC22CF4029708F44FC20C94BB2C42973E
:103E000009F49AC60C94BB2C8631910509F4E4C2DE
:103E10000CF4DEC28731910509F4EEC2489709F42B
:103E200002C30C94BB2C8E31910509F4E7C3ACF4AA
:103E30008B31910509F473C30CF463C38C31910584
:103E400009F4D4C34D9711F00C94BB2C8091151339
:103E50008E7F809315130C94E52C8132910509F423
:103E600006C44CF48F31910509F405C4809709F418
:103E7000D5C30C94BB2C8934910509F41CC48B3434
:103E8000910511F00C94BB2C0E94DE310C94E52CB2
:103E90008936910509F40DC564F58335910509F45A
:103EA00044C6BCF48E34910509F420C40CF41AC441
:103EB0008135910509F423C68235910511F00C94E2
:103EC000BB2C8091710F8F7D80618093710F0C945A
:103ED000E52C8535910509F465C60CF42DC68C35A5
:103EE000910509F482C68836910509F491C40C94B1
:103EF000BB2C8E36910509F441C58CF48B369105A7
:103F000009F42EC50CF4E9C48C36910511F40C9417
:103F1000E52C8D36910509F4A2C40C94BB2C813795
:103F2000910509F482C55CF48F36910509F439C511
:103F30008037910511F40C94E52C0C94BB2C82373E
:103F4000910509F4F0C68337910511F00C94BB2C50
:103F500088E599E00E9473DB60E088E499E00E94C4
:103F6000574E60E083E399E00E94574E61E080E1A4
:103F700090E20E94574E61E088E299E00E94574E1D
:103F800061E088E199E00E94574E60E08FE099E09F
:103F90000E94574E61E085E099E00E94574E60E034
:103FA0008BEF98E00E94574E61E088EA9BE00E9408
:103FB000574E60E083EF98E00E94574E60E085EE38
:103FC00098E00E94574E61E087ED98E00E94574EBE
:103FD00060E088EC98E00E94574E60E08AEB98E041
:103FE0000E94574E60E084EA98E00E94574E61E0DC
:103FF00083E998E00E94574E61E084E898E00E94CF
:10400000574E61E08DE798E00E94574E61E088E6E8
:1040100098E00E94574E61E08AE598E00E94574E72
:1040200061E087E498E00E94574E60E08AE398E000
:104030000E94574E61E085E398E00E94574E60E091
:1040400088E298E00E94574E60E084E198E00E9488
:10405000574E0C94E52C8F32F1E09F0711F40C942D
:104060008D2A0CF073C0883C910509F429C7A4F58A
:104070008D37910509F440C5BCF48737910509F4E3
:10408000A0C60CF464C68837910509F49DC689372B
:10409000910511F00C94BB2C109221051092200573
:1040A0000E94C8800C94E52C8139910509F494C6CE
:1040B00034F48C38910509F4DAC40C94BB2C8B3998
:1040C000910509F4F3C48E3B910511F00C94BB2CBF
:1040D0000E94F5430C94E52C833D910509F4C6C775
:1040E000ACF48B3C910509F458C734F4893C910534
:1040F00009F42DC70C94BB2C8C3C910509F46FC7B7
:104100008D3C910509F49FC70C94BB2C8C32A1E027
:104110009A0711F40C94422964F48C3D910511F432
:104120000C94C6288D3D910511F40C94ED280C9447
:10413000BB2C8D32E1E09E0711F40C9457298E328E
:10414000914011F40C94492A0C94BB2C883F31E027
:10415000930711F40C94102B0CF04DC08D39B1E085
:104160009B0711F40C94762CDCF48039F1E09F0766
:1041700011F40C94902A3CF48033914011F40C9487
:10418000D6290C94BB2C8A39A1E09A0711F40C941F
:10419000E52C8C39914011F40C94932A0C94BB2C8F
:1041A000853FE1E09E0711F40C940A2B7CF4863ED7
:1041B00021E0920711F40C949E2A843F914011F063
:1041C0000C94BB2C0E94578E0C94E52C863FA1E0EA
:1041D0009A0711F40C940D2B873F914011F00C9429
:1041E000BB2C61E083E50E9496D091E089270F9473
:1041F000110E0C94E52C8E3BE2E09E0711F40C941A
:10420000A92BECF4883522E0920711F40C942D2BA5
:104210003CF48C30924011F40C94202B0C94BB2C69
:104220008B35B2E09B0711F40C94302B8D3B924000
:1042300011F00C94BB2C0E9463CD0C94E52C873EAE
:10424000F3E09F0711F40C94682CCCF48C3633E027
:10425000930711F40C94E52C803A934011F00C94E0
:10426000BB2C2091870430918804909115139260A3
:1042700090931513C9010E94CDEB0C94E52C883E58
:10428000B3E09B0711F40C94972C893E934011F4F2
:104290000C949A2C0C94BB2C80E50E9429CC88238A
:1042A00029F00E9460CB6B017C0103C0C12CD12C92
:1042B000760183E50E9429CC882361F00E94A8CB77
:1042C00020E030E04AE754E40F94E6230F94F72B04
:1042D0006B017C010E9473AF8091870490918804E8
:1042E000009721F061E00F94511105C060E08DE16D
:1042F00097E00F949A108091F8039091F903892B1D
:1043000019F065E177E002C06DE077E020E030E091
:1043100045E052E382E00E94F4DB40E0C701B601D1
:104320000E946C3A0E94D6F70C94E52C8091F3031E
:1043300084FF02C00C948D2F8091F50387FF02C08B
:104340000C948D2F8091F603837011F00C948D2FB7
:1043500060E080E397E00F949A105F988A988091CC
:10436000080181708093060112980C94E52C8091CD
:10437000151383FF25C088E497E00E9473DB8091CA
:10438000151383FF17C084E393E10E9497A58BE187
:10439000E4E3F3E1DE01119601900D928A95E1F7D5
:1043A00060E070E0CE0101960E940CF5CE0101960E
:1043B0000E94C3D089E397E00E9473DB0C94E52C44
:1043C0000E9477DC89E597E00E9473DB0C94E52C72
:1043D0000E94EDEE0C94E52C8091151382FF02C033
:1043E0000C94E52C0E94A3EA80911513877F8062CC
:1043F000809315130C94E52CE0918704F0918804C8
:104400008081882329F0803209F410823196F8CF18
:1044100060E080918704909188040E9417EC1092CC
:10442000270E0C94E52C83E50E9429CC882321F0EB
:104430000E9470CB0E949C4784E50E9429CC88236F
:10444000A9F00E9470CB6B017C010E949682C09201
:104450005B07D0925C07E0925D07F0925E07CD2883
:10446000CE28CF2819F081E08093700F8091700ED4
:104470008823F9F080E090E0A0EAB1E489839A8390
:10448000AB83BC831C8E1D8E1E8E1F8E18A219A29C
:104490001AA21BA200E010E020E0AE014F5F5F4FC8
:1044A000BE01645E7F4FCE0180960E941EDD0C949B
:1044B000E52C0E94BA31882381F00E94B4EA0E9460
:1044C000DE3181EB9FE00E9459EA1092FB031092CB
:1044D000FC031092FD031092FE0361E087E190E27D
:1044E0000E9482DB42E557E363E677E085E00E94C5
:1044F00011F90E94D6F70C94E52C0E9491CE0C94F1
:10450000E52C8091151383FD02C00C94E52C83E506
:104510000E9429CC81110C94A92F0C94E52C83E4E2
:104520000E94DBCB8823C1F189E797E00E9473DB0F
:1045300080917B14882339F1BE016F5F7F4F88E73C
:1045400094E10E945EA48E010F5F1F4FD8018D91F0
:104550008D01882319F00E948A32F8CFCE0101968E
:104560000E949FEB80912E0F882389F080E20E94A9
:104570008A320EE21FE0F80181918F01882339F021
:104580000E948A32F8CF8FE697E00E9473DB8AE0C0
:104590000E948A320C94E52C83E50E9429CC882362
:1045A00009F10E9484CB182F90E0CD970CF01CE30A
:1045B0001093F4020F94A2096B017C01212F30E0CB
:1045C000A8EEB3E00F94032AC60ED71EE81EF91E0C
:1045D000C092F002D092F102E092F202F092F30265
:1045E0000C94E52C0E9429EA0C94E52C8091870418
:1045F000909188040E94CDEB0C94E52C80911513CA
:1046000083FD02C00C94E52C0E94F9F78091870489
:10461000909188040E9477EE0C94E52C80911513FC
:1046200082FD0E9473AF8091151383FD02C00C942C
:10463000E52C60E080E50E9496D0182F682F8091CD
:104640008704909188040E9417EC83E50E9429CC8E
:10465000882321F00E9470CB0E949C470E94B4EAFC
:1046600011110C94E52C0E94DE310C94E52C0E9473
:10467000CC460C94E52C0E9462826C8F7D8F8E8FCD
:104680009F8FBE016F5F7F4FCE014C960E94ED451C
:1046900060E0CE0101960F9451110E9477DCBE01BB
:1046A0006F5F7F4F88E897E00E9460DC8AE00E949D
:1046B0008A320C94E52C80E50E94DBCB882311F430
:1046C0000C94E52C0E9484CB90E08536910510F087
:1046D00084E690E08093270E0C94E52C0E94B18232
:1046E0000C94E52C0E948CAE0C94E52C60E070E0FC
:1046F00083E50E9470CF8E34910531F40E94FDAEA7
:104700000E94D6F70C94E52C8BEE97E00E9473DBA9
:10471000609110057091110582EE97E00E9435DCE2
:10472000609112057091130585ED97E00E9435DCCC
:1047300060911005709111058091120590911305FB
:10474000681B790B8091700F815021E030E082303E
:1047500010F020E030E0621B730B8AEC97E00E94BF
:1047600035DC8AE00E948A328BEE97E00E9473DB90
:104770008091140590911505A0911605B09117052B
:104780008C8F9D8FAE8FBF8FBE016F5F7F4FCE012D
:104790004C960E94ED45BE016F5F7F4F8DEB97E019
:1047A0000E9460DC8091180590911905A0911A056E
:1047B000B0911B058C8F9D8FAE8FBF8FBE016F5F39
:1047C0007F4FCE014C960E94ED45BE016F5F7F4F3B
:1047D0008DEA97E00E9460DC20E030E04AE754E494
:1047E00060911C0570911D0580911E0590911F051B
:1047F0000F947E2BAB01BC0185E997E00E9442DC5F
:104800008DE60E948A328AE00E948A320C94E52C5E
:104810008091D60D83FF02C00C94E52C0E943ACD06
:1048200087FF02C00C94E52C89E40E9429CC8823E0
:1048300011F40C94AE2F0E9484CB90E01816190648
:1048400014F481E090E026E0289FF001299FF00D0C
:104850001124E150FA4E808191810C94B82F8091FF
:10486000D60D83FF02C00C94E52C0E943ACDF82EA1
:1048700087FF02C00C94E52C89E40E9429CC082F04
:10488000882311F40C94C12F0E9484CB90E0181659
:10489000190614F481E090E026E0289FF001299F9A
:1048A000F00D1124E150FA4E8081918110E00C94BA
:1048B000D12F0E943ACD182F87FD0AC08AE49EE0CE
:1048C0000E9473DB812F0E94D6A98AE00E948A325F
:1048D000F8A9F0931D0F0C94743180E50E9426F91D
:1048E000F82E21E0281710F40C94E52C81E40E94A6
:1048F000DBCB882329F06091C007062F10E002C0AF
:104900000FEF10E089E40E9429CC882399F00E94DF
:1049100084CB90E01816190614F481E090E026E0AC
:10492000289FF001299FF00D1124E150FA4E0481D7
:10493000158108C083E50E9429CC882319F00E94C4
:1049400070CB8B01EF2DF0E0E054F84FB8010F3F32
:10495000110519F010F06FEF70E060830C94E52CF6
:1049600080E50E9426F9823010F00C94E52CE82FA7
:10497000F0E0E054F84F10820C94E52C8EE40E9495
:1049800029CC882311F40C94E52C0E9470CB609301
:1049900083047093840480938504909386040C941C
:1049A000E52C83E50E94DBCB882329F083E50E9478
:1049B00026F98093D60D0E9477DC88EF97E00E945D
:1049C00073DB8091D60D882369F132E5E32E3BE05D
:1049D000F32E00E010E020E08091D60D90E0A0E002
:1049E000B0E0002E04C0B695A795979587950A94D8
:1049F000D2F780FF0EC0DD24D394D20E222319F00B
:104A00008CE20E948A32F701859194910E9473DBB7
:104A10002D2D0F5F1F4F32E0E30EF11C0530110505
:104A2000D9F6B5CD8CEC9EE2B0CD83E50E9429CCC1
:104A3000882371F00E9484CB282F30E02D3331057C
:104A40001CF480930002C1C78CE380930002BDC7B1
:104A50000E9477DC4091000250E060E070E08FEF50
:104A600097E00E9424DC8AE00E948A32AEC78091DF
:104A7000D60D83FDAAC789E40E9429CC882311F4AE
:104A80000C941A300E9484CB90E01816190614F486
:104A900081E090E026E0289FF001299FF00D11248D
:104AA000E150FA4E628173810C94243083E50E94B8
:104AB00029CC882309F489C70E9484CB182F90E061
:104AC000CD970CF01CE31093F9020F94A2096B012F
:104AD0007C01212F30E0A8EEB3E00F94032AC60E2C
:104AE000D71EE81EF91EC092F502D092F602E0929F
:104AF000F702F092F80269C70E9491CE66C70E9441
:104B0000349A0E948CAE0E9484AF0E94F13168EE0C
:104B100073E080E090E00E944FDB0E94F63160E09D
:104B200086E098E00F949A1050C78091710F8F7EA5
:104B300080628093710F49C783E50E9429CC882346
:104B4000E9F00F94A20960934E0770934F0780938A
:104B50005007909351070E94A8CB20E030E04AE72D
:104B600054E40F94E6230F94F72B609301027093A3
:104B70000202809303029093040227C78091F303FB
:104B800084FF02C00C9437308091F50387FF02C088
:104B90000C9437308091F603837011F00C94373009
:104BA0000C94683083E50E94DBCB882309F40DC7A1
:104BB0000F94A20960934E0770934F07809350079C
:104BC000909351070E94A8CB20E030E04AE754E4DC
:104BD0000F94E6230F94F72B6093FA027093FB0275
:104BE0008093FC029093FD02F0C60E943ACD87FDAF
:104BF000ECC69091F30394FD04C09091F50397FFE8
:104C00000AC095EBC92E92E0D92E27EDE22E2DE0B9
:104C1000F22E10E009C09091F603937091F7682F7F
:104C200081E00E9425CBD1C6D6018D916D010E94F5
:104C300029CC882309F46DC0133009F063C00E94A9
:104C4000A8CB4B015C0120E030E040EA51E40F9436
:104C5000802387FF4EC0A50194016091F70D7091EC
:104C6000F80D8091F90D9091FA0D0F947E2B2B0188
:104C70003C019B01AC016091A4077091A507809154
:104C8000A6079091A7070F94E6236093A40770935B
:104C9000A5078093A6079093A707A30192016091AF
:104CA000070E7091080E8091090E90910A0E0F94D4
:104CB000E6236093070E7093080E8093090E90937D
:104CC0000A0E6091B4077091B5078091B607909174
:104CD000B7070F948523A30192010F94E6230F9445
:104CE000F72B6093B4077093B5078093B607909342
:104CF000B7078092F70D9092F80DA092F90DB0923F
:104D0000FA0D07C00E94A8CBF701648B758B868BC8
:104D1000978B1F5FF4E0EF0EF11C143009F084CF85
:104D20000E941DB452C60E94714E4FC680918704E6
:104D300090918804009741F0DC012C91222321F00E
:104D400060E00F94511141C60E94D6F73EC6009113
:104D500087041091880494E0F12C40E0915021F1F7
:104D6000F8018081282F2B7F213421F421812133E8
:104D7000D9F407C08035C1F4818180538A3048F06E
:104D800013C0813421F0853421F441E002C0FF24B6
:104D9000F39498012E5F3F4F89012F5F3F4FF80139
:104DA00080818032C9F3DACF41110E9477DCFF2085
:104DB00021F089E39AE00E9473DBC8010E949533D9
:104DC00004C60E94A58001C681E0809321058093DE
:104DD00020050E94C880F9C560E070E083E50E946C
:104DE00070CF823038F00E9473DC8DE39AE00E942D
:104DF00073DBEBC58C01112788E40E9429CC882342
:104E0000E1F00E9480CB8A3A910544F00E9480CB69
:104E10008530914034F40E9480CB05C08AEA90E04E
:104E200002C084E091E026E0209FF001219FF00D78
:104E30001124E150FA4E9183808382E40E9429CCB0
:104E40008823D9F00E9480CB059744F00E9480CB44
:104E50008F36910534F40E9480CB05C085E090E048
:104E600002C08EE690E026E0209FF001219FF00D29
:104E70001124E150FA4E9383828386E40E9429CC68
:104E8000882309F4A2C50E9480CB97FD09C00E9427
:104E900080CB8F3F910509F034F40E9480CB05C090
:104EA00080E090E002C08FEF90E026E0209FF001CC
:104EB000219FF00D1124E150FA4E9583848385C51E
:104EC0000E943ACD182F87FD80C500918D0F84E494
:104ED0000E9429CC882311F40C946B300E94A8CB3B
:104EE0006B017C0120E030E0A9010F94802388232E
:104EF00041F124E01202F0011124E757F04FC08283
:104F0000D182E282F38220E030E0A9016091890F32
:104F100070918A0F80918B0F90918C0F0F9480234A
:104F200081110CC080E090E0A0EEBFE38093890F78
:104F300090938A0FA0938B0FB0938C0F01E00C9489
:104F40006B3080E080938D0F0E94CBAD3EC50E94F8
:104F50003ACD87FD3AC5B5EBEB2EB2E0FB2E07ED5F
:104F60001DE087EEC82E8DE0D82ED7018D917D01F2
:104F70000E94DBCB882359F00E94A8CB0F94F72B1B
:104F8000F80160837183828393830E942CAF0C5F4E
:104F90001F4FC016D10649F718C50E943ACD87FDAC
:104FA00014C5F5EBEF2EF2E0FF2E07ED1DE0A7EEA6
:104FB000CA2EADE0DA2ED7018D917D010E94DBCBA8
:104FC000882339F00E94A8CBF80164A375A386A3B7
:104FD00097A30C5F1F4FC016D10669F7F6C48091E6
:104FE000F40387FF02C00C9471308091F5038E703A
:104FF00011F00C94713040910B0E50910C0E609199
:105000000D0E70910E0E8FE59AE00E9442DC4091E9
:105010000F0E5091100E6091110E7091120E81E8DA
:1050200094E30E9442DC4091130E5091140E609163
:10503000150E7091160E8BE192E30E9442DC8AE01D
:105040000E948A32C2C48091F303827111F00C94E1
:10505000B7308091F5038C7811F00C94B7308091C3
:10506000F603837011F00C94B730AFC48091320214
:1050700090913302A0913402B09135028CA39DA38C
:10508000AEA3BFA340903602509037026090380222
:105090007090390280903A0290903B02A0903C02BE
:1050A000B0903D02C0903E02D0903F02E09040029E
:1050B000F09041028091420290914302A0914402FB
:1050C000B091450288A799A7AAA7BBA780914602DD
:1050D00090914702A0914802B09149028CA79DA7E8
:1050E000AEA7BFA70E9477DC8FE79AE00E9473DB30
:1050F00083E50E94DBCB882321F00E9498CB80932C
:10510000300280913002882319F086E497E102C0D2
:1051100084E599E00E9473DB87E79AE00E9473DBE5
:105120004CA15DA16EA17FA181E496E30E9442DCC7
:10513000B301A2018AE496E20E9442DCB501A40117
:105140008EE396E20E9442DC82EA9EE20E9473DBDA
:105150008FE69AE00E9473DBB701A60181E496E333
:105160000E9442DC48A559A56AA57BA58AE496E27F
:105170000E9442DC4CA55DA56EA57FA58EE396E25C
:105180000E9442DC8AE00E948A321FC483E50E94AA
:1051900029CC882331F00E9480CB909354028093D5
:1051A00053028091F3039091F403A091F503B09121
:1051B000F603892B8A2B8B2B09F007C460915302CD
:1051C000709154028FE89AE00E9453DC85E20E94BD
:1051D0008A328AE00E948A32F8C30E943ACDF82EC1
:1051E00087FDF3C383E50E9429CC0F2D0F2C000C03
:1051F000110B882361F10E9480CBF801EE0FFF1F95
:10520000EE5DFD4F91838083000F111F000F111F72
:10521000D801A55BBD4F7D01BC01990F880B990B8F
:105220000F9487232AE037ED43E25CE30F94E623F3
:10523000F801ED5AF84F20813181428153810F945A
:10524000E623F7016083718382839383BEC30E9448
:1052500077DC85E40E948A3280E38F0D0E948A32D7
:10526000000F111FF801EE5DFD4F6081718183E930
:105270009AE00E9453DC85E20E948A328AE00E9412
:105280008A32A3C364E071E083E50E945DCF8C01A4
:1052900068EE73E080E50E945DCF8938F3E19F07F7
:1052A00010F088E893E1B8010E940B888EC385E472
:1052B0000E9426F9811173C080E50E94DBCB882310
:1052C00051F00E94A8CB60933C1070933D108093E6
:1052D0003E1090933F1089E40E94DBCB882381F03D
:1052E0000E94A8CB2CEA35EC47E25EE30F94E6235C
:1052F000609340107093411080934210909343103C
:1053000084E40E94DBCB882381F00E94A8CB2CEAA6
:1053100035EC47E25EE30F947E2B6093441070936C
:10532000451080934610909347100E9477DC40917F
:105330003C1050913D1060913E1070913F1083EAF7
:105340009AE00E9442DC2CEA35EC47E25EE3609191
:1053500040107091411080914210909143100F9431
:105360007E2BAB01BC018FE99AE00E9442DC2CEA63
:1053700035EC47E25EE360914410709145108091F6
:105380004610909147100F94E623AB01BC018BE9C6
:105390009AE00E9442DC8AE00E948A3216C30E9490
:1053A00073DC87EA9AE00E9473DB0FC380E50E94FA
:1053B000DBCB882351F00E94A8CB60937D0F7093C4
:1053C0007E0F80937F0F9093800F89E40E94DBCB48
:1053D000882381F00E94A8CB2CEA35EC47E25EE3FB
:1053E0000F94E6236093810F7093820F8093830F55
:1053F0009093840F84E40E94DBCB882381F00E9489
:10540000A8CB2CEA35EC47E25EE30F947E2B609349
:10541000850F7093860F8093870F9093880F0E945B
:1054200077DC40917D0F50917E0F60917F0F7091DE
:10543000800F83EA9AE00E9442DC2CEA35EC47E2D6
:105440005EE36091810F7091820F8091830F909144
:10545000840F0F947E2BAB01BC018FE99AE00E9470
:1054600042DC2CEA35EC47E25EE36091850F7091F7
:10547000860F8091870F9091880F0F94E623AB01E0
:10548000BC018BE99AE00E9442DC8AE00E948A32E9
:105490009CC283E50E94DBCB182F882371F00E9409
:1054A000A8CB0F94F02B7093500260934F0221E031
:1054B000672B09F020E02093D20780E50E94DBCB28
:1054C000882359F020914F0230915002232B11F084
:1054D0000E9498CB8093D20778C2111176C20E94A5
:1054E00077DC82ED9AE00E9473DB8091D2078823FB
:1054F00019F08AE598E102C089EB9AE00E9473DB1B
:1055000060914F027091500281EC9AE00E9453DC4E
:105510008DEB9AE00E9473DB58C20E94C77755C298
:105520000E9473AF52C28091F303887809F08AC653
:105530008091F503867009F085C6B2C684E50E94A5
:10554000DBCB8823A1F01092D8041092D9041092DA
:10555000DA041092DB041092DC048FEF0E940FDB60
:1055600061E070E084E50E9470CF8093DC0483E505
:105570000E94DBCB882321F00E9480CB0E940FDBAE
:1055800083E40E94DBCB882331F080910B028032D0
:1055900010F40E94E3DA80E50E94DBCB882331F02F
:1055A0000E9480CB803210F40E94E3DA85E50E94ED
:1055B000DBCB882309F409C20E9480CB803208F03B
:1055C00004C241E050E0082E02C0440F551F0A9467
:1055D000E2F740955095052E000C660B770B009175
:1055E000D8041091D9042091DA043091DB044023CF
:1055F0005123622373234093D8045093D9046093BA
:10560000DA047093DB0490910B028913DEC11092CF
:10561000D50DDBC10F94030ED8C10F94AB0CD5C1CF
:105620002093F5150E9442881092F515882309F4FD
:10563000CCC10E9477DC86E19BE00E9473DBC5C190
:105640008091151382FF04C0806480931513BDC13F
:1056500083FFBBC10E94F9F7B8C10E947FCFB5C1DB
:105660000E943ACD082F87FDB0C185E50E94DBCBB3
:105670008823B1F1E02E002E000CFF080E94A8CB79
:105680004B015C0120E030E0A9010F94E42C87FF7E
:1056900004C0B7FAB094B7F8B094C70153E0880FCC
:1056A000991F5A95E1F79C012A503A4E7901D90188
:1056B0008D929D92AD92BC92139720E030E849ED17
:1056C00053E4C501B4010F94E42C18164CF480E0A7
:1056D00090E8A9EDB3E4F70180839183A283B383BB
:1056E0008CE40E94DBCB882309F46FC1002E000CF0
:1056F000110B0E94A8CB6B017C0120E030E0A901D6
:105700000F94E42C87FF04C0F7FAF094F7F8F094B4
:1057100020E030E849ED53E4C701B6010F94E42CD2
:10572000980143E0220F331F4A95E1F7F901EA504F
:10573000FA4E18162CF0C482D582E682F78245C153
:1057400080E090E8A9EDB3E484839583A683B783D2
:105750003CC10E943ACD182F87FD37C18AE50E94CF
:1057600029CC882349F040E050E0BA018AE50E9444
:10577000B0774B015C0106C0812C912C90E2A92EE0
:1057800091E4B92E412F64E083E00E94E5BB20E064
:1057900030E0A901C501B4010F94E42C18167CF582
:1057A00080E090E0A0EAB0E489839A83AB83BC8375
:1057B00020917307309174074091750750917607D7
:1057C000C501B4010F94842A6B017C0120E030E014
:1057D00048EC53E40F94802387FD06C0C12CD12CE4
:1057E00088ECE82E83E4F82ECC8EDD8EEE8EFF8ED4
:1057F000BE016F5F7F4FCE014C960E94677F85E5AB
:105800000E94DBCB882329F00E94A8CB6B017C018E
:105810000AC028E01202F0011124EA50FA4EC080BA
:10582000D180E280F38020E030E0A901C701B60119
:105830000F94E42C87FF04C0F7FAF094F7F8F09483
:10584000F7FAF094F7F8F094C982DA82EB82FC82DE
:1058500044E061E0CE0101960E94FFDE20E030E0EE
:10586000A901C501B4010F94E42C18165CF580E081
:1058700090E0A0EAB0E489839A83AB83BC83A5015E
:1058800094016091730770917407809175079091EE
:1058900076070F94832A6B017C0120E030E0A90198
:1058A0000F94E42C18161CF0C12CD12C7601CC8E50
:1058B000DD8EEE8EFF8EBE016F5F7F4FCE014C9668
:1058C0000E94677F40E060E089E00E94E5BB7DC008
:1058D00081E08093EB0610926C1660E083E50E94F5
:1058E00096D0811172C00E942B486FC083E50E9440
:1058F000DBCB882339F00E9498CB8093FE150E9461
:10590000B3D063C00E9477DC81E29BE00E9473DB2E
:105910008091FE15882319F086E497E102C084E5A2
:1059200099E00E9473DB8AE00E948A324EC00E9496
:105930001AD14BC00E9462826D33710581059105B9
:1059400020F08EE49BE00F9432168AE49BE00F94E3
:10595000321684EE8093270E0E94ABD00E94E2EEB6
:1059600086E39BE00E9473DB8DE096E2909327052F
:10597000809326052AC00E9413F827C00091F803DF
:105980001091F9030F94A20960934E0770934F078B
:1059900080935007909351070023B9F00E9477DC61
:1059A00084E50E948A32B8017727072E000C880B05
:1059B000990B0E94FE3280E20E948A3287EA9AE0C6
:1059C0000E9473DB02C00E9413F83AA9311102C091
:1059D0000E94E54788A980931D0F86C420E030E02F
:1059E000A901C701B6010F948023881F8827881F4B
:1059F000181709F4A2C080E090E0A0E8BFEB88A7E8
:105A000099A7AAA7BBA72CA13DA14EA15FA1C50143
:105A1000B4010F94832A20E030E040E05FE30F946C
:105A2000E6236CA37DA38EA39FA32CA53DA54EA525
:105A30005FA5C301B2010F94832A20E030E040E06B
:105A40005FE30F94E6232B013C012CA13DA14EA165
:105A50005FA1CA01B9010F94E6234B015C01A301C8
:105A60009201C301B2010F94E6239B01AC01C50171
:105A7000B4010F94842A0F94322D4B015C019B01D9
:105A8000AC01C701B6010F94832A6CA77DA78EA72E
:105A90009FA7A5019401C701B6010F94842A9B0119
:105AA000AC016CA57DA58EA59FA50F94E6236B0187
:105AB0007C0120E030E0A9010F94E42C87FD07C0B1
:105AC000C701B6010F94322D6B017C0103C0C12CBC
:105AD000D12C7601C301B2019058A50194010F9415
