:100000000C94BF230C94FF230C94FF230C94FF2328
:100010000C94FF230C94FF230C94FF230C94FF23D8
:100020000C94FF230C94FF230C94FF230C94FF23C8
:100030000C94FF230C94FF230C94FF230C94FF23B8
:100040000C94FF230C943AC90C94FF230C94FF23C7
:100050000C94FF230C94FF230C9434C50D94F00AE8
:100060000C94FF230C94FC440C94E8440C94FF2360
:100070000C94FF230C94FF230C94FF230C94FF2378
:100080000C94DA430C94FF230C94FF230C94FF236D
:100090000C9408440C94F2440C94FF230C94FF231A
:1000A0000C94FF230C94FF230C94AC430C94FF237B
:1000B0000C94FF230C94FF230C94FF230C94FF2338
:1000C0000C94FF230C94FF230C94FF230C94FF2328
:1000D0000C94FF230C94FF230C94FF230C94FF2318
:1000E0000C94FF23E43BE93BEE3BF83B023C7B3CBA
:1000F0000C3C143C1C3C263C303C3A3C493C533CB8
:100100007B3C5D3C673C713C374449445B446C44F8
:100110007444A3447844A3447C448044A34484446A
:1001200088448C449444A3449E442B453D454F450C
:100130006045684597456C459745704574459745BA
:1001400078457C458045884597459245A39B869B8D
:10015000899BA69B8C9B8F9B929B9E9B959BB19B07
:10016000989B9B9B5C014E015A0176014A01460116
:1001700042013201A401AE019C01660154018001DB
:1001800046018A0124016A016E01300148013801EB
:100190004801480148014801480148014801480117
:1001A0004801480148014801480148014801480107
:1001B00048014801480148014801480148014801F7
:1001C000480148012C014801480148014801480103
:1001D00048014801480168014801480148014801B7
:1001E0004801480148014801480148018201B00125
:1001F000084AD73B3BCE016E84BCBFFDC12F3D6C8E
:1002000074319ABD56833DDA3D00C77F11BED9E4F3
:10021000BB4C3E916BAAAABE000000803F05A84CD3
:10022000CDB2D44EB93836A9020C50B9918688089F
:100230003CA6AAAA2ABE000000803F000D94EA0A4C
:100240000D94D83E0D94B9400D945F100D94524119
:100250000D94AF360D94CA3A0D94F3610D94625F1C
:100260000D94DB5F0D9439100D94D9360D94D5366D
:100270000D94F8610D94B8320D94DD3E0D945C5FE1
:100280000D94E23E0D9435100D94A33E0D9468102C
:100290000D94F75F0D9428100D94BD400D9431100E
:1002A0000D9420440D94A8360D9451100D94EC3209
:1002B0000D94C00A0D9420100D942E100D946841D9
:1002C0000D94733E0D94063F0D94A1230D944D1093
:1002D0000D94CD610D9463100D948E720D94B961DF
:1002E0000D94FF3B0D945B380D94B5360D9424109E
:1002F0000D94DE360D9435390D9470720D945A3686
:100300000D9455100D9402620D94D33E0D945F5FD1
:100310000D94B1400D945B100D94FE400D94BB3EC6
:100320000D9433360D945B410D94D2320D941D43E0
:100330000D9495230D94483E0D9447100D94B540AF
:100340000D949E320D94E73E0D943F100D94513E56
:100350000D9440360D94D5680D949E360D9443103F
:100360000D94C9610D948B3E4E414E494E495459EE
:10037000494E46CDCCCC3D0AD7233C17B7D1387770
:10038000CC2B329595E6241FB14F0A000020410086
:1003900000C84200401C4620BCBE4CCA1B0E5AAED0
:1003A000C59D7400407A10F35A00A0724E180900DF
:1003B00010A5D4E80000E87648170000E40B5402CA
:1003C0000000CA9A3B000000E1F505000080969805
:1003D00000000040420F000000A086010000001055
:1003E0002700000000E80300000000640000000097
:1003F000000A00000000000100000000002C76D878
:1004000088DC674F0823DFC1DFAE59E1B1B796E55D
:10041000E3E453C63AE651997696E8E6C28426EBC1
:10042000898C9B62ED407C6FFCEFBC9C9F40F2BAD4
:10043000A56FA5F490055A2AF75C936B6CF9676D6C
:10044000C11BFCE0E40D47FEF520E6B500D0ED90C1
:100450002E0300943577050080841E080000204E8E
:100460000A000000C80C333333330F986E12831127
:1004700041EF8D2114893BE65516CFFEE6DB18D1FE
:10048000844B381BF77C1D901DA4BBE424203284D0
:10049000725E228100C9F124ECA1E53D27434F4D56
:1004A0004D554E49434154494F4E004452595255BF
:1004B0004E004552524F525300494E464F0045435D
:1004C000484F0047322F47332062616420706172C9
:1004D000616D65746572730A0047322F473320627D
:1004E000616420706172616D65746572730A005396
:1004F0006C6565702E2E2E005A2050726F6265203A
:1005000050617374204265640A005A2050726F6211
:10051000652050617374204265640070726F62657B
:100520005F726577697065004D3131372050726FA9
:100530006265206661696C65642E2052657769701A
:10054000696E672E0A4732380A4731322050302010
:100550005331322054300047323920526574727959
:10056000696E670070726F62655F6661696C656471
:100570000050726F62696E67204661696C65640045
:100580004D31313720426564206C6576656C696E4B
:1005900067206661696C65642E0A4730205A3130E5
:1005A0000A4D3330302050323520533838300A4D20
:1005B000333030205035302053300A4D3330302026
:1005C00050323520533838300A4D333030205035D2
:1005D000302053300A4D33303020503235205338DC
:1005E00038300A4D333030205035302053300A47F0
:1005F00034205331004D31313720426564206C6521
:1006000076656C696E6720646F6E652E00205A3ABD
:10061000200020593A200042656420583A20004DBD
:1006200065736820706F696E74206F7574206F66D3
:100630002072616E67650A004D302053746F700040
:100640004D312053746F7000436C69636B20746F7D
:1006500020526573756D652E2E2E00456E642066E2
:10066000696C65206C6973740A00426567696E2065
:1006700066696C65206C6973740A004E6F206D6545
:100680006469610A00526573756D696E6720534431
:1006900000286E6F2066696C65290043757272656B
:1006A0006E742066696C653A20005344207072694C
:1006B0006E74696E67206279746520004E6F7420D5
:1006C0005344207072696E74696E670A00507269D3
:1006D0006E742074696D653A20006F6B006F6666FA
:1006E00000BE04B904B204AB049D0444454255471E
:1006F0003A004D31313320530043522D31302056D2
:1007000033204F46462E002F2F004D3134352053D5
:100710003C696E6465783E206F7574206F66207248
:10072000616E67652028302D31290A00206C696DC3
:100730006974656420746F2000204D617820004644
:10074000656564726174650046523A0020466C6FBC
:10075000773A2000206F7574206F662072616E6793
:10076000650A00536572766F20003A2000205365B9
:1007700072766F200050726F6265204F66667365F7
:1007800074205A0050726F6265204F6666736574FC
:10079000205A0064697300656E0043290A00616293
:1007A0006C656420286D696E2074656D702000434F
:1007B0006F6C64206578747275646573206172650E
:1007C00020004F4646004F4E00203B20486F737478
:1007D0002068616E646C696E6720006D6D00203B5F
:1007E0002044697374616E6365200046696C616DB5
:1007F000656E742072756E6F757420004D343231E1
:1008000020696E636F727265637420706172616DCE
:10081000657465722075736167650A004D6573685C
:1008200020706F696E74206F7574206F662072611E
:100830006E67650A00454550524F4D204F4B0A00E8
:100840004D383400446F6E65207072696E74696E45
:10085000672066696C650A004D3737004D333100FB
:100860004572726F722077726974696E6720746F57
:1008700020454550524F4D210A0053544F5050458A
:10088000442E20005072696E7465722073746F700C
:100890007065642064756520746F206572726F7274
:1008A000732E2046697820746865206572726F72B5
:1008B00020616E6420757365204D39393920746F5D
:1008C00020726573746172742E202854656D706592
:1008D0007261747572652069732072657365742E18
:1008E0002053657420697420616674657220726596
:1008F0007374617274696E67290A004E6F204368D1
:1009000065636B73756D2077697468206C696E65BB
:10091000206E756D6265722C204C617374204C6979
:100920006E653A20004E6F20436865636B73756D8A
:100930002077697468206C696E65206E756D6265DC
:10094000722C204C617374204C696E653A200063F0
:100950006865636B73756D206D69736D6174636831
:100960002C204C617374204C696E653A20004C69F0
:100970006E65204E756D626572206973206E6F74AE
:10098000204C617374204C696E65204E756D6265F4
:10099000722B312C204C617374204C696E653A20A7
:1009A000004D3131300053657269616C20737461A0
:1009B000747573206D69736D617463680A005344C4
:1009C0002072656164206572726F720A00212120B5
:1009D0004B494C4C20636175736564206279204BF0
:1009E000494C4C20627574746F6E2F70696E0A00EA
:1009F0002121204B494C4C20636175736564206252
:100A00007920746F6F206D75636820696E616374FF
:100A10006976652074696D65202D20637572726535
:100A20006E7420636F6D6D616E643A200062757341
:100A3000793A2070617573656420666F7220696E03
:100A40007075740A00627573793A20706175736508
:100A50006420666F7220757365720A00627573791F
:100A60003A2070726F63657373696E670A004D6533
:100A70006469612052656D6F766564004D656469D7
:100A80006120496E736572746564004D3130303099
:100A900053007061757365004D3630300020666913
:100AA0006C616D656E745F72756E6F757420006633
:100AB000696C616D656E745F72756E6F75742054CC
:100AC0000046696C616D656E7452756E6F75742049
:100AD000540053656E64204D31303820746F20729D
:100AE0006573756D650A00496E7365727420666979
:100AF0006C616D656E7420616E642073656E642038
:100B00004D3130380A0052656865617420446F6E5B
:100B10006500526568656174696E672E2E2E0052FD
:100B20006568656174004865617465722054696D1B
:100B3000656F75740053656E64204D3130382074D4
:100B40006F2068656174206E6F7A7A6C650A004E5A
:100B50006F7A7A6C65205061726B656400706175A4
:100B600073656400506175736500473236204361D8
:100B70006E63656C65640047323620486561746950
:100B80006E67204E6F7A7A6C650047323620486572
:100B90006174696E67204265640057616974696EAB
:100BA0006720666F72206865617475702E0A004652
:100BB00069786564204C656E677468205072696D51
:100BC0006500446F6E65205072696D696E67004DF7
:100BD000616E75616C207072696D696E672E2E2E64
:100BE000004C656176696E6720473236003F53706E
:100BF0006563696669656420582C5920636F6F725C
:100C000064696E617465206F7574206F6620626F11
:100C1000756E64732E0A003F2852296570656174F1
:100C20002076616C7565206E6F7420706C617573D1
:100C300069626C653B206D75737420626520617418
:100C4000206C6561737420312E0A003F5370656318
:100C50006966696564206E6F7A7A6C652074656D6B
:100C60007065726174757265206E6F7420706C614E
:100C7000757369626C652E0A003F5370656369661F
:100C80006965642066696C616D656E742073697A4C
:100C900065206E6F7420706C61757369626C652E6F
:100CA0000A003F5370656369666965642070726904
:100CB0006D65206C656E677468206E6F7420706C53
:100CC00061757369626C652E0A003F5370656369D4
:100CD00066696564206E6F7A7A6C652073697A65DF
:100CE000206E6F7420706C61757369626C652E0A7A
:100CF000003F52657472616374696F6E204D756C4C
:100D00007469706C696572206D75737420626520FA
:100D10007370656369666965642E0A003F53706588
:100D20006369666965642052657472616374696F92
:100D30006E204D756C7469706C696572206E6F748D
:100D400020706C61757369626C652E0A003F537088
:100D500065636966696564206C61796572206865A0
:100D600069676874206E6F7420706C617573696256
:100D70006C652E0A0043292E0A003F537065636993
:100D800066696564206265642074656D7065726172
:100D900074757265206E6F7420706C617573696212
:100DA0006C65202834302D00473236207374617210
:100DB00074696E672E2E2E0A0042656400456E63CC
:100DC0006C6F73757265002568753A2530326875E9
:100DD0000025303268753A2530326875002530328A
:100DE00068752725303268750020202020202020BB
:100DF000002020202000657272001FE020102010CB
:100E000020101020102020102010303008400480C6
:100E100003001FE03FF03FF03FF01FE01FE03FF016
:100E20003FF03FF00FC0078003003FFFF038007035
:100E300030FC3020FC102078102030102C00D02EF8
:100E400031D02F7BD02F7BD02E31D02C00D0203032
:100E50001020781020FC1030FC303800703FFFF07C
:100E60003FFFF03800703186302387102787902F9E
:100E700087D02F03D0203010207810207810203019
:100E8000102F03D02F87D0278790238710318630EB
:100E90003800703FFFF01FFFF81FFFF804104002FA
:100EA0000820020820041040082080104100104152
:100EB000000820800410400000001FFFF81FFFF80A
:100EC000000000001E000000002100000000271D9F
:100ED000C08C00272121920041212092008E21CE3A
:100EE000920090212092011021209201201D21CCFE
:100EF00002200000000410011300081001148010EB
:100F000008011080200400A30047F200A08043E203
:100F1000004480200400430018D800000019840019
:100F2000000021FC0000003F00446966663A202072
:100F3000200046726F6D5374703A00537465707080
:100F400065723A00556E4C6576656C3A004C657674
:100F5000656C65643A005261773A20202020000ACF
:100F60004C6F676963616C3A00436F756E7420451E
:100F70003A004361703A00434F4E4649475F455837
:100F8000504F5254004D4541545041434B00434F44
:100F90004F4C45525F54454D504552415455524572
:100FA000004348414D4245525F54454D50455241E2
:100FB0005455524500424142595354455050494EB0
:100FC000470041524353004D4F54494F4E5F4D4FE0
:100FD00044455300544845524D414C5F50524F5484
:100FE000454354494F4E00455854454E4445445F8F
:100FF0004D3230004C4F4E475F46494C454E414DB7
:1010000045004155544F5245504F52545F53445F31
:101010005354415455530053445F5752495445006B
:1010200052455045415400534443415244005052AC
:101030004F4D50545F535550504F525400484F53EA
:10104000545F414354494F4E5F434F4D4D414E44D1
:101050005300454D455247454E43595F5041525309
:10106000455200434153455F4C494748545F425203
:10107000494748544E45535300544F47474C455FEA
:101080004C494748545300534F4654574152455FCB
:10109000504F574552004255494C445F50455243CA
:1010A000454E54004C4556454C494E475F444154CB
:1010B00041005A5F50524F42450052554E4F5554D1
:1010C000004155544F4C4556454C005052494E54E2
:1010D0005F4A4F420050524F4752455353004155CB
:1010E000544F5245504F52545F54454D5000415556
:1010F000544F5245504F52545F504F5300564F4C2F
:10110000554D455452494300454550524F4D0042BC
:10111000494E4152595F46494C455F5452414E53E6
:101120004645520053455249414C5F584F4E5F5817
:101130004F4646004649524D574152455F4E414D3C
:10114000453A4D61726C696E20322E302E392E3246
:101150002D46695A692D424C2D32353030303020C1
:101160002844656320323720323032312031333A1F
:1011700032393A35302920534F555243455F434F5A
:1011800044455F55524C3A6769746875622E636FC7
:101190006D2F4D61726C696E4669726D7761726513
:1011A0002F4D61726C696E2050524F544F434F4C1B
:1011B0005F56455253494F4E3A312E30204D4143F0
:1011C00048494E455F545950453A43522D313020DD
:1011D00056332045585452554445525F434F554E5F
:1011E000543A3120555549443A6365646532613259
:1011F000662D343161322D343734382D3962313235
:101200002D6335356336326633363766660A002914
:101210000A0020746F20003F5A206F7574206F669B
:101220002072616E6765202800290A0020746F20F3
:10123000003F59206F7574206F662072616E67657C
:1012400020282D00290A0020746F20003F58206FAD
:101250007574206F662072616E676520282D0020EE
:101260003B0020590020204D3835312058005A2DA0
:1012700050726F6265204F6666736574006F6B0A0B
:1012800000526573656E643A200043616E6E6F7440
:10129000206F70656E207375626469722000256925
:1012A000730025696D20256973002569682025690B
:1012B0006D202569730025696420256968202569EA
:1012C0006D202569730025697920256964202569C9
:1012D000682025696D202569730020696E20005300
:1012E000746174733A2000536572766963652033C4
:1012F0003030680053657276696365203530680068
:101300000A53746174733A2046696C616D656E743A
:1013100020757365643A20002C204C6F6E676573EE
:1013200074206A6F623A2000546F74616C20746993
:101330006D653A200053746174733A20002C204686
:1013400061696C65643A20002C2046696E69736897
:1013500065643A20005072696E74733A20005374C9
:101360006174733A2000504944204175746F74755C
:101370006E65202A005049442D44202A00504944DB
:101380002D49202A005049442D50202A00200820B1
:1013900046616374002008204D6178002008204DCC
:1013A000696E004F6666004F6E004175746F74651C
:1013B0006D70004D696E2054726176656C205665C3
:1013C0006C004D696E2056656C6F63697479004DD1
:1013D000617820452056656C004D6178205A205672
:1013E000656C004D617820592056656C004D617820
:1013F00020582056656C004D61782045204163637C
:10140000656C004D6178205A20416363656C004D26
:101410006178205920416363656C004D61782058E4
:1014200020416363656C0054726176656C20416392
:1014300063656C0052657472616374204163636517
:101440006C00416363656C004D61782045204A65FE
:10145000726B004D6178205A204A65726B004D61B5
:10146000782059204A65726B004D61782058204AD7
:1014700065726B00436F6F6C696E672E2E2E00488D
:10148000656174696E672E2E2E004531202553004C
:1014900042656420436F6F6C696E672E2E2E00428A
:1014A00065642048656174696E672E2E2E00236482
:1014B0006566696E652044454641554C545F00623F
:1014C0006564004B6420004B6920004B7020005085
:1014D0004944204175746F74756E652066696E6944
:1014E00073686564212050757420746865206C6190
:1014F0007374204B702C204B6920616E64204B6408
:1015000020636F6E7374616E74732066726F6D20EA
:1015100062656C6F7720696E746F20436F6E6669C9
:101520006775726174696F6E2E680A0050494420B5
:101530004175746F74756E65206661696C656421B0
:101540002074696D656F75740A00504944204175B7
:10155000746F74756E65206661696C6564212054D2
:10156000656D706572617475726520746F6F206847
:101570006967680A00504944204379636C657300C9
:1015800025532025692F256900204B643A2000202F
:101590004B693A2000204B703A200020436C617365
:1015A00073696320504944200A00204E6F206F76F3
:1015B000657273686F6F740A002054753A200020BA
:1015C0004B753A2000206D61783A2000206D696EDD
:1015D0003A200020643A200020626961733A2000BA
:1015E0005761697420666F72206865617420757038
:1015F0002E2E2E00504944204175746F74756E650F
:101600002073746172740A00504944204175746FEC
:1016100074756E65206661696C6564212054656D22
:10162000706572617475726520746F6F2068696788
:10163000680A00504944204175746F74756E6500E6
:10164000504944204175746F74756E6520666169F8
:101650006C65642120426164206865617465722054
:1016600069640A004572723A207574663820666FA4
:101670006E74206E6F7420696E697469616C697A2A
:1016800065642E004572723A207574663820666F64
:101690006E74206E6F7420696E697469616C697A0A
:1016A00065642E004572723A207574663820666F44
:1016B0006E74206E6F7420696E697469616C697AEA
:1016C00065642E00000C0F00FE07022503BB017F9E
:1016D000FE08FE08FE05080806000040F0C88888DD
:1016E000987810050808060000C0F888888888885F
:1016F000F80505050600012030F830200508080629
:1017000000002070F820202020E00509090600FFD5
:101710002070A8A8B888887020070505070001D8A0
:101720006C366CD80509090600FFF8A888888888F7
:1017300088A8F8050A0A0600FE205050505088A8D4
:10174000A8887003030306000340A040FFFFFFFFCB
:10175000FFFFFFFFFFFFFFFFFFFFFFFFFFFFFFFF99
:10176000FFFF0000000605FF01070706020080805A
:101770008080800080030303060105A0A0A0050669
:101780000606000050F85050F8500509090600FF01
:101790002070A8A07028A87020050707060000C8C0
:1017A000C8102040989805070706000040A0A040F8
:1017B000A8906801030306020580808003090906DA
:1017C00001FF20404080808040402003090906013D
:1017D000FF80404020202040408005070706000091
:1017E00020A8702070A8200505050600012020F81B
:1017F00020200203030601FFC0408005010106000E
:1018000003F8020202060100C0C005070706000037
:1018100008101020404080050707060000708898D7
:10182000A8C8887003070706010040C04040404038
:10183000E0050707060000708808102040F805073B
:1018400007060000F8081030088870050707060032
:101850000010305090F81010050707060000F880BF
:10186000F008088870050707060000304080F088FF
:101870008870050707060000F808101020202005D2
:1018800007070600007088887088887005070706BB
:10189000000070888878081060020505060100C005
:1018A000C000C0C00206060601FFC0C000C04080E4
:1018B00003050506010120408040200503030600C2
:1018C00002F800F80305050601018040204080056C
:1018D0000707060000708810202000200507070673
:1018E00000007088B8A8B88070050707060000706F
:1018F0008888F8888888050707060000F04848703F
:101900004848F005070706000070888080808870CE
:10191000050707060000F04848484848F005070753
:10192000060000F88080F08080F8050707060000B8
:10193000F88080F0808080050707060000708880AE
:1019400080988870050707060000888888F88888CE
:1019500088030707060100E04040404040E00507DB
:1019600007060000381010101090600507070600E9
:10197000008890A0C0A0908805070706000080801E
:1019800080808080F805070706000088D8A888882E
:1019900088880507070600008888C8A898888805F1
:1019A0000707060000708888888888700507070682
:1019B0000000F08888F0808080050707060000702E
:1019C000888888A89068050707060000F08888F0D6
:1019D000A09088050707060000708880700888704E
:1019E000050707060000F820202020202005070713
:1019F0000600008888888888887005070706000028
:101A00008888888850502005070706000088888845
:101A100088A8A8500507070600008888502050882D
:101A20008805070706000088885020202020050729
:101A300007060000F80810204080F8030909060195
:101A4000FFE080808080808080E00507070600003E
:101A5000804040201010080309090601FFE0202003
:101A60002020202020E005030306000520508805E3
:101A700001010600FEF8030303060105804020056E
:101A8000050506000070087888780507070600003D
:101A90008080F0888888F005050506000070808049
:101AA0008870050707060000080878888888780588
:101AB00005050600007088F0807005070706000025
:101AC000304840E04040400507070600FE70888827
:101AD000887808700507070600008080F0888888ED
:101AE000880307070601004000C0404040E00409A9
:101AF000090601FE10003010101010906005070755
:101B000006000080808890E09088030707060100A7
:101B1000C04040404040E0050505060000D0A8A8B0
:101B2000A8A8050505060000B0C888888805050531
:101B300006000070888888700507070600FEF08898
:101B40008888F080800507070600FE7888888878F6
:101B50000808050505060000B0C880808005050559
:101B600006000078807008F00507070600002020B6
:101B7000F820202018050505060000888888986848
:101B80000505050600008888885020050505060023
:101B9000008888A8A8500505050600008850205038
:101BA000880507070600FE888888502040800505C4
:101BB00005060000F8102040F80309090601FF207F
:101BC00040404080404040200109090602FF8080DB
:101BD000808080808080800309090601FF8040406A
:101BE00040204040408005030306000248A890FFC3
:101BF0004261636B2D4C656674004261636B2D52CC
:101C0000696768740046726F6E742D5269676874F4
:101C10000046726F6E742D4C656674005072656874
:101C200065617420242042656400507265686561B6
:101C300074202420456E640054656D706572617473
:101C400075726500436F6F6C646F776E00507265DC
:101C50006865617420240046616E20537065656478
:101C600000426564004E6F7A7A6C65004D61696E62
:101C7000004D656173757265004C61737420766107
:101C80006C75652000426564205472616D6D696EEB
:101C90006700446F6E6500111C051CFA1BF01B5396
:101CA000656C656374204F726967696E00486F6D7B
:101CB000696E672058595A004732380050726F6277
:101CC00065205A204F666673657400466C6F770016
:101CD00046616E20537065656400426564004E6F16
:101CE0007A7A6C65005370656564004D61696E00B9
:101CF000554E4C4F41442046494C414D454E5400B1
:101D00004C4F41442046494C414D454E54004649B4
:101D10004C414D454E54204348414E474500426595
:101D200064004E6F7A7A6C650046616E2053706570
:101D3000656400436F6E66696775726174696F6E82
:101D400000526573746F72652044656661756C74CA
:101D500073004C6F61642053657474696E6773001F
:101D600053746F72652053657474696E67730053A2
:101D70006F756E640050726568656174202420433D
:101D80006F6E6600506F776572204F75746167657E
:101D9000004F6666004F6E0052756E6F757420536B
:101DA000656E736F7200424C546F756368005072B9
:101DB0006F6265205A204F666673657400416476D1
:101DC000616E6365642053657474696E6773004D5A
:101DD00061696E004D37303220542564004D363035
:101DE0003020423020542564004D373032203B25CE
:101DF00064004D37303120542564004D37303200B7
:101E00004D373031004D363030204230004D616961
:101E10006E00436F6E74696E7565004F6666004FA5
:101E20006E0052756E6F75742053656E736F72001D
:101E30005075726765206D6F726500524553554D40
:101E400045204F5054494F4E533A005052494E543A
:101E5000205041555345440020204E6F7A7A6C65DE
:101E60003A20005061726B696E672E2E2E000000C2
:101E70005761697420666F720066696C616D656E8A
:101E800074206368616E676500746F20737461729B
:101E900074005761697420666F720066696C616DC9
:101EA000656E7420756E6C6F616400004E6F7A7A97
:101EB0006C652068656174696E6700506C6561735C
:101EC0006520776169742E2E2E0000507265737341
:101ED00020627574746F6E00746F20686561742081
:101EE0006E6F7A7A6C650000496E73657274206655
:101EF000696C616D656E7400616E642070726573EB
:101F00007320627574746F6E00746F20636F6E74EB
:101F1000696E7565005761697420666F7200666945
:101F20006C616D656E74206C6F6164000050726549
:101F3000737320427574746F6E00746F20726573D2
:101F4000756D65207072696E740000576169742048
:101F5000666F72207072696E7400746F20726573A0
:101F6000756D652E2E2E00005761697420666F72A4
:101F70000066696C616D656E7420707572676500CE
:101F8000003E200053657276696365203330306807
:101F900020003E2000536572766963652035306805
:101FA000200020696E3A003E2000256C642E2569D1
:101FB0006D00457874727564656420546F74616C4B
:101FC000003E20004C6F6E67657374204A6F62207C
:101FD00054696D65003E2000546F74616C2050722E
:101FE000696E742054696D6500436F6D706C657423
:101FF0006564003A20005072696E7420436F756EFC
:1020000074003A2000486F6D696E67204661696C04
:102010006564006F70656E005452494747455245EC
:1020200044003A200066696C616D656E74007A5FE9
:1020300070726F6265007A5F6D696E00795F6D69BD
:102040006E00785F6D696E005265706F7274696EB4
:102050006720656E6473746F702073746174757338
:102060000A0020746F6F206C6F6E67206578747241
:102070007573696F6E2070726576656E7465640A3B
:102080000020636F6C6420657874727573696F6E7D
:102090002070726576656E7465640A00486F6D65C0
:1020A0002025732573257320466972737400000020
:1020B000A0C00000A0C0000000005761726E696EF1
:1020C000673A20486F6D696E672042756D702044D5
:1020D000697669736F72203C20310A0002020400A5
:1020E000809843008098430000C8430000A040004F
:1020F00000A04000000040FFFFFF000000010000C2
:1021000000010000800055555500000040003333A9
:102110003300AAAA2A004992240000002000C771B7
:102120001C0099991900D1451700555515003BB170
:1021300013002449120011111100000010000F0FAC
:102140000F00E3380E0043790D00CCCC0C00C330F7
:102150000C00E8A20B0064210B00AAAA0A00703D43
:102160000A009DD80900427B090092240900DCD3B3
:102170000800888808001042080000000800F0C12C
:1021800007008787070075500700711C07003EEBAA
:102190000600A1BC06006990060066660600703E57
:1021A00006006118060017F4050074D105005BB045
:1021B0000500B2900500627205005555050078399A
:1021C0000500B81E0500050505004EEC040087D487
:1021D0000400A1BD040090A7040049920400C17D41
:1021E0000400EE690400C7560400444404005C3255
:1021F00004000821040041100400000004003FF026
:102200000300F8E0030026D20300C3C30300CCB5EB
:1022100003003AA803000A9B0300388E0300C08124
:1022200003009F750300D0690300505E03001D5337
:10223000030034480300913D0300333303001629A3
:102240000300381F030097150300300C030003033D
:1022500003000BFA020049F10200BAE802005CE058
:1022600002002DD802002DD0020059C80200B0C0D3
:10227000020031B90200DAB10200AAAA0200A0A34A
:102280000200BC9C0200FA9502005C8F0200DF880D
:10229000020082820200457C02002776020027703D
:1022A0000200436A02007C640200D05E02003F59D3
:1022B0000200C85302003132300035004245443A32
:1022C000204550434F53203130304B0052756E61E2
:1022D0007761792057617463683A204F4E004D61F1
:1022E000782054656D7000323735004D696E20548A
:1022F000656D7000350045313A204550434F5320FD
:102300003130304B005053550047656E657269633C
:102310000050726F746F636F6C00312E3000426139
:1023200075640031313532303000437265616C695B
:10233000747933442052414D50530042696C696EA8
:10234000656172204C6576656C696E6700457874CE
:102350007275646572730031006D61726C696E66CE
:10236000772E6F72670043522D3130205633003282
:102370003032312D31302D313600322E302E392E83
:10238000322D46695A692D424C2D3235303030306D
:10239000004D61726C696E005072696E74657220D6
:1023A000537461747300546865726D6973746F72ED
:1023B0007300426F61726420496E666F00507269EB
:1023C0006E74657220496E666F004D61696E004DD6
:1023D000313030300053746F70205072696E740069
:1023E000526573756D65205072696E7400506F7719
:1023F0006572204F7574616765004732370A4D3149
:1024000031372055736572205363726970742044AC
:102410006F6E65005061726B204E6F7A7A6C65004A
:102420004D61696E003F004261636B0053746F70D1
:10243000003F005365727669636520353068003F60
:1024400000536572766963652033303068005265E9
:102450007365740043616E63656C005265736574E7
:10246000004E6F204D65646961005072696E742082
:1024700066726F6D204D65646961004368616E67C7
:1024800065204D65646961004D3231005365727697
:10249000696365203330306800536572766963651F
:1024A000203530680041626F7574205072696E7417
:1024B0006572004368616E67652046696C616D6591
:1024C0006E7400437573746F6D20436F6D6D616E34
:1024D000647300436F6E66696775726174696F6ECD
:1024E0000054656D7065726174757265004D6F742E
:1024F000696F6E00526573756D65205072696E74F8
:102500000043616E63656C204F626A6563740054BA
:10251000756E650053746F70205072696E74005050
:1025200061757365205072696E7400496E666F2024
:1025300053637265656E0050726F6265205A204F5A
:1025400066667365740050726F62652059204F662D
:10255000667365740050726F62652058204F66661E
:1025600073657400452073746570732F6D6D005A28
:102570002053746570732F6D6D005920537465700E
:10258000732F6D6D00582053746570732F6D6D003F
:10259000416476616E6365642053657474696E6727
:1025A00073003F0043616E63656C00496E6974009F
:1025B000496E697469616C697A6520454550524F6E
:1025C0004D0046696C616D656E740054656D706593
:1025D0007261747572650053746570732F6D6D0050
:1025E00050726F6265204F666673657473004A654A
:1025F000726B00416363656C65726174696F6E0034
:1026000056656C6F6369747900436F6E66696775B0
:10261000726174696F6E004C617374205A3A2000C5
:10262000476F6F6420506F696E74733A2000507268
:102630006F62696E6720506F696E740041646A75DD
:1026400073742062656420756E74696C20746865AB
:102650002070726F62652074726967676572732E8D
:1026600000536B697000446F6E65004732394E004D
:102670003F00436F726E6572732077697468696E8C
:1026800020746F6C6572616E63652E2042656420F4
:102690007472616D6D65642E004E4F005945530094
:1026A000202D20496E76616C69642065787472759E
:1026B000646572206E756D62657220210A00457234
:1026C000723A204D415854454D50004D41585445A3
:1026D0004D50207472696767657265640045727257
:1026E0003A204D494E54454D50004D494E54454DAC
:1026F000502074726967676572656400544845527A
:102700004D414C2052554E41574159005468657215
:102710006D616C2052756E6177617900202F002009
:1027200042403A0020403A0020573A0020573A00F1
:10273000496E76616C69642065787472756465723F
:102740000A0024F4D43050C38E20C2A24017828BDA
:102750007011127A910D816CD90AA861E108C758ED
:102760006607615143061E4B5D05C145A7041A412A
:102770001104093D9803713931034036DB0265339A
:102780009102D4305402802E1D02632CEE01752A72
:10279000C501B028A001102781018F2564012B24D9
:1027A0004B01E0223401AC211F018D200D01801F5F
:1027B000FC00841EED00971DDF00B81CD200E61B54
:1027C000C600201BBC00641AB200B219A8000A1986
:1027D000A0006A189900D117910040178B00B51618
:1027E000840031167E00B31579003A157300C714C2
:1027F0006F0058146A00EE136600881363002513F7
:102800005E00C7125B006C12570015125400C11114
:10281000510070114F0021114B00D61049008D104E
:1028200047004610440002104200C00F4000800FD5
:102830003E00420F3C00060F3B00CB0E3800930ECB
:1028400037005C0E3500270E3400F30D3200C10D49
:102850003100900D3000600D2E00320D2D00050D61
:102860002C00D90C2B00AE0C2900850C29005C0C27
:102870002700350C27000E0C2600E80B2400C40BA3
:102880002400A00B23007D0B23005A0B2100390BE1
:102890002100180B2000F80A1F00D90A1E00BB0AED
:1028A0001E009D0A1D00800A1D00630A1C00470AC5
:1028B0001B002C0A1B00110A1A00F7091A00DD0977
:1028C0001900C4091900AB091900920917007B0906
:1028D0001800630917004C09160036091600200974
:1028E00016000A091500F5081500E0081400CC08C8
:1028F0001400B8081400A4081400900813007D0800
:1029000012006B0813005808120046081200340821
:102910001100230811001208110001081100F0072E
:102920001000E0071000D0071000C0071000B0072B
:102930000F00A107100091070E0083070F00740716
:102940000F0065070E0057070E0049070E003B07F2
:102950000D002E070E0020070D0013070D000607BF
:102960000D00F9060C00ED060D00E0060C00D40683
:102970000C00C8060C00BC060C00B0060C00A40637
:102980000B0099060C008D060B0082060B007706E3
:102990000B006C060B0061060A0057060B004C0684
:1029A0000A0042060A0038060A002E060A0024061B
:1029B0000A001A060A001006090007060A00FD05AB
:1029C0000900F4050900EB050900E2050900D90535
:1029D0000900D0050900C7050900BE050900B505B5
:1029E0000800AD050800A50509009C050800940530
:1029F00008008C050800840508007C0508007405A3
:102A000008006C050700650508005D050700560510
:102A100008004E0507004705070040050800380577
:102A20000700310507002A050700230507001C05DC
:102A30000600160507000F05070008050600020539
:102A40000700FB040600F5040700EE040600E80496
:102A50000600E2040700DB040600D5040600CF04EC
:102A60000600C9040600C3040600BD040600B7043E
:102A70000600B1040500AC040600A6040600A0048C
:102A800005009B04060095040500900406008A04D6
:102A9000050085040500800406007A04050075041D
:102AA0000500700405006B04050066040500610460
:102AB00005005C04050057040500520405004D04A0
:102AC000050048040500430405003E0404003A04E0
:102AD000050035040500300404002C04050027041B
:102AE0000400230405001E0404001A040400160454
:102AF0000500110404000D04040009040500040489
:102B0000040000040400FC030400F8030400F403C0
:102B10000400F0030400EC030400E8030400E403F1
:102B20000400E0030400DC030400D8030400D40321
:102B30000400D0030400CC030400C8030300C50351
:102B4000030024F404D9201BC40C5C0E9804C409AF
:102B50005F0265077101F405F900FB04B300480446
:102B60008700C10369005803550003034500BE02F6
:102B70003A008402310053022A002902250004028F
:102B80002000E4011C00C8011900AF0117009801E2
:102B90001400840113007101100061011000510143
:102BA0000E0043010D0036010B002B010B0020012C
:102BB0000B00150109000C01090003010800FB00CE
:102BC0000800F3000800EB000700E4000600DE0048
:102BD0000600D8000600D2000600CC000500C700A1
:102BE0000500C2000500BD000400B9000400B500E6
:102BF0000400B1000400AD000400A9000400A50019
:102C00000300A20003009F0004009B000300980043
:102C100003009500020093000300900003008D0064
:102C200002008B000300880002008600020084007E
:102C30000300810002007F0002007D0002007B0093
:102C400002007900020077000100760002007400A3
:102C5000020072000100710002006F0002006D00AE
:102C600001006C0002006A000100690002006700B8
:102C700001006600010065000100640002006200BE
:102C8000010061000100600001005F0002005D00C2
:102C900001005C0001005B0001005A0001005900C6
:102CA00001005800010057000100560001005500C6
:102CB00001005400010053000000530001005200C5
:102CC000010051000100500001004F0001004E00C2
:102CD00000004E0001004D0001004C0001004B00BF
:102CE00000004B0001004A000100490001004800BB
:102CF00000004800010047000100460000004600B7
:102D000001004500000045000100440001004300AF
:102D100000004300010042000000420001004100A9
:102D2000000041000100400001003F0000003F00A2
:102D300001003E0000003E0001003D0000003D009B
:102D400001003C0000003C0000003C0001003B0092
:102D500000003B0001003A0000003A000100390089
:102D60000000390001003800000038000000380081
:102D70000100370000003700010036000000360077
:102D8000000036000100350000003500000035006D
:102D90000100340000003400000034000100330062
:102DA0000000330000003300010032000000320058
:102DB000000032000100310000003100000031004D
:102DC00001003000000030000000300001002F0042
:102DD00000002F0000002F0000002F0001002E0037
:102DE00000002E0000002E0001002D0000002D002C
:102DF00000002D0000002D0001002C0000002C0020
:102E000000002C0000002C0001002B0000002B0013
:102E100000002B0000002B0001002A0000002A0007
:102E200000002A0000002A000100290000002900FB
:102E300000002900000029000000290001002800EE
:102E400000002800000028000000280000002800E2
:102E500001002700000027000000270000002700D5
:102E600000002700010026000000260000002600C8
:102E700000002600000026000100250000002500BB
:102E800000002500000025000000250000002500AE
:102E900001002400000024000000240000002400A1
:102EA0000000240001002300000023000000230094
:102EB0000000230000002300000023000000230086
:102EC0000100220000002200000022000000220079
:102ED000000022000000220001002100000021006B
:102EE000000021000000210000002100000021005E
:102EF0000000210001002000000020000000200050
:102F00000000200000002000000020000000200041
:102F10000000200001001F0000001F0000001F0033
:102F200000001F0000001F0000001F0000001F0025
:102F300001001E0000001E0000001E0000001E0018
:102F40000000393000003325000087190000B00F61
:102F50000000DB080000BD040000740200003F0117
:102F600000006E6F74696669636174696F6E20003A
:102F700043522D31302056332052656164792E0042
:102F80003E205365727669636520333030682100D6
:102F90003E205365727669636520353068210050A4
:102FA00072696E74696E672E2E2E006E6F7469667C
:102FB00069636174696F6E200063616E63656C00A4
:102FC0005072696E742041626F7274656400554975
:102FD0002041626F72746564004D323520500A4D95
:102FE0003234005072696E742050617573656400EC
:102FF000526573756D6500554920506175736500A4
:1030000050617573696E672E2E2E00726573756D33
:1030100065004D323400454550524F4D2056657283
:1030200073696F6E204572726F7200454550524F42
:103030004D20496E646578204572726F7200454577
:1030400050524F4D20435243204572726F72003FE1
:103050000049676E6F726500526573657400496E52
:10306000697469616C697A6520454550524F4D001D
:1030700000FE0003FF8007C7C00701E00000E0007A
:1030800000F00000700400700E00701F00703F80A0
:10309000F00E00E00F01E007C7C003FF8000FE0054
:1030A00000FE0003FF8007C7C00F01E00E00E03FF5
:1030B00080F01F00700E00700400700000700000AF
:1030C000F00000E00701E007C7C003FF8000FE003A
:1030D0000E000E000E000E000E000E000E000E0080
:1030E0007FC03F801F000E00040004000E001F0080
:1030F0003F807FC00E000E000E000E000E000E007E
:103100000E000E00FFFFFF7F80FFC0FFC0FFC07FEB
:10311000807F80FFC0FFC0FFC03F001E000C00503A
:10312000726F6265205A204F66667365740052752F
:103130006E6F75742044697374206D6D004C6F61FF
:1031400064206D6D00556E6C6F6164206D6D00467E
:10315000696C2E204469612E004520696E206D6DDA
:103160005E33004D333033205531204525692053DF
:10317000256900FFFDFCFAF8F6F4F2F0EEECEAE95E
:10318000E7E5E3E1E0DEDCDAD9D7D5D4D2D0CFCDA4
:10319000CBCAC8C7C5C3C2C0BFBDBCBAB9B7B6B435
:1031A000B3B2B0AFADACAAA9A8A6A5A4A2A1A09E97
:1031B0009D9C9A99989795949392908F8E8D8B8AD7
:1031C0008988878684838281807F7E7D7B7A7978F7
:1031D00077767574737271706F6E6D6C6B6A6968F7
:1031E00067666564636261605F5E5D5C5B5A5958E7
:1031F000585756555453525150504F4E4D4C4B4AC0
:103200004A4948474646454443424241403F3E3E84
:103210003D3C3B3B3A39383837363535343332323A
:103220003130302F2E2E2D2C2B2B2A2929282727E1
:1032300026252524232322212120201F1E1E1D1C7C
:103240001C1B1B1A19191818171616151514131309
:1032500012121111100F0F0E0E0D0D0C0C0B0A0A8D
:103260000909080807070606050504040303020206
:103270000100003D3D3D3D3D3D3D3D3D3D3D3D3D34
:103280003D3D3D3D3D3D3D3D3D3D3D3D3D3D3D3D6E
:103290003D3D3D3D3D3D3D3D3D3D3D3D3D3D3D3D5E
:1032A0000A00210A00205365727669636520333075
:1032B0003068002053657276696365203530680098
:1032C00000009643000096430000C8430000A0C0E1
:1032D0000000A0C00000000053657474696E67733D
:1032E0002053746F72656400290A00206279746546
:1032F000733B20637263200053657474696E677357
:103300002053746F7265642028007C3C3E5E2B3D28
:103310003F2F5B5D3B2C2A225C0043616E6E6F7415
:10332000206F70656E2073756264697220004D6550
:1033300064696120496E6974204661696C00534478
:103340002063617264206F6B0A006F70656E526F4C
:103350006F74206661696C65640A00766F6C756DC8
:10336000652E696E6974206661696C65640A004E39
:103370006F20534420636172640A002E0A00206E9D
:103380006F742064697361626C65642E2053686198
:1033900072656420776974680020580020204D61B0
:1033A000783A2000200020204D696E3A2000203B12
:1033B000200020204D323131205300536F6674209D
:1033C000656E6473746F707300203B00205500209D
:1033D000204D363033204C0046696C616D656E744B
:1033E000206C6F61642F756E6C6F6164004D3234B8
:1033F00053256C6454256C64004739322E394525B9
:10340000730047314625640047315A2573463630EC
:10341000300047315825735925734633303030001A
:103420004D313036502569532569004D31303953BF
:103430002569004D323030442573004739322E392A
:103440005A2573004D3432305325635A2573004793
:103450003238523058590047315A25734636303089
:10346000004739322E395A2573004739322E3945F3
:1034700030004D313039532569004D3139305325F5
:1034800069004D343230205330205A3000203B2028
:103490000020204D343133205300506F7765722D5A
:1034A0006C6F7373207265636F76657279003B2071
:1034B0000020496E76616C69642065787472756469
:1034C0006572200044697361626C6552756E6F7538
:1034D000740050757267654D6F7265005061757349
:1034E000656400436F6E74696E7565004C6F61644E
:1034F0002046696C616D656E74205400496E736579
:1035000072742066696C616D656E7420616E6420F2
:1035100073656E64204D3130380A00220A00556E02
:103520006B6E6F776E20636F6D6D616E643A2022F3
:10353000002042002050006F6B0020746F6F206CE1
:103540006F6E6720657874727573696F6E20707224
:103550006576656E7465640A0020636F6C6420652F
:103560007874727573696F6E2070726576656E74AB
:1035700065640A0000000000000000600000000018
:1035800000FC00000FF00000000007E00000000059
:1035900001861FC018700000000000603C0C000095
:1035A00001830C6010300000000000603C0C000043
:1035B00001830C303030000000000060000C00007F
:1035C00000030C183000000000000060003F0F3CBA
:1035D00000030C0C6001DF0FE0FE00601C1C0618ED
:1035E00000060C0C6000F318318300600C0C03180B
:1035F000001E0C0C6000E030398300600C0C0330BE
:1036000000030C0C6000C030380F00600C0C03305D
:1036100000018C0C6000C03FF8FB00600C0C033014
:1036200000018C0C6030C030018300600C0C01F094
:1036300001818C0C6030C030018300600C0C00E014
:1036400001818C183030C018318300600C0C40E0D0
:1036500001838C301860C00C6187C0E01C0CC06016
:1036600000C30C600FC3F007C0FFC7FC7F0781C019
:10367000007E1FC0000000000000000000000700E6
:103680000000000000000000000000000000070033
:10369000000000006D61726C696E66772E6F726754
:1036A00000322E302E392E322D46695A692D424C69
:1036B0002D323530303030001FFFFFFFFFFFFF603D
:1036C0000000000001FF400000000000FF8000003B
:1036D0000000007F83CF00000C303F87FF80000C8C
:1036E000301F867980000C000F8C30C7838C30E748
:1036F0008C30CFC7CC31F38C30DCECEC33B98C3070
:10370000D86C6C33198C30D06C0C33198C30D86C6D
:103710000C33198C30DC6C0E3B198C30CF7C079F3E
:10372000198C30C77C038F19400000000000026034
:103730000000000000061FFFFFFFFFFFF870012CD4
:103740000190012701B0012201C0011D01F0011803
:10375000011002130130020E0160020901900204FF
:1037600001C002FF000003FA004003F5008003F0EF
:1037700000D003EB002004E6007004E100E004DC6C
:10378000004005D700C005D2004006CD00D006C8D5
:10379000008007C3003008BE00F008B900C009B4BB
:1037A00000B00AAF00B00BAA00D00CA500000EA01C
:1037B00000500F9B00C01096005012910000148C16
:1037C00000C0158700B0178200B0197D00D01B78AB
:1037D00000001E730040206E0090226900F02464F7
:1037E0000040275F0090295A00E02B5500102E5012
:1037F0000020304B0010324600E033410090353C51
:10380000001037370070383200A0392D00B03A2848
:1038100000A03B2300603C1E00103D1900903D14A9
:1038200000103E0F00703E0A00C03E0500003F0041
:1038300000403FFBFF803FF6FFC03FF1FF202050DC
:103840006C616E6E6572427566666572427974650A
:10385000733A20002046726565204D656D6F727960
:103860003A200020436F6D70696C65643A204465AE
:103870006320323720323032310A00204C617374B9
:1038800020557064617465643A20323032312D31D4
:10389000302D3136207C20417574686F723A204695
:1038A000695A69206261736564206F6E204161729C
:1038B0006F6E204A7573742C20435231302D56336D
:1038C0000A004D61726C696E20322E302E392E3214
:1038D0002D46695A692D424C2D3235303030300A30
:1038E0000020536F6674776172652052657365744A
:1038F0000A00205761746368646F672052657365BE
:10390000740A002042726F776E206F7574205265C2
:103910007365740A002045787465726E616C20527C
:10392000657365740A00506F77657255700A00738D
:10393000746172740A004732385859004D31303082
:1039400031006572726F722077726974696E6720D8
:10395000746F2066696C650A00446F6E6520736140
:1039600076696E672066696C652E0A004D323900F3
:10397000456E6473746F7073002553202563202592
:10398000632025632025630020503A00205A3A0026
:1039900020593A0020583A00656E6473746F707352
:1039A000206869743A20005045544700504C41004B
:1039B00000000A0B02090C0D0E08070304010000A9
:1039C00000000000000000000000000000000000F7
:1039D00000000000000000000000000012111000B4
:1039E00000000000000000000000000000000000D7
:1039F000000000000000004D6F76652025736D6D9E
:103A0000004D6F766520302E316D6D004D6F7665FF
:103A100020316D6D004D6F76652031306D6D004D3C
:103A20006F76652041786973004D6F766520457823
:103A3000747275646572004D6F7665205A004D6F23
:103A400076652059004D6F7665205800AC39A7394E
:103A50004368616E67652046696C616D656E7400D0
:103A6000556E6C6F61642046696C616D656E7400A3
:103A70004C6F61642046696C616D656E74005072B4
:103A8000656865617420437573746F6D005072656D
:103A9000686561742024004261636B005072696E36
:103AA000742066726F6D204D656469610020453A2F
:103AB00000205A3A0020593A00583A0000002200EB
:103AC000250028002B002E003100340002010000E8
:103AD000050108010B0100002100240027002A0035
:103AE0002D003000330001010000040107010A012C
:103AF00005050505070508080808020202020A0A6A
:103B00000808040404040101010101010101030387
:103B1000030303030303040707070C0C0C0C0C0C32
:103B20000C0C0202020206060606060606060B0B2F
:103B30000B0B0B0B0B0B0102102020080810204070
:103B40001020408002010201080402010102040861
:103B500010204080804020100804020180040201EF
:103B60008040201008040201080402010102040838
:103B700010204080010204081020408044657669CE
:103B80006174696F6E0025533A2025730046696E93
:103B90006973686564210A003A207A3A2000206F30
:103BA000662000476F696E6720746F3A20580043A3
:103BB000570A00206469723A0020616E676C653AAA
:103BC000005374617274207261646975733A004DB8
:103BD000343820506F696E740025533A2025642FC5
:103BE000256400506F736974696F6E696E67207425
:103BF00068652070726F62652E2E2E0A003F4C653C
:103C00006773206F66206D6F76656D656E742069D1
:103C10006D706C61757369626C652028302D31356B
:103C2000292E0A003F2028582C5929206F7574200E
:103C30006F6620626F756E64732E0A0050726F6239
:103C400065206F7574206F6620626F756E647300F7
:103C50003F53616D706C652073697A65206E6F7477
:103C600020706C61757369626C652028342D353065
:103C7000292E0A004D3438205A2D50726F6265206B
:103C80005265706561746162696C6974792054650C
:103C900073740A003F2856296572626F7365206C41
:103CA0006576656C20696D706C61757369626C65B1
:103CB0002028302D34292E0A005374616E646172FD
:103CC0006420446576696174696F6E3A2000205201
:103CD000616E67653A2000204D61783A2000204DE2
:103CE000696E3A2000205369676D613A20004D6586
:103CF000616E3A200020440020204D3230302053A5
:103D000000202844697361626C6564293A00466941
:103D10006C616D656E742073657474696E67730091
:103D200020204D3230312058004D617820416363AE
:103D3000656C65726174696F6E2028756E69747345
:103D40002F7332290020204D3230332058004D612E
:103D500078206665656472617465732028756E6984
:103D600074732F73290020520020204D32303420EC
:103D70005000416363656C65726174696F6E2028E1
:103D8000756E6974732F7332292028503C707269E4
:103D90006E742D616363656C3E20523C7265747273
:103DA0006163742D616363656C3E20543C74726181
:103DB00076656C2D616363656C3E29005741524EF8
:103DC000494E4721204C6F77205A204A65726B205C
:103DD0006D6179206C65616420746F20756E776108
:103DE0006E746564207061757365732E0A002054CB
:103DF0000020530020204D323035204200416476AF
:103E0000616E6365642028423C6D696E5F7365670F
:103E10006D656E745F74696D655F75733E20533CAC
:103E20006D696E5F66656564726174653E20543CC1
:103E30006D696E5F74726176656C5F6665656472EC
:103E40006174653E20583C6D61785F785F6A657289
:103E50006B3E20593C6D61785F795F6A65726B3E9D
:103E6000205A3C6D61785F7A5F6A65726B3E2045CF
:103E70003C6D61785F655F6A65726B3E2900204426
:103E80000020490020204D333031205000486F740D
:103E9000656E6420504944002044002049002020E1
:103EA0004D33303420500042656420504944002096
:103EB000450020204D39322058005374657073201E
:103EC00070657220756E697400616C736F20656E29
:103ED00061626C6564290A004E6F204D6F76652E15
:103EE000000A4D3234004D3233202573002E0A0073
:103EF0006F70656E206661696C65642C2046696C24
:103F0000653A200046696C652073656C656374656D
:103F1000640A002053697A653A200046696C65207E
:103F20006F70656E65643A2000454E4420535542DB
:103F3000524F5554494E450A002220706F7300229B
:103F400020706172656E743A2200535542524F558B
:103F500054494E452043414C4C207461726765744E
:103F60003A220053756263616C6C204F766572660D
:103F70006C6F77004578636565646564206D617872
:103F800020535542524F5554494E45206465707434
:103F9000683A002E0A0044656C6574696F6E20668D
:103FA00061696C65642C2046696C653A200046693D
:103FB0006C652064656C657465643A002F61757486
:103FC0006F25632E670057726974696E6720746F7E
:103FD0002066696C653A2000667265736800646FDC
:103FE000696E67002066696C653A20004E6F772025
:103FF00000506C65617365205265736574005052A2
:10400000494E5445522048414C5445440025533AAA
:1040100020255300706F7765726F6666004B494CC0
:104020004C45442E20005072696E746572206861A0
:104030006C7465642E206B696C6C28292063616C3C
:104040006C6564210A0053544F505045442E2000A3
:104050005072696E7465722073746F70706564203D
:1040600064756520746F206572726F72732E2046BE
:10407000697820746865206572726F7220616E6461
:1040800020757365204D39393920746F207265733E
:10409000746172742E202854656D70657261747538
:1040A00072652069732072657365742E2053657480
:1040B0002069742061667465722072657374617220
:1040C00074696E67290A006563686F3A0045727209
:1040D0006F723A0042696C696E656172204C657658
:1040E000656C696E6720477269643A0A0021212075
:1040F00053544F502063616C6C656420626563614A
:10410000757365206F6620424C546F756368206537
:1041100072726F72202D20726573746172742077D1
:10412000697468204D3939390A0021212053544FD0
:10413000502063616C6C65642062656361757365B2
:10414000206F6620424C546F756368206572726FF1
:1041500072202D207265737461727420776974689F
:10416000204D3939390A002F2F616374696F6E3A17
:1041700000627574746F6E00656E640073686F77AB
:104180000070726F6D70745F00626567696E0048E1
:104190006F74656E6420746F6F20636F6C640A00C7
:1041A0005A2056616C756500496E64657820590027
:1041B000496E64657820580053746F7265205365AA
:1041C0007474696E6773004C6F6164205365747416
:1041D000696E677300426564205472616D6D696E2B
:1041E000670050726F6265205A204F66667365746F
:1041F000004661646520486569676874004F6666BB
:10420000004F6E00426564204C6576656C696E6790
:104210000045646974204D657368004C6576656C73
:1042200020426564004732394E00473239004175FB
:10423000746F20486F6D65004D6F74696F6E003F3D
:104240000043616E63656C204F626A656374004E63
:104250004F005945530043616E63656C204F626A9D
:10426000656374203D004D61696E0053572D4D6F9D
:1042700064650053746F77004465706C6F79005308
:10428000656C662D54657374005265736574003FE8
:10429000005374617274205072696E740043616ED1
:1042A00063656C005072696E740043616E6E6F746A
:1042B00020656E746572207375626469723A2000BD
:1042C00002202E2E004D61696E002100486F74653A
:1042D0006E6420746F6F20636F6C64004261636B67
:1042E0000050726F63656564004F6666004F6E0034
:1042F000536F667420456E6473746F7073004D6FF6
:1043000074696F6E0044697361626C6520537465F3
:104310007070657273004D3834004D34382050721F
:104320006F62652054657374004732384F0A4D340C
:10433000382050313000426564204C6576656C69E8
:104340006E67005472616D6D696E672057697A619E
:104350007264004732385A004732385900486F6D4E
:104360006520400047323858004175746F20486F0F
:104370006D65004D61696E0048617264636F6465CC
:10438000642044656661756C742053657474696E4D
:104390006773204C6F616465640A0020286D6D2985
:1043A00000203B204C6576656C696E6720002020FC
:1043B0004D3432302053004175746F2042656420C3
:1043C0004C6576656C696E670020460020480020C9
:1043D000204D3134352053004D6174657269616C34
:1043E0002068656174757020706172616D657465B7
:1043F000727300203B2053656E736F72200020445F
:104400000020204D34313220530046696C616D65C7
:104410006E742072756E6F75742073656E736F7233
:1044200000205A00204A00202047323920572049D6
:104430000020204D3134392043203B20556E6974D3
:104440007320696E2043656C736975730A00546547
:104450006D706572617475726520556E6974730054
:104460002020473231203B004C696E656172205537
:104470006E69747300454550524F4D2064617461FC
:1044800073697A65206572726F722E0A00290A00BC
:104490002062797465733B2063726320002073741B
:1044A0006F7265642073657474696E6773207265DA
:1044B00074726965766564202800202863616C63E6
:1044C000756C6174656429210A0020213D20004536
:1044D0004550524F4D20435243206D69736D6174B6
:1044E0006368202D202873746F7265642920002072
:1044F00053697A653A2000496E6465783A20000075
:1045000000484300004843000060410000C84100EB
:1045100000A0420000A0420000C8430080CB43F44A
:10452000010000F401000064000000E80300002026
:104530004D61726C696E3D563836290A004545500A
:10454000524F4D2076657273696F6E206D69736D81
:10455000617463682028454550524F4D3D004733F4
:10456000352061626F727465642E0A00206D696E79
:10457000757465730020616E642000207475726E1E
:104580007300206279200020005475726E20002094
:104590002800473335206661696C656420617420AA
:1045A000706F696E7420004732385A003F285329D3
:1045B0006372657720746872656164206D757374C9
:1045C0002062652033302C2033312C2034302C20D5
:1045D00034312C2035302C206F722035312E0A00DA
:1045E0004F46460A004661646520486569676874FD
:1045F0002000426564204C6576656C696E6720001A
:104600004661696C656420746F20656E61626C65DB
:1046100020426564204C6576656C696E670A0049C6
:104620006E76616C6964206D6573682E0A00507245
:104630006F62696E6720506F696E74002553202584
:10464000692F2569002E0A002F0050726F62696E73
:1046500067206D65736820706F696E742000202874
:1046600044525952554E2900473239204175746FD2
:1046700020426564204C6576656C696E67003F205A
:10468000284C2C522C462C4229206F7574206F66C2
:1046900020626F756E64732E0A003F28562965727A
:1046A000626F7365206C6576656C20696D706C61F6
:1046B000757369626C652028302D34292E0A0042FA
:1046C0006164205A2076616C75650A004E6F206225
:1046D000696C696E65617220677269640A00507264
:1046E0006F62696E67204661696C656400205A3AA2
:1046F000200020593A200042656420583A20007278
:104700006573756D6564004469736D6973730052F8
:104710006573756D696E670020436F756E74205800
:104720003A00426564004531004500626564002C32
:104730002073797374656D2073746F707065642174
:10474000204865617465725F49443A20004865619C
:1047500074696E67204661696C65640048656174C0
:10476000696E67206661696C6564004D3131322085
:1047700053687574646F776E00006C017C011124BE
:104780001FBECFEFD1E2DEBFCDBF00E00CBF84B7CC
:104790008093E01914BE0FB6F894A895809160003C
:1047A000886180936000109260000FBE15E0A0E069
:1047B000B2E0E0EBF8E003E00BBF02C007900D921F
:1047C000A03BB107D9F729E1A0EBB5E001C01D92EC
:1047D000A03EB207E1F713E2CEEBD3E200E006C061
:1047E00021970109802FFE010F94DA80CD3BD1077C
:1047F00080E00807A9F70F94FD6A0D9447840C9494
:1048000000002F923F924F925F926F927F928F9211
:104810009F92AF92BF92CF92DF92EF92FF920F934F
:104820001F93CF93DF93CDB7DEB7E4970FB6F8941D
:10483000DEBF0FBECDBF8CAB30904A0A21E0209383
:104840004A0A80914C068D3409F49CC3843511F4D6
:104850000C949933873411F00C94AB3380914A0651
:1048600090914B068B31910509F41FC1B0F484304F
:10487000910530F4209121118230910580F139C0E9
:104880008531910511F40C94AD338A31910509F409
:1048900008C1049709F072C3C5C08332910509F4B9
:1048A000FEC148F48D319105C1F008F419C14E974D
:1048B00009F47BC163C38A35910509F4D4C220F49D
:1048C0008A9709F4F0C15AC38B35910509F4CFC218
:1048D0008C35910509F4D0C251C314E04FC1233087
:1048E00010F40C94AD330E940BF20E941BA00C94A8
:1048F000AD33233010F40C94AD3311E0029709F07E
:1049000010E00E940BF219821A821B821C821D8207
:104910001E821F82188682E50E947F48882309F440
:104920004BC00E94FA476B017C0120E030E0A901F6
:104930000F94017A882309F455C080916B029091FD
:104940006C02A0916D02B0916E0288A799A7AAA7E8
:10495000BBA780916F0290917002A0917102B091FB
:1049600072028CA79DA7AEA7BFA780904719909011
:104970004819A0904919B0904A1940904B1950908D
:104980004C1960904D1970904E19A501940168A5BD
:1049900079A58AA59BA50F94017A81110C94CD333A
:1049A000A30192016CA57DA58EA59FA50F94017A08
:1049B0008823C1F00C94CD3389E40E947F4888237A
:1049C00031F00E94FA4769837A838B839C838AE45F
:1049D0000E947F48882331F00E94FA476D837E83CE
:1049E0008F83988720E030E0A90169817A818B81EB
:1049F0009C810F94017A81110C94813420E030E085
:104A0000A9016D817E818F8198850F94017A811132
:104A10000C9481340F94913383EC94E00F9406331B
:104A20000C94AD3380E50E947F48882329F00F94D1
:104A3000EE1E6B017C0103C0C12CD12C760183E5F5
:104A40000E947F48882361F00E94FA4720E030E00E
:104A50004AE754E40F94667A0F942C826B017C0130
:104A60000E9474E480915F09811105C060E08FEEBF
:104A700094E00E94E8DA0F94F510C60ED71EE81EE7
:104A8000F91E0F94F510DC01CB018C199D09AE09BC
:104A9000BF09B7FD02C00C94AD3380E00E942A3AF2
:104AA000F0CF0E949D480C94AD3387E00E94E4A7AC
:104AB00081110C94AD338CE0ECE2F4E0DE01119650
:104AC00001900D928A95E1F760E070E080E50E9428
:104AD000AFF8BE016F5F7F4F0E94988C0C94AD338E
:104AE00087E00E94619F81110C94A23480914D0651
:104AF00090914E06A0914F06B09150063EE0B695BB
:104B0000A795979587953A95D1F780FF02C00C94A9
:104B1000AD330C94A23460E08FE40E948B48811185
:104B20003CC080914D0690914E06A0914F06B091E9
:104B3000500695FF04C088EB9CE10E94366E87E02A
:104B40000E94E4A7811129C00F94E44F882329F122
:104B5000115011F40C943B3620E030E047E057E46C
:104B600067E575E085E00F94723561E08BE195E0D3
:104B70000F94AE3488E295E00E94366E0F94F510E3
:104B80006093630870936408809365089093660847
:104B90008091A618882329F2BECF0F944D3585EF5A
:104BA00095E00E94366E0C94AD3300917C15109107
:104BB0007D15D8012D913D914D915C9160916B02D5
:104BC00070916C0280916D0290916E020F94E3805F
:104BD000AB01BC0188E50E94F4F169837A838B8381
:104BE0009C83F801248135814681578160916F0251
:104BF0007091700280917102909172020F94E38023
:104C0000AB01BC0189E50E94F4F16D837E838F8343
:104C10009887BE016B5F7F4FCE0101960F9422589B
:104C2000882311F40C94AD3380E00F94DF2E0E94A2
:104C3000C7A261E085E40E948B48182F21E0482F2D
:104C4000BE016B5F7F4FCE0101960F9458596B01E7
:104C50007C019B01AC010F949983811116C049819D
:104C60005A816B817C8187E196E00F945A1D4D81BA
:104C70005E816F81788582E196E00F945A1DB701BD
:104C8000A6018DE096E00F94931D0E94AEA2113014
:104C900011F40F944B4D0E944FA50C94AD330F941B
:104CA0009D540C94AD3380912111833010F40C94F9
:104CB000AD3389E40E947F48E82E882321F00E94CA
:104CC000F747082F01C000E08AE40E947F48F82ED1
:104CD000882321F00E94F747182F01C010E0EE2032
:104CE00011F0053020F4FF2041F0153030F08FE155
:104CF00096E00F9406330C94AD3380E1EBE6F2E0DE
:104D0000A7E4B9E101900D928A95E1F7EE2019F13F
:104D1000602F000F770B880B990B0F94077A209167
:104D20002A1930912B1940912C1950912D190F945B
:104D3000667A20913219309133194091341950918B
:104D400035190F94E3806093471970934819809345
:104D5000491990934A19FF2019F1612F110F770B10
:104D6000880B990B0F94077A20912E1930912F19E7
:104D700040913019509131190F94667A209136196B
:104D80003091371940913819509139190F94E380B7
:104D900060934B1970934C1980934D1990934E1951
:104DA00060E080E50E948B488823C1F1EE20D1F0BD
:104DB000E0917C15F0917D152081318142815381F4
:104DC00060914719709148198091491990914A1939
:104DD0000F94E280609347197093481980934919A2
:104DE00090934A19FF20D1F0E0917C15F0917D1548
:104DF000248135814681578160914B1970914C19FE
:104E000080914D1990914E190F94E28060934B1947
:104E100070934C1980934D1990934E1940E050E0D7
:104E2000BA0186E40E94F4F16B017C0120E030E0DD
:104E3000A9010F940A8318164CF420E030E040E7F3
:104E400052E4C701B6010F94BF8103C060E070E077
:104E5000CB0169837A838B839C83CE0101960E9468
:104E60002CA40C94AD331092B5050C94AD338FE0A7
:104E70008093B5050C94AD3380914906882359F190
:104E8000893011F00C94AD33B6E8AB2EB5E0BB2EF3
:104E90001BE6C12E12E0D12E00E010E0F12CD5016E
:104EA0008D915D010E947F48882369F0B3E0FB1675
:104EB00011F001E001C011E00E94FA47F6016083A1
:104EC000718382839383F394F4E0CF0ED11C24E0AA
:104ED000F212E5CF44C0F6E8CF2EF5E0DF2EABE6C8
:104EE000EA2EA2E0FA2E00E010E0212CD6018D91EE
:104EF0006D010E947F48882359F10E94FA474B01B7
:104F00005C01F70120813181428153810F94E2805D
:104F10002B013C012DEB37E346E855EB0F940A8358
:104F200087FD0AC02DEB37E346E855E3C301B20124
:104F30000F94017A181664F4F3E02F1611F001E0D3
:104F400001C011E0D7018D929D92AD92BC92139752
:104F50002394B4E0EB0EF11CE4E02E12C7CF002343
:104F600019F00E944DA506C0112321F087E792E0B9
:104F70000E9485E40E944FA50C94AD330F94A609BE
:104F80000C94AD3380914A0690914B068837910579
:104F900009F494C608F01BC18D34910509F431C49D
:104FA00008F090C08A31910509F462C370F584312C
:104FB000910509F492C278F48131910509F489C20E
:104FC00028F4029708F43AC20C949633429709F4F5
:104FD0003DC50C9496338731910509F4C7C248F456
:104FE0008531910509F4B2C2469709F4B3C20C9415
:104FF00096338831910509F4D0C2499711F00C9489
:1050000096330E94F6F70C94AD338032910509F483
:10501000B9C3D0F58D31910509F4A0C380F48B316B
:10502000910509F433C34C9711F00C949633809199
:105030001F07909120070F94D9290C94AD338E311E
:10504000910509F491C34F9711F00C9496330E9487
:1050500056A66C8F7D8F8E8F9F8FBE016F5F7F4FA7
:10506000CE014C960E947C6060E0CE0101960E94C9
:1050700099DB0F949433BE016F5F7F4F8DEC96E008
:105080000F949F290C94AD338934910509F4A5C37D
:1050900060F48132910509F49DC3C09711F00C941E
:1050A00096330F94901F0C94AD338B34910509F413
:1050B000A5C38C34910511F00C9496330E94A5A6DB
:1050C0000C94AD338B36910509F4EDC3E8F58435C6
:1050D000910509F4BBC4F8F48135910509F499C42C
:1050E00048F48E34910511F00C9496330E945B6164
:1050F0000C94AD338235910509F4A1C48335910533
:1051000011F00C9496338091B5058F7E8062809368
:10511000B5050C94AD338836910509F475C350F488
:105120008535910509F495C48C35910509F4B4C40D
:105130000C9496338936910509F46AC38A36910531
:1051400009F476C30C9496338137910509F40FC4A2
:10515000F8F48E36910509F4AFC378F48C369105D6
:1051600011F40C94AD338D36910511F00C949633F7
:1051700081E00E94DF7F0C94AD338F36910509F4F6
:10518000B7C38037910511F40C94AD330C9496336A
:105190008537910509F422C568F48237910509F431
:1051A0001AC58337910511F00C9496330E94116B48
:1051B0000C94AD338637910509F422C587379105E4
:1051C00011F00C9496330E94F4A50C94AD33813900
:1051D000F1E09F0711F40C943B3108F07EC08D3C48
:1051E000910509F425C6D0F58B39910509F4E9C379
:1051F000E0F48D37910509F409C468F48937910505
:1052000011F00C9496331092DB101092DA100E9479
:1052100047A60C94AD338C38910509F4CAC3813983
:10522000910509F452C50C949633893C910509F413
:10523000CDC550F48E3B910509F4BFC3883C910560
:1052400009F4B7C50C9496338B3C910509F4D0C58D
:105250008C3C910509F4DCC50C9496338C32A1E0AA
:105260009A0709F493C7D0F48D3D910509F427C638
:1052700050F4833D910509F4DEC58C3D910509F498
:10528000DDC50C9496338831E1E09E0709F46DC6C4
:105290008232914009F4FEC60C9496338F3221E09D
:1052A000920709F4E5C758F48D32A1E09A0709F492
:1052B00082C78E32914009F498C70C94963380339C
:1052C000E1E09E0709F484C78039914011F00C9405
:1052D00096330E9474E40C94AD33883F31E0930719
:1052E00011F40C94433208F052C0853AB1E09B07A8
:1052F00009F4E2C708F58C39F1E09F0709F4D1C73A
:1053000060F4823931E0930709F4C4C78A399140C7
:1053100011F40C94AD330C9496338D39B1E09B07A6
:1053200011F40C944A33843A914011F00C94963362
:105330000F94E54D0C94AD33853FF1E09F0711F4D8
:105340000C943D3278F4863E31E0930711F40C94CE
:10535000D131843F914011F00C9496330E9410DDBE
:105360000C94AD33863FB1E09B0711F40C944032AE
:10537000873F914011F00C94963361E083E50E94E1
:105380008B4891E089270F9437460C94AD338335D1
:10539000F3E09F0711F40C94303318F58B3532E0AD
:1053A000930711F40C94643278F48C30B2E09B07CC
:1053B00011F40C9453328835924011F00C949633CA
:1053C0000E94EBF60C94AD338D3BF2E09F0711F495
:1053D0000C946E328E3B924011F40C9471320C940A
:1053E0009633873E33E0930711F40C943333C8F4BB
:1053F0008C36B3E09B0711F40C94AD33803A9340A4
:1054000011F00C94963320911F0730912007909152
:105410000F16926090930F16C9010F94D9290C941E
:10542000AD33883EF3E09F0711F40C945A33893E64
:10543000934011F40C945D330C94963380E50E94F4
:105440007F48882329F00F94EE1E6B017C0103C076
:10545000C12CD12C760183E50E947F48882361F01E
:105460000E94FA4720E030E04AE754E40F94667A5D
:105470000F942C826B017C010E9474E480911F07C1
:1054800090912007009721F061E00E9499DB05C010
:1054900060E088E496E00E94E8DA80914A06909104
:1054A0004B06892B19F060E476E002C068E376E0F1
:1054B00020E030E043EE54E382E00F94723540E0A8
:1054C000C701B6010E94A14180E00E94E8DB0C9474
:1054D000AD330F94731C0C94AD3380910F1684FF81
:1054E0002DC08AE696E00F94063360E08CE40E94BB
:1054F0008B48182F80910F1684FF1AC084E396E121
:105500000E9413C08BE1E4E3F6E1DE011196019005
:105510000D928A95E1F720E030E040E050E0612F05
:10552000CE0101960E94F8EFCE0101960E94A05292
:105530008BE596E00F9406330C94AD330F949433BF
:105540008BE796E00F9406330C94AD330E94A4EEE3
:105550000C94AD3380910F1682FF04C087FD02C00A
:105560000C94AD330E9461E60C94AD33E0911F07BB
:10557000F09120078081882329F0803209F410827D
:105580003196F8CF60E080911F07909120070F942B
:10559000B82A1092B5090C94AD3383E50E947F4878
:1055A000882321F00E94C7470E946D6284E50E9413
:1055B0007F488823A9F00E94C7476B017C010E94A5
:1055C0008AA6C092160AD092170AE092180AF092A0
:1055D000190ACD28CE28CF2819F081E080934519EB
:1055E000809146198823F9F080E090E0A0EAB1E4C8
:1055F00089839A83AB83BC831C8E1D8E1E8E1F8E67
:1056000018A219A21AA21BA200E010E020E0AE012D
:105610004F5F5F4FBE01645E7F4FCE0180960F9457
:105620003D560C94AD330E94E739882381F00F94E6
:10563000A8250E940A3A8EE998E00F9460251092FE
:10564000991210929A1210929B1210929C1261E081
:105650008BE090E30F94AE3447E057E465E876E0E2
:1056600085E00F94B70A80E00E94E8DB0C94AD332C
:1056700080910F1684FD02C00C94AD3383E50E9427
:105680007F4881110C9451360C94AD3380914D06B6
:1056900090914E06A0914F06B0915006E2E0B6956B
:1056A000A79597958795EA95D1F780FF2CC08BE950
:1056B00096E00F94063380917B178823D9F0BE01C2
:1056C0006F5F7F4F88E797E10E9468EECE010196F9
:1056D0000F94B84FCE0101960F944D268091A814D7
:1056E000882361F080E20E94253A88EA94E10F94D1
:1056F000B84F04C081E996E00F9406338AE00E9417
:10570000253A0C94AD3380910F1682FF21C0C090D2
:105710000B16D0900C16E0900D16F0900E168AEA3B
:1057200096E00F940633C701B6010F94F3198FE288
:105730000E94253A6091071670910816809109160B
:1057400090910A160F94F3190F9486170C94AD33A9
:105750008CEB96E00F9406330C94AD3380910F16CA
:105760008E7F80930F16F9C780910F1684FD01C0BC
:10577000F4C70F941F0980911F07909120070F9481
:10578000492AEBC780910F1682FF03C087FF0E9452
:1057900074E480910F1684FD01C0DFC760E080E5EE
:1057A0000E948B48182F682F80911F079091200727
:1057B0000F94B82A83E50E947F48882321F00E9435
:1057C000C7470E946D620F94A8251111C6C70E9499
:1057D0000A3AC3C70E94F76EC0C780E50E947F489F
:1057E000882309F4BAC70E94D74790E0853691050F
:1057F00010F084E690E08093B509AFC70E940A3AA2
:10580000ACC70E941C3AA9C780E00E94DF7FA5C7F1
:105810000E94A5F1182F87FDA5C78AED96E00F9489
:105820000633812F0E947EC08AE00E94253A9AC7E3
:1058300060E080E50F94D84F81118FC780914D06AD
:1058400080FF05C060917C0A062F10E002C00FEFB8
:1058500010E089E40E947F48882399F00E94D7478E
:1058600090E01816190614F481E090E026E0289FD5
:10587000F001299FF00D1124EC5BFE4E048115818F
:1058800008C083E50E947F48882319F00E94C7471B
:105890008B01B8010F3F110519F010F06FEF70E0A8
:1058A00060937C0A5AC760E080E50F94D84F81115D
:1058B00054C710927C0A51C78EE40E947F48882307
:1058C00009F44BC70E94C747E0917C0232E6E39F90
:1058D000F0011124E152FD4FE081A7E6EA02F00158
:1058E0001124EF5AF94F608371838283938335C704
:1058F00083E50E947F48882321F00E94D747809348
:1059000080100F9494338BEE96E00F9406338091C1
:105910008010882349F171EEE72E76E0F72E00E043
:1059200010E020E08091801090E0002E02C095955C
:1059300087950A94E2F780FF0EC0DD24D394D20E3F
:10594000222319F08CE20E94253AF7018591949167
:105950000F9406332D2D0F5F1F4FB2E0EB0EF11C9D
:1059600005301105F9F6CACE8DED96E0C5CE83E57A
:105970000E947F48882371F00E94D747282F30E08B
:105980002D3331051CF480930002E7C68CE380932D
:105990000002E3C60F9494331091000282EF96E068
:1059A0000F940633812F0F94C42C8AE00E94253A6D
:1059B000D4C680E00E94737FD0C681E00E94737FCE
:1059C000CCC683E50E947F48882309F4C6C60E949E
:1059D000D747182F8D3308F08CE3809310150F9460
:1059E000F5106B017C01212F30E0A8EEB3E00F949D
:1059F0008B80C60ED71EE81EF91EC0920C15D092E1
:105A00000D15E0920E15F0920F15A7C60E94F6F73D
:105A1000A4C60E9499E50E941F3A0E9485C50E9473
:105A20001C3A68EE73E080E090E00F945B320E94D5
:105A3000223A60E089EF96E00E94E8DA8EC6809113
:105A4000B5058F7D80618093B50587C60E9402FAF7
:105A500084C683E50E943148882309F47EC60F94EA
:105A6000F5106093630870936408809365089093C1
:105A700066080E94FA4720E030E04AE754E40F94B9
:105A8000667A0F942C826093B0057093B105809371
:105A9000B2059093B30561C60E94A5F187FD5DC66E
:105AA00090914D0694FD04C090914F0697FF0AC057
:105AB00056E8C52E55E0D52E61E8E62E60E1F62EBB
:105AC00010E009C090915006937091F7682F81E023
:105AD0000F946A1D42C6F60181916F010E947F48B2
