:100000000C9452200C9483200C9483200C94832015
:100010000C9483200C9483200C9483200C948320D4
:100020000C9483200C9483200C9483200C948320C4
:100030000C9483200C9483200C9483200C948320B4
:100040000C9483200C94AE630C9483200C94832036
:100050000C9483200C9483200D9499230D94724F5B
:100060000C9483200C94A9410C949F410C94832000
:100070000C9483200C9483200C9483200C94832074
:100080000C944C390C9483200C9483200C94832082
:100090000C9483200C9483200C9483200C94832054
:1000A0000C9483200C9483200C941E390C94832090
:1000B0000C9483200C9483200C9483200C94832034
:1000C0000C9483200C9483200C9483200C94832024
:1000D0000C9483200C9483200C9483200C94832014
:1000E0000C948320DF41F141034214421C424F42F1
:1000F00020424F42244228424F422C423042344256
:100100003D424F42484212988196BA964E98BA960E
:10011000BA96BA96BA96BA96BA96BA96BA96BA965F
:10012000BA96BA96BA96BA96BA96BA96BA96BA964F
:10013000BA96BA96BA96BA96BA96BA96BA96BA963F
:10014000BA964898BA96BA96BA96BA96BA96BA969F
:10015000BA96BA962198BA96BA96BA96BA96BA96B6
:10016000BA96BA96BA96BA96BA966598B7965F0254
:10017000CD01A50117029F02CF02BD021501BD01ED
:100180004B027F02A30167027B023F01B9020F020B
:10019000B9012101ED01A50251017D0135028F0157
:1001A000A101B90155021B01BB0157029D012F029C
:1001B0008D028F0203028502EF014102E701EB018C
:1001C000C902A9026B020302C101F1013102084A0E
:1001D000D73B3BCE016E84BCBFFDC12F3D6C74315B
:1001E0009ABD56833DDA3D00C77F11BED9E4BB4CB2
:1001F0003E916BAAAABE000000803F05A84CCDB27C
:10020000D44EB93836A9020C50B9918688083CA65C
:10021000AAAA2ABE000000803F000D94342C0C9442
:10022000406E0C9450E20C9418AB0D94662E0C9416
:1002300024420D945F2C0D94464E0D94013D0C9478
:10024000674F0D941C4E0D94132C0D944A590C9429
:1002500069500C9400430C94BA960C9448420C9448
:100260003CE20C94AC820C94A9E10C94AA580D9435
:1002700080280D94C51C0D94FF380C9448540D949F
:10028000074E0C943D420C94FB510C9484A90D94A0
:100290002B2C0D940E270C94CB820D94173D0C94AF
:1002A000C7990D942A4E0D94232C0D94032C0D9474
:1002B000E92E0D94072C0C9413520C9421980C9455
:1002C00013A80D94E4380C942A430C9403420C9424
:1002D000E9E10D94592C0C9479E20C943CE40C94D3
:1002E0004E980C94ED9E0C9483550C944F420C94B4
:1002F000C74F0C9474E70C944BE20D942E4E0C9463
:1003000074500D94ED3A0C94F5510C94E3510C9407
:10031000F1990C94E4AC0C947F550C9425E20D9467
:10032000384E0C94E9510C9493580C9406500C944C
:100330001C420D94272C0D942E2C0D94914E0C9450
:1003400028420D943C4E0D94632E0D94512E0D9425
:10035000B7600D94E8340C9441E20C94EF510C9486
:10036000F1410C9414420D94D02E0D941D3D0C942B
:100370002BE20D944F4E0D944A4E0D945D2E0C942D
:10038000EAAC0D94054F0C945A500C9446E20C9430
:1003900043830C94B7960C943B830D944E2E0C948F
:1003A00038500C9464580C94FF950D94E52E0D94E0
:1003B000BD3C0C94FF420C9481960D94532C0D94EB
:1003C0001B2C0C946D520D94402C0C944E4F0D949C
:1003D000CE4E0C9452520D94D84E0D94204E0D9446
:1003E000BC4E0D940F4F0C9403430C9407520C9485
:1003F0002C420D94F5260D946B390D94D6380C943F
:10040000BC520C948C430D94234F0C94DBE10C9460
:1004100019520C945AE20C94EABA0C9411960D9469
:100420000F4E0D940F2C0D94333F0C94DF410D941F
:100430006E2E0C94994F0C94D8580C94C1580C946F
:100440007D550D947D390C9448980C942B590C943F
:100450001F520C94E8AC0C941F500D94CC2E0D94AC
:10046000964E0D94194F0C9420420D94344E0C94DA
:1004700002960C9479500C94D9E10C9425520C946A
:1004800037E20D94C44E0C94804F0D9499600C94F7
:10049000E1E10D941F2C0D94792E0C945E550D9472
:1004A0002E2E0C94E6AC0C94FD850D94424E0D94CA
:1004B0008C4E0C9434420C94B8600C9440560D94BD
:1004C0006B2E0D9435390C94FC950C9455E20D94DB
:1004D000154E0C9451500D94FB4E0C946B820C9461
:1004E00028830C9434520C9443520C94D7E10D940D
:1004F00022350D94172C0D94184E0C9435E30D9461
:10050000602E0C942F590D94F1290D94B44E0C9437
:10051000E8E50D94A7270C94F7830D94A04E0D9455
:10052000AA4E0C9431E20D947B2E0C9401520C9443
:10053000C49E0C9473580D94E12E0D94312C0D949F
:10054000542E0C9412980C9481550D94264E0C94B4
:100550001FE20D94F14E0C9495840C94DA4F0C9498
:100560007C520C9430420C94525C0D94E2260C9414
:100570001F830D940B4E0C943CE30D945A2E0C9457
:1005800065980C9484750C94CCE10C940D520D94E8
:10059000222E0D94E24E0C948A880C94C0BA0D94CD
:1005A000572E0C94ECAC0C94B44F0D940B2C0C9473
:1005B0007C580C945E520C9430830C94F34F0D9441
:1005C00050390D940B3D0C9437770D941A394E41E8
:1005D0004E494E495459494E46CDCCCC3D0AD723BD
:1005E0003C17B7D13877CC2B329595E6241FB14F05
:1005F0000A000020410000C84200401C4620BCBE4A
:100600004CCA1B0E5AAEC59D7400407A10F35A00B6
:10061000A0724E18090010A5D4E80000E87648172B
:100620000000E40B54020000CA9A3B000000E1F510
:1006300005000080969800000040420F000000A0D6
:100640008601000000102700000000E80300000001
:10065000006400000000000A00000000000100002B
:100660000000002C76D888DC674F0823DFC1DFAE9E
:1006700059E1B1B796E5E3E453C63AE65199769667
:10068000E8E6C28426EB898C9B62ED407C6FFCEF30
:10069000BC9C9F40F2BAA56FA5F490055A2AF75C5E
:1006A000936B6CF9676DC11BFCE0E40D47FEF52010
:1006B000E6B500D0ED902E030094357705008084D8
:1006C0001E080000204E0A000000C80C33333333EC
:1006D0000F986E12831141EF8D2114893BE6551658
:1006E000CFFEE6DB18D1844B381BF77C1D901DA490
:1006F000BBE424203284725E228100C9F124ECA183
:10070000E53D27434F4D4D554E49434154494F4ECA
:100710000044525952554E004552524F52530045D3
:1007200043484F0047322F47332062616420706195
:1007300072616D65746572730A00536C6565702E25
:100740002E2E005A2050726F626520506173742003
:100750004265640A005A2050726F626520506173CE
:100760007420426564004D3131372050726F6265EC
:10077000206661696C65642E205265776970696EC8
:10078000672E0A4732380A47313220503020533121
:10079000322054300070726F62655F7265776970E5
:1007A0006500473239205265747279696E67004D71
:1007B00031313720426564206C6576656C696E67FF
:1007C000206661696C65642E0A4730205A31300A10
:1007D0004D3330302050323520533838300A4D33C5
:1007E0003030205035302053300A4D3330302050D7
:1007F000323520533838300A4D33303020503530C0
:100800002053300A4D3330302050323520533838A1
:10081000300A4D333030205035302053300A4734C1
:100820002053310070726F62655F6661696C656448
:10083000004D31313720426564206C6576656C6906
:100840006E6720646F6E652E004D65736820706F53
:10085000696E74206F7574206F662072616E6765B3
:100860000A004D302053746F70004D312053746F67
:100870007000436C69636B20746F20526573756DF3
:10088000652E2E2E004E6F204D6F76652E00456E24
:10089000642066696C65206C6973740A0042656740
:1008A000696E2066696C65206C6973740A004E6F0E
:1008B000206D656469610A00526573756D696E67C4
:1008C00020534400286E6F2066696C6529004375CB
:1008D0007272656E742066696C653A2000507269A8
:1008E0006E742074696D653A20000A5374617473E4
:1008F0003A2046696C616D656E7420757365643A63
:1009000020002C204C6F6E67657374206A6F623A0A
:100910002000546F74616C2074696D653A20002C5E
:10092000204661696C65643A20002C2046696E6936
:10093000736865643A20005072696E74733A2000DF
:1009400053746174733A2000452025530044454296
:1009500055473A004D3131332053004265642043FE
:100960006F6F6C696E672E2E2E004265642048659D
:100970006174696E672E2E2E0043522D3130205641
:1009800033204F46462E002F2F20004D3134352086
:10099000533C696E6465783E206F7574206F6620E5
:1009A00072616E67652028302D31290A0046523A5F
:1009B0000020466C6F773A200020536572766F20D6
:1009C0000020643A0020693A0020703A006469739C
:1009D0000043290A0061626C656420286D696E20FD
:1009E00074656D702000436F6C6420657874727557
:1009F00064657320617265200046696C616D656E87
:100A0000742072756E6F75742064697374616E639F
:100A10006520286D6D293A200046696C616D656E10
:100A2000742072756E6F757420004D3432312069F8
:100A30006E636F727265637420706172616D65744C
:100A400065722075736167650A00454550524F4DC8
:100A5000204F4B0A00506F7765722D6C6F737320B7
:100A60007265636F766572792000446F6E652070E1
:100A700072696E74696E672066696C650A004D372D
:100A800037004D3331001F07A40A18071107030769
:100A9000554E4B4E4F574E205354415445004743FB
:100AA0004F44455F494E464F004C43445F504155CB
:100AB00053455F524553554D450046494C414D45C0
:100AC0004E545F52554E4F55545F434F4E54494E0E
:100AD00055450046494C414D454E545F52554E4F89
:100AE0005554004D38373620526573706F6E646907
:100AF0006E672050524F4D50545F004572726F72B6
:100B00002077726974696E6720746F204545505272
:100B10004F4D210A004E6F20436865636B73756DFE
:100B20002077697468206C696E65206E756D6265EA
:100B3000722C204C617374204C696E653A200063FE
:100B40006865636B73756D206D69736D617463683F
:100B50002C204C617374204C696E653A20004C69FE
:100B60006E65204E756D626572206973206E6F74BC
:100B7000204C617374204C696E65204E756D626502
:100B8000722B312C204C617374204C696E653A20B5
:100B9000004D31313000534420726561642065722C
:100BA000726F720A002121204B494C4C2063617501
:100BB000736564206279204B494C4C2062757474D3
:100BC0006F6E2F70696E0A002121204B494C4C201A
:100BD00063617573656420627920746F6F206D7531
:100BE000636820696E6163746976652074696D65F8
:100BF000202D2063757272656E7420636F6D6D6158
:100C00006E643A2000627573793A2070617573657D
:100C10006420666F7220696E7075740A0062757365
:100C2000793A2070617573656420666F7220757300
:100C300065720A00627573793A2070726F6365732A
:100C400073696E670A004D656469612052656D6F56
:100C5000766564004D6564696120496E73657274E0
:100C60006564004D3130303053007061757365003C
:100C70004D363030002066696C616D656E745F7250
:100C8000756E6F7574200066696C616D656E745F5A
:100C900072756E6F757420540046696C616D656E77
:100CA0007452756E6F75742054002569792025691A
:100CB00064202569682025696D20256973002364F7
:100CC0006566696E652044454641554C545F004B4E
:100CD0006420004B6920004B7020005049442041A3
:100CE00075746F74756E652066696E697368656486
:100CF000212050757420746865206C617374204BDA
:100D0000702C204B6920616E64204B6420636F6EF1
:100D10007374616E74732066726F6D2062656C6FA0
:100D20007720696E746F20436F6E666967757261B4
:100D300074696F6E2E680A00504944204175746FC3
:100D400074756E65206661696C6564212074696DD7
:100D5000656F75740A000A20436C617373696320C0
:100D6000504944200A00204B643A2000204B693A45
:100D70002000204B703A20000A204E6F206F7665CD
:100D80007273686F6F740A002054753A2000204B0C
:100D9000753A2000206D61783A2000206D696E3A26
:100DA000200020643A200020626961733A200050DC
:100DB0004944204175746F74756E65207374617257
:100DC000740A00504944204175746F74756E652033
:100DD0006661696C6564212054656D70657261742B
:100DE00075726520746F6F20686967680A005049E2
:100DF00044204175746F74756E65005049442041FC
:100E000075746F74756E65206661696C6564212008
:100E1000426164206578747275646572206E756DC8
:100E20006265720A004572723A20757466382066EF
:100E30006F6E74206E6F7420696E697469616C697D
:100E40007A65642E00000C0F00FE07022503BB012B
:100E50007FFE08FE08FE05080806000040F0C8886E
:100E600088987810050808060000C0F888888888E7
:100E700088F80505050600012030F830200508082F
:100E80000600002070F820202020E0050909060057
:100E9000FF2070A8A8B88888702007050507000102
:100EA000D86C366CD80509090600FFF8A888888830
:100EB0008888A8F8050A0A0600FE2050505050887D
:100EC000A8A8887003030306000340A040FFFFFFAB
:100ED000FFFFFFFFFFFFFFFFFFFFFFFFFFFFFFFF22
:100EE000FFFFFF0000000605FF0107070602008064
:100EF000808080800080030303060105A0A0A00578
:100F0000060606000050F85050F850050909060082
:100F1000FF2070A8A07028A8702005070706000011
:100F2000C8C8102040989805070706000040A0A0F8
:100F300040A8906801030306020580808003090928
:100F40000601FF20404080808040402003090906C0
:100F500001FF804040202020404080050707060018
:100F60000020A8702070A82005050506000120209B
:100F7000F820200203030601FFC04080050101069E
:100F80000003F8020202060100C0C00507070600C0
:100F900000081010204040800507070600007088F8
:100FA00098A8C8887003070706010040C040404069
:100FB00040E0050707060000708808102040F8058B
:100FC0000707060000F808103008887005070706B4
:100FD000000010305090F81010050707060000F8C8
:100FE00080F008088870050707060000304080F090
:100FF000888870050707060000F8081010202020D8
:101000000507070600007088887088887005070744
:101010000600007088887808106002050506010047
:10102000C0C000C0C00206060601FFC0C000C0402C
:1010300080030505060101204080402005030306CA
:101040000002F800F80305050601018040204080F9
:1010500005070706000070881020200020050707FC
:101060000600007088B8A8B8807005070706000061
:10107000708888F8888888050707060000F04848C7
:10108000704848F005070706000070888080808857
:1010900070050707060000F04848484848F0050773
:1010A00007060000F88080F08080F805070706003A
:1010B00000F88080F08080800507070600007088B7
:1010C0008080988870050707060000888888F8885F
:1010D0008888030707060100E04040404040E005E3
:1010E000070706000038101010109060050707066B
:1010F00000008890A0C0A090880507070600008027
:101100008080808080F805070706000088D8A888BE
:101110008888880507070600008888C8A8988888F6
:10112000050707060000708888888888700507070B
:10113000060000F08888F080808005070706000020
:1011400070888888A89068050707060000F08888DE
:10115000F0A0908805070706000070888070088856
:1011600070050707060000F8202020202020050732
:1011700007060000888888888888700507070600A9
:101180000088888888505020050707060000888856
:101190008888A8A8500507070600008888502050B6
:1011A0008888050707060000888850202020200531
:1011B0000707060000F80810204080F80309090618
:1011C00001FFE080808080808080E00507070600C6
:1011D00000804040201010080309090601FFE020AC
:1011E000202020202020E005030306000520508851
:1011F0000501010600FEF8030303060105804020F7
:1012000005050506000070087888780507070600C0
:10121000008080F0888888F0050505060000708051
:101220008088700507070600000808788888887895
:101230000505050600007088F080700507070600A8
:1012400000304840E04040400507070600FE708837
:1012500088887808700507070600008080F0888875
:1012600088880307070601004000C0404040E004B2
:1012700009090601FE1000301010101090600507DB
:101280000706000080808890E09088030707060129
:1012900000C04040404040E0050505060000D0A8E1
:1012A000A8A8A8050505060000B0C8888888050517
:1012B0000506000070888888700507070600FEF0A4
:1012C000888888F080800507070600FE788888886F
:1012D000780808050505060000B0C880808005056F
:1012E0000506000078807008F0050707060000205A
:1012F00020F8202020180505050600008888889819
:101300006805050506000088888850200505050643
:1013100000008888A8A85005050506000088502010
:1013200050880507070600FE888888502040800501
:101330000505060000F8102040F80309090601FF22
:101340002040404080404040200109090602FF80C3
:1013500080808080808080800309090601FF8040B2
:101360004040204040408005030306000248A8900A
:10137000FF452073746570732F6D6D005A20537490
:101380006570732F6D6D00592053746570732F6DE8
:101390006D00582053746570732F6D6D00496E6930
:1013A000740050726F6265204F66667365747300D7
:1013B000416363656C65726174696F6E0056656C3C
:1013C0006F63697479005A2056616C756500496EC7
:1013D000646578205900496E64657820580046613C
:1013E0006465204865696768740045646974204DC8
:1013F000657368004C6576656C2042656400473211
:10140000380A4732390052756E6F7574204469731B
:1014100074206D6D004C6F6164206D6D00556E6CB5
:101420006F6164206D6D0046696C2E204469612EE9
:10143000004520696E206D6DC2B3004D33303320FE
:1014400055312045256920532569005049442041E4
:1014500075746F74756E65202A005049442D4420C0
:101460002A005049442D49202A005049442D50203B
:101470002A0020082046616374002008204D61780E
:10148000002008204D696E004175746F74656D70A1
:101490000024F4D43050C38E20C2A24017828B7037
:1014A00011127A910D816CD90AA861E108C75866BA
:1014B00007615143061E4B5D05C145A7041A411142
:1014C00004093D9803713931034036DB02653391DD
:1014D00002D4305402802E1D02632CEE01752AC501
:1014E00001B028A001102781018F2564012B244B16
:1014F00001E0223401AC211F018D200D01801FFC71
:1015000000841EED00971DDF00B81CD200E61BC64C
:1015100000201BBC00641AB200B219A8000A19A06E
:10152000006A189900D117910040178B00B51684F6
:101530000031167E00B31579003A157300C7146F99
:101540000058146A00EE1366008813630025135ECA
:1015500000C7125B006C12570015125400C11151E4
:101560000070114F0021114B00D61049008D10471B
:10157000004610440002104200C00F4000800F3EA1
:1015800000420F3C00060F3B00CB0E3800930E3795
:10159000005C0E3500270E3400F30D3200C10D3112
:1015A00000900D3000600D2E00320D2D00050D2C29
:1015B00000D90C2B00AE0C2900850C29005C0C27EF
:1015C00000350C27000E0C2600E80B2400C40B2469
:1015D00000A00B23007D0B23005A0B2100390B21A7
:1015E00000180B2000F80A1F00D90A1E00BB0A1EB3
:1015F000009D0A1D00800A1D00630A1C00470A1B8B
:10160000002C0A1B00110A1A00F7091A00DD09193B
:1016100000C4091900AB091900920917007B0918C9
:1016200000630917004C0916003609160020091638
:10163000000A091500F5081500E0081400CC08148C
:1016400000B8081400A4081400900813007D0812C4
:10165000006B0813005808120046081200340811E5
:1016600000230811001208110001081100F00710F2
:1016700000E0071000D0071000C0071000B0070FEF
:1016800000A107100091070E0083070F0074070FD9
:101690000065070E0057070E0049070E003B070DB7
:1016A000002E070E0020070D0013070D0006070D82
:1016B00000F9060C00ED060D00E0060C00D4060C47
:1016C00000C8060C00BC060C00B0060C00A4060BFB
:1016D0000099060C008D060B0082060B0077060BA6
:1016E000006C060B0061060A0057060B004C060A48
:1016F0000042060A0038060A002E060A0024060ADE
:10170000001A060A001006090007060A00FD05096E
:1017100000F4050900EB050900E2050900D90509F7
:1017200000D0050900C7050900BE050900B5050878
:1017300000AD050800A50509009C050800940508F2
:10174000008C050800840508007C05080074050865
:10175000006C050700650508005D050700560508D3
:10176000004E05070047050700400508003805073B
:1017700000310507002A050700230507001C0506A0
:1017800000160507000F05070008050600020507FB
:1017900000FB040600F5040700EE040600E804065A
:1017A00000E2040700DB040600D5040600CF0406AF
:1017B00000C9040600C3040600BD040600B7040601
:1017C00000B1040500AC040600A6040600A0040550
:1017D000009B04060095040500900406008A040599
:1017E0000085040500800406007A040500750405E0
:1017F00000700405006B0405006604050061040523
:10180000005C04050057040500520405004D040562
:101810000048040500430405003E0404003A0405A2
:101820000035040500300404002C040500270404DE
:1018300000230405001E0404001A04040016040515
:1018400000110404000D040400090405000404044C
:101850000000040400FC030400F8030400F4030483
:1018600000F0030400EC030400E8030400E40304B4
:1018700000E0030400DC030400D8030400D40304E4
:1018800000D0030400CC030400C8030300C5030315
:101890000024F404D9201BC40C5C0E9804C4095F16
:1018A0000265077101F405F900FB04B300480487E1
:1018B00000C10369005803550003034500BE023A06
:1018C000008402310053022A00290225000402206C
:1018D00000E4011C00C8011900AF011700980114B1
:1018E0000084011300710110006101100051010E0C
:1018F0000043010D0036010B002B010B0020010BF2
:1019000000150109000C01090003010800FB000893
:1019100000F3000800EB000700E4000600DE00060C
:1019200000D8000600D2000600CC000500C7000564
:1019300000C2000500BD000400B9000400B50004A9
:1019400000B1000400AD000400A9000400A50003DC
:1019500000A20003009F0004009B00030098000306
:10196000009500020093000300900003008D000228
:10197000008B000300880002008600020084000340
:1019800000810002007F0002007D0002007B000257
:101990000079000200770001007600020074000266
:1019A0000072000100710002006F0002006D000172
:1019B000006C0002006A000100690002006700017B
:1019C0000066000100650001006400020062000181
:1019D0000061000100600001005F0002005D000185
:1019E000005C0001005B0001005A00010059000189
:1019F0000058000100570001005600010055000189
:101A00000054000100530000005300010052000187
:101A10000051000100500001004F0001004E000085
:101A2000004E0001004D0001004C0001004B000081
:101A3000004B0001004A000100490001004800007D
:101A40000048000100470001004600000046000178
:101A50000045000000450001004400010043000073
:101A6000004300010042000000420001004100006C
:101A70000041000100400001003F0000003F000164
:101A8000003E0000003E0001003D0000003D00015E
:101A9000003C0000003C0000003C0001003B000056
:101AA000003B0001003A0000003A0001003900004C
:101AB0000039000100380000003800000038000143
:101AC000003700000037000100360000003600003B
:101AD000003600010035000000350000003500012F
:101AE0000034000000340000003400010033000026
:101AF000003300000033000100320000003200001B
:101B0000003200010031000000310000003100010E
:101B1000003000000030000000300001002F000005
:101B2000002F0000002F0000002F0001002E0000F9
:101B3000002E0000002E0001002D0000002D0000EE
:101B4000002D0000002D0001002C0000002C0000E2
:101B5000002C0000002C0001002B0000002B0000D6
:101B6000002B0000002B0001002A0000002A0000CA
:101B7000002A0000002A00010029000000290000BE
:101B800000290000002900000029000100280000B1
:101B900000280000002800000028000000280001A4
:101BA0000027000000270000002700000027000099
:101BB000002700010026000000260000002600008B
:101BC000002600000026000100250000002500007E
:101BD0000025000000250000002500000025000170
:101BE0000024000000240000002400000024000065
:101BF0000024000100230000002300000023000057
:101C00000023000000230000002300000023000147
:101C1000002200000022000000220000002200003C
:101C2000002200000022000100210000002100002D
:101C30000021000000210000002100000021000020
:101C40000021000100200000002000000020000012
:101C50000020000000200000002000000020000004
:101C600000200001001F0000001F0000001F0000F6
:101C7000001F0000001F0000001F0000001F0001E7
:101C8000001E0000001E0000001E0000001E0000DC
:101C900000393000003325000087190000B00F0024
:101CA00000DB080000BD040000740200003F0100DA
:101CB0000050726F6265205A204F6666736574002B
:101CC00046616E205370656564207E004D61696ECB
:101CD00000466C6F77002568753A253032687500CC
:101CE00025303268753A2530326875002020202072
:101CF000202020001FE02010201020101020102095
:101D00002010201030300840048003001FE03FF016
:101D10003FF03FF01FE01FE03FF03FF03FF00FC00B
:101D2000078003003FFFF038007030FC3020FC10CB
:101D30002078102030102C00D02E31D02F7BD02FC7
:101D40007BD02E31D02C00D020301020781020FCF9
:101D50001030FC303800703FFFF03FFFF03800706B
:101D60003186302387102787902F87D02F03D020EC
:101D700030102078102078102030102F03D02F87BB
:101D8000D02787902387103186303800703FFFF0CE
:101D90001FFFF81FFFF8041040020820020820046B
:101DA00010400820801041001041000820800410DD
:101DB000400000001FFFF81FFFF8000000001E0099
:101DC0000000002100000000271DC08C00272121F9
:101DD000920041212092008E21CE920090212092EB
:101DE000011021209201201D21CC022000000004BE
:101DF0001001130008100114801008011080200445
:101E000000A30047F200A08043E2004480200400C9
:101E1000430018D8000000198400000021FC0000D5
:101E2000003F00486F6D696E67204661696C6564AC
:101E3000006F70656E005452494747455245440053
:101E400066696C616D656E74007A5F6D696E0079AC
:101E50005F6D696E00785F6D696E005265706F72BC
:101E600074696E6720656E6473746F70207374613B
:101E70007475730A00486F6D65202573257325738B
:101E8000204669727374005761726E696E673A20FA
:101E9000486F6D696E672042756D70204469766980
:101EA000736F72203C20310A000000484200004855
:101EB000420000C0400202040000A0400000A04018
:101EC00000000040FFFFFF000000010000000100D3
:101ED000008000555555000000400033333300AA00
:101EE000AA2A004992240000002000C7711C009912
:101EF000991900D1451700555515003BB113002421
:101F000049120011111100000010000F0F0F00E323
:101F1000380E0043790D00CCCC0C00C3300C00E827
:101F2000A20B0064210B00AAAA0A00703D0A009DC2
:101F3000D80900427B090092240900DCD3080088FC
:101F40008808001042080000000800F0C107008760
:101F500087070075500700711C07003EEB0600A1C3
:101F6000BC06006990060066660600703E060061C9
:101F700018060017F4050074D105005BB00500B227
:101F8000900500627205005555050078390500B8C6
:101F90001E0500050505004EEC040087D40400A1D1
:101FA000BD040090A7040049920400C17D0400EE26
:101FB000690400C7560400444404005C320400086D
:101FC00021040041100400000004003FF00300F869
:101FD000E0030026D20300C3C30300CCB503003ADC
:101FE000A803000A9B0300388E0300C08103009FF2
:101FF000750300D0690300505E03001D53030034D5
:10200000480300913D0300333303001629030038D1
:102010001F030097150300300C0300030303000B9C
:10202000FA020049F10200BAE802005CE002002D69
:10203000D802002DD0020059C80200B0C002003101
:10204000B90200DAB10200AAAA0200A0A30200BCF1
:102050009C0200FA9502005C8F0200DF8802008279
:10206000820200457C0200277602002770020043AE
:102070006A02007C640200D05E02003F590200C880
:10208000530200506F776572204F75746167650069
:10209000436F6E66696775726174696F6E00436144
:1020A0006E63656C204F626A6563740043616E63A2
:1020B000656C0042696C696E656172204C6576657D
:1020C0006C696E670045787472756465727300435D
:1020D000522D313020563300323032312D30342DF4
:1020E00030332031353A3133005072696E74657285
:1020F00020537461747300546865726D6973746FF2
:10210000727300426F61726420496E666F00507294
:10211000696E74657220496E666F004D31303030E3
:102120000053746F70205072696E7400526573753D
:102130006D65205072696E74004368616E6765203A
:102140004D65646961004D32310041626F757420E4
:102150005072696E746572004E6F204D65646961DE
:102160000054756E65005061757365205072696E1C
:102170007400496E666F2053637265656E00537418
:10218000617274205072696E740043616E6E6F7478
:1021900020656E746572207375626469723A2000FE
:1021A000022E2E0000009B4300009B430000C8430A
:1021B000FFFDFCFAF8F6F4F2F0EEECEAE9E7E5E30D
:1021C000E1E0DEDCDAD9D7D5D4D2D0CFCDCBCAC8C6
:1021D000C7C5C3C2C0BFBDBCBAB9B7B6B4B3B2B04D
:1021E000AFADACAAA9A8A6A5A4A2A1A09E9D9C9AA9
:1021F00099989795949392908F8E8D8B8A898887E2
:102200008684838281807F7E7D7B7A7978777675FC
:1022100074737271706F6E6D6C6B6A6968676665F6
:1022200064636261605F5E5D5C5B5A5958585756E3
:10223000555453525150504F4E4D4C4B4A4A4948B9
:10224000474646454443424241403F3E3E3D3C3B7B
:102250003B3A39383837363535343332323130302D
:102260002F2E2E2D2C2B2B2A2929282727262525D2
:1022700024232322212120201F1E1E1D1C1C1B1B6A
:102280001A191918181716161515141313121211F6
:1022900011100F0F0E0E0D0D0C0C0B0A0A09090878
:1022A00008070706060505040403030202010000EF
:1022B000000000000000000000000000536574747E
:1022C000696E67732053746F72656400536574742C
:1022D000696E67732053746F726564202800456EC1
:1022E000636C6F737572650000FE0003FF8007C7A3
:1022F000C00701E00000E00000F000007004007082
:102300000E00701F00703F80F00E00E00F01E0072C
:10231000C7C003FF8000FE0000FE0003FF8007C768
:10232000C00F01E00E00E03F80F01F00700E007053
:102330000400700000700000F00000E00701E007FA
:10234000C7C003FF8000FE000E000E000E000E004E
:102350000E000E000E000E007FC03F801F000E001A
:10236000040004000E001F003F807FC00E000E001E
:102370000E000E000E000E000E000E00FFFFFF7F8D
:1023800080FFC0FFC0FFC07F807F80FFC0FFC0FF15
:10239000C03F001E000C002053697A653A200043BC
:1023A000616E6E6F74206F70656E20737562646904
:1023B000722000534420496E6974204661696C00A4
:1023C00053442063617264206F6B0A006F70656E06
:1023D000526F6F74206661696C65640A00766F6C79
:1023E000756D652E696E6974206661696C65640A35
:1023F000004E6F20534420636172640A004D3233F3
:102400002025730046696C652073656C656374658F
:10241000640A0046696C65206F70656E65643A20D9
:1024200000454E4420535542524F5554494E450A9B
:10243000002220706F73002220706172656E743A02
:102440002200535542524F5554494E452043414C6A
:102450004C207461726765743A220053756263613F
:102460006C6C204F766572666C6F7700457863659B
:1024700065646564206D617820535542524F555410
:10248000494E452064657074683A310A0044656CB1
:102490006574696F6E206661696C65642C2046699D
:1024A0006C653A200046696C652064656C657465EE
:1024B000643A005344207072696E74696E672062DA
:1024C00079746520004E6F74205344207072696ED9
:1024D00074696E670A006F70656E206661696C656D
:1024E000642C2046696C653A200057726974696EE5
:1024F0006720746F2066696C653A200066726573A8
:102500006800646F696E67004E6F772000565472E2
:102510006176204D696E00566D696E00566D61786A
:10252000204500566D6178205A00566D617820591B
:1025300000566D6178205800416D6178204500415A
:102540006D6178205A00416D6178205900416D61BC
:1025500078205800412D54726176656C00412D52EF
:1025600065747261637400416363656C0056652D28
:102570004A65726B00565A2D4A65726B0056592D8A
:102580004A65726B0056582D4A65726B0050726F27
:1025900062652059204F66667365740050726F62E1
:1025A000652058204F6666736574002062797465F3
:1025B000733B2063726320004E6F20454550524F9D
:1025C0004D2E0A00205200454550524F4D20646167
:1025D000746173697A65206572726F722E0A0020C9
:1025E00073746F7265642073657474696E677320A9
:1025F00072657472696576656420280020286361BD
:102600006C63756C6174656429210A0020213D208A
:1026100000454550524F4D20435243206D69736D24
:1026200061746368202D202873746F72656429209B
:1026300000496E6465783A200044494749504F5438
:1026400053204C6F616465640A0044494749504F08
:102650005453204C6F6164696E670A00204D6172AB
:102660006C696E3D563832290A00454550524F4D2F
:102670002076657273696F6E206D69736D61746326
:10268000682028454550524F4D3D004861726463B3
:102690006F6465642044656661756C74205365746D
:1026A00074696E6773204C6F616465640A003B2037
:1026B0000020204D363033200020204D3431322090
:1026C000530046696C616D656E742072756E6F752E
:1026D000742073656E736F723A0020550046696C02
:1026E000616D656E74206C6F61642F756E6C6F61C7
:1026F00064206C656E677468733A0020204D38352D
:10270000312058005A2D50726F6265204F666673F3
:1027100065740020204D343133205300506F7765AD
:10272000722D4C6F7373205265636F766572793AC0
:102730000020204D33303420500020204D333031E4
:102740002050005049442073657474696E67733A71
:102750000020460020480020204D31343520530011
:102760004D6174657269616C206865617475702073
:10277000706172616D65746572733A00204A002061
:1027800020473239205720490020204D3432302054
:1027900053004175746F20426564204C6576656C0A
:1027A000696E673A0020204D323035204200416486
:1027B00076616E6365643A20423C6D696E5F736555
:1027C000676D656E745F74696D655F75733E2053E8
:1027D0003C6D696E5F66656564726174653E205428
:1027E0003C6D696E5F74726176656C5F6665656489
:1027F000726174653E20583C6D61785F785F6A65F0
:10280000726B3E20593C6D61785F795F6A65726BCF
:102810003E205A3C6D61785F7A5F6A65726B3E203C
:10282000453C6D61785F655F6A65726B3E00202094
:102830004D323034205000416363656C65726174C1
:10284000696F6E2028756E6974732F7332293A2070
:10285000503C7072696E745F616363656C3E2052B8
:102860003C726574726163745F616363656C3E2082
:10287000543C74726176656C5F616363656C3E00A5
:1028800020204D3230312058004D6178696D756DD2
:1028900020416363656C65726174696F6E20287591
:1028A0006E6974732F7332293A0020204D32303311
:1028B0002058004D6178696D756D2066656564729C
:1028C000617465732028756E6974732F73293A00DB
:1028D00053746570732070657220756E69743A0068
:1028E00020440020204D32303020530020446973B2
:1028F00061626C65640A0046696C616D656E742086
:1029000073657474696E67733A0020204D313439F1
:102910002043203B20556E69747320696E20436507
:102920006C736975730A0020286D6D29002020479B
:102930003231202020203B20556E69747320696E4F
:10294000206D6D0000803B4400803B4400007041DE
:10295000000096420000A0420000A0420000C843D0
:102960000080CF43D0070000D007000064000000C3
:10297000881300000000000000000060000000005C
:1029800000FC00000FF00000000007E00000000065
:1029900001861FC018700000000000603C0C0000A1
:1029A00001830C6010300000000000603C0C00004F
:1029B00001830C303030000000000060000C00008B
:1029C00000030C183000000000000060003F0F3CC6
:1029D00000030C0C6001DF0FE0FE00601C1C0618F9
:1029E00000060C0C6000F318318300600C0C031817
:1029F000001E0C0C6000E030398300600C0C0330CA
:102A000000030C0C6000C030380F00600C0C033069
:102A100000018C0C6000C03FF8FB00600C0C033020
:102A200000018C0C6030C030018300600C0C01F0A0
:102A300001818C0C6030C030018300600C0C00E020
:102A400001818C183030C018318300600C0C40E0DC
:102A500001838C301860C00C6187C0E01C0CC06022
:102A600000C30C600FC3F007C0FFC7FC7F0781C025
:102A7000007E1FC0000000000000000000000700F2
:102A8000000000000000000000000000000007003F
:102A9000000000001FFFFFFFFFFFFF6000000000BD
:102AA00001FF400000000000FF8000000000007FE8
:102AB00083CF00000C303F87FF80000C301F8679E9
:102AC00080000C000F8C30C7838C30E78C30CFC770
:102AD000CC31F38C30DCECEC33B98C30D86C6C330B
:102AE000198C30D06C0C33198C30D86C0C33198C99
:102AF00030DC6C0E3B198C30CF7C079F198C30C7B3
:102B00007C038F19400000000000026000000000FC
:102B100000061FFFFFFFFFFFF870012C0190012747
:102B200001B0012201C0011D01F0011801100213C2
:102B30000130020E016002090190020401C002FF8F
:102B4000000003FA004003F5008003F000D003EB1F
:102B5000002004E6007004E100E004DC004005D73A
:102B600000C005D2004006CD00D006C8008007C3D3
:102B7000003008BE00F008B900C009B400B00AAFC8
:102B800000B00BAA00D00CA500000EA000500F9BB7
:102B900000C01096005012910000148C00C01587E0
:102BA00000B0178200B0197D00D01B7800001E73A2
:102BB0000040206E0090226900F024640040275FEE
:102BC0000090295A00E02B5500102E500020304B69
:102BD0000010324600E033410090353C001037379A
:102BE0000070383200A0392D00B03A2800A03B23F5
:102BF00000603C1E00103D1900903D1400103E0F77
:102C000000703E0A00C03E0500003F0000403FFB50
:102C1000FF803FF6FFC03FF1FF68747470733A2F76
:102C20002F6D61726C696E66772E6F726700322E3F
:102C3000302E372E322D46695A692D424C2D3131B6
:102C40003532303062002020506C616E6E65724209
:102C5000756666657242797465733A200020467223
:102C60006565204D656D6F72793A2000436F6D7018
:102C7000696C65643A204170722020332032303212
:102C8000310A00204C61737420557064617465646E
:102C90003A20323032312D30342D30332031353A34
:102CA0003133207C20417574686F723A2046695A2E
:102CB000692C20435231302D56332C2062617365CC
:102CC00064206F6E206672616E3670204352313020
:102CD0002D56320A00322E302E372E322D46695AAA
:102CE000692D424C2D313135323030620A004D6150
:102CF000726C696E0020536F667477617265205242
:102D0000657365740A00205761746368646F672097
:102D100052657365740A002042726F776E206F757A
:102D2000742052657365740A002045787465726E6C
:102D3000616C2052657365740A00506F7765725537
:102D4000700A006175746F25632E6700473238582A
:102D500059004D31303031006572726F72207772D8
:102D60006974696E6720746F2066696C650A004437
:102D70006F6E6520736176696E672066696C652E7B
:102D80000A004D3239002553202563202563202574
:102D90006320256300656E6473746F7073206869C7
:102DA000743A20007C3C3E5E2B3D3F2F5B5D3B2C0C
:102DB0002A225C0020746F6F206C6F6E672065782C
:102DC00074727573696F6E2070726576656E746566
:102DD000640A0020636F6C6420657874727573698F
:102DE0006F6E2070726576656E7465640A00205A95
:102DF0003A0020593A0050726F62696E6720506F36
:102E0000696E740025532025692F25690050726F63
:102E100062696E67206D65736820706F696E7420DB
:102E200000202844525952554E290047323920413A
:102E300075746F20426564204C6576656C696E67B9
:102E4000003F20284C2C522C462C4229206F7574B0
:102E5000206F6620626F756E64732E0A003F2856DD
:102E6000296572626F7365206C6576656C20696D8B
:102E7000706C61757369626C652028302D34292E61
:102E80000A00426164205A2076616C75650A004E22
:102E90006F2062696C696E65617220677269640A8D
:102EA00000446576696174696F6E0025533A202588
:102EB000730046696E6973686564210A003A207A76
:102EC0003A2000206F662000476F696E6720746F9C
:102ED0003A20580043570A00206469723A00206182
:102EE0006E676C653A005374617274207261646934
:102EF00075733A004D343820506F696E7400255355
:102F00003A2025642F256400506F736974696F6ED1
:102F1000696E67207468652070726F62652E2E2E50
:102F20000A003F4C656773206F66206D6F76656D94
:102F3000656E7420696D706C61757369626C652073
:102F400028302D3135292E0A003F2028582C5929A8
:102F5000206F7574206F6620626F756E64732E0A21
:102F60000050726F6265206F7574206F6620626F0B
:102F7000756E6473003F53616D706C652073697A80
:102F800065206E6F7420706C61757369626C65206A
:102F900028342D3530292E0A004D3438205A2D5032
:102FA000726F6265205265706561746162696C69F7
:102FB000747920546573740A005374616E6461728D
:102FC0006420446576696174696F6E3A200020520E
:102FD000616E67653A2000205369676D613A200091
:102FE0004D65616E3A20004F6666004F6E004D6F72
:102FF00074696F6E004D3834004175746F20486FEE
:103000006D650054656D706572617475726500213F
:1030100000486F74656E6420746F6F20636F6C641A
:103020000050726F6365656400536F667420456E6F
:103030006473746F70730044697361626C652053CC
:1030400074657070657273004D34382050726F6211
:1030500065205465737400473238204F0A4D343868
:103060002050313000486F6D65205A004732385A81
:1030700000486F6D652059004732385900486F6D20
:103080006520580047323858004732380050726582
:1030900068656174202420456E640050726568651F
:1030A000617420242042656400436F6F6C646F7705
:1030B0006E0053544F505045442E20005072696E9C
:1030C0007465722073746F70706564206475652018
:1030D000746F206572726F72732E20466978207447
:1030E0006865206572726F7220616E642075736509
:1030F000204D39393920746F207265737461727490
:103100002E202854656D7065726174757265206932
:10311000732072657365742E205365742069742062
:1031200061667465722072657374617274696E672A
:10313000290A0021212053544F502063616C6C6593
:10314000642062656361757365206F6620424C542C
:103150006F756368206572726F72202D20726573BF
:10316000746172742077697468204D3939390A00A6
:103170005072696E74696E67204F626A656374008D
:103180002553202569002F2F616374696F6E3A0003
:10319000656E640070726F6D70745F0073686F7736
:1031A0000044697361626C6552756E6F757400508E
:1031B000757267654D6F726500486F74656E642047
:1031C000746F6F20636F6C640A0053656E64204DEA
:1031D00031303820746F20726573756D650A005246
:1031E000656865617420446F6E650052656865614D
:1031F00074696E672E2E2E005265686561740048F2
:1032000065617465722054696D656F7574005365EE
:103210006E64204D31303820746F206865617420F1
:103220006E6F7A7A6C650A004E6F7A7A6C65205000
:1032300061726B65640070617573656400726573BB
:10324000756D656400526573756D696E67004469DC
:1032500066663A2020200046726F6D5374703A0003
:10326000537465707065723A00556E4C6576656C86
:103270003A004C6576656C65643A005261773A2095
:10328000202020000A4C6F676963616C3A00436F2D
:10329000756E7420453A004361703A004348414DD1
:1032A0004245525F54454D50455241545552450098
:1032B000424142595354455050494E4700415243B0
:1032C00053004D4F54494F4E5F4D4F4445530054AA
:1032D0004845524D414C5F50524F54454354494F1D
:1032E0004E004C4F4E475F46494C454E414D4500C0
:1032F0004155544F5245504F52545F53445F5354BD
:1033000041545553005344434152440050524F4D91
:1033100050545F535550504F525400454D455247FD
:10332000454E43595F504152534552004341534526
:103330005F4C494748545F4252494748544E4553B1
:103340005300544F47474C455F4C4947485453003E
:10335000534F4654574152455F504F5745520042D4
:1033600055494C445F50455243454E54004C4556D8
:10337000454C494E475F44415441005A5F50524FBB
:103380004245004155544F4C4556454C005052491A
:103390004E545F4A4F420050524F475245535300DC
:1033A0004155544F5245504F52545F54454D500073
:1033B000564F4C554D45545249430042494E415297
:1033C000595F46494C455F5452414E534645520061
:1033D00053455249414C5F584F4E5F584F46460047
:1033E0004649524D574152455F4E414D453A4D6118
:1033F000726C696E20322E302E372E322D46695A6D
:10340000692D424C2D3131353230306220284170E7
:103410007220203320323032312031353A31333A84
:1034200034392920534F555243455F434F44455F3C
:1034300055524C3A68747470733A2F2F67697468E8
:1034400075622E636F6D2F4D61726C696E46697285
:103450006D776172652F4D61726C696E2050524FAD
:10346000544F434F4C5F56455253494F4E3A312EBD
:1034700030204D414348494E455F545950453A43E9
:10348000522D313020563320455854525544455220
:103490005F434F554E543A3120555549443A636580
:1034A0006465326132662D343161322D34373438FF
:1034B0002D396231322D6335356336326633363716
:1034C00066660A0050726F6265204F6666736574A7
:1034D000205A003F5A206F7574206F662072616E0B
:1034E00067652028003F59206F7574206F66207231
:1034F000616E676520282D0020746F20003F5820E2
:103500006F7574206F662072616E676520282D00CC
:1035100050726F6265204F6666736574205800654F
:103520006E7175657565696E672022006F6B00525C
:103530006573656E643A20004732362048656174D1
:10354000696E67204E6F7A7A6C6500473236204884
:10355000656174696E6720426564005761697469CA
:103560006E6720666F72206865617475702E0A0040
:103570004669786564204C656E677468205072698E
:103580006D6500446F6E65205072696D696E6700ED
:103590004D616E75616C207072696D696E672E2E5B
:1035A0002E004732362043616E63656C6564004CC3
:1035B000656176696E6720473236003F53706563F8
:1035C000696669656420582C5920636F6F7264695D
:1035D0006E617465206F7574206F6620626F756E02
:1035E00064732E0A003F2852296570656174207645
:1035F000616C7565206E6F7420706C6175736962A3
:103600006C653B206D757374206265206174206C5D
:103610006561737420312E0A003F537065636966DB
:10362000696564206E6F7A7A6C652074656D70656B
:10363000726174757265206E6F7420706C61757341
:1036400069626C652E0A003F53706563696669653F
:10365000642066696C616D656E742073697A65209B
:103660006E6F7420706C61757369626C652E0A00F0
:103670003F537065636966696564207072696D6542
:10368000206C656E677468206E6F7420706C617555
:103690007369626C652E0A003F53706563696669E1
:1036A0006564206E6F7A7A6C652073697A65206E26
:1036B0006F7420706C61757369626C652E0A003FCF
:1036C00052657472616374696F6E204D756C7469B4
:1036D000706C696572206D757374206265207370FB
:1036E000656369666965642E0A003F5370656369A6
:1036F000666965642052657472616374696F6E20D7
:103700004D756C7469706C696572206E6F74207091
:103710006C61757369626C652E0A003F5370656356
:103720006966696564206C6179657220686569679E
:103730006874206E6F7420706C61757369626C655B
:103740002E0A0043292E0A003F537065636966699B
:103750006564206265642074656D7065726174755E
:103760007265206E6F7420706C61757369626C6530
:10377000202834302D00473236207374617274690A
:103780006E672E2E2E0A004F46460A00466164657B
:10379000204865696768742000426564204C65763E
:1037A000656C696E6720004661696C656420746FA2
:1037B00020656E61626C6520426564204C657665AB
:1037C0006C696E670A00496E76616C6964206D658C
:1037D00073682E0A00416363656C65726174696F7A
:1037E0006E3A2050005741524E494E4721204C6FAF
:1037F00077205A204A65726B206D6179206C656173
:103800006420746F20756E77616E746564207061DA
:10381000757365732E0A00204D3932205800202020
:103820004D61783A200020204D696E3A2000536F98
:10383000667420656E6473746F70733A20004D3245
:10384000342053256C642054256C64004739322E93
:103850003920452573004731204625640047393219
:103860002E39205A2573004731205A3020463230F5
:1038700030004731205825732059257320463330B6
:103880003030004D34323020532569205A257300E2
:103890004D3130362050256920532569004D313097
:1038A0003920532569004D31393020532569004DA9
:1038B0003230302044257300473238523058590096
:1038C0004739322E39204530205A300A47315A259F
:1038D00073004D343230205330205A300020496E6E
:1038E00076616C6964206578747275646572200015
:1038F0005072696E742066726F6D204D65646961E7
:103900000050726F62696E67204661696C65640081
:10391000205A3A200020593A200042656420583A43
:1039200020005072696E7420506175736564006286
:103930006567696E00627574746F6E00436F6E74B4
:10394000696E7565004C6F61642046696C616D65D8
:103950006E74205400496E736572742066696C61E0
:103960006D656E7420616E642073656E64204D31E8
:1039700030380A00220A00556E6B6E6F776E206336
:103980006F6D6D616E643A20220043522D313020FC
:1039900056332052656164792E005072696E7469E5
:1039A0006E672E2E2E00496E76616C6964206578F4
:1039B0007472756465720A00202D20496E76616C00
:1039C0006964206578747275646572206E756D62C5
:1039D000657220210A00544845524D414C205255F1
:1039E0004E4157415900546865726D616C205275A3
:1039F0006E61776179004572723A204D41585445A5
:103A00004D50004D415854454D50207472696767C0
:103A100065726564004572723A204D494E54454DB9
:103A200050004D494E54454D50207472696767658A
:103A300072656400202F002042403A0020403A0086
:103A400020573A0052756E6F75742053656E736F10
:103A50007200554E4C4F41442046494C414D454E15
:103A6000540046494C414D454E54204348414E4731
:103A700045004D37303220542564004D363030201B
:103A8000423020542564004D373032203B256400FD
:103A90004D37303120542564004D373032004D37DA
:103AA0003031004D3630302042300050757267653D
:103AB000206D6F726500524553554D45204F50544F
:103AC000494F4E533A005052494E5420504155539D
:103AD00045440020204E6F7A7A6C653A2000256CB0
:103AE000642E25696D004578747275646564205490
:103AF0006F74616C004C6F6E67657374204A6F62FF
:103B00002054696D65003E2000546F74616C205034
:103B100072696E742054696D6500436F6D706C65D9
:103B2000746564005072696E7420436F756E740022
:103B3000313230004245443A204550434F53203102
:103B400030304B0052756E61776179205761746334
:103B5000683A204F4E004D61782054656D700032F8
:103B60003735004D696E2054656D700045313A203F
:103B70004550434F53203130304B00505355004790
:103B8000656E657269630050726F746F636F6C006D
:103B9000312E3000426175640031313532303000F1
:103BA000437265616C69747933442052414D5053BE
:103BB000005061726B696E672E2E2E0000005761F7
:103BC000697420666F720066696C616D656E742041
:103BD0006368616E676500746F207374617274004E
:103BE0005761697420666F720066696C616D656EFD
:103BF0007420756E6C6F616400004E6F7A7A6C652C
:103C00002068656174696E6700506C65617365203A
:103C1000776169742E2E2E000050726573732062D6
:103C20007574746F6E00746F2068656174206E6FB8
:103C30007A7A6C650000496E736572742066696CEF
:103C4000616D656E7400616E6420707265737320BF
:103C5000627574746F6E00746F20636F6E74696E3A
:103C60007565005761697420666F720066696C61E2
:103C70006D656E74206C6F616400005072657373C3
:103C800020427574746F6E00746F20726573756D69
:103C900065207072696E7400005761697420666FE8
:103CA00072207072696E7400746F20726573756D26
:103CB000652E2E2E00005761697420666F720066B3
:103CC000696C616D656E7420707572676500003F88
:103CD00000496E697469616C697A65204545505286
:103CE0004F4D006E6F74696669636174696F6E2011
:103CF0000063616E63656C005072696E742041628E
:103D00006F72746564004469736D6973730055491B
:103D10002041626F72746564004D323520500A4D47
:103D2000323400526573756D6500554920506175D8
:103D300073650050617573696E672E2E2E00726573
:103D400073756D6500454550524F4D205665727331
:103D5000696F6E204572726F7200454550524F4D2B
:103D600020496E646578204572726F720045455037
:103D7000524F4D20435243204572726F7200496783
:103D80006E6F7265004C6F61642053657474696E68
:103D900067730053746F72652053657474696E673E
:103DA0007300416476616E63656420536574746961
:103DB0006E6773004E4F005945530043616E636553
:103DC0006C204F626A656374203D0053572D4D6F20
:103DD00064650053746F77004465706C6F790053AD
:103DE000656C662D546573740046616E2053706572
:103DF000656400526573746F726520446566617511
:103E00006C74730050726568656174202420436F80
:103E10006E6600424C546F756368000000220025F6
:103E20000028002B002E00310034000201000005A4
:103E30000108010B0100002100240027002A002DA9
:103E4000003000330001010000040107010A0105F0
:103E5000050505070508080808020202020A0A0803
:103E60000804040404010101010101010103030329
:103E70000303030303040707070C0C0C0C0C0C0CC6
:103E80000C0202020206060606060606060B0B0BCD
:103E90000B0B0B0B0B010210202008081020401008
:103EA00020408002010201080402010102040810FE
:103EB000204080804020100804020180040201801C
:103EC0004020100804020108040201010204081045
:103ED0002040800102040810204080506C6561730E
:103EE00065205265736574005052494E5445522006
:103EF00048414C5445440025533A20255300706FE7
:103F00007765726F6666004B494C4C45442E200025
:103F10005072696E7465722068616C7465642E20DD
:103F20006B696C6C28292063616C6C6564210A00E4
:103F30006563686F3A004572726F723A0042696C4D
:103F4000696E656172204C6576656C696E672047A5
:103F50007269643A0A005045544700504C41004D84
:103F60006F76652025736D6D004D6F766520302E60
:103F7000316D6D004D6F766520316D6D004D6F7642
:103F8000652031306D6D004D6F7665204178697325
:103F9000004578747275646572004D6F7665205ABD
:103FA000004D6F76652059004D6F766520580043AF
:103FB00068616E67652046696C616D656E74005559
:103FC0006E6C6F61642046696C616D656E74004C47
:103FD0006F61642046696C616D656E740050726536
:103FE0006865617420437573746F6D005072656805
:103FF0006561742024004261636B0000000A0B02BB
:10400000090C0D0E08070304010000000000000069
:1040100000000000000000000000000000000000A0
:10402000000000000000001211100000000000005D
:104030000000000000000000000000000000000080
:10404000005B3F563F20436F756E7420583A004521
:104050003100626564002C2073797374656D207380
:10406000746F7070656421204865617465725F4982
:10407000443A200048656174696E67204661696C46
:1040800065640048656174696E67206661696C6586
:1040900064004D3131322053687574646F776E005F
:1040A000A701450211241FBECFEFD1E2DEBFCDBF75
:1040B00000E00CBF13E0A0E0B2E0EEECF3EE02E0B3
:1040C0000BBF02C007900D92A832B107D9F728E1C3
:1040D000A8E2B3E001C01D92AB31B207E1F710E2F4
:1040E000C1E5D0E200E006C021970109802FFE0162
:1040F0000F94386EC035D10780E00807A9F70F94F8
:104100008B590D94D5710C9400002F923F924F92D1
:104110005F926F927F928F929F92AF92BF92CF9257
:10412000DF92EF92FF920F931F93CF93DF93CDB760
:10413000DEB7E6970FB6F894DEBF0FBECDBF8DABEE
:104140002091D30F2CAB21E02093D30F8091E40E6C
:104150008D3409F481C3843511F40C94FA31873419
:1041600011F00C940C328091E20E9091E30E8B31A1
:10417000910509F421C1B4F48430910534F48230FE
:104180009105E4F597FF2EC063C38531910511F4C5
:104190000C940E328A31910509F40AC1049709F092
:1041A00057C3C7C08A32910509F472C24CF48D31ED
:1041B0009105B1F00CF41BC14E9709F464C148C3DA
:1041C0008B35910509F4DEC18C35910509F4DFC109
:1041D0008A35910509F03CC3109227100C940E32D9
:1041E00014E033C18091F007813011F00C940E324D
:1041F0000F942D0B0E94E47B0C940E322091F0075B
:10420000213011F00C940E3211E0029709F010E009
:104210000F942D0B19821A821B821C821D821E8212
:104220001F82188682E50E943DEC882309F44BC06A
:104230000E94B8EB6B017C0120E030E0A9010F94F3
:104240003D67882309F455C08091F3079091F407E6
:10425000A091F507B091F60788A799A7AAA7BBA7D1
:104260008091F7079091F807A091F907B091FA07AC
:1042700088AB99ABAAABBBAB8090B20F9090B30F59
:10428000A090B40FB090B50F4090B60F5090B70FFC
:104290006090B80F7090B90FA501940168A579A539
:1042A0008AA59BA50F943D6781110C941732A30139
:1042B000920168A979A98AA99BA90F943D678823CF
:1042C000C1F00C94173289E40E943DEC882331F050
:1042D0000E94B8EB69837A838B839C838AE40E9473
:1042E0003DEC882331F00E94B8EB6D837E838F8391
:1042F000988720E030E0A90169817A818B819C81D7
:104300000F943D6781110C94CB3220E030E0A9017D
:104310006D817E818F8198850F943D6781110C940A
:10432000CB320F941C4C84E297E00F94274B0C94F3
:104330000E3280E50E943DEC882329F00E9409D7C7
:104340006B017C0103C0C12CD12C760183E50E9456
:104350003DEC882361F00E94B8EB20E030E04AE7B2
:1043600054E40F94A3670F94B46F6B017C010E9417
:10437000C39380910F11811105C060E08AE397E03B
:104380000F94A4340F94664FC60ED71EE81EF91E74
:104390000F94664FDC01CB018C199D09AE09BF0952
:1043A000B7FD02C00C940E3280E00E94A63AF0CF16
:1043B0000E9497FF0C940E3287E00E94ED7A8111E3
:1043C0000C940E328CE0ECE8F2E0DE0111960190E4
:1043D0000D928A95E1F760E070E080E50F94691135
:1043E000BE016F5F7F4F0F9460330C940E3280914B
:1043F00071048770873011F00C94F33260E08FE421
:104400000E9459EC81110C940E320C94F33280917D
:104410002C1081112AC00E94E9DC882361F111501F
:1044200011F40C94D23420E030E046E05DE362EA1F
:1044300077E085E00E94D0F061E085E997E00E9496
:1044400091EE86E697E00E94F5FC0F94664F60932C
:10445000FA107093FB108093FC109093FD1087E08E
:104460000E94ED7A882399F206C060E08FE40E94F2
:1044700059EC882381F20E94A1F081E398E00E9428
:10448000F5FC0C940E322091C40F3091C50F409171
:10449000C60F5091C70F6091F3077091F407809198
:1044A000F5079091F6070F94416EAB01BC0188E5CA
:1044B0000E94A24769837A838B839C832091C80FD3
:1044C0003091C90F4091CA0F5091CB0F6091F707FF
:1044D0007091F8078091F9079091FA070F94416E57
:1044E000AB01BC0189E50E94A2476D837E838F8367
:1044F0009887BE016B5F7F4FCE0101960E9442D725
:10450000882311F40C940E3280E00F9479460E94B7
:10451000BC7E61E085E40E9459EC182F21E0482F11
:10452000BE016B5F7F4FCE0101960F948E176B011A
:104530007C019B01AC010F943371811119C0498139
:104540005A816B817C818AE199E30F94EB4B4D8119
:104550005E816F81788585E199E30F94EB4BB7011C
:10456000A60180E199E30F94EB4B8AE00E947A392F
:104570000E94A37E113011F40E9428D70E940C8162
:104580000C940E328FE0809327100C940E328091A1
:10459000E10E882351F1893009F076C01BEDA12E80
:1045A00012E0B12E03EFC02E07E0D02E00E010E0A5
:1045B000F12CD5018D915D010E943DEC882369F0BD
:1045C0000E94B8EBF6016083718382839383F3E0EA
:1045D000FF1202C011E001C001E0F39424E0C20E1A
:1045E000D11C34E0F312E5CF44C0ABEDCA2EA2E0FB
:1045F000DA2EB3EFEB2EB7E0FB2E00E010E0312C0B
:10460000D6018D916D010E943DEC882359F10E94E5
:10461000B8EB4B015C01F70120813181428153816C
:104620000F94406E2B013C012DEB37E346E855EB30
:104630000F94A17087FD0AC02DEB37E346E855E3E0
:10464000C301B2010F943D67181664F4F3E03F1202
:1046500002C011E001C001E0D7018D929D92AD92A0
:10466000BC9213973394B4E0EB0EF11CE4E03E12DD
:10467000C7CF002319F00E940A8106C0112321F040
:104680008FEF97E00E94D4930E940C810C940E321D
:104690008091F007813011F00C940E3289E40E9471
:1046A0003DECE82E882321F00E94B4EB082F01C0D6
:1046B00000E08AE40E943DECF82E882321F00E945D
:1046C000B4EB182F01C010E0EE2011F0053020F4FB
:1046D000FF2041F0153030F089E498E00F94274B2B
:1046E0000C940E3280E1E3EFF7E0A2EBBFE0019023
:1046F0000D928A95E1F7EE2019F1602F000F770BEC
:10470000880B990B0F9444672091890530918A0595
:1047100040918B0550918C050F94A36720917B05E8
:1047200030917C0540917D0550917E050F94416E3E
:104730006093B20F7093B30F8093B40F9093B50F43
:10474000FF2019F1612F110F770B880B990B0F9434
:10475000446720918D0530918E0540918F055091D1
:1047600090050F94A36720917F05309180054091BB
:104770008105509182050F94416E6093B60F70933E
:10478000B70F8093B80F9093B90F60E080E50E9457
:1047900059EC8823C1F1EE20D1F02091C40F309163
:1047A000C50F4091C60F5091C70F6091B20F709125
:1047B000B30F8091B40F9091B50F0F94406E60933A
:1047C000B20F7093B30F8093B40F9093B50FFF2087
:1047D000D1F02091C80F3091C90F4091CA0F50916C
:1047E000CB0F6091B60F7091B70F8091B80F909179
:1047F000B90F0F94406E6093B60F7093B70F80930C
:10480000B80F9093B90F40E050E0BA0186E40E94DF
:10481000A2476B017C0120E030E0A9010F94A17058
:1048200018164CF420E030E040E752E4C701B6012E
:104830000F943B6F03C060E070E0CB0169837A8323
:104840008B839C83CE0101960E94DD7F0C940E32F7
:104850000F949C150C940E328091E20E9091E30E11
:104860008837910509F4B1C70CF017C18D34910553
:1048700009F44CC40CF093C08A31910509F476C355
:1048800074F58431910509F4ABC27CF48131910552
:1048900009F492C22CF4029708F444C20C94F73144
:1048A000429709F480C60C94F7318731910509F4D9
:1048B000DCC24CF48531910509F4C3C2469709F472
:1048C000C4C20C94F7318831910509F4E5C24997C7
:1048D00011F00C94F7310F949D100C940E3280322D
:1048E000910509F4CFC3ECF58D31910509F4B3C3FB
:1048F00084F48B31910509F447C34C9711F00C9463
:10490000F7318091D2039091D3030E94CFA20C94EF
:104910000E328E31910509F4A5C34F9711F00C9416
:10492000F7310E9407826C8F7D8F8E8F9F8FBE0123
:104930006F5F7F4FCE014C960E94274D60E0CE0105
:1049400001960F945B350F94204CBE016F5F7F4F33
:104950008DED98E00F94094C8AE00E947A390C940E
:104960000E328934910509F4BAC364F48132910599
:1049700009F4B1C3C09711F00C94F7310E94FDD82F
:104980000C940E328B34910509F4BCC38C34910520
:1049900011F00C94F7310E9456820C940E328B3633
:1049A000910509F4F2C4D4F58435910509F4FBC5E9
:1049B000E4F48135910509F4D9C534F48E349105B8
:1049C00009F4A8C30C94F7318235910509F4E4C5C4
:1049D0008335910511F00C94F731809127108F7E6B
:1049E0008062809327100C940E328836910509F46A
:1049F00023C454F48535910509F4D8C58C35910547
:104A000009F4F7C50C94F7318936910509F465C4AA
:104A10008A36910509F475C40C94F73181379105F4
:104A200009F41AC5DCF48E36910509F4BDC45CF4B2
:104A30008C36910511F40C940E328D36910509F4E3
:104A400022C40C94F7318F36910509F4C0C4803725
:104A5000910511F40C940E320C94F73185379105C1
:104A600009F468C66CF48237910509F460C683378F
:104A7000910511F00C94F7310E94D3FA0C940E3288
:104A80008637910509F467C68737910511F00C94B4
:104A9000F7310E94A1810C940E328139F1E09F0719
:104AA00011F40C94522F0CF089C08D3C910509F43F
:104AB00090C7ECF58B39910509F42FC5E4F48D37D7
:104AC000910509F450C56CF48937910511F00C94E7
:104AD000F73110922706109226060E94F8810C9456
:104AE0000E328C38910509F4D9C48139910509F445
:104AF00073C60C94F731893C910509F428C754F426
:104B00008E3B910509F4E9C4883C910509F4D8C6A7
:104B10000C94F7318B3C910509F43CC78C3C910512
:104B200011F00C94F7310F9454130C940E328C3214
:104B3000A1E09A0711F40C94032EECF48D3D91053D
:104B400009F474C754F4833D910509F445C78C3DBD
:104B5000910509F444C70C94F7318831E1E09E07D0
:104B600009F4BAC78232914011F00C94F7310E94D7
:104B700040F60C940E328F3221E0920711F40C941F
:104B80004F2F6CF48D32A1E09A0711F40C94182E7B
:104B90008E32914011F40C940B2F0C94F73180332A
:104BA000E1E09E0711F40C94982E8039914011F0A9
:104BB0000C94F7310E94C3930C940E32883F31E07D
:104BC000930711F40C9455300CF055C0853AB1E0C0
:104BD0009B0711F40C946E2F1CF58C39F1E09F07A4
:104BE00011F40C94632F6CF4823931E0930711F4C3
:104BF0000C945C2F8A39914011F40C940E320C9471
:104C0000F7318D39B1E09B0711F40C94BC31843A33
:104C1000914011F00C94F7310E94C4FD0C940E32B7
:104C2000853FF1E09F0711F40C944F307CF4863EF1
:104C300031E0930711F40C94E32F843F914011F07D
:104C40000C94F7310E94618B0C940E32863FB1E0D8
:104C50009B0711F40C945230873F914011F00C9453
:104C6000F73161E083E50E9459EC91E089270E94C9
:104C7000B9B10C940E328335F3E09F0711F40C9414
:104C8000AB311CF58B3532E0930711F40C94723084
:104C90007CF48C30B2E09B0711F40C9465308835BD
:104CA000924011F00C94F7310F94860F0C940E3251
:104CB0008D3BF2E09F0711F40C94E9308E3B92405B
:104CC00011F40C94EC300C94F731873E33E09307E9
:104CD00011F40C94AE31CCF48C36B3E09B0711F494
:104CE0000C940E32803A934011F00C94F7312091DD
:104CF000D2033091D3039091BC1492609093BC1472
:104D0000C9010E94CFA20C940E32883EF3E09F07A7
:104D100011F40C94D331893E934011F40C94D631A4
:104D20000C94F73180E50E943DEC882329F00E9425
:104D300009D76B017C0103C0C12CD12C760183E51E
:104D40000E943DEC882361F00E94B8EB20E030E047
:104D50004AE754E40F94A3670F94B46F6B017C018E
:104D60000E94C3938091D2039091D303009721F0C6
:104D700061E00F945B3505C060E082E798E00F9436
:104D8000A4348091E20E9091E30E892B19F06AE62B
:104D900078E002C062E678E020E030E04CE359E3DE
:104DA00082E00E94D0F040E0C701B6010E9461415C
:104DB0000F9479150C940E328091E50E84FF02C099
:104DC0000C94E8348091E70E87FF02C00C94E8341D
:104DD0008091E80E837011F00C94E8340C94043543
:104DE0008091BC1483FF25C08DE998E00F94274B78
:104DF0008091BC1483FF17C08BED94E10E9468C3BF
:104E00008BE1EBEDF4E1DE01119601900D928A95B4
:104E1000E1F760E070E0CE0101960E941FA7CE018D
:104E200001960E9486EC8EE898E00F94274B0C9434
:104E30000E320F94204C8EEA98E00F94274B0C947E
:104E40000E320E94EFA50C940E328091BC1482FFAA
:104E500002C00C940E320E946AA18091BC14877F1C
:104E600080628093BC140C940E32E091D203F091D6
:104E7000D3038081882329F0803209F4108231968F
:104E8000F8CF60E08091D2039091D3030E9419A3E0
:104E9000109234040C940E3283E50E943DEC88237A
:104EA00021F00E9480EB0E94D64E84E50E943DECEA
:104EB0008823A9F00E9480EB6B017C010E943B8259
:104EC000C0928304D0928404E0928504F092860418
:104ED000CD28CE28CF2819F081E08093261080912C
:104EE000E4048823F9F080E090E0A0EAB1E489834B
:104EF0009A83AB83BC831C8E1D8E1E8E1F8E18A2C0
:104F000019A21AA21BA200E010E020E0AE014F5F40
:104F10005F4FBE01645E7F4FCE0180960E94A9EE76
:104F20000C940E320E943237882381F00E947BA1BC
:104F30000E94563781E790E10E9420A11092E90E6D
:104F40001092EA0E1092EB0E1092EC0E61E08EE3DE
:104F50009DE30E9491EE46E05DE368EB78E085E03A
:104F60000F94A0160F9479150C940E328091BC14F6
:104F700083FD02C00C940E3283E50E943DEC81114A
:104F80000C9412350C940E3283E40E94EFEB8823CC
:104F9000C1F18EEC98E00F94274B80912216882364
:104FA00039F1BE016F5F7F4F8FE196E10E9434C3FC
:104FB0008E010F5F1F4FD8018D918D01882319F04D
:104FC0000E947A39F8CFCE0101960E94A1A2809169
:104FD000E40F882389F080E20E947A3904EE1FE012
:104FE000F80181918F01882339F00E947A39F8CF36
:104FF00084EC98E00F94274B8AE00E947A390C9455
:105000000E3283E50E943DEC882309F10E9490EB6B
:10501000182F90E0CD970CF01CE310932C030F9405
:10502000664F6B017C01212F30E0A8EEB3E00F94B6
:10503000E76DC60ED71EE81EF91EC0922803D09257
:105040002903E0922A03F0922B030C940E320E9463
:10505000F0A00C940E328091BC148E7F8093BC140F
:105060000C940E328091BC1483FD02C00C940E325D
:105070000F94A9168091D2039091D3030E9479A531
:105080000C940E328091BC1482FD0E94C3938091D7
:10509000BC1483FD02C00C940E3260E080E50E94D7
:1050A00059EC182F682F8091D2039091D3030E945E
:1050B00019A383E50E943DEC882321F00E9480EB38
:1050C0000E94D64E0E947BA111110C940E320E94B8
:1050D00056370C940E320E94064E0C940E3280E528
:1050E0000E94EFEB882311F40C940E320E9490EB97
:1050F00090E08536910510F084E690E080933404CA
:105100000C940E320E9456370C940E320E94E69098
:105110000C940E3260E070E083E50E944AEC8E341D
:10512000910531F40E9457910F9479150C940E3229
:1051300080E499E00F94274B609116067091170652
:1051400087E399E00F94DE4B609118067091190681
:105150008AE299E00F94DE4B609116067091170673
:105160008091180690911906681B790B8091261082
:10517000815021E030E0823010F020E030E0621B0E
:10518000730B8FE199E00F94DE4B8AE00E947A392D
:1051900080E499E00F94274B80911A0690911B06AA
:1051A000A0911C06B0911D068C8F9D8FAE8FBF8F76
:1051B000BE016F5F7F4FCE014C960E94274DBE010E
:1051C0006F5F7F4F82E199E00F94094C80911E063A
:1051D00090911F06A0912006B09121068C8F9D8F83
:1051E000AE8FBF8FBE016F5F7F4FCE014C960E9486
:1051F000274DBE016F5F7F4F82E099E00F94094C0D
:1052000020E030E04AE754E46091220670912306E2
:1052100080912406909125060F943B6FAB01BC0151
:105220008AEE98E00F94EB4B8DE60E947A398AE083
:105230000E947A390C940E328091520E83FF02C084
:105240000C940E320F94310C87FF02C00C940E3276
:1052500089E40E943DEC882311F40C9417350E94D8
:1052600090EB90E01816190614F481E090E026E027
:10527000289FF001299FF00D1124E656FA4F8081F6
:1052800091810C9421358091520E83FF02C00C94C1
:105290000E320F94310CF82E87FF02C00C940E32A0
:1052A00089E40E943DEC082F882311F40C942A35E0
:1052B0000E9490EB90E01816190614F481E090E03B
:1052C00026E0289FF001299FF00D1124E656FA4FA1
:1052D0008081918110E00C943A350F94310C182F95
:1052E00087FD0AC08CE295E30F94274B812F0F9422
:1052F000721E8AE00E947A39FCA9F093D30F0C94B5
:10530000253660E080E50E94F1D8F82E21E02817CC
:1053100010F40C940E3281E40E94EFEB882329F004
:1053200060913C08062F10E002C00FEF10E089E406
:105330000E943DEC882399F00E9490EB90E01816B3
:10534000190614F481E090E026E0289FF001299FDF
:10535000F00D1124E656FA4F0481158108C083E54B
:105360000E943DEC882319F00E9480EB8B01EF2D09
:10537000F0E0E45CF74FB8010F3F110519F010F0B1
:105380006FEF70E060830C940E3260E080E50E9465
:10539000F1D8823010F00C940E32E82FF0E0E45C8B
:1053A000F74F10820C940E328EE40E943DEC88235D
:1053B00011F40C940E320E9480EB6093CE03709334
:1053C000CF038093D0039093D1030C940E3283E5E6
:1053D0000E94EFEB882331F060E083E50E94F1D872
:1053E0008093520E0F94204C8DE499E00F94274B3C
:1053F0008091520E882369F1F6E8EF2EFAE0FF2E35
:1054000000E010E020E08091520E90E0A0E0B0E0DB
:10541000002E04C0B695A795979587950A94D2F764
:1054200080FF0EC0DD24D394D20E222319F08CE22B
:105430000E947A39F701859194910F94274B2D2D75
:105440000F5F1F4F32E0E30EF11C05301105D9F656
:10545000D3CD83E09FE3CECD83E50E943DEC88234E
:1054600071F00E9490EB282F30E02D3331051CF4B1
:1054700080930002D3C78CE380930002CFC70F94C0
:10548000204C4091000250E060E070E084E599E03B
:105490000F94CD4B8AE00E947A39C0C78091520E9A
:1054A00083FDBCC789E40E943DEC882311F40C9471
:1054B00084350E9490EB90E01816190614F481E0F0
:1054C00090E026E0289FF001299FF00D1124E65678
:1054D000FA4F828193810C948F358091520E83FD17
:1054E0009DC789E40E943DEC882311F40C94963505
:1054F0000E9490EB90E01816190614F481E090E0F9
:1055000026E0289FF001299FF00D1124E656FA4F5E
:105510008281938110E00C94A73583E50E943DECD5
:10552000882309F47BC70E9490EB182F90E0CD9759
:105530000CF01CE3109331030F94664F6B017C0158
:10554000212F30E0A8EEB3E00F94E76DC60ED71E12
:10555000E81EF91EC0922D03D0922E03E0922F0375
:10556000F09230035BC70F949D1058C70F94D1235E
:105570000E94E6900E9433950E94693768EE73E0BE
:1055800080E090E00F94044A0E946E3760E089E763
:1055900099E00F94A43442C7809127108F7D8061D9
:1055A000809327103BC70F94351238C783E50E94BC
:1055B000EFEB882309F432C70F94664F6093FA101B
:1055C0007093FB108093FC109093FD100E94B8EB39
:1055D00020E030E04AE754E40F94A3670F94B46FDF
:1055E00060933203709333038093340390933503B5
:1055F00015C70F94310C87FD11C79091E50E94FDEE
:1056000004C09091E70E97FF0AC07BEDC72E72E0B1
:10561000D72EE3E5EE2EEEE0FE2E10E009C09091CD
:10562000E80E937091F7682F81E00F949512F6C6FB
:10563000D6018D916D010E943DEC882309F46DC067
:10564000133009F063C00E94B8EB4B015C0120E00D
:1056500030E040EA51E40F943D6787FF4EC0A5015A
:1056600094016091730E7091740E8091750E9091FB
:10567000760E0F943B6F2B013C019B01AC016091B6
:1056800020087091210880912208909123080F949E
:10569000A367609320087093210880932208909359
:1056A0002308A30192016091830E7091840E809172
:1056B000850E9091860E0F94A3676093830E70936E
:1056C000840E8093850E9093860E609130087091C1
:1056D000310880913208909133080F944267A301FA
:1056E00092010F94A3670F94B46F60933008709386
:1056F000310880933208909333088092730E909211
:10570000740EA092750EB092760E07C00E94B8EB90
:10571000F701648B758B868B978B1F5FF4E0EF0E20
:10572000F11C143009F084CF0E94DE9277C60E94EB
:1057300054FB74C68091D2039091D303009741F03B
:10574000DC012C91222321F060E00F945B3566C6CA
:105750000F94791563C60091D2031091D30394E09E
:10576000F12C40E0915021F1F8018081282F2B7F0E
:10577000213421F421812133D9F407C08035C1F4CB
:10578000818180538A3048F013C0813421F0853400
:1057900021F441E002C0FF24F39498012E5F3F4FB3
:1057A00089012F5F3F4FF80180818032C9F3DACF42
:1057B00041110F94204CFF2021F087E899E00F94CD
:1057C000274BC8010E94853A29C6209327062093BB
:1057D00026060E94F88122C660E070E083E50E9400
:1057E0004AEC823038F00F941C4C8BE899E00F940F
:1057F000274B14C68C01112788E40E943DEC8823B6
:10580000E1F00E94B4EB8A3A910544F00E94B4EBB7
:105810008530914034F40E94B4EB05C08AEA90E0F0
:1058200002C084E091E026E0209FF001219FF00D6E
:105830001124E656FA4F9183808382E40E943DEC66
:105840008823D9F00E94B4EB059744F00E94B4EB92
:105850008F36910534F40E94B4EB05C085E090E0EA
:1058600002C08EE690E026E0209FF001219FF00D1F
:105870001124E656FA4F9383828386E40E943DEC1E
:10588000882309F4CBC50E94B4EB97FD09C00E94A0
:10589000B4EB8F3F910509F034F40E94B4EB05C0DE
:1058A00080E090E002C08FEF90E026E0209FF001C2
:1058B000219FF00D1124E656FA4F95838483AEC5DF
:1058C0000F94310C182F87FDA9C50091481084E46E
:1058D0000E943DEC882311F40C94D0350E94B8EB63
:1058E0006B017C0120E030E0A9010F943D67882323
:1058F00041F124E01202F0011124EC5BFF4EC08262
:10590000D182E282F38220E030E0A901609144106C
:105910007091451080914610909147100F943D670B
:1059200081110CC080E090E0A0EEBFE380934410B2
:1059300090934510A0934610B093471001E00C944B
:10594000D03580E0809348100E94377767C50F9468
:10595000310C87FD63C56BEDE62E62E0F62E03E5A4
:105960001EE0D7018D917D010E94EFEB882359F055
:105970000E94B8EB0F94B46FF80160837183828347
:1059800093830E9497920C5F1F4FFEE003361F0720
:1059900041F744C50F94310C87FD40C55BEDE52E02
:1059A00052E0F52E03E51EE0D7018D917D010E94A6
:1059B000EFEB882339F00E94B8EBF80164A375A3DC
:1059C00086A397A30C5F1F4FFEE003361F0761F706
:1059D00025C50F94D01222C50F947C111FC583E5F5
:1059E0000E943DEC882331F00E94B4EB90930E02AC
:1059F00080930D028091E50E9091E60EA091E70E46
:105A0000B091E80E892B8A2B8B2B09F007C560918A
:105A10000D0270910E028DEA99E00F94FC4B85E225
:105A20000E947A398AE00E947A39F8C40F94310CC6
:105A3000F82E87FDF3C483E50E943DEC0F2D0F2C5B
:105A4000000C110B882369F10E94B4EBF801EE0FF2
:105A5000FF1FE15FFD4F91838083000F111F000F37
:105A6000111F98012A5B3D4F7901BC01990F880BEA
:105A7000990B0F9444672AE037ED43E25CE30F94FF
:105A8000A367F801EE58FB4F208131814281538199
:105A90000F94A367D7016D937D938D939C93139778
:105AA000BDC40F94204C85E40E947A3980E38F0DA9
:105AB0000E947A39000F111FF801E15FFD4F6081EC
:105AC000718181EB99E00F94FC4B85E20E947A3959
:105AD0008AE00E947A39A2C480E50E94EFEB882315
