:100000000C9400230C9440230C9440230C94402324
:100010000C9440230C9440230C9440230C944023D4
:100020000C9440230C9440230C9440230C944023C4
:100030000C9440230C9440230C9440230C944023B4
:100040000C9440230C94A1AA0C9440230C944023BC
:100050000C9440230C945EA90C9440230D94E25B15
:100060000C9440230C94416B0C94376B0C944023FC
:100070000C9440230C9440230C9440230C94402374
:100080000C94653D0C9440230C9440230C94402325
:100090000C9440230C9440230C9440230C94402354
:1000A0000C9440230C9440230C94373D0C94402333
:1000B0000C9440230C9440230C9440230C94402334
:1000C0000C9440230C9440230C9440230C94402324
:1000D0000C9440230C9440230C9440230C94402314
:1000E0000C944023084AD73B3BCE016E84BCBFFD35
:1000F000C12F3D6C74319ABD56833DDA3D00C77FF8
:1001000011BED9E4BB4C3E916BAAAABE0000008090
:100110003F05A84CCDB2D44EB93836A9020C50B91F
:10012000918688083CA6AAAA2ABE000000803F004B
:100130000D9457230D94790D0D949B360D94A8358D
:100140000D94CC150D94A60D0D941C5B0D947E0D95
:100150000D9477050D94495B0D94205B0D949C0DD7
:100160000D9468690D943F5B0D94DB000D94920D26
:100170000D94055B0D94650D0D94FD350D947D2753
:100180000D94245B0D949B390D94A10D0D94912732
:100190000D949C090D944D5B0D94285B0D94D50D29
:1001A0000D940A5B0D947D360D9489010D94C83928
:1001B0000D94355B0D94EE370D94830D0D94713ACB
:1001C0000D948D0D0D94C9390D94FC0F0D94F911FA
:1001D0000D94DF350D946A0D0D9487200D949B03CB
:1001E0000D94BF020D94B9060D94662C0D946C0805
:1001F0000D94575B0D941E230D946F140D94880D70
:100200000D943D360D94740D0D9462080D941F35B8
:100210000D946F0D0D94515B0D946A690D9488696E
:100220000D9427020D94D1230D941F0B0D943E17AE
:100230000D94C8180D945B5B0D9470080D945D3699
:100240000D942B5B0D94EC230D94315B0D94970D65
:100250000D94D21B0D94C9230D9471350D94435BFD
:100260000D943B5B4E414E494E495459494E46CD43
:10027000CCCC3D0AD7233C17B7D13877CC2B32955D
:1002800095E6241FB14F0A000020410000C842003B
:10029000401C4620BCBE4CCA1B0E5AAEC59D740005
:1002A000407A10F35A00A0724E18090010A5D4E845
:1002B0000000E87648170000E40B54020000CA9AD8
:1002C0003B000000E1F5050000809698000000402A
:1002D000420F000000A0860100000010270000006F
:1002E00000E803000000006400000000000A0000B5
:1002F0000000000100000000002C76D888DC674F69
:100300000823DFC1DFAE59E1B1B796E5E3E453C698
:100310003AE651997696E8E6C28426EB898C9B6290
:10032000ED407C6FFCEFBC9C9F40F2BAA56FA5F43A
:1003300090055A2AF75C936B6CF9676DC11BFCE062
:10034000E40D47FEF520E6B500D0ED902E030094B5
:100350003577050080841E080000204E0A0000004A
:10036000C80C333333330F986E12831141EF8D2154
:1003700014893BE65516CFFEE6DB18D1844B381BBB
:10038000F77C1D901DA4BBE424203284725E228180
:1003900000C9F124ECA1E53D27434F4D4D554E4991
:1003A000434154494F4E0044525952554E00455214
:1003B000524F525300494E464F004543484F004567
:1003C00072726F722077726974696E6720746F2021
:1003D000454550524F4D210A0053544F505045440B
:1003E0002E20005072696E7465722073746F707085
:1003F00065642064756520746F206572726F727316
:100400002E2046697820746865206572726F7220AC
:10041000616E6420757365204D39393920746F2001
:10042000726573746172742E202854656D706572E4
:1004300061747572652069732072657365742E200E
:1004400053657420697420616674657220726573E7
:1004500074617274696E67290A004E6F2043686583
:10046000636B73756D2077697468206C696E6520A5
:100470006E756D6265722C204C617374204C696ED0
:10048000653A20004E6F20436865636B73756D207D
:1004900077697468206C696E65206E756D6265722F
:1004A0002C204C617374204C696E653A200063689F
:1004B00065636B73756D206D69736D617463682C12
:1004C000204C617374204C696E653A20004C696E53
:1004D00065204E756D626572206973206E6F7420A1
:1004E0004C617374204C696E65204E756D62657247
:1004F0002B312C204C617374204C696E653A2000BE
:100500004D3131300053657269616C2073746174D0
:100510007573206D69736D617463680A00534420BC
:1005200072656164206572726F720A004B494C4CAF
:1005300020627574746F6E2F70696E0A002121201D
:100540004B494C4C206361757365642062792000CF
:10055000746F6F206D75636820696E61637469766E
:10056000652074696D65202D2063757272656E74E7
:1005700020636F6D6D616E643A20002121204B492C
:100580004C4C20636175736564206279200062754C
:1005900073793A2070617573656420666F722069A3
:1005A0006E7075740A00627573793A2070617573A4
:1005B000656420666F7220757365720A00627573D8
:1005C000793A2070726F63657373696E670A004DC4
:1005D000656469612052656D6F766564004D656480
:1005E000696120496E736572746564004D31303005
:1005F0003053007061757365004D363030002066F1
:10060000696C616D656E745F72756E6F75742000D4
:1006100066696C616D656E745F72756E6F7574205E
:10062000540046696C616D656E7452756E6F7574B9
:10063000205400506C6561736520526573657400C9
:100640005052494E5445522048414C54454400258F
:10065000533A20255300706F7765726F6666004BC2
:10066000494C4C45442E20005072696E74657220CE
:1006700068616C7465642E206B696C6C282920633A
:10068000616C6C6564210A006563686F3A004572AD
:10069000726F723A0042696C696E656172204C65D6
:1006A00076656C696E6720477269643A0A002F2F7D
:1006B000616374696F6E3A006E6F74696669636135
:1006C00074696F6E200070726F6D70745F00656E7C
:1006D0006400486F74656E6420746F6F20636F6C84
:1006E000640A0053656E64204D31303820746F20E9
:1006F000726573756D650A00496E73657274206664
:10070000696C616D656E7420616E642073656E64E2
:10071000204D3130380A0052656865617420446F9D
:100720006E6500526568656174696E672E2E2E00D5
:10073000526568656174004865617465722054692A
:100740006D656F75740053656E64204D31303820CF
:10075000746F2068656174206E6F7A7A6C650A0028
:100760004E6F7A7A6C65205061726B6564007061BF
:1007700075736564005061757365004732362043B8
:10078000616E63656C65640047323620486561744C
:10079000696E67204E6F7A7A6C6500473236204862
:1007A000656174696E6720426564005761697469A8
:1007B0006E6720666F72206865617475702E0A001E
:1007C0004669786564204C656E677468205072696C
:1007D0006D6500446F6E65205072696D696E6700CB
:1007E0004D616E75616C207072696D696E672E2E39
:1007F0002E004C656176696E6720473236003F53A4
:10080000706563696669656420582C5920636F6F51
:100810007264696E617465206F7574206F66206202
:100820006F756E64732E0A003F28522965706561EA
:10083000742076616C7565206E6F7420706C6175C4
:100840007369626C653B206D75737420626520610D
:1008500074206C6561737420312E0A003F537065FB
:10086000636966696564206E6F7A7A6C6520746569
:100870006D7065726174757265206E6F7420706C36
:1008800061757369626C652E0A003F537065636918
:10089000666965642066696C616D656E7420736954
:1008A0007A65206E6F7420706C61757369626C6517
:1008B0002E0A003F53706563696669656420707233
:1008C000696D65206C656E677468206E6F7420704A
:1008D0006C61757369626C652E0A003F53706563C5
:1008E0006966696564206E6F7A7A6C652073697ACF
:1008F00065206E6F7420706C61757369626C652E13
:100900000A003F52657472616374696F6E204D75A1
:100910006C7469706C696572206D757374206265A2
:10092000207370656369666965642E0A003F5370C1
:100930006563696669656420526574726163746990
:100940006F6E204D756C7469706C696572206E6F86
:100950007420706C61757369626C652E0A003F5378
:100960007065636966696564206C61796572206889
:100970006569676874206E6F7420706C6175736947
:10098000626C652E0A0043292E0A003F537065638E
:100990006966696564206265642074656D7065725E
:1009A0006174757265206E6F7420706C6175736907
:1009B000626C65202834302D004732362073746114
:1009C0007274696E672E2E2E0A00206D696E757422
:1009D00065730020616E642000207475726E730070
:1009E000206279200020005475726E200047333554
:1009F0002061626F727465642E0A002028004733FC
:100A000035206661696C656420617420706F696E61
:100A10007420004732385A003F28532963726577A3
:100A200020746872656164206D757374206265203E
:100A300033302C2033312C2034302C2034312C20F6
:100A400035302C206F722035312E0A004F46460A71
:100A500000466164652048656967687420004265E6
:100A600064204C6576656C696E6720004661696C30
:100A7000656420746F20656E61626C6520426564F8
:100A8000204C6576656C696E670A00496E76616C0C
:100A90006964206D6573682E0A0050726F62696E1A
:100AA0006720506F696E740025532025692F2569D2
:100AB000002E0A002F0050726F62696E67206D650C
:100AC000736820706F696E74200020284452595258
:100AD000554E2900473239204175746F20426564B4
:100AE000204C6576656C696E67003F20284C2C525F
:100AF0002C462C4229206F7574206F6620626F751A
:100B00006E64732E0A003F2856296572626F736502
:100B1000206C6576656C20696D706C6175736962B7
:100B20006C652028302D34292E0A00426164205A39
:100B30002076616C75650A004E6F2062696C696E83
:100B400065617220677269640A0044657669617440
:100B5000696F6E0025533A2025730046696E6973EC
:100B6000686564210A003A207A3A2000206F6620E6
:100B700000476F696E6720746F3A20580043570A28
:100B800000206469723A0020616E676C653A005318
:100B900074617274207261646975733A004D3438FF
:100BA00020506F696E740025533A2025642F256408
:100BB00000506F736974696F6E696E672074686541
:100BC0002070726F62652E2E2E0A003F4C6567738F
:100BD000206F66206D6F76656D656E7420696D702F
:100BE0006C61757369626C652028302D3135292E52
:100BF0000A003F2028582C5929206F7574206F66F1
:100C000020626F756E64732E0A0050726F626520E9
:100C10006F7574206F6620626F756E6473003F534A
:100C2000616D706C652073697A65206E6F742070D9
:100C30006C61757369626C652028342D3530292EFE
:100C40000A004D3438205A2D50726F62652052656B
:100C5000706561746162696C69747920546573743C
:100C60000A003F2856296572626F7365206C6576AD
:100C7000656C20696D706C61757369626C652028A4
:100C8000302D34292E0A005374616E646172642021
:100C9000446576696174696F6E3A20002052616E16
:100CA00067653A2000204D61783A2000204D696E3A
:100CB0003A2000205369676D613A20004D65616EEE
:100CC0003A200020440020204D32303020530020B4
:100CD0002844697361626C6564293A0046696C61F5
:100CE0006D656E742073657474696E67730020207F
:100CF0004D3230312058004D617820416363656C7E
:100D000065726174696F6E2028756E6974732F73D4
:100D100032290020204D3230332058004D61782098
:100D20006665656472617465732028756E69747395
:100D30002F73290020520020204D323034205000E3
:100D4000416363656C65726174696F6E2028756EAE
:100D50006974732F7332292028503C7072696E7445
:100D60002D616363656C3E20523C726574726163F1
:100D7000742D616363656C3E20543C7472617665CA
:100D80006C2D616363656C3E29005741524E494E9C
:100D90004721204C6F77205A204A65726B206D6185
:100DA00079206C65616420746F20756E77616E7454
:100DB0006564207061757365732E0A0020540020ED
:100DC000530020204D323035204200416476616E60
:100DD0006365642028423C6D696E5F7365676D656D
:100DE0006E745F74696D655F75733E20533C6D6909
:100DF0006E5F66656564726174653E20543C6D6922
:100E00006E5F74726176656C5F666565647261744D
:100E1000653E20583C6D61785F6A65726B3E205973
:100E20003C6D61785F6A65726B3E205A3C6D6178FB
:100E30005F6A65726B3E20453C6D61785F6A6572E2
:100E40006B3E290020440020490020204D333031E2
:100E5000205000486F74656E64205049440020445F
:100E60000020490020204D3330342050004265647A
:100E700020504944003F2842296175642072617402
:100E80006520696D706C61757369626C652E0A000E
:100E900020626175642072617465207365742074CA
:100EA0006F20002053657269616C2000205800207B
:100EB000204D61783A2000200020204D696E3A20B4
:100EC00000203B200020204D323131205300536F51
:100ED000667420656E6473746F707300203B00202D
:100EE000550020204D363033204C0046696C616D32
:100EF000656E74206C6F61642F756E6C6F61640039
:100F00004D323453256C6454256C64004739322EBD
:100F1000394525730047314625640047315A25730A
:100F200046363030004731582573592573463330E3
:100F30003030004D313036502569532569004D3130
:100F40003039532569004D3230304425730047391C
:100F5000322E395A2573004D3432305325635A25C9
:100F60007300473238523058590047315A2573467A
:100F7000363030004739322E395A2573004739321E
:100F80002E394530004D313039532569004D313906
:100F900030532569004D343230205330205A300010
:100FA000203B200020204D343133205300506F77F8
:100FB00065722D6C6F7373207265636F76657279DD
:100FC000003B200020496E76616C6964206578746E
:100FD0007275646572200047322F47332062616466
:100FE00020706172616D65746572730A0047322FFB
:100FF00047332062616420706172616D657465724F
:10100000730A00536C6565702E2E2E005A205072A4
:101010006F62652050617374204265640A005A2033
:1010200050726F6265205061737420426564007075
:10103000726F62655F726577697065004D31313737
:101040002050726F6265206661696C65642E205263
:1010500065776970696E672E0A4732380A47313200
:101060002050302053313220543000473239205242
:1010700065747279696E670070726F62655F666130
:10108000696C65640050726F62696E6720466169C1
:101090006C6564004D31313720426564206C6576A3
:1010A000656C696E67206661696C65642E0A4730FD
:1010B000205A31300A4D33303020503235205338E9
:1010C00038300A4D333030205035302053300A4DFF
:1010D0003330302050323520533838300A4D3330D9
:1010E00030205035302053300A4D333030205032CC
:1010F0003520533838300A4D3330302050353020C9
:1011000053300A4734205331004D31313720426586
:1011100064206C6576656C696E6720646F6E652E01
:1011200000205A3A200020593A2000426564205895
:101130003A20004D65736820706F696E74206F757A
:1011400074206F662072616E67650A004D3020530F
:10115000746F70004D312053746F7000436C69637D
:101160006B20746F20526573756D652E2E2E004EA8
:101170006F204D6F76652E00456E642066696C6544
:10118000206C6973740A00426567696E2066696C39
:1011900065206C6973740A004E6F206D6564696127
:1011A0000A00526573756D696E6720534400286E9E
:1011B0006F2066696C65290043757272656E7420D4
:1011C00066696C653A20005344207072696E7469D8
:1011D0006E67206279746520004E6F74205344203E
:1011E0007072696E74696E670A005072696E74205D
:1011F00074696D653A20006F6B006F666600BA0314
:10120000B503AE03A703990344454255473A004D41
:1012100031313320530043522D3130205633204F8B
:1012200046462E002F2F004D31343520533C696E39
:101230006465783E206F7574206F662072616E67FA
:10124000652028302D31290A00206C696D6974658C
:101250006420746F2000204D61782000466565642D
:10126000726174650046523A0020466C6F773A20EE
:10127000003A200020536572766F2000206F75744D
:10128000206F662072616E67650A00536572766F23
:10129000200050726F6265204F6666736574205A35
:1012A0000050726F6265204F6666736574205A0045
:1012B00064697300656E0043290A0061626C6564AD
:1012C00020286D696E2074656D702000436F6C641A
:1012D0002065787472756465732061726520004FB3
:1012E0004646004F4E00203B20486F7374206861D3
:1012F0006E646C696E6720006D6D00203B20446950
:101300007374616E6365200046696C616D656E740F
:101310002072756E6F757420004D34323120696E05
:10132000636F727265637420706172616D6574655C
:10133000722075736167650A004D65736820706F70
:10134000696E74206F7574206F662072616E6765B8
:101350000A00454550524F4D204F4B0A00290A00C4
:1013600020746F20003F5A206F7574206F662072C2
:10137000616E6765202800290A0020746F20003FF5
:1013800059206F7574206F662072616E6765202822
:101390002D00290A0020746F20003F58206F7574BB
:1013A000206F662072616E676520282D0044696693
:1013B000663A2020200046726F6D5374703A0053D5
:1013C0007465707065723A00556E4C6576656C3A5E
:1013D000004C6576656C65643A005261773A20206E
:1013E0002020000A4C6F676963616C3A00436F7597
:1013F0006E7420453A004361703A00434F4E4649AF
:10140000475F4558504F5254004D45415450414359
:101410004B00434F4F4C45525F54454D5045524150
:1014200054555245004348414D4245525F54454D45
:10143000504552415455524500424142595354453A
:101440005050494E470041524353004D4F54494F6D
:101450004E5F4D4F44455300544845524D414C5FFB
:1014600050524F54454354494F4E00455854454EF1
:101470004445445F4D323000435553544F4D5F4611
:1014800049524D574152455F55504C4F4144004CD5
:10149000464E5F5752495445004C4F4E475F4649B0
:1014A0004C454E414D45004155544F5245504F52C9
:1014B000545F53445F5354415455530053445F5752
:1014C0005249544500524550454154004D554C54E5
:1014D000495F564F4C554D450053444341524400DB
:1014E00050524F4D50545F535550504F5254004836
:1014F0004F53545F414354494F4E5F434F4D4D410D
:101500004E445300454D455247454E43595F504167
:101510005253455200434153455F4C494748545F3D
:101520004252494748544E45535300544F47474C45
:10153000455F4C494748545300534F465457415216
:10154000455F504F574552004255494C445F504506
:101550005243454E54004C4556454C494E475F4416
:10156000415441005A5F50524F42450052554E4F30
:101570005554004155544F4C4556454C0050524926
:101580004E545F4A4F420050524F4752455353000A
:101590004155544F5245504F52545F54454D5000A1
:1015A0004155544F5245504F52545F504F5300567F
:1015B0004F4C554D455452494300454550524F4DAF
:1015C0000042494E4152595F46494C455F54524191
:1015D0004E534645520053455249414C5F584F4E79
:1015E0005F584F4646004649524D574152455F4E5F
:1015F000414D453A4D61726C696E20322E312E316B
:10160000202841756720323720323032322031377E
:101610003A31313A30322920534F555243455F43D6
:101620004F44455F55524C3A6769746875622E6342
:101630006F6D2F4D61726C696E4669726D77617264
:10164000652F4D61726C696E2050524F544F434F5D
:101650004C5F56455253494F4E3A312E30204D4142
:101660004348494E455F545950453A43522D313015
:101670002056332045585452554445525F434F55E8
:101680004E543A3120555549443A63656465326198
:1016900032662D343161322D343734382D39623190
:1016A000322D6335356336326633363766660A0067
:1016B000203B0020204D3835312058005A2D5072E3
:1016C0006F6265204F6666736574004D3834004460
:1016D0006F6E65207072696E74696E672066696CE2
:1016E000650A004D3737004D33310043616E6E6F30
:1016F00074206F70656E20737562646972200025B6
:1017000069730025696D20256973002569682025A6
:10171000696D202569730025696420256968202585
:10172000696D202569730025697920256964202564
:1017300069682025696D202569730020696E200085
:1017400053746174733A200053657276696365203F
:1017500033303068005365727669636520353068D0
:10176000000A53746174733A2046696C616D656E4A
:101770007420757365643A20002C204C6F6E676589
:101780007374206A6F623A2000546F74616C207425
:10179000696D653A200053746174733A20002C20FF
:1017A0004661696C65643A20002C2046696E697355
:1017B0006865643A20005072696E74733A20005371
:1017C000746174733A2000436F6F6C696E672E2EDC
:1017D0002E0045312025530042656420436F6F6C15
:1017E000696E672E2E2E004265642048656174691B
:1017F0006E672E2E2E0023646566696E6520444553
:101800004641554C545F0000626564004B64200003
:101810004B6920004B7020005049442074756E695C
:101820006E6720646F6E65002066696E6973686517
:1018300064212050757420746865206C6173742075
:101840004B702C204B6920616E64204B6420636FC9
:101850006E7374616E74732066726F6D2062656C56
:101860006F7720696E746F20436F6E66696775725B
:101870006174696F6E2E680A005049442041757486
:101880006F74756E6500206661696C6564212074F3
:10189000696D656F75740A00504944204175746F15
:1018A00074756E65004175746F74756E6520666140
:1018B000696C6564212054696D656F75742E002014
:1018C0006661696C6564212054656D706572617430
:1018D00075726520746F6F20686967680A005049E7
:1018E00044204175746F74756E65005049442043FF
:1018F00079636C65730025532025692F25690020C5
:101900004B643A2000204B693A2000204B703A206B
:101910000020436C617373696320504944200A00BE
:10192000204E6F206F76657273686F6F740A0020A7
:1019300054753A2000204B753A2000206D61783AAA
:101940002000206D696E3A200020643A2000206259
:101950006961733A200048656174696E672E2E2EA6
:10196000002073746172740A0050494420417574F8
:101970006F74756E65004175746F74756E65206661
:1019800061696C6564212054656D70657261747560
:10199000726520746F6F20686967682E0020666129
:1019A000696C6564212054656D706572617475722F
:1019B0006520746F6F20686967680A005049442089
:1019C0004175746F74756E6500504944204175749B
:1019D0006F74756E6500206661696C6564212042D4
:1019E0006164206865617465722069640A00504909
:1019F00044204175746F74756E65004572723A20AB
:101A00007574663820666F6E74206E6F7420696E10
:101A1000697469616C697A65642E004572723A2056
:101A20007574663820666F6E74206E6F7420696EF0
:101A3000697469616C697A65642E004572723A2036
:101A40007574663820666F6E74206E6F7420696ED0
:101A5000697469616C697A65642E00000C0F00FE80
:101A600007022503BB017FFE08FE08FE05080806E5
:101A7000000040F0C8888898781005080806000023
:101A8000C0F88888888888F8050505060001203098
:101A9000F830200508080600002070F820202020DB
:101AA000E00509090600FF2070A8A8B88888702002
:101AB000070505070001D86C366CD8050909060032
:101AC000FFF8A88888888888A8F8050A0A0600FE12
:101AD000205050505088A8A88870030303060003C4
:101AE00040A040FFFFFFFFFFFFFFFFFFFFFFFFFFE3
:101AF000FFFFFFFFFFFFFFFFFF0000000605FF01E4
:101B000007070602008080808080008003030306B0
:101B10000105A0A0A005060606000050F85050F8E8
:101B2000500509090600FF2070A8A07028A87020A1
:101B3000050707060000C8C8102040989805070749
:101B400006000040A0A040A890680103030602051B
:101B50008080800309090601FF204040808080408A
:101B600040200309090601FF80404020202040401A
:101B70008005070706000020A8702070A820050532
:101B8000050600012020F820200203030601FFC003
:101B90004080050101060003F8020202060100C0B0
:101BA000C005070706000008101020404080050708
:101BB00007060000708898A8C88870030707060108
:101BC0000040C040404040E0050707060000708824
:101BD00008102040F8050707060000F80810300834
:101BE000887005070706000010305090F8101005A7
:101BF0000707060000F880F0080888700507070648
:101C00000000304080F0888870050707060000F863
:101C10000810102020200507070600007088887033
:101C200088887005070706000070888878081060AB
:101C3000020505060100C0C000C0C002060606017C
:101C4000FFC0C000C04080030505060101204080A0
:101C50004020050303060002F800F803050506010D
:101C60000180402040800507070600007088102092
:101C70002000200507070600007088B8A8B880700B
:101C8000050707060000708888F888888805070718
:101C9000060000F04848704848F0050707060000B5
:101CA00070888080808870050707060000F048482B
:101CB000484848F0050707060000F88080F080805B
:101CC000F8050707060000F88080F080808005078F
:101CD0000706000070888080988870050707060056
:101CE00000888888F8888888030707060100E04094
:101CF00040404040E0050707060000381010101073
:101D000090600507070600008890A0C0A090880595
:101D10000707060000808080808080F8050707069E
:101D2000000088D8A88888888805070706000088EA
:101D300088C8A898888805070706000070888888E2
:101D4000888870050707060000F08888F08080808A
:101D500005070706000070888888A89068050707AF
:101D6000060000F08888F0A09088050707060000AC
:101D700070888070088870050707060000F820202A
:101D8000202020200507070600008888888888888A
:101D900070050707060000888888885050200507CE
:101DA0000706000088888888A8A85005070706004D
:101DB000008888502050888805070706000088881A
:101DC0005020202020050707060000F808102040BA
:101DD00080F80309090601FFE08080808080808010
:101DE000E0050707060000804040201010080309A6
:101DF000090601FFE020202020202020E005030329
:101E00000600052050880501010600FEF8030303C3
:101E10000601058040200505050600007008788849
:101E2000780507070600008080F0888888F005059F
:101E3000050600007080808870050707060000080E
:101E40000878888888780505050600007088F08085
:101E500070050707060000304840E0404040050795
:101E6000070600FE70888888780870050707060056
:101E7000008080F0888888880307070601004000FA
:101E8000C0404040E00409090601FE100030101077
:101E90001010906005070706000080808890E09091
:101EA00088030707060100C04040404040E00505A8
:101EB00005060000D0A8A8A8A8050505060000B0E2
:101EC000C888888805050506000070888888700520
:101ED00007070600FEF0888888F08080050707065F
:101EE00000FE78888888780808050505060000B097
:101EF000C880808005050506000078807008F00520
:101F000007070600002020F82020201805050506F8
:101F1000000088888898680505050600008888887C
:101F200050200505050600008888A8A8500505056D
:101F300006000088502050880507070600FE8888A4
:101F40008850204080050505060000F8102040F864
:101F50000309090601FF2040404080404040200125
:101F600009090602FF8080808080808080800309CC
:101F7000090601FF804040402040404080050303A7
:101F800006000248A890FF4261636B2D4C656674A1
:101F9000004261636B2D52696768740046726F6E10
:101FA000742D52696768740046726F6E742D4C65AB
:101FB0006674002100486F74656E6420746F6F2032
:101FC000636F6C64004261636B0050726F636565A0
:101FD00064004D6F76652045787472756465720093
:101FE0004F6666004F6E00536F667420456E6473D3
:101FF000746F7073004D6F74696F6E004469736124
:10200000626C65205374657070657273004D38346E
:10201000004D34382050726F62652054657374002F
:102020004732384F0A4D3438205031300042656411
:10203000204C6576656C696E67005472616D6D69E0
:102040006E672057697A617264004732385A0047D8
:1020500032385900486F6D652040004732385800CB
:102060004175746F20486F6D65004D61696E005059
:102070007265686561742024204265640050726551
:1020800068656174202420456E640054656D706538
:1020900072617475726500436F6F6C646F776E0068
:1020A0005072656865617420240046616E2053702B
:1020B00065656400426564004E6F7A7A6C65004D18
:1020C00061696E004D656173757265004C61737472
:1020D0002076616C75652000426564205472616DE4
:1020E0006D696E6700446F6E6500A81F9C1F911F8D
:1020F000871F53656C656374204F726967696E0052
:10210000486F6D696E672058595A00473238005041
:10211000726F6265205A204F666673657400466C64
:102120006F770046616E2053706565640042656498
:10213000004E6F7A7A6C65005370656564004D617E
:10214000696E00486F6D696E67204661696C6564F1
:10215000006F70656E005452494747455245440030
:102160003A200066696C616D656E74007A5F70720A
:102170006F6265007A5F6D696E00795F6D696E00F0
:10218000785F6D696E005265706F7274696E67205A
:10219000656E6473746F70207374617475730A0074
:1021A00020746F6F206C6F6E672065787472757322
:1021B000696F6E2070726576656E7465640A0020C2
:1021C000636F6C6420657874727573696F6E2070CC
:1021D000726576656E7465640A00486F6D652025CA
:1021E0007325732573204669727374000000A0C0C4
:1021F0000000A0C0000000005761726E696E673A6F
:1022000020486F6D696E672042756D702044697655
:1022100069736F72203C20310A000202040080982A
:1022200043008098430000C8430000A0400000A085
:10223000400000004000000001000000010000809C
:1022400000555555000000400033333300AAAA2A38
:10225000004992240000002000C7711C00999919C0
:1022600000D1451700555515003BB1130024491204
:102270000011111100000010000F0F0F00E3380EC5
:102280000043790D00CCCC0C00C3300C00E8A20B4D
:102290000064210B00AAAA0A00703D0A009DD8091B
:1022A00000427B090092240900DCD30800888808DA
:1022B000001042080000000800F0C10700878707EF
:1022C0000075500700711C07003EEB0600A1BC061C
:1022D000006990060066660600703E0600611806FA
:1022E0000017F4050074D105005BB00500B290053D
:1022F00000627205005555050078390500B81E05C5
:1023000000050505004EEC040087D40400A1BD04BF
:102310000090A7040049920400C17D0400EE690406
:1023200000C7560400444404005C32040008210441
:102330000041100400000004003FF00300F8E00337
:102340000026D20300C3C30300CCB503003AA803A0
:10235000000A9B0300388E0300C08103009F7503B1
:1023600000D0690300505E03001D5303003448038E
:1023700000913D03003333030016290300381F0387
:102380000097150300300C0300030303000BFA024F
:102390000049F10200BAE802005CE002002DD80218
:1023A000002DD0020059C80200B0C0020031B902AD
:1023B00000DAB10200AAAA0200A0A30200BC9C029B
:1023C00000FA9502005C8F0200DF88020082820220
:1023D00000457C02002776020027700200436A0253
:1023E000007C640200D05E02003F590200C8530224
:1023F00000FFFDFCFAF8F6F4F2F0EEECEAE9E7E5AE
:10240000E3E1E0DEDCDAD9D7D5D4D2D0CFCDCBCA68
:10241000C8C7C5C3C2C0BFBDBCBAB9B7B6B4B3B2F2
:10242000B0AFADACAAA9A8A6A5A4A2A1A09E9D9C50
:102430009A99989795949392908F8E8D8B8A89888C
:10244000878684838281807F7E7D7B7A79787776A8
:102450007574737271706F6E6D6C6B6A69686766A4
:102460006564636261605F5E5D5C5B5A5958585792
:1024700056555453525150504F4E4D4C4B4A4A4969
:1024800048474646454443424241403F3E3E3D3C2C
:102490003B3B3A39383837363535343332323130E0
:1024A000302F2E2E2D2C2B2B2A2929282727262585
:1024B0002524232322212120201F1E1E1D1C1C1B1E
:1024C0001B1A1919181817161615151413131212AA
:1024D0001111100F0F0E0E0D0D0C0C0B0A0A09092D
:1024E00008080707060605050404030302020100A5
:1024F000003D3D3D3D3D3D3D3D3D3D3D3D3D3D3D49
:102500003D3D3D3D3D3D3D3D3D3D3D3D3D3D3D3DFB
:102510003D3D3D3D3D3D3D3D3D3D3D3D3D3D0A005B
:10252000210A002053657276696365203330306874
:102530000020536572766963652035306800535416
:102540004F505045442E20005072696E74657220C1
:1025500073746F707065642064756520746F206596
:1025600072726F72732E20466978207468652065D8
:1025700072726F7220616E6420757365204D3939F7
:102580003920746F20726573746172742E20285420
:10259000656D70657261747572652069732072650E
:1025A0007365742E205365742069742061667465A8
:1025B000722072657374617274696E67290A0020F3
:1025C0006572726F72202D2072657374617274204F
:1025D00077697468204D3939390A00424C546F7557
:1025E00063680021212053544F502063616C6C6557
:1025F000642062656361757365206F66200000006A
:102600009643000096430000C8430000A0C00000AD
:10261000A0C00000000053657474696E6773205396
:10262000746F72656400290A002062797465733BD7
:1026300020637263200053657474696E677320535E
:10264000746F72656420280048617264636F64650A
:10265000642044656661756C742053657474696E9A
:102660006773204C6F616465640020286D6D2900DC
:10267000203B204C6576656C696E67200020204DFC
:102680003432302053004175746F20426564204C11
:102690006576656C696E6700204600204800202042
:1026A0004D3134352053004D6174657269616C2081
:1026B00068656174757020706172616D65746572B2
:1026C0007300203B2053656E736F7220002044001E
:1026D00020204D34313220530046696C616D656EA7
:1026E000742072756E6F75742073656E736F7200EF
:1026F000204A002020473239205720490020204D11
:102700003134392043203B20556E69747320696E43
:102710002043656C736975730A0054656D7065724A
:10272000617475726520556E69747300202047329C
:1027300031203B004C696E65617220556E6974737F
:1027400000454550524F4D206461746173697A654C
:10275000206572726F722E0A0053746F7265642066
:1027600073657474696E67732072657472696576D7
:10277000656400290A002062797465733B206372E6
:102780006320002073746F726564207365747469CC
:102790006E677320726574726965766564202800BF
:1027A000454550524F4D20435243204572726F723F
:1027B00000202863616C63756C6174656429210A6B
:1027C0000020213D2000454550524F4D20435243AB
:1027D000206D69736D61746368202D202873746F98
:1027E0007265642920002053697A653A2000496E99
:1027F0006465783A20000000484300004843000028
:1028000060410000C8410000A0420000A04200005A
:10281000C8430080CB43F4010000F40100006400D1
:102820000000E8030000454550524F4D20566572A8
:1028300073696F6E204572726F7200204D61726C09
:10284000696E3D563836290A00454550524F4D2095
:1028500076657273696F6E206D69736D61746368FC
:102860002028454550524F4D3D0020436F756E74F2
:1028700020583A00426564004531004500626564B5
:10288000002C2073797374656D2073746F7070659C
:102890006421204865617465725F49443A200045AF
:1028A00072723A204D415854454D50004D41585494
:1028B000454D5020747269676765726564004865AC
:1028C0006174696E67204661696C65640048656182
:1028D00074696E67206661696C6564004D313132E0
:1028E0002053687574646F776E004572723A204D9C
:1028F000494E54454D50004D494E54454D5020745D
:10290000726967676572656400544845524D414C71
:102910002052554E4157415900546865726D616CA3
:102920002052756E6177617900202F002042403A75
:102930000020403A0020573A0020573A00496E766E
:10294000616C69642065787472756465720A007CD4
:102950003C3E5E2B3D3F2F5B5D3B2C2A225C0043BF
:10296000616E6E6F74206F70656E2073756264693E
:102970007220004D6564696120496E69742046616A
:10298000696C0053442063617264206F6B0A006FAE
:1029900070656E526F6F74206661696C65640A00C1
:1029A000766F6C756D652E696E6974206661696CF1
:1029B00065640A004E6F20534420636172640A000C
:1029C0000A4D3234004D3233202573002E0A006F39
:1029D00070656E206661696C65642C2046696C6563
:1029E0003A200046696C652073656C6563746564A4
:1029F0000A002053697A653A200046696C65206FA9
:102A000070656E65643A2000454E4420535542522D
:102A10004F5554494E450A002220706F7300222002
:102A2000706172656E743A2200535542524F55548C
:102A3000494E452043414C4C207461726765743A9D
:102A4000220053756263616C6C204F766572666C10
:102A50006F77004578636565646564206D617820F3
:102A6000535542524F5554494E4520646570746821
:102A70003A00554E4C4F41442046494C414D454E3D
:102A800054004C4F41442046494C414D454E540062
:102A900046494C414D454E54204348414E47450020
:102AA00042656400456E636C6F73757265002568DE
:102AB000753A25303268750025303268753A253010
:102AC0003268750025303268752725303268750008
:102AD000202020202020200020202020006572724D
:102AE000001FE020102010201010201020201020A7
:102AF0001030300840048003001FE03FF03FF03FFB
:102B0000F01FE01FE03FF03FF03FF00FC0078003F1
:102B1000003FFFF038007030FC3020FC10207810AF
:102B20002030102C00D02E31D02F7BD02F7BD02EF8
:102B300031D02C00D020301020781020FC1030FC38
:102B4000303800703FFFF03FFFF0380070318630C2
:102B50002387102787902F87D02F03D02030102075
:102B600078102078102030102F03D02F87D027879F
:102B7000902387103186303800703FFFF01FFFF838
:102B80001FFFF8041040020820020820041040082B
:102B900020801041001041000820800410400000F7
:102BA000001FFFF81FFFF8000000001E00000000DB
:102BB0002100000000271DC08C0027212192004128
:102BC000212092008E21CE9200902120920110218E
:102BD000209201201D21CC022000000004100113CE
:102BE0000008100114801008011080200400A300C8
:102BF00047F200A08043E200448020040043001814
:102C0000D8000000198400000021FC0000003F00F3
:102C100043522D31302056332052656164792E00A5
:102C20003E20536572766963652033303068210039
:102C30003E20536572766963652035306821005007
:102C400072696E74696E672E2E2E0063616E636505
:102C50006C005072696E742041626F72746564001A
:102C600055492041626F72746564004D32352050C1
:102C70000A4D3234005072696E742050617573656C
:102C80006400526573756D65005549205061757318
:102C9000650050617573696E672E2E2E0072657324
:102CA000756D65004D323400454550524F4D2056EC
:102CB000657273696F6E204572726F720045455080
:102CC000524F4D20496E646578204572726F7200D4
:102CD000454550524F4D20435243204572726F720A
:102CE000003F0049676E6F7265005265736574003E
:102CF000496E697469616C697A6520454550524F27
:102D00004D0000FE0003FF8007C7C00701E0000080
:102D1000E00000F00000700400700E00701F0070F2
:102D20003F80F00E00E00F01E007C7C003FF800006
:102D3000FE0000FE0003FF8007C7C00F01E00E0089
:102D4000E03F80F01F00700E007004007000007003
:102D50000000F00000E00701E007C7C003FF8000AB
:102D6000FE000E000E000E000E000E000E000E0003
:102D70000E007FC03F801F000E00040004000E0004
:102D80001F003F807FC00E000E000E000E000E00E0
:102D90000E000E000E00FFFFFF7F80FFC0FFC0FF90
:102DA000C07F807F80FFC0FFC0FFC03F001E000CBF
:102DB0000050726F6265205A204F6666736574001A
:102DC00052756E6F75742044697374206D6D004C7C
:102DD0006F6164206D6D00556E6C6F6164206D6D68
:102DE0000046696C2E204469612E004520696E20E2
:102DF0006D6D5E33004D33303320553120452569EC
:102E00002053256900504944204175746F74756ED4
:102E100065202A005049442D44202A005049442D61
:102E200049202A005049442D50202A0020082046DD
:102E3000616374002008204D6178002008204D69EE
:102E40006E004F6666004F6E004175746F74656D5D
:102E500070004D696E2054726176656C2053706508
:102E60006564004D696E2056656C6F636974790006
:102E70004D61782040205370656564004D61782075
:102E80004520416363656C004D61782040204163BB
:102E900063656C0054726176656C20416363656C98
:102EA000005265747261637420416363656C004114
:102EB0006363656C004D61782040204A65726B0049
:102EC00050726F6265205A204F66667365740050B9
:102ED000726F62652059204F666673657400507288
:102EE0006F62652058204F666673657400402073DA
:102EF000746570732F6D6D00416476616E636564F7
:102F00002053657474696E6773003F0043616E639C
:102F1000656C00496E697400496E697469616C6919
:102F20007A6520454550524F4D0046696C616D658C
:102F30006E740054656D70657261747572650053CE
:102F4000746570732F6D6D0050726F6265204F66EF
:102F50006673657473004A65726B00416363656CE8
:102F600065726174696F6E004D617820537065659C
:102F70006420286D6D2F732900436F6E6669677535
:102F8000726174696F6E004C617374205A3A20004C
:102F9000476F6F6420506F696E74733A20005072EF
:102FA0006F62696E6720506F696E740041646A7564
:102FB00073742062656420756E74696C2074686532
:102FC0002070726F62652074726967676572732E14
:102FD00000536B697000446F6E65004732394E00D4
:102FE000436F726E6572732077697468696E2074BE
:102FF0006F6C6572616E63652E2042656420747229
:10300000616D6D65642E004261636B004C65766591
:103010006C005A2056616C756500496E64657820B5
:103020005900496E64657820580053746F726520AA
:1030300053657474696E6773004C6F6164205365E7
:103040007474696E677300426564205472616D6DBB
:10305000696E670050726F6265205A204F66667312
:103060006574004661646520486569676874004F4F
:103070006666004F6E00426564204C6576656C693B
:103080006E670045646974204D657368004C657611
:10309000656C20426564004732394E004732390082
:1030A0004175746F20486F6D65004D6F74696F6E68
:1030B000003F0043616E63656C204F626A65637414
:1030C000004E4F005945530043616E63656C204FBD
:1030D000626A656374203D004D61696E0053572D2F
:1030E0004D6F64650053746F77004465706C6F7941
:1030F0000053656C662D5465737400526573657476
:1031000000426564004E6F7A7A6C650046616E20FD
:10311000537065656400436F6E66696775726174AC
:10312000696F6E00526573746F72652044656661E5
:10313000756C7473004C6F61642053657474696EB0
:1031400067730053746F72652053657474696E679A
:103150007300536F756E640050726568656174200A
:103160002420436F6E6600506F776572204F757430
:10317000616765004F6666004F6E0052756E6F7531
:10318000742053656E736F7200424C546F756368A0
:103190000050726F6265205A204F66667365740036
:1031A000416476616E6365642053657474696E670B
:1031B00073004D61696E004D373032205425640034
:1031C0004D36303020423020542564004D373032A7
:1031D000203B2564004D37303120542564004D37A5
:1031E0003032004D373031004D3630302042300023
:1031F0004D61696E00436F6E74696E7565004F6650
:1032000066004F6E0052756E6F75742053656E7355
:103210006F72005075726765206D6F726500524560
:1032200053554D45204F5054494F4E533A0050523C
:10323000494E54205041555345440020204E6F7A4A
:103240007A6C653A20005061726B696E672E2E2E83
:103250000000005761697420666F720066696C61D6
:103260006D656E74206368616E676500746F2073AE
:1032700074617274005761697420666F72006669C8
:103280006C616D656E7420756E6C6F616400004ECC
:103290006F7A7A6C652068656174696E6700506C3E
:1032A0006561736520776169742E2E2E000050725F
:1032B00065737320627574746F6E00746F20686537
:1032C0006174206E6F7A7A6C650000496E73657266
:1032D000742066696C616D656E7400616E64207047
:1032E0007265737320627574746F6E00746F2063FF
:1032F0006F6E74696E7565005761697420666F72D0
:103300000066696C616D656E74206C6F61640000AD
:10331000507265737320427574746F6E00746F2001
:10332000726573756D65207072696E740000576107
:10333000697420666F72207072696E7400746F20F9
:10334000726573756D652E2E2E00005761697420AD
:10335000666F720066696C616D656E74207075725F
:10336000676500003E20005365727669636520330F
:1033700030306820003E2000536572766963652016
:10338000353068200020696E3A003E2000256C64CC
:103390002E25696D00457874727564656420546FDC
:1033A00074616C003E20004C6F6E67657374204A38
:1033B0006F622054696D65003E20005072696E7422
:1033C0002054696D6500436F6D706C6574656400B1
:1033D0003A20005072696E7420436F756E74003A23
:1033E00020003132300035004245443A20455043F8
:1033F0004F53203130304B0052756E617761792028
:1034000057617463683A204F4E004D6178205465CF
:103410006D7000323735004D696E2054656D700057
:10342000350045313A204550434F53203130304B21
:10343000005053550047656E657269630050726FA6
:10344000746F636F6C00312E30004261756400321E
:10345000353030303000437265616C6974793344C3
:103460002052414D50530042696C696E6561722073
:103470004C6576656C696E67004578747275646535
:1034800072730031006D61726C696E66772E6F72B7
:10349000670043522D313020563300323032322D06
:1034A00030382D303600322E312E31004D61726CA5
:1034B000696E005072696E74657220537461747322
:1034C00000546865726D6973746F727300426F6146
:1034D000726420496E666F005072696E7465722066
:1034E000496E666F004D61696E004D3130303000BD
:1034F00053746F70205072696E7400526573756DED
:1035000065205072696E7400506F776572204F7538
:1035100074616765004732370A4D31313720557382
:1035200065722053637269707420446F6E65005039
:1035300061726B204E6F7A7A6C65004D61696E0026
:103540003F004261636B0053746F70003F0053652E
:10355000727669636520353068003F005365727686
:1035600069636520333030680052657365740043C9
:10357000616E63656C005265736574004E6F204D1B
:1035800065646961005072696E742066726F6D20A7
:103590004D65646961004368616E6765204D6564CF
:1035A0006961004D3231005365727669636520337D
:1035B0003030680053657276696365203530680085
:1035C00041626F7574205072696E74657200436851
:1035D000616E67652046696C616D656E7400437548
:1035E00073746F6D20436F6D6D616E647300436F14
:1035F0006E66696775726174696F6E0054656D708F
:1036000065726174757265004D6F74696F6E0052FA
:103610006573756D65205072696E740043616E63E9
:10362000656C204F626A6563740054756E65005363
:10363000746F70205072696E7400506175736520EC
:103640005072696E7400496E666F205363726565CF
:103650006E003F005374617274205072696E740082
:1036600043616E63656C005072696E740043616EF5
:103670006E6F7420656E7465722073756264697212
:103680003A200002202E2E004D61696E00504554F4
:103690004700504C410020583A002E0A0044656C07
:1036A0006574696F6E206661696C65642C2046697B
:1036B0006C653A200046696C652064656C657465CC
:1036C000643A0057726974696E6720746F20666986
:1036D0006C653A2000667265736800646F696E6796
:1036E000002066696C653A20004E6F7720002F61DC
:1036F00075746F25632E67000000000000000060F5
:103700000000000000FC00000FF00000000007E0D7
:103710000000000001861FC018700000000000605B
:103720003C0C000001830C601030000000000060C1
:103730003C0C000001830C303030000000000060C1
:10374000000C000000030C183000000000000060B6
:10375000003F0F3C00030C0C6001DF0FE0FE006037
:103760001C1C061800060C0C6000F3183183006066
:103770000C0C0318001E0C0C6000E0303983006054
:103780000C0C033000030C0C6000C030380F0060DC
:103790000C0C033000018C0C6000C03FF8FB006093
:1037A0000C0C033000018C0C6030C03001830060D1
:1037B0000C0C01F001818C0C6030C0300183006082
:1037C0000C0C00E001818C183030C018318300608F
:1037D0000C0C40E001838C301860C00C6187C0E0A5
:1037E0001C0CC06000C30C600FC3F007C0FFC7FC17
:1037F0007F0781C0007E1FC00000000000000000A5
:1038000000000700000000000000000000000000B1
:1038100000000700000000006D61726C696E667741
:103820002E6F726700322E312E31001FFFFFFFFF17
:10383000FFFF600000000001FF400000000000FFEB
:103840008000000000007F83CF00000C303F87FF26
:1038500080000C301F867980000C000F8C30C783ED
:103860008C30E78C30CFC7CC31F38C30DCECEC33D0
:10387000B98C30D86C6C33198C30D06C0C33198CFB
:1038800030D86C0C33198C30DC6C0E3B198C30CF7B
:103890007C079F198C30C77C038F19400000000003
:1038A0000002600000000000061FFFFFFFFFFFF89E
:1038B00070012C0190012701B0012201C0011D01FE
:1038C000F00118011002130130020E01600209011B
:1038D00090020401C002FF000003FA004003F5005B
:1038E0008003F000D003EB002004E6007004E10048
:1038F000E004DC004005D700C005D2004006CD0042
:10390000D006C8008007C3003008BE00F008B90028
:10391000C009B400B00AAF00B00BAA00D00CA500DB
:10392000000EA000500F9B00C01096005012910096
:1039300000148C00C0158700B0178200B0197D00FC
:10394000D01B7800001E730040206E00902269009A
:10395000F024640040275F0090295A00E02B5500B6
:10396000102E500020304B0010324600E033410052
:1039700090353C001037370070383200A0392D00E8
:10398000B03A2800A03B2300603C1E00103D190007
:10399000903D1400103E0F00703E0A00C03E05002E
:1039A000003F0000403FFBFF803FF6FFC03FF1FFBC
:1039B0002020506C616E6E6572427566666572425B
:1039C000797465733A20002046726565204D656DF7
:1039D0006F72793A200020436F6D70696C65643AAC
:1039E0002041756720323720323032320A00204CB5
:1039F00061737420557064617465643A20323032AA
:103A0000322D30382D3036207C20417574686F722D
:103A10003A204161726F6E204A7573742C204352B4
:103A20002D3130205633290A004D61726C696E20A9
:103A3000322E312E310A0020536F66747761726521
:103A40002052657365740A00205761746368646F5F
:103A5000672052657365740A002042726F776E208A
:103A60006F75742052657365740A0020457874651B
:103A7000726E616C2052657365740A00506F7765D1
:103A80007255700A0073746172740A0047323858B4
:103A900059004D31303031006572726F722077728B
:103AA0006974696E6720746F2066696C650A0044EA
:103AB0006F6E6520736176696E672066696C652E2E
:103AC0000A004D323900456E6473746F70730025BF
:103AD0005320256320256320256320256300205083
:103AE0003A00205A3A0020593A0020583A00656EB0
:103AF0006473746F7073206869743A200000000A60
:103B00000B02090C0D0E0807030401000000000061
:103B100000000000000000000000000000000000A5
:103B20000000000000000000001211100000000062
:103B30000000000000000000000000000000000085
:103B400000000024F404D9201BC40C5C0E9804C4AB
:103B5000095F0265077101F405F900FB04B3004831
:103B6000048700C10369005803550003034500BEE4
:103B7000023A008402310053022A0029022500047F
:103B8000022000E4011C00C8011900AF01170098D1
:103B90000114008401130071011000610110005133
:103BA000010E0043010D0036010B002B010B00201C
:103BB000010B00150109000C01090003010800FBBD
:103BC000000800F3000800EB000700E4000600DE38
:103BD000000600D8000600D2000600CC000500C791
:103BE000000500C2000500BD000400B9000400B5D6
:103BF000000400B1000400AD000400A9000400A509
:103C0000000300A20003009F0004009B0003009833
:103C10000003009500020093000300900003008D54
:103C20000002008B0003008800020086000200846E
:103C3000000300810002007F0002007D0002007B83
:103C40000002007900020077000100760002007493
:103C500000020072000100710002006F0002006D9E
:103C60000001006C0002006A0001006900020067A8
:103C700000010066000100650001006400020062AE
:103C800000010061000100600001005F0002005DB2
:103C90000001005C0001005B0001005A00010059B6
:103CA00000010058000100570001005600010055B6
:103CB00000010054000100530000005300010052B5
:103CC00000010051000100500001004F0001004EB2
:103CD0000000004E0001004D0001004C0001004BAF
:103CE0000000004B0001004A0001004900010048AB
:103CF00000000048000100470001004600000046A7
:103D0000000100450000004500010044000100439F
:103D10000000004300010042000000420001004199
:103D200000000041000100400001003F0000003F92
:103D30000001003E0000003E0001003D0000003D8B
:103D40000001003C0000003C0000003C0001003B82
:103D50000000003B0001003A0000003A0001003979
:103D60000000003900010038000000380000003871
:103D70000001003700000037000100360000003667
:103D8000000000360001003500000035000000355D
:103D90000001003400000034000000340001003352
:103DA0000000003300000033000100320000003248
:103DB000000000320001003100000031000000313D
:103DC0000001003000000030000000300001002F32
:103DD0000000002F0000002F0000002F0001002E27
:103DE0000000002E0000002E0001002D0000002D1C
:103DF0000000002D0000002D0001002C0000002C10
:103E00000000002C0000002C0001002B0000002B03
:103E10000000002B0000002B0001002A0000002AF7
:103E20000000002A0000002A0001002900000029EB
:103E300000000029000000290000002900010028DE
:103E400000000028000000280000002800000028D2
:103E500000010027000000270000002700000027C5
:103E600000000027000100260000002600000026B8
:103E700000000026000000260001002500000025AB
:103E8000000000250000002500000025000000259E
:103E90000001002400000024000000240000002491
:103EA0000000002400010023000000230000002384
:103EB0000000002300000023000000230000002376
:103EC0000001002200000022000000220000002269
:103ED000000000220000002200010021000000215B
:103EE000000000210000002100000021000000214E
:103EF0000000002100010020000000200000002040
:103F00000000002000000020000000200000002031
:103F1000000000200001001F0000001F0000001F23
:103F20000000001F0000001F0000001F0000001F15
:103F30000001001E0000001E0000001E0000001E08
:103F400000000024F4D43050C38E20C2A240178257
:103F50008B7011127A910D816CD90AA861E108C7A2
:103F6000586607615143061E4B5D05C145A7041AFB
:103F7000411104093D9803713931034036DB026574
:103F8000339102D4305402802E1D02632CEE017551
:103F90002AC501B028A001102781018F2564012BBB
:103FA000244B01E0223401AC211F018D200D018042
:103FB0001FFC00841EED00971DDF00B81CD200E638
:103FC0001BC600201BBC00641AB200B219A8000A6C
:103FD00019A0006A189900D117910040178B00B5FD
:103FE00016840031167E00B31579003A157300C7A8
:103FF000146F0058146A00EE1366008813630025DE
:10400000135E00C7125B006C12570015125400C1FA
:1040100011510070114F0021114B00D61049008D35
:104020001047004610440002104200C00F400080BC
:104030000F3E00420F3C00060F3B00CB0E380093B2
:104040000E37005C0E3500270E3400F30D3200C130
:104050000D3100900D3000600D2E00320D2D000549
:104060000D2C00D90C2B00AE0C2900850C29005C0E
:104070000C2700350C27000E0C2600E80B2400C48A
:104080000B2400A00B23007D0B23005A0B210039C9
:104090000B2100180B2000F80A1F00D90A1E00BBD4
:1040A0000A1E009D0A1D00800A1D00630A1C0047AD
:1040B0000A1B002C0A1B00110A1A00F7091A00DD5E
:1040C000091900C4091900AB091900920917007BEE
:1040D000091800630917004C09160036091600205C
:1040E0000916000A091500F5081500E0081400CCAF
:1040F000081400B8081400A4081400900813007DE8
:104100000812006B08130058081200460812003409
:10411000081100230811001208110001081100F015
:10412000071000E0071000D0071000C0071000B013
:10413000070F00A107100091070E0083070F0074FE
:10414000070F0065070E0057070E0049070E003BDA
:10415000070D002E070E0020070D0013070D0006A7
:10416000070D00F9060C00ED060D00E0060C00D46A
:10417000060C00C8060C00BC060C00B0060C00A41F
:10418000060B0099060C008D060B0082060B0077CB
:10419000060B006C060B0061060A0057060B004C6C
:1041A000060A0042060A0038060A002E060A002403
:1041B000060A001A060A001006090007060A00FD92
:1041C000050900F4050900EB050900E2050900D91D
:1041D000050900D0050900C7050900BE050900B59D
:1041E000050800AD050800A50509009C0508009418
:1041F0000508008C050800840508007C050800748B
:104200000508006C050700650508005D05070056F8
:104210000508004E0507004705070040050800385F
:10422000050700310507002A050700230507001CC4
:10423000050600160507000F050700080506000221
:10424000050700FB040600F5040700EE040600E87D
:10425000040600E2040700DB040600D5040600CFD4
:10426000040600C9040600C3040600BD040600B726
:10427000040600B1040500AC040600A6040600A074
:104280000405009B04060095040500900406008ABE
:1042900004050085040500800406007A0405007505
:1042A000040500700405006B040500660405006148
:1042B0000405005C04050057040500520405004D88
:1042C00004050048040500430405003E0404003AC8
:1042D00004050035040500300404002C0405002703
:1042E000040400230405001E0404001A040400163C
:1042F000040500110404000D040400090405000471
:1043000004040000040400FC030400F8030400F4A7
:10431000030400F0030400EC030400E8030400E4D9
:10432000030400E0030400DC030400D8030400D409
:10433000030400D0030400CC030400C8030300C539
:10434000030300393000003325000087190000B056
:104350000F0000DB080000BD040000740200003FF5
:104360000100004D6F766520246D6D00302E3032D7
:1043700035004D6F766520302E316D6D004D6F76B6
:104380006520316D6D004D6F76652031306D6D00AB
:104390004D6F76652041786973004D6F7665202AF0
:1043A000004D6F766520400092368D364368616E11
:1043B00067652046696C616D656E7400556E6C6F43
:1043C00061642046696C616D656E74004C6F616458
:1043D0002046696C616D656E740050726568656138
:1043E0007420437573746F6D0050726568656174F5
:1043F0002024004261636B00FFFFFF50726F62690F
:104400006E67204661696C656400205A3A2000207E
:10441000593A200042656420583A20009636E74514
:10442000E345DF45726573756D6564004469736DBE
:1044300069737300526573756D696E670073686F99
:104440007700627574746F6E00626567696E004410
:10445000697361626C6552756E6F75740050757228
:1044600067654D6F72650050617573656400436FD9
:104470006E74696E7565004C6F61642046696C618D
:104480006D656E74205400496E73657274206669A0
:104490006C616D656E7420616E642073656E64205E
:1044A0004D3130380A00220A00556E6B6E6F776E00
:1044B00020636F6D6D616E643A20220020420020FF
:1044C00050006F6B00204500205A0020590020202A
:1044D0004D39322058005374657073207065722016
:1044E000756E69740000002200250028002B002E44
:1044F000003100340002010000050108010B010039
:10450000002100240027002A002D00300033000184
:10451000010000040107010A01050505050705085A
:10452000080808020202020A0A0808040404040136
:104530000101010101010103030303030303030458
:104540000707070C0C0C0C0C0C0C0C0202020206E8
:10455000060606060606060B0B0B0B0B0B0B0B01D8
:104560000210202008081020401020408002010284
:10457000010804020101020408102040808040204C
:104580001008040201800402018040201008040287
:104590000108040201010204081020408001020405
:1045A000081020408020746F6F206C6F6E6720654C
:1045B0007874727573696F6E2070726576656E744B
:1045C00065640A0020636F6C64206578747275738B
:1045D000696F6E2070726576656E7465640A00207E
:1045E000453A00205A3A0020593A00583A006F6B79
:1045F0000A00526573656E643A2000000E010C01DA
:1046000011241FBECFEFD1E2DEBFCDBF00E00CBF53
:1046100084B780933E1A14BE0FB6F894A895809183
:104620006000886180936000109260000FBE14E00B
:10463000A0E0B2E0E4EBF4E003E00BBF02C00790BF
:104640000D92A035B107D9F72AE1A0E5B4E001C089
:104650001D92AE33B207E1F712E2CFEFD2E200E0F3
:1046600006C021970109802FFE010F94E07ECE3F06
:10467000D10780E00807A9F70F94B36A0D94498227
:104680000C94000090E080E00895CF93DF93C091F8
:104690004809D091490981E0CE31D105E4F020E00C
:1046A00030E040E05FE360914409709145098091FA
:1046B0004609909147090F94E97E0F942D806C1B59
:1046C0007D0B77FF03C071956195710981E06330BF
:1046D00071050CF080E0DF91CF910895CF93DF93C7
:1046E000DB01F9019C919130C1F0943080F094503D
:1046F0009C938830D1F480819181009771F001976B
:1047000091838083480F591FEA01188206C08C35B7
:1047100039F49C5F9C93943041F4DF91CF910895DC
:104720008B3339F781E08C93F8CF20813181B90147
:104730006F5F7F4F71836083420F531FEA0188834D
:10474000808191818F3591056CF7E7CF0F931F938F
:1047500081E00091291810912A1820912B1830918E
:104760002C184091251850912618609127187091A7
:104770002818041715072607370708F480E01F914B
:104780000F91089590E080E008952091D305833043
:1047900021F425FD0CC024FD0CC030E0A90102C0AD
:1047A000559547958A95E2F7CA018170089581E091
:1047B000089580E008958091EE0584FD0BC08091FE
:1047C000F00587FD07C09091F105937081E019F421
:1047D00080E0089581E00895CF92DF92EF92FF92FA
:1047E000CF93DF93EC01CC80DD80EE80FF8022ED63
:1047F00030E040EA50ECC701B6010F94108187FD0C
:1048000023C023E030E046E953E4C701B6010F942A
:1048100019781816CCF0C880D980EA80FB8022ED88
:1048200030E040EA50ECC701B6010F94108187FDDB
:104830000BC0C1E023E030E046E953E4C701B60114
:104840000F94197818160CF4C0E08C2FDF91CF91DB
:10485000FF90EF90DF90CF900895682F70E090E088
:1048600080E00F941F7820914706309148064091D0
:10487000490650914A060F947E7820913A0630916D
:104880003B0640913C0650913D060D94E97E682F11
:1048900070E090E080E00F941F7820914306309103
:1048A000440640914506509146060F947E7820912B
:1048B00036063091370640913806509139060D94EE
:1048C000E97E2FEB280F2A3108F047C0E22FF0E0F5
:1048D0008091EE059091EF05A091F005B091F10562
:1048E00004C0B695A795979587952A95D2F780FD30
:1048F00002C081700895EC52FA4FE081EE2341F13D
:104900008091830A9091840AE80FF92FF11D80812C
:1049100090ED980F9A3030F08E3251F481818053AF
:104920008A3098F4F093C705E093C60581E00895B6
:104930008D3211F08B3249F4818190ED980F9A30CD
:1049400088F38E3211F48281EACFF0E0E0E0EACF22
:104950001092C7051092C605E9CF80E00895B1DF37
:10496000882341F081E02091C6053091C705232BB3
:1049700009F480E00895282F80936502803240F585
:1049800080913708281724F081E0820F8093370840
:1049900081E090E002C0880F991F2A95E2F7092E66
:1049A000000CAA0BBB0B4091330850913408609166
:1049B00035087091360884239523A623B72321E078
:1049C000892B8A2B8B2B09F420E02093C60A0895AB
:1049D0001092C60A089510927E0A80914802909122
:1049E0004902A0914A02B0914B028093C106909374
:1049F000C206A093C306B093C4060895269A2E9AC1
:104A00000895EF92FF920F931F93CF93DF93EC01E2
:104A10008B017A018A859B858617970731F08881FB
:104A200099810F945E5E1B870A87B70188819981FF
:104A30000F9420562E813F81820F932F911D9F83CB
:104A40008E8390E080E0DF91CF911F910F91FF90D6
:104A5000EF9008959F92AF92BF92CF92DF92EF9224
:104A6000FF920F931F93CF93DF93EC018B01942E52
:104A7000A52E8A859B858617970731F088819981B5
:104A80000F945E5E1B870A8788859985019649F594
:104A9000BC800A818E81080FC880D980D6015596C6
:104AA000ED91FC91C6011995B80EE92CFA2C10E095
:104AB000F70121917F01211127C08E819F81810FF4
:104AC000911D9F838E8390E080E0DF91CF911F91B5
:104AD0000F91FF90EF90DF90CF90BF90AF909F909D
:104AE00008950E811F81692D7A2D888199810F94F7
:104AF0002056800F912F911D288539852817390759
:104B000038F681E090E0E1CF4B2D602FC6010F9485
:104B1000B65E080F180FCCCFDF92EF92FF920F9383
:104B20001F93CF93DF93EC01D62E1CAD0BAD7C0110
:104B300084E0E80EF11CE98DFA8DC7011995412F2B
:104B4000480F2D2D602FC7010F94B65E9BAD890FC6
:104B50008BAF81E090E0DF91CF911F910F91FF909B
:104B6000EF90DF900895CF93DF93C0914809D091E3
:104B70004909209729F16091440970914509809174
:104B80004609909147090F942D806E5F7F4F2497BF
:104B90006C177D07ACF47093DA066093D9060F9416
:104BA000945B605E70448D4F9F4F6093DB06709303
:104BB000DC068093DD069093DE06DF91CF910895A9
:104BC0001092DB061092DC061092DD061092DE06D3
:104BD000F4CFAB01BC014093291850932A1860937D
:104BE0002B1870932C1884E999E10C9474A063E05D
:104BF0000D94A85F0F931F93CF93DF9300D01F9264
:104C0000CDB7DEB79C010CE31AE090E1ECE7F2E0EF
:104C1000D80101900D929A95E1F7F9012081318137
:104C200042815381F80160857185828593850F9457
:104C3000E97EF801608771878287938780E090E042
:104C4000A0E6B1E489839A83AB83BC83CE0101964D
:104C50000E9478E90F900F900F900F90DF91CF9105
:104C60001F910F9108952F923F924F925F926F92F2
:104C70007F928F929F92AF92BF92CF92DF92EF92EC
:104C8000FF921F93CF93DF93CDB7DEB72C970FB66C
:104C9000F894DEBF0FBECDBF7A011901DC012D9162
:104CA0003D914D915C912D833E834F835887FB014D
:104CB000408051806280738080907C0290907D0261
:104CC000A0907E02B0907F02A50194016D817E814B
:104CD0008F8198850F94197881110EC011E0A3017E
:104CE0009201609180027091810280918202909184
:104CF00083020F941978811110E0D1012D913D911B
:104D00004D915C9129873A874B875C87F701C0807A
:104D1000D180E280F38020910A0230910B02409111
:104D20000C0250910D02C701B6010F941978882327
:104D300009F44EC0C0920A02D0920B02E0920C021B
:104D4000F0920D028091880290918902A0918A02CE
:104D5000B0918B0240918002509181026091820259
:104D60007091830280923C0A90923D0AA0923E0A82
:104D7000B0923F0A4093400A5093410A6093420A1E
:104D80007093430AC092440AD092450AE092460AC0
:104D9000F092470A8093480A9093490AA0934A0ADE
:104DA000B0934B0A20E030E040E05FE36091F40A0A
:104DB0007091F50A8091F60A9091F70A0F947E7827
:104DC00069837A838B839C83CE0101960E9478E964
:104DD0002D813E814F81588520933C0A30933D0AB6
:104DE00040933E0A50933F0A4092400A5092410A33
:104DF0006092420A7092430AD1012D913D914D91EA
:104E00005C916091480A7091490A80914A0A909198
:104E10004B0A0F94E97E6093480A7093490A809385
:104E20004A0A90934B0A11112FC020E030E0A901EB
:104E300069857A858B859C850F941978811133C09B
:104E400060E070E088EC92E469837A838B839C83D2
:104E5000CE0101960E9478E92C960FB6F894DEBF39
:104E60000FBECDBFDF91CF911F91FF90EF90DF90EC
:104E7000CF90BF90AF909F908F907F906F905F90FA
:104E80004F903F902F9008952AEF3EE74AE25FE36C
:104E90006091F80A7091F90A8091FA0A9091FB0AE0
:104EA0000F947E78D1CF60E070E080EA91E4CCCFBF
:104EB000CF93DF9300D01F92CDB7DEB780E090E0B4
:104EC000A8ECB2E489839A83AB83BC8361E0CE0112
:104ED00001960E948BC20F900F900F900F90DF9160
:104EE000CF9108958091C6059091C705009731F044
:104EF0004AE050E070E060E00D943A7660E070E0E7
:104F0000CB0108958091890A82FF0BC063E68BE78D
:104F100097E00F94E1220F94A05B0F94292C81E07D
:104F2000089580E008958091C6059091C705009787
:104F300031F04AE050E070E060E00D940D7560E003
:104F400070E0CB010895CF93DF93EB0108DD882358
:104F500011F0E9DFEB01CE01DF91CF910895E3DF9E
:104F600097FD0AC0E0DF6F3F71058105910509F0EB
:104F70002CF4D9DF862F089580E008958FEF0895EF
:104F8000CF93C62FECDC882311F0CF91E8CF8C2F84
:104F9000CF9108958091C6059091C705892B39F06E
:104FA000DEDF91E0811101C090E0892F089591E04A
:104FB000FCCFCF93DF93C82FD62FD1DC882319F0F5
:104FC000DF91CF91E7CF8C2F7CDC811101C08D2F39
:104FD000DF91CF910895A7DFCB010895CF93DF93A1
:104FE0009091C70A93FD53C0C82F89E4B8DC882389
:104FF00009F450C0B4DF90E01816190614F481E0EB
:1050000090E026E0289FF001299FF00D1124E95A35
:10501000F64F82819381D0E08E36910514F08EE6B2
:1050200090E090934909809348099DDD609148097B
:1050300070914909072E000C880B990B0F941F786B
:105040002091440930914509409146095091470902
:105050000F94108160E018168CF487EE97E10F949E
:10506000E12261E06C278C2F0E9496A9CC2349F0A5
:1050700060E08D2FDF91CF910C943FA688ED97E1F2
:10508000EECF85E493E29093C3168093C216DF912E
:10509000CF91089583E563DCD82F811106C0CC231E
:1050A000B1F382E55CDC882391F395DFB5CFCF9334
:1050B000DF93EB0154DC882319F0DF91CF918BCF84
:1050C000CE01DF91CF9108950F931F93CF938091DD
:1050D000C6059091C7050097E9F0FC018F01C191C9
:1050E0002C2F2F7D81F0C53411F0C536B9F7F801AA
:1050F000108270E060E00F94B773F801C083CF9125
:105100001F910F91089570E060E0CF911F910F9172
:105110000D94B77360E070E0CB01F1CFCF92DF92D6
:10512000EF92FF926A017B011ADC882329F0FF903D
:10513000EF90DF90CF90C8CFC701B601FF90EF90FE
:10514000DF90CF900895AF92BF92CF92DF92EF920F
:10515000FF920F931F93CF935C016B018A018E59CD
:105160009A4F7C01DC01CC91C7FF3DC0FB0111824D
:105170001082CF5FD701CC93CC300CF053C08CE0C1
:105180008A9DF0018B9DF00D1124CF018C0F911D94
:10519000C7FD9A95209196172817190609F00CF467
:1051A00041C0F60120813181FC01EE0FFF1FE80FA5
:1051B000F91FE25BF84E81819281820F931FD80123
:1051C00011969C938E93808187FF3DC061E08F771D
:1051D000CF911F910F91FF90EF90DF90CF90BF90F4
:1051E000AF900D94D55A8CE08A9DF0018B9DF00D07
:1051F0001124CF018C0F911DC7FD9A952091961710
:105200002817190609F00CF4B4CFFC01EE0FFF1FAC
:10521000E80FF91FE25BF84E808160E08F770F9412
:10522000D55AA7CFF6018081918104968034FCE99C
:105230009F0710F480E49CE9D80111969C938E930B
:105240008FEFF7018083CF911F910F91FF90EF9027
:10525000DF90CF90BF90AF900895119800C09091CB
:10526000020187FD9095917090930001119A00C002
:1052700000C0119800C09091020186FD9095917038
:1052800090930001119A00C000C0119800C0909145
:10529000020185FD9095917090930001119A00C0D4
:1052A00000C0119800C09091020184FD909591700A
:1052B00090930001119A00C000C0119800C0909115
:1052C000020183FD9095917090930001119A00C0A6
:1052D00000C0119800C09091020182FD90959170DC
:1052E00090930001119A00C000C0119800C09091E5
:1052F000020181FD9095917090930001119A00C078
:1053000000C0119800C0809102018170809300015B
:10531000119A00C000C0089520E030E040E05FE353
:105320006091600A7091610A8091620A9091630AAB
:105330000F94E97E0F942D80CB0108959CE0899F06
:10534000802D112491E0980F9093FA052CE0280FFE
:105350002093850930E02E5F3F4F40911B18421784
:10536000130619F014F080E0089520911D1892178B
:10537000D0F7662341F08E5F0F948C5D8091850994
:105380008E5F0F948C5D8091850990911B18891711
:1053900050F320911D189091FA05291720F31092CF
:1053A0001E1880931F1881E00895CF938091F9050E
:1053B000811154C010921E1810921F1810922018BC
:1053C0001092EC171092EB171092EE171092ED1747
:1053D0001092F01781E08093EF1782E28093F1172B
:1053E0001092F6171092F517EAE0F8E128E138E19B
:1053F0008FEF81932E173F07E1F7C1E0C0930718A5
:1054000022EE30E03093FD172093FC17C093FE1777
:105410001092FF171092001890E4909301181092C8
:10542000021826ED30E0309319182093181827E160
:1054300032E03093EA172093E91797E190930E1822
:1054400091E190930F1890E190930C1880930B18B2
:1054500080930A180F946A5CC093F90581E08093E9
:10546000FB058BE59AE190931B1780931A17109216
:105470001D1710921C17CF9108952091F805022E48
:10548000000C330B8217130641F08093F8056BE58F
:105490007AE187EE97E10D945E5E0895EF92FF92B8
:1054A0000F931F93CF93DF93CDB7DEB72C970FB633
:1054B000F894DEBF0FBECDBFFC0160817181828197
:1054C00093816F3F71058105910509F0B8F483EE72
:1054D00097E122DBE091EB17F091EC173196849184
:1054E00090E02C960FB6F894DEBF0FBECDBFDF91D3
:1054F000CF911F910F91FF90EF90089510911E187A
:1055000000911F182091FB0521110FC04BE35AE1B8
:10551000602F812F0F94215F90E080E0180F10938F
:105520001E1800931F189927DCCFE090EB17F0901E
:10553000EC1727EE37E13A832983212F30E03C83B3
:105540002B83202F30E03E832D8318861F822FEF80
:105550003FEF3A8729871C861B862AE235E2AE0197
:105560004F5F5F4FBF01C7010F94BD49B70187EE81
:1055700097E10F945E5E8F819885D0CFCF93DF93B4
:10558000FC0125AD211104C021E025AF0F946A5C18
:10559000C091E917D091EA17E0911818F091191805
:1055A00082E01995E0911818F091191881E0199589
:1055B00030E020E044E1BE0187EE97E10F94665CA5
:1055C0002AE138E147E1BE0187EE97E10F94665C7E
:1055D000E0911818F091191880E0DF91CF9119949B
:1055E000CF92DF92EF92FF920F931F93CF93DF93AF
:1055F000CDB7DEB72C970FB6F894DEBF0FBECDBF88
:10560000F0901E18E0901F182091FB0521111DC07D
:105610004BE15AE16E2D8F2D0F94215F90E080E0D9
:10562000F80EF0921E18E0921F1899272C960FB6CC
:10563000F894DEBF0FBECDBFDF91CF911F910F91C8
:10564000FF90EF90DF90CF900895C090EB17D0902F
:10565000EC1727EE37E13A8329832F2D30E03C8386
:105660002B832E2D30E03E832D8318861F827A8770
:1056700069871C861B860AE215E29E012F5F3F4F59
:1056800046E15EEEBC01C6010F94824AB60187EE88
:1056900097E10F945E5E8F819885C2CF6FEF7FEFA9
:1056A0009FCFE3EEF7E183AF64AF6FEF7FEFCA0107
:1056B00097CFCF92DF92EF92FF920F931F93CF93EA
:1056C000DF93CDB7DEB72C970FB6F894DEBF0FBED1
:1056D000CDBFF0901E18E0901F182091FB052111FE
:1056E0001DC04BEF59E16E2D8F2D0F94215F90E07F
:1056F00080E0F80EF0921E18E0921F1899272C9661
:105700000FB6F894DEBF0FBECDBFDF91CF911F91D2
:105710000F91FF90EF90DF90CF900895C090EB171E
:10572000D090EC1727EE37E13A8329832F2D30E014
:105730003C832B832E2D30E03E832D8318861F82E1
:105740007A8769871C861B860AE215E29E012F5F15
:105750003F4F49E15EEEBC01C6010F94824AB6019B
:1057600087EE97E10F945E5E8F819885C2CF2F926E
:105770003F924F925F926F927F928F929F92AF92E1
:10578000BF92CF92DF92EF92FF920F931F93CF932E
:10579000DF9300D01F92CDB7DEB76B01142F7901D4
:1057A00041FB662760F9CADD882309F474C0B12C77
:1057B000A12CC114D10439F0C6010F944A2C66E023
:1057C000869F50011124312C212CE114F10429F081
:1057D000C7010F94582C282E312C10FF28C080E8C8
:1057E00090E08A199B094AEFB10146039001479F57
:1057F000300D1124820F931F6CE070E00F94CD7E6A
:105800004B0100E810E090E2492E512C612C712CE4
:1058100071E0871A910897FC0CC049825A826B820A
:105820007C82CE0101963ADE081B190BF1CF00E80D
:1058300010E0AB28B9F0C80166E070E00F94B97EC3
:105840002091890930918A094091870950918809EE
:10585000062F60918609C6010F94E93696E0899F6C
:1058600080011124232829F0B801C70122DF081B79
:10587000190B80E2C82ED12CE12CF12C0730110538
:1058800050F0C982DA82EB82FC82CE01019606DEFC
:10589000081B190BF3CF0F900F900F900F90DF9113
:1058A000CF911F910F91FF90EF90DF90CF90BF901D
:1058B000AF909F908F907F906F905F904F903F90B0
:1058C0002F9008956FEF7FEFF4CE8F929F92AF925B
:1058D000BF92CF92DF92EF92FF920F931F93CF93DD
:1058E000DF9300D01F92CDB7DEB74C016B010F9450
:1058F0004A2CA82EC6010F94582CB12C23E130E07D
:105900007901E81AF10815E2EA14FB040CF41FE12E
:10591000812F90E09C012E5F3F4F40911B18421752
:10592000130611F00CF049C0099720911D18281793
:1059300019060CF442C02091890930918A094091DE
:105940008709509188096091860910921E1810935A
:105950001F1805E1C4010F94E93601E0C114D10418
:10596000D9F08AE390E0A0E0B0E089839A83AB832A
:10597000BC83CE01019692DDEA14FB0404F5145FAA
:1059800080911B18181740F020911D18412F495085
:10599000550B24171506ACF40F900F900F900F9035
:1059A000DF91CF911F910F91FF90EF90DF90CF90FB
:1059B000BF90AF909F908F90089500E0CFCF0023CD
:1059C00059F380E290E0A0E0B0E089839A83AB8352
:1059D000BC838E2D880FE80EEE0CE0921E181093FB
:1059E0001F18CE0101965ADDC6016CDFD5CF4F924C
:1059F0005F926F927F928F929F92AF92BF92CF925F
:105A0000DF92EF92FF920F931F93CF93DF93CDB767
:105A1000DEB72C970FB6F894DEBF0FBECDBF982F20
:105A2000862F5A017901D02E692F88DC882309F44A
:105A30009BC0C701002309F441C00F944A2CC82E13
:105A40008090EB179090EC178091FB05811155C069
:105A50001FEF03E10C192091890930918A094091C7
:105A600087095091880960918609C5010F94E9362C
:105A7000CC2009F479C0B6E08B9F500111248AE351
:105A800090E0A0E0B0E089839A83AB83BC83CE0131
:105A9000019604DD80E2482E512C612C712C57E0D8
:105AA000A516B10408F446C049825A826B827C82F2
:105AB000CE010196F3DCA81AB90AF1CF0F94582C45
:105AC000C82E8090EB179090EC178091FB058823EF
:105AD00009F4BECFFE0133968AE0DF011D928A955C
